{
	"SuperDepositor.sol": {
		"SuperDepositor": {
			"abi": [
				{
					"inputs": [
						{
							"internalType": "address",
							"name": "_balVault",
							"type": "address"
						}
					],
					"stateMutability": "nonpayable",
					"type": "constructor"
				},
				{
					"inputs": [],
					"name": "balVault",
					"outputs": [
						{
							"internalType": "address",
							"name": "",
							"type": "address"
						}
					],
					"stateMutability": "view",
					"type": "function"
				},
				{
					"inputs": [
						{
							"internalType": "address",
							"name": "tokenIn",
							"type": "address"
						},
						{
							"components": [
								{
									"internalType": "contract IAsset[]",
									"name": "underlyings",
									"type": "address[]"
								},
								{
									"internalType": "uint256",
									"name": "depositTokenIndex",
									"type": "uint256"
								},
								{
									"internalType": "bytes32",
									"name": "beetsPoolId",
									"type": "bytes32"
								},
								{
									"internalType": "address",
									"name": "lpToken",
									"type": "address"
								},
								{
									"internalType": "address",
									"name": "vault",
									"type": "address"
								},
								{
									"internalType": "address",
									"name": "recipient",
									"type": "address"
								}
							],
							"internalType": "struct SuperDepositor.DepositParams",
							"name": "details",
							"type": "tuple"
						},
						{
							"internalType": "uint256",
							"name": "amount",
							"type": "uint256"
						}
					],
					"name": "routeDeposit",
					"outputs": [],
					"stateMutability": "nonpayable",
					"type": "function"
				},
				{
					"inputs": [
						{
							"components": [
								{
									"internalType": "contract IAsset[]",
									"name": "underlyings",
									"type": "address[]"
								},
								{
									"internalType": "uint256",
									"name": "depositTokenIndex",
									"type": "uint256"
								},
								{
									"internalType": "bytes32",
									"name": "beetsPoolId",
									"type": "bytes32"
								},
								{
									"internalType": "address",
									"name": "lpToken",
									"type": "address"
								},
								{
									"internalType": "address",
									"name": "vault",
									"type": "address"
								},
								{
									"internalType": "address",
									"name": "recipient",
									"type": "address"
								}
							],
							"internalType": "struct SuperDepositor.DepositParams",
							"name": "details",
							"type": "tuple"
						},
						{
							"internalType": "uint256",
							"name": "amount",
							"type": "uint256"
						}
					],
					"name": "singleSideDeposit",
					"outputs": [],
					"stateMutability": "nonpayable",
					"type": "function"
				}
			],
			"devdoc": {
				"author": "andreas@nascent.xyz",
				"kind": "dev",
				"methods": {},
				"title": "Greeter",
				"version": 1
			},
			"evm": {
				"assembly": "    /* \"SuperDepositor.sol\":289:3616  contract SuperDepositor {... */\n  mstore(0x40, 0xa0)\n    /* \"SuperDepositor.sol\":904:974  constructor(address _balVault) {... */\n  callvalue\n  dup1\n  iszero\n  tag_1\n  jumpi\n  0x00\n  dup1\n  revert\ntag_1:\n  pop\n  mload(0x40)\n  sub(codesize, bytecodeSize)\n  dup1\n  bytecodeSize\n  dup4\n  codecopy\n  dup2\n  dup2\n  add\n  0x40\n  mstore\n  dup2\n  add\n  swap1\n  tag_2\n  swap2\n  swap1\n  tag_3\n  jump\t// in\ntag_2:\n    /* \"SuperDepositor.sol\":957:966  _balVault */\n  dup1\n    /* \"SuperDepositor.sol\":946:966  balVault = _balVault */\n  0xffffffffffffffffffffffffffffffffffffffff\n  and\n  0x80\n  dup2\n  0xffffffffffffffffffffffffffffffffffffffff\n  and\n  dup2\n  mstore\n  pop\n  pop\n    /* \"SuperDepositor.sol\":904:974  constructor(address _balVault) {... */\n  pop\n    /* \"SuperDepositor.sol\":289:3616  contract SuperDepositor {... */\n  jump(tag_6)\n    /* \"#utility.yul\":88:205   */\ntag_8:\n    /* \"#utility.yul\":197:198   */\n  0x00\n    /* \"#utility.yul\":194:195   */\n  dup1\n    /* \"#utility.yul\":187:199   */\n  revert\n    /* \"#utility.yul\":334:460   */\ntag_10:\n    /* \"#utility.yul\":371:378   */\n  0x00\n    /* \"#utility.yul\":411:453   */\n  0xffffffffffffffffffffffffffffffffffffffff\n    /* \"#utility.yul\":404:409   */\n  dup3\n    /* \"#utility.yul\":400:454   */\n  and\n    /* \"#utility.yul\":389:454   */\n  swap1\n  pop\n    /* \"#utility.yul\":334:460   */\n  swap2\n  swap1\n  pop\n  jump\t// out\n    /* \"#utility.yul\":466:562   */\ntag_11:\n    /* \"#utility.yul\":503:510   */\n  0x00\n    /* \"#utility.yul\":532:556   */\n  tag_20\n    /* \"#utility.yul\":550:555   */\n  dup3\n    /* \"#utility.yul\":532:556   */\n  tag_10\n  jump\t// in\ntag_20:\n    /* \"#utility.yul\":521:556   */\n  swap1\n  pop\n    /* \"#utility.yul\":466:562   */\n  swap2\n  swap1\n  pop\n  jump\t// out\n    /* \"#utility.yul\":568:690   */\ntag_12:\n    /* \"#utility.yul\":641:665   */\n  tag_22\n    /* \"#utility.yul\":659:664   */\n  dup2\n    /* \"#utility.yul\":641:665   */\n  tag_11\n  jump\t// in\ntag_22:\n    /* \"#utility.yul\":634:639   */\n  dup2\n    /* \"#utility.yul\":631:666   */\n  eq\n    /* \"#utility.yul\":621:684   */\n  tag_23\n  jumpi\n    /* \"#utility.yul\":680:681   */\n  0x00\n    /* \"#utility.yul\":677:678   */\n  dup1\n    /* \"#utility.yul\":670:682   */\n  revert\n    /* \"#utility.yul\":621:684   */\ntag_23:\n    /* \"#utility.yul\":568:690   */\n  pop\n  jump\t// out\n    /* \"#utility.yul\":696:839   */\ntag_13:\n    /* \"#utility.yul\":753:758   */\n  0x00\n    /* \"#utility.yul\":784:790   */\n  dup2\n    /* \"#utility.yul\":778:791   */\n  mload\n    /* \"#utility.yul\":769:791   */\n  swap1\n  pop\n    /* \"#utility.yul\":800:833   */\n  tag_25\n    /* \"#utility.yul\":827:832   */\n  dup2\n    /* \"#utility.yul\":800:833   */\n  tag_12\n  jump\t// in\ntag_25:\n    /* \"#utility.yul\":696:839   */\n  swap3\n  swap2\n  pop\n  pop\n  jump\t// out\n    /* \"#utility.yul\":845:1196   */\ntag_3:\n    /* \"#utility.yul\":915:921   */\n  0x00\n    /* \"#utility.yul\":964:966   */\n  0x20\n    /* \"#utility.yul\":952:961   */\n  dup3\n    /* \"#utility.yul\":943:950   */\n  dup5\n    /* \"#utility.yul\":939:962   */\n  sub\n    /* \"#utility.yul\":935:967   */\n  slt\n    /* \"#utility.yul\":932:1051   */\n  iszero\n  tag_27\n  jumpi\n    /* \"#utility.yul\":970:1049   */\n  tag_28\n  tag_8\n  jump\t// in\ntag_28:\n    /* \"#utility.yul\":932:1051   */\ntag_27:\n    /* \"#utility.yul\":1090:1091   */\n  0x00\n    /* \"#utility.yul\":1115:1179   */\n  tag_29\n    /* \"#utility.yul\":1171:1178   */\n  dup5\n    /* \"#utility.yul\":1162:1168   */\n  dup3\n    /* \"#utility.yul\":1151:1160   */\n  dup6\n    /* \"#utility.yul\":1147:1169   */\n  add\n    /* \"#utility.yul\":1115:1179   */\n  tag_13\n  jump\t// in\ntag_29:\n    /* \"#utility.yul\":1105:1179   */\n  swap2\n  pop\n    /* \"#utility.yul\":1061:1189   */\n  pop\n    /* \"#utility.yul\":845:1196   */\n  swap3\n  swap2\n  pop\n  pop\n  jump\t// out\n    /* \"SuperDepositor.sol\":289:3616  contract SuperDepositor {... */\ntag_6:\n  mload(0x80)\n  codecopy(0x00, dataOffset(sub_0), dataSize(sub_0))\n  0x00\n  assignImmutable(\"0xf3c94672c9097e8255317de36dd0d00a9f72d57eeb896861f583a1140be6889a\")\n  return(0x00, dataSize(sub_0))\nstop\n\nsub_0: assembly {\n        /* \"SuperDepositor.sol\":289:3616  contract SuperDepositor {... */\n      mstore(0x40, 0x80)\n      callvalue\n      dup1\n      iszero\n      tag_1\n      jumpi\n      0x00\n      dup1\n      revert\n    tag_1:\n      pop\n      jumpi(tag_2, lt(calldatasize, 0x04))\n      shr(0xe0, calldataload(0x00))\n      dup1\n      0x77aba213\n      eq\n      tag_3\n      jumpi\n      dup1\n      0x81144563\n      eq\n      tag_4\n      jumpi\n      dup1\n      0x9cbcf4c7\n      eq\n      tag_5\n      jumpi\n    tag_2:\n      0x00\n      dup1\n      revert\n        /* \"SuperDepositor.sol\":379:412  address public immutable balVault */\n    tag_3:\n      tag_6\n      tag_7\n      jump\t// in\n    tag_6:\n      mload(0x40)\n      tag_8\n      swap2\n      swap1\n      tag_9\n      jump\t// in\n    tag_8:\n      mload(0x40)\n      dup1\n      swap2\n      sub\n      swap1\n      return\n        /* \"SuperDepositor.sol\":1404:1883  function singleSideDeposit(DepositParams memory details, uint256 amount) public {... */\n    tag_4:\n      tag_10\n      0x04\n      dup1\n      calldatasize\n      sub\n      dup2\n      add\n      swap1\n      tag_11\n      swap2\n      swap1\n      tag_12\n      jump\t// in\n    tag_11:\n      tag_13\n      jump\t// in\n    tag_10:\n      stop\n        /* \"SuperDepositor.sol\":982:1396  function routeDeposit(address tokenIn, DepositParams memory details, uint256 amount) public {... */\n    tag_5:\n      tag_14\n      0x04\n      dup1\n      calldatasize\n      sub\n      dup2\n      add\n      swap1\n      tag_15\n      swap2\n      swap1\n      tag_16\n      jump\t// in\n    tag_15:\n      tag_17\n      jump\t// in\n    tag_14:\n      stop\n        /* \"SuperDepositor.sol\":379:412  address public immutable balVault */\n    tag_7:\n      immutable(\"0xf3c94672c9097e8255317de36dd0d00a9f72d57eeb896861f583a1140be6889a\")\n      dup2\n      jump\t// out\n        /* \"SuperDepositor.sol\":1404:1883  function singleSideDeposit(DepositParams memory details, uint256 amount) public {... */\n    tag_13:\n        /* \"SuperDepositor.sol\":1495:1523  IERC20Upgradeable inputToken */\n      0x00\n        /* \"SuperDepositor.sol\":1552:1559  details */\n      dup3\n        /* \"SuperDepositor.sol\":1552:1571  details.underlyings */\n      0x00\n      add\n      mload\n        /* \"SuperDepositor.sol\":1572:1579  details */\n      dup4\n        /* \"SuperDepositor.sol\":1572:1597  details.depositTokenIndex */\n      0x20\n      add\n      mload\n        /* \"SuperDepositor.sol\":1552:1598  details.underlyings[details.depositTokenIndex] */\n      dup2\n      mload\n      dup2\n      lt\n      tag_19\n      jumpi\n      tag_20\n      tag_21\n      jump\t// in\n    tag_20:\n    tag_19:\n      0x20\n      mul\n      0x20\n      add\n      add\n      mload\n        /* \"SuperDepositor.sol\":1495:1600  IERC20Upgradeable inputToken = IERC20Upgradeable(address(details.underlyings[details.depositTokenIndex])) */\n      swap1\n      pop\n        /* \"SuperDepositor.sol\":1611:1673  inputToken.safeTransferFrom(msg.sender, address(this), amount) */\n      tag_22\n        /* \"SuperDepositor.sol\":1639:1649  msg.sender */\n      caller\n        /* \"SuperDepositor.sol\":1659:1663  this */\n      address\n        /* \"SuperDepositor.sol\":1666:1672  amount */\n      dup5\n        /* \"SuperDepositor.sol\":1611:1621  inputToken */\n      dup5\n        /* \"SuperDepositor.sol\":1611:1638  inputToken.safeTransferFrom */\n      0xffffffffffffffffffffffffffffffffffffffff\n      and\n      tag_23\n      swap1\n        /* \"SuperDepositor.sol\":1611:1673  inputToken.safeTransferFrom(msg.sender, address(this), amount) */\n      swap4\n      swap3\n      swap2\n      swap1\n      0xffffffff\n      and\n      jump\t// in\n    tag_22:\n        /* \"SuperDepositor.sol\":1684:1770  _joinPool(details.underlyings, amount, details.depositTokenIndex, details.beetsPoolId) */\n      tag_24\n        /* \"SuperDepositor.sol\":1694:1701  details */\n      dup4\n        /* \"SuperDepositor.sol\":1694:1713  details.underlyings */\n      0x00\n      add\n      mload\n        /* \"SuperDepositor.sol\":1715:1721  amount */\n      dup4\n        /* \"SuperDepositor.sol\":1723:1730  details */\n      dup6\n        /* \"SuperDepositor.sol\":1723:1748  details.depositTokenIndex */\n      0x20\n      add\n      mload\n        /* \"SuperDepositor.sol\":1750:1757  details */\n      dup7\n        /* \"SuperDepositor.sol\":1750:1769  details.beetsPoolId */\n      0x40\n      add\n      mload\n        /* \"SuperDepositor.sol\":1684:1693  _joinPool */\n      tag_25\n        /* \"SuperDepositor.sol\":1684:1770  _joinPool(details.underlyings, amount, details.depositTokenIndex, details.beetsPoolId) */\n      jump\t// in\n    tag_24:\n        /* \"SuperDepositor.sol\":1807:1875  _depositLPToVault(details.lpToken, details.vault, details.recipient) */\n      tag_26\n        /* \"SuperDepositor.sol\":1825:1832  details */\n      dup4\n        /* \"SuperDepositor.sol\":1825:1840  details.lpToken */\n      0x60\n      add\n      mload\n        /* \"SuperDepositor.sol\":1842:1849  details */\n      dup5\n        /* \"SuperDepositor.sol\":1842:1855  details.vault */\n      0x80\n      add\n      mload\n        /* \"SuperDepositor.sol\":1857:1864  details */\n      dup6\n        /* \"SuperDepositor.sol\":1857:1874  details.recipient */\n      0xa0\n      add\n      mload\n        /* \"SuperDepositor.sol\":1807:1824  _depositLPToVault */\n      tag_27\n        /* \"SuperDepositor.sol\":1807:1875  _depositLPToVault(details.lpToken, details.vault, details.recipient) */\n      jump\t// in\n    tag_26:\n        /* \"SuperDepositor.sol\":1484:1883  {... */\n      pop\n        /* \"SuperDepositor.sol\":1404:1883  function singleSideDeposit(DepositParams memory details, uint256 amount) public {... */\n      pop\n      pop\n      jump\t// out\n        /* \"SuperDepositor.sol\":982:1396  function routeDeposit(address tokenIn, DepositParams memory details, uint256 amount) public {... */\n    tag_17:\n        /* \"SuperDepositor.sol\":1234:1241  details */\n      dup2\n        /* \"SuperDepositor.sol\":1234:1253  details.underlyings */\n      0x00\n      add\n      mload\n        /* \"SuperDepositor.sol\":1254:1261  details */\n      dup3\n        /* \"SuperDepositor.sol\":1254:1279  details.depositTokenIndex */\n      0x20\n      add\n      mload\n        /* \"SuperDepositor.sol\":1234:1280  details.underlyings[details.depositTokenIndex] */\n      dup2\n      mload\n      dup2\n      lt\n      tag_29\n      jumpi\n      tag_30\n      tag_21\n      jump\t// in\n    tag_30:\n    tag_29:\n      0x20\n      mul\n      0x20\n      add\n      add\n      mload\n        /* \"SuperDepositor.sol\":1215:1281  tokenIn == address(details.underlyings[details.depositTokenIndex]) */\n      0xffffffffffffffffffffffffffffffffffffffff\n      and\n        /* \"SuperDepositor.sol\":1215:1222  tokenIn */\n      dup4\n        /* \"SuperDepositor.sol\":1215:1281  tokenIn == address(details.underlyings[details.depositTokenIndex]) */\n      0xffffffffffffffffffffffffffffffffffffffff\n      and\n      sub\n        /* \"SuperDepositor.sol\":1212:1379  if(tokenIn == address(details.underlyings[details.depositTokenIndex])){... */\n      tag_31\n      jumpi\n        /* \"SuperDepositor.sol\":1297:1331  singleSideDeposit(details, amount) */\n      tag_32\n        /* \"SuperDepositor.sol\":1315:1322  details */\n      dup3\n        /* \"SuperDepositor.sol\":1324:1330  amount */\n      dup3\n        /* \"SuperDepositor.sol\":1297:1314  singleSideDeposit */\n      tag_13\n        /* \"SuperDepositor.sol\":1297:1331  singleSideDeposit(details, amount) */\n      jump\t// in\n    tag_32:\n        /* \"SuperDepositor.sol\":1212:1379  if(tokenIn == address(details.underlyings[details.depositTokenIndex])){... */\n      jump(tag_33)\n    tag_31:\n    tag_33:\n        /* \"SuperDepositor.sol\":982:1396  function routeDeposit(address tokenIn, DepositParams memory details, uint256 amount) public {... */\n      pop\n      pop\n      pop\n      jump\t// out\n        /* \"@openzeppelin/contracts-upgradeable/token/ERC20/utils/SafeERC20Upgradeable.sol\":967:1219  function safeTransferFrom(... */\n    tag_23:\n        /* \"@openzeppelin/contracts-upgradeable/token/ERC20/utils/SafeERC20Upgradeable.sol\":1116:1212  _callOptionalReturn(token, abi.encodeWithSelector(token.transferFrom.selector, from, to, value)) */\n      tag_35\n        /* \"@openzeppelin/contracts-upgradeable/token/ERC20/utils/SafeERC20Upgradeable.sol\":1136:1141  token */\n      dup5\n        /* \"@openzeppelin/contracts-upgradeable/token/ERC20/utils/SafeERC20Upgradeable.sol\":1166:1193  token.transferFrom.selector */\n      shl(0xe0, 0x23b872dd)\n        /* \"@openzeppelin/contracts-upgradeable/token/ERC20/utils/SafeERC20Upgradeable.sol\":1195:1199  from */\n      dup6\n        /* \"@openzeppelin/contracts-upgradeable/token/ERC20/utils/SafeERC20Upgradeable.sol\":1201:1203  to */\n      dup6\n        /* \"@openzeppelin/contracts-upgradeable/token/ERC20/utils/SafeERC20Upgradeable.sol\":1205:1210  value */\n      dup6\n        /* \"@openzeppelin/contracts-upgradeable/token/ERC20/utils/SafeERC20Upgradeable.sol\":1143:1211  abi.encodeWithSelector(token.transferFrom.selector, from, to, value) */\n      add(0x24, mload(0x40))\n      tag_36\n      swap4\n      swap3\n      swap2\n      swap1\n      tag_37\n      jump\t// in\n    tag_36:\n      mload(0x40)\n      0x20\n      dup2\n      dup4\n      sub\n      sub\n      dup2\n      mstore\n      swap1\n      0x40\n      mstore\n      swap1\n      not(0xffffffffffffffffffffffffffffffffffffffffffffffffffffffff)\n      and\n      0x20\n      dup3\n      add\n      dup1\n      mload\n      0xffffffffffffffffffffffffffffffffffffffffffffffffffffffff\n      dup4\n      dup2\n      dup4\n      and\n      or\n      dup4\n      mstore\n      pop\n      pop\n      pop\n      pop\n        /* \"@openzeppelin/contracts-upgradeable/token/ERC20/utils/SafeERC20Upgradeable.sol\":1116:1135  _callOptionalReturn */\n      tag_38\n        /* \"@openzeppelin/contracts-upgradeable/token/ERC20/utils/SafeERC20Upgradeable.sol\":1116:1212  _callOptionalReturn(token, abi.encodeWithSelector(token.transferFrom.selector, from, to, value)) */\n      jump\t// in\n    tag_35:\n        /* \"@openzeppelin/contracts-upgradeable/token/ERC20/utils/SafeERC20Upgradeable.sol\":967:1219  function safeTransferFrom(... */\n      pop\n      pop\n      pop\n      pop\n      jump\t// out\n        /* \"SuperDepositor.sol\":2693:3611  function _joinPool(IAsset[] memory underlyings, uint256 amtIn, uint256 tokenIndex, bytes32 beetsPoolId) internal {... */\n    tag_25:\n        /* \"SuperDepositor.sol\":2817:2831  uint8 joinKind */\n      0x00\n        /* \"SuperDepositor.sol\":2834:2835  1 */\n      0x01\n        /* \"SuperDepositor.sol\":2817:2835  uint8 joinKind = 1 */\n      swap1\n      pop\n        /* \"SuperDepositor.sol\":2928:2954  uint256[] memory amountsIn */\n      0x00\n        /* \"SuperDepositor.sol\":2971:2982  underlyings */\n      dup6\n        /* \"SuperDepositor.sol\":2971:2989  underlyings.length */\n      mload\n        /* \"SuperDepositor.sol\":2957:2990  new uint256[](underlyings.length) */\n      0xffffffffffffffff\n      dup2\n      gt\n      iszero\n      tag_40\n      jumpi\n      tag_41\n      tag_42\n      jump\t// in\n    tag_41:\n    tag_40:\n      mload(0x40)\n      swap1\n      dup1\n      dup3\n      mstore\n      dup1\n      0x20\n      mul\n      0x20\n      add\n      dup3\n      add\n      0x40\n      mstore\n      dup1\n      iszero\n      tag_43\n      jumpi\n      dup2\n      0x20\n      add\n      0x20\n      dup3\n      mul\n      dup1\n      calldatasize\n      dup4\n      calldatacopy\n      dup1\n      dup3\n      add\n      swap2\n      pop\n      pop\n      swap1\n      pop\n    tag_43:\n      pop\n        /* \"SuperDepositor.sol\":2928:2990  uint256[] memory amountsIn = new uint256[](underlyings.length) */\n      swap1\n      pop\n        /* \"SuperDepositor.sol\":3025:3030  amtIn */\n      dup5\n        /* \"SuperDepositor.sol\":3001:3010  amountsIn */\n      dup2\n        /* \"SuperDepositor.sol\":3011:3021  tokenIndex */\n      dup6\n        /* \"SuperDepositor.sol\":3001:3022  amountsIn[tokenIndex] */\n      dup2\n      mload\n      dup2\n      lt\n      tag_44\n      jumpi\n      tag_45\n      tag_21\n      jump\t// in\n    tag_45:\n    tag_44:\n      0x20\n      mul\n      0x20\n      add\n      add\n        /* \"SuperDepositor.sol\":3001:3030  amountsIn[tokenIndex] = amtIn */\n      dup2\n      dup2\n      mstore\n      pop\n      pop\n        /* \"SuperDepositor.sol\":3043:3063  uint256 minAmountOut */\n      0x00\n        /* \"SuperDepositor.sol\":3066:3067  1 */\n      0x01\n        /* \"SuperDepositor.sol\":3043:3067  uint256 minAmountOut = 1 */\n      swap1\n      pop\n        /* \"SuperDepositor.sol\":3119:3140  bytes memory userData */\n      0x00\n        /* \"SuperDepositor.sol\":3154:3162  joinKind */\n      dup4\n        /* \"SuperDepositor.sol\":3164:3173  amountsIn */\n      dup4\n        /* \"SuperDepositor.sol\":3175:3187  minAmountOut */\n      dup4\n        /* \"SuperDepositor.sol\":3143:3188  abi.encode(joinKind, amountsIn, minAmountOut) */\n      add(0x20, mload(0x40))\n      tag_46\n      swap4\n      swap3\n      swap2\n      swap1\n      tag_47\n      jump\t// in\n    tag_46:\n      mload(0x40)\n      0x20\n      dup2\n      dup4\n      sub\n      sub\n      dup2\n      mstore\n      swap1\n      0x40\n      mstore\n        /* \"SuperDepositor.sol\":3119:3188  bytes memory userData = abi.encode(joinKind, amountsIn, minAmountOut) */\n      swap1\n      pop\n        /* \"SuperDepositor.sol\":3201:3242  IBeetVault.JoinPoolRequest memory request */\n      tag_48\n      tag_49\n      jump\t// in\n    tag_48:\n        /* \"SuperDepositor.sol\":3270:3281  underlyings */\n      dup9\n        /* \"SuperDepositor.sol\":3253:3260  request */\n      dup2\n        /* \"SuperDepositor.sol\":3253:3267  request.assets */\n      0x00\n      add\n        /* \"SuperDepositor.sol\":3253:3281  request.assets = underlyings */\n      dup2\n      swap1\n      mstore\n      pop\n        /* \"SuperDepositor.sol\":3315:3324  amountsIn */\n      dup4\n        /* \"SuperDepositor.sol\":3292:3299  request */\n      dup2\n        /* \"SuperDepositor.sol\":3292:3312  request.maxAmountsIn */\n      0x20\n      add\n        /* \"SuperDepositor.sol\":3292:3324  request.maxAmountsIn = amountsIn */\n      dup2\n      swap1\n      mstore\n      pop\n        /* \"SuperDepositor.sol\":3354:3362  userData */\n      dup2\n        /* \"SuperDepositor.sol\":3335:3342  request */\n      dup2\n        /* \"SuperDepositor.sol\":3335:3351  request.userData */\n      0x40\n      add\n        /* \"SuperDepositor.sol\":3335:3362  request.userData = userData */\n      dup2\n      swap1\n      mstore\n      pop\n        /* \"SuperDepositor.sol\":3403:3408  false */\n      0x00\n        /* \"SuperDepositor.sol\":3373:3380  request */\n      dup2\n        /* \"SuperDepositor.sol\":3373:3400  request.fromInternalBalance */\n      0x60\n      add\n        /* \"SuperDepositor.sol\":3373:3408  request.fromInternalBalance = false */\n      swap1\n      iszero\n      iszero\n      swap1\n      dup2\n      iszero\n      iszero\n      dup2\n      mstore\n      pop\n      pop\n        /* \"SuperDepositor.sol\":3421:3511  IERC20Upgradeable(address(underlyings[tokenIndex])).safeIncreaseAllowance(balVault, amtIn) */\n      tag_50\n        /* \"SuperDepositor.sol\":3495:3503  balVault */\n      immutable(\"0xf3c94672c9097e8255317de36dd0d00a9f72d57eeb896861f583a1140be6889a\")\n        /* \"SuperDepositor.sol\":3505:3510  amtIn */\n      dup10\n        /* \"SuperDepositor.sol\":3447:3458  underlyings */\n      dup12\n        /* \"SuperDepositor.sol\":3459:3469  tokenIndex */\n      dup11\n        /* \"SuperDepositor.sol\":3447:3470  underlyings[tokenIndex] */\n      dup2\n      mload\n      dup2\n      lt\n      tag_51\n      jumpi\n      tag_52\n      tag_21\n      jump\t// in\n    tag_52:\n    tag_51:\n      0x20\n      mul\n      0x20\n      add\n      add\n      mload\n        /* \"SuperDepositor.sol\":3421:3494  IERC20Upgradeable(address(underlyings[tokenIndex])).safeIncreaseAllowance */\n      0xffffffffffffffffffffffffffffffffffffffff\n      and\n      tag_53\n      swap1\n        /* \"SuperDepositor.sol\":3421:3511  IERC20Upgradeable(address(underlyings[tokenIndex])).safeIncreaseAllowance(balVault, amtIn) */\n      swap3\n      swap2\n      swap1\n      0xffffffff\n      and\n      jump\t// in\n    tag_50:\n        /* \"SuperDepositor.sol\":3533:3541  balVault */\n      immutable(\"0xf3c94672c9097e8255317de36dd0d00a9f72d57eeb896861f583a1140be6889a\")\n        /* \"SuperDepositor.sol\":3522:3551  IBeetVault(balVault).joinPool */\n      0xffffffffffffffffffffffffffffffffffffffff\n      and\n      0xb95cac28\n        /* \"SuperDepositor.sol\":3552:3563  beetsPoolId */\n      dup8\n        /* \"SuperDepositor.sol\":3573:3577  this */\n      address\n        /* \"SuperDepositor.sol\":3588:3592  this */\n      address\n        /* \"SuperDepositor.sol\":3595:3602  request */\n      dup6\n        /* \"SuperDepositor.sol\":3522:3603  IBeetVault(balVault).joinPool(beetsPoolId, address(this), address(this), request) */\n      mload(0x40)\n      dup6\n      0xffffffff\n      and\n      0xe0\n      shl\n      dup2\n      mstore\n      0x04\n      add\n      tag_54\n      swap5\n      swap4\n      swap3\n      swap2\n      swap1\n      tag_55\n      jump\t// in\n    tag_54:\n      0x00\n      mload(0x40)\n      dup1\n      dup4\n      sub\n      dup2\n      0x00\n      dup8\n      dup1\n      extcodesize\n      iszero\n      dup1\n      iszero\n      tag_56\n      jumpi\n      0x00\n      dup1\n      revert\n    tag_56:\n      pop\n      gas\n      call\n      iszero\n      dup1\n      iszero\n      tag_58\n      jumpi\n      returndatasize\n      0x00\n      dup1\n      returndatacopy\n      revert(0x00, returndatasize)\n    tag_58:\n      pop\n      pop\n      pop\n      pop\n        /* \"SuperDepositor.sol\":2806:3611  {... */\n      pop\n      pop\n      pop\n      pop\n      pop\n        /* \"SuperDepositor.sol\":2693:3611  function _joinPool(IAsset[] memory underlyings, uint256 amtIn, uint256 tokenIndex, bytes32 beetsPoolId) internal {... */\n      pop\n      pop\n      pop\n      pop\n      jump\t// out\n        /* \"SuperDepositor.sol\":1891:2298  function _depositLPToVault(address lp, address vault, address recipient) internal {... */\n    tag_27:\n        /* \"SuperDepositor.sol\":2009:2036  _approveIfNeeded(vault, lp) */\n      tag_60\n        /* \"SuperDepositor.sol\":2026:2031  vault */\n      dup3\n        /* \"SuperDepositor.sol\":2033:2035  lp */\n      dup5\n        /* \"SuperDepositor.sol\":2009:2025  _approveIfNeeded */\n      tag_61\n        /* \"SuperDepositor.sol\":2009:2036  _approveIfNeeded(vault, lp) */\n      jump\t// in\n    tag_60:\n        /* \"SuperDepositor.sol\":2104:2109  vault */\n      dup2\n        /* \"SuperDepositor.sol\":2097:2121  IVault(vault).depositAll */\n      0xffffffffffffffffffffffffffffffffffffffff\n      and\n      0xde5f6268\n        /* \"SuperDepositor.sol\":2097:2123  IVault(vault).depositAll() */\n      mload(0x40)\n      dup2\n      0xffffffff\n      and\n      0xe0\n      shl\n      dup2\n      mstore\n      0x04\n      add\n      0x00\n      mload(0x40)\n      dup1\n      dup4\n      sub\n      dup2\n      0x00\n      dup8\n      dup1\n      extcodesize\n      iszero\n      dup1\n      iszero\n      tag_62\n      jumpi\n      0x00\n      dup1\n      revert\n    tag_62:\n      pop\n      gas\n      call\n      iszero\n      dup1\n      iszero\n      tag_64\n      jumpi\n      returndatasize\n      0x00\n      dup1\n      returndatacopy\n      revert(0x00, returndatasize)\n    tag_64:\n      pop\n      pop\n      pop\n      pop\n        /* \"SuperDepositor.sol\":2165:2189  IERC20Upgradeable shares */\n      0x00\n        /* \"SuperDepositor.sol\":2210:2215  vault */\n      dup3\n        /* \"SuperDepositor.sol\":2165:2216  IERC20Upgradeable shares = IERC20Upgradeable(vault) */\n      swap1\n      pop\n        /* \"SuperDepositor.sol\":2227:2290  shares.safeTransfer(recipient, shares.balanceOf(address(this))) */\n      tag_65\n        /* \"SuperDepositor.sol\":2247:2256  recipient */\n      dup3\n        /* \"SuperDepositor.sol\":2258:2264  shares */\n      dup3\n        /* \"SuperDepositor.sol\":2258:2274  shares.balanceOf */\n      0xffffffffffffffffffffffffffffffffffffffff\n      and\n      0x70a08231\n        /* \"SuperDepositor.sol\":2283:2287  this */\n      address\n        /* \"SuperDepositor.sol\":2258:2289  shares.balanceOf(address(this)) */\n      mload(0x40)\n      dup3\n      0xffffffff\n      and\n      0xe0\n      shl\n      dup2\n      mstore\n      0x04\n      add\n      tag_66\n      swap2\n      swap1\n      tag_9\n      jump\t// in\n    tag_66:\n      0x20\n      mload(0x40)\n      dup1\n      dup4\n      sub\n      dup2\n      dup7\n      gas\n      staticcall\n      iszero\n      dup1\n      iszero\n      tag_68\n      jumpi\n      returndatasize\n      0x00\n      dup1\n      returndatacopy\n      revert(0x00, returndatasize)\n    tag_68:\n      pop\n      pop\n      pop\n      pop\n      mload(0x40)\n      returndatasize\n      not(0x1f)\n      0x1f\n      dup3\n      add\n      and\n      dup3\n      add\n      dup1\n      0x40\n      mstore\n      pop\n      dup2\n      add\n      swap1\n      tag_69\n      swap2\n      swap1\n      tag_70\n      jump\t// in\n    tag_69:\n        /* \"SuperDepositor.sol\":2227:2233  shares */\n      dup4\n        /* \"SuperDepositor.sol\":2227:2246  shares.safeTransfer */\n      0xffffffffffffffffffffffffffffffffffffffff\n      and\n      tag_71\n      swap1\n        /* \"SuperDepositor.sol\":2227:2290  shares.safeTransfer(recipient, shares.balanceOf(address(this))) */\n      swap3\n      swap2\n      swap1\n      0xffffffff\n      and\n      jump\t// in\n    tag_65:\n        /* \"SuperDepositor.sol\":1973:2298  {... */\n      pop\n        /* \"SuperDepositor.sol\":1891:2298  function _depositLPToVault(address lp, address vault, address recipient) internal {... */\n      pop\n      pop\n      pop\n      jump\t// out\n        /* \"@openzeppelin/contracts-upgradeable/token/ERC20/utils/SafeERC20Upgradeable.sol\":3306:4023  function _callOptionalReturn(IERC20Upgradeable token, bytes memory data) private {... */\n    tag_38:\n        /* \"@openzeppelin/contracts-upgradeable/token/ERC20/utils/SafeERC20Upgradeable.sol\":3736:3759  bytes memory returndata */\n      0x00\n        /* \"@openzeppelin/contracts-upgradeable/token/ERC20/utils/SafeERC20Upgradeable.sol\":3762:3831  address(token).functionCall(data, \"SafeERC20: low-level call failed\") */\n      tag_73\n        /* \"@openzeppelin/contracts-upgradeable/token/ERC20/utils/SafeERC20Upgradeable.sol\":3790:3794  data */\n      dup3\n        /* \"@openzeppelin/contracts-upgradeable/token/ERC20/utils/SafeERC20Upgradeable.sol\":3762:3831  address(token).functionCall(data, \"SafeERC20: low-level call failed\") */\n      mload(0x40)\n      dup1\n      0x40\n      add\n      0x40\n      mstore\n      dup1\n      0x20\n      dup2\n      mstore\n      0x20\n      add\n      0x5361666545524332303a206c6f772d6c6576656c2063616c6c206661696c6564\n      dup2\n      mstore\n      pop\n        /* \"@openzeppelin/contracts-upgradeable/token/ERC20/utils/SafeERC20Upgradeable.sol\":3770:3775  token */\n      dup6\n        /* \"@openzeppelin/contracts-upgradeable/token/ERC20/utils/SafeERC20Upgradeable.sol\":3762:3789  address(token).functionCall */\n      0xffffffffffffffffffffffffffffffffffffffff\n      and\n      tag_74\n      swap1\n        /* \"@openzeppelin/contracts-upgradeable/token/ERC20/utils/SafeERC20Upgradeable.sol\":3762:3831  address(token).functionCall(data, \"SafeERC20: low-level call failed\") */\n      swap3\n      swap2\n      swap1\n      0xffffffff\n      and\n      jump\t// in\n    tag_73:\n        /* \"@openzeppelin/contracts-upgradeable/token/ERC20/utils/SafeERC20Upgradeable.sol\":3736:3831  bytes memory returndata = address(token).functionCall(data, \"SafeERC20: low-level call failed\") */\n      swap1\n      pop\n        /* \"@openzeppelin/contracts-upgradeable/token/ERC20/utils/SafeERC20Upgradeable.sol\":3865:3866  0 */\n      0x00\n        /* \"@openzeppelin/contracts-upgradeable/token/ERC20/utils/SafeERC20Upgradeable.sol\":3845:3855  returndata */\n      dup2\n        /* \"@openzeppelin/contracts-upgradeable/token/ERC20/utils/SafeERC20Upgradeable.sol\":3845:3862  returndata.length */\n      mload\n        /* \"@openzeppelin/contracts-upgradeable/token/ERC20/utils/SafeERC20Upgradeable.sol\":3845:3866  returndata.length > 0 */\n      gt\n        /* \"@openzeppelin/contracts-upgradeable/token/ERC20/utils/SafeERC20Upgradeable.sol\":3841:4017  if (returndata.length > 0) {... */\n      iszero\n      tag_75\n      jumpi\n        /* \"@openzeppelin/contracts-upgradeable/token/ERC20/utils/SafeERC20Upgradeable.sol\":3940:3950  returndata */\n      dup1\n        /* \"@openzeppelin/contracts-upgradeable/token/ERC20/utils/SafeERC20Upgradeable.sol\":3929:3959  abi.decode(returndata, (bool)) */\n      dup1\n      0x20\n      add\n      swap1\n      mload\n      dup2\n      add\n      swap1\n      tag_76\n      swap2\n      swap1\n      tag_77\n      jump\t// in\n    tag_76:\n        /* \"@openzeppelin/contracts-upgradeable/token/ERC20/utils/SafeERC20Upgradeable.sol\":3921:4006  require(abi.decode(returndata, (bool)), \"SafeERC20: ERC20 operation did not succeed\") */\n      tag_78\n      jumpi\n      mload(0x40)\n      0x08c379a000000000000000000000000000000000000000000000000000000000\n      dup2\n      mstore\n      0x04\n      add\n      tag_79\n      swap1\n      tag_80\n      jump\t// in\n    tag_79:\n      mload(0x40)\n      dup1\n      swap2\n      sub\n      swap1\n      revert\n    tag_78:\n        /* \"@openzeppelin/contracts-upgradeable/token/ERC20/utils/SafeERC20Upgradeable.sol\":3841:4017  if (returndata.length > 0) {... */\n    tag_75:\n        /* \"@openzeppelin/contracts-upgradeable/token/ERC20/utils/SafeERC20Upgradeable.sol\":3387:4023  {... */\n      pop\n        /* \"@openzeppelin/contracts-upgradeable/token/ERC20/utils/SafeERC20Upgradeable.sol\":3306:4023  function _callOptionalReturn(IERC20Upgradeable token, bytes memory data) private {... */\n      pop\n      pop\n      jump\t// out\n        /* \"@openzeppelin/contracts-upgradeable/token/ERC20/utils/SafeERC20Upgradeable.sol\":2099:2420  function safeIncreaseAllowance(... */\n    tag_53:\n        /* \"@openzeppelin/contracts-upgradeable/token/ERC20/utils/SafeERC20Upgradeable.sol\":2236:2256  uint256 newAllowance */\n      0x00\n        /* \"@openzeppelin/contracts-upgradeable/token/ERC20/utils/SafeERC20Upgradeable.sol\":2301:2306  value */\n      dup2\n        /* \"@openzeppelin/contracts-upgradeable/token/ERC20/utils/SafeERC20Upgradeable.sol\":2259:2264  token */\n      dup5\n        /* \"@openzeppelin/contracts-upgradeable/token/ERC20/utils/SafeERC20Upgradeable.sol\":2259:2274  token.allowance */\n      0xffffffffffffffffffffffffffffffffffffffff\n      and\n      0xdd62ed3e\n        /* \"@openzeppelin/contracts-upgradeable/token/ERC20/utils/SafeERC20Upgradeable.sol\":2283:2287  this */\n      address\n        /* \"@openzeppelin/contracts-upgradeable/token/ERC20/utils/SafeERC20Upgradeable.sol\":2290:2297  spender */\n      dup7\n        /* \"@openzeppelin/contracts-upgradeable/token/ERC20/utils/SafeERC20Upgradeable.sol\":2259:2298  token.allowance(address(this), spender) */\n      mload(0x40)\n      dup4\n      0xffffffff\n      and\n      0xe0\n      shl\n      dup2\n      mstore\n      0x04\n      add\n      tag_82\n      swap3\n      swap2\n      swap1\n      tag_83\n      jump\t// in\n    tag_82:\n      0x20\n      mload(0x40)\n      dup1\n      dup4\n      sub\n      dup2\n      dup7\n      gas\n      staticcall\n      iszero\n      dup1\n      iszero\n      tag_85\n      jumpi\n      returndatasize\n      0x00\n      dup1\n      returndatacopy\n      revert(0x00, returndatasize)\n    tag_85:\n      pop\n      pop\n      pop\n      pop\n      mload(0x40)\n      returndatasize\n      not(0x1f)\n      0x1f\n      dup3\n      add\n      and\n      dup3\n      add\n      dup1\n      0x40\n      mstore\n      pop\n      dup2\n      add\n      swap1\n      tag_86\n      swap2\n      swap1\n      tag_70\n      jump\t// in\n    tag_86:\n        /* \"@openzeppelin/contracts-upgradeable/token/ERC20/utils/SafeERC20Upgradeable.sol\":2259:2306  token.allowance(address(this), spender) + value */\n      tag_87\n      swap2\n      swap1\n      tag_88\n      jump\t// in\n    tag_87:\n        /* \"@openzeppelin/contracts-upgradeable/token/ERC20/utils/SafeERC20Upgradeable.sol\":2236:2306  uint256 newAllowance = token.allowance(address(this), spender) + value */\n      swap1\n      pop\n        /* \"@openzeppelin/contracts-upgradeable/token/ERC20/utils/SafeERC20Upgradeable.sol\":2316:2413  _callOptionalReturn(token, abi.encodeWithSelector(token.approve.selector, spender, newAllowance)) */\n      tag_89\n        /* \"@openzeppelin/contracts-upgradeable/token/ERC20/utils/SafeERC20Upgradeable.sol\":2336:2341  token */\n      dup5\n        /* \"@openzeppelin/contracts-upgradeable/token/ERC20/utils/SafeERC20Upgradeable.sol\":2366:2388  token.approve.selector */\n      shl(0xe0, 0x095ea7b3)\n        /* \"@openzeppelin/contracts-upgradeable/token/ERC20/utils/SafeERC20Upgradeable.sol\":2390:2397  spender */\n      dup6\n        /* \"@openzeppelin/contracts-upgradeable/token/ERC20/utils/SafeERC20Upgradeable.sol\":2399:2411  newAllowance */\n      dup5\n        /* \"@openzeppelin/contracts-upgradeable/token/ERC20/utils/SafeERC20Upgradeable.sol\":2343:2412  abi.encodeWithSelector(token.approve.selector, spender, newAllowance) */\n      add(0x24, mload(0x40))\n      tag_90\n      swap3\n      swap2\n      swap1\n      tag_91\n      jump\t// in\n    tag_90:\n      mload(0x40)\n      0x20\n      dup2\n      dup4\n      sub\n      sub\n      dup2\n      mstore\n      swap1\n      0x40\n      mstore\n      swap1\n      not(0xffffffffffffffffffffffffffffffffffffffffffffffffffffffff)\n      and\n      0x20\n      dup3\n      add\n      dup1\n      mload\n      0xffffffffffffffffffffffffffffffffffffffffffffffffffffffff\n      dup4\n      dup2\n      dup4\n      and\n      or\n      dup4\n      mstore\n      pop\n      pop\n      pop\n      pop\n        /* \"@openzeppelin/contracts-upgradeable/token/ERC20/utils/SafeERC20Upgradeable.sol\":2316:2335  _callOptionalReturn */\n      tag_38\n        /* \"@openzeppelin/contracts-upgradeable/token/ERC20/utils/SafeERC20Upgradeable.sol\":2316:2413  _callOptionalReturn(token, abi.encodeWithSelector(token.approve.selector, spender, newAllowance)) */\n      jump\t// in\n    tag_89:\n        /* \"@openzeppelin/contracts-upgradeable/token/ERC20/utils/SafeERC20Upgradeable.sol\":2226:2420  {... */\n      pop\n        /* \"@openzeppelin/contracts-upgradeable/token/ERC20/utils/SafeERC20Upgradeable.sol\":2099:2420  function safeIncreaseAllowance(... */\n      pop\n      pop\n      pop\n      jump\t// out\n        /* \"SuperDepositor.sol\":2306:2593  function _approveIfNeeded(address spender, address token) internal {... */\n    tag_61:\n        /* \"SuperDepositor.sol\":2384:2407  IERC20Upgradeable token */\n      0x00\n        /* \"SuperDepositor.sol\":2428:2433  token */\n      dup2\n        /* \"SuperDepositor.sol\":2384:2434  IERC20Upgradeable token = IERC20Upgradeable(token) */\n      swap1\n      pop\n        /* \"SuperDepositor.sol\":2500:2501  0 */\n      0x00\n        /* \"SuperDepositor.sol\":2449:2454  token */\n      dup2\n        /* \"SuperDepositor.sol\":2449:2464  token.allowance */\n      0xffffffffffffffffffffffffffffffffffffffff\n      and\n      0xdd62ed3e\n        /* \"SuperDepositor.sol\":2473:2477  this */\n      address\n        /* \"SuperDepositor.sol\":2480:2487  spender */\n      dup7\n        /* \"SuperDepositor.sol\":2449:2488  token.allowance(address(this), spender) */\n      mload(0x40)\n      dup4\n      0xffffffff\n      and\n      0xe0\n      shl\n      dup2\n      mstore\n      0x04\n      add\n      tag_93\n      swap3\n      swap2\n      swap1\n      tag_83\n      jump\t// in\n    tag_93:\n      0x20\n      mload(0x40)\n      dup1\n      dup4\n      sub\n      dup2\n      dup7\n      gas\n      staticcall\n      iszero\n      dup1\n      iszero\n      tag_95\n      jumpi\n      returndatasize\n      0x00\n      dup1\n      returndatacopy\n      revert(0x00, returndatasize)\n    tag_95:\n      pop\n      pop\n      pop\n      pop\n      mload(0x40)\n      returndatasize\n      not(0x1f)\n      0x1f\n      dup3\n      add\n      and\n      dup3\n      add\n      dup1\n      0x40\n      mstore\n      pop\n      dup2\n      add\n      swap1\n      tag_96\n      swap2\n      swap1\n      tag_70\n      jump\t// in\n    tag_96:\n        /* \"SuperDepositor.sol\":2449:2502  token.allowance(address(this), spender) == uint256(0) */\n      sub\n        /* \"SuperDepositor.sol\":2445:2586  if (token.allowance(address(this), spender) == uint256(0)) {... */\n      tag_97\n      jumpi\n        /* \"SuperDepositor.sol\":2519:2574  token.safeIncreaseAllowance(spender, type(uint256).max) */\n      tag_98\n        /* \"SuperDepositor.sol\":2547:2554  spender */\n      dup4\n        /* \"SuperDepositor.sol\":2556:2573  type(uint256).max */\n      0xffffffffffffffffffffffffffffffffffffffffffffffffffffffffffffffff\n        /* \"SuperDepositor.sol\":2519:2524  token */\n      dup4\n        /* \"SuperDepositor.sol\":2519:2546  token.safeIncreaseAllowance */\n      0xffffffffffffffffffffffffffffffffffffffff\n      and\n      tag_53\n      swap1\n        /* \"SuperDepositor.sol\":2519:2574  token.safeIncreaseAllowance(spender, type(uint256).max) */\n      swap3\n      swap2\n      swap1\n      0xffffffff\n      and\n      jump\t// in\n    tag_98:\n        /* \"SuperDepositor.sol\":2445:2586  if (token.allowance(address(this), spender) == uint256(0)) {... */\n    tag_97:\n        /* \"SuperDepositor.sol\":2373:2593  {... */\n      pop\n        /* \"SuperDepositor.sol\":2306:2593  function _approveIfNeeded(address spender, address token) internal {... */\n      pop\n      pop\n      jump\t// out\n        /* \"@openzeppelin/contracts-upgradeable/token/ERC20/utils/SafeERC20Upgradeable.sol\":745:961  function safeTransfer(... */\n    tag_71:\n        /* \"@openzeppelin/contracts-upgradeable/token/ERC20/utils/SafeERC20Upgradeable.sol\":868:954  _callOptionalReturn(token, abi.encodeWithSelector(token.transfer.selector, to, value)) */\n      tag_100\n        /* \"@openzeppelin/contracts-upgradeable/token/ERC20/utils/SafeERC20Upgradeable.sol\":888:893  token */\n      dup4\n        /* \"@openzeppelin/contracts-upgradeable/token/ERC20/utils/SafeERC20Upgradeable.sol\":918:941  token.transfer.selector */\n      shl(0xe0, 0xa9059cbb)\n        /* \"@openzeppelin/contracts-upgradeable/token/ERC20/utils/SafeERC20Upgradeable.sol\":943:945  to */\n      dup5\n        /* \"@openzeppelin/contracts-upgradeable/token/ERC20/utils/SafeERC20Upgradeable.sol\":947:952  value */\n      dup5\n        /* \"@openzeppelin/contracts-upgradeable/token/ERC20/utils/SafeERC20Upgradeable.sol\":895:953  abi.encodeWithSelector(token.transfer.selector, to, value) */\n      add(0x24, mload(0x40))\n      tag_101\n      swap3\n      swap2\n      swap1\n      tag_91\n      jump\t// in\n    tag_101:\n      mload(0x40)\n      0x20\n      dup2\n      dup4\n      sub\n      sub\n      dup2\n      mstore\n      swap1\n      0x40\n      mstore\n      swap1\n      not(0xffffffffffffffffffffffffffffffffffffffffffffffffffffffff)\n      and\n      0x20\n      dup3\n      add\n      dup1\n      mload\n      0xffffffffffffffffffffffffffffffffffffffffffffffffffffffff\n      dup4\n      dup2\n      dup4\n      and\n      or\n      dup4\n      mstore\n      pop\n      pop\n      pop\n      pop\n        /* \"@openzeppelin/contracts-upgradeable/token/ERC20/utils/SafeERC20Upgradeable.sol\":868:887  _callOptionalReturn */\n      tag_38\n        /* \"@openzeppelin/contracts-upgradeable/token/ERC20/utils/SafeERC20Upgradeable.sol\":868:954  _callOptionalReturn(token, abi.encodeWithSelector(token.transfer.selector, to, value)) */\n      jump\t// in\n    tag_100:\n        /* \"@openzeppelin/contracts-upgradeable/token/ERC20/utils/SafeERC20Upgradeable.sol\":745:961  function safeTransfer(... */\n      pop\n      pop\n      pop\n      jump\t// out\n        /* \"@openzeppelin/contracts-upgradeable/utils/AddressUpgradeable.sol\":3872:4095  function functionCall(... */\n    tag_74:\n        /* \"@openzeppelin/contracts-upgradeable/utils/AddressUpgradeable.sol\":4005:4017  bytes memory */\n      0x60\n        /* \"@openzeppelin/contracts-upgradeable/utils/AddressUpgradeable.sol\":4036:4088  functionCallWithValue(target, data, 0, errorMessage) */\n      tag_103\n        /* \"@openzeppelin/contracts-upgradeable/utils/AddressUpgradeable.sol\":4058:4064  target */\n      dup5\n        /* \"@openzeppelin/contracts-upgradeable/utils/AddressUpgradeable.sol\":4066:4070  data */\n      dup5\n        /* \"@openzeppelin/contracts-upgradeable/utils/AddressUpgradeable.sol\":4072:4073  0 */\n      0x00\n        /* \"@openzeppelin/contracts-upgradeable/utils/AddressUpgradeable.sol\":4075:4087  errorMessage */\n      dup6\n        /* \"@openzeppelin/contracts-upgradeable/utils/AddressUpgradeable.sol\":4036:4057  functionCallWithValue */\n      tag_104\n        /* \"@openzeppelin/contracts-upgradeable/utils/AddressUpgradeable.sol\":4036:4088  functionCallWithValue(target, data, 0, errorMessage) */\n      jump\t// in\n    tag_103:\n        /* \"@openzeppelin/contracts-upgradeable/utils/AddressUpgradeable.sol\":4029:4088  return functionCallWithValue(target, data, 0, errorMessage) */\n      swap1\n      pop\n        /* \"@openzeppelin/contracts-upgradeable/utils/AddressUpgradeable.sol\":3872:4095  function functionCall(... */\n      swap4\n      swap3\n      pop\n      pop\n      pop\n      jump\t// out\n        /* \"@openzeppelin/contracts-upgradeable/utils/AddressUpgradeable.sol\":4959:5458  function functionCallWithValue(... */\n    tag_104:\n        /* \"@openzeppelin/contracts-upgradeable/utils/AddressUpgradeable.sol\":5124:5136  bytes memory */\n      0x60\n        /* \"@openzeppelin/contracts-upgradeable/utils/AddressUpgradeable.sol\":5181:5186  value */\n      dup3\n        /* \"@openzeppelin/contracts-upgradeable/utils/AddressUpgradeable.sol\":5156:5177  address(this).balance */\n      selfbalance\n        /* \"@openzeppelin/contracts-upgradeable/utils/AddressUpgradeable.sol\":5156:5186  address(this).balance >= value */\n      lt\n      iszero\n        /* \"@openzeppelin/contracts-upgradeable/utils/AddressUpgradeable.sol\":5148:5229  require(address(this).balance >= value, \"Address: insufficient balance for call\") */\n      tag_106\n      jumpi\n      mload(0x40)\n      0x08c379a000000000000000000000000000000000000000000000000000000000\n      dup2\n      mstore\n      0x04\n      add\n      tag_107\n      swap1\n      tag_108\n      jump\t// in\n    tag_107:\n      mload(0x40)\n      dup1\n      swap2\n      sub\n      swap1\n      revert\n    tag_106:\n        /* \"@openzeppelin/contracts-upgradeable/utils/AddressUpgradeable.sol\":5247:5265  isContract(target) */\n      tag_109\n        /* \"@openzeppelin/contracts-upgradeable/utils/AddressUpgradeable.sol\":5258:5264  target */\n      dup6\n        /* \"@openzeppelin/contracts-upgradeable/utils/AddressUpgradeable.sol\":5247:5257  isContract */\n      tag_110\n        /* \"@openzeppelin/contracts-upgradeable/utils/AddressUpgradeable.sol\":5247:5265  isContract(target) */\n      jump\t// in\n    tag_109:\n        /* \"@openzeppelin/contracts-upgradeable/utils/AddressUpgradeable.sol\":5239:5299  require(isContract(target), \"Address: call to non-contract\") */\n      tag_111\n      jumpi\n      mload(0x40)\n      0x08c379a000000000000000000000000000000000000000000000000000000000\n      dup2\n      mstore\n      0x04\n      add\n      tag_112\n      swap1\n      tag_113\n      jump\t// in\n    tag_112:\n      mload(0x40)\n      dup1\n      swap2\n      sub\n      swap1\n      revert\n    tag_111:\n        /* \"@openzeppelin/contracts-upgradeable/utils/AddressUpgradeable.sol\":5311:5323  bool success */\n      0x00\n        /* \"@openzeppelin/contracts-upgradeable/utils/AddressUpgradeable.sol\":5325:5348  bytes memory returndata */\n      dup1\n        /* \"@openzeppelin/contracts-upgradeable/utils/AddressUpgradeable.sol\":5352:5358  target */\n      dup7\n        /* \"@openzeppelin/contracts-upgradeable/utils/AddressUpgradeable.sol\":5352:5363  target.call */\n      0xffffffffffffffffffffffffffffffffffffffff\n      and\n        /* \"@openzeppelin/contracts-upgradeable/utils/AddressUpgradeable.sol\":5371:5376  value */\n      dup6\n        /* \"@openzeppelin/contracts-upgradeable/utils/AddressUpgradeable.sol\":5378:5382  data */\n      dup8\n        /* \"@openzeppelin/contracts-upgradeable/utils/AddressUpgradeable.sol\":5352:5383  target.call{value: value}(data) */\n      mload(0x40)\n      tag_114\n      swap2\n      swap1\n      tag_115\n      jump\t// in\n    tag_114:\n      0x00\n      mload(0x40)\n      dup1\n      dup4\n      sub\n      dup2\n      dup6\n      dup8\n      gas\n      call\n      swap3\n      pop\n      pop\n      pop\n      returndatasize\n      dup1\n      0x00\n      dup2\n      eq\n      tag_118\n      jumpi\n      mload(0x40)\n      swap2\n      pop\n      and(add(returndatasize, 0x3f), not(0x1f))\n      dup3\n      add\n      0x40\n      mstore\n      returndatasize\n      dup3\n      mstore\n      returndatasize\n      0x00\n      0x20\n      dup5\n      add\n      returndatacopy\n      jump(tag_117)\n    tag_118:\n      0x60\n      swap2\n      pop\n    tag_117:\n      pop\n        /* \"@openzeppelin/contracts-upgradeable/utils/AddressUpgradeable.sol\":5310:5383  (bool success, bytes memory returndata) = target.call{value: value}(data) */\n      swap2\n      pop\n      swap2\n      pop\n        /* \"@openzeppelin/contracts-upgradeable/utils/AddressUpgradeable.sol\":5400:5451  verifyCallResult(success, returndata, errorMessage) */\n      tag_119\n        /* \"@openzeppelin/contracts-upgradeable/utils/AddressUpgradeable.sol\":5417:5424  success */\n      dup3\n        /* \"@openzeppelin/contracts-upgradeable/utils/AddressUpgradeable.sol\":5426:5436  returndata */\n      dup3\n        /* \"@openzeppelin/contracts-upgradeable/utils/AddressUpgradeable.sol\":5438:5450  errorMessage */\n      dup7\n        /* \"@openzeppelin/contracts-upgradeable/utils/AddressUpgradeable.sol\":5400:5416  verifyCallResult */\n      tag_120\n        /* \"@openzeppelin/contracts-upgradeable/utils/AddressUpgradeable.sol\":5400:5451  verifyCallResult(success, returndata, errorMessage) */\n      jump\t// in\n    tag_119:\n        /* \"@openzeppelin/contracts-upgradeable/utils/AddressUpgradeable.sol\":5393:5451  return verifyCallResult(success, returndata, errorMessage) */\n      swap3\n      pop\n      pop\n      pop\n        /* \"@openzeppelin/contracts-upgradeable/utils/AddressUpgradeable.sol\":4959:5458  function functionCallWithValue(... */\n      swap5\n      swap4\n      pop\n      pop\n      pop\n      pop\n      jump\t// out\n        /* \"@openzeppelin/contracts-upgradeable/utils/AddressUpgradeable.sol\":1186:1506  function isContract(address account) internal view returns (bool) {... */\n    tag_110:\n        /* \"@openzeppelin/contracts-upgradeable/utils/AddressUpgradeable.sol\":1246:1250  bool */\n      0x00\n        /* \"@openzeppelin/contracts-upgradeable/utils/AddressUpgradeable.sol\":1498:1499  0 */\n      dup1\n        /* \"@openzeppelin/contracts-upgradeable/utils/AddressUpgradeable.sol\":1476:1483  account */\n      dup3\n        /* \"@openzeppelin/contracts-upgradeable/utils/AddressUpgradeable.sol\":1476:1495  account.code.length */\n      0xffffffffffffffffffffffffffffffffffffffff\n      and\n      extcodesize\n        /* \"@openzeppelin/contracts-upgradeable/utils/AddressUpgradeable.sol\":1476:1499  account.code.length > 0 */\n      gt\n        /* \"@openzeppelin/contracts-upgradeable/utils/AddressUpgradeable.sol\":1469:1499  return account.code.length > 0 */\n      swap1\n      pop\n        /* \"@openzeppelin/contracts-upgradeable/utils/AddressUpgradeable.sol\":1186:1506  function isContract(address account) internal view returns (bool) {... */\n      swap2\n      swap1\n      pop\n      jump\t// out\n        /* \"@openzeppelin/contracts-upgradeable/utils/AddressUpgradeable.sol\":6622:7314  function verifyCallResult(... */\n    tag_120:\n        /* \"@openzeppelin/contracts-upgradeable/utils/AddressUpgradeable.sol\":6768:6780  bytes memory */\n      0x60\n        /* \"@openzeppelin/contracts-upgradeable/utils/AddressUpgradeable.sol\":6796:6803  success */\n      dup4\n        /* \"@openzeppelin/contracts-upgradeable/utils/AddressUpgradeable.sol\":6792:7308  if (success) {... */\n      iszero\n      tag_123\n      jumpi\n        /* \"@openzeppelin/contracts-upgradeable/utils/AddressUpgradeable.sol\":6826:6836  returndata */\n      dup3\n        /* \"@openzeppelin/contracts-upgradeable/utils/AddressUpgradeable.sol\":6819:6836  return returndata */\n      swap1\n      pop\n      jump(tag_122)\n        /* \"@openzeppelin/contracts-upgradeable/utils/AddressUpgradeable.sol\":6792:7308  if (success) {... */\n    tag_123:\n        /* \"@openzeppelin/contracts-upgradeable/utils/AddressUpgradeable.sol\":6957:6958  0 */\n      0x00\n        /* \"@openzeppelin/contracts-upgradeable/utils/AddressUpgradeable.sol\":6937:6947  returndata */\n      dup4\n        /* \"@openzeppelin/contracts-upgradeable/utils/AddressUpgradeable.sol\":6937:6954  returndata.length */\n      mload\n        /* \"@openzeppelin/contracts-upgradeable/utils/AddressUpgradeable.sol\":6937:6958  returndata.length > 0 */\n      gt\n        /* \"@openzeppelin/contracts-upgradeable/utils/AddressUpgradeable.sol\":6933:7298  if (returndata.length > 0) {... */\n      iszero\n      tag_125\n      jumpi\n        /* \"@openzeppelin/contracts-upgradeable/utils/AddressUpgradeable.sol\":7131:7141  returndata */\n      dup3\n        /* \"@openzeppelin/contracts-upgradeable/utils/AddressUpgradeable.sol\":7125:7142  mload(returndata) */\n      mload\n        /* \"@openzeppelin/contracts-upgradeable/utils/AddressUpgradeable.sol\":7191:7206  returndata_size */\n      dup1\n        /* \"@openzeppelin/contracts-upgradeable/utils/AddressUpgradeable.sol\":7178:7188  returndata */\n      dup5\n        /* \"@openzeppelin/contracts-upgradeable/utils/AddressUpgradeable.sol\":7174:7176  32 */\n      0x20\n        /* \"@openzeppelin/contracts-upgradeable/utils/AddressUpgradeable.sol\":7170:7189  add(32, returndata) */\n      add\n        /* \"@openzeppelin/contracts-upgradeable/utils/AddressUpgradeable.sol\":7163:7207  revert(add(32, returndata), returndata_size) */\n      revert\n        /* \"@openzeppelin/contracts-upgradeable/utils/AddressUpgradeable.sol\":6933:7298  if (returndata.length > 0) {... */\n    tag_125:\n        /* \"@openzeppelin/contracts-upgradeable/utils/AddressUpgradeable.sol\":7270:7282  errorMessage */\n      dup2\n        /* \"@openzeppelin/contracts-upgradeable/utils/AddressUpgradeable.sol\":7263:7283  revert(errorMessage) */\n      mload(0x40)\n      0x08c379a000000000000000000000000000000000000000000000000000000000\n      dup2\n      mstore\n      0x04\n      add\n      tag_127\n      swap2\n      swap1\n      tag_128\n      jump\t// in\n    tag_127:\n      mload(0x40)\n      dup1\n      swap2\n      sub\n      swap1\n      revert\n        /* \"@openzeppelin/contracts-upgradeable/utils/AddressUpgradeable.sol\":6622:7314  function verifyCallResult(... */\n    tag_122:\n      swap4\n      swap3\n      pop\n      pop\n      pop\n      jump\t// out\n    tag_49:\n      mload(0x40)\n      dup1\n      0x80\n      add\n      0x40\n      mstore\n      dup1\n      0x60\n      dup2\n      mstore\n      0x20\n      add\n      0x60\n      dup2\n      mstore\n      0x20\n      add\n      0x60\n      dup2\n      mstore\n      0x20\n      add\n      iszero(iszero(0x00))\n      dup2\n      mstore\n      pop\n      swap1\n      jump\t// out\n        /* \"#utility.yul\":7:133   */\n    tag_129:\n        /* \"#utility.yul\":44:51   */\n      0x00\n        /* \"#utility.yul\":84:126   */\n      0xffffffffffffffffffffffffffffffffffffffff\n        /* \"#utility.yul\":77:82   */\n      dup3\n        /* \"#utility.yul\":73:127   */\n      and\n        /* \"#utility.yul\":62:127   */\n      swap1\n      pop\n        /* \"#utility.yul\":7:133   */\n      swap2\n      swap1\n      pop\n      jump\t// out\n        /* \"#utility.yul\":139:235   */\n    tag_130:\n        /* \"#utility.yul\":176:183   */\n      0x00\n        /* \"#utility.yul\":205:229   */\n      tag_206\n        /* \"#utility.yul\":223:228   */\n      dup3\n        /* \"#utility.yul\":205:229   */\n      tag_129\n      jump\t// in\n    tag_206:\n        /* \"#utility.yul\":194:229   */\n      swap1\n      pop\n        /* \"#utility.yul\":139:235   */\n      swap2\n      swap1\n      pop\n      jump\t// out\n        /* \"#utility.yul\":241:359   */\n    tag_131:\n        /* \"#utility.yul\":328:352   */\n      tag_208\n        /* \"#utility.yul\":346:351   */\n      dup2\n        /* \"#utility.yul\":328:352   */\n      tag_130\n      jump\t// in\n    tag_208:\n        /* \"#utility.yul\":323:326   */\n      dup3\n        /* \"#utility.yul\":316:353   */\n      mstore\n        /* \"#utility.yul\":241:359   */\n      pop\n      pop\n      jump\t// out\n        /* \"#utility.yul\":365:587   */\n    tag_9:\n        /* \"#utility.yul\":458:462   */\n      0x00\n        /* \"#utility.yul\":496:498   */\n      0x20\n        /* \"#utility.yul\":485:494   */\n      dup3\n        /* \"#utility.yul\":481:499   */\n      add\n        /* \"#utility.yul\":473:499   */\n      swap1\n      pop\n        /* \"#utility.yul\":509:580   */\n      tag_210\n        /* \"#utility.yul\":577:578   */\n      0x00\n        /* \"#utility.yul\":566:575   */\n      dup4\n        /* \"#utility.yul\":562:579   */\n      add\n        /* \"#utility.yul\":553:559   */\n      dup5\n        /* \"#utility.yul\":509:580   */\n      tag_131\n      jump\t// in\n    tag_210:\n        /* \"#utility.yul\":365:587   */\n      swap3\n      swap2\n      pop\n      pop\n      jump\t// out\n        /* \"#utility.yul\":593:668   */\n    tag_132:\n        /* \"#utility.yul\":626:632   */\n      0x00\n        /* \"#utility.yul\":659:661   */\n      0x40\n        /* \"#utility.yul\":653:662   */\n      mload\n        /* \"#utility.yul\":643:662   */\n      swap1\n      pop\n        /* \"#utility.yul\":593:668   */\n      swap1\n      jump\t// out\n        /* \"#utility.yul\":674:791   */\n    tag_133:\n        /* \"#utility.yul\":783:784   */\n      0x00\n        /* \"#utility.yul\":780:781   */\n      dup1\n        /* \"#utility.yul\":773:785   */\n      revert\n        /* \"#utility.yul\":797:914   */\n    tag_134:\n        /* \"#utility.yul\":906:907   */\n      0x00\n        /* \"#utility.yul\":903:904   */\n      dup1\n        /* \"#utility.yul\":896:908   */\n      revert\n        /* \"#utility.yul\":920:1037   */\n    tag_135:\n        /* \"#utility.yul\":1029:1030   */\n      0x00\n        /* \"#utility.yul\":1026:1027   */\n      dup1\n        /* \"#utility.yul\":1019:1031   */\n      revert\n        /* \"#utility.yul\":1043:1145   */\n    tag_136:\n        /* \"#utility.yul\":1084:1090   */\n      0x00\n        /* \"#utility.yul\":1135:1137   */\n      0x1f\n        /* \"#utility.yul\":1131:1138   */\n      not\n        /* \"#utility.yul\":1126:1128   */\n      0x1f\n        /* \"#utility.yul\":1119:1124   */\n      dup4\n        /* \"#utility.yul\":1115:1129   */\n      add\n        /* \"#utility.yul\":1111:1139   */\n      and\n        /* \"#utility.yul\":1101:1139   */\n      swap1\n      pop\n        /* \"#utility.yul\":1043:1145   */\n      swap2\n      swap1\n      pop\n      jump\t// out\n        /* \"#utility.yul\":1151:1331   */\n    tag_42:\n        /* \"#utility.yul\":1199:1276   */\n      0x4e487b7100000000000000000000000000000000000000000000000000000000\n        /* \"#utility.yul\":1196:1197   */\n      0x00\n        /* \"#utility.yul\":1189:1277   */\n      mstore\n        /* \"#utility.yul\":1296:1300   */\n      0x41\n        /* \"#utility.yul\":1293:1294   */\n      0x04\n        /* \"#utility.yul\":1286:1301   */\n      mstore\n        /* \"#utility.yul\":1320:1324   */\n      0x24\n        /* \"#utility.yul\":1317:1318   */\n      0x00\n        /* \"#utility.yul\":1310:1325   */\n      revert\n        /* \"#utility.yul\":1337:1618   */\n    tag_137:\n        /* \"#utility.yul\":1420:1447   */\n      tag_218\n        /* \"#utility.yul\":1442:1446   */\n      dup3\n        /* \"#utility.yul\":1420:1447   */\n      tag_136\n      jump\t// in\n    tag_218:\n        /* \"#utility.yul\":1412:1418   */\n      dup2\n        /* \"#utility.yul\":1408:1448   */\n      add\n        /* \"#utility.yul\":1550:1556   */\n      dup2\n        /* \"#utility.yul\":1538:1548   */\n      dup2\n        /* \"#utility.yul\":1535:1557   */\n      lt\n        /* \"#utility.yul\":1514:1532   */\n      0xffffffffffffffff\n        /* \"#utility.yul\":1502:1512   */\n      dup3\n        /* \"#utility.yul\":1499:1533   */\n      gt\n        /* \"#utility.yul\":1496:1558   */\n      or\n        /* \"#utility.yul\":1493:1581   */\n      iszero\n      tag_219\n      jumpi\n        /* \"#utility.yul\":1561:1579   */\n      tag_220\n      tag_42\n      jump\t// in\n    tag_220:\n        /* \"#utility.yul\":1493:1581   */\n    tag_219:\n        /* \"#utility.yul\":1601:1611   */\n      dup1\n        /* \"#utility.yul\":1597:1599   */\n      0x40\n        /* \"#utility.yul\":1590:1612   */\n      mstore\n        /* \"#utility.yul\":1380:1618   */\n      pop\n        /* \"#utility.yul\":1337:1618   */\n      pop\n      pop\n      jump\t// out\n        /* \"#utility.yul\":1624:1753   */\n    tag_138:\n        /* \"#utility.yul\":1658:1664   */\n      0x00\n        /* \"#utility.yul\":1685:1705   */\n      tag_222\n      tag_132\n      jump\t// in\n    tag_222:\n        /* \"#utility.yul\":1675:1705   */\n      swap1\n      pop\n        /* \"#utility.yul\":1714:1747   */\n      tag_223\n        /* \"#utility.yul\":1742:1746   */\n      dup3\n        /* \"#utility.yul\":1734:1740   */\n      dup3\n        /* \"#utility.yul\":1714:1747   */\n      tag_137\n      jump\t// in\n    tag_223:\n        /* \"#utility.yul\":1624:1753   */\n      swap2\n      swap1\n      pop\n      jump\t// out\n        /* \"#utility.yul\":1759:1876   */\n    tag_139:\n        /* \"#utility.yul\":1868:1869   */\n      0x00\n        /* \"#utility.yul\":1865:1866   */\n      dup1\n        /* \"#utility.yul\":1858:1870   */\n      revert\n        /* \"#utility.yul\":1882:1999   */\n    tag_140:\n        /* \"#utility.yul\":1991:1992   */\n      0x00\n        /* \"#utility.yul\":1988:1989   */\n      dup1\n        /* \"#utility.yul\":1981:1993   */\n      revert\n        /* \"#utility.yul\":2005:2331   */\n    tag_141:\n        /* \"#utility.yul\":2097:2101   */\n      0x00\n        /* \"#utility.yul\":2187:2205   */\n      0xffffffffffffffff\n        /* \"#utility.yul\":2179:2185   */\n      dup3\n        /* \"#utility.yul\":2176:2206   */\n      gt\n        /* \"#utility.yul\":2173:2229   */\n      iszero\n      tag_227\n      jumpi\n        /* \"#utility.yul\":2209:2227   */\n      tag_228\n      tag_42\n      jump\t// in\n    tag_228:\n        /* \"#utility.yul\":2173:2229   */\n    tag_227:\n        /* \"#utility.yul\":2259:2263   */\n      0x20\n        /* \"#utility.yul\":2251:2257   */\n      dup3\n        /* \"#utility.yul\":2247:2264   */\n      mul\n        /* \"#utility.yul\":2239:2264   */\n      swap1\n      pop\n        /* \"#utility.yul\":2319:2323   */\n      0x20\n        /* \"#utility.yul\":2313:2317   */\n      dup2\n        /* \"#utility.yul\":2309:2324   */\n      add\n        /* \"#utility.yul\":2301:2324   */\n      swap1\n      pop\n        /* \"#utility.yul\":2005:2331   */\n      swap2\n      swap1\n      pop\n      jump\t// out\n        /* \"#utility.yul\":2337:2454   */\n    tag_142:\n        /* \"#utility.yul\":2446:2447   */\n      0x00\n        /* \"#utility.yul\":2443:2444   */\n      dup1\n        /* \"#utility.yul\":2436:2448   */\n      revert\n        /* \"#utility.yul\":2460:2571   */\n    tag_143:\n        /* \"#utility.yul\":2512:2519   */\n      0x00\n        /* \"#utility.yul\":2541:2565   */\n      tag_231\n        /* \"#utility.yul\":2559:2564   */\n      dup3\n        /* \"#utility.yul\":2541:2565   */\n      tag_130\n      jump\t// in\n    tag_231:\n        /* \"#utility.yul\":2530:2565   */\n      swap1\n      pop\n        /* \"#utility.yul\":2460:2571   */\n      swap2\n      swap1\n      pop\n      jump\t// out\n        /* \"#utility.yul\":2577:2729   */\n    tag_144:\n        /* \"#utility.yul\":2665:2704   */\n      tag_233\n        /* \"#utility.yul\":2698:2703   */\n      dup2\n        /* \"#utility.yul\":2665:2704   */\n      tag_143\n      jump\t// in\n    tag_233:\n        /* \"#utility.yul\":2658:2663   */\n      dup2\n        /* \"#utility.yul\":2655:2705   */\n      eq\n        /* \"#utility.yul\":2645:2723   */\n      tag_234\n      jumpi\n        /* \"#utility.yul\":2719:2720   */\n      0x00\n        /* \"#utility.yul\":2716:2717   */\n      dup1\n        /* \"#utility.yul\":2709:2721   */\n      revert\n        /* \"#utility.yul\":2645:2723   */\n    tag_234:\n        /* \"#utility.yul\":2577:2729   */\n      pop\n      jump\t// out\n        /* \"#utility.yul\":2735:2904   */\n    tag_145:\n        /* \"#utility.yul\":2796:2801   */\n      0x00\n        /* \"#utility.yul\":2834:2840   */\n      dup2\n        /* \"#utility.yul\":2821:2841   */\n      calldataload\n        /* \"#utility.yul\":2812:2841   */\n      swap1\n      pop\n        /* \"#utility.yul\":2850:2898   */\n      tag_236\n        /* \"#utility.yul\":2892:2897   */\n      dup2\n        /* \"#utility.yul\":2850:2898   */\n      tag_144\n      jump\t// in\n    tag_236:\n        /* \"#utility.yul\":2735:2904   */\n      swap3\n      swap2\n      pop\n      pop\n      jump\t// out\n        /* \"#utility.yul\":2935:3690   */\n    tag_146:\n        /* \"#utility.yul\":3046:3051   */\n      0x00\n        /* \"#utility.yul\":3071:3167   */\n      tag_238\n        /* \"#utility.yul\":3087:3166   */\n      tag_239\n        /* \"#utility.yul\":3159:3165   */\n      dup5\n        /* \"#utility.yul\":3087:3166   */\n      tag_141\n      jump\t// in\n    tag_239:\n        /* \"#utility.yul\":3071:3167   */\n      tag_138\n      jump\t// in\n    tag_238:\n        /* \"#utility.yul\":3062:3167   */\n      swap1\n      pop\n        /* \"#utility.yul\":3187:3192   */\n      dup1\n        /* \"#utility.yul\":3216:3222   */\n      dup4\n        /* \"#utility.yul\":3209:3214   */\n      dup3\n        /* \"#utility.yul\":3202:3223   */\n      mstore\n        /* \"#utility.yul\":3250:3254   */\n      0x20\n        /* \"#utility.yul\":3243:3248   */\n      dup3\n        /* \"#utility.yul\":3239:3255   */\n      add\n        /* \"#utility.yul\":3232:3255   */\n      swap1\n      pop\n        /* \"#utility.yul\":3303:3307   */\n      0x20\n        /* \"#utility.yul\":3295:3301   */\n      dup5\n        /* \"#utility.yul\":3291:3308   */\n      mul\n        /* \"#utility.yul\":3283:3289   */\n      dup4\n        /* \"#utility.yul\":3279:3309   */\n      add\n        /* \"#utility.yul\":3332:3335   */\n      dup6\n        /* \"#utility.yul\":3324:3330   */\n      dup2\n        /* \"#utility.yul\":3321:3336   */\n      gt\n        /* \"#utility.yul\":3318:3440   */\n      iszero\n      tag_240\n      jumpi\n        /* \"#utility.yul\":3351:3430   */\n      tag_241\n      tag_142\n      jump\t// in\n    tag_241:\n        /* \"#utility.yul\":3318:3440   */\n    tag_240:\n        /* \"#utility.yul\":3466:3472   */\n      dup4\n        /* \"#utility.yul\":3449:3684   */\n    tag_242:\n        /* \"#utility.yul\":3483:3489   */\n      dup2\n        /* \"#utility.yul\":3478:3481   */\n      dup2\n        /* \"#utility.yul\":3475:3490   */\n      lt\n        /* \"#utility.yul\":3449:3684   */\n      iszero\n      tag_244\n      jumpi\n        /* \"#utility.yul\":3558:3561   */\n      dup1\n        /* \"#utility.yul\":3587:3639   */\n      tag_245\n        /* \"#utility.yul\":3635:3638   */\n      dup9\n        /* \"#utility.yul\":3623:3633   */\n      dup3\n        /* \"#utility.yul\":3587:3639   */\n      tag_145\n      jump\t// in\n    tag_245:\n        /* \"#utility.yul\":3582:3585   */\n      dup5\n        /* \"#utility.yul\":3575:3640   */\n      mstore\n        /* \"#utility.yul\":3669:3673   */\n      0x20\n        /* \"#utility.yul\":3664:3667   */\n      dup5\n        /* \"#utility.yul\":3660:3674   */\n      add\n        /* \"#utility.yul\":3653:3674   */\n      swap4\n      pop\n        /* \"#utility.yul\":3525:3684   */\n      pop\n        /* \"#utility.yul\":3509:3513   */\n      0x20\n        /* \"#utility.yul\":3504:3507   */\n      dup2\n        /* \"#utility.yul\":3500:3514   */\n      add\n        /* \"#utility.yul\":3493:3514   */\n      swap1\n      pop\n        /* \"#utility.yul\":3449:3684   */\n      jump(tag_242)\n    tag_244:\n        /* \"#utility.yul\":3453:3474   */\n      pop\n        /* \"#utility.yul\":3052:3690   */\n      pop\n      pop\n        /* \"#utility.yul\":2935:3690   */\n      swap4\n      swap3\n      pop\n      pop\n      pop\n      jump\t// out\n        /* \"#utility.yul\":3721:4121   */\n    tag_147:\n        /* \"#utility.yul\":3807:3812   */\n      0x00\n        /* \"#utility.yul\":3856:3859   */\n      dup3\n        /* \"#utility.yul\":3849:3853   */\n      0x1f\n        /* \"#utility.yul\":3841:3847   */\n      dup4\n        /* \"#utility.yul\":3837:3854   */\n      add\n        /* \"#utility.yul\":3833:3860   */\n      slt\n        /* \"#utility.yul\":3823:3945   */\n      tag_247\n      jumpi\n        /* \"#utility.yul\":3864:3943   */\n      tag_248\n      tag_140\n      jump\t// in\n    tag_248:\n        /* \"#utility.yul\":3823:3945   */\n    tag_247:\n        /* \"#utility.yul\":3981:3987   */\n      dup2\n        /* \"#utility.yul\":3968:3988   */\n      calldataload\n        /* \"#utility.yul\":4006:4115   */\n      tag_249\n        /* \"#utility.yul\":4111:4114   */\n      dup5\n        /* \"#utility.yul\":4103:4109   */\n      dup3\n        /* \"#utility.yul\":4096:4100   */\n      0x20\n        /* \"#utility.yul\":4088:4094   */\n      dup7\n        /* \"#utility.yul\":4084:4101   */\n      add\n        /* \"#utility.yul\":4006:4115   */\n      tag_146\n      jump\t// in\n    tag_249:\n        /* \"#utility.yul\":3997:4115   */\n      swap2\n      pop\n        /* \"#utility.yul\":3813:4121   */\n      pop\n        /* \"#utility.yul\":3721:4121   */\n      swap3\n      swap2\n      pop\n      pop\n      jump\t// out\n        /* \"#utility.yul\":4127:4204   */\n    tag_148:\n        /* \"#utility.yul\":4164:4171   */\n      0x00\n        /* \"#utility.yul\":4193:4198   */\n      dup2\n        /* \"#utility.yul\":4182:4198   */\n      swap1\n      pop\n        /* \"#utility.yul\":4127:4204   */\n      swap2\n      swap1\n      pop\n      jump\t// out\n        /* \"#utility.yul\":4210:4332   */\n    tag_149:\n        /* \"#utility.yul\":4283:4307   */\n      tag_252\n        /* \"#utility.yul\":4301:4306   */\n      dup2\n        /* \"#utility.yul\":4283:4307   */\n      tag_148\n      jump\t// in\n    tag_252:\n        /* \"#utility.yul\":4276:4281   */\n      dup2\n        /* \"#utility.yul\":4273:4308   */\n      eq\n        /* \"#utility.yul\":4263:4326   */\n      tag_253\n      jumpi\n        /* \"#utility.yul\":4322:4323   */\n      0x00\n        /* \"#utility.yul\":4319:4320   */\n      dup1\n        /* \"#utility.yul\":4312:4324   */\n      revert\n        /* \"#utility.yul\":4263:4326   */\n    tag_253:\n        /* \"#utility.yul\":4210:4332   */\n      pop\n      jump\t// out\n        /* \"#utility.yul\":4338:4477   */\n    tag_150:\n        /* \"#utility.yul\":4384:4389   */\n      0x00\n        /* \"#utility.yul\":4422:4428   */\n      dup2\n        /* \"#utility.yul\":4409:4429   */\n      calldataload\n        /* \"#utility.yul\":4400:4429   */\n      swap1\n      pop\n        /* \"#utility.yul\":4438:4471   */\n      tag_255\n        /* \"#utility.yul\":4465:4470   */\n      dup2\n        /* \"#utility.yul\":4438:4471   */\n      tag_149\n      jump\t// in\n    tag_255:\n        /* \"#utility.yul\":4338:4477   */\n      swap3\n      swap2\n      pop\n      pop\n      jump\t// out\n        /* \"#utility.yul\":4483:4560   */\n    tag_151:\n        /* \"#utility.yul\":4520:4527   */\n      0x00\n        /* \"#utility.yul\":4549:4554   */\n      dup2\n        /* \"#utility.yul\":4538:4554   */\n      swap1\n      pop\n        /* \"#utility.yul\":4483:4560   */\n      swap2\n      swap1\n      pop\n      jump\t// out\n        /* \"#utility.yul\":4566:4688   */\n    tag_152:\n        /* \"#utility.yul\":4639:4663   */\n      tag_258\n        /* \"#utility.yul\":4657:4662   */\n      dup2\n        /* \"#utility.yul\":4639:4663   */\n      tag_151\n      jump\t// in\n    tag_258:\n        /* \"#utility.yul\":4632:4637   */\n      dup2\n        /* \"#utility.yul\":4629:4664   */\n      eq\n        /* \"#utility.yul\":4619:4682   */\n      tag_259\n      jumpi\n        /* \"#utility.yul\":4678:4679   */\n      0x00\n        /* \"#utility.yul\":4675:4676   */\n      dup1\n        /* \"#utility.yul\":4668:4680   */\n      revert\n        /* \"#utility.yul\":4619:4682   */\n    tag_259:\n        /* \"#utility.yul\":4566:4688   */\n      pop\n      jump\t// out\n        /* \"#utility.yul\":4694:4833   */\n    tag_153:\n        /* \"#utility.yul\":4740:4745   */\n      0x00\n        /* \"#utility.yul\":4778:4784   */\n      dup2\n        /* \"#utility.yul\":4765:4785   */\n      calldataload\n        /* \"#utility.yul\":4756:4785   */\n      swap1\n      pop\n        /* \"#utility.yul\":4794:4827   */\n      tag_261\n        /* \"#utility.yul\":4821:4826   */\n      dup2\n        /* \"#utility.yul\":4794:4827   */\n      tag_152\n      jump\t// in\n    tag_261:\n        /* \"#utility.yul\":4694:4833   */\n      swap3\n      swap2\n      pop\n      pop\n      jump\t// out\n        /* \"#utility.yul\":4839:4961   */\n    tag_154:\n        /* \"#utility.yul\":4912:4936   */\n      tag_263\n        /* \"#utility.yul\":4930:4935   */\n      dup2\n        /* \"#utility.yul\":4912:4936   */\n      tag_130\n      jump\t// in\n    tag_263:\n        /* \"#utility.yul\":4905:4910   */\n      dup2\n        /* \"#utility.yul\":4902:4937   */\n      eq\n        /* \"#utility.yul\":4892:4955   */\n      tag_264\n      jumpi\n        /* \"#utility.yul\":4951:4952   */\n      0x00\n        /* \"#utility.yul\":4948:4949   */\n      dup1\n        /* \"#utility.yul\":4941:4953   */\n      revert\n        /* \"#utility.yul\":4892:4955   */\n    tag_264:\n        /* \"#utility.yul\":4839:4961   */\n      pop\n      jump\t// out\n        /* \"#utility.yul\":4967:5106   */\n    tag_155:\n        /* \"#utility.yul\":5013:5018   */\n      0x00\n        /* \"#utility.yul\":5051:5057   */\n      dup2\n        /* \"#utility.yul\":5038:5058   */\n      calldataload\n        /* \"#utility.yul\":5029:5058   */\n      swap1\n      pop\n        /* \"#utility.yul\":5067:5100   */\n      tag_266\n        /* \"#utility.yul\":5094:5099   */\n      dup2\n        /* \"#utility.yul\":5067:5100   */\n      tag_154\n      jump\t// in\n    tag_266:\n        /* \"#utility.yul\":4967:5106   */\n      swap3\n      swap2\n      pop\n      pop\n      jump\t// out\n        /* \"#utility.yul\":5155:6617   */\n    tag_156:\n        /* \"#utility.yul\":5235:5240   */\n      0x00\n        /* \"#utility.yul\":5279:5283   */\n      0xc0\n        /* \"#utility.yul\":5267:5276   */\n      dup3\n        /* \"#utility.yul\":5262:5265   */\n      dup5\n        /* \"#utility.yul\":5258:5277   */\n      sub\n        /* \"#utility.yul\":5254:5284   */\n      slt\n        /* \"#utility.yul\":5251:5368   */\n      iszero\n      tag_268\n      jumpi\n        /* \"#utility.yul\":5287:5366   */\n      tag_269\n      tag_135\n      jump\t// in\n    tag_269:\n        /* \"#utility.yul\":5251:5368   */\n    tag_268:\n        /* \"#utility.yul\":5386:5407   */\n      tag_270\n        /* \"#utility.yul\":5402:5406   */\n      0xc0\n        /* \"#utility.yul\":5386:5407   */\n      tag_138\n      jump\t// in\n    tag_270:\n        /* \"#utility.yul\":5377:5407   */\n      swap1\n      pop\n        /* \"#utility.yul\":5501:5502   */\n      0x00\n        /* \"#utility.yul\":5490:5499   */\n      dup3\n        /* \"#utility.yul\":5486:5503   */\n      add\n        /* \"#utility.yul\":5473:5504   */\n      calldataload\n        /* \"#utility.yul\":5531:5549   */\n      0xffffffffffffffff\n        /* \"#utility.yul\":5523:5529   */\n      dup2\n        /* \"#utility.yul\":5520:5550   */\n      gt\n        /* \"#utility.yul\":5517:5634   */\n      iszero\n      tag_271\n      jumpi\n        /* \"#utility.yul\":5553:5632   */\n      tag_272\n      tag_139\n      jump\t// in\n    tag_272:\n        /* \"#utility.yul\":5517:5634   */\n    tag_271:\n        /* \"#utility.yul\":5673:5762   */\n      tag_273\n        /* \"#utility.yul\":5758:5761   */\n      dup5\n        /* \"#utility.yul\":5749:5755   */\n      dup3\n        /* \"#utility.yul\":5738:5747   */\n      dup6\n        /* \"#utility.yul\":5734:5756   */\n      add\n        /* \"#utility.yul\":5673:5762   */\n      tag_147\n      jump\t// in\n    tag_273:\n        /* \"#utility.yul\":5666:5670   */\n      0x00\n        /* \"#utility.yul\":5659:5664   */\n      dup4\n        /* \"#utility.yul\":5655:5671   */\n      add\n        /* \"#utility.yul\":5648:5763   */\n      mstore\n        /* \"#utility.yul\":5417:5774   */\n      pop\n        /* \"#utility.yul\":5846:5848   */\n      0x20\n        /* \"#utility.yul\":5887:5936   */\n      tag_274\n        /* \"#utility.yul\":5932:5935   */\n      dup5\n        /* \"#utility.yul\":5923:5929   */\n      dup3\n        /* \"#utility.yul\":5912:5921   */\n      dup6\n        /* \"#utility.yul\":5908:5930   */\n      add\n        /* \"#utility.yul\":5887:5936   */\n      tag_150\n      jump\t// in\n    tag_274:\n        /* \"#utility.yul\":5880:5884   */\n      0x20\n        /* \"#utility.yul\":5873:5878   */\n      dup4\n        /* \"#utility.yul\":5869:5885   */\n      add\n        /* \"#utility.yul\":5862:5937   */\n      mstore\n        /* \"#utility.yul\":5784:5948   */\n      pop\n        /* \"#utility.yul\":6014:6016   */\n      0x40\n        /* \"#utility.yul\":6055:6104   */\n      tag_275\n        /* \"#utility.yul\":6100:6103   */\n      dup5\n        /* \"#utility.yul\":6091:6097   */\n      dup3\n        /* \"#utility.yul\":6080:6089   */\n      dup6\n        /* \"#utility.yul\":6076:6098   */\n      add\n        /* \"#utility.yul\":6055:6104   */\n      tag_153\n      jump\t// in\n    tag_275:\n        /* \"#utility.yul\":6048:6052   */\n      0x40\n        /* \"#utility.yul\":6041:6046   */\n      dup4\n        /* \"#utility.yul\":6037:6053   */\n      add\n        /* \"#utility.yul\":6030:6105   */\n      mstore\n        /* \"#utility.yul\":5958:6116   */\n      pop\n        /* \"#utility.yul\":6178:6180   */\n      0x60\n        /* \"#utility.yul\":6219:6268   */\n      tag_276\n        /* \"#utility.yul\":6264:6267   */\n      dup5\n        /* \"#utility.yul\":6255:6261   */\n      dup3\n        /* \"#utility.yul\":6244:6253   */\n      dup6\n        /* \"#utility.yul\":6240:6262   */\n      add\n        /* \"#utility.yul\":6219:6268   */\n      tag_155\n      jump\t// in\n    tag_276:\n        /* \"#utility.yul\":6212:6216   */\n      0x60\n        /* \"#utility.yul\":6205:6210   */\n      dup4\n        /* \"#utility.yul\":6201:6217   */\n      add\n        /* \"#utility.yul\":6194:6269   */\n      mstore\n        /* \"#utility.yul\":6126:6280   */\n      pop\n        /* \"#utility.yul\":6340:6343   */\n      0x80\n        /* \"#utility.yul\":6382:6431   */\n      tag_277\n        /* \"#utility.yul\":6427:6430   */\n      dup5\n        /* \"#utility.yul\":6418:6424   */\n      dup3\n        /* \"#utility.yul\":6407:6416   */\n      dup6\n        /* \"#utility.yul\":6403:6425   */\n      add\n        /* \"#utility.yul\":6382:6431   */\n      tag_155\n      jump\t// in\n    tag_277:\n        /* \"#utility.yul\":6375:6379   */\n      0x80\n        /* \"#utility.yul\":6368:6373   */\n      dup4\n        /* \"#utility.yul\":6364:6380   */\n      add\n        /* \"#utility.yul\":6357:6432   */\n      mstore\n        /* \"#utility.yul\":6290:6443   */\n      pop\n        /* \"#utility.yul\":6507:6510   */\n      0xa0\n        /* \"#utility.yul\":6549:6598   */\n      tag_278\n        /* \"#utility.yul\":6594:6597   */\n      dup5\n        /* \"#utility.yul\":6585:6591   */\n      dup3\n        /* \"#utility.yul\":6574:6583   */\n      dup6\n        /* \"#utility.yul\":6570:6592   */\n      add\n        /* \"#utility.yul\":6549:6598   */\n      tag_155\n      jump\t// in\n    tag_278:\n        /* \"#utility.yul\":6542:6546   */\n      0xa0\n        /* \"#utility.yul\":6535:6540   */\n      dup4\n        /* \"#utility.yul\":6531:6547   */\n      add\n        /* \"#utility.yul\":6524:6599   */\n      mstore\n        /* \"#utility.yul\":6453:6610   */\n      pop\n        /* \"#utility.yul\":5155:6617   */\n      swap3\n      swap2\n      pop\n      pop\n      jump\t// out\n        /* \"#utility.yul\":6623:7319   */\n    tag_12:\n        /* \"#utility.yul\":6722:6728   */\n      0x00\n        /* \"#utility.yul\":6730:6736   */\n      dup1\n        /* \"#utility.yul\":6779:6781   */\n      0x40\n        /* \"#utility.yul\":6767:6776   */\n      dup4\n        /* \"#utility.yul\":6758:6765   */\n      dup6\n        /* \"#utility.yul\":6754:6777   */\n      sub\n        /* \"#utility.yul\":6750:6782   */\n      slt\n        /* \"#utility.yul\":6747:6866   */\n      iszero\n      tag_280\n      jumpi\n        /* \"#utility.yul\":6785:6864   */\n      tag_281\n      tag_133\n      jump\t// in\n    tag_281:\n        /* \"#utility.yul\":6747:6866   */\n    tag_280:\n        /* \"#utility.yul\":6933:6934   */\n      0x00\n        /* \"#utility.yul\":6922:6931   */\n      dup4\n        /* \"#utility.yul\":6918:6935   */\n      add\n        /* \"#utility.yul\":6905:6936   */\n      calldataload\n        /* \"#utility.yul\":6963:6981   */\n      0xffffffffffffffff\n        /* \"#utility.yul\":6955:6961   */\n      dup2\n        /* \"#utility.yul\":6952:6982   */\n      gt\n        /* \"#utility.yul\":6949:7066   */\n      iszero\n      tag_282\n      jumpi\n        /* \"#utility.yul\":6985:7064   */\n      tag_283\n      tag_134\n      jump\t// in\n    tag_283:\n        /* \"#utility.yul\":6949:7066   */\n    tag_282:\n        /* \"#utility.yul\":7090:7174   */\n      tag_284\n        /* \"#utility.yul\":7166:7173   */\n      dup6\n        /* \"#utility.yul\":7157:7163   */\n      dup3\n        /* \"#utility.yul\":7146:7155   */\n      dup7\n        /* \"#utility.yul\":7142:7164   */\n      add\n        /* \"#utility.yul\":7090:7174   */\n      tag_156\n      jump\t// in\n    tag_284:\n        /* \"#utility.yul\":7080:7174   */\n      swap3\n      pop\n        /* \"#utility.yul\":6876:7184   */\n      pop\n        /* \"#utility.yul\":7223:7225   */\n      0x20\n        /* \"#utility.yul\":7249:7302   */\n      tag_285\n        /* \"#utility.yul\":7294:7301   */\n      dup6\n        /* \"#utility.yul\":7285:7291   */\n      dup3\n        /* \"#utility.yul\":7274:7283   */\n      dup7\n        /* \"#utility.yul\":7270:7292   */\n      add\n        /* \"#utility.yul\":7249:7302   */\n      tag_150\n      jump\t// in\n    tag_285:\n        /* \"#utility.yul\":7239:7302   */\n      swap2\n      pop\n        /* \"#utility.yul\":7194:7312   */\n      pop\n        /* \"#utility.yul\":6623:7319   */\n      swap3\n      pop\n      swap3\n      swap1\n      pop\n      jump\t// out\n        /* \"#utility.yul\":7325:8166   */\n    tag_16:\n        /* \"#utility.yul\":7433:7439   */\n      0x00\n        /* \"#utility.yul\":7441:7447   */\n      dup1\n        /* \"#utility.yul\":7449:7455   */\n      0x00\n        /* \"#utility.yul\":7498:7500   */\n      0x60\n        /* \"#utility.yul\":7486:7495   */\n      dup5\n        /* \"#utility.yul\":7477:7484   */\n      dup7\n        /* \"#utility.yul\":7473:7496   */\n      sub\n        /* \"#utility.yul\":7469:7501   */\n      slt\n        /* \"#utility.yul\":7466:7585   */\n      iszero\n      tag_287\n      jumpi\n        /* \"#utility.yul\":7504:7583   */\n      tag_288\n      tag_133\n      jump\t// in\n    tag_288:\n        /* \"#utility.yul\":7466:7585   */\n    tag_287:\n        /* \"#utility.yul\":7624:7625   */\n      0x00\n        /* \"#utility.yul\":7649:7702   */\n      tag_289\n        /* \"#utility.yul\":7694:7701   */\n      dup7\n        /* \"#utility.yul\":7685:7691   */\n      dup3\n        /* \"#utility.yul\":7674:7683   */\n      dup8\n        /* \"#utility.yul\":7670:7692   */\n      add\n        /* \"#utility.yul\":7649:7702   */\n      tag_155\n      jump\t// in\n    tag_289:\n        /* \"#utility.yul\":7639:7702   */\n      swap4\n      pop\n        /* \"#utility.yul\":7595:7712   */\n      pop\n        /* \"#utility.yul\":7779:7781   */\n      0x20\n        /* \"#utility.yul\":7768:7777   */\n      dup5\n        /* \"#utility.yul\":7764:7782   */\n      add\n        /* \"#utility.yul\":7751:7783   */\n      calldataload\n        /* \"#utility.yul\":7810:7828   */\n      0xffffffffffffffff\n        /* \"#utility.yul\":7802:7808   */\n      dup2\n        /* \"#utility.yul\":7799:7829   */\n      gt\n        /* \"#utility.yul\":7796:7913   */\n      iszero\n      tag_290\n      jumpi\n        /* \"#utility.yul\":7832:7911   */\n      tag_291\n      tag_134\n      jump\t// in\n    tag_291:\n        /* \"#utility.yul\":7796:7913   */\n    tag_290:\n        /* \"#utility.yul\":7937:8021   */\n      tag_292\n        /* \"#utility.yul\":8013:8020   */\n      dup7\n        /* \"#utility.yul\":8004:8010   */\n      dup3\n        /* \"#utility.yul\":7993:8002   */\n      dup8\n        /* \"#utility.yul\":7989:8011   */\n      add\n        /* \"#utility.yul\":7937:8021   */\n      tag_156\n      jump\t// in\n    tag_292:\n        /* \"#utility.yul\":7927:8021   */\n      swap3\n      pop\n        /* \"#utility.yul\":7722:8031   */\n      pop\n        /* \"#utility.yul\":8070:8072   */\n      0x40\n        /* \"#utility.yul\":8096:8149   */\n      tag_293\n        /* \"#utility.yul\":8141:8148   */\n      dup7\n        /* \"#utility.yul\":8132:8138   */\n      dup3\n        /* \"#utility.yul\":8121:8130   */\n      dup8\n        /* \"#utility.yul\":8117:8139   */\n      add\n        /* \"#utility.yul\":8096:8149   */\n      tag_150\n      jump\t// in\n    tag_293:\n        /* \"#utility.yul\":8086:8149   */\n      swap2\n      pop\n        /* \"#utility.yul\":8041:8159   */\n      pop\n        /* \"#utility.yul\":7325:8166   */\n      swap3\n      pop\n      swap3\n      pop\n      swap3\n      jump\t// out\n        /* \"#utility.yul\":8172:8352   */\n    tag_21:\n        /* \"#utility.yul\":8220:8297   */\n      0x4e487b7100000000000000000000000000000000000000000000000000000000\n        /* \"#utility.yul\":8217:8218   */\n      0x00\n        /* \"#utility.yul\":8210:8298   */\n      mstore\n        /* \"#utility.yul\":8317:8321   */\n      0x32\n        /* \"#utility.yul\":8314:8315   */\n      0x04\n        /* \"#utility.yul\":8307:8322   */\n      mstore\n        /* \"#utility.yul\":8341:8345   */\n      0x24\n        /* \"#utility.yul\":8338:8339   */\n      0x00\n        /* \"#utility.yul\":8331:8346   */\n      revert\n        /* \"#utility.yul\":8358:8476   */\n    tag_157:\n        /* \"#utility.yul\":8445:8469   */\n      tag_296\n        /* \"#utility.yul\":8463:8468   */\n      dup2\n        /* \"#utility.yul\":8445:8469   */\n      tag_148\n      jump\t// in\n    tag_296:\n        /* \"#utility.yul\":8440:8443   */\n      dup3\n        /* \"#utility.yul\":8433:8470   */\n      mstore\n        /* \"#utility.yul\":8358:8476   */\n      pop\n      pop\n      jump\t// out\n        /* \"#utility.yul\":8482:8924   */\n    tag_37:\n        /* \"#utility.yul\":8631:8635   */\n      0x00\n        /* \"#utility.yul\":8669:8671   */\n      0x60\n        /* \"#utility.yul\":8658:8667   */\n      dup3\n        /* \"#utility.yul\":8654:8672   */\n      add\n        /* \"#utility.yul\":8646:8672   */\n      swap1\n      pop\n        /* \"#utility.yul\":8682:8753   */\n      tag_298\n        /* \"#utility.yul\":8750:8751   */\n      0x00\n        /* \"#utility.yul\":8739:8748   */\n      dup4\n        /* \"#utility.yul\":8735:8752   */\n      add\n        /* \"#utility.yul\":8726:8732   */\n      dup7\n        /* \"#utility.yul\":8682:8753   */\n      tag_131\n      jump\t// in\n    tag_298:\n        /* \"#utility.yul\":8763:8835   */\n      tag_299\n        /* \"#utility.yul\":8831:8833   */\n      0x20\n        /* \"#utility.yul\":8820:8829   */\n      dup4\n        /* \"#utility.yul\":8816:8834   */\n      add\n        /* \"#utility.yul\":8807:8813   */\n      dup6\n        /* \"#utility.yul\":8763:8835   */\n      tag_131\n      jump\t// in\n    tag_299:\n        /* \"#utility.yul\":8845:8917   */\n      tag_300\n        /* \"#utility.yul\":8913:8915   */\n      0x40\n        /* \"#utility.yul\":8902:8911   */\n      dup4\n        /* \"#utility.yul\":8898:8916   */\n      add\n        /* \"#utility.yul\":8889:8895   */\n      dup5\n        /* \"#utility.yul\":8845:8917   */\n      tag_157\n      jump\t// in\n    tag_300:\n        /* \"#utility.yul\":8482:8924   */\n      swap5\n      swap4\n      pop\n      pop\n      pop\n      pop\n      jump\t// out\n        /* \"#utility.yul\":8930:9016   */\n    tag_158:\n        /* \"#utility.yul\":8965:8972   */\n      0x00\n        /* \"#utility.yul\":9005:9009   */\n      0xff\n        /* \"#utility.yul\":8998:9003   */\n      dup3\n        /* \"#utility.yul\":8994:9010   */\n      and\n        /* \"#utility.yul\":8983:9010   */\n      swap1\n      pop\n        /* \"#utility.yul\":8930:9016   */\n      swap2\n      swap1\n      pop\n      jump\t// out\n        /* \"#utility.yul\":9022:9134   */\n    tag_159:\n        /* \"#utility.yul\":9105:9127   */\n      tag_303\n        /* \"#utility.yul\":9121:9126   */\n      dup2\n        /* \"#utility.yul\":9105:9127   */\n      tag_158\n      jump\t// in\n    tag_303:\n        /* \"#utility.yul\":9100:9103   */\n      dup3\n        /* \"#utility.yul\":9093:9128   */\n      mstore\n        /* \"#utility.yul\":9022:9134   */\n      pop\n      pop\n      jump\t// out\n        /* \"#utility.yul\":9140:9254   */\n    tag_160:\n        /* \"#utility.yul\":9207:9213   */\n      0x00\n        /* \"#utility.yul\":9241:9246   */\n      dup2\n        /* \"#utility.yul\":9235:9247   */\n      mload\n        /* \"#utility.yul\":9225:9247   */\n      swap1\n      pop\n        /* \"#utility.yul\":9140:9254   */\n      swap2\n      swap1\n      pop\n      jump\t// out\n        /* \"#utility.yul\":9260:9444   */\n    tag_161:\n        /* \"#utility.yul\":9359:9370   */\n      0x00\n        /* \"#utility.yul\":9393:9399   */\n      dup3\n        /* \"#utility.yul\":9388:9391   */\n      dup3\n        /* \"#utility.yul\":9381:9400   */\n      mstore\n        /* \"#utility.yul\":9433:9437   */\n      0x20\n        /* \"#utility.yul\":9428:9431   */\n      dup3\n        /* \"#utility.yul\":9424:9438   */\n      add\n        /* \"#utility.yul\":9409:9438   */\n      swap1\n      pop\n        /* \"#utility.yul\":9260:9444   */\n      swap3\n      swap2\n      pop\n      pop\n      jump\t// out\n        /* \"#utility.yul\":9450:9582   */\n    tag_162:\n        /* \"#utility.yul\":9517:9521   */\n      0x00\n        /* \"#utility.yul\":9540:9543   */\n      dup2\n        /* \"#utility.yul\":9532:9543   */\n      swap1\n      pop\n        /* \"#utility.yul\":9570:9574   */\n      0x20\n        /* \"#utility.yul\":9565:9568   */\n      dup3\n        /* \"#utility.yul\":9561:9575   */\n      add\n        /* \"#utility.yul\":9553:9575   */\n      swap1\n      pop\n        /* \"#utility.yul\":9450:9582   */\n      swap2\n      swap1\n      pop\n      jump\t// out\n        /* \"#utility.yul\":9588:9696   */\n    tag_163:\n        /* \"#utility.yul\":9665:9689   */\n      tag_308\n        /* \"#utility.yul\":9683:9688   */\n      dup2\n        /* \"#utility.yul\":9665:9689   */\n      tag_148\n      jump\t// in\n    tag_308:\n        /* \"#utility.yul\":9660:9663   */\n      dup3\n        /* \"#utility.yul\":9653:9690   */\n      mstore\n        /* \"#utility.yul\":9588:9696   */\n      pop\n      pop\n      jump\t// out\n        /* \"#utility.yul\":9702:9881   */\n    tag_164:\n        /* \"#utility.yul\":9771:9781   */\n      0x00\n        /* \"#utility.yul\":9792:9838   */\n      tag_310\n        /* \"#utility.yul\":9834:9837   */\n      dup4\n        /* \"#utility.yul\":9826:9832   */\n      dup4\n        /* \"#utility.yul\":9792:9838   */\n      tag_163\n      jump\t// in\n    tag_310:\n        /* \"#utility.yul\":9870:9874   */\n      0x20\n        /* \"#utility.yul\":9865:9868   */\n      dup4\n        /* \"#utility.yul\":9861:9875   */\n      add\n        /* \"#utility.yul\":9847:9875   */\n      swap1\n      pop\n        /* \"#utility.yul\":9702:9881   */\n      swap3\n      swap2\n      pop\n      pop\n      jump\t// out\n        /* \"#utility.yul\":9887:10000   */\n    tag_165:\n        /* \"#utility.yul\":9957:9961   */\n      0x00\n        /* \"#utility.yul\":9989:9993   */\n      0x20\n        /* \"#utility.yul\":9984:9987   */\n      dup3\n        /* \"#utility.yul\":9980:9994   */\n      add\n        /* \"#utility.yul\":9972:9994   */\n      swap1\n      pop\n        /* \"#utility.yul\":9887:10000   */\n      swap2\n      swap1\n      pop\n      jump\t// out\n        /* \"#utility.yul\":10036:10768   */\n    tag_166:\n        /* \"#utility.yul\":10155:10158   */\n      0x00\n        /* \"#utility.yul\":10184:10238   */\n      tag_313\n        /* \"#utility.yul\":10232:10237   */\n      dup3\n        /* \"#utility.yul\":10184:10238   */\n      tag_160\n      jump\t// in\n    tag_313:\n        /* \"#utility.yul\":10254:10340   */\n      tag_314\n        /* \"#utility.yul\":10333:10339   */\n      dup2\n        /* \"#utility.yul\":10328:10331   */\n      dup6\n        /* \"#utility.yul\":10254:10340   */\n      tag_161\n      jump\t// in\n    tag_314:\n        /* \"#utility.yul\":10247:10340   */\n      swap4\n      pop\n        /* \"#utility.yul\":10364:10420   */\n      tag_315\n        /* \"#utility.yul\":10414:10419   */\n      dup4\n        /* \"#utility.yul\":10364:10420   */\n      tag_162\n      jump\t// in\n    tag_315:\n        /* \"#utility.yul\":10443:10450   */\n      dup1\n        /* \"#utility.yul\":10474:10475   */\n      0x00\n        /* \"#utility.yul\":10459:10743   */\n    tag_316:\n        /* \"#utility.yul\":10484:10490   */\n      dup4\n        /* \"#utility.yul\":10481:10482   */\n      dup2\n        /* \"#utility.yul\":10478:10491   */\n      lt\n        /* \"#utility.yul\":10459:10743   */\n      iszero\n      tag_318\n      jumpi\n        /* \"#utility.yul\":10560:10566   */\n      dup2\n        /* \"#utility.yul\":10554:10567   */\n      mload\n        /* \"#utility.yul\":10587:10650   */\n      tag_319\n        /* \"#utility.yul\":10646:10649   */\n      dup9\n        /* \"#utility.yul\":10631:10644   */\n      dup3\n        /* \"#utility.yul\":10587:10650   */\n      tag_164\n      jump\t// in\n    tag_319:\n        /* \"#utility.yul\":10580:10650   */\n      swap8\n      pop\n        /* \"#utility.yul\":10673:10733   */\n      tag_320\n        /* \"#utility.yul\":10726:10732   */\n      dup4\n        /* \"#utility.yul\":10673:10733   */\n      tag_165\n      jump\t// in\n    tag_320:\n        /* \"#utility.yul\":10663:10733   */\n      swap3\n      pop\n        /* \"#utility.yul\":10519:10743   */\n      pop\n        /* \"#utility.yul\":10506:10507   */\n      0x01\n        /* \"#utility.yul\":10503:10504   */\n      dup2\n        /* \"#utility.yul\":10499:10508   */\n      add\n        /* \"#utility.yul\":10494:10508   */\n      swap1\n      pop\n        /* \"#utility.yul\":10459:10743   */\n      jump(tag_316)\n    tag_318:\n        /* \"#utility.yul\":10463:10477   */\n      pop\n        /* \"#utility.yul\":10759:10762   */\n      dup6\n        /* \"#utility.yul\":10752:10762   */\n      swap4\n      pop\n        /* \"#utility.yul\":10160:10768   */\n      pop\n      pop\n      pop\n        /* \"#utility.yul\":10036:10768   */\n      swap3\n      swap2\n      pop\n      pop\n      jump\t// out\n        /* \"#utility.yul\":10774:11359   */\n    tag_47:\n        /* \"#utility.yul\":10969:10973   */\n      0x00\n        /* \"#utility.yul\":11007:11009   */\n      0x60\n        /* \"#utility.yul\":10996:11005   */\n      dup3\n        /* \"#utility.yul\":10992:11010   */\n      add\n        /* \"#utility.yul\":10984:11010   */\n      swap1\n      pop\n        /* \"#utility.yul\":11020:11087   */\n      tag_322\n        /* \"#utility.yul\":11084:11085   */\n      0x00\n        /* \"#utility.yul\":11073:11082   */\n      dup4\n        /* \"#utility.yul\":11069:11086   */\n      add\n        /* \"#utility.yul\":11060:11066   */\n      dup7\n        /* \"#utility.yul\":11020:11087   */\n      tag_159\n      jump\t// in\n    tag_322:\n        /* \"#utility.yul\":11134:11143   */\n      dup2\n        /* \"#utility.yul\":11128:11132   */\n      dup2\n        /* \"#utility.yul\":11124:11144   */\n      sub\n        /* \"#utility.yul\":11119:11121   */\n      0x20\n        /* \"#utility.yul\":11108:11117   */\n      dup4\n        /* \"#utility.yul\":11104:11122   */\n      add\n        /* \"#utility.yul\":11097:11145   */\n      mstore\n        /* \"#utility.yul\":11162:11270   */\n      tag_323\n        /* \"#utility.yul\":11265:11269   */\n      dup2\n        /* \"#utility.yul\":11256:11262   */\n      dup6\n        /* \"#utility.yul\":11162:11270   */\n      tag_166\n      jump\t// in\n    tag_323:\n        /* \"#utility.yul\":11154:11270   */\n      swap1\n      pop\n        /* \"#utility.yul\":11280:11352   */\n      tag_324\n        /* \"#utility.yul\":11348:11350   */\n      0x40\n        /* \"#utility.yul\":11337:11346   */\n      dup4\n        /* \"#utility.yul\":11333:11351   */\n      add\n        /* \"#utility.yul\":11324:11330   */\n      dup5\n        /* \"#utility.yul\":11280:11352   */\n      tag_157\n      jump\t// in\n    tag_324:\n        /* \"#utility.yul\":10774:11359   */\n      swap5\n      swap4\n      pop\n      pop\n      pop\n      pop\n      jump\t// out\n        /* \"#utility.yul\":11365:11483   */\n    tag_167:\n        /* \"#utility.yul\":11452:11476   */\n      tag_326\n        /* \"#utility.yul\":11470:11475   */\n      dup2\n        /* \"#utility.yul\":11452:11476   */\n      tag_151\n      jump\t// in\n    tag_326:\n        /* \"#utility.yul\":11447:11450   */\n      dup3\n        /* \"#utility.yul\":11440:11477   */\n      mstore\n        /* \"#utility.yul\":11365:11483   */\n      pop\n      pop\n      jump\t// out\n        /* \"#utility.yul\":11489:11618   */\n    tag_168:\n        /* \"#utility.yul\":11571:11577   */\n      0x00\n        /* \"#utility.yul\":11605:11610   */\n      dup2\n        /* \"#utility.yul\":11599:11611   */\n      mload\n        /* \"#utility.yul\":11589:11611   */\n      swap1\n      pop\n        /* \"#utility.yul\":11489:11618   */\n      swap2\n      swap1\n      pop\n      jump\t// out\n        /* \"#utility.yul\":11624:11798   */\n    tag_169:\n        /* \"#utility.yul\":11713:11724   */\n      0x00\n        /* \"#utility.yul\":11747:11753   */\n      dup3\n        /* \"#utility.yul\":11742:11745   */\n      dup3\n        /* \"#utility.yul\":11735:11754   */\n      mstore\n        /* \"#utility.yul\":11787:11791   */\n      0x20\n        /* \"#utility.yul\":11782:11785   */\n      dup3\n        /* \"#utility.yul\":11778:11792   */\n      add\n        /* \"#utility.yul\":11763:11792   */\n      swap1\n      pop\n        /* \"#utility.yul\":11624:11798   */\n      swap3\n      swap2\n      pop\n      pop\n      jump\t// out\n        /* \"#utility.yul\":11804:11951   */\n    tag_170:\n        /* \"#utility.yul\":11886:11890   */\n      0x00\n        /* \"#utility.yul\":11909:11912   */\n      dup2\n        /* \"#utility.yul\":11901:11912   */\n      swap1\n      pop\n        /* \"#utility.yul\":11939:11943   */\n      0x20\n        /* \"#utility.yul\":11934:11937   */\n      dup3\n        /* \"#utility.yul\":11930:11944   */\n      add\n        /* \"#utility.yul\":11922:11944   */\n      swap1\n      pop\n        /* \"#utility.yul\":11804:11951   */\n      swap2\n      swap1\n      pop\n      jump\t// out\n        /* \"#utility.yul\":11957:12017   */\n    tag_171:\n        /* \"#utility.yul\":11985:11988   */\n      0x00\n        /* \"#utility.yul\":12006:12011   */\n      dup2\n        /* \"#utility.yul\":11999:12011   */\n      swap1\n      pop\n        /* \"#utility.yul\":11957:12017   */\n      swap2\n      swap1\n      pop\n      jump\t// out\n        /* \"#utility.yul\":12023:12165   */\n    tag_172:\n        /* \"#utility.yul\":12073:12082   */\n      0x00\n        /* \"#utility.yul\":12106:12159   */\n      tag_332\n        /* \"#utility.yul\":12124:12158   */\n      tag_333\n        /* \"#utility.yul\":12133:12157   */\n      tag_334\n        /* \"#utility.yul\":12151:12156   */\n      dup5\n        /* \"#utility.yul\":12133:12157   */\n      tag_129\n      jump\t// in\n    tag_334:\n        /* \"#utility.yul\":12124:12158   */\n      tag_171\n      jump\t// in\n    tag_333:\n        /* \"#utility.yul\":12106:12159   */\n      tag_129\n      jump\t// in\n    tag_332:\n        /* \"#utility.yul\":12093:12159   */\n      swap1\n      pop\n        /* \"#utility.yul\":12023:12165   */\n      swap2\n      swap1\n      pop\n      jump\t// out\n        /* \"#utility.yul\":12171:12297   */\n    tag_173:\n        /* \"#utility.yul\":12221:12230   */\n      0x00\n        /* \"#utility.yul\":12254:12291   */\n      tag_336\n        /* \"#utility.yul\":12285:12290   */\n      dup3\n        /* \"#utility.yul\":12254:12291   */\n      tag_172\n      jump\t// in\n    tag_336:\n        /* \"#utility.yul\":12241:12291   */\n      swap1\n      pop\n        /* \"#utility.yul\":12171:12297   */\n      swap2\n      swap1\n      pop\n      jump\t// out\n        /* \"#utility.yul\":12303:12444   */\n    tag_174:\n        /* \"#utility.yul\":12368:12377   */\n      0x00\n        /* \"#utility.yul\":12401:12438   */\n      tag_338\n        /* \"#utility.yul\":12432:12437   */\n      dup3\n        /* \"#utility.yul\":12401:12438   */\n      tag_173\n      jump\t// in\n    tag_338:\n        /* \"#utility.yul\":12388:12438   */\n      swap1\n      pop\n        /* \"#utility.yul\":12303:12444   */\n      swap2\n      swap1\n      pop\n      jump\t// out\n        /* \"#utility.yul\":12450:12601   */\n    tag_175:\n        /* \"#utility.yul\":12542:12594   */\n      tag_340\n        /* \"#utility.yul\":12588:12593   */\n      dup2\n        /* \"#utility.yul\":12542:12594   */\n      tag_174\n      jump\t// in\n    tag_340:\n        /* \"#utility.yul\":12537:12540   */\n      dup3\n        /* \"#utility.yul\":12530:12595   */\n      mstore\n        /* \"#utility.yul\":12450:12601   */\n      pop\n      pop\n      jump\t// out\n        /* \"#utility.yul\":12607:12816   */\n    tag_176:\n        /* \"#utility.yul\":12691:12701   */\n      0x00\n        /* \"#utility.yul\":12712:12773   */\n      tag_342\n        /* \"#utility.yul\":12769:12772   */\n      dup4\n        /* \"#utility.yul\":12761:12767   */\n      dup4\n        /* \"#utility.yul\":12712:12773   */\n      tag_175\n      jump\t// in\n    tag_342:\n        /* \"#utility.yul\":12805:12809   */\n      0x20\n        /* \"#utility.yul\":12800:12803   */\n      dup4\n        /* \"#utility.yul\":12796:12810   */\n      add\n        /* \"#utility.yul\":12782:12810   */\n      swap1\n      pop\n        /* \"#utility.yul\":12607:12816   */\n      swap3\n      swap2\n      pop\n      pop\n      jump\t// out\n        /* \"#utility.yul\":12822:12950   */\n    tag_177:\n        /* \"#utility.yul\":12907:12911   */\n      0x00\n        /* \"#utility.yul\":12939:12943   */\n      0x20\n        /* \"#utility.yul\":12934:12937   */\n      dup3\n        /* \"#utility.yul\":12930:12944   */\n      add\n        /* \"#utility.yul\":12922:12944   */\n      swap1\n      pop\n        /* \"#utility.yul\":12822:12950   */\n      swap2\n      swap1\n      pop\n      jump\t// out\n        /* \"#utility.yul\":12994:13781   */\n    tag_178:\n        /* \"#utility.yul\":13118:13121   */\n      0x00\n        /* \"#utility.yul\":13147:13216   */\n      tag_345\n        /* \"#utility.yul\":13210:13215   */\n      dup3\n        /* \"#utility.yul\":13147:13216   */\n      tag_168\n      jump\t// in\n    tag_345:\n        /* \"#utility.yul\":13232:13308   */\n      tag_346\n        /* \"#utility.yul\":13301:13307   */\n      dup2\n        /* \"#utility.yul\":13296:13299   */\n      dup6\n        /* \"#utility.yul\":13232:13308   */\n      tag_169\n      jump\t// in\n    tag_346:\n        /* \"#utility.yul\":13225:13308   */\n      swap4\n      pop\n        /* \"#utility.yul\":13332:13403   */\n      tag_347\n        /* \"#utility.yul\":13397:13402   */\n      dup4\n        /* \"#utility.yul\":13332:13403   */\n      tag_170\n      jump\t// in\n    tag_347:\n        /* \"#utility.yul\":13426:13433   */\n      dup1\n        /* \"#utility.yul\":13457:13458   */\n      0x00\n        /* \"#utility.yul\":13442:13756   */\n    tag_348:\n        /* \"#utility.yul\":13467:13473   */\n      dup4\n        /* \"#utility.yul\":13464:13465   */\n      dup2\n        /* \"#utility.yul\":13461:13474   */\n      lt\n        /* \"#utility.yul\":13442:13756   */\n      iszero\n      tag_350\n      jumpi\n        /* \"#utility.yul\":13543:13549   */\n      dup2\n        /* \"#utility.yul\":13537:13550   */\n      mload\n        /* \"#utility.yul\":13570:13648   */\n      tag_351\n        /* \"#utility.yul\":13644:13647   */\n      dup9\n        /* \"#utility.yul\":13629:13642   */\n      dup3\n        /* \"#utility.yul\":13570:13648   */\n      tag_176\n      jump\t// in\n    tag_351:\n        /* \"#utility.yul\":13563:13648   */\n      swap8\n      pop\n        /* \"#utility.yul\":13671:13746   */\n      tag_352\n        /* \"#utility.yul\":13739:13745   */\n      dup4\n        /* \"#utility.yul\":13671:13746   */\n      tag_177\n      jump\t// in\n    tag_352:\n        /* \"#utility.yul\":13661:13746   */\n      swap3\n      pop\n        /* \"#utility.yul\":13502:13756   */\n      pop\n        /* \"#utility.yul\":13489:13490   */\n      0x01\n        /* \"#utility.yul\":13486:13487   */\n      dup2\n        /* \"#utility.yul\":13482:13491   */\n      add\n        /* \"#utility.yul\":13477:13491   */\n      swap1\n      pop\n        /* \"#utility.yul\":13442:13756   */\n      jump(tag_348)\n    tag_350:\n        /* \"#utility.yul\":13446:13460   */\n      pop\n        /* \"#utility.yul\":13772:13775   */\n      dup6\n        /* \"#utility.yul\":13765:13775   */\n      swap4\n      pop\n        /* \"#utility.yul\":13123:13781   */\n      pop\n      pop\n      pop\n        /* \"#utility.yul\":12994:13781   */\n      swap3\n      swap2\n      pop\n      pop\n      jump\t// out\n        /* \"#utility.yul\":13787:13961   */\n    tag_179:\n        /* \"#utility.yul\":13876:13887   */\n      0x00\n        /* \"#utility.yul\":13910:13916   */\n      dup3\n        /* \"#utility.yul\":13905:13908   */\n      dup3\n        /* \"#utility.yul\":13898:13917   */\n      mstore\n        /* \"#utility.yul\":13950:13954   */\n      0x20\n        /* \"#utility.yul\":13945:13948   */\n      dup3\n        /* \"#utility.yul\":13941:13955   */\n      add\n        /* \"#utility.yul\":13926:13955   */\n      swap1\n      pop\n        /* \"#utility.yul\":13787:13961   */\n      swap3\n      swap2\n      pop\n      pop\n      jump\t// out\n        /* \"#utility.yul\":13997:14709   */\n    tag_180:\n        /* \"#utility.yul\":14106:14109   */\n      0x00\n        /* \"#utility.yul\":14135:14189   */\n      tag_355\n        /* \"#utility.yul\":14183:14188   */\n      dup3\n        /* \"#utility.yul\":14135:14189   */\n      tag_160\n      jump\t// in\n    tag_355:\n        /* \"#utility.yul\":14205:14281   */\n      tag_356\n        /* \"#utility.yul\":14274:14280   */\n      dup2\n        /* \"#utility.yul\":14269:14272   */\n      dup6\n        /* \"#utility.yul\":14205:14281   */\n      tag_179\n      jump\t// in\n    tag_356:\n        /* \"#utility.yul\":14198:14281   */\n      swap4\n      pop\n        /* \"#utility.yul\":14305:14361   */\n      tag_357\n        /* \"#utility.yul\":14355:14360   */\n      dup4\n        /* \"#utility.yul\":14305:14361   */\n      tag_162\n      jump\t// in\n    tag_357:\n        /* \"#utility.yul\":14384:14391   */\n      dup1\n        /* \"#utility.yul\":14415:14416   */\n      0x00\n        /* \"#utility.yul\":14400:14684   */\n    tag_358:\n        /* \"#utility.yul\":14425:14431   */\n      dup4\n        /* \"#utility.yul\":14422:14423   */\n      dup2\n        /* \"#utility.yul\":14419:14432   */\n      lt\n        /* \"#utility.yul\":14400:14684   */\n      iszero\n      tag_360\n      jumpi\n        /* \"#utility.yul\":14501:14507   */\n      dup2\n        /* \"#utility.yul\":14495:14508   */\n      mload\n        /* \"#utility.yul\":14528:14591   */\n      tag_361\n        /* \"#utility.yul\":14587:14590   */\n      dup9\n        /* \"#utility.yul\":14572:14585   */\n      dup3\n        /* \"#utility.yul\":14528:14591   */\n      tag_164\n      jump\t// in\n    tag_361:\n        /* \"#utility.yul\":14521:14591   */\n      swap8\n      pop\n        /* \"#utility.yul\":14614:14674   */\n      tag_362\n        /* \"#utility.yul\":14667:14673   */\n      dup4\n        /* \"#utility.yul\":14614:14674   */\n      tag_165\n      jump\t// in\n    tag_362:\n        /* \"#utility.yul\":14604:14674   */\n      swap3\n      pop\n        /* \"#utility.yul\":14460:14684   */\n      pop\n        /* \"#utility.yul\":14447:14448   */\n      0x01\n        /* \"#utility.yul\":14444:14445   */\n      dup2\n        /* \"#utility.yul\":14440:14449   */\n      add\n        /* \"#utility.yul\":14435:14449   */\n      swap1\n      pop\n        /* \"#utility.yul\":14400:14684   */\n      jump(tag_358)\n    tag_360:\n        /* \"#utility.yul\":14404:14418   */\n      pop\n        /* \"#utility.yul\":14700:14703   */\n      dup6\n        /* \"#utility.yul\":14693:14703   */\n      swap4\n      pop\n        /* \"#utility.yul\":14111:14709   */\n      pop\n      pop\n      pop\n        /* \"#utility.yul\":13997:14709   */\n      swap3\n      swap2\n      pop\n      pop\n      jump\t// out\n        /* \"#utility.yul\":14715:14813   */\n    tag_181:\n        /* \"#utility.yul\":14766:14772   */\n      0x00\n        /* \"#utility.yul\":14800:14805   */\n      dup2\n        /* \"#utility.yul\":14794:14806   */\n      mload\n        /* \"#utility.yul\":14784:14806   */\n      swap1\n      pop\n        /* \"#utility.yul\":14715:14813   */\n      swap2\n      swap1\n      pop\n      jump\t// out\n        /* \"#utility.yul\":14819:14977   */\n    tag_182:\n        /* \"#utility.yul\":14892:14903   */\n      0x00\n        /* \"#utility.yul\":14926:14932   */\n      dup3\n        /* \"#utility.yul\":14921:14924   */\n      dup3\n        /* \"#utility.yul\":14914:14933   */\n      mstore\n        /* \"#utility.yul\":14966:14970   */\n      0x20\n        /* \"#utility.yul\":14961:14964   */\n      dup3\n        /* \"#utility.yul\":14957:14971   */\n      add\n        /* \"#utility.yul\":14942:14971   */\n      swap1\n      pop\n        /* \"#utility.yul\":14819:14977   */\n      swap3\n      swap2\n      pop\n      pop\n      jump\t// out\n        /* \"#utility.yul\":14983:15290   */\n    tag_183:\n        /* \"#utility.yul\":15051:15052   */\n      0x00\n        /* \"#utility.yul\":15061:15174   */\n    tag_366:\n        /* \"#utility.yul\":15075:15081   */\n      dup4\n        /* \"#utility.yul\":15072:15073   */\n      dup2\n        /* \"#utility.yul\":15069:15082   */\n      lt\n        /* \"#utility.yul\":15061:15174   */\n      iszero\n      tag_368\n      jumpi\n        /* \"#utility.yul\":15160:15161   */\n      dup1\n        /* \"#utility.yul\":15155:15158   */\n      dup3\n        /* \"#utility.yul\":15151:15162   */\n      add\n        /* \"#utility.yul\":15145:15163   */\n      mload\n        /* \"#utility.yul\":15141:15142   */\n      dup2\n        /* \"#utility.yul\":15136:15139   */\n      dup5\n        /* \"#utility.yul\":15132:15143   */\n      add\n        /* \"#utility.yul\":15125:15164   */\n      mstore\n        /* \"#utility.yul\":15097:15099   */\n      0x20\n        /* \"#utility.yul\":15094:15095   */\n      dup2\n        /* \"#utility.yul\":15090:15100   */\n      add\n        /* \"#utility.yul\":15085:15100   */\n      swap1\n      pop\n        /* \"#utility.yul\":15061:15174   */\n      jump(tag_366)\n    tag_368:\n        /* \"#utility.yul\":15192:15198   */\n      dup4\n        /* \"#utility.yul\":15189:15190   */\n      dup2\n        /* \"#utility.yul\":15186:15199   */\n      gt\n        /* \"#utility.yul\":15183:15284   */\n      iszero\n      tag_369\n      jumpi\n        /* \"#utility.yul\":15272:15273   */\n      0x00\n        /* \"#utility.yul\":15263:15269   */\n      dup5\n        /* \"#utility.yul\":15258:15261   */\n      dup5\n        /* \"#utility.yul\":15254:15270   */\n      add\n        /* \"#utility.yul\":15247:15274   */\n      mstore\n        /* \"#utility.yul\":15183:15284   */\n    tag_369:\n        /* \"#utility.yul\":15032:15290   */\n      pop\n        /* \"#utility.yul\":14983:15290   */\n      pop\n      pop\n      pop\n      jump\t// out\n        /* \"#utility.yul\":15296:15636   */\n    tag_184:\n        /* \"#utility.yul\":15372:15375   */\n      0x00\n        /* \"#utility.yul\":15400:15438   */\n      tag_371\n        /* \"#utility.yul\":15432:15437   */\n      dup3\n        /* \"#utility.yul\":15400:15438   */\n      tag_181\n      jump\t// in\n    tag_371:\n        /* \"#utility.yul\":15454:15514   */\n      tag_372\n        /* \"#utility.yul\":15507:15513   */\n      dup2\n        /* \"#utility.yul\":15502:15505   */\n      dup6\n        /* \"#utility.yul\":15454:15514   */\n      tag_182\n      jump\t// in\n    tag_372:\n        /* \"#utility.yul\":15447:15514   */\n      swap4\n      pop\n        /* \"#utility.yul\":15523:15575   */\n      tag_373\n        /* \"#utility.yul\":15568:15574   */\n      dup2\n        /* \"#utility.yul\":15563:15566   */\n      dup6\n        /* \"#utility.yul\":15556:15560   */\n      0x20\n        /* \"#utility.yul\":15549:15554   */\n      dup7\n        /* \"#utility.yul\":15545:15561   */\n      add\n        /* \"#utility.yul\":15523:15575   */\n      tag_183\n      jump\t// in\n    tag_373:\n        /* \"#utility.yul\":15600:15629   */\n      tag_374\n        /* \"#utility.yul\":15622:15628   */\n      dup2\n        /* \"#utility.yul\":15600:15629   */\n      tag_136\n      jump\t// in\n    tag_374:\n        /* \"#utility.yul\":15595:15598   */\n      dup5\n        /* \"#utility.yul\":15591:15630   */\n      add\n        /* \"#utility.yul\":15584:15630   */\n      swap2\n      pop\n        /* \"#utility.yul\":15376:15636   */\n      pop\n        /* \"#utility.yul\":15296:15636   */\n      swap3\n      swap2\n      pop\n      pop\n      jump\t// out\n        /* \"#utility.yul\":15642:15732   */\n    tag_185:\n        /* \"#utility.yul\":15676:15683   */\n      0x00\n        /* \"#utility.yul\":15719:15724   */\n      dup2\n        /* \"#utility.yul\":15712:15725   */\n      iszero\n        /* \"#utility.yul\":15705:15726   */\n      iszero\n        /* \"#utility.yul\":15694:15726   */\n      swap1\n      pop\n        /* \"#utility.yul\":15642:15732   */\n      swap2\n      swap1\n      pop\n      jump\t// out\n        /* \"#utility.yul\":15738:15837   */\n    tag_186:\n        /* \"#utility.yul\":15809:15830   */\n      tag_377\n        /* \"#utility.yul\":15824:15829   */\n      dup2\n        /* \"#utility.yul\":15809:15830   */\n      tag_185\n      jump\t// in\n    tag_377:\n        /* \"#utility.yul\":15804:15807   */\n      dup3\n        /* \"#utility.yul\":15797:15831   */\n      mstore\n        /* \"#utility.yul\":15738:15837   */\n      pop\n      pop\n      jump\t// out\n        /* \"#utility.yul\":15921:17129   */\n    tag_187:\n        /* \"#utility.yul\":16056:16059   */\n      0x00\n        /* \"#utility.yul\":16092:16096   */\n      0x80\n        /* \"#utility.yul\":16087:16090   */\n      dup4\n        /* \"#utility.yul\":16083:16097   */\n      add\n        /* \"#utility.yul\":16181:16185   */\n      0x00\n        /* \"#utility.yul\":16174:16179   */\n      dup4\n        /* \"#utility.yul\":16170:16186   */\n      add\n        /* \"#utility.yul\":16164:16187   */\n      mload\n        /* \"#utility.yul\":16234:16237   */\n      dup5\n        /* \"#utility.yul\":16228:16232   */\n      dup3\n        /* \"#utility.yul\":16224:16238   */\n      sub\n        /* \"#utility.yul\":16217:16221   */\n      0x00\n        /* \"#utility.yul\":16212:16215   */\n      dup7\n        /* \"#utility.yul\":16208:16222   */\n      add\n        /* \"#utility.yul\":16201:16239   */\n      mstore\n        /* \"#utility.yul\":16260:16378   */\n      tag_379\n        /* \"#utility.yul\":16373:16377   */\n      dup3\n        /* \"#utility.yul\":16359:16371   */\n      dup3\n        /* \"#utility.yul\":16260:16378   */\n      tag_178\n      jump\t// in\n    tag_379:\n        /* \"#utility.yul\":16252:16378   */\n      swap2\n      pop\n        /* \"#utility.yul\":16107:16389   */\n      pop\n        /* \"#utility.yul\":16479:16483   */\n      0x20\n        /* \"#utility.yul\":16472:16477   */\n      dup4\n        /* \"#utility.yul\":16468:16484   */\n      add\n        /* \"#utility.yul\":16462:16485   */\n      mload\n        /* \"#utility.yul\":16532:16535   */\n      dup5\n        /* \"#utility.yul\":16526:16530   */\n      dup3\n        /* \"#utility.yul\":16522:16536   */\n      sub\n        /* \"#utility.yul\":16515:16519   */\n      0x20\n        /* \"#utility.yul\":16510:16513   */\n      dup7\n        /* \"#utility.yul\":16506:16520   */\n      add\n        /* \"#utility.yul\":16499:16537   */\n      mstore\n        /* \"#utility.yul\":16558:16661   */\n      tag_380\n        /* \"#utility.yul\":16656:16660   */\n      dup3\n        /* \"#utility.yul\":16642:16654   */\n      dup3\n        /* \"#utility.yul\":16558:16661   */\n      tag_180\n      jump\t// in\n    tag_380:\n        /* \"#utility.yul\":16550:16661   */\n      swap2\n      pop\n        /* \"#utility.yul\":16399:16672   */\n      pop\n        /* \"#utility.yul\":16758:16762   */\n      0x40\n        /* \"#utility.yul\":16751:16756   */\n      dup4\n        /* \"#utility.yul\":16747:16763   */\n      add\n        /* \"#utility.yul\":16741:16764   */\n      mload\n        /* \"#utility.yul\":16811:16814   */\n      dup5\n        /* \"#utility.yul\":16805:16809   */\n      dup3\n        /* \"#utility.yul\":16801:16815   */\n      sub\n        /* \"#utility.yul\":16794:16798   */\n      0x40\n        /* \"#utility.yul\":16789:16792   */\n      dup7\n        /* \"#utility.yul\":16785:16799   */\n      add\n        /* \"#utility.yul\":16778:16816   */\n      mstore\n        /* \"#utility.yul\":16837:16908   */\n      tag_381\n        /* \"#utility.yul\":16903:16907   */\n      dup3\n        /* \"#utility.yul\":16889:16901   */\n      dup3\n        /* \"#utility.yul\":16837:16908   */\n      tag_184\n      jump\t// in\n    tag_381:\n        /* \"#utility.yul\":16829:16908   */\n      swap2\n      pop\n        /* \"#utility.yul\":16682:16919   */\n      pop\n        /* \"#utility.yul\":17016:17020   */\n      0x60\n        /* \"#utility.yul\":17009:17014   */\n      dup4\n        /* \"#utility.yul\":17005:17021   */\n      add\n        /* \"#utility.yul\":16999:17022   */\n      mload\n        /* \"#utility.yul\":17035:17092   */\n      tag_382\n        /* \"#utility.yul\":17086:17090   */\n      0x60\n        /* \"#utility.yul\":17081:17084   */\n      dup7\n        /* \"#utility.yul\":17077:17091   */\n      add\n        /* \"#utility.yul\":17063:17075   */\n      dup3\n        /* \"#utility.yul\":17035:17092   */\n      tag_186\n      jump\t// in\n    tag_382:\n        /* \"#utility.yul\":16929:17102   */\n      pop\n        /* \"#utility.yul\":17119:17123   */\n      dup1\n        /* \"#utility.yul\":17112:17123   */\n      swap2\n      pop\n        /* \"#utility.yul\":16061:17129   */\n      pop\n        /* \"#utility.yul\":15921:17129   */\n      swap3\n      swap2\n      pop\n      pop\n      jump\t// out\n        /* \"#utility.yul\":17135:17871   */\n    tag_55:\n        /* \"#utility.yul\":17378:17382   */\n      0x00\n        /* \"#utility.yul\":17416:17419   */\n      0x80\n        /* \"#utility.yul\":17405:17414   */\n      dup3\n        /* \"#utility.yul\":17401:17420   */\n      add\n        /* \"#utility.yul\":17393:17420   */\n      swap1\n      pop\n        /* \"#utility.yul\":17430:17501   */\n      tag_384\n        /* \"#utility.yul\":17498:17499   */\n      0x00\n        /* \"#utility.yul\":17487:17496   */\n      dup4\n        /* \"#utility.yul\":17483:17500   */\n      add\n        /* \"#utility.yul\":17474:17480   */\n      dup8\n        /* \"#utility.yul\":17430:17501   */\n      tag_167\n      jump\t// in\n    tag_384:\n        /* \"#utility.yul\":17511:17583   */\n      tag_385\n        /* \"#utility.yul\":17579:17581   */\n      0x20\n        /* \"#utility.yul\":17568:17577   */\n      dup4\n        /* \"#utility.yul\":17564:17582   */\n      add\n        /* \"#utility.yul\":17555:17561   */\n      dup7\n        /* \"#utility.yul\":17511:17583   */\n      tag_131\n      jump\t// in\n    tag_385:\n        /* \"#utility.yul\":17593:17665   */\n      tag_386\n        /* \"#utility.yul\":17661:17663   */\n      0x40\n        /* \"#utility.yul\":17650:17659   */\n      dup4\n        /* \"#utility.yul\":17646:17664   */\n      add\n        /* \"#utility.yul\":17637:17643   */\n      dup6\n        /* \"#utility.yul\":17593:17665   */\n      tag_131\n      jump\t// in\n    tag_386:\n        /* \"#utility.yul\":17712:17721   */\n      dup2\n        /* \"#utility.yul\":17706:17710   */\n      dup2\n        /* \"#utility.yul\":17702:17722   */\n      sub\n        /* \"#utility.yul\":17697:17699   */\n      0x60\n        /* \"#utility.yul\":17686:17695   */\n      dup4\n        /* \"#utility.yul\":17682:17700   */\n      add\n        /* \"#utility.yul\":17675:17723   */\n      mstore\n        /* \"#utility.yul\":17740:17864   */\n      tag_387\n        /* \"#utility.yul\":17859:17863   */\n      dup2\n        /* \"#utility.yul\":17850:17856   */\n      dup5\n        /* \"#utility.yul\":17740:17864   */\n      tag_187\n      jump\t// in\n    tag_387:\n        /* \"#utility.yul\":17732:17864   */\n      swap1\n      pop\n        /* \"#utility.yul\":17135:17871   */\n      swap6\n      swap5\n      pop\n      pop\n      pop\n      pop\n      pop\n      jump\t// out\n        /* \"#utility.yul\":17877:18020   */\n    tag_188:\n        /* \"#utility.yul\":17934:17939   */\n      0x00\n        /* \"#utility.yul\":17965:17971   */\n      dup2\n        /* \"#utility.yul\":17959:17972   */\n      mload\n        /* \"#utility.yul\":17950:17972   */\n      swap1\n      pop\n        /* \"#utility.yul\":17981:18014   */\n      tag_389\n        /* \"#utility.yul\":18008:18013   */\n      dup2\n        /* \"#utility.yul\":17981:18014   */\n      tag_149\n      jump\t// in\n    tag_389:\n        /* \"#utility.yul\":17877:18020   */\n      swap3\n      swap2\n      pop\n      pop\n      jump\t// out\n        /* \"#utility.yul\":18026:18377   */\n    tag_70:\n        /* \"#utility.yul\":18096:18102   */\n      0x00\n        /* \"#utility.yul\":18145:18147   */\n      0x20\n        /* \"#utility.yul\":18133:18142   */\n      dup3\n        /* \"#utility.yul\":18124:18131   */\n      dup5\n        /* \"#utility.yul\":18120:18143   */\n      sub\n        /* \"#utility.yul\":18116:18148   */\n      slt\n        /* \"#utility.yul\":18113:18232   */\n      iszero\n      tag_391\n      jumpi\n        /* \"#utility.yul\":18151:18230   */\n      tag_392\n      tag_133\n      jump\t// in\n    tag_392:\n        /* \"#utility.yul\":18113:18232   */\n    tag_391:\n        /* \"#utility.yul\":18271:18272   */\n      0x00\n        /* \"#utility.yul\":18296:18360   */\n      tag_393\n        /* \"#utility.yul\":18352:18359   */\n      dup5\n        /* \"#utility.yul\":18343:18349   */\n      dup3\n        /* \"#utility.yul\":18332:18341   */\n      dup6\n        /* \"#utility.yul\":18328:18350   */\n      add\n        /* \"#utility.yul\":18296:18360   */\n      tag_188\n      jump\t// in\n    tag_393:\n        /* \"#utility.yul\":18286:18360   */\n      swap2\n      pop\n        /* \"#utility.yul\":18242:18370   */\n      pop\n        /* \"#utility.yul\":18026:18377   */\n      swap3\n      swap2\n      pop\n      pop\n      jump\t// out\n        /* \"#utility.yul\":18383:18499   */\n    tag_189:\n        /* \"#utility.yul\":18453:18474   */\n      tag_395\n        /* \"#utility.yul\":18468:18473   */\n      dup2\n        /* \"#utility.yul\":18453:18474   */\n      tag_185\n      jump\t// in\n    tag_395:\n        /* \"#utility.yul\":18446:18451   */\n      dup2\n        /* \"#utility.yul\":18443:18475   */\n      eq\n        /* \"#utility.yul\":18433:18493   */\n      tag_396\n      jumpi\n        /* \"#utility.yul\":18489:18490   */\n      0x00\n        /* \"#utility.yul\":18486:18487   */\n      dup1\n        /* \"#utility.yul\":18479:18491   */\n      revert\n        /* \"#utility.yul\":18433:18493   */\n    tag_396:\n        /* \"#utility.yul\":18383:18499   */\n      pop\n      jump\t// out\n        /* \"#utility.yul\":18505:18642   */\n    tag_190:\n        /* \"#utility.yul\":18559:18564   */\n      0x00\n        /* \"#utility.yul\":18590:18596   */\n      dup2\n        /* \"#utility.yul\":18584:18597   */\n      mload\n        /* \"#utility.yul\":18575:18597   */\n      swap1\n      pop\n        /* \"#utility.yul\":18606:18636   */\n      tag_398\n        /* \"#utility.yul\":18630:18635   */\n      dup2\n        /* \"#utility.yul\":18606:18636   */\n      tag_189\n      jump\t// in\n    tag_398:\n        /* \"#utility.yul\":18505:18642   */\n      swap3\n      swap2\n      pop\n      pop\n      jump\t// out\n        /* \"#utility.yul\":18648:18993   */\n    tag_77:\n        /* \"#utility.yul\":18715:18721   */\n      0x00\n        /* \"#utility.yul\":18764:18766   */\n      0x20\n        /* \"#utility.yul\":18752:18761   */\n      dup3\n        /* \"#utility.yul\":18743:18750   */\n      dup5\n        /* \"#utility.yul\":18739:18762   */\n      sub\n        /* \"#utility.yul\":18735:18767   */\n      slt\n        /* \"#utility.yul\":18732:18851   */\n      iszero\n      tag_400\n      jumpi\n        /* \"#utility.yul\":18770:18849   */\n      tag_401\n      tag_133\n      jump\t// in\n    tag_401:\n        /* \"#utility.yul\":18732:18851   */\n    tag_400:\n        /* \"#utility.yul\":18890:18891   */\n      0x00\n        /* \"#utility.yul\":18915:18976   */\n      tag_402\n        /* \"#utility.yul\":18968:18975   */\n      dup5\n        /* \"#utility.yul\":18959:18965   */\n      dup3\n        /* \"#utility.yul\":18948:18957   */\n      dup6\n        /* \"#utility.yul\":18944:18966   */\n      add\n        /* \"#utility.yul\":18915:18976   */\n      tag_190\n      jump\t// in\n    tag_402:\n        /* \"#utility.yul\":18905:18976   */\n      swap2\n      pop\n        /* \"#utility.yul\":18861:18986   */\n      pop\n        /* \"#utility.yul\":18648:18993   */\n      swap3\n      swap2\n      pop\n      pop\n      jump\t// out\n        /* \"#utility.yul\":18999:19168   */\n    tag_191:\n        /* \"#utility.yul\":19083:19094   */\n      0x00\n        /* \"#utility.yul\":19117:19123   */\n      dup3\n        /* \"#utility.yul\":19112:19115   */\n      dup3\n        /* \"#utility.yul\":19105:19124   */\n      mstore\n        /* \"#utility.yul\":19157:19161   */\n      0x20\n        /* \"#utility.yul\":19152:19155   */\n      dup3\n        /* \"#utility.yul\":19148:19162   */\n      add\n        /* \"#utility.yul\":19133:19162   */\n      swap1\n      pop\n        /* \"#utility.yul\":18999:19168   */\n      swap3\n      swap2\n      pop\n      pop\n      jump\t// out\n        /* \"#utility.yul\":19174:19403   */\n    tag_192:\n        /* \"#utility.yul\":19314:19348   */\n      0x5361666545524332303a204552433230206f7065726174696f6e20646964206e\n        /* \"#utility.yul\":19310:19311   */\n      0x00\n        /* \"#utility.yul\":19302:19308   */\n      dup3\n        /* \"#utility.yul\":19298:19312   */\n      add\n        /* \"#utility.yul\":19291:19349   */\n      mstore\n        /* \"#utility.yul\":19383:19395   */\n      0x6f74207375636365656400000000000000000000000000000000000000000000\n        /* \"#utility.yul\":19378:19380   */\n      0x20\n        /* \"#utility.yul\":19370:19376   */\n      dup3\n        /* \"#utility.yul\":19366:19381   */\n      add\n        /* \"#utility.yul\":19359:19396   */\n      mstore\n        /* \"#utility.yul\":19174:19403   */\n      pop\n      jump\t// out\n        /* \"#utility.yul\":19409:19775   */\n    tag_193:\n        /* \"#utility.yul\":19551:19554   */\n      0x00\n        /* \"#utility.yul\":19572:19639   */\n      tag_406\n        /* \"#utility.yul\":19636:19638   */\n      0x2a\n        /* \"#utility.yul\":19631:19634   */\n      dup4\n        /* \"#utility.yul\":19572:19639   */\n      tag_191\n      jump\t// in\n    tag_406:\n        /* \"#utility.yul\":19565:19639   */\n      swap2\n      pop\n        /* \"#utility.yul\":19648:19741   */\n      tag_407\n        /* \"#utility.yul\":19737:19740   */\n      dup3\n        /* \"#utility.yul\":19648:19741   */\n      tag_192\n      jump\t// in\n    tag_407:\n        /* \"#utility.yul\":19766:19768   */\n      0x40\n        /* \"#utility.yul\":19761:19764   */\n      dup3\n        /* \"#utility.yul\":19757:19769   */\n      add\n        /* \"#utility.yul\":19750:19769   */\n      swap1\n      pop\n        /* \"#utility.yul\":19409:19775   */\n      swap2\n      swap1\n      pop\n      jump\t// out\n        /* \"#utility.yul\":19781:20200   */\n    tag_80:\n        /* \"#utility.yul\":19947:19951   */\n      0x00\n        /* \"#utility.yul\":19985:19987   */\n      0x20\n        /* \"#utility.yul\":19974:19983   */\n      dup3\n        /* \"#utility.yul\":19970:19988   */\n      add\n        /* \"#utility.yul\":19962:19988   */\n      swap1\n      pop\n        /* \"#utility.yul\":20034:20043   */\n      dup2\n        /* \"#utility.yul\":20028:20032   */\n      dup2\n        /* \"#utility.yul\":20024:20044   */\n      sub\n        /* \"#utility.yul\":20020:20021   */\n      0x00\n        /* \"#utility.yul\":20009:20018   */\n      dup4\n        /* \"#utility.yul\":20005:20022   */\n      add\n        /* \"#utility.yul\":19998:20045   */\n      mstore\n        /* \"#utility.yul\":20062:20193   */\n      tag_409\n        /* \"#utility.yul\":20188:20192   */\n      dup2\n        /* \"#utility.yul\":20062:20193   */\n      tag_193\n      jump\t// in\n    tag_409:\n        /* \"#utility.yul\":20054:20193   */\n      swap1\n      pop\n        /* \"#utility.yul\":19781:20200   */\n      swap2\n      swap1\n      pop\n      jump\t// out\n        /* \"#utility.yul\":20206:20538   */\n    tag_83:\n        /* \"#utility.yul\":20327:20331   */\n      0x00\n        /* \"#utility.yul\":20365:20367   */\n      0x40\n        /* \"#utility.yul\":20354:20363   */\n      dup3\n        /* \"#utility.yul\":20350:20368   */\n      add\n        /* \"#utility.yul\":20342:20368   */\n      swap1\n      pop\n        /* \"#utility.yul\":20378:20449   */\n      tag_411\n        /* \"#utility.yul\":20446:20447   */\n      0x00\n        /* \"#utility.yul\":20435:20444   */\n      dup4\n        /* \"#utility.yul\":20431:20448   */\n      add\n        /* \"#utility.yul\":20422:20428   */\n      dup6\n        /* \"#utility.yul\":20378:20449   */\n      tag_131\n      jump\t// in\n    tag_411:\n        /* \"#utility.yul\":20459:20531   */\n      tag_412\n        /* \"#utility.yul\":20527:20529   */\n      0x20\n        /* \"#utility.yul\":20516:20525   */\n      dup4\n        /* \"#utility.yul\":20512:20530   */\n      add\n        /* \"#utility.yul\":20503:20509   */\n      dup5\n        /* \"#utility.yul\":20459:20531   */\n      tag_131\n      jump\t// in\n    tag_412:\n        /* \"#utility.yul\":20206:20538   */\n      swap4\n      swap3\n      pop\n      pop\n      pop\n      jump\t// out\n        /* \"#utility.yul\":20544:20724   */\n    tag_194:\n        /* \"#utility.yul\":20592:20669   */\n      0x4e487b7100000000000000000000000000000000000000000000000000000000\n        /* \"#utility.yul\":20589:20590   */\n      0x00\n        /* \"#utility.yul\":20582:20670   */\n      mstore\n        /* \"#utility.yul\":20689:20693   */\n      0x11\n        /* \"#utility.yul\":20686:20687   */\n      0x04\n        /* \"#utility.yul\":20679:20694   */\n      mstore\n        /* \"#utility.yul\":20713:20717   */\n      0x24\n        /* \"#utility.yul\":20710:20711   */\n      0x00\n        /* \"#utility.yul\":20703:20718   */\n      revert\n        /* \"#utility.yul\":20730:21035   */\n    tag_88:\n        /* \"#utility.yul\":20770:20773   */\n      0x00\n        /* \"#utility.yul\":20789:20809   */\n      tag_415\n        /* \"#utility.yul\":20807:20808   */\n      dup3\n        /* \"#utility.yul\":20789:20809   */\n      tag_148\n      jump\t// in\n    tag_415:\n        /* \"#utility.yul\":20784:20809   */\n      swap2\n      pop\n        /* \"#utility.yul\":20823:20843   */\n      tag_416\n        /* \"#utility.yul\":20841:20842   */\n      dup4\n        /* \"#utility.yul\":20823:20843   */\n      tag_148\n      jump\t// in\n    tag_416:\n        /* \"#utility.yul\":20818:20843   */\n      swap3\n      pop\n        /* \"#utility.yul\":20977:20978   */\n      dup3\n        /* \"#utility.yul\":20909:20975   */\n      0xffffffffffffffffffffffffffffffffffffffffffffffffffffffffffffffff\n        /* \"#utility.yul\":20905:20979   */\n      sub\n        /* \"#utility.yul\":20902:20903   */\n      dup3\n        /* \"#utility.yul\":20899:20980   */\n      gt\n        /* \"#utility.yul\":20896:21003   */\n      iszero\n      tag_417\n      jumpi\n        /* \"#utility.yul\":20983:21001   */\n      tag_418\n      tag_194\n      jump\t// in\n    tag_418:\n        /* \"#utility.yul\":20896:21003   */\n    tag_417:\n        /* \"#utility.yul\":21027:21028   */\n      dup3\n        /* \"#utility.yul\":21024:21025   */\n      dup3\n        /* \"#utility.yul\":21020:21029   */\n      add\n        /* \"#utility.yul\":21013:21029   */\n      swap1\n      pop\n        /* \"#utility.yul\":20730:21035   */\n      swap3\n      swap2\n      pop\n      pop\n      jump\t// out\n        /* \"#utility.yul\":21041:21373   */\n    tag_91:\n        /* \"#utility.yul\":21162:21166   */\n      0x00\n        /* \"#utility.yul\":21200:21202   */\n      0x40\n        /* \"#utility.yul\":21189:21198   */\n      dup3\n        /* \"#utility.yul\":21185:21203   */\n      add\n        /* \"#utility.yul\":21177:21203   */\n      swap1\n      pop\n        /* \"#utility.yul\":21213:21284   */\n      tag_420\n        /* \"#utility.yul\":21281:21282   */\n      0x00\n        /* \"#utility.yul\":21270:21279   */\n      dup4\n        /* \"#utility.yul\":21266:21283   */\n      add\n        /* \"#utility.yul\":21257:21263   */\n      dup6\n        /* \"#utility.yul\":21213:21284   */\n      tag_131\n      jump\t// in\n    tag_420:\n        /* \"#utility.yul\":21294:21366   */\n      tag_421\n        /* \"#utility.yul\":21362:21364   */\n      0x20\n        /* \"#utility.yul\":21351:21360   */\n      dup4\n        /* \"#utility.yul\":21347:21365   */\n      add\n        /* \"#utility.yul\":21338:21344   */\n      dup5\n        /* \"#utility.yul\":21294:21366   */\n      tag_157\n      jump\t// in\n    tag_421:\n        /* \"#utility.yul\":21041:21373   */\n      swap4\n      swap3\n      pop\n      pop\n      pop\n      jump\t// out\n        /* \"#utility.yul\":21379:21604   */\n    tag_195:\n        /* \"#utility.yul\":21519:21553   */\n      0x416464726573733a20696e73756666696369656e742062616c616e636520666f\n        /* \"#utility.yul\":21515:21516   */\n      0x00\n        /* \"#utility.yul\":21507:21513   */\n      dup3\n        /* \"#utility.yul\":21503:21517   */\n      add\n        /* \"#utility.yul\":21496:21554   */\n      mstore\n        /* \"#utility.yul\":21588:21596   */\n      0x722063616c6c0000000000000000000000000000000000000000000000000000\n        /* \"#utility.yul\":21583:21585   */\n      0x20\n        /* \"#utility.yul\":21575:21581   */\n      dup3\n        /* \"#utility.yul\":21571:21586   */\n      add\n        /* \"#utility.yul\":21564:21597   */\n      mstore\n        /* \"#utility.yul\":21379:21604   */\n      pop\n      jump\t// out\n        /* \"#utility.yul\":21610:21976   */\n    tag_196:\n        /* \"#utility.yul\":21752:21755   */\n      0x00\n        /* \"#utility.yul\":21773:21840   */\n      tag_424\n        /* \"#utility.yul\":21837:21839   */\n      0x26\n        /* \"#utility.yul\":21832:21835   */\n      dup4\n        /* \"#utility.yul\":21773:21840   */\n      tag_191\n      jump\t// in\n    tag_424:\n        /* \"#utility.yul\":21766:21840   */\n      swap2\n      pop\n        /* \"#utility.yul\":21849:21942   */\n      tag_425\n        /* \"#utility.yul\":21938:21941   */\n      dup3\n        /* \"#utility.yul\":21849:21942   */\n      tag_195\n      jump\t// in\n    tag_425:\n        /* \"#utility.yul\":21967:21969   */\n      0x40\n        /* \"#utility.yul\":21962:21965   */\n      dup3\n        /* \"#utility.yul\":21958:21970   */\n      add\n        /* \"#utility.yul\":21951:21970   */\n      swap1\n      pop\n        /* \"#utility.yul\":21610:21976   */\n      swap2\n      swap1\n      pop\n      jump\t// out\n        /* \"#utility.yul\":21982:22401   */\n    tag_108:\n        /* \"#utility.yul\":22148:22152   */\n      0x00\n        /* \"#utility.yul\":22186:22188   */\n      0x20\n        /* \"#utility.yul\":22175:22184   */\n      dup3\n        /* \"#utility.yul\":22171:22189   */\n      add\n        /* \"#utility.yul\":22163:22189   */\n      swap1\n      pop\n        /* \"#utility.yul\":22235:22244   */\n      dup2\n        /* \"#utility.yul\":22229:22233   */\n      dup2\n        /* \"#utility.yul\":22225:22245   */\n      sub\n        /* \"#utility.yul\":22221:22222   */\n      0x00\n        /* \"#utility.yul\":22210:22219   */\n      dup4\n        /* \"#utility.yul\":22206:22223   */\n      add\n        /* \"#utility.yul\":22199:22246   */\n      mstore\n        /* \"#utility.yul\":22263:22394   */\n      tag_427\n        /* \"#utility.yul\":22389:22393   */\n      dup2\n        /* \"#utility.yul\":22263:22394   */\n      tag_196\n      jump\t// in\n    tag_427:\n        /* \"#utility.yul\":22255:22394   */\n      swap1\n      pop\n        /* \"#utility.yul\":21982:22401   */\n      swap2\n      swap1\n      pop\n      jump\t// out\n        /* \"#utility.yul\":22407:22586   */\n    tag_197:\n        /* \"#utility.yul\":22547:22578   */\n      0x416464726573733a2063616c6c20746f206e6f6e2d636f6e7472616374000000\n        /* \"#utility.yul\":22543:22544   */\n      0x00\n        /* \"#utility.yul\":22535:22541   */\n      dup3\n        /* \"#utility.yul\":22531:22545   */\n      add\n        /* \"#utility.yul\":22524:22579   */\n      mstore\n        /* \"#utility.yul\":22407:22586   */\n      pop\n      jump\t// out\n        /* \"#utility.yul\":22592:22958   */\n    tag_198:\n        /* \"#utility.yul\":22734:22737   */\n      0x00\n        /* \"#utility.yul\":22755:22822   */\n      tag_430\n        /* \"#utility.yul\":22819:22821   */\n      0x1d\n        /* \"#utility.yul\":22814:22817   */\n      dup4\n        /* \"#utility.yul\":22755:22822   */\n      tag_191\n      jump\t// in\n    tag_430:\n        /* \"#utility.yul\":22748:22822   */\n      swap2\n      pop\n        /* \"#utility.yul\":22831:22924   */\n      tag_431\n        /* \"#utility.yul\":22920:22923   */\n      dup3\n        /* \"#utility.yul\":22831:22924   */\n      tag_197\n      jump\t// in\n    tag_431:\n        /* \"#utility.yul\":22949:22951   */\n      0x20\n        /* \"#utility.yul\":22944:22947   */\n      dup3\n        /* \"#utility.yul\":22940:22952   */\n      add\n        /* \"#utility.yul\":22933:22952   */\n      swap1\n      pop\n        /* \"#utility.yul\":22592:22958   */\n      swap2\n      swap1\n      pop\n      jump\t// out\n        /* \"#utility.yul\":22964:23383   */\n    tag_113:\n        /* \"#utility.yul\":23130:23134   */\n      0x00\n        /* \"#utility.yul\":23168:23170   */\n      0x20\n        /* \"#utility.yul\":23157:23166   */\n      dup3\n        /* \"#utility.yul\":23153:23171   */\n      add\n        /* \"#utility.yul\":23145:23171   */\n      swap1\n      pop\n        /* \"#utility.yul\":23217:23226   */\n      dup2\n        /* \"#utility.yul\":23211:23215   */\n      dup2\n        /* \"#utility.yul\":23207:23227   */\n      sub\n        /* \"#utility.yul\":23203:23204   */\n      0x00\n        /* \"#utility.yul\":23192:23201   */\n      dup4\n        /* \"#utility.yul\":23188:23205   */\n      add\n        /* \"#utility.yul\":23181:23228   */\n      mstore\n        /* \"#utility.yul\":23245:23376   */\n      tag_433\n        /* \"#utility.yul\":23371:23375   */\n      dup2\n        /* \"#utility.yul\":23245:23376   */\n      tag_198\n      jump\t// in\n    tag_433:\n        /* \"#utility.yul\":23237:23376   */\n      swap1\n      pop\n        /* \"#utility.yul\":22964:23383   */\n      swap2\n      swap1\n      pop\n      jump\t// out\n        /* \"#utility.yul\":23389:23536   */\n    tag_199:\n        /* \"#utility.yul\":23490:23501   */\n      0x00\n        /* \"#utility.yul\":23527:23530   */\n      dup2\n        /* \"#utility.yul\":23512:23530   */\n      swap1\n      pop\n        /* \"#utility.yul\":23389:23536   */\n      swap3\n      swap2\n      pop\n      pop\n      jump\t// out\n        /* \"#utility.yul\":23542:23915   */\n    tag_200:\n        /* \"#utility.yul\":23646:23649   */\n      0x00\n        /* \"#utility.yul\":23674:23712   */\n      tag_436\n        /* \"#utility.yul\":23706:23711   */\n      dup3\n        /* \"#utility.yul\":23674:23712   */\n      tag_181\n      jump\t// in\n    tag_436:\n        /* \"#utility.yul\":23728:23816   */\n      tag_437\n        /* \"#utility.yul\":23809:23815   */\n      dup2\n        /* \"#utility.yul\":23804:23807   */\n      dup6\n        /* \"#utility.yul\":23728:23816   */\n      tag_199\n      jump\t// in\n    tag_437:\n        /* \"#utility.yul\":23721:23816   */\n      swap4\n      pop\n        /* \"#utility.yul\":23825:23877   */\n      tag_438\n        /* \"#utility.yul\":23870:23876   */\n      dup2\n        /* \"#utility.yul\":23865:23868   */\n      dup6\n        /* \"#utility.yul\":23858:23862   */\n      0x20\n        /* \"#utility.yul\":23851:23856   */\n      dup7\n        /* \"#utility.yul\":23847:23863   */\n      add\n        /* \"#utility.yul\":23825:23877   */\n      tag_183\n      jump\t// in\n    tag_438:\n        /* \"#utility.yul\":23902:23908   */\n      dup1\n        /* \"#utility.yul\":23897:23900   */\n      dup5\n        /* \"#utility.yul\":23893:23909   */\n      add\n        /* \"#utility.yul\":23886:23909   */\n      swap2\n      pop\n        /* \"#utility.yul\":23650:23915   */\n      pop\n        /* \"#utility.yul\":23542:23915   */\n      swap3\n      swap2\n      pop\n      pop\n      jump\t// out\n        /* \"#utility.yul\":23921:24192   */\n    tag_115:\n        /* \"#utility.yul\":24051:24054   */\n      0x00\n        /* \"#utility.yul\":24073:24166   */\n      tag_440\n        /* \"#utility.yul\":24162:24165   */\n      dup3\n        /* \"#utility.yul\":24153:24159   */\n      dup5\n        /* \"#utility.yul\":24073:24166   */\n      tag_200\n      jump\t// in\n    tag_440:\n        /* \"#utility.yul\":24066:24166   */\n      swap2\n      pop\n        /* \"#utility.yul\":24183:24186   */\n      dup2\n        /* \"#utility.yul\":24176:24186   */\n      swap1\n      pop\n        /* \"#utility.yul\":23921:24192   */\n      swap3\n      swap2\n      pop\n      pop\n      jump\t// out\n        /* \"#utility.yul\":24198:24297   */\n    tag_201:\n        /* \"#utility.yul\":24250:24256   */\n      0x00\n        /* \"#utility.yul\":24284:24289   */\n      dup2\n        /* \"#utility.yul\":24278:24290   */\n      mload\n        /* \"#utility.yul\":24268:24290   */\n      swap1\n      pop\n        /* \"#utility.yul\":24198:24297   */\n      swap2\n      swap1\n      pop\n      jump\t// out\n        /* \"#utility.yul\":24303:24667   */\n    tag_202:\n        /* \"#utility.yul\":24391:24394   */\n      0x00\n        /* \"#utility.yul\":24419:24458   */\n      tag_443\n        /* \"#utility.yul\":24452:24457   */\n      dup3\n        /* \"#utility.yul\":24419:24458   */\n      tag_201\n      jump\t// in\n    tag_443:\n        /* \"#utility.yul\":24474:24545   */\n      tag_444\n        /* \"#utility.yul\":24538:24544   */\n      dup2\n        /* \"#utility.yul\":24533:24536   */\n      dup6\n        /* \"#utility.yul\":24474:24545   */\n      tag_191\n      jump\t// in\n    tag_444:\n        /* \"#utility.yul\":24467:24545   */\n      swap4\n      pop\n        /* \"#utility.yul\":24554:24606   */\n      tag_445\n        /* \"#utility.yul\":24599:24605   */\n      dup2\n        /* \"#utility.yul\":24594:24597   */\n      dup6\n        /* \"#utility.yul\":24587:24591   */\n      0x20\n        /* \"#utility.yul\":24580:24585   */\n      dup7\n        /* \"#utility.yul\":24576:24592   */\n      add\n        /* \"#utility.yul\":24554:24606   */\n      tag_183\n      jump\t// in\n    tag_445:\n        /* \"#utility.yul\":24631:24660   */\n      tag_446\n        /* \"#utility.yul\":24653:24659   */\n      dup2\n        /* \"#utility.yul\":24631:24660   */\n      tag_136\n      jump\t// in\n    tag_446:\n        /* \"#utility.yul\":24626:24629   */\n      dup5\n        /* \"#utility.yul\":24622:24661   */\n      add\n        /* \"#utility.yul\":24615:24661   */\n      swap2\n      pop\n        /* \"#utility.yul\":24395:24667   */\n      pop\n        /* \"#utility.yul\":24303:24667   */\n      swap3\n      swap2\n      pop\n      pop\n      jump\t// out\n        /* \"#utility.yul\":24673:24986   */\n    tag_128:\n        /* \"#utility.yul\":24786:24790   */\n      0x00\n        /* \"#utility.yul\":24824:24826   */\n      0x20\n        /* \"#utility.yul\":24813:24822   */\n      dup3\n        /* \"#utility.yul\":24809:24827   */\n      add\n        /* \"#utility.yul\":24801:24827   */\n      swap1\n      pop\n        /* \"#utility.yul\":24873:24882   */\n      dup2\n        /* \"#utility.yul\":24867:24871   */\n      dup2\n        /* \"#utility.yul\":24863:24883   */\n      sub\n        /* \"#utility.yul\":24859:24860   */\n      0x00\n        /* \"#utility.yul\":24848:24857   */\n      dup4\n        /* \"#utility.yul\":24844:24861   */\n      add\n        /* \"#utility.yul\":24837:24884   */\n      mstore\n        /* \"#utility.yul\":24901:24979   */\n      tag_448\n        /* \"#utility.yul\":24974:24978   */\n      dup2\n        /* \"#utility.yul\":24965:24971   */\n      dup5\n        /* \"#utility.yul\":24901:24979   */\n      tag_202\n      jump\t// in\n    tag_448:\n        /* \"#utility.yul\":24893:24979   */\n      swap1\n      pop\n        /* \"#utility.yul\":24673:24986   */\n      swap3\n      swap2\n      pop\n      pop\n      jump\t// out\n\n    auxdata: 0xa26469706673582212206c3d12ccff68fe7bbc1039aba2688793e9f718afa686c11839b47f5fb526a90264736f6c634300080d0033\n}\n",
				"bytecode": {
					"linkReferences": {},
					"object": "60a06040523480156200001157600080fd5b5060405162001825380380620018258339818101604052810190620000379190620000dc565b8073ffffffffffffffffffffffffffffffffffffffff1660808173ffffffffffffffffffffffffffffffffffffffff1681525050506200010e565b600080fd5b600073ffffffffffffffffffffffffffffffffffffffff82169050919050565b6000620000a48262000077565b9050919050565b620000b68162000097565b8114620000c257600080fd5b50565b600081519050620000d681620000ab565b92915050565b600060208284031215620000f557620000f462000072565b5b60006200010584828501620000c5565b91505092915050565b6080516116ee6200013760003960008181609e01528181610316015261037801526116ee6000f3fe608060405234801561001057600080fd5b50600436106100415760003560e01c806377aba2131461004657806381144563146100645780639cbcf4c714610080575b600080fd5b61004e61009c565b60405161005b9190610a84565b60405180910390f35b61007e60048036038101906100799190610da8565b6100c0565b005b61009a60048036038101906100959190610e04565b610148565b005b7f000000000000000000000000000000000000000000000000000000000000000081565b600082600001518360200151815181106100dd576100dc610e73565b5b602002602001015190506101143330848473ffffffffffffffffffffffffffffffffffffffff166101b2909392919063ffffffff16565b61012c8360000151838560200151866040015161023b565b610143836060015184608001518560a00151610412565b505050565b816000015182602001518151811061016357610162610e73565b5b602002602001015173ffffffffffffffffffffffffffffffffffffffff168373ffffffffffffffffffffffffffffffffffffffff16036101ac576101a782826100c0565b6101ad565b5b505050565b610235846323b872dd60e01b8585856040516024016101d393929190610eb1565b604051602081830303815290604052907bffffffffffffffffffffffffffffffffffffffffffffffffffffffff19166020820180517bffffffffffffffffffffffffffffffffffffffffffffffffffffffff838183161783525050505061052b565b50505050565b6000600190506000855167ffffffffffffffff81111561025e5761025d610ac9565b5b60405190808252806020026020018201604052801561028c5781602001602082028036833780820191505090505b509050848185815181106102a3576102a2610e73565b5b60200260200101818152505060006001905060008383836040516020016102cc93929190610fc2565b60405160208183030381529060405290506102e5610a19565b88816000018190525083816020018190525081816040018190525060008160600190151590811515815250506103767f0000000000000000000000000000000000000000000000000000000000000000898b8a8151811061034957610348610e73565b5b602002602001015173ffffffffffffffffffffffffffffffffffffffff166105f29092919063ffffffff16565b7f000000000000000000000000000000000000000000000000000000000000000073ffffffffffffffffffffffffffffffffffffffff1663b95cac28873030856040518563ffffffff1660e01b81526004016103d594939291906112a0565b600060405180830381600087803b1580156103ef57600080fd5b505af1158015610403573d6000803e3d6000fd5b50505050505050505050505050565b61041c8284610704565b8173ffffffffffffffffffffffffffffffffffffffff1663de5f62686040518163ffffffff1660e01b8152600401600060405180830381600087803b15801561046457600080fd5b505af1158015610478573d6000803e3d6000fd5b505050506000829050610525828273ffffffffffffffffffffffffffffffffffffffff166370a08231306040518263ffffffff1660e01b81526004016104be9190610a84565b602060405180830381865afa1580156104db573d6000803e3d6000fd5b505050506040513d601f19601f820116820180604052508101906104ff9190611301565b8373ffffffffffffffffffffffffffffffffffffffff166107dd9092919063ffffffff16565b50505050565b600061058d826040518060400160405280602081526020017f5361666545524332303a206c6f772d6c6576656c2063616c6c206661696c65648152508573ffffffffffffffffffffffffffffffffffffffff166108639092919063ffffffff16565b90506000815111156105ed57808060200190518101906105ad919061135a565b6105ec576040517f08c379a00000000000000000000000000000000000000000000000000000000081526004016105e39061140a565b60405180910390fd5b5b505050565b6000818473ffffffffffffffffffffffffffffffffffffffff1663dd62ed3e30866040518363ffffffff1660e01b815260040161063092919061142a565b602060405180830381865afa15801561064d573d6000803e3d6000fd5b505050506040513d601f19601f820116820180604052508101906106719190611301565b61067b9190611482565b90506106fe8463095ea7b360e01b858460405160240161069c9291906114d8565b604051602081830303815290604052907bffffffffffffffffffffffffffffffffffffffffffffffffffffffff19166020820180517bffffffffffffffffffffffffffffffffffffffffffffffffffffffff838183161783525050505061052b565b50505050565b600081905060008173ffffffffffffffffffffffffffffffffffffffff1663dd62ed3e30866040518363ffffffff1660e01b815260040161074692919061142a565b602060405180830381865afa158015610763573d6000803e3d6000fd5b505050506040513d601f19601f820116820180604052508101906107879190611301565b036107d8576107d7837fffffffffffffffffffffffffffffffffffffffffffffffffffffffffffffffff8373ffffffffffffffffffffffffffffffffffffffff166105f29092919063ffffffff16565b5b505050565b61085e8363a9059cbb60e01b84846040516024016107fc9291906114d8565b604051602081830303815290604052907bffffffffffffffffffffffffffffffffffffffffffffffffffffffff19166020820180517bffffffffffffffffffffffffffffffffffffffffffffffffffffffff838183161783525050505061052b565b505050565b6060610872848460008561087b565b90509392505050565b6060824710156108c0576040517f08c379a00000000000000000000000000000000000000000000000000000000081526004016108b790611573565b60405180910390fd5b6108c98561098f565b610908576040517f08c379a00000000000000000000000000000000000000000000000000000000081526004016108ff906115df565b60405180910390fd5b6000808673ffffffffffffffffffffffffffffffffffffffff168587604051610931919061163b565b60006040518083038185875af1925050503d806000811461096e576040519150601f19603f3d011682016040523d82523d6000602084013e610973565b606091505b50915091506109838282866109b2565b92505050949350505050565b6000808273ffffffffffffffffffffffffffffffffffffffff163b119050919050565b606083156109c257829050610a12565b6000835111156109d55782518084602001fd5b816040517f08c379a0000000000000000000000000000000000000000000000000000000008152600401610a099190611696565b60405180910390fd5b9392505050565b60405180608001604052806060815260200160608152602001606081526020016000151581525090565b600073ffffffffffffffffffffffffffffffffffffffff82169050919050565b6000610a6e82610a43565b9050919050565b610a7e81610a63565b82525050565b6000602082019050610a996000830184610a75565b92915050565b6000604051905090565b600080fd5b600080fd5b600080fd5b6000601f19601f8301169050919050565b7f4e487b7100000000000000000000000000000000000000000000000000000000600052604160045260246000fd5b610b0182610ab8565b810181811067ffffffffffffffff82111715610b2057610b1f610ac9565b5b80604052505050565b6000610b33610a9f565b9050610b3f8282610af8565b919050565b600080fd5b600080fd5b600067ffffffffffffffff821115610b6957610b68610ac9565b5b602082029050602081019050919050565b600080fd5b6000610b8a82610a63565b9050919050565b610b9a81610b7f565b8114610ba557600080fd5b50565b600081359050610bb781610b91565b92915050565b6000610bd0610bcb84610b4e565b610b29565b90508083825260208201905060208402830185811115610bf357610bf2610b7a565b5b835b81811015610c1c5780610c088882610ba8565b845260208401935050602081019050610bf5565b5050509392505050565b600082601f830112610c3b57610c3a610b49565b5b8135610c4b848260208601610bbd565b91505092915050565b6000819050919050565b610c6781610c54565b8114610c7257600080fd5b50565b600081359050610c8481610c5e565b92915050565b6000819050919050565b610c9d81610c8a565b8114610ca857600080fd5b50565b600081359050610cba81610c94565b92915050565b610cc981610a63565b8114610cd457600080fd5b50565b600081359050610ce681610cc0565b92915050565b600060c08284031215610d0257610d01610ab3565b5b610d0c60c0610b29565b9050600082013567ffffffffffffffff811115610d2c57610d2b610b44565b5b610d3884828501610c26565b6000830152506020610d4c84828501610c75565b6020830152506040610d6084828501610cab565b6040830152506060610d7484828501610cd7565b6060830152506080610d8884828501610cd7565b60808301525060a0610d9c84828501610cd7565b60a08301525092915050565b60008060408385031215610dbf57610dbe610aa9565b5b600083013567ffffffffffffffff811115610ddd57610ddc610aae565b5b610de985828601610cec565b9250506020610dfa85828601610c75565b9150509250929050565b600080600060608486031215610e1d57610e1c610aa9565b5b6000610e2b86828701610cd7565b935050602084013567ffffffffffffffff811115610e4c57610e4b610aae565b5b610e5886828701610cec565b9250506040610e6986828701610c75565b9150509250925092565b7f4e487b7100000000000000000000000000000000000000000000000000000000600052603260045260246000fd5b610eab81610c54565b82525050565b6000606082019050610ec66000830186610a75565b610ed36020830185610a75565b610ee06040830184610ea2565b949350505050565b600060ff82169050919050565b610efe81610ee8565b82525050565b600081519050919050565b600082825260208201905092915050565b6000819050602082019050919050565b610f3981610c54565b82525050565b6000610f4b8383610f30565b60208301905092915050565b6000602082019050919050565b6000610f6f82610f04565b610f798185610f0f565b9350610f8483610f20565b8060005b83811015610fb5578151610f9c8882610f3f565b9750610fa783610f57565b925050600181019050610f88565b5085935050505092915050565b6000606082019050610fd76000830186610ef5565b8181036020830152610fe98185610f64565b9050610ff86040830184610ea2565b949350505050565b61100981610c8a565b82525050565b600081519050919050565b600082825260208201905092915050565b6000819050602082019050919050565b6000819050919050565b600061106061105b61105684610a43565b61103b565b610a43565b9050919050565b600061107282611045565b9050919050565b600061108482611067565b9050919050565b61109481611079565b82525050565b60006110a6838361108b565b60208301905092915050565b6000602082019050919050565b60006110ca8261100f565b6110d4818561101a565b93506110df8361102b565b8060005b838110156111105781516110f7888261109a565b9750611102836110b2565b9250506001810190506110e3565b5085935050505092915050565b600082825260208201905092915050565b600061113982610f04565b611143818561111d565b935061114e83610f20565b8060005b8381101561117f5781516111668882610f3f565b975061117183610f57565b925050600181019050611152565b5085935050505092915050565b600081519050919050565b600082825260208201905092915050565b60005b838110156111c65780820151818401526020810190506111ab565b838111156111d5576000848401525b50505050565b60006111e68261118c565b6111f08185611197565b93506112008185602086016111a8565b61120981610ab8565b840191505092915050565b60008115159050919050565b61122981611214565b82525050565b6000608083016000830151848203600086015261124c82826110bf565b91505060208301518482036020860152611266828261112e565b9150506040830151848203604086015261128082826111db565b91505060608301516112956060860182611220565b508091505092915050565b60006080820190506112b56000830187611000565b6112c26020830186610a75565b6112cf6040830185610a75565b81810360608301526112e1818461122f565b905095945050505050565b6000815190506112fb81610c5e565b92915050565b60006020828403121561131757611316610aa9565b5b6000611325848285016112ec565b91505092915050565b61133781611214565b811461134257600080fd5b50565b6000815190506113548161132e565b92915050565b6000602082840312156113705761136f610aa9565b5b600061137e84828501611345565b91505092915050565b600082825260208201905092915050565b7f5361666545524332303a204552433230206f7065726174696f6e20646964206e60008201527f6f74207375636365656400000000000000000000000000000000000000000000602082015250565b60006113f4602a83611387565b91506113ff82611398565b604082019050919050565b60006020820190508181036000830152611423816113e7565b9050919050565b600060408201905061143f6000830185610a75565b61144c6020830184610a75565b9392505050565b7f4e487b7100000000000000000000000000000000000000000000000000000000600052601160045260246000fd5b600061148d82610c54565b915061149883610c54565b9250827fffffffffffffffffffffffffffffffffffffffffffffffffffffffffffffffff038211156114cd576114cc611453565b5b828201905092915050565b60006040820190506114ed6000830185610a75565b6114fa6020830184610ea2565b9392505050565b7f416464726573733a20696e73756666696369656e742062616c616e636520666f60008201527f722063616c6c0000000000000000000000000000000000000000000000000000602082015250565b600061155d602683611387565b915061156882611501565b604082019050919050565b6000602082019050818103600083015261158c81611550565b9050919050565b7f416464726573733a2063616c6c20746f206e6f6e2d636f6e7472616374000000600082015250565b60006115c9601d83611387565b91506115d482611593565b602082019050919050565b600060208201905081810360008301526115f8816115bc565b9050919050565b600081905092915050565b60006116158261118c565b61161f81856115ff565b935061162f8185602086016111a8565b80840191505092915050565b6000611647828461160a565b915081905092915050565b600081519050919050565b600061166882611652565b6116728185611387565b93506116828185602086016111a8565b61168b81610ab8565b840191505092915050565b600060208201905081810360008301526116b0818461165d565b90509291505056fea26469706673582212206c3d12ccff68fe7bbc1039aba2688793e9f718afa686c11839b47f5fb526a90264736f6c634300080d0033",
					"opcodes": "PUSH1 0xA0 PUSH1 0x40 MSTORE CALLVALUE DUP1 ISZERO PUSH3 0x11 JUMPI PUSH1 0x0 DUP1 REVERT JUMPDEST POP PUSH1 0x40 MLOAD PUSH3 0x1825 CODESIZE SUB DUP1 PUSH3 0x1825 DUP4 CODECOPY DUP2 DUP2 ADD PUSH1 0x40 MSTORE DUP2 ADD SWAP1 PUSH3 0x37 SWAP2 SWAP1 PUSH3 0xDC JUMP JUMPDEST DUP1 PUSH20 0xFFFFFFFFFFFFFFFFFFFFFFFFFFFFFFFFFFFFFFFF AND PUSH1 0x80 DUP2 PUSH20 0xFFFFFFFFFFFFFFFFFFFFFFFFFFFFFFFFFFFFFFFF AND DUP2 MSTORE POP POP POP PUSH3 0x10E JUMP JUMPDEST PUSH1 0x0 DUP1 REVERT JUMPDEST PUSH1 0x0 PUSH20 0xFFFFFFFFFFFFFFFFFFFFFFFFFFFFFFFFFFFFFFFF DUP3 AND SWAP1 POP SWAP2 SWAP1 POP JUMP JUMPDEST PUSH1 0x0 PUSH3 0xA4 DUP3 PUSH3 0x77 JUMP JUMPDEST SWAP1 POP SWAP2 SWAP1 POP JUMP JUMPDEST PUSH3 0xB6 DUP2 PUSH3 0x97 JUMP JUMPDEST DUP2 EQ PUSH3 0xC2 JUMPI PUSH1 0x0 DUP1 REVERT JUMPDEST POP JUMP JUMPDEST PUSH1 0x0 DUP2 MLOAD SWAP1 POP PUSH3 0xD6 DUP2 PUSH3 0xAB JUMP JUMPDEST SWAP3 SWAP2 POP POP JUMP JUMPDEST PUSH1 0x0 PUSH1 0x20 DUP3 DUP5 SUB SLT ISZERO PUSH3 0xF5 JUMPI PUSH3 0xF4 PUSH3 0x72 JUMP JUMPDEST JUMPDEST PUSH1 0x0 PUSH3 0x105 DUP5 DUP3 DUP6 ADD PUSH3 0xC5 JUMP JUMPDEST SWAP2 POP POP SWAP3 SWAP2 POP POP JUMP JUMPDEST PUSH1 0x80 MLOAD PUSH2 0x16EE PUSH3 0x137 PUSH1 0x0 CODECOPY PUSH1 0x0 DUP2 DUP2 PUSH1 0x9E ADD MSTORE DUP2 DUP2 PUSH2 0x316 ADD MSTORE PUSH2 0x378 ADD MSTORE PUSH2 0x16EE PUSH1 0x0 RETURN INVALID PUSH1 0x80 PUSH1 0x40 MSTORE CALLVALUE DUP1 ISZERO PUSH2 0x10 JUMPI PUSH1 0x0 DUP1 REVERT JUMPDEST POP PUSH1 0x4 CALLDATASIZE LT PUSH2 0x41 JUMPI PUSH1 0x0 CALLDATALOAD PUSH1 0xE0 SHR DUP1 PUSH4 0x77ABA213 EQ PUSH2 0x46 JUMPI DUP1 PUSH4 0x81144563 EQ PUSH2 0x64 JUMPI DUP1 PUSH4 0x9CBCF4C7 EQ PUSH2 0x80 JUMPI JUMPDEST PUSH1 0x0 DUP1 REVERT JUMPDEST PUSH2 0x4E PUSH2 0x9C JUMP JUMPDEST PUSH1 0x40 MLOAD PUSH2 0x5B SWAP2 SWAP1 PUSH2 0xA84 JUMP JUMPDEST PUSH1 0x40 MLOAD DUP1 SWAP2 SUB SWAP1 RETURN JUMPDEST PUSH2 0x7E PUSH1 0x4 DUP1 CALLDATASIZE SUB DUP2 ADD SWAP1 PUSH2 0x79 SWAP2 SWAP1 PUSH2 0xDA8 JUMP JUMPDEST PUSH2 0xC0 JUMP JUMPDEST STOP JUMPDEST PUSH2 0x9A PUSH1 0x4 DUP1 CALLDATASIZE SUB DUP2 ADD SWAP1 PUSH2 0x95 SWAP2 SWAP1 PUSH2 0xE04 JUMP JUMPDEST PUSH2 0x148 JUMP JUMPDEST STOP JUMPDEST PUSH32 0x0 DUP2 JUMP JUMPDEST PUSH1 0x0 DUP3 PUSH1 0x0 ADD MLOAD DUP4 PUSH1 0x20 ADD MLOAD DUP2 MLOAD DUP2 LT PUSH2 0xDD JUMPI PUSH2 0xDC PUSH2 0xE73 JUMP JUMPDEST JUMPDEST PUSH1 0x20 MUL PUSH1 0x20 ADD ADD MLOAD SWAP1 POP PUSH2 0x114 CALLER ADDRESS DUP5 DUP5 PUSH20 0xFFFFFFFFFFFFFFFFFFFFFFFFFFFFFFFFFFFFFFFF AND PUSH2 0x1B2 SWAP1 SWAP4 SWAP3 SWAP2 SWAP1 PUSH4 0xFFFFFFFF AND JUMP JUMPDEST PUSH2 0x12C DUP4 PUSH1 0x0 ADD MLOAD DUP4 DUP6 PUSH1 0x20 ADD MLOAD DUP7 PUSH1 0x40 ADD MLOAD PUSH2 0x23B JUMP JUMPDEST PUSH2 0x143 DUP4 PUSH1 0x60 ADD MLOAD DUP5 PUSH1 0x80 ADD MLOAD DUP6 PUSH1 0xA0 ADD MLOAD PUSH2 0x412 JUMP JUMPDEST POP POP POP JUMP JUMPDEST DUP2 PUSH1 0x0 ADD MLOAD DUP3 PUSH1 0x20 ADD MLOAD DUP2 MLOAD DUP2 LT PUSH2 0x163 JUMPI PUSH2 0x162 PUSH2 0xE73 JUMP JUMPDEST JUMPDEST PUSH1 0x20 MUL PUSH1 0x20 ADD ADD MLOAD PUSH20 0xFFFFFFFFFFFFFFFFFFFFFFFFFFFFFFFFFFFFFFFF AND DUP4 PUSH20 0xFFFFFFFFFFFFFFFFFFFFFFFFFFFFFFFFFFFFFFFF AND SUB PUSH2 0x1AC JUMPI PUSH2 0x1A7 DUP3 DUP3 PUSH2 0xC0 JUMP JUMPDEST PUSH2 0x1AD JUMP JUMPDEST JUMPDEST POP POP POP JUMP JUMPDEST PUSH2 0x235 DUP5 PUSH4 0x23B872DD PUSH1 0xE0 SHL DUP6 DUP6 DUP6 PUSH1 0x40 MLOAD PUSH1 0x24 ADD PUSH2 0x1D3 SWAP4 SWAP3 SWAP2 SWAP1 PUSH2 0xEB1 JUMP JUMPDEST PUSH1 0x40 MLOAD PUSH1 0x20 DUP2 DUP4 SUB SUB DUP2 MSTORE SWAP1 PUSH1 0x40 MSTORE SWAP1 PUSH28 0xFFFFFFFFFFFFFFFFFFFFFFFFFFFFFFFFFFFFFFFFFFFFFFFFFFFFFFFF NOT AND PUSH1 0x20 DUP3 ADD DUP1 MLOAD PUSH28 0xFFFFFFFFFFFFFFFFFFFFFFFFFFFFFFFFFFFFFFFFFFFFFFFFFFFFFFFF DUP4 DUP2 DUP4 AND OR DUP4 MSTORE POP POP POP POP PUSH2 0x52B JUMP JUMPDEST POP POP POP POP JUMP JUMPDEST PUSH1 0x0 PUSH1 0x1 SWAP1 POP PUSH1 0x0 DUP6 MLOAD PUSH8 0xFFFFFFFFFFFFFFFF DUP2 GT ISZERO PUSH2 0x25E JUMPI PUSH2 0x25D PUSH2 0xAC9 JUMP JUMPDEST JUMPDEST PUSH1 0x40 MLOAD SWAP1 DUP1 DUP3 MSTORE DUP1 PUSH1 0x20 MUL PUSH1 0x20 ADD DUP3 ADD PUSH1 0x40 MSTORE DUP1 ISZERO PUSH2 0x28C JUMPI DUP2 PUSH1 0x20 ADD PUSH1 0x20 DUP3 MUL DUP1 CALLDATASIZE DUP4 CALLDATACOPY DUP1 DUP3 ADD SWAP2 POP POP SWAP1 POP JUMPDEST POP SWAP1 POP DUP5 DUP2 DUP6 DUP2 MLOAD DUP2 LT PUSH2 0x2A3 JUMPI PUSH2 0x2A2 PUSH2 0xE73 JUMP JUMPDEST JUMPDEST PUSH1 0x20 MUL PUSH1 0x20 ADD ADD DUP2 DUP2 MSTORE POP POP PUSH1 0x0 PUSH1 0x1 SWAP1 POP PUSH1 0x0 DUP4 DUP4 DUP4 PUSH1 0x40 MLOAD PUSH1 0x20 ADD PUSH2 0x2CC SWAP4 SWAP3 SWAP2 SWAP1 PUSH2 0xFC2 JUMP JUMPDEST PUSH1 0x40 MLOAD PUSH1 0x20 DUP2 DUP4 SUB SUB DUP2 MSTORE SWAP1 PUSH1 0x40 MSTORE SWAP1 POP PUSH2 0x2E5 PUSH2 0xA19 JUMP JUMPDEST DUP9 DUP2 PUSH1 0x0 ADD DUP2 SWAP1 MSTORE POP DUP4 DUP2 PUSH1 0x20 ADD DUP2 SWAP1 MSTORE POP DUP2 DUP2 PUSH1 0x40 ADD DUP2 SWAP1 MSTORE POP PUSH1 0x0 DUP2 PUSH1 0x60 ADD SWAP1 ISZERO ISZERO SWAP1 DUP2 ISZERO ISZERO DUP2 MSTORE POP POP PUSH2 0x376 PUSH32 0x0 DUP10 DUP12 DUP11 DUP2 MLOAD DUP2 LT PUSH2 0x349 JUMPI PUSH2 0x348 PUSH2 0xE73 JUMP JUMPDEST JUMPDEST PUSH1 0x20 MUL PUSH1 0x20 ADD ADD MLOAD PUSH20 0xFFFFFFFFFFFFFFFFFFFFFFFFFFFFFFFFFFFFFFFF AND PUSH2 0x5F2 SWAP1 SWAP3 SWAP2 SWAP1 PUSH4 0xFFFFFFFF AND JUMP JUMPDEST PUSH32 0x0 PUSH20 0xFFFFFFFFFFFFFFFFFFFFFFFFFFFFFFFFFFFFFFFF AND PUSH4 0xB95CAC28 DUP8 ADDRESS ADDRESS DUP6 PUSH1 0x40 MLOAD DUP6 PUSH4 0xFFFFFFFF AND PUSH1 0xE0 SHL DUP2 MSTORE PUSH1 0x4 ADD PUSH2 0x3D5 SWAP5 SWAP4 SWAP3 SWAP2 SWAP1 PUSH2 0x12A0 JUMP JUMPDEST PUSH1 0x0 PUSH1 0x40 MLOAD DUP1 DUP4 SUB DUP2 PUSH1 0x0 DUP8 DUP1 EXTCODESIZE ISZERO DUP1 ISZERO PUSH2 0x3EF JUMPI PUSH1 0x0 DUP1 REVERT JUMPDEST POP GAS CALL ISZERO DUP1 ISZERO PUSH2 0x403 JUMPI RETURNDATASIZE PUSH1 0x0 DUP1 RETURNDATACOPY RETURNDATASIZE PUSH1 0x0 REVERT JUMPDEST POP POP POP POP POP POP POP POP POP POP POP POP POP JUMP JUMPDEST PUSH2 0x41C DUP3 DUP5 PUSH2 0x704 JUMP JUMPDEST DUP2 PUSH20 0xFFFFFFFFFFFFFFFFFFFFFFFFFFFFFFFFFFFFFFFF AND PUSH4 0xDE5F6268 PUSH1 0x40 MLOAD DUP2 PUSH4 0xFFFFFFFF AND PUSH1 0xE0 SHL DUP2 MSTORE PUSH1 0x4 ADD PUSH1 0x0 PUSH1 0x40 MLOAD DUP1 DUP4 SUB DUP2 PUSH1 0x0 DUP8 DUP1 EXTCODESIZE ISZERO DUP1 ISZERO PUSH2 0x464 JUMPI PUSH1 0x0 DUP1 REVERT JUMPDEST POP GAS CALL ISZERO DUP1 ISZERO PUSH2 0x478 JUMPI RETURNDATASIZE PUSH1 0x0 DUP1 RETURNDATACOPY RETURNDATASIZE PUSH1 0x0 REVERT JUMPDEST POP POP POP POP PUSH1 0x0 DUP3 SWAP1 POP PUSH2 0x525 DUP3 DUP3 PUSH20 0xFFFFFFFFFFFFFFFFFFFFFFFFFFFFFFFFFFFFFFFF AND PUSH4 0x70A08231 ADDRESS PUSH1 0x40 MLOAD DUP3 PUSH4 0xFFFFFFFF AND PUSH1 0xE0 SHL DUP2 MSTORE PUSH1 0x4 ADD PUSH2 0x4BE SWAP2 SWAP1 PUSH2 0xA84 JUMP JUMPDEST PUSH1 0x20 PUSH1 0x40 MLOAD DUP1 DUP4 SUB DUP2 DUP7 GAS STATICCALL ISZERO DUP1 ISZERO PUSH2 0x4DB JUMPI RETURNDATASIZE PUSH1 0x0 DUP1 RETURNDATACOPY RETURNDATASIZE PUSH1 0x0 REVERT JUMPDEST POP POP POP POP PUSH1 0x40 MLOAD RETURNDATASIZE PUSH1 0x1F NOT PUSH1 0x1F DUP3 ADD AND DUP3 ADD DUP1 PUSH1 0x40 MSTORE POP DUP2 ADD SWAP1 PUSH2 0x4FF SWAP2 SWAP1 PUSH2 0x1301 JUMP JUMPDEST DUP4 PUSH20 0xFFFFFFFFFFFFFFFFFFFFFFFFFFFFFFFFFFFFFFFF AND PUSH2 0x7DD SWAP1 SWAP3 SWAP2 SWAP1 PUSH4 0xFFFFFFFF AND JUMP JUMPDEST POP POP POP POP JUMP JUMPDEST PUSH1 0x0 PUSH2 0x58D DUP3 PUSH1 0x40 MLOAD DUP1 PUSH1 0x40 ADD PUSH1 0x40 MSTORE DUP1 PUSH1 0x20 DUP2 MSTORE PUSH1 0x20 ADD PUSH32 0x5361666545524332303A206C6F772D6C6576656C2063616C6C206661696C6564 DUP2 MSTORE POP DUP6 PUSH20 0xFFFFFFFFFFFFFFFFFFFFFFFFFFFFFFFFFFFFFFFF AND PUSH2 0x863 SWAP1 SWAP3 SWAP2 SWAP1 PUSH4 0xFFFFFFFF AND JUMP JUMPDEST SWAP1 POP PUSH1 0x0 DUP2 MLOAD GT ISZERO PUSH2 0x5ED JUMPI DUP1 DUP1 PUSH1 0x20 ADD SWAP1 MLOAD DUP2 ADD SWAP1 PUSH2 0x5AD SWAP2 SWAP1 PUSH2 0x135A JUMP JUMPDEST PUSH2 0x5EC JUMPI PUSH1 0x40 MLOAD PUSH32 0x8C379A000000000000000000000000000000000000000000000000000000000 DUP2 MSTORE PUSH1 0x4 ADD PUSH2 0x5E3 SWAP1 PUSH2 0x140A JUMP JUMPDEST PUSH1 0x40 MLOAD DUP1 SWAP2 SUB SWAP1 REVERT JUMPDEST JUMPDEST POP POP POP JUMP JUMPDEST PUSH1 0x0 DUP2 DUP5 PUSH20 0xFFFFFFFFFFFFFFFFFFFFFFFFFFFFFFFFFFFFFFFF AND PUSH4 0xDD62ED3E ADDRESS DUP7 PUSH1 0x40 MLOAD DUP4 PUSH4 0xFFFFFFFF AND PUSH1 0xE0 SHL DUP2 MSTORE PUSH1 0x4 ADD PUSH2 0x630 SWAP3 SWAP2 SWAP1 PUSH2 0x142A JUMP JUMPDEST PUSH1 0x20 PUSH1 0x40 MLOAD DUP1 DUP4 SUB DUP2 DUP7 GAS STATICCALL ISZERO DUP1 ISZERO PUSH2 0x64D JUMPI RETURNDATASIZE PUSH1 0x0 DUP1 RETURNDATACOPY RETURNDATASIZE PUSH1 0x0 REVERT JUMPDEST POP POP POP POP PUSH1 0x40 MLOAD RETURNDATASIZE PUSH1 0x1F NOT PUSH1 0x1F DUP3 ADD AND DUP3 ADD DUP1 PUSH1 0x40 MSTORE POP DUP2 ADD SWAP1 PUSH2 0x671 SWAP2 SWAP1 PUSH2 0x1301 JUMP JUMPDEST PUSH2 0x67B SWAP2 SWAP1 PUSH2 0x1482 JUMP JUMPDEST SWAP1 POP PUSH2 0x6FE DUP5 PUSH4 0x95EA7B3 PUSH1 0xE0 SHL DUP6 DUP5 PUSH1 0x40 MLOAD PUSH1 0x24 ADD PUSH2 0x69C SWAP3 SWAP2 SWAP1 PUSH2 0x14D8 JUMP JUMPDEST PUSH1 0x40 MLOAD PUSH1 0x20 DUP2 DUP4 SUB SUB DUP2 MSTORE SWAP1 PUSH1 0x40 MSTORE SWAP1 PUSH28 0xFFFFFFFFFFFFFFFFFFFFFFFFFFFFFFFFFFFFFFFFFFFFFFFFFFFFFFFF NOT AND PUSH1 0x20 DUP3 ADD DUP1 MLOAD PUSH28 0xFFFFFFFFFFFFFFFFFFFFFFFFFFFFFFFFFFFFFFFFFFFFFFFFFFFFFFFF DUP4 DUP2 DUP4 AND OR DUP4 MSTORE POP POP POP POP PUSH2 0x52B JUMP JUMPDEST POP POP POP POP JUMP JUMPDEST PUSH1 0x0 DUP2 SWAP1 POP PUSH1 0x0 DUP2 PUSH20 0xFFFFFFFFFFFFFFFFFFFFFFFFFFFFFFFFFFFFFFFF AND PUSH4 0xDD62ED3E ADDRESS DUP7 PUSH1 0x40 MLOAD DUP4 PUSH4 0xFFFFFFFF AND PUSH1 0xE0 SHL DUP2 MSTORE PUSH1 0x4 ADD PUSH2 0x746 SWAP3 SWAP2 SWAP1 PUSH2 0x142A JUMP JUMPDEST PUSH1 0x20 PUSH1 0x40 MLOAD DUP1 DUP4 SUB DUP2 DUP7 GAS STATICCALL ISZERO DUP1 ISZERO PUSH2 0x763 JUMPI RETURNDATASIZE PUSH1 0x0 DUP1 RETURNDATACOPY RETURNDATASIZE PUSH1 0x0 REVERT JUMPDEST POP POP POP POP PUSH1 0x40 MLOAD RETURNDATASIZE PUSH1 0x1F NOT PUSH1 0x1F DUP3 ADD AND DUP3 ADD DUP1 PUSH1 0x40 MSTORE POP DUP2 ADD SWAP1 PUSH2 0x787 SWAP2 SWAP1 PUSH2 0x1301 JUMP JUMPDEST SUB PUSH2 0x7D8 JUMPI PUSH2 0x7D7 DUP4 PUSH32 0xFFFFFFFFFFFFFFFFFFFFFFFFFFFFFFFFFFFFFFFFFFFFFFFFFFFFFFFFFFFFFFFF DUP4 PUSH20 0xFFFFFFFFFFFFFFFFFFFFFFFFFFFFFFFFFFFFFFFF AND PUSH2 0x5F2 SWAP1 SWAP3 SWAP2 SWAP1 PUSH4 0xFFFFFFFF AND JUMP JUMPDEST JUMPDEST POP POP POP JUMP JUMPDEST PUSH2 0x85E DUP4 PUSH4 0xA9059CBB PUSH1 0xE0 SHL DUP5 DUP5 PUSH1 0x40 MLOAD PUSH1 0x24 ADD PUSH2 0x7FC SWAP3 SWAP2 SWAP1 PUSH2 0x14D8 JUMP JUMPDEST PUSH1 0x40 MLOAD PUSH1 0x20 DUP2 DUP4 SUB SUB DUP2 MSTORE SWAP1 PUSH1 0x40 MSTORE SWAP1 PUSH28 0xFFFFFFFFFFFFFFFFFFFFFFFFFFFFFFFFFFFFFFFFFFFFFFFFFFFFFFFF NOT AND PUSH1 0x20 DUP3 ADD DUP1 MLOAD PUSH28 0xFFFFFFFFFFFFFFFFFFFFFFFFFFFFFFFFFFFFFFFFFFFFFFFFFFFFFFFF DUP4 DUP2 DUP4 AND OR DUP4 MSTORE POP POP POP POP PUSH2 0x52B JUMP JUMPDEST POP POP POP JUMP JUMPDEST PUSH1 0x60 PUSH2 0x872 DUP5 DUP5 PUSH1 0x0 DUP6 PUSH2 0x87B JUMP JUMPDEST SWAP1 POP SWAP4 SWAP3 POP POP POP JUMP JUMPDEST PUSH1 0x60 DUP3 SELFBALANCE LT ISZERO PUSH2 0x8C0 JUMPI PUSH1 0x40 MLOAD PUSH32 0x8C379A000000000000000000000000000000000000000000000000000000000 DUP2 MSTORE PUSH1 0x4 ADD PUSH2 0x8B7 SWAP1 PUSH2 0x1573 JUMP JUMPDEST PUSH1 0x40 MLOAD DUP1 SWAP2 SUB SWAP1 REVERT JUMPDEST PUSH2 0x8C9 DUP6 PUSH2 0x98F JUMP JUMPDEST PUSH2 0x908 JUMPI PUSH1 0x40 MLOAD PUSH32 0x8C379A000000000000000000000000000000000000000000000000000000000 DUP2 MSTORE PUSH1 0x4 ADD PUSH2 0x8FF SWAP1 PUSH2 0x15DF JUMP JUMPDEST PUSH1 0x40 MLOAD DUP1 SWAP2 SUB SWAP1 REVERT JUMPDEST PUSH1 0x0 DUP1 DUP7 PUSH20 0xFFFFFFFFFFFFFFFFFFFFFFFFFFFFFFFFFFFFFFFF AND DUP6 DUP8 PUSH1 0x40 MLOAD PUSH2 0x931 SWAP2 SWAP1 PUSH2 0x163B JUMP JUMPDEST PUSH1 0x0 PUSH1 0x40 MLOAD DUP1 DUP4 SUB DUP2 DUP6 DUP8 GAS CALL SWAP3 POP POP POP RETURNDATASIZE DUP1 PUSH1 0x0 DUP2 EQ PUSH2 0x96E JUMPI PUSH1 0x40 MLOAD SWAP2 POP PUSH1 0x1F NOT PUSH1 0x3F RETURNDATASIZE ADD AND DUP3 ADD PUSH1 0x40 MSTORE RETURNDATASIZE DUP3 MSTORE RETURNDATASIZE PUSH1 0x0 PUSH1 0x20 DUP5 ADD RETURNDATACOPY PUSH2 0x973 JUMP JUMPDEST PUSH1 0x60 SWAP2 POP JUMPDEST POP SWAP2 POP SWAP2 POP PUSH2 0x983 DUP3 DUP3 DUP7 PUSH2 0x9B2 JUMP JUMPDEST SWAP3 POP POP POP SWAP5 SWAP4 POP POP POP POP JUMP JUMPDEST PUSH1 0x0 DUP1 DUP3 PUSH20 0xFFFFFFFFFFFFFFFFFFFFFFFFFFFFFFFFFFFFFFFF AND EXTCODESIZE GT SWAP1 POP SWAP2 SWAP1 POP JUMP JUMPDEST PUSH1 0x60 DUP4 ISZERO PUSH2 0x9C2 JUMPI DUP3 SWAP1 POP PUSH2 0xA12 JUMP JUMPDEST PUSH1 0x0 DUP4 MLOAD GT ISZERO PUSH2 0x9D5 JUMPI DUP3 MLOAD DUP1 DUP5 PUSH1 0x20 ADD REVERT JUMPDEST DUP2 PUSH1 0x40 MLOAD PUSH32 0x8C379A000000000000000000000000000000000000000000000000000000000 DUP2 MSTORE PUSH1 0x4 ADD PUSH2 0xA09 SWAP2 SWAP1 PUSH2 0x1696 JUMP JUMPDEST PUSH1 0x40 MLOAD DUP1 SWAP2 SUB SWAP1 REVERT JUMPDEST SWAP4 SWAP3 POP POP POP JUMP JUMPDEST PUSH1 0x40 MLOAD DUP1 PUSH1 0x80 ADD PUSH1 0x40 MSTORE DUP1 PUSH1 0x60 DUP2 MSTORE PUSH1 0x20 ADD PUSH1 0x60 DUP2 MSTORE PUSH1 0x20 ADD PUSH1 0x60 DUP2 MSTORE PUSH1 0x20 ADD PUSH1 0x0 ISZERO ISZERO DUP2 MSTORE POP SWAP1 JUMP JUMPDEST PUSH1 0x0 PUSH20 0xFFFFFFFFFFFFFFFFFFFFFFFFFFFFFFFFFFFFFFFF DUP3 AND SWAP1 POP SWAP2 SWAP1 POP JUMP JUMPDEST PUSH1 0x0 PUSH2 0xA6E DUP3 PUSH2 0xA43 JUMP JUMPDEST SWAP1 POP SWAP2 SWAP1 POP JUMP JUMPDEST PUSH2 0xA7E DUP2 PUSH2 0xA63 JUMP JUMPDEST DUP3 MSTORE POP POP JUMP JUMPDEST PUSH1 0x0 PUSH1 0x20 DUP3 ADD SWAP1 POP PUSH2 0xA99 PUSH1 0x0 DUP4 ADD DUP5 PUSH2 0xA75 JUMP JUMPDEST SWAP3 SWAP2 POP POP JUMP JUMPDEST PUSH1 0x0 PUSH1 0x40 MLOAD SWAP1 POP SWAP1 JUMP JUMPDEST PUSH1 0x0 DUP1 REVERT JUMPDEST PUSH1 0x0 DUP1 REVERT JUMPDEST PUSH1 0x0 DUP1 REVERT JUMPDEST PUSH1 0x0 PUSH1 0x1F NOT PUSH1 0x1F DUP4 ADD AND SWAP1 POP SWAP2 SWAP1 POP JUMP JUMPDEST PUSH32 0x4E487B7100000000000000000000000000000000000000000000000000000000 PUSH1 0x0 MSTORE PUSH1 0x41 PUSH1 0x4 MSTORE PUSH1 0x24 PUSH1 0x0 REVERT JUMPDEST PUSH2 0xB01 DUP3 PUSH2 0xAB8 JUMP JUMPDEST DUP2 ADD DUP2 DUP2 LT PUSH8 0xFFFFFFFFFFFFFFFF DUP3 GT OR ISZERO PUSH2 0xB20 JUMPI PUSH2 0xB1F PUSH2 0xAC9 JUMP JUMPDEST JUMPDEST DUP1 PUSH1 0x40 MSTORE POP POP POP JUMP JUMPDEST PUSH1 0x0 PUSH2 0xB33 PUSH2 0xA9F JUMP JUMPDEST SWAP1 POP PUSH2 0xB3F DUP3 DUP3 PUSH2 0xAF8 JUMP JUMPDEST SWAP2 SWAP1 POP JUMP JUMPDEST PUSH1 0x0 DUP1 REVERT JUMPDEST PUSH1 0x0 DUP1 REVERT JUMPDEST PUSH1 0x0 PUSH8 0xFFFFFFFFFFFFFFFF DUP3 GT ISZERO PUSH2 0xB69 JUMPI PUSH2 0xB68 PUSH2 0xAC9 JUMP JUMPDEST JUMPDEST PUSH1 0x20 DUP3 MUL SWAP1 POP PUSH1 0x20 DUP2 ADD SWAP1 POP SWAP2 SWAP1 POP JUMP JUMPDEST PUSH1 0x0 DUP1 REVERT JUMPDEST PUSH1 0x0 PUSH2 0xB8A DUP3 PUSH2 0xA63 JUMP JUMPDEST SWAP1 POP SWAP2 SWAP1 POP JUMP JUMPDEST PUSH2 0xB9A DUP2 PUSH2 0xB7F JUMP JUMPDEST DUP2 EQ PUSH2 0xBA5 JUMPI PUSH1 0x0 DUP1 REVERT JUMPDEST POP JUMP JUMPDEST PUSH1 0x0 DUP2 CALLDATALOAD SWAP1 POP PUSH2 0xBB7 DUP2 PUSH2 0xB91 JUMP JUMPDEST SWAP3 SWAP2 POP POP JUMP JUMPDEST PUSH1 0x0 PUSH2 0xBD0 PUSH2 0xBCB DUP5 PUSH2 0xB4E JUMP JUMPDEST PUSH2 0xB29 JUMP JUMPDEST SWAP1 POP DUP1 DUP4 DUP3 MSTORE PUSH1 0x20 DUP3 ADD SWAP1 POP PUSH1 0x20 DUP5 MUL DUP4 ADD DUP6 DUP2 GT ISZERO PUSH2 0xBF3 JUMPI PUSH2 0xBF2 PUSH2 0xB7A JUMP JUMPDEST JUMPDEST DUP4 JUMPDEST DUP2 DUP2 LT ISZERO PUSH2 0xC1C JUMPI DUP1 PUSH2 0xC08 DUP9 DUP3 PUSH2 0xBA8 JUMP JUMPDEST DUP5 MSTORE PUSH1 0x20 DUP5 ADD SWAP4 POP POP PUSH1 0x20 DUP2 ADD SWAP1 POP PUSH2 0xBF5 JUMP JUMPDEST POP POP POP SWAP4 SWAP3 POP POP POP JUMP JUMPDEST PUSH1 0x0 DUP3 PUSH1 0x1F DUP4 ADD SLT PUSH2 0xC3B JUMPI PUSH2 0xC3A PUSH2 0xB49 JUMP JUMPDEST JUMPDEST DUP2 CALLDATALOAD PUSH2 0xC4B DUP5 DUP3 PUSH1 0x20 DUP7 ADD PUSH2 0xBBD JUMP JUMPDEST SWAP2 POP POP SWAP3 SWAP2 POP POP JUMP JUMPDEST PUSH1 0x0 DUP2 SWAP1 POP SWAP2 SWAP1 POP JUMP JUMPDEST PUSH2 0xC67 DUP2 PUSH2 0xC54 JUMP JUMPDEST DUP2 EQ PUSH2 0xC72 JUMPI PUSH1 0x0 DUP1 REVERT JUMPDEST POP JUMP JUMPDEST PUSH1 0x0 DUP2 CALLDATALOAD SWAP1 POP PUSH2 0xC84 DUP2 PUSH2 0xC5E JUMP JUMPDEST SWAP3 SWAP2 POP POP JUMP JUMPDEST PUSH1 0x0 DUP2 SWAP1 POP SWAP2 SWAP1 POP JUMP JUMPDEST PUSH2 0xC9D DUP2 PUSH2 0xC8A JUMP JUMPDEST DUP2 EQ PUSH2 0xCA8 JUMPI PUSH1 0x0 DUP1 REVERT JUMPDEST POP JUMP JUMPDEST PUSH1 0x0 DUP2 CALLDATALOAD SWAP1 POP PUSH2 0xCBA DUP2 PUSH2 0xC94 JUMP JUMPDEST SWAP3 SWAP2 POP POP JUMP JUMPDEST PUSH2 0xCC9 DUP2 PUSH2 0xA63 JUMP JUMPDEST DUP2 EQ PUSH2 0xCD4 JUMPI PUSH1 0x0 DUP1 REVERT JUMPDEST POP JUMP JUMPDEST PUSH1 0x0 DUP2 CALLDATALOAD SWAP1 POP PUSH2 0xCE6 DUP2 PUSH2 0xCC0 JUMP JUMPDEST SWAP3 SWAP2 POP POP JUMP JUMPDEST PUSH1 0x0 PUSH1 0xC0 DUP3 DUP5 SUB SLT ISZERO PUSH2 0xD02 JUMPI PUSH2 0xD01 PUSH2 0xAB3 JUMP JUMPDEST JUMPDEST PUSH2 0xD0C PUSH1 0xC0 PUSH2 0xB29 JUMP JUMPDEST SWAP1 POP PUSH1 0x0 DUP3 ADD CALLDATALOAD PUSH8 0xFFFFFFFFFFFFFFFF DUP2 GT ISZERO PUSH2 0xD2C JUMPI PUSH2 0xD2B PUSH2 0xB44 JUMP JUMPDEST JUMPDEST PUSH2 0xD38 DUP5 DUP3 DUP6 ADD PUSH2 0xC26 JUMP JUMPDEST PUSH1 0x0 DUP4 ADD MSTORE POP PUSH1 0x20 PUSH2 0xD4C DUP5 DUP3 DUP6 ADD PUSH2 0xC75 JUMP JUMPDEST PUSH1 0x20 DUP4 ADD MSTORE POP PUSH1 0x40 PUSH2 0xD60 DUP5 DUP3 DUP6 ADD PUSH2 0xCAB JUMP JUMPDEST PUSH1 0x40 DUP4 ADD MSTORE POP PUSH1 0x60 PUSH2 0xD74 DUP5 DUP3 DUP6 ADD PUSH2 0xCD7 JUMP JUMPDEST PUSH1 0x60 DUP4 ADD MSTORE POP PUSH1 0x80 PUSH2 0xD88 DUP5 DUP3 DUP6 ADD PUSH2 0xCD7 JUMP JUMPDEST PUSH1 0x80 DUP4 ADD MSTORE POP PUSH1 0xA0 PUSH2 0xD9C DUP5 DUP3 DUP6 ADD PUSH2 0xCD7 JUMP JUMPDEST PUSH1 0xA0 DUP4 ADD MSTORE POP SWAP3 SWAP2 POP POP JUMP JUMPDEST PUSH1 0x0 DUP1 PUSH1 0x40 DUP4 DUP6 SUB SLT ISZERO PUSH2 0xDBF JUMPI PUSH2 0xDBE PUSH2 0xAA9 JUMP JUMPDEST JUMPDEST PUSH1 0x0 DUP4 ADD CALLDATALOAD PUSH8 0xFFFFFFFFFFFFFFFF DUP2 GT ISZERO PUSH2 0xDDD JUMPI PUSH2 0xDDC PUSH2 0xAAE JUMP JUMPDEST JUMPDEST PUSH2 0xDE9 DUP6 DUP3 DUP7 ADD PUSH2 0xCEC JUMP JUMPDEST SWAP3 POP POP PUSH1 0x20 PUSH2 0xDFA DUP6 DUP3 DUP7 ADD PUSH2 0xC75 JUMP JUMPDEST SWAP2 POP POP SWAP3 POP SWAP3 SWAP1 POP JUMP JUMPDEST PUSH1 0x0 DUP1 PUSH1 0x0 PUSH1 0x60 DUP5 DUP7 SUB SLT ISZERO PUSH2 0xE1D JUMPI PUSH2 0xE1C PUSH2 0xAA9 JUMP JUMPDEST JUMPDEST PUSH1 0x0 PUSH2 0xE2B DUP7 DUP3 DUP8 ADD PUSH2 0xCD7 JUMP JUMPDEST SWAP4 POP POP PUSH1 0x20 DUP5 ADD CALLDATALOAD PUSH8 0xFFFFFFFFFFFFFFFF DUP2 GT ISZERO PUSH2 0xE4C JUMPI PUSH2 0xE4B PUSH2 0xAAE JUMP JUMPDEST JUMPDEST PUSH2 0xE58 DUP7 DUP3 DUP8 ADD PUSH2 0xCEC JUMP JUMPDEST SWAP3 POP POP PUSH1 0x40 PUSH2 0xE69 DUP7 DUP3 DUP8 ADD PUSH2 0xC75 JUMP JUMPDEST SWAP2 POP POP SWAP3 POP SWAP3 POP SWAP3 JUMP JUMPDEST PUSH32 0x4E487B7100000000000000000000000000000000000000000000000000000000 PUSH1 0x0 MSTORE PUSH1 0x32 PUSH1 0x4 MSTORE PUSH1 0x24 PUSH1 0x0 REVERT JUMPDEST PUSH2 0xEAB DUP2 PUSH2 0xC54 JUMP JUMPDEST DUP3 MSTORE POP POP JUMP JUMPDEST PUSH1 0x0 PUSH1 0x60 DUP3 ADD SWAP1 POP PUSH2 0xEC6 PUSH1 0x0 DUP4 ADD DUP7 PUSH2 0xA75 JUMP JUMPDEST PUSH2 0xED3 PUSH1 0x20 DUP4 ADD DUP6 PUSH2 0xA75 JUMP JUMPDEST PUSH2 0xEE0 PUSH1 0x40 DUP4 ADD DUP5 PUSH2 0xEA2 JUMP JUMPDEST SWAP5 SWAP4 POP POP POP POP JUMP JUMPDEST PUSH1 0x0 PUSH1 0xFF DUP3 AND SWAP1 POP SWAP2 SWAP1 POP JUMP JUMPDEST PUSH2 0xEFE DUP2 PUSH2 0xEE8 JUMP JUMPDEST DUP3 MSTORE POP POP JUMP JUMPDEST PUSH1 0x0 DUP2 MLOAD SWAP1 POP SWAP2 SWAP1 POP JUMP JUMPDEST PUSH1 0x0 DUP3 DUP3 MSTORE PUSH1 0x20 DUP3 ADD SWAP1 POP SWAP3 SWAP2 POP POP JUMP JUMPDEST PUSH1 0x0 DUP2 SWAP1 POP PUSH1 0x20 DUP3 ADD SWAP1 POP SWAP2 SWAP1 POP JUMP JUMPDEST PUSH2 0xF39 DUP2 PUSH2 0xC54 JUMP JUMPDEST DUP3 MSTORE POP POP JUMP JUMPDEST PUSH1 0x0 PUSH2 0xF4B DUP4 DUP4 PUSH2 0xF30 JUMP JUMPDEST PUSH1 0x20 DUP4 ADD SWAP1 POP SWAP3 SWAP2 POP POP JUMP JUMPDEST PUSH1 0x0 PUSH1 0x20 DUP3 ADD SWAP1 POP SWAP2 SWAP1 POP JUMP JUMPDEST PUSH1 0x0 PUSH2 0xF6F DUP3 PUSH2 0xF04 JUMP JUMPDEST PUSH2 0xF79 DUP2 DUP6 PUSH2 0xF0F JUMP JUMPDEST SWAP4 POP PUSH2 0xF84 DUP4 PUSH2 0xF20 JUMP JUMPDEST DUP1 PUSH1 0x0 JUMPDEST DUP4 DUP2 LT ISZERO PUSH2 0xFB5 JUMPI DUP2 MLOAD PUSH2 0xF9C DUP9 DUP3 PUSH2 0xF3F JUMP JUMPDEST SWAP8 POP PUSH2 0xFA7 DUP4 PUSH2 0xF57 JUMP JUMPDEST SWAP3 POP POP PUSH1 0x1 DUP2 ADD SWAP1 POP PUSH2 0xF88 JUMP JUMPDEST POP DUP6 SWAP4 POP POP POP POP SWAP3 SWAP2 POP POP JUMP JUMPDEST PUSH1 0x0 PUSH1 0x60 DUP3 ADD SWAP1 POP PUSH2 0xFD7 PUSH1 0x0 DUP4 ADD DUP7 PUSH2 0xEF5 JUMP JUMPDEST DUP2 DUP2 SUB PUSH1 0x20 DUP4 ADD MSTORE PUSH2 0xFE9 DUP2 DUP6 PUSH2 0xF64 JUMP JUMPDEST SWAP1 POP PUSH2 0xFF8 PUSH1 0x40 DUP4 ADD DUP5 PUSH2 0xEA2 JUMP JUMPDEST SWAP5 SWAP4 POP POP POP POP JUMP JUMPDEST PUSH2 0x1009 DUP2 PUSH2 0xC8A JUMP JUMPDEST DUP3 MSTORE POP POP JUMP JUMPDEST PUSH1 0x0 DUP2 MLOAD SWAP1 POP SWAP2 SWAP1 POP JUMP JUMPDEST PUSH1 0x0 DUP3 DUP3 MSTORE PUSH1 0x20 DUP3 ADD SWAP1 POP SWAP3 SWAP2 POP POP JUMP JUMPDEST PUSH1 0x0 DUP2 SWAP1 POP PUSH1 0x20 DUP3 ADD SWAP1 POP SWAP2 SWAP1 POP JUMP JUMPDEST PUSH1 0x0 DUP2 SWAP1 POP SWAP2 SWAP1 POP JUMP JUMPDEST PUSH1 0x0 PUSH2 0x1060 PUSH2 0x105B PUSH2 0x1056 DUP5 PUSH2 0xA43 JUMP JUMPDEST PUSH2 0x103B JUMP JUMPDEST PUSH2 0xA43 JUMP JUMPDEST SWAP1 POP SWAP2 SWAP1 POP JUMP JUMPDEST PUSH1 0x0 PUSH2 0x1072 DUP3 PUSH2 0x1045 JUMP JUMPDEST SWAP1 POP SWAP2 SWAP1 POP JUMP JUMPDEST PUSH1 0x0 PUSH2 0x1084 DUP3 PUSH2 0x1067 JUMP JUMPDEST SWAP1 POP SWAP2 SWAP1 POP JUMP JUMPDEST PUSH2 0x1094 DUP2 PUSH2 0x1079 JUMP JUMPDEST DUP3 MSTORE POP POP JUMP JUMPDEST PUSH1 0x0 PUSH2 0x10A6 DUP4 DUP4 PUSH2 0x108B JUMP JUMPDEST PUSH1 0x20 DUP4 ADD SWAP1 POP SWAP3 SWAP2 POP POP JUMP JUMPDEST PUSH1 0x0 PUSH1 0x20 DUP3 ADD SWAP1 POP SWAP2 SWAP1 POP JUMP JUMPDEST PUSH1 0x0 PUSH2 0x10CA DUP3 PUSH2 0x100F JUMP JUMPDEST PUSH2 0x10D4 DUP2 DUP6 PUSH2 0x101A JUMP JUMPDEST SWAP4 POP PUSH2 0x10DF DUP4 PUSH2 0x102B JUMP JUMPDEST DUP1 PUSH1 0x0 JUMPDEST DUP4 DUP2 LT ISZERO PUSH2 0x1110 JUMPI DUP2 MLOAD PUSH2 0x10F7 DUP9 DUP3 PUSH2 0x109A JUMP JUMPDEST SWAP8 POP PUSH2 0x1102 DUP4 PUSH2 0x10B2 JUMP JUMPDEST SWAP3 POP POP PUSH1 0x1 DUP2 ADD SWAP1 POP PUSH2 0x10E3 JUMP JUMPDEST POP DUP6 SWAP4 POP POP POP POP SWAP3 SWAP2 POP POP JUMP JUMPDEST PUSH1 0x0 DUP3 DUP3 MSTORE PUSH1 0x20 DUP3 ADD SWAP1 POP SWAP3 SWAP2 POP POP JUMP JUMPDEST PUSH1 0x0 PUSH2 0x1139 DUP3 PUSH2 0xF04 JUMP JUMPDEST PUSH2 0x1143 DUP2 DUP6 PUSH2 0x111D JUMP JUMPDEST SWAP4 POP PUSH2 0x114E DUP4 PUSH2 0xF20 JUMP JUMPDEST DUP1 PUSH1 0x0 JUMPDEST DUP4 DUP2 LT ISZERO PUSH2 0x117F JUMPI DUP2 MLOAD PUSH2 0x1166 DUP9 DUP3 PUSH2 0xF3F JUMP JUMPDEST SWAP8 POP PUSH2 0x1171 DUP4 PUSH2 0xF57 JUMP JUMPDEST SWAP3 POP POP PUSH1 0x1 DUP2 ADD SWAP1 POP PUSH2 0x1152 JUMP JUMPDEST POP DUP6 SWAP4 POP POP POP POP SWAP3 SWAP2 POP POP JUMP JUMPDEST PUSH1 0x0 DUP2 MLOAD SWAP1 POP SWAP2 SWAP1 POP JUMP JUMPDEST PUSH1 0x0 DUP3 DUP3 MSTORE PUSH1 0x20 DUP3 ADD SWAP1 POP SWAP3 SWAP2 POP POP JUMP JUMPDEST PUSH1 0x0 JUMPDEST DUP4 DUP2 LT ISZERO PUSH2 0x11C6 JUMPI DUP1 DUP3 ADD MLOAD DUP2 DUP5 ADD MSTORE PUSH1 0x20 DUP2 ADD SWAP1 POP PUSH2 0x11AB JUMP JUMPDEST DUP4 DUP2 GT ISZERO PUSH2 0x11D5 JUMPI PUSH1 0x0 DUP5 DUP5 ADD MSTORE JUMPDEST POP POP POP POP JUMP JUMPDEST PUSH1 0x0 PUSH2 0x11E6 DUP3 PUSH2 0x118C JUMP JUMPDEST PUSH2 0x11F0 DUP2 DUP6 PUSH2 0x1197 JUMP JUMPDEST SWAP4 POP PUSH2 0x1200 DUP2 DUP6 PUSH1 0x20 DUP7 ADD PUSH2 0x11A8 JUMP JUMPDEST PUSH2 0x1209 DUP2 PUSH2 0xAB8 JUMP JUMPDEST DUP5 ADD SWAP2 POP POP SWAP3 SWAP2 POP POP JUMP JUMPDEST PUSH1 0x0 DUP2 ISZERO ISZERO SWAP1 POP SWAP2 SWAP1 POP JUMP JUMPDEST PUSH2 0x1229 DUP2 PUSH2 0x1214 JUMP JUMPDEST DUP3 MSTORE POP POP JUMP JUMPDEST PUSH1 0x0 PUSH1 0x80 DUP4 ADD PUSH1 0x0 DUP4 ADD MLOAD DUP5 DUP3 SUB PUSH1 0x0 DUP7 ADD MSTORE PUSH2 0x124C DUP3 DUP3 PUSH2 0x10BF JUMP JUMPDEST SWAP2 POP POP PUSH1 0x20 DUP4 ADD MLOAD DUP5 DUP3 SUB PUSH1 0x20 DUP7 ADD MSTORE PUSH2 0x1266 DUP3 DUP3 PUSH2 0x112E JUMP JUMPDEST SWAP2 POP POP PUSH1 0x40 DUP4 ADD MLOAD DUP5 DUP3 SUB PUSH1 0x40 DUP7 ADD MSTORE PUSH2 0x1280 DUP3 DUP3 PUSH2 0x11DB JUMP JUMPDEST SWAP2 POP POP PUSH1 0x60 DUP4 ADD MLOAD PUSH2 0x1295 PUSH1 0x60 DUP7 ADD DUP3 PUSH2 0x1220 JUMP JUMPDEST POP DUP1 SWAP2 POP POP SWAP3 SWAP2 POP POP JUMP JUMPDEST PUSH1 0x0 PUSH1 0x80 DUP3 ADD SWAP1 POP PUSH2 0x12B5 PUSH1 0x0 DUP4 ADD DUP8 PUSH2 0x1000 JUMP JUMPDEST PUSH2 0x12C2 PUSH1 0x20 DUP4 ADD DUP7 PUSH2 0xA75 JUMP JUMPDEST PUSH2 0x12CF PUSH1 0x40 DUP4 ADD DUP6 PUSH2 0xA75 JUMP JUMPDEST DUP2 DUP2 SUB PUSH1 0x60 DUP4 ADD MSTORE PUSH2 0x12E1 DUP2 DUP5 PUSH2 0x122F JUMP JUMPDEST SWAP1 POP SWAP6 SWAP5 POP POP POP POP POP JUMP JUMPDEST PUSH1 0x0 DUP2 MLOAD SWAP1 POP PUSH2 0x12FB DUP2 PUSH2 0xC5E JUMP JUMPDEST SWAP3 SWAP2 POP POP JUMP JUMPDEST PUSH1 0x0 PUSH1 0x20 DUP3 DUP5 SUB SLT ISZERO PUSH2 0x1317 JUMPI PUSH2 0x1316 PUSH2 0xAA9 JUMP JUMPDEST JUMPDEST PUSH1 0x0 PUSH2 0x1325 DUP5 DUP3 DUP6 ADD PUSH2 0x12EC JUMP JUMPDEST SWAP2 POP POP SWAP3 SWAP2 POP POP JUMP JUMPDEST PUSH2 0x1337 DUP2 PUSH2 0x1214 JUMP JUMPDEST DUP2 EQ PUSH2 0x1342 JUMPI PUSH1 0x0 DUP1 REVERT JUMPDEST POP JUMP JUMPDEST PUSH1 0x0 DUP2 MLOAD SWAP1 POP PUSH2 0x1354 DUP2 PUSH2 0x132E JUMP JUMPDEST SWAP3 SWAP2 POP POP JUMP JUMPDEST PUSH1 0x0 PUSH1 0x20 DUP3 DUP5 SUB SLT ISZERO PUSH2 0x1370 JUMPI PUSH2 0x136F PUSH2 0xAA9 JUMP JUMPDEST JUMPDEST PUSH1 0x0 PUSH2 0x137E DUP5 DUP3 DUP6 ADD PUSH2 0x1345 JUMP JUMPDEST SWAP2 POP POP SWAP3 SWAP2 POP POP JUMP JUMPDEST PUSH1 0x0 DUP3 DUP3 MSTORE PUSH1 0x20 DUP3 ADD SWAP1 POP SWAP3 SWAP2 POP POP JUMP JUMPDEST PUSH32 0x5361666545524332303A204552433230206F7065726174696F6E20646964206E PUSH1 0x0 DUP3 ADD MSTORE PUSH32 0x6F74207375636365656400000000000000000000000000000000000000000000 PUSH1 0x20 DUP3 ADD MSTORE POP JUMP JUMPDEST PUSH1 0x0 PUSH2 0x13F4 PUSH1 0x2A DUP4 PUSH2 0x1387 JUMP JUMPDEST SWAP2 POP PUSH2 0x13FF DUP3 PUSH2 0x1398 JUMP JUMPDEST PUSH1 0x40 DUP3 ADD SWAP1 POP SWAP2 SWAP1 POP JUMP JUMPDEST PUSH1 0x0 PUSH1 0x20 DUP3 ADD SWAP1 POP DUP2 DUP2 SUB PUSH1 0x0 DUP4 ADD MSTORE PUSH2 0x1423 DUP2 PUSH2 0x13E7 JUMP JUMPDEST SWAP1 POP SWAP2 SWAP1 POP JUMP JUMPDEST PUSH1 0x0 PUSH1 0x40 DUP3 ADD SWAP1 POP PUSH2 0x143F PUSH1 0x0 DUP4 ADD DUP6 PUSH2 0xA75 JUMP JUMPDEST PUSH2 0x144C PUSH1 0x20 DUP4 ADD DUP5 PUSH2 0xA75 JUMP JUMPDEST SWAP4 SWAP3 POP POP POP JUMP JUMPDEST PUSH32 0x4E487B7100000000000000000000000000000000000000000000000000000000 PUSH1 0x0 MSTORE PUSH1 0x11 PUSH1 0x4 MSTORE PUSH1 0x24 PUSH1 0x0 REVERT JUMPDEST PUSH1 0x0 PUSH2 0x148D DUP3 PUSH2 0xC54 JUMP JUMPDEST SWAP2 POP PUSH2 0x1498 DUP4 PUSH2 0xC54 JUMP JUMPDEST SWAP3 POP DUP3 PUSH32 0xFFFFFFFFFFFFFFFFFFFFFFFFFFFFFFFFFFFFFFFFFFFFFFFFFFFFFFFFFFFFFFFF SUB DUP3 GT ISZERO PUSH2 0x14CD JUMPI PUSH2 0x14CC PUSH2 0x1453 JUMP JUMPDEST JUMPDEST DUP3 DUP3 ADD SWAP1 POP SWAP3 SWAP2 POP POP JUMP JUMPDEST PUSH1 0x0 PUSH1 0x40 DUP3 ADD SWAP1 POP PUSH2 0x14ED PUSH1 0x0 DUP4 ADD DUP6 PUSH2 0xA75 JUMP JUMPDEST PUSH2 0x14FA PUSH1 0x20 DUP4 ADD DUP5 PUSH2 0xEA2 JUMP JUMPDEST SWAP4 SWAP3 POP POP POP JUMP JUMPDEST PUSH32 0x416464726573733A20696E73756666696369656E742062616C616E636520666F PUSH1 0x0 DUP3 ADD MSTORE PUSH32 0x722063616C6C0000000000000000000000000000000000000000000000000000 PUSH1 0x20 DUP3 ADD MSTORE POP JUMP JUMPDEST PUSH1 0x0 PUSH2 0x155D PUSH1 0x26 DUP4 PUSH2 0x1387 JUMP JUMPDEST SWAP2 POP PUSH2 0x1568 DUP3 PUSH2 0x1501 JUMP JUMPDEST PUSH1 0x40 DUP3 ADD SWAP1 POP SWAP2 SWAP1 POP JUMP JUMPDEST PUSH1 0x0 PUSH1 0x20 DUP3 ADD SWAP1 POP DUP2 DUP2 SUB PUSH1 0x0 DUP4 ADD MSTORE PUSH2 0x158C DUP2 PUSH2 0x1550 JUMP JUMPDEST SWAP1 POP SWAP2 SWAP1 POP JUMP JUMPDEST PUSH32 0x416464726573733A2063616C6C20746F206E6F6E2D636F6E7472616374000000 PUSH1 0x0 DUP3 ADD MSTORE POP JUMP JUMPDEST PUSH1 0x0 PUSH2 0x15C9 PUSH1 0x1D DUP4 PUSH2 0x1387 JUMP JUMPDEST SWAP2 POP PUSH2 0x15D4 DUP3 PUSH2 0x1593 JUMP JUMPDEST PUSH1 0x20 DUP3 ADD SWAP1 POP SWAP2 SWAP1 POP JUMP JUMPDEST PUSH1 0x0 PUSH1 0x20 DUP3 ADD SWAP1 POP DUP2 DUP2 SUB PUSH1 0x0 DUP4 ADD MSTORE PUSH2 0x15F8 DUP2 PUSH2 0x15BC JUMP JUMPDEST SWAP1 POP SWAP2 SWAP1 POP JUMP JUMPDEST PUSH1 0x0 DUP2 SWAP1 POP SWAP3 SWAP2 POP POP JUMP JUMPDEST PUSH1 0x0 PUSH2 0x1615 DUP3 PUSH2 0x118C JUMP JUMPDEST PUSH2 0x161F DUP2 DUP6 PUSH2 0x15FF JUMP JUMPDEST SWAP4 POP PUSH2 0x162F DUP2 DUP6 PUSH1 0x20 DUP7 ADD PUSH2 0x11A8 JUMP JUMPDEST DUP1 DUP5 ADD SWAP2 POP POP SWAP3 SWAP2 POP POP JUMP JUMPDEST PUSH1 0x0 PUSH2 0x1647 DUP3 DUP5 PUSH2 0x160A JUMP JUMPDEST SWAP2 POP DUP2 SWAP1 POP SWAP3 SWAP2 POP POP JUMP JUMPDEST PUSH1 0x0 DUP2 MLOAD SWAP1 POP SWAP2 SWAP1 POP JUMP JUMPDEST PUSH1 0x0 PUSH2 0x1668 DUP3 PUSH2 0x1652 JUMP JUMPDEST PUSH2 0x1672 DUP2 DUP6 PUSH2 0x1387 JUMP JUMPDEST SWAP4 POP PUSH2 0x1682 DUP2 DUP6 PUSH1 0x20 DUP7 ADD PUSH2 0x11A8 JUMP JUMPDEST PUSH2 0x168B DUP2 PUSH2 0xAB8 JUMP JUMPDEST DUP5 ADD SWAP2 POP POP SWAP3 SWAP2 POP POP JUMP JUMPDEST PUSH1 0x0 PUSH1 0x20 DUP3 ADD SWAP1 POP DUP2 DUP2 SUB PUSH1 0x0 DUP4 ADD MSTORE PUSH2 0x16B0 DUP2 DUP5 PUSH2 0x165D JUMP JUMPDEST SWAP1 POP SWAP3 SWAP2 POP POP JUMP INVALID LOG2 PUSH5 0x6970667358 0x22 SLT KECCAK256 PUSH13 0x3D12CCFF68FE7BBC1039ABA268 DUP8 SWAP4 0xE9 0xF7 XOR 0xAF 0xA6 DUP7 0xC1 XOR CODECOPY 0xB4 PUSH32 0x5FB526A90264736F6C634300080D003300000000000000000000000000000000 "
				},
				"gasEstimates": {
					"creation": {
						"codeDepositCost": "1174000",
						"executionCost": "infinite",
						"totalCost": "infinite"
					},
					"external": {
						"balVault()": "infinite",
						"routeDeposit(address,(address[],uint256,bytes32,address,address,address),uint256)": "infinite",
						"singleSideDeposit((address[],uint256,bytes32,address,address,address),uint256)": "infinite"
					},
					"internal": {
						"_approveIfNeeded(address,address)": "infinite",
						"_depositLPToVault(address,address,address)": "infinite",
						"_joinPool(contract IAsset[] memory,uint256,uint256,bytes32)": "infinite"
					}
				},
				"methodIdentifiers": {
					"balVault()": "77aba213",
					"routeDeposit(address,(address[],uint256,bytes32,address,address,address),uint256)": "9cbcf4c7",
					"singleSideDeposit((address[],uint256,bytes32,address,address,address),uint256)": "81144563"
				}
			},
			"storageLayout": {
				"storage": [],
				"types": null
			},
			"userdoc": {
				"kind": "user",
				"methods": {},
				"version": 1
			}
		}
	}
}