{
	"SuperDepositor.sol": {
		"SuperDepositor": {
			"abi": [
				{
					"inputs": [
						{
							"internalType": "address",
							"name": "_balVault",
							"type": "address"
						}
					],
					"stateMutability": "nonpayable",
					"type": "constructor"
				},
				{
					"inputs": [],
					"name": "balVault",
					"outputs": [
						{
							"internalType": "address",
							"name": "",
							"type": "address"
						}
					],
					"stateMutability": "view",
					"type": "function"
				},
				{
					"inputs": [
						{
							"internalType": "address",
							"name": "tokenIn",
							"type": "address"
						},
						{
							"components": [
								{
									"internalType": "contract IAsset[]",
									"name": "underlyings",
									"type": "address[]"
								},
								{
									"internalType": "uint256",
									"name": "depositTokenIndex",
									"type": "uint256"
								},
								{
									"internalType": "bytes32",
									"name": "beetsPoolId",
									"type": "bytes32"
								},
								{
									"internalType": "address",
									"name": "lpToken",
									"type": "address"
								},
								{
									"internalType": "address",
									"name": "vault",
									"type": "address"
								},
								{
									"internalType": "address",
									"name": "recipient",
									"type": "address"
								}
							],
							"internalType": "struct SuperDepositor.DepositParams",
							"name": "details",
							"type": "tuple"
						},
						{
							"internalType": "uint256",
							"name": "amount",
							"type": "uint256"
						}
					],
					"name": "routeDeposit",
					"outputs": [],
					"stateMutability": "nonpayable",
					"type": "function"
				}
			],
			"devdoc": {
				"author": "andreas@nascent.xyz",
				"kind": "dev",
				"methods": {},
				"title": "Greeter",
				"version": 1
			},
			"evm": {
				"assembly": "    /* \"SuperDepositor.sol\":289:3644  contract SuperDepositor {... */\n  mstore(0x40, 0xa0)\n    /* \"SuperDepositor.sol\":904:974  constructor(address _balVault) {... */\n  callvalue\n  dup1\n  iszero\n  tag_1\n  jumpi\n  0x00\n  dup1\n  revert\ntag_1:\n  pop\n  mload(0x40)\n  sub(codesize, bytecodeSize)\n  dup1\n  bytecodeSize\n  dup4\n  codecopy\n  dup2\n  dup2\n  add\n  0x40\n  mstore\n  dup2\n  add\n  swap1\n  tag_2\n  swap2\n  swap1\n  tag_3\n  jump\t// in\ntag_2:\n    /* \"SuperDepositor.sol\":957:966  _balVault */\n  dup1\n    /* \"SuperDepositor.sol\":946:966  balVault = _balVault */\n  0xffffffffffffffffffffffffffffffffffffffff\n  and\n  0x80\n  dup2\n  0xffffffffffffffffffffffffffffffffffffffff\n  and\n  dup2\n  mstore\n  pop\n  pop\n    /* \"SuperDepositor.sol\":904:974  constructor(address _balVault) {... */\n  pop\n    /* \"SuperDepositor.sol\":289:3644  contract SuperDepositor {... */\n  jump(tag_6)\n    /* \"#utility.yul\":88:205   */\ntag_8:\n    /* \"#utility.yul\":197:198   */\n  0x00\n    /* \"#utility.yul\":194:195   */\n  dup1\n    /* \"#utility.yul\":187:199   */\n  revert\n    /* \"#utility.yul\":334:460   */\ntag_10:\n    /* \"#utility.yul\":371:378   */\n  0x00\n    /* \"#utility.yul\":411:453   */\n  0xffffffffffffffffffffffffffffffffffffffff\n    /* \"#utility.yul\":404:409   */\n  dup3\n    /* \"#utility.yul\":400:454   */\n  and\n    /* \"#utility.yul\":389:454   */\n  swap1\n  pop\n    /* \"#utility.yul\":334:460   */\n  swap2\n  swap1\n  pop\n  jump\t// out\n    /* \"#utility.yul\":466:562   */\ntag_11:\n    /* \"#utility.yul\":503:510   */\n  0x00\n    /* \"#utility.yul\":532:556   */\n  tag_20\n    /* \"#utility.yul\":550:555   */\n  dup3\n    /* \"#utility.yul\":532:556   */\n  tag_10\n  jump\t// in\ntag_20:\n    /* \"#utility.yul\":521:556   */\n  swap1\n  pop\n    /* \"#utility.yul\":466:562   */\n  swap2\n  swap1\n  pop\n  jump\t// out\n    /* \"#utility.yul\":568:690   */\ntag_12:\n    /* \"#utility.yul\":641:665   */\n  tag_22\n    /* \"#utility.yul\":659:664   */\n  dup2\n    /* \"#utility.yul\":641:665   */\n  tag_11\n  jump\t// in\ntag_22:\n    /* \"#utility.yul\":634:639   */\n  dup2\n    /* \"#utility.yul\":631:666   */\n  eq\n    /* \"#utility.yul\":621:684   */\n  tag_23\n  jumpi\n    /* \"#utility.yul\":680:681   */\n  0x00\n    /* \"#utility.yul\":677:678   */\n  dup1\n    /* \"#utility.yul\":670:682   */\n  revert\n    /* \"#utility.yul\":621:684   */\ntag_23:\n    /* \"#utility.yul\":568:690   */\n  pop\n  jump\t// out\n    /* \"#utility.yul\":696:839   */\ntag_13:\n    /* \"#utility.yul\":753:758   */\n  0x00\n    /* \"#utility.yul\":784:790   */\n  dup2\n    /* \"#utility.yul\":778:791   */\n  mload\n    /* \"#utility.yul\":769:791   */\n  swap1\n  pop\n    /* \"#utility.yul\":800:833   */\n  tag_25\n    /* \"#utility.yul\":827:832   */\n  dup2\n    /* \"#utility.yul\":800:833   */\n  tag_12\n  jump\t// in\ntag_25:\n    /* \"#utility.yul\":696:839   */\n  swap3\n  swap2\n  pop\n  pop\n  jump\t// out\n    /* \"#utility.yul\":845:1196   */\ntag_3:\n    /* \"#utility.yul\":915:921   */\n  0x00\n    /* \"#utility.yul\":964:966   */\n  0x20\n    /* \"#utility.yul\":952:961   */\n  dup3\n    /* \"#utility.yul\":943:950   */\n  dup5\n    /* \"#utility.yul\":939:962   */\n  sub\n    /* \"#utility.yul\":935:967   */\n  slt\n    /* \"#utility.yul\":932:1051   */\n  iszero\n  tag_27\n  jumpi\n    /* \"#utility.yul\":970:1049   */\n  tag_28\n  tag_8\n  jump\t// in\ntag_28:\n    /* \"#utility.yul\":932:1051   */\ntag_27:\n    /* \"#utility.yul\":1090:1091   */\n  0x00\n    /* \"#utility.yul\":1115:1179   */\n  tag_29\n    /* \"#utility.yul\":1171:1178   */\n  dup5\n    /* \"#utility.yul\":1162:1168   */\n  dup3\n    /* \"#utility.yul\":1151:1160   */\n  dup6\n    /* \"#utility.yul\":1147:1169   */\n  add\n    /* \"#utility.yul\":1115:1179   */\n  tag_13\n  jump\t// in\ntag_29:\n    /* \"#utility.yul\":1105:1179   */\n  swap2\n  pop\n    /* \"#utility.yul\":1061:1189   */\n  pop\n    /* \"#utility.yul\":845:1196   */\n  swap3\n  swap2\n  pop\n  pop\n  jump\t// out\n    /* \"SuperDepositor.sol\":289:3644  contract SuperDepositor {... */\ntag_6:\n  mload(0x80)\n  codecopy(0x00, dataOffset(sub_0), dataSize(sub_0))\n  0x00\n  assignImmutable(\"0xf3c94672c9097e8255317de36dd0d00a9f72d57eeb896861f583a1140be6889a\")\n  return(0x00, dataSize(sub_0))\nstop\n\nsub_0: assembly {\n        /* \"SuperDepositor.sol\":289:3644  contract SuperDepositor {... */\n      mstore(0x40, 0x80)\n      callvalue\n      dup1\n      iszero\n      tag_1\n      jumpi\n      0x00\n      dup1\n      revert\n    tag_1:\n      pop\n      jumpi(tag_2, lt(calldatasize, 0x04))\n      shr(0xe0, calldataload(0x00))\n      dup1\n      0x77aba213\n      eq\n      tag_3\n      jumpi\n      dup1\n      0x9cbcf4c7\n      eq\n      tag_4\n      jumpi\n    tag_2:\n      0x00\n      dup1\n      revert\n        /* \"SuperDepositor.sol\":379:412  address public immutable balVault */\n    tag_3:\n      tag_5\n      tag_6\n      jump\t// in\n    tag_5:\n      mload(0x40)\n      tag_7\n      swap2\n      swap1\n      tag_8\n      jump\t// in\n    tag_7:\n      mload(0x40)\n      dup1\n      swap2\n      sub\n      swap1\n      return\n        /* \"SuperDepositor.sol\":982:1421  function routeDeposit(address tokenIn, DepositParams memory details, uint256 amount) public {... */\n    tag_4:\n      tag_9\n      0x04\n      dup1\n      calldatasize\n      sub\n      dup2\n      add\n      swap1\n      tag_10\n      swap2\n      swap1\n      tag_11\n      jump\t// in\n    tag_10:\n      tag_12\n      jump\t// in\n    tag_9:\n      stop\n        /* \"SuperDepositor.sol\":379:412  address public immutable balVault */\n    tag_6:\n      immutable(\"0xf3c94672c9097e8255317de36dd0d00a9f72d57eeb896861f583a1140be6889a\")\n      dup2\n      jump\t// out\n        /* \"SuperDepositor.sol\":982:1421  function routeDeposit(address tokenIn, DepositParams memory details, uint256 amount) public {... */\n    tag_12:\n        /* \"SuperDepositor.sol\":1234:1241  details */\n      dup2\n        /* \"SuperDepositor.sol\":1234:1253  details.underlyings */\n      0x00\n      add\n      mload\n        /* \"SuperDepositor.sol\":1254:1261  details */\n      dup3\n        /* \"SuperDepositor.sol\":1254:1279  details.depositTokenIndex */\n      0x20\n      add\n      mload\n        /* \"SuperDepositor.sol\":1234:1280  details.underlyings[details.depositTokenIndex] */\n      dup2\n      mload\n      dup2\n      lt\n      tag_14\n      jumpi\n      tag_15\n      tag_16\n      jump\t// in\n    tag_15:\n    tag_14:\n      0x20\n      mul\n      0x20\n      add\n      add\n      mload\n        /* \"SuperDepositor.sol\":1215:1281  tokenIn == address(details.underlyings[details.depositTokenIndex]) */\n      0xffffffffffffffffffffffffffffffffffffffff\n      and\n        /* \"SuperDepositor.sol\":1215:1222  tokenIn */\n      dup4\n        /* \"SuperDepositor.sol\":1215:1281  tokenIn == address(details.underlyings[details.depositTokenIndex]) */\n      0xffffffffffffffffffffffffffffffffffffffff\n      and\n      sub\n        /* \"SuperDepositor.sol\":1212:1404  if(tokenIn == address(details.underlyings[details.depositTokenIndex])){... */\n      tag_17\n      jumpi\n        /* \"SuperDepositor.sol\":1297:1332  _singleSideDeposit(details, amount) */\n      tag_18\n        /* \"SuperDepositor.sol\":1316:1323  details */\n      dup3\n        /* \"SuperDepositor.sol\":1325:1331  amount */\n      dup3\n        /* \"SuperDepositor.sol\":1297:1315  _singleSideDeposit */\n      tag_19\n        /* \"SuperDepositor.sol\":1297:1332  _singleSideDeposit(details, amount) */\n      jump\t// in\n    tag_18:\n        /* \"SuperDepositor.sol\":1212:1404  if(tokenIn == address(details.underlyings[details.depositTokenIndex])){... */\n      jump(tag_20)\n    tag_17:\n    tag_20:\n        /* \"SuperDepositor.sol\":982:1421  function routeDeposit(address tokenIn, DepositParams memory details, uint256 amount) public {... */\n      pop\n      pop\n      pop\n      jump\t// out\n        /* \"SuperDepositor.sol\":1429:1911  function _singleSideDeposit(DepositParams memory details, uint256 amount) internal {... */\n    tag_19:\n        /* \"SuperDepositor.sol\":1523:1551  IERC20Upgradeable inputToken */\n      0x00\n        /* \"SuperDepositor.sol\":1580:1587  details */\n      dup3\n        /* \"SuperDepositor.sol\":1580:1599  details.underlyings */\n      0x00\n      add\n      mload\n        /* \"SuperDepositor.sol\":1600:1607  details */\n      dup4\n        /* \"SuperDepositor.sol\":1600:1625  details.depositTokenIndex */\n      0x20\n      add\n      mload\n        /* \"SuperDepositor.sol\":1580:1626  details.underlyings[details.depositTokenIndex] */\n      dup2\n      mload\n      dup2\n      lt\n      tag_22\n      jumpi\n      tag_23\n      tag_16\n      jump\t// in\n    tag_23:\n    tag_22:\n      0x20\n      mul\n      0x20\n      add\n      add\n      mload\n        /* \"SuperDepositor.sol\":1523:1628  IERC20Upgradeable inputToken = IERC20Upgradeable(address(details.underlyings[details.depositTokenIndex])) */\n      swap1\n      pop\n        /* \"SuperDepositor.sol\":1639:1701  inputToken.safeTransferFrom(msg.sender, address(this), amount) */\n      tag_24\n        /* \"SuperDepositor.sol\":1667:1677  msg.sender */\n      caller\n        /* \"SuperDepositor.sol\":1687:1691  this */\n      address\n        /* \"SuperDepositor.sol\":1694:1700  amount */\n      dup5\n        /* \"SuperDepositor.sol\":1639:1649  inputToken */\n      dup5\n        /* \"SuperDepositor.sol\":1639:1666  inputToken.safeTransferFrom */\n      0xffffffffffffffffffffffffffffffffffffffff\n      and\n      tag_25\n      swap1\n        /* \"SuperDepositor.sol\":1639:1701  inputToken.safeTransferFrom(msg.sender, address(this), amount) */\n      swap4\n      swap3\n      swap2\n      swap1\n      0xffffffff\n      and\n      jump\t// in\n    tag_24:\n        /* \"SuperDepositor.sol\":1712:1798  _joinPool(details.underlyings, amount, details.depositTokenIndex, details.beetsPoolId) */\n      tag_26\n        /* \"SuperDepositor.sol\":1722:1729  details */\n      dup4\n        /* \"SuperDepositor.sol\":1722:1741  details.underlyings */\n      0x00\n      add\n      mload\n        /* \"SuperDepositor.sol\":1743:1749  amount */\n      dup4\n        /* \"SuperDepositor.sol\":1751:1758  details */\n      dup6\n        /* \"SuperDepositor.sol\":1751:1776  details.depositTokenIndex */\n      0x20\n      add\n      mload\n        /* \"SuperDepositor.sol\":1778:1785  details */\n      dup7\n        /* \"SuperDepositor.sol\":1778:1797  details.beetsPoolId */\n      0x40\n      add\n      mload\n        /* \"SuperDepositor.sol\":1712:1721  _joinPool */\n      tag_27\n        /* \"SuperDepositor.sol\":1712:1798  _joinPool(details.underlyings, amount, details.depositTokenIndex, details.beetsPoolId) */\n      jump\t// in\n    tag_26:\n        /* \"SuperDepositor.sol\":1835:1903  _depositLPToVault(details.lpToken, details.vault, details.recipient) */\n      tag_28\n        /* \"SuperDepositor.sol\":1853:1860  details */\n      dup4\n        /* \"SuperDepositor.sol\":1853:1868  details.lpToken */\n      0x60\n      add\n      mload\n        /* \"SuperDepositor.sol\":1870:1877  details */\n      dup5\n        /* \"SuperDepositor.sol\":1870:1883  details.vault */\n      0x80\n      add\n      mload\n        /* \"SuperDepositor.sol\":1885:1892  details */\n      dup6\n        /* \"SuperDepositor.sol\":1885:1902  details.recipient */\n      0xa0\n      add\n      mload\n        /* \"SuperDepositor.sol\":1835:1852  _depositLPToVault */\n      tag_29\n        /* \"SuperDepositor.sol\":1835:1903  _depositLPToVault(details.lpToken, details.vault, details.recipient) */\n      jump\t// in\n    tag_28:\n        /* \"SuperDepositor.sol\":1512:1911  {... */\n      pop\n        /* \"SuperDepositor.sol\":1429:1911  function _singleSideDeposit(DepositParams memory details, uint256 amount) internal {... */\n      pop\n      pop\n      jump\t// out\n        /* \"@openzeppelin/contracts-upgradeable/token/ERC20/utils/SafeERC20Upgradeable.sol\":967:1219  function safeTransferFrom(... */\n    tag_25:\n        /* \"@openzeppelin/contracts-upgradeable/token/ERC20/utils/SafeERC20Upgradeable.sol\":1116:1212  _callOptionalReturn(token, abi.encodeWithSelector(token.transferFrom.selector, from, to, value)) */\n      tag_31\n        /* \"@openzeppelin/contracts-upgradeable/token/ERC20/utils/SafeERC20Upgradeable.sol\":1136:1141  token */\n      dup5\n        /* \"@openzeppelin/contracts-upgradeable/token/ERC20/utils/SafeERC20Upgradeable.sol\":1166:1193  token.transferFrom.selector */\n      shl(0xe0, 0x23b872dd)\n        /* \"@openzeppelin/contracts-upgradeable/token/ERC20/utils/SafeERC20Upgradeable.sol\":1195:1199  from */\n      dup6\n        /* \"@openzeppelin/contracts-upgradeable/token/ERC20/utils/SafeERC20Upgradeable.sol\":1201:1203  to */\n      dup6\n        /* \"@openzeppelin/contracts-upgradeable/token/ERC20/utils/SafeERC20Upgradeable.sol\":1205:1210  value */\n      dup6\n        /* \"@openzeppelin/contracts-upgradeable/token/ERC20/utils/SafeERC20Upgradeable.sol\":1143:1211  abi.encodeWithSelector(token.transferFrom.selector, from, to, value) */\n      add(0x24, mload(0x40))\n      tag_32\n      swap4\n      swap3\n      swap2\n      swap1\n      tag_33\n      jump\t// in\n    tag_32:\n      mload(0x40)\n      0x20\n      dup2\n      dup4\n      sub\n      sub\n      dup2\n      mstore\n      swap1\n      0x40\n      mstore\n      swap1\n      not(0xffffffffffffffffffffffffffffffffffffffffffffffffffffffff)\n      and\n      0x20\n      dup3\n      add\n      dup1\n      mload\n      0xffffffffffffffffffffffffffffffffffffffffffffffffffffffff\n      dup4\n      dup2\n      dup4\n      and\n      or\n      dup4\n      mstore\n      pop\n      pop\n      pop\n      pop\n        /* \"@openzeppelin/contracts-upgradeable/token/ERC20/utils/SafeERC20Upgradeable.sol\":1116:1135  _callOptionalReturn */\n      tag_34\n        /* \"@openzeppelin/contracts-upgradeable/token/ERC20/utils/SafeERC20Upgradeable.sol\":1116:1212  _callOptionalReturn(token, abi.encodeWithSelector(token.transferFrom.selector, from, to, value)) */\n      jump\t// in\n    tag_31:\n        /* \"@openzeppelin/contracts-upgradeable/token/ERC20/utils/SafeERC20Upgradeable.sol\":967:1219  function safeTransferFrom(... */\n      pop\n      pop\n      pop\n      pop\n      jump\t// out\n        /* \"SuperDepositor.sol\":2721:3639  function _joinPool(IAsset[] memory underlyings, uint256 amtIn, uint256 tokenIndex, bytes32 beetsPoolId) internal {... */\n    tag_27:\n        /* \"SuperDepositor.sol\":2845:2859  uint8 joinKind */\n      0x00\n        /* \"SuperDepositor.sol\":2862:2863  1 */\n      0x01\n        /* \"SuperDepositor.sol\":2845:2863  uint8 joinKind = 1 */\n      swap1\n      pop\n        /* \"SuperDepositor.sol\":2956:2982  uint256[] memory amountsIn */\n      0x00\n        /* \"SuperDepositor.sol\":2999:3010  underlyings */\n      dup6\n        /* \"SuperDepositor.sol\":2999:3017  underlyings.length */\n      mload\n        /* \"SuperDepositor.sol\":2985:3018  new uint256[](underlyings.length) */\n      0xffffffffffffffff\n      dup2\n      gt\n      iszero\n      tag_36\n      jumpi\n      tag_37\n      tag_38\n      jump\t// in\n    tag_37:\n    tag_36:\n      mload(0x40)\n      swap1\n      dup1\n      dup3\n      mstore\n      dup1\n      0x20\n      mul\n      0x20\n      add\n      dup3\n      add\n      0x40\n      mstore\n      dup1\n      iszero\n      tag_39\n      jumpi\n      dup2\n      0x20\n      add\n      0x20\n      dup3\n      mul\n      dup1\n      calldatasize\n      dup4\n      calldatacopy\n      dup1\n      dup3\n      add\n      swap2\n      pop\n      pop\n      swap1\n      pop\n    tag_39:\n      pop\n        /* \"SuperDepositor.sol\":2956:3018  uint256[] memory amountsIn = new uint256[](underlyings.length) */\n      swap1\n      pop\n        /* \"SuperDepositor.sol\":3053:3058  amtIn */\n      dup5\n        /* \"SuperDepositor.sol\":3029:3038  amountsIn */\n      dup2\n        /* \"SuperDepositor.sol\":3039:3049  tokenIndex */\n      dup6\n        /* \"SuperDepositor.sol\":3029:3050  amountsIn[tokenIndex] */\n      dup2\n      mload\n      dup2\n      lt\n      tag_40\n      jumpi\n      tag_41\n      tag_16\n      jump\t// in\n    tag_41:\n    tag_40:\n      0x20\n      mul\n      0x20\n      add\n      add\n        /* \"SuperDepositor.sol\":3029:3058  amountsIn[tokenIndex] = amtIn */\n      dup2\n      dup2\n      mstore\n      pop\n      pop\n        /* \"SuperDepositor.sol\":3071:3091  uint256 minAmountOut */\n      0x00\n        /* \"SuperDepositor.sol\":3094:3095  1 */\n      0x01\n        /* \"SuperDepositor.sol\":3071:3095  uint256 minAmountOut = 1 */\n      swap1\n      pop\n        /* \"SuperDepositor.sol\":3147:3168  bytes memory userData */\n      0x00\n        /* \"SuperDepositor.sol\":3182:3190  joinKind */\n      dup4\n        /* \"SuperDepositor.sol\":3192:3201  amountsIn */\n      dup4\n        /* \"SuperDepositor.sol\":3203:3215  minAmountOut */\n      dup4\n        /* \"SuperDepositor.sol\":3171:3216  abi.encode(joinKind, amountsIn, minAmountOut) */\n      add(0x20, mload(0x40))\n      tag_42\n      swap4\n      swap3\n      swap2\n      swap1\n      tag_43\n      jump\t// in\n    tag_42:\n      mload(0x40)\n      0x20\n      dup2\n      dup4\n      sub\n      sub\n      dup2\n      mstore\n      swap1\n      0x40\n      mstore\n        /* \"SuperDepositor.sol\":3147:3216  bytes memory userData = abi.encode(joinKind, amountsIn, minAmountOut) */\n      swap1\n      pop\n        /* \"SuperDepositor.sol\":3229:3270  IBeetVault.JoinPoolRequest memory request */\n      tag_44\n      tag_45\n      jump\t// in\n    tag_44:\n        /* \"SuperDepositor.sol\":3298:3309  underlyings */\n      dup9\n        /* \"SuperDepositor.sol\":3281:3288  request */\n      dup2\n        /* \"SuperDepositor.sol\":3281:3295  request.assets */\n      0x00\n      add\n        /* \"SuperDepositor.sol\":3281:3309  request.assets = underlyings */\n      dup2\n      swap1\n      mstore\n      pop\n        /* \"SuperDepositor.sol\":3343:3352  amountsIn */\n      dup4\n        /* \"SuperDepositor.sol\":3320:3327  request */\n      dup2\n        /* \"SuperDepositor.sol\":3320:3340  request.maxAmountsIn */\n      0x20\n      add\n        /* \"SuperDepositor.sol\":3320:3352  request.maxAmountsIn = amountsIn */\n      dup2\n      swap1\n      mstore\n      pop\n        /* \"SuperDepositor.sol\":3382:3390  userData */\n      dup2\n        /* \"SuperDepositor.sol\":3363:3370  request */\n      dup2\n        /* \"SuperDepositor.sol\":3363:3379  request.userData */\n      0x40\n      add\n        /* \"SuperDepositor.sol\":3363:3390  request.userData = userData */\n      dup2\n      swap1\n      mstore\n      pop\n        /* \"SuperDepositor.sol\":3431:3436  false */\n      0x00\n        /* \"SuperDepositor.sol\":3401:3408  request */\n      dup2\n        /* \"SuperDepositor.sol\":3401:3428  request.fromInternalBalance */\n      0x60\n      add\n        /* \"SuperDepositor.sol\":3401:3436  request.fromInternalBalance = false */\n      swap1\n      iszero\n      iszero\n      swap1\n      dup2\n      iszero\n      iszero\n      dup2\n      mstore\n      pop\n      pop\n        /* \"SuperDepositor.sol\":3449:3539  IERC20Upgradeable(address(underlyings[tokenIndex])).safeIncreaseAllowance(balVault, amtIn) */\n      tag_46\n        /* \"SuperDepositor.sol\":3523:3531  balVault */\n      immutable(\"0xf3c94672c9097e8255317de36dd0d00a9f72d57eeb896861f583a1140be6889a\")\n        /* \"SuperDepositor.sol\":3533:3538  amtIn */\n      dup10\n        /* \"SuperDepositor.sol\":3475:3486  underlyings */\n      dup12\n        /* \"SuperDepositor.sol\":3487:3497  tokenIndex */\n      dup11\n        /* \"SuperDepositor.sol\":3475:3498  underlyings[tokenIndex] */\n      dup2\n      mload\n      dup2\n      lt\n      tag_47\n      jumpi\n      tag_48\n      tag_16\n      jump\t// in\n    tag_48:\n    tag_47:\n      0x20\n      mul\n      0x20\n      add\n      add\n      mload\n        /* \"SuperDepositor.sol\":3449:3522  IERC20Upgradeable(address(underlyings[tokenIndex])).safeIncreaseAllowance */\n      0xffffffffffffffffffffffffffffffffffffffff\n      and\n      tag_49\n      swap1\n        /* \"SuperDepositor.sol\":3449:3539  IERC20Upgradeable(address(underlyings[tokenIndex])).safeIncreaseAllowance(balVault, amtIn) */\n      swap3\n      swap2\n      swap1\n      0xffffffff\n      and\n      jump\t// in\n    tag_46:\n        /* \"SuperDepositor.sol\":3561:3569  balVault */\n      immutable(\"0xf3c94672c9097e8255317de36dd0d00a9f72d57eeb896861f583a1140be6889a\")\n        /* \"SuperDepositor.sol\":3550:3579  IBeetVault(balVault).joinPool */\n      0xffffffffffffffffffffffffffffffffffffffff\n      and\n      0xb95cac28\n        /* \"SuperDepositor.sol\":3580:3591  beetsPoolId */\n      dup8\n        /* \"SuperDepositor.sol\":3601:3605  this */\n      address\n        /* \"SuperDepositor.sol\":3616:3620  this */\n      address\n        /* \"SuperDepositor.sol\":3623:3630  request */\n      dup6\n        /* \"SuperDepositor.sol\":3550:3631  IBeetVault(balVault).joinPool(beetsPoolId, address(this), address(this), request) */\n      mload(0x40)\n      dup6\n      0xffffffff\n      and\n      0xe0\n      shl\n      dup2\n      mstore\n      0x04\n      add\n      tag_50\n      swap5\n      swap4\n      swap3\n      swap2\n      swap1\n      tag_51\n      jump\t// in\n    tag_50:\n      0x00\n      mload(0x40)\n      dup1\n      dup4\n      sub\n      dup2\n      0x00\n      dup8\n      dup1\n      extcodesize\n      iszero\n      dup1\n      iszero\n      tag_52\n      jumpi\n      0x00\n      dup1\n      revert\n    tag_52:\n      pop\n      gas\n      call\n      iszero\n      dup1\n      iszero\n      tag_54\n      jumpi\n      returndatasize\n      0x00\n      dup1\n      returndatacopy\n      revert(0x00, returndatasize)\n    tag_54:\n      pop\n      pop\n      pop\n      pop\n        /* \"SuperDepositor.sol\":2834:3639  {... */\n      pop\n      pop\n      pop\n      pop\n      pop\n        /* \"SuperDepositor.sol\":2721:3639  function _joinPool(IAsset[] memory underlyings, uint256 amtIn, uint256 tokenIndex, bytes32 beetsPoolId) internal {... */\n      pop\n      pop\n      pop\n      pop\n      jump\t// out\n        /* \"SuperDepositor.sol\":1919:2326  function _depositLPToVault(address lp, address vault, address recipient) internal {... */\n    tag_29:\n        /* \"SuperDepositor.sol\":2037:2064  _approveIfNeeded(vault, lp) */\n      tag_56\n        /* \"SuperDepositor.sol\":2054:2059  vault */\n      dup3\n        /* \"SuperDepositor.sol\":2061:2063  lp */\n      dup5\n        /* \"SuperDepositor.sol\":2037:2053  _approveIfNeeded */\n      tag_57\n        /* \"SuperDepositor.sol\":2037:2064  _approveIfNeeded(vault, lp) */\n      jump\t// in\n    tag_56:\n        /* \"SuperDepositor.sol\":2132:2137  vault */\n      dup2\n        /* \"SuperDepositor.sol\":2125:2149  IVault(vault).depositAll */\n      0xffffffffffffffffffffffffffffffffffffffff\n      and\n      0xde5f6268\n        /* \"SuperDepositor.sol\":2125:2151  IVault(vault).depositAll() */\n      mload(0x40)\n      dup2\n      0xffffffff\n      and\n      0xe0\n      shl\n      dup2\n      mstore\n      0x04\n      add\n      0x00\n      mload(0x40)\n      dup1\n      dup4\n      sub\n      dup2\n      0x00\n      dup8\n      dup1\n      extcodesize\n      iszero\n      dup1\n      iszero\n      tag_58\n      jumpi\n      0x00\n      dup1\n      revert\n    tag_58:\n      pop\n      gas\n      call\n      iszero\n      dup1\n      iszero\n      tag_60\n      jumpi\n      returndatasize\n      0x00\n      dup1\n      returndatacopy\n      revert(0x00, returndatasize)\n    tag_60:\n      pop\n      pop\n      pop\n      pop\n        /* \"SuperDepositor.sol\":2193:2217  IERC20Upgradeable shares */\n      0x00\n        /* \"SuperDepositor.sol\":2238:2243  vault */\n      dup3\n        /* \"SuperDepositor.sol\":2193:2244  IERC20Upgradeable shares = IERC20Upgradeable(vault) */\n      swap1\n      pop\n        /* \"SuperDepositor.sol\":2255:2318  shares.safeTransfer(recipient, shares.balanceOf(address(this))) */\n      tag_61\n        /* \"SuperDepositor.sol\":2275:2284  recipient */\n      dup3\n        /* \"SuperDepositor.sol\":2286:2292  shares */\n      dup3\n        /* \"SuperDepositor.sol\":2286:2302  shares.balanceOf */\n      0xffffffffffffffffffffffffffffffffffffffff\n      and\n      0x70a08231\n        /* \"SuperDepositor.sol\":2311:2315  this */\n      address\n        /* \"SuperDepositor.sol\":2286:2317  shares.balanceOf(address(this)) */\n      mload(0x40)\n      dup3\n      0xffffffff\n      and\n      0xe0\n      shl\n      dup2\n      mstore\n      0x04\n      add\n      tag_62\n      swap2\n      swap1\n      tag_8\n      jump\t// in\n    tag_62:\n      0x20\n      mload(0x40)\n      dup1\n      dup4\n      sub\n      dup2\n      dup7\n      gas\n      staticcall\n      iszero\n      dup1\n      iszero\n      tag_64\n      jumpi\n      returndatasize\n      0x00\n      dup1\n      returndatacopy\n      revert(0x00, returndatasize)\n    tag_64:\n      pop\n      pop\n      pop\n      pop\n      mload(0x40)\n      returndatasize\n      not(0x1f)\n      0x1f\n      dup3\n      add\n      and\n      dup3\n      add\n      dup1\n      0x40\n      mstore\n      pop\n      dup2\n      add\n      swap1\n      tag_65\n      swap2\n      swap1\n      tag_66\n      jump\t// in\n    tag_65:\n        /* \"SuperDepositor.sol\":2255:2261  shares */\n      dup4\n        /* \"SuperDepositor.sol\":2255:2274  shares.safeTransfer */\n      0xffffffffffffffffffffffffffffffffffffffff\n      and\n      tag_67\n      swap1\n        /* \"SuperDepositor.sol\":2255:2318  shares.safeTransfer(recipient, shares.balanceOf(address(this))) */\n      swap3\n      swap2\n      swap1\n      0xffffffff\n      and\n      jump\t// in\n    tag_61:\n        /* \"SuperDepositor.sol\":2001:2326  {... */\n      pop\n        /* \"SuperDepositor.sol\":1919:2326  function _depositLPToVault(address lp, address vault, address recipient) internal {... */\n      pop\n      pop\n      pop\n      jump\t// out\n        /* \"@openzeppelin/contracts-upgradeable/token/ERC20/utils/SafeERC20Upgradeable.sol\":3306:4023  function _callOptionalReturn(IERC20Upgradeable token, bytes memory data) private {... */\n    tag_34:\n        /* \"@openzeppelin/contracts-upgradeable/token/ERC20/utils/SafeERC20Upgradeable.sol\":3736:3759  bytes memory returndata */\n      0x00\n        /* \"@openzeppelin/contracts-upgradeable/token/ERC20/utils/SafeERC20Upgradeable.sol\":3762:3831  address(token).functionCall(data, \"SafeERC20: low-level call failed\") */\n      tag_69\n        /* \"@openzeppelin/contracts-upgradeable/token/ERC20/utils/SafeERC20Upgradeable.sol\":3790:3794  data */\n      dup3\n        /* \"@openzeppelin/contracts-upgradeable/token/ERC20/utils/SafeERC20Upgradeable.sol\":3762:3831  address(token).functionCall(data, \"SafeERC20: low-level call failed\") */\n      mload(0x40)\n      dup1\n      0x40\n      add\n      0x40\n      mstore\n      dup1\n      0x20\n      dup2\n      mstore\n      0x20\n      add\n      0x5361666545524332303a206c6f772d6c6576656c2063616c6c206661696c6564\n      dup2\n      mstore\n      pop\n        /* \"@openzeppelin/contracts-upgradeable/token/ERC20/utils/SafeERC20Upgradeable.sol\":3770:3775  token */\n      dup6\n        /* \"@openzeppelin/contracts-upgradeable/token/ERC20/utils/SafeERC20Upgradeable.sol\":3762:3789  address(token).functionCall */\n      0xffffffffffffffffffffffffffffffffffffffff\n      and\n      tag_70\n      swap1\n        /* \"@openzeppelin/contracts-upgradeable/token/ERC20/utils/SafeERC20Upgradeable.sol\":3762:3831  address(token).functionCall(data, \"SafeERC20: low-level call failed\") */\n      swap3\n      swap2\n      swap1\n      0xffffffff\n      and\n      jump\t// in\n    tag_69:\n        /* \"@openzeppelin/contracts-upgradeable/token/ERC20/utils/SafeERC20Upgradeable.sol\":3736:3831  bytes memory returndata = address(token).functionCall(data, \"SafeERC20: low-level call failed\") */\n      swap1\n      pop\n        /* \"@openzeppelin/contracts-upgradeable/token/ERC20/utils/SafeERC20Upgradeable.sol\":3865:3866  0 */\n      0x00\n        /* \"@openzeppelin/contracts-upgradeable/token/ERC20/utils/SafeERC20Upgradeable.sol\":3845:3855  returndata */\n      dup2\n        /* \"@openzeppelin/contracts-upgradeable/token/ERC20/utils/SafeERC20Upgradeable.sol\":3845:3862  returndata.length */\n      mload\n        /* \"@openzeppelin/contracts-upgradeable/token/ERC20/utils/SafeERC20Upgradeable.sol\":3845:3866  returndata.length > 0 */\n      gt\n        /* \"@openzeppelin/contracts-upgradeable/token/ERC20/utils/SafeERC20Upgradeable.sol\":3841:4017  if (returndata.length > 0) {... */\n      iszero\n      tag_71\n      jumpi\n        /* \"@openzeppelin/contracts-upgradeable/token/ERC20/utils/SafeERC20Upgradeable.sol\":3940:3950  returndata */\n      dup1\n        /* \"@openzeppelin/contracts-upgradeable/token/ERC20/utils/SafeERC20Upgradeable.sol\":3929:3959  abi.decode(returndata, (bool)) */\n      dup1\n      0x20\n      add\n      swap1\n      mload\n      dup2\n      add\n      swap1\n      tag_72\n      swap2\n      swap1\n      tag_73\n      jump\t// in\n    tag_72:\n        /* \"@openzeppelin/contracts-upgradeable/token/ERC20/utils/SafeERC20Upgradeable.sol\":3921:4006  require(abi.decode(returndata, (bool)), \"SafeERC20: ERC20 operation did not succeed\") */\n      tag_74\n      jumpi\n      mload(0x40)\n      0x08c379a000000000000000000000000000000000000000000000000000000000\n      dup2\n      mstore\n      0x04\n      add\n      tag_75\n      swap1\n      tag_76\n      jump\t// in\n    tag_75:\n      mload(0x40)\n      dup1\n      swap2\n      sub\n      swap1\n      revert\n    tag_74:\n        /* \"@openzeppelin/contracts-upgradeable/token/ERC20/utils/SafeERC20Upgradeable.sol\":3841:4017  if (returndata.length > 0) {... */\n    tag_71:\n        /* \"@openzeppelin/contracts-upgradeable/token/ERC20/utils/SafeERC20Upgradeable.sol\":3387:4023  {... */\n      pop\n        /* \"@openzeppelin/contracts-upgradeable/token/ERC20/utils/SafeERC20Upgradeable.sol\":3306:4023  function _callOptionalReturn(IERC20Upgradeable token, bytes memory data) private {... */\n      pop\n      pop\n      jump\t// out\n        /* \"@openzeppelin/contracts-upgradeable/token/ERC20/utils/SafeERC20Upgradeable.sol\":2099:2420  function safeIncreaseAllowance(... */\n    tag_49:\n        /* \"@openzeppelin/contracts-upgradeable/token/ERC20/utils/SafeERC20Upgradeable.sol\":2236:2256  uint256 newAllowance */\n      0x00\n        /* \"@openzeppelin/contracts-upgradeable/token/ERC20/utils/SafeERC20Upgradeable.sol\":2301:2306  value */\n      dup2\n        /* \"@openzeppelin/contracts-upgradeable/token/ERC20/utils/SafeERC20Upgradeable.sol\":2259:2264  token */\n      dup5\n        /* \"@openzeppelin/contracts-upgradeable/token/ERC20/utils/SafeERC20Upgradeable.sol\":2259:2274  token.allowance */\n      0xffffffffffffffffffffffffffffffffffffffff\n      and\n      0xdd62ed3e\n        /* \"@openzeppelin/contracts-upgradeable/token/ERC20/utils/SafeERC20Upgradeable.sol\":2283:2287  this */\n      address\n        /* \"@openzeppelin/contracts-upgradeable/token/ERC20/utils/SafeERC20Upgradeable.sol\":2290:2297  spender */\n      dup7\n        /* \"@openzeppelin/contracts-upgradeable/token/ERC20/utils/SafeERC20Upgradeable.sol\":2259:2298  token.allowance(address(this), spender) */\n      mload(0x40)\n      dup4\n      0xffffffff\n      and\n      0xe0\n      shl\n      dup2\n      mstore\n      0x04\n      add\n      tag_78\n      swap3\n      swap2\n      swap1\n      tag_79\n      jump\t// in\n    tag_78:\n      0x20\n      mload(0x40)\n      dup1\n      dup4\n      sub\n      dup2\n      dup7\n      gas\n      staticcall\n      iszero\n      dup1\n      iszero\n      tag_81\n      jumpi\n      returndatasize\n      0x00\n      dup1\n      returndatacopy\n      revert(0x00, returndatasize)\n    tag_81:\n      pop\n      pop\n      pop\n      pop\n      mload(0x40)\n      returndatasize\n      not(0x1f)\n      0x1f\n      dup3\n      add\n      and\n      dup3\n      add\n      dup1\n      0x40\n      mstore\n      pop\n      dup2\n      add\n      swap1\n      tag_82\n      swap2\n      swap1\n      tag_66\n      jump\t// in\n    tag_82:\n        /* \"@openzeppelin/contracts-upgradeable/token/ERC20/utils/SafeERC20Upgradeable.sol\":2259:2306  token.allowance(address(this), spender) + value */\n      tag_83\n      swap2\n      swap1\n      tag_84\n      jump\t// in\n    tag_83:\n        /* \"@openzeppelin/contracts-upgradeable/token/ERC20/utils/SafeERC20Upgradeable.sol\":2236:2306  uint256 newAllowance = token.allowance(address(this), spender) + value */\n      swap1\n      pop\n        /* \"@openzeppelin/contracts-upgradeable/token/ERC20/utils/SafeERC20Upgradeable.sol\":2316:2413  _callOptionalReturn(token, abi.encodeWithSelector(token.approve.selector, spender, newAllowance)) */\n      tag_85\n        /* \"@openzeppelin/contracts-upgradeable/token/ERC20/utils/SafeERC20Upgradeable.sol\":2336:2341  token */\n      dup5\n        /* \"@openzeppelin/contracts-upgradeable/token/ERC20/utils/SafeERC20Upgradeable.sol\":2366:2388  token.approve.selector */\n      shl(0xe0, 0x095ea7b3)\n        /* \"@openzeppelin/contracts-upgradeable/token/ERC20/utils/SafeERC20Upgradeable.sol\":2390:2397  spender */\n      dup6\n        /* \"@openzeppelin/contracts-upgradeable/token/ERC20/utils/SafeERC20Upgradeable.sol\":2399:2411  newAllowance */\n      dup5\n        /* \"@openzeppelin/contracts-upgradeable/token/ERC20/utils/SafeERC20Upgradeable.sol\":2343:2412  abi.encodeWithSelector(token.approve.selector, spender, newAllowance) */\n      add(0x24, mload(0x40))\n      tag_86\n      swap3\n      swap2\n      swap1\n      tag_87\n      jump\t// in\n    tag_86:\n      mload(0x40)\n      0x20\n      dup2\n      dup4\n      sub\n      sub\n      dup2\n      mstore\n      swap1\n      0x40\n      mstore\n      swap1\n      not(0xffffffffffffffffffffffffffffffffffffffffffffffffffffffff)\n      and\n      0x20\n      dup3\n      add\n      dup1\n      mload\n      0xffffffffffffffffffffffffffffffffffffffffffffffffffffffff\n      dup4\n      dup2\n      dup4\n      and\n      or\n      dup4\n      mstore\n      pop\n      pop\n      pop\n      pop\n        /* \"@openzeppelin/contracts-upgradeable/token/ERC20/utils/SafeERC20Upgradeable.sol\":2316:2335  _callOptionalReturn */\n      tag_34\n        /* \"@openzeppelin/contracts-upgradeable/token/ERC20/utils/SafeERC20Upgradeable.sol\":2316:2413  _callOptionalReturn(token, abi.encodeWithSelector(token.approve.selector, spender, newAllowance)) */\n      jump\t// in\n    tag_85:\n        /* \"@openzeppelin/contracts-upgradeable/token/ERC20/utils/SafeERC20Upgradeable.sol\":2226:2420  {... */\n      pop\n        /* \"@openzeppelin/contracts-upgradeable/token/ERC20/utils/SafeERC20Upgradeable.sol\":2099:2420  function safeIncreaseAllowance(... */\n      pop\n      pop\n      pop\n      jump\t// out\n        /* \"SuperDepositor.sol\":2334:2621  function _approveIfNeeded(address spender, address token) internal {... */\n    tag_57:\n        /* \"SuperDepositor.sol\":2412:2435  IERC20Upgradeable token */\n      0x00\n        /* \"SuperDepositor.sol\":2456:2461  token */\n      dup2\n        /* \"SuperDepositor.sol\":2412:2462  IERC20Upgradeable token = IERC20Upgradeable(token) */\n      swap1\n      pop\n        /* \"SuperDepositor.sol\":2528:2529  0 */\n      0x00\n        /* \"SuperDepositor.sol\":2477:2482  token */\n      dup2\n        /* \"SuperDepositor.sol\":2477:2492  token.allowance */\n      0xffffffffffffffffffffffffffffffffffffffff\n      and\n      0xdd62ed3e\n        /* \"SuperDepositor.sol\":2501:2505  this */\n      address\n        /* \"SuperDepositor.sol\":2508:2515  spender */\n      dup7\n        /* \"SuperDepositor.sol\":2477:2516  token.allowance(address(this), spender) */\n      mload(0x40)\n      dup4\n      0xffffffff\n      and\n      0xe0\n      shl\n      dup2\n      mstore\n      0x04\n      add\n      tag_89\n      swap3\n      swap2\n      swap1\n      tag_79\n      jump\t// in\n    tag_89:\n      0x20\n      mload(0x40)\n      dup1\n      dup4\n      sub\n      dup2\n      dup7\n      gas\n      staticcall\n      iszero\n      dup1\n      iszero\n      tag_91\n      jumpi\n      returndatasize\n      0x00\n      dup1\n      returndatacopy\n      revert(0x00, returndatasize)\n    tag_91:\n      pop\n      pop\n      pop\n      pop\n      mload(0x40)\n      returndatasize\n      not(0x1f)\n      0x1f\n      dup3\n      add\n      and\n      dup3\n      add\n      dup1\n      0x40\n      mstore\n      pop\n      dup2\n      add\n      swap1\n      tag_92\n      swap2\n      swap1\n      tag_66\n      jump\t// in\n    tag_92:\n        /* \"SuperDepositor.sol\":2477:2530  token.allowance(address(this), spender) == uint256(0) */\n      sub\n        /* \"SuperDepositor.sol\":2473:2614  if (token.allowance(address(this), spender) == uint256(0)) {... */\n      tag_93\n      jumpi\n        /* \"SuperDepositor.sol\":2547:2602  token.safeIncreaseAllowance(spender, type(uint256).max) */\n      tag_94\n        /* \"SuperDepositor.sol\":2575:2582  spender */\n      dup4\n        /* \"SuperDepositor.sol\":2584:2601  type(uint256).max */\n      0xffffffffffffffffffffffffffffffffffffffffffffffffffffffffffffffff\n        /* \"SuperDepositor.sol\":2547:2552  token */\n      dup4\n        /* \"SuperDepositor.sol\":2547:2574  token.safeIncreaseAllowance */\n      0xffffffffffffffffffffffffffffffffffffffff\n      and\n      tag_49\n      swap1\n        /* \"SuperDepositor.sol\":2547:2602  token.safeIncreaseAllowance(spender, type(uint256).max) */\n      swap3\n      swap2\n      swap1\n      0xffffffff\n      and\n      jump\t// in\n    tag_94:\n        /* \"SuperDepositor.sol\":2473:2614  if (token.allowance(address(this), spender) == uint256(0)) {... */\n    tag_93:\n        /* \"SuperDepositor.sol\":2401:2621  {... */\n      pop\n        /* \"SuperDepositor.sol\":2334:2621  function _approveIfNeeded(address spender, address token) internal {... */\n      pop\n      pop\n      jump\t// out\n        /* \"@openzeppelin/contracts-upgradeable/token/ERC20/utils/SafeERC20Upgradeable.sol\":745:961  function safeTransfer(... */\n    tag_67:\n        /* \"@openzeppelin/contracts-upgradeable/token/ERC20/utils/SafeERC20Upgradeable.sol\":868:954  _callOptionalReturn(token, abi.encodeWithSelector(token.transfer.selector, to, value)) */\n      tag_96\n        /* \"@openzeppelin/contracts-upgradeable/token/ERC20/utils/SafeERC20Upgradeable.sol\":888:893  token */\n      dup4\n        /* \"@openzeppelin/contracts-upgradeable/token/ERC20/utils/SafeERC20Upgradeable.sol\":918:941  token.transfer.selector */\n      shl(0xe0, 0xa9059cbb)\n        /* \"@openzeppelin/contracts-upgradeable/token/ERC20/utils/SafeERC20Upgradeable.sol\":943:945  to */\n      dup5\n        /* \"@openzeppelin/contracts-upgradeable/token/ERC20/utils/SafeERC20Upgradeable.sol\":947:952  value */\n      dup5\n        /* \"@openzeppelin/contracts-upgradeable/token/ERC20/utils/SafeERC20Upgradeable.sol\":895:953  abi.encodeWithSelector(token.transfer.selector, to, value) */\n      add(0x24, mload(0x40))\n      tag_97\n      swap3\n      swap2\n      swap1\n      tag_87\n      jump\t// in\n    tag_97:\n      mload(0x40)\n      0x20\n      dup2\n      dup4\n      sub\n      sub\n      dup2\n      mstore\n      swap1\n      0x40\n      mstore\n      swap1\n      not(0xffffffffffffffffffffffffffffffffffffffffffffffffffffffff)\n      and\n      0x20\n      dup3\n      add\n      dup1\n      mload\n      0xffffffffffffffffffffffffffffffffffffffffffffffffffffffff\n      dup4\n      dup2\n      dup4\n      and\n      or\n      dup4\n      mstore\n      pop\n      pop\n      pop\n      pop\n        /* \"@openzeppelin/contracts-upgradeable/token/ERC20/utils/SafeERC20Upgradeable.sol\":868:887  _callOptionalReturn */\n      tag_34\n        /* \"@openzeppelin/contracts-upgradeable/token/ERC20/utils/SafeERC20Upgradeable.sol\":868:954  _callOptionalReturn(token, abi.encodeWithSelector(token.transfer.selector, to, value)) */\n      jump\t// in\n    tag_96:\n        /* \"@openzeppelin/contracts-upgradeable/token/ERC20/utils/SafeERC20Upgradeable.sol\":745:961  function safeTransfer(... */\n      pop\n      pop\n      pop\n      jump\t// out\n        /* \"@openzeppelin/contracts-upgradeable/utils/AddressUpgradeable.sol\":3872:4095  function functionCall(... */\n    tag_70:\n        /* \"@openzeppelin/contracts-upgradeable/utils/AddressUpgradeable.sol\":4005:4017  bytes memory */\n      0x60\n        /* \"@openzeppelin/contracts-upgradeable/utils/AddressUpgradeable.sol\":4036:4088  functionCallWithValue(target, data, 0, errorMessage) */\n      tag_99\n        /* \"@openzeppelin/contracts-upgradeable/utils/AddressUpgradeable.sol\":4058:4064  target */\n      dup5\n        /* \"@openzeppelin/contracts-upgradeable/utils/AddressUpgradeable.sol\":4066:4070  data */\n      dup5\n        /* \"@openzeppelin/contracts-upgradeable/utils/AddressUpgradeable.sol\":4072:4073  0 */\n      0x00\n        /* \"@openzeppelin/contracts-upgradeable/utils/AddressUpgradeable.sol\":4075:4087  errorMessage */\n      dup6\n        /* \"@openzeppelin/contracts-upgradeable/utils/AddressUpgradeable.sol\":4036:4057  functionCallWithValue */\n      tag_100\n        /* \"@openzeppelin/contracts-upgradeable/utils/AddressUpgradeable.sol\":4036:4088  functionCallWithValue(target, data, 0, errorMessage) */\n      jump\t// in\n    tag_99:\n        /* \"@openzeppelin/contracts-upgradeable/utils/AddressUpgradeable.sol\":4029:4088  return functionCallWithValue(target, data, 0, errorMessage) */\n      swap1\n      pop\n        /* \"@openzeppelin/contracts-upgradeable/utils/AddressUpgradeable.sol\":3872:4095  function functionCall(... */\n      swap4\n      swap3\n      pop\n      pop\n      pop\n      jump\t// out\n        /* \"@openzeppelin/contracts-upgradeable/utils/AddressUpgradeable.sol\":4959:5458  function functionCallWithValue(... */\n    tag_100:\n        /* \"@openzeppelin/contracts-upgradeable/utils/AddressUpgradeable.sol\":5124:5136  bytes memory */\n      0x60\n        /* \"@openzeppelin/contracts-upgradeable/utils/AddressUpgradeable.sol\":5181:5186  value */\n      dup3\n        /* \"@openzeppelin/contracts-upgradeable/utils/AddressUpgradeable.sol\":5156:5177  address(this).balance */\n      selfbalance\n        /* \"@openzeppelin/contracts-upgradeable/utils/AddressUpgradeable.sol\":5156:5186  address(this).balance >= value */\n      lt\n      iszero\n        /* \"@openzeppelin/contracts-upgradeable/utils/AddressUpgradeable.sol\":5148:5229  require(address(this).balance >= value, \"Address: insufficient balance for call\") */\n      tag_102\n      jumpi\n      mload(0x40)\n      0x08c379a000000000000000000000000000000000000000000000000000000000\n      dup2\n      mstore\n      0x04\n      add\n      tag_103\n      swap1\n      tag_104\n      jump\t// in\n    tag_103:\n      mload(0x40)\n      dup1\n      swap2\n      sub\n      swap1\n      revert\n    tag_102:\n        /* \"@openzeppelin/contracts-upgradeable/utils/AddressUpgradeable.sol\":5247:5265  isContract(target) */\n      tag_105\n        /* \"@openzeppelin/contracts-upgradeable/utils/AddressUpgradeable.sol\":5258:5264  target */\n      dup6\n        /* \"@openzeppelin/contracts-upgradeable/utils/AddressUpgradeable.sol\":5247:5257  isContract */\n      tag_106\n        /* \"@openzeppelin/contracts-upgradeable/utils/AddressUpgradeable.sol\":5247:5265  isContract(target) */\n      jump\t// in\n    tag_105:\n        /* \"@openzeppelin/contracts-upgradeable/utils/AddressUpgradeable.sol\":5239:5299  require(isContract(target), \"Address: call to non-contract\") */\n      tag_107\n      jumpi\n      mload(0x40)\n      0x08c379a000000000000000000000000000000000000000000000000000000000\n      dup2\n      mstore\n      0x04\n      add\n      tag_108\n      swap1\n      tag_109\n      jump\t// in\n    tag_108:\n      mload(0x40)\n      dup1\n      swap2\n      sub\n      swap1\n      revert\n    tag_107:\n        /* \"@openzeppelin/contracts-upgradeable/utils/AddressUpgradeable.sol\":5311:5323  bool success */\n      0x00\n        /* \"@openzeppelin/contracts-upgradeable/utils/AddressUpgradeable.sol\":5325:5348  bytes memory returndata */\n      dup1\n        /* \"@openzeppelin/contracts-upgradeable/utils/AddressUpgradeable.sol\":5352:5358  target */\n      dup7\n        /* \"@openzeppelin/contracts-upgradeable/utils/AddressUpgradeable.sol\":5352:5363  target.call */\n      0xffffffffffffffffffffffffffffffffffffffff\n      and\n        /* \"@openzeppelin/contracts-upgradeable/utils/AddressUpgradeable.sol\":5371:5376  value */\n      dup6\n        /* \"@openzeppelin/contracts-upgradeable/utils/AddressUpgradeable.sol\":5378:5382  data */\n      dup8\n        /* \"@openzeppelin/contracts-upgradeable/utils/AddressUpgradeable.sol\":5352:5383  target.call{value: value}(data) */\n      mload(0x40)\n      tag_110\n      swap2\n      swap1\n      tag_111\n      jump\t// in\n    tag_110:\n      0x00\n      mload(0x40)\n      dup1\n      dup4\n      sub\n      dup2\n      dup6\n      dup8\n      gas\n      call\n      swap3\n      pop\n      pop\n      pop\n      returndatasize\n      dup1\n      0x00\n      dup2\n      eq\n      tag_114\n      jumpi\n      mload(0x40)\n      swap2\n      pop\n      and(add(returndatasize, 0x3f), not(0x1f))\n      dup3\n      add\n      0x40\n      mstore\n      returndatasize\n      dup3\n      mstore\n      returndatasize\n      0x00\n      0x20\n      dup5\n      add\n      returndatacopy\n      jump(tag_113)\n    tag_114:\n      0x60\n      swap2\n      pop\n    tag_113:\n      pop\n        /* \"@openzeppelin/contracts-upgradeable/utils/AddressUpgradeable.sol\":5310:5383  (bool success, bytes memory returndata) = target.call{value: value}(data) */\n      swap2\n      pop\n      swap2\n      pop\n        /* \"@openzeppelin/contracts-upgradeable/utils/AddressUpgradeable.sol\":5400:5451  verifyCallResult(success, returndata, errorMessage) */\n      tag_115\n        /* \"@openzeppelin/contracts-upgradeable/utils/AddressUpgradeable.sol\":5417:5424  success */\n      dup3\n        /* \"@openzeppelin/contracts-upgradeable/utils/AddressUpgradeable.sol\":5426:5436  returndata */\n      dup3\n        /* \"@openzeppelin/contracts-upgradeable/utils/AddressUpgradeable.sol\":5438:5450  errorMessage */\n      dup7\n        /* \"@openzeppelin/contracts-upgradeable/utils/AddressUpgradeable.sol\":5400:5416  verifyCallResult */\n      tag_116\n        /* \"@openzeppelin/contracts-upgradeable/utils/AddressUpgradeable.sol\":5400:5451  verifyCallResult(success, returndata, errorMessage) */\n      jump\t// in\n    tag_115:\n        /* \"@openzeppelin/contracts-upgradeable/utils/AddressUpgradeable.sol\":5393:5451  return verifyCallResult(success, returndata, errorMessage) */\n      swap3\n      pop\n      pop\n      pop\n        /* \"@openzeppelin/contracts-upgradeable/utils/AddressUpgradeable.sol\":4959:5458  function functionCallWithValue(... */\n      swap5\n      swap4\n      pop\n      pop\n      pop\n      pop\n      jump\t// out\n        /* \"@openzeppelin/contracts-upgradeable/utils/AddressUpgradeable.sol\":1186:1506  function isContract(address account) internal view returns (bool) {... */\n    tag_106:\n        /* \"@openzeppelin/contracts-upgradeable/utils/AddressUpgradeable.sol\":1246:1250  bool */\n      0x00\n        /* \"@openzeppelin/contracts-upgradeable/utils/AddressUpgradeable.sol\":1498:1499  0 */\n      dup1\n        /* \"@openzeppelin/contracts-upgradeable/utils/AddressUpgradeable.sol\":1476:1483  account */\n      dup3\n        /* \"@openzeppelin/contracts-upgradeable/utils/AddressUpgradeable.sol\":1476:1495  account.code.length */\n      0xffffffffffffffffffffffffffffffffffffffff\n      and\n      extcodesize\n        /* \"@openzeppelin/contracts-upgradeable/utils/AddressUpgradeable.sol\":1476:1499  account.code.length > 0 */\n      gt\n        /* \"@openzeppelin/contracts-upgradeable/utils/AddressUpgradeable.sol\":1469:1499  return account.code.length > 0 */\n      swap1\n      pop\n        /* \"@openzeppelin/contracts-upgradeable/utils/AddressUpgradeable.sol\":1186:1506  function isContract(address account) internal view returns (bool) {... */\n      swap2\n      swap1\n      pop\n      jump\t// out\n        /* \"@openzeppelin/contracts-upgradeable/utils/AddressUpgradeable.sol\":6622:7314  function verifyCallResult(... */\n    tag_116:\n        /* \"@openzeppelin/contracts-upgradeable/utils/AddressUpgradeable.sol\":6768:6780  bytes memory */\n      0x60\n        /* \"@openzeppelin/contracts-upgradeable/utils/AddressUpgradeable.sol\":6796:6803  success */\n      dup4\n        /* \"@openzeppelin/contracts-upgradeable/utils/AddressUpgradeable.sol\":6792:7308  if (success) {... */\n      iszero\n      tag_119\n      jumpi\n        /* \"@openzeppelin/contracts-upgradeable/utils/AddressUpgradeable.sol\":6826:6836  returndata */\n      dup3\n        /* \"@openzeppelin/contracts-upgradeable/utils/AddressUpgradeable.sol\":6819:6836  return returndata */\n      swap1\n      pop\n      jump(tag_118)\n        /* \"@openzeppelin/contracts-upgradeable/utils/AddressUpgradeable.sol\":6792:7308  if (success) {... */\n    tag_119:\n        /* \"@openzeppelin/contracts-upgradeable/utils/AddressUpgradeable.sol\":6957:6958  0 */\n      0x00\n        /* \"@openzeppelin/contracts-upgradeable/utils/AddressUpgradeable.sol\":6937:6947  returndata */\n      dup4\n        /* \"@openzeppelin/contracts-upgradeable/utils/AddressUpgradeable.sol\":6937:6954  returndata.length */\n      mload\n        /* \"@openzeppelin/contracts-upgradeable/utils/AddressUpgradeable.sol\":6937:6958  returndata.length > 0 */\n      gt\n        /* \"@openzeppelin/contracts-upgradeable/utils/AddressUpgradeable.sol\":6933:7298  if (returndata.length > 0) {... */\n      iszero\n      tag_121\n      jumpi\n        /* \"@openzeppelin/contracts-upgradeable/utils/AddressUpgradeable.sol\":7131:7141  returndata */\n      dup3\n        /* \"@openzeppelin/contracts-upgradeable/utils/AddressUpgradeable.sol\":7125:7142  mload(returndata) */\n      mload\n        /* \"@openzeppelin/contracts-upgradeable/utils/AddressUpgradeable.sol\":7191:7206  returndata_size */\n      dup1\n        /* \"@openzeppelin/contracts-upgradeable/utils/AddressUpgradeable.sol\":7178:7188  returndata */\n      dup5\n        /* \"@openzeppelin/contracts-upgradeable/utils/AddressUpgradeable.sol\":7174:7176  32 */\n      0x20\n        /* \"@openzeppelin/contracts-upgradeable/utils/AddressUpgradeable.sol\":7170:7189  add(32, returndata) */\n      add\n        /* \"@openzeppelin/contracts-upgradeable/utils/AddressUpgradeable.sol\":7163:7207  revert(add(32, returndata), returndata_size) */\n      revert\n        /* \"@openzeppelin/contracts-upgradeable/utils/AddressUpgradeable.sol\":6933:7298  if (returndata.length > 0) {... */\n    tag_121:\n        /* \"@openzeppelin/contracts-upgradeable/utils/AddressUpgradeable.sol\":7270:7282  errorMessage */\n      dup2\n        /* \"@openzeppelin/contracts-upgradeable/utils/AddressUpgradeable.sol\":7263:7283  revert(errorMessage) */\n      mload(0x40)\n      0x08c379a000000000000000000000000000000000000000000000000000000000\n      dup2\n      mstore\n      0x04\n      add\n      tag_123\n      swap2\n      swap1\n      tag_124\n      jump\t// in\n    tag_123:\n      mload(0x40)\n      dup1\n      swap2\n      sub\n      swap1\n      revert\n        /* \"@openzeppelin/contracts-upgradeable/utils/AddressUpgradeable.sol\":6622:7314  function verifyCallResult(... */\n    tag_118:\n      swap4\n      swap3\n      pop\n      pop\n      pop\n      jump\t// out\n    tag_45:\n      mload(0x40)\n      dup1\n      0x80\n      add\n      0x40\n      mstore\n      dup1\n      0x60\n      dup2\n      mstore\n      0x20\n      add\n      0x60\n      dup2\n      mstore\n      0x20\n      add\n      0x60\n      dup2\n      mstore\n      0x20\n      add\n      iszero(iszero(0x00))\n      dup2\n      mstore\n      pop\n      swap1\n      jump\t// out\n        /* \"#utility.yul\":7:133   */\n    tag_125:\n        /* \"#utility.yul\":44:51   */\n      0x00\n        /* \"#utility.yul\":84:126   */\n      0xffffffffffffffffffffffffffffffffffffffff\n        /* \"#utility.yul\":77:82   */\n      dup3\n        /* \"#utility.yul\":73:127   */\n      and\n        /* \"#utility.yul\":62:127   */\n      swap1\n      pop\n        /* \"#utility.yul\":7:133   */\n      swap2\n      swap1\n      pop\n      jump\t// out\n        /* \"#utility.yul\":139:235   */\n    tag_126:\n        /* \"#utility.yul\":176:183   */\n      0x00\n        /* \"#utility.yul\":205:229   */\n      tag_202\n        /* \"#utility.yul\":223:228   */\n      dup3\n        /* \"#utility.yul\":205:229   */\n      tag_125\n      jump\t// in\n    tag_202:\n        /* \"#utility.yul\":194:229   */\n      swap1\n      pop\n        /* \"#utility.yul\":139:235   */\n      swap2\n      swap1\n      pop\n      jump\t// out\n        /* \"#utility.yul\":241:359   */\n    tag_127:\n        /* \"#utility.yul\":328:352   */\n      tag_204\n        /* \"#utility.yul\":346:351   */\n      dup2\n        /* \"#utility.yul\":328:352   */\n      tag_126\n      jump\t// in\n    tag_204:\n        /* \"#utility.yul\":323:326   */\n      dup3\n        /* \"#utility.yul\":316:353   */\n      mstore\n        /* \"#utility.yul\":241:359   */\n      pop\n      pop\n      jump\t// out\n        /* \"#utility.yul\":365:587   */\n    tag_8:\n        /* \"#utility.yul\":458:462   */\n      0x00\n        /* \"#utility.yul\":496:498   */\n      0x20\n        /* \"#utility.yul\":485:494   */\n      dup3\n        /* \"#utility.yul\":481:499   */\n      add\n        /* \"#utility.yul\":473:499   */\n      swap1\n      pop\n        /* \"#utility.yul\":509:580   */\n      tag_206\n        /* \"#utility.yul\":577:578   */\n      0x00\n        /* \"#utility.yul\":566:575   */\n      dup4\n        /* \"#utility.yul\":562:579   */\n      add\n        /* \"#utility.yul\":553:559   */\n      dup5\n        /* \"#utility.yul\":509:580   */\n      tag_127\n      jump\t// in\n    tag_206:\n        /* \"#utility.yul\":365:587   */\n      swap3\n      swap2\n      pop\n      pop\n      jump\t// out\n        /* \"#utility.yul\":593:668   */\n    tag_128:\n        /* \"#utility.yul\":626:632   */\n      0x00\n        /* \"#utility.yul\":659:661   */\n      0x40\n        /* \"#utility.yul\":653:662   */\n      mload\n        /* \"#utility.yul\":643:662   */\n      swap1\n      pop\n        /* \"#utility.yul\":593:668   */\n      swap1\n      jump\t// out\n        /* \"#utility.yul\":674:791   */\n    tag_129:\n        /* \"#utility.yul\":783:784   */\n      0x00\n        /* \"#utility.yul\":780:781   */\n      dup1\n        /* \"#utility.yul\":773:785   */\n      revert\n        /* \"#utility.yul\":797:914   */\n    tag_130:\n        /* \"#utility.yul\":906:907   */\n      0x00\n        /* \"#utility.yul\":903:904   */\n      dup1\n        /* \"#utility.yul\":896:908   */\n      revert\n        /* \"#utility.yul\":920:1042   */\n    tag_131:\n        /* \"#utility.yul\":993:1017   */\n      tag_211\n        /* \"#utility.yul\":1011:1016   */\n      dup2\n        /* \"#utility.yul\":993:1017   */\n      tag_126\n      jump\t// in\n    tag_211:\n        /* \"#utility.yul\":986:991   */\n      dup2\n        /* \"#utility.yul\":983:1018   */\n      eq\n        /* \"#utility.yul\":973:1036   */\n      tag_212\n      jumpi\n        /* \"#utility.yul\":1032:1033   */\n      0x00\n        /* \"#utility.yul\":1029:1030   */\n      dup1\n        /* \"#utility.yul\":1022:1034   */\n      revert\n        /* \"#utility.yul\":973:1036   */\n    tag_212:\n        /* \"#utility.yul\":920:1042   */\n      pop\n      jump\t// out\n        /* \"#utility.yul\":1048:1187   */\n    tag_132:\n        /* \"#utility.yul\":1094:1099   */\n      0x00\n        /* \"#utility.yul\":1132:1138   */\n      dup2\n        /* \"#utility.yul\":1119:1139   */\n      calldataload\n        /* \"#utility.yul\":1110:1139   */\n      swap1\n      pop\n        /* \"#utility.yul\":1148:1181   */\n      tag_214\n        /* \"#utility.yul\":1175:1180   */\n      dup2\n        /* \"#utility.yul\":1148:1181   */\n      tag_131\n      jump\t// in\n    tag_214:\n        /* \"#utility.yul\":1048:1187   */\n      swap3\n      swap2\n      pop\n      pop\n      jump\t// out\n        /* \"#utility.yul\":1193:1310   */\n    tag_133:\n        /* \"#utility.yul\":1302:1303   */\n      0x00\n        /* \"#utility.yul\":1299:1300   */\n      dup1\n        /* \"#utility.yul\":1292:1304   */\n      revert\n        /* \"#utility.yul\":1316:1418   */\n    tag_134:\n        /* \"#utility.yul\":1357:1363   */\n      0x00\n        /* \"#utility.yul\":1408:1410   */\n      0x1f\n        /* \"#utility.yul\":1404:1411   */\n      not\n        /* \"#utility.yul\":1399:1401   */\n      0x1f\n        /* \"#utility.yul\":1392:1397   */\n      dup4\n        /* \"#utility.yul\":1388:1402   */\n      add\n        /* \"#utility.yul\":1384:1412   */\n      and\n        /* \"#utility.yul\":1374:1412   */\n      swap1\n      pop\n        /* \"#utility.yul\":1316:1418   */\n      swap2\n      swap1\n      pop\n      jump\t// out\n        /* \"#utility.yul\":1424:1604   */\n    tag_38:\n        /* \"#utility.yul\":1472:1549   */\n      0x4e487b7100000000000000000000000000000000000000000000000000000000\n        /* \"#utility.yul\":1469:1470   */\n      0x00\n        /* \"#utility.yul\":1462:1550   */\n      mstore\n        /* \"#utility.yul\":1569:1573   */\n      0x41\n        /* \"#utility.yul\":1566:1567   */\n      0x04\n        /* \"#utility.yul\":1559:1574   */\n      mstore\n        /* \"#utility.yul\":1593:1597   */\n      0x24\n        /* \"#utility.yul\":1590:1591   */\n      0x00\n        /* \"#utility.yul\":1583:1598   */\n      revert\n        /* \"#utility.yul\":1610:1891   */\n    tag_135:\n        /* \"#utility.yul\":1693:1720   */\n      tag_219\n        /* \"#utility.yul\":1715:1719   */\n      dup3\n        /* \"#utility.yul\":1693:1720   */\n      tag_134\n      jump\t// in\n    tag_219:\n        /* \"#utility.yul\":1685:1691   */\n      dup2\n        /* \"#utility.yul\":1681:1721   */\n      add\n        /* \"#utility.yul\":1823:1829   */\n      dup2\n        /* \"#utility.yul\":1811:1821   */\n      dup2\n        /* \"#utility.yul\":1808:1830   */\n      lt\n        /* \"#utility.yul\":1787:1805   */\n      0xffffffffffffffff\n        /* \"#utility.yul\":1775:1785   */\n      dup3\n        /* \"#utility.yul\":1772:1806   */\n      gt\n        /* \"#utility.yul\":1769:1831   */\n      or\n        /* \"#utility.yul\":1766:1854   */\n      iszero\n      tag_220\n      jumpi\n        /* \"#utility.yul\":1834:1852   */\n      tag_221\n      tag_38\n      jump\t// in\n    tag_221:\n        /* \"#utility.yul\":1766:1854   */\n    tag_220:\n        /* \"#utility.yul\":1874:1884   */\n      dup1\n        /* \"#utility.yul\":1870:1872   */\n      0x40\n        /* \"#utility.yul\":1863:1885   */\n      mstore\n        /* \"#utility.yul\":1653:1891   */\n      pop\n        /* \"#utility.yul\":1610:1891   */\n      pop\n      pop\n      jump\t// out\n        /* \"#utility.yul\":1897:2026   */\n    tag_136:\n        /* \"#utility.yul\":1931:1937   */\n      0x00\n        /* \"#utility.yul\":1958:1978   */\n      tag_223\n      tag_128\n      jump\t// in\n    tag_223:\n        /* \"#utility.yul\":1948:1978   */\n      swap1\n      pop\n        /* \"#utility.yul\":1987:2020   */\n      tag_224\n        /* \"#utility.yul\":2015:2019   */\n      dup3\n        /* \"#utility.yul\":2007:2013   */\n      dup3\n        /* \"#utility.yul\":1987:2020   */\n      tag_135\n      jump\t// in\n    tag_224:\n        /* \"#utility.yul\":1897:2026   */\n      swap2\n      swap1\n      pop\n      jump\t// out\n        /* \"#utility.yul\":2032:2149   */\n    tag_137:\n        /* \"#utility.yul\":2141:2142   */\n      0x00\n        /* \"#utility.yul\":2138:2139   */\n      dup1\n        /* \"#utility.yul\":2131:2143   */\n      revert\n        /* \"#utility.yul\":2155:2272   */\n    tag_138:\n        /* \"#utility.yul\":2264:2265   */\n      0x00\n        /* \"#utility.yul\":2261:2262   */\n      dup1\n        /* \"#utility.yul\":2254:2266   */\n      revert\n        /* \"#utility.yul\":2278:2604   */\n    tag_139:\n        /* \"#utility.yul\":2370:2374   */\n      0x00\n        /* \"#utility.yul\":2460:2478   */\n      0xffffffffffffffff\n        /* \"#utility.yul\":2452:2458   */\n      dup3\n        /* \"#utility.yul\":2449:2479   */\n      gt\n        /* \"#utility.yul\":2446:2502   */\n      iszero\n      tag_228\n      jumpi\n        /* \"#utility.yul\":2482:2500   */\n      tag_229\n      tag_38\n      jump\t// in\n    tag_229:\n        /* \"#utility.yul\":2446:2502   */\n    tag_228:\n        /* \"#utility.yul\":2532:2536   */\n      0x20\n        /* \"#utility.yul\":2524:2530   */\n      dup3\n        /* \"#utility.yul\":2520:2537   */\n      mul\n        /* \"#utility.yul\":2512:2537   */\n      swap1\n      pop\n        /* \"#utility.yul\":2592:2596   */\n      0x20\n        /* \"#utility.yul\":2586:2590   */\n      dup2\n        /* \"#utility.yul\":2582:2597   */\n      add\n        /* \"#utility.yul\":2574:2597   */\n      swap1\n      pop\n        /* \"#utility.yul\":2278:2604   */\n      swap2\n      swap1\n      pop\n      jump\t// out\n        /* \"#utility.yul\":2610:2727   */\n    tag_140:\n        /* \"#utility.yul\":2719:2720   */\n      0x00\n        /* \"#utility.yul\":2716:2717   */\n      dup1\n        /* \"#utility.yul\":2709:2721   */\n      revert\n        /* \"#utility.yul\":2733:2844   */\n    tag_141:\n        /* \"#utility.yul\":2785:2792   */\n      0x00\n        /* \"#utility.yul\":2814:2838   */\n      tag_232\n        /* \"#utility.yul\":2832:2837   */\n      dup3\n        /* \"#utility.yul\":2814:2838   */\n      tag_126\n      jump\t// in\n    tag_232:\n        /* \"#utility.yul\":2803:2838   */\n      swap1\n      pop\n        /* \"#utility.yul\":2733:2844   */\n      swap2\n      swap1\n      pop\n      jump\t// out\n        /* \"#utility.yul\":2850:3002   */\n    tag_142:\n        /* \"#utility.yul\":2938:2977   */\n      tag_234\n        /* \"#utility.yul\":2971:2976   */\n      dup2\n        /* \"#utility.yul\":2938:2977   */\n      tag_141\n      jump\t// in\n    tag_234:\n        /* \"#utility.yul\":2931:2936   */\n      dup2\n        /* \"#utility.yul\":2928:2978   */\n      eq\n        /* \"#utility.yul\":2918:2996   */\n      tag_235\n      jumpi\n        /* \"#utility.yul\":2992:2993   */\n      0x00\n        /* \"#utility.yul\":2989:2990   */\n      dup1\n        /* \"#utility.yul\":2982:2994   */\n      revert\n        /* \"#utility.yul\":2918:2996   */\n    tag_235:\n        /* \"#utility.yul\":2850:3002   */\n      pop\n      jump\t// out\n        /* \"#utility.yul\":3008:3177   */\n    tag_143:\n        /* \"#utility.yul\":3069:3074   */\n      0x00\n        /* \"#utility.yul\":3107:3113   */\n      dup2\n        /* \"#utility.yul\":3094:3114   */\n      calldataload\n        /* \"#utility.yul\":3085:3114   */\n      swap1\n      pop\n        /* \"#utility.yul\":3123:3171   */\n      tag_237\n        /* \"#utility.yul\":3165:3170   */\n      dup2\n        /* \"#utility.yul\":3123:3171   */\n      tag_142\n      jump\t// in\n    tag_237:\n        /* \"#utility.yul\":3008:3177   */\n      swap3\n      swap2\n      pop\n      pop\n      jump\t// out\n        /* \"#utility.yul\":3208:3963   */\n    tag_144:\n        /* \"#utility.yul\":3319:3324   */\n      0x00\n        /* \"#utility.yul\":3344:3440   */\n      tag_239\n        /* \"#utility.yul\":3360:3439   */\n      tag_240\n        /* \"#utility.yul\":3432:3438   */\n      dup5\n        /* \"#utility.yul\":3360:3439   */\n      tag_139\n      jump\t// in\n    tag_240:\n        /* \"#utility.yul\":3344:3440   */\n      tag_136\n      jump\t// in\n    tag_239:\n        /* \"#utility.yul\":3335:3440   */\n      swap1\n      pop\n        /* \"#utility.yul\":3460:3465   */\n      dup1\n        /* \"#utility.yul\":3489:3495   */\n      dup4\n        /* \"#utility.yul\":3482:3487   */\n      dup3\n        /* \"#utility.yul\":3475:3496   */\n      mstore\n        /* \"#utility.yul\":3523:3527   */\n      0x20\n        /* \"#utility.yul\":3516:3521   */\n      dup3\n        /* \"#utility.yul\":3512:3528   */\n      add\n        /* \"#utility.yul\":3505:3528   */\n      swap1\n      pop\n        /* \"#utility.yul\":3576:3580   */\n      0x20\n        /* \"#utility.yul\":3568:3574   */\n      dup5\n        /* \"#utility.yul\":3564:3581   */\n      mul\n        /* \"#utility.yul\":3556:3562   */\n      dup4\n        /* \"#utility.yul\":3552:3582   */\n      add\n        /* \"#utility.yul\":3605:3608   */\n      dup6\n        /* \"#utility.yul\":3597:3603   */\n      dup2\n        /* \"#utility.yul\":3594:3609   */\n      gt\n        /* \"#utility.yul\":3591:3713   */\n      iszero\n      tag_241\n      jumpi\n        /* \"#utility.yul\":3624:3703   */\n      tag_242\n      tag_140\n      jump\t// in\n    tag_242:\n        /* \"#utility.yul\":3591:3713   */\n    tag_241:\n        /* \"#utility.yul\":3739:3745   */\n      dup4\n        /* \"#utility.yul\":3722:3957   */\n    tag_243:\n        /* \"#utility.yul\":3756:3762   */\n      dup2\n        /* \"#utility.yul\":3751:3754   */\n      dup2\n        /* \"#utility.yul\":3748:3763   */\n      lt\n        /* \"#utility.yul\":3722:3957   */\n      iszero\n      tag_245\n      jumpi\n        /* \"#utility.yul\":3831:3834   */\n      dup1\n        /* \"#utility.yul\":3860:3912   */\n      tag_246\n        /* \"#utility.yul\":3908:3911   */\n      dup9\n        /* \"#utility.yul\":3896:3906   */\n      dup3\n        /* \"#utility.yul\":3860:3912   */\n      tag_143\n      jump\t// in\n    tag_246:\n        /* \"#utility.yul\":3855:3858   */\n      dup5\n        /* \"#utility.yul\":3848:3913   */\n      mstore\n        /* \"#utility.yul\":3942:3946   */\n      0x20\n        /* \"#utility.yul\":3937:3940   */\n      dup5\n        /* \"#utility.yul\":3933:3947   */\n      add\n        /* \"#utility.yul\":3926:3947   */\n      swap4\n      pop\n        /* \"#utility.yul\":3798:3957   */\n      pop\n        /* \"#utility.yul\":3782:3786   */\n      0x20\n        /* \"#utility.yul\":3777:3780   */\n      dup2\n        /* \"#utility.yul\":3773:3787   */\n      add\n        /* \"#utility.yul\":3766:3787   */\n      swap1\n      pop\n        /* \"#utility.yul\":3722:3957   */\n      jump(tag_243)\n    tag_245:\n        /* \"#utility.yul\":3726:3747   */\n      pop\n        /* \"#utility.yul\":3325:3963   */\n      pop\n      pop\n        /* \"#utility.yul\":3208:3963   */\n      swap4\n      swap3\n      pop\n      pop\n      pop\n      jump\t// out\n        /* \"#utility.yul\":3994:4394   */\n    tag_145:\n        /* \"#utility.yul\":4080:4085   */\n      0x00\n        /* \"#utility.yul\":4129:4132   */\n      dup3\n        /* \"#utility.yul\":4122:4126   */\n      0x1f\n        /* \"#utility.yul\":4114:4120   */\n      dup4\n        /* \"#utility.yul\":4110:4127   */\n      add\n        /* \"#utility.yul\":4106:4133   */\n      slt\n        /* \"#utility.yul\":4096:4218   */\n      tag_248\n      jumpi\n        /* \"#utility.yul\":4137:4216   */\n      tag_249\n      tag_138\n      jump\t// in\n    tag_249:\n        /* \"#utility.yul\":4096:4218   */\n    tag_248:\n        /* \"#utility.yul\":4254:4260   */\n      dup2\n        /* \"#utility.yul\":4241:4261   */\n      calldataload\n        /* \"#utility.yul\":4279:4388   */\n      tag_250\n        /* \"#utility.yul\":4384:4387   */\n      dup5\n        /* \"#utility.yul\":4376:4382   */\n      dup3\n        /* \"#utility.yul\":4369:4373   */\n      0x20\n        /* \"#utility.yul\":4361:4367   */\n      dup7\n        /* \"#utility.yul\":4357:4374   */\n      add\n        /* \"#utility.yul\":4279:4388   */\n      tag_144\n      jump\t// in\n    tag_250:\n        /* \"#utility.yul\":4270:4388   */\n      swap2\n      pop\n        /* \"#utility.yul\":4086:4394   */\n      pop\n        /* \"#utility.yul\":3994:4394   */\n      swap3\n      swap2\n      pop\n      pop\n      jump\t// out\n        /* \"#utility.yul\":4400:4477   */\n    tag_146:\n        /* \"#utility.yul\":4437:4444   */\n      0x00\n        /* \"#utility.yul\":4466:4471   */\n      dup2\n        /* \"#utility.yul\":4455:4471   */\n      swap1\n      pop\n        /* \"#utility.yul\":4400:4477   */\n      swap2\n      swap1\n      pop\n      jump\t// out\n        /* \"#utility.yul\":4483:4605   */\n    tag_147:\n        /* \"#utility.yul\":4556:4580   */\n      tag_253\n        /* \"#utility.yul\":4574:4579   */\n      dup2\n        /* \"#utility.yul\":4556:4580   */\n      tag_146\n      jump\t// in\n    tag_253:\n        /* \"#utility.yul\":4549:4554   */\n      dup2\n        /* \"#utility.yul\":4546:4581   */\n      eq\n        /* \"#utility.yul\":4536:4599   */\n      tag_254\n      jumpi\n        /* \"#utility.yul\":4595:4596   */\n      0x00\n        /* \"#utility.yul\":4592:4593   */\n      dup1\n        /* \"#utility.yul\":4585:4597   */\n      revert\n        /* \"#utility.yul\":4536:4599   */\n    tag_254:\n        /* \"#utility.yul\":4483:4605   */\n      pop\n      jump\t// out\n        /* \"#utility.yul\":4611:4750   */\n    tag_148:\n        /* \"#utility.yul\":4657:4662   */\n      0x00\n        /* \"#utility.yul\":4695:4701   */\n      dup2\n        /* \"#utility.yul\":4682:4702   */\n      calldataload\n        /* \"#utility.yul\":4673:4702   */\n      swap1\n      pop\n        /* \"#utility.yul\":4711:4744   */\n      tag_256\n        /* \"#utility.yul\":4738:4743   */\n      dup2\n        /* \"#utility.yul\":4711:4744   */\n      tag_147\n      jump\t// in\n    tag_256:\n        /* \"#utility.yul\":4611:4750   */\n      swap3\n      swap2\n      pop\n      pop\n      jump\t// out\n        /* \"#utility.yul\":4756:4833   */\n    tag_149:\n        /* \"#utility.yul\":4793:4800   */\n      0x00\n        /* \"#utility.yul\":4822:4827   */\n      dup2\n        /* \"#utility.yul\":4811:4827   */\n      swap1\n      pop\n        /* \"#utility.yul\":4756:4833   */\n      swap2\n      swap1\n      pop\n      jump\t// out\n        /* \"#utility.yul\":4839:4961   */\n    tag_150:\n        /* \"#utility.yul\":4912:4936   */\n      tag_259\n        /* \"#utility.yul\":4930:4935   */\n      dup2\n        /* \"#utility.yul\":4912:4936   */\n      tag_149\n      jump\t// in\n    tag_259:\n        /* \"#utility.yul\":4905:4910   */\n      dup2\n        /* \"#utility.yul\":4902:4937   */\n      eq\n        /* \"#utility.yul\":4892:4955   */\n      tag_260\n      jumpi\n        /* \"#utility.yul\":4951:4952   */\n      0x00\n        /* \"#utility.yul\":4948:4949   */\n      dup1\n        /* \"#utility.yul\":4941:4953   */\n      revert\n        /* \"#utility.yul\":4892:4955   */\n    tag_260:\n        /* \"#utility.yul\":4839:4961   */\n      pop\n      jump\t// out\n        /* \"#utility.yul\":4967:5106   */\n    tag_151:\n        /* \"#utility.yul\":5013:5018   */\n      0x00\n        /* \"#utility.yul\":5051:5057   */\n      dup2\n        /* \"#utility.yul\":5038:5058   */\n      calldataload\n        /* \"#utility.yul\":5029:5058   */\n      swap1\n      pop\n        /* \"#utility.yul\":5067:5100   */\n      tag_262\n        /* \"#utility.yul\":5094:5099   */\n      dup2\n        /* \"#utility.yul\":5067:5100   */\n      tag_150\n      jump\t// in\n    tag_262:\n        /* \"#utility.yul\":4967:5106   */\n      swap3\n      swap2\n      pop\n      pop\n      jump\t// out\n        /* \"#utility.yul\":5155:6617   */\n    tag_152:\n        /* \"#utility.yul\":5235:5240   */\n      0x00\n        /* \"#utility.yul\":5279:5283   */\n      0xc0\n        /* \"#utility.yul\":5267:5276   */\n      dup3\n        /* \"#utility.yul\":5262:5265   */\n      dup5\n        /* \"#utility.yul\":5258:5277   */\n      sub\n        /* \"#utility.yul\":5254:5284   */\n      slt\n        /* \"#utility.yul\":5251:5368   */\n      iszero\n      tag_264\n      jumpi\n        /* \"#utility.yul\":5287:5366   */\n      tag_265\n      tag_133\n      jump\t// in\n    tag_265:\n        /* \"#utility.yul\":5251:5368   */\n    tag_264:\n        /* \"#utility.yul\":5386:5407   */\n      tag_266\n        /* \"#utility.yul\":5402:5406   */\n      0xc0\n        /* \"#utility.yul\":5386:5407   */\n      tag_136\n      jump\t// in\n    tag_266:\n        /* \"#utility.yul\":5377:5407   */\n      swap1\n      pop\n        /* \"#utility.yul\":5501:5502   */\n      0x00\n        /* \"#utility.yul\":5490:5499   */\n      dup3\n        /* \"#utility.yul\":5486:5503   */\n      add\n        /* \"#utility.yul\":5473:5504   */\n      calldataload\n        /* \"#utility.yul\":5531:5549   */\n      0xffffffffffffffff\n        /* \"#utility.yul\":5523:5529   */\n      dup2\n        /* \"#utility.yul\":5520:5550   */\n      gt\n        /* \"#utility.yul\":5517:5634   */\n      iszero\n      tag_267\n      jumpi\n        /* \"#utility.yul\":5553:5632   */\n      tag_268\n      tag_137\n      jump\t// in\n    tag_268:\n        /* \"#utility.yul\":5517:5634   */\n    tag_267:\n        /* \"#utility.yul\":5673:5762   */\n      tag_269\n        /* \"#utility.yul\":5758:5761   */\n      dup5\n        /* \"#utility.yul\":5749:5755   */\n      dup3\n        /* \"#utility.yul\":5738:5747   */\n      dup6\n        /* \"#utility.yul\":5734:5756   */\n      add\n        /* \"#utility.yul\":5673:5762   */\n      tag_145\n      jump\t// in\n    tag_269:\n        /* \"#utility.yul\":5666:5670   */\n      0x00\n        /* \"#utility.yul\":5659:5664   */\n      dup4\n        /* \"#utility.yul\":5655:5671   */\n      add\n        /* \"#utility.yul\":5648:5763   */\n      mstore\n        /* \"#utility.yul\":5417:5774   */\n      pop\n        /* \"#utility.yul\":5846:5848   */\n      0x20\n        /* \"#utility.yul\":5887:5936   */\n      tag_270\n        /* \"#utility.yul\":5932:5935   */\n      dup5\n        /* \"#utility.yul\":5923:5929   */\n      dup3\n        /* \"#utility.yul\":5912:5921   */\n      dup6\n        /* \"#utility.yul\":5908:5930   */\n      add\n        /* \"#utility.yul\":5887:5936   */\n      tag_148\n      jump\t// in\n    tag_270:\n        /* \"#utility.yul\":5880:5884   */\n      0x20\n        /* \"#utility.yul\":5873:5878   */\n      dup4\n        /* \"#utility.yul\":5869:5885   */\n      add\n        /* \"#utility.yul\":5862:5937   */\n      mstore\n        /* \"#utility.yul\":5784:5948   */\n      pop\n        /* \"#utility.yul\":6014:6016   */\n      0x40\n        /* \"#utility.yul\":6055:6104   */\n      tag_271\n        /* \"#utility.yul\":6100:6103   */\n      dup5\n        /* \"#utility.yul\":6091:6097   */\n      dup3\n        /* \"#utility.yul\":6080:6089   */\n      dup6\n        /* \"#utility.yul\":6076:6098   */\n      add\n        /* \"#utility.yul\":6055:6104   */\n      tag_151\n      jump\t// in\n    tag_271:\n        /* \"#utility.yul\":6048:6052   */\n      0x40\n        /* \"#utility.yul\":6041:6046   */\n      dup4\n        /* \"#utility.yul\":6037:6053   */\n      add\n        /* \"#utility.yul\":6030:6105   */\n      mstore\n        /* \"#utility.yul\":5958:6116   */\n      pop\n        /* \"#utility.yul\":6178:6180   */\n      0x60\n        /* \"#utility.yul\":6219:6268   */\n      tag_272\n        /* \"#utility.yul\":6264:6267   */\n      dup5\n        /* \"#utility.yul\":6255:6261   */\n      dup3\n        /* \"#utility.yul\":6244:6253   */\n      dup6\n        /* \"#utility.yul\":6240:6262   */\n      add\n        /* \"#utility.yul\":6219:6268   */\n      tag_132\n      jump\t// in\n    tag_272:\n        /* \"#utility.yul\":6212:6216   */\n      0x60\n        /* \"#utility.yul\":6205:6210   */\n      dup4\n        /* \"#utility.yul\":6201:6217   */\n      add\n        /* \"#utility.yul\":6194:6269   */\n      mstore\n        /* \"#utility.yul\":6126:6280   */\n      pop\n        /* \"#utility.yul\":6340:6343   */\n      0x80\n        /* \"#utility.yul\":6382:6431   */\n      tag_273\n        /* \"#utility.yul\":6427:6430   */\n      dup5\n        /* \"#utility.yul\":6418:6424   */\n      dup3\n        /* \"#utility.yul\":6407:6416   */\n      dup6\n        /* \"#utility.yul\":6403:6425   */\n      add\n        /* \"#utility.yul\":6382:6431   */\n      tag_132\n      jump\t// in\n    tag_273:\n        /* \"#utility.yul\":6375:6379   */\n      0x80\n        /* \"#utility.yul\":6368:6373   */\n      dup4\n        /* \"#utility.yul\":6364:6380   */\n      add\n        /* \"#utility.yul\":6357:6432   */\n      mstore\n        /* \"#utility.yul\":6290:6443   */\n      pop\n        /* \"#utility.yul\":6507:6510   */\n      0xa0\n        /* \"#utility.yul\":6549:6598   */\n      tag_274\n        /* \"#utility.yul\":6594:6597   */\n      dup5\n        /* \"#utility.yul\":6585:6591   */\n      dup3\n        /* \"#utility.yul\":6574:6583   */\n      dup6\n        /* \"#utility.yul\":6570:6592   */\n      add\n        /* \"#utility.yul\":6549:6598   */\n      tag_132\n      jump\t// in\n    tag_274:\n        /* \"#utility.yul\":6542:6546   */\n      0xa0\n        /* \"#utility.yul\":6535:6540   */\n      dup4\n        /* \"#utility.yul\":6531:6547   */\n      add\n        /* \"#utility.yul\":6524:6599   */\n      mstore\n        /* \"#utility.yul\":6453:6610   */\n      pop\n        /* \"#utility.yul\":5155:6617   */\n      swap3\n      swap2\n      pop\n      pop\n      jump\t// out\n        /* \"#utility.yul\":6623:7464   */\n    tag_11:\n        /* \"#utility.yul\":6731:6737   */\n      0x00\n        /* \"#utility.yul\":6739:6745   */\n      dup1\n        /* \"#utility.yul\":6747:6753   */\n      0x00\n        /* \"#utility.yul\":6796:6798   */\n      0x60\n        /* \"#utility.yul\":6784:6793   */\n      dup5\n        /* \"#utility.yul\":6775:6782   */\n      dup7\n        /* \"#utility.yul\":6771:6794   */\n      sub\n        /* \"#utility.yul\":6767:6799   */\n      slt\n        /* \"#utility.yul\":6764:6883   */\n      iszero\n      tag_276\n      jumpi\n        /* \"#utility.yul\":6802:6881   */\n      tag_277\n      tag_129\n      jump\t// in\n    tag_277:\n        /* \"#utility.yul\":6764:6883   */\n    tag_276:\n        /* \"#utility.yul\":6922:6923   */\n      0x00\n        /* \"#utility.yul\":6947:7000   */\n      tag_278\n        /* \"#utility.yul\":6992:6999   */\n      dup7\n        /* \"#utility.yul\":6983:6989   */\n      dup3\n        /* \"#utility.yul\":6972:6981   */\n      dup8\n        /* \"#utility.yul\":6968:6990   */\n      add\n        /* \"#utility.yul\":6947:7000   */\n      tag_132\n      jump\t// in\n    tag_278:\n        /* \"#utility.yul\":6937:7000   */\n      swap4\n      pop\n        /* \"#utility.yul\":6893:7010   */\n      pop\n        /* \"#utility.yul\":7077:7079   */\n      0x20\n        /* \"#utility.yul\":7066:7075   */\n      dup5\n        /* \"#utility.yul\":7062:7080   */\n      add\n        /* \"#utility.yul\":7049:7081   */\n      calldataload\n        /* \"#utility.yul\":7108:7126   */\n      0xffffffffffffffff\n        /* \"#utility.yul\":7100:7106   */\n      dup2\n        /* \"#utility.yul\":7097:7127   */\n      gt\n        /* \"#utility.yul\":7094:7211   */\n      iszero\n      tag_279\n      jumpi\n        /* \"#utility.yul\":7130:7209   */\n      tag_280\n      tag_130\n      jump\t// in\n    tag_280:\n        /* \"#utility.yul\":7094:7211   */\n    tag_279:\n        /* \"#utility.yul\":7235:7319   */\n      tag_281\n        /* \"#utility.yul\":7311:7318   */\n      dup7\n        /* \"#utility.yul\":7302:7308   */\n      dup3\n        /* \"#utility.yul\":7291:7300   */\n      dup8\n        /* \"#utility.yul\":7287:7309   */\n      add\n        /* \"#utility.yul\":7235:7319   */\n      tag_152\n      jump\t// in\n    tag_281:\n        /* \"#utility.yul\":7225:7319   */\n      swap3\n      pop\n        /* \"#utility.yul\":7020:7329   */\n      pop\n        /* \"#utility.yul\":7368:7370   */\n      0x40\n        /* \"#utility.yul\":7394:7447   */\n      tag_282\n        /* \"#utility.yul\":7439:7446   */\n      dup7\n        /* \"#utility.yul\":7430:7436   */\n      dup3\n        /* \"#utility.yul\":7419:7428   */\n      dup8\n        /* \"#utility.yul\":7415:7437   */\n      add\n        /* \"#utility.yul\":7394:7447   */\n      tag_148\n      jump\t// in\n    tag_282:\n        /* \"#utility.yul\":7384:7447   */\n      swap2\n      pop\n        /* \"#utility.yul\":7339:7457   */\n      pop\n        /* \"#utility.yul\":6623:7464   */\n      swap3\n      pop\n      swap3\n      pop\n      swap3\n      jump\t// out\n        /* \"#utility.yul\":7470:7650   */\n    tag_16:\n        /* \"#utility.yul\":7518:7595   */\n      0x4e487b7100000000000000000000000000000000000000000000000000000000\n        /* \"#utility.yul\":7515:7516   */\n      0x00\n        /* \"#utility.yul\":7508:7596   */\n      mstore\n        /* \"#utility.yul\":7615:7619   */\n      0x32\n        /* \"#utility.yul\":7612:7613   */\n      0x04\n        /* \"#utility.yul\":7605:7620   */\n      mstore\n        /* \"#utility.yul\":7639:7643   */\n      0x24\n        /* \"#utility.yul\":7636:7637   */\n      0x00\n        /* \"#utility.yul\":7629:7644   */\n      revert\n        /* \"#utility.yul\":7656:7774   */\n    tag_153:\n        /* \"#utility.yul\":7743:7767   */\n      tag_285\n        /* \"#utility.yul\":7761:7766   */\n      dup2\n        /* \"#utility.yul\":7743:7767   */\n      tag_146\n      jump\t// in\n    tag_285:\n        /* \"#utility.yul\":7738:7741   */\n      dup3\n        /* \"#utility.yul\":7731:7768   */\n      mstore\n        /* \"#utility.yul\":7656:7774   */\n      pop\n      pop\n      jump\t// out\n        /* \"#utility.yul\":7780:8222   */\n    tag_33:\n        /* \"#utility.yul\":7929:7933   */\n      0x00\n        /* \"#utility.yul\":7967:7969   */\n      0x60\n        /* \"#utility.yul\":7956:7965   */\n      dup3\n        /* \"#utility.yul\":7952:7970   */\n      add\n        /* \"#utility.yul\":7944:7970   */\n      swap1\n      pop\n        /* \"#utility.yul\":7980:8051   */\n      tag_287\n        /* \"#utility.yul\":8048:8049   */\n      0x00\n        /* \"#utility.yul\":8037:8046   */\n      dup4\n        /* \"#utility.yul\":8033:8050   */\n      add\n        /* \"#utility.yul\":8024:8030   */\n      dup7\n        /* \"#utility.yul\":7980:8051   */\n      tag_127\n      jump\t// in\n    tag_287:\n        /* \"#utility.yul\":8061:8133   */\n      tag_288\n        /* \"#utility.yul\":8129:8131   */\n      0x20\n        /* \"#utility.yul\":8118:8127   */\n      dup4\n        /* \"#utility.yul\":8114:8132   */\n      add\n        /* \"#utility.yul\":8105:8111   */\n      dup6\n        /* \"#utility.yul\":8061:8133   */\n      tag_127\n      jump\t// in\n    tag_288:\n        /* \"#utility.yul\":8143:8215   */\n      tag_289\n        /* \"#utility.yul\":8211:8213   */\n      0x40\n        /* \"#utility.yul\":8200:8209   */\n      dup4\n        /* \"#utility.yul\":8196:8214   */\n      add\n        /* \"#utility.yul\":8187:8193   */\n      dup5\n        /* \"#utility.yul\":8143:8215   */\n      tag_153\n      jump\t// in\n    tag_289:\n        /* \"#utility.yul\":7780:8222   */\n      swap5\n      swap4\n      pop\n      pop\n      pop\n      pop\n      jump\t// out\n        /* \"#utility.yul\":8228:8314   */\n    tag_154:\n        /* \"#utility.yul\":8263:8270   */\n      0x00\n        /* \"#utility.yul\":8303:8307   */\n      0xff\n        /* \"#utility.yul\":8296:8301   */\n      dup3\n        /* \"#utility.yul\":8292:8308   */\n      and\n        /* \"#utility.yul\":8281:8308   */\n      swap1\n      pop\n        /* \"#utility.yul\":8228:8314   */\n      swap2\n      swap1\n      pop\n      jump\t// out\n        /* \"#utility.yul\":8320:8432   */\n    tag_155:\n        /* \"#utility.yul\":8403:8425   */\n      tag_292\n        /* \"#utility.yul\":8419:8424   */\n      dup2\n        /* \"#utility.yul\":8403:8425   */\n      tag_154\n      jump\t// in\n    tag_292:\n        /* \"#utility.yul\":8398:8401   */\n      dup3\n        /* \"#utility.yul\":8391:8426   */\n      mstore\n        /* \"#utility.yul\":8320:8432   */\n      pop\n      pop\n      jump\t// out\n        /* \"#utility.yul\":8438:8552   */\n    tag_156:\n        /* \"#utility.yul\":8505:8511   */\n      0x00\n        /* \"#utility.yul\":8539:8544   */\n      dup2\n        /* \"#utility.yul\":8533:8545   */\n      mload\n        /* \"#utility.yul\":8523:8545   */\n      swap1\n      pop\n        /* \"#utility.yul\":8438:8552   */\n      swap2\n      swap1\n      pop\n      jump\t// out\n        /* \"#utility.yul\":8558:8742   */\n    tag_157:\n        /* \"#utility.yul\":8657:8668   */\n      0x00\n        /* \"#utility.yul\":8691:8697   */\n      dup3\n        /* \"#utility.yul\":8686:8689   */\n      dup3\n        /* \"#utility.yul\":8679:8698   */\n      mstore\n        /* \"#utility.yul\":8731:8735   */\n      0x20\n        /* \"#utility.yul\":8726:8729   */\n      dup3\n        /* \"#utility.yul\":8722:8736   */\n      add\n        /* \"#utility.yul\":8707:8736   */\n      swap1\n      pop\n        /* \"#utility.yul\":8558:8742   */\n      swap3\n      swap2\n      pop\n      pop\n      jump\t// out\n        /* \"#utility.yul\":8748:8880   */\n    tag_158:\n        /* \"#utility.yul\":8815:8819   */\n      0x00\n        /* \"#utility.yul\":8838:8841   */\n      dup2\n        /* \"#utility.yul\":8830:8841   */\n      swap1\n      pop\n        /* \"#utility.yul\":8868:8872   */\n      0x20\n        /* \"#utility.yul\":8863:8866   */\n      dup3\n        /* \"#utility.yul\":8859:8873   */\n      add\n        /* \"#utility.yul\":8851:8873   */\n      swap1\n      pop\n        /* \"#utility.yul\":8748:8880   */\n      swap2\n      swap1\n      pop\n      jump\t// out\n        /* \"#utility.yul\":8886:8994   */\n    tag_159:\n        /* \"#utility.yul\":8963:8987   */\n      tag_297\n        /* \"#utility.yul\":8981:8986   */\n      dup2\n        /* \"#utility.yul\":8963:8987   */\n      tag_146\n      jump\t// in\n    tag_297:\n        /* \"#utility.yul\":8958:8961   */\n      dup3\n        /* \"#utility.yul\":8951:8988   */\n      mstore\n        /* \"#utility.yul\":8886:8994   */\n      pop\n      pop\n      jump\t// out\n        /* \"#utility.yul\":9000:9179   */\n    tag_160:\n        /* \"#utility.yul\":9069:9079   */\n      0x00\n        /* \"#utility.yul\":9090:9136   */\n      tag_299\n        /* \"#utility.yul\":9132:9135   */\n      dup4\n        /* \"#utility.yul\":9124:9130   */\n      dup4\n        /* \"#utility.yul\":9090:9136   */\n      tag_159\n      jump\t// in\n    tag_299:\n        /* \"#utility.yul\":9168:9172   */\n      0x20\n        /* \"#utility.yul\":9163:9166   */\n      dup4\n        /* \"#utility.yul\":9159:9173   */\n      add\n        /* \"#utility.yul\":9145:9173   */\n      swap1\n      pop\n        /* \"#utility.yul\":9000:9179   */\n      swap3\n      swap2\n      pop\n      pop\n      jump\t// out\n        /* \"#utility.yul\":9185:9298   */\n    tag_161:\n        /* \"#utility.yul\":9255:9259   */\n      0x00\n        /* \"#utility.yul\":9287:9291   */\n      0x20\n        /* \"#utility.yul\":9282:9285   */\n      dup3\n        /* \"#utility.yul\":9278:9292   */\n      add\n        /* \"#utility.yul\":9270:9292   */\n      swap1\n      pop\n        /* \"#utility.yul\":9185:9298   */\n      swap2\n      swap1\n      pop\n      jump\t// out\n        /* \"#utility.yul\":9334:10066   */\n    tag_162:\n        /* \"#utility.yul\":9453:9456   */\n      0x00\n        /* \"#utility.yul\":9482:9536   */\n      tag_302\n        /* \"#utility.yul\":9530:9535   */\n      dup3\n        /* \"#utility.yul\":9482:9536   */\n      tag_156\n      jump\t// in\n    tag_302:\n        /* \"#utility.yul\":9552:9638   */\n      tag_303\n        /* \"#utility.yul\":9631:9637   */\n      dup2\n        /* \"#utility.yul\":9626:9629   */\n      dup6\n        /* \"#utility.yul\":9552:9638   */\n      tag_157\n      jump\t// in\n    tag_303:\n        /* \"#utility.yul\":9545:9638   */\n      swap4\n      pop\n        /* \"#utility.yul\":9662:9718   */\n      tag_304\n        /* \"#utility.yul\":9712:9717   */\n      dup4\n        /* \"#utility.yul\":9662:9718   */\n      tag_158\n      jump\t// in\n    tag_304:\n        /* \"#utility.yul\":9741:9748   */\n      dup1\n        /* \"#utility.yul\":9772:9773   */\n      0x00\n        /* \"#utility.yul\":9757:10041   */\n    tag_305:\n        /* \"#utility.yul\":9782:9788   */\n      dup4\n        /* \"#utility.yul\":9779:9780   */\n      dup2\n        /* \"#utility.yul\":9776:9789   */\n      lt\n        /* \"#utility.yul\":9757:10041   */\n      iszero\n      tag_307\n      jumpi\n        /* \"#utility.yul\":9858:9864   */\n      dup2\n        /* \"#utility.yul\":9852:9865   */\n      mload\n        /* \"#utility.yul\":9885:9948   */\n      tag_308\n        /* \"#utility.yul\":9944:9947   */\n      dup9\n        /* \"#utility.yul\":9929:9942   */\n      dup3\n        /* \"#utility.yul\":9885:9948   */\n      tag_160\n      jump\t// in\n    tag_308:\n        /* \"#utility.yul\":9878:9948   */\n      swap8\n      pop\n        /* \"#utility.yul\":9971:10031   */\n      tag_309\n        /* \"#utility.yul\":10024:10030   */\n      dup4\n        /* \"#utility.yul\":9971:10031   */\n      tag_161\n      jump\t// in\n    tag_309:\n        /* \"#utility.yul\":9961:10031   */\n      swap3\n      pop\n        /* \"#utility.yul\":9817:10041   */\n      pop\n        /* \"#utility.yul\":9804:9805   */\n      0x01\n        /* \"#utility.yul\":9801:9802   */\n      dup2\n        /* \"#utility.yul\":9797:9806   */\n      add\n        /* \"#utility.yul\":9792:9806   */\n      swap1\n      pop\n        /* \"#utility.yul\":9757:10041   */\n      jump(tag_305)\n    tag_307:\n        /* \"#utility.yul\":9761:9775   */\n      pop\n        /* \"#utility.yul\":10057:10060   */\n      dup6\n        /* \"#utility.yul\":10050:10060   */\n      swap4\n      pop\n        /* \"#utility.yul\":9458:10066   */\n      pop\n      pop\n      pop\n        /* \"#utility.yul\":9334:10066   */\n      swap3\n      swap2\n      pop\n      pop\n      jump\t// out\n        /* \"#utility.yul\":10072:10657   */\n    tag_43:\n        /* \"#utility.yul\":10267:10271   */\n      0x00\n        /* \"#utility.yul\":10305:10307   */\n      0x60\n        /* \"#utility.yul\":10294:10303   */\n      dup3\n        /* \"#utility.yul\":10290:10308   */\n      add\n        /* \"#utility.yul\":10282:10308   */\n      swap1\n      pop\n        /* \"#utility.yul\":10318:10385   */\n      tag_311\n        /* \"#utility.yul\":10382:10383   */\n      0x00\n        /* \"#utility.yul\":10371:10380   */\n      dup4\n        /* \"#utility.yul\":10367:10384   */\n      add\n        /* \"#utility.yul\":10358:10364   */\n      dup7\n        /* \"#utility.yul\":10318:10385   */\n      tag_155\n      jump\t// in\n    tag_311:\n        /* \"#utility.yul\":10432:10441   */\n      dup2\n        /* \"#utility.yul\":10426:10430   */\n      dup2\n        /* \"#utility.yul\":10422:10442   */\n      sub\n        /* \"#utility.yul\":10417:10419   */\n      0x20\n        /* \"#utility.yul\":10406:10415   */\n      dup4\n        /* \"#utility.yul\":10402:10420   */\n      add\n        /* \"#utility.yul\":10395:10443   */\n      mstore\n        /* \"#utility.yul\":10460:10568   */\n      tag_312\n        /* \"#utility.yul\":10563:10567   */\n      dup2\n        /* \"#utility.yul\":10554:10560   */\n      dup6\n        /* \"#utility.yul\":10460:10568   */\n      tag_162\n      jump\t// in\n    tag_312:\n        /* \"#utility.yul\":10452:10568   */\n      swap1\n      pop\n        /* \"#utility.yul\":10578:10650   */\n      tag_313\n        /* \"#utility.yul\":10646:10648   */\n      0x40\n        /* \"#utility.yul\":10635:10644   */\n      dup4\n        /* \"#utility.yul\":10631:10649   */\n      add\n        /* \"#utility.yul\":10622:10628   */\n      dup5\n        /* \"#utility.yul\":10578:10650   */\n      tag_153\n      jump\t// in\n    tag_313:\n        /* \"#utility.yul\":10072:10657   */\n      swap5\n      swap4\n      pop\n      pop\n      pop\n      pop\n      jump\t// out\n        /* \"#utility.yul\":10663:10781   */\n    tag_163:\n        /* \"#utility.yul\":10750:10774   */\n      tag_315\n        /* \"#utility.yul\":10768:10773   */\n      dup2\n        /* \"#utility.yul\":10750:10774   */\n      tag_149\n      jump\t// in\n    tag_315:\n        /* \"#utility.yul\":10745:10748   */\n      dup3\n        /* \"#utility.yul\":10738:10775   */\n      mstore\n        /* \"#utility.yul\":10663:10781   */\n      pop\n      pop\n      jump\t// out\n        /* \"#utility.yul\":10787:10916   */\n    tag_164:\n        /* \"#utility.yul\":10869:10875   */\n      0x00\n        /* \"#utility.yul\":10903:10908   */\n      dup2\n        /* \"#utility.yul\":10897:10909   */\n      mload\n        /* \"#utility.yul\":10887:10909   */\n      swap1\n      pop\n        /* \"#utility.yul\":10787:10916   */\n      swap2\n      swap1\n      pop\n      jump\t// out\n        /* \"#utility.yul\":10922:11096   */\n    tag_165:\n        /* \"#utility.yul\":11011:11022   */\n      0x00\n        /* \"#utility.yul\":11045:11051   */\n      dup3\n        /* \"#utility.yul\":11040:11043   */\n      dup3\n        /* \"#utility.yul\":11033:11052   */\n      mstore\n        /* \"#utility.yul\":11085:11089   */\n      0x20\n        /* \"#utility.yul\":11080:11083   */\n      dup3\n        /* \"#utility.yul\":11076:11090   */\n      add\n        /* \"#utility.yul\":11061:11090   */\n      swap1\n      pop\n        /* \"#utility.yul\":10922:11096   */\n      swap3\n      swap2\n      pop\n      pop\n      jump\t// out\n        /* \"#utility.yul\":11102:11249   */\n    tag_166:\n        /* \"#utility.yul\":11184:11188   */\n      0x00\n        /* \"#utility.yul\":11207:11210   */\n      dup2\n        /* \"#utility.yul\":11199:11210   */\n      swap1\n      pop\n        /* \"#utility.yul\":11237:11241   */\n      0x20\n        /* \"#utility.yul\":11232:11235   */\n      dup3\n        /* \"#utility.yul\":11228:11242   */\n      add\n        /* \"#utility.yul\":11220:11242   */\n      swap1\n      pop\n        /* \"#utility.yul\":11102:11249   */\n      swap2\n      swap1\n      pop\n      jump\t// out\n        /* \"#utility.yul\":11255:11315   */\n    tag_167:\n        /* \"#utility.yul\":11283:11286   */\n      0x00\n        /* \"#utility.yul\":11304:11309   */\n      dup2\n        /* \"#utility.yul\":11297:11309   */\n      swap1\n      pop\n        /* \"#utility.yul\":11255:11315   */\n      swap2\n      swap1\n      pop\n      jump\t// out\n        /* \"#utility.yul\":11321:11463   */\n    tag_168:\n        /* \"#utility.yul\":11371:11380   */\n      0x00\n        /* \"#utility.yul\":11404:11457   */\n      tag_321\n        /* \"#utility.yul\":11422:11456   */\n      tag_322\n        /* \"#utility.yul\":11431:11455   */\n      tag_323\n        /* \"#utility.yul\":11449:11454   */\n      dup5\n        /* \"#utility.yul\":11431:11455   */\n      tag_125\n      jump\t// in\n    tag_323:\n        /* \"#utility.yul\":11422:11456   */\n      tag_167\n      jump\t// in\n    tag_322:\n        /* \"#utility.yul\":11404:11457   */\n      tag_125\n      jump\t// in\n    tag_321:\n        /* \"#utility.yul\":11391:11457   */\n      swap1\n      pop\n        /* \"#utility.yul\":11321:11463   */\n      swap2\n      swap1\n      pop\n      jump\t// out\n        /* \"#utility.yul\":11469:11595   */\n    tag_169:\n        /* \"#utility.yul\":11519:11528   */\n      0x00\n        /* \"#utility.yul\":11552:11589   */\n      tag_325\n        /* \"#utility.yul\":11583:11588   */\n      dup3\n        /* \"#utility.yul\":11552:11589   */\n      tag_168\n      jump\t// in\n    tag_325:\n        /* \"#utility.yul\":11539:11589   */\n      swap1\n      pop\n        /* \"#utility.yul\":11469:11595   */\n      swap2\n      swap1\n      pop\n      jump\t// out\n        /* \"#utility.yul\":11601:11742   */\n    tag_170:\n        /* \"#utility.yul\":11666:11675   */\n      0x00\n        /* \"#utility.yul\":11699:11736   */\n      tag_327\n        /* \"#utility.yul\":11730:11735   */\n      dup3\n        /* \"#utility.yul\":11699:11736   */\n      tag_169\n      jump\t// in\n    tag_327:\n        /* \"#utility.yul\":11686:11736   */\n      swap1\n      pop\n        /* \"#utility.yul\":11601:11742   */\n      swap2\n      swap1\n      pop\n      jump\t// out\n        /* \"#utility.yul\":11748:11899   */\n    tag_171:\n        /* \"#utility.yul\":11840:11892   */\n      tag_329\n        /* \"#utility.yul\":11886:11891   */\n      dup2\n        /* \"#utility.yul\":11840:11892   */\n      tag_170\n      jump\t// in\n    tag_329:\n        /* \"#utility.yul\":11835:11838   */\n      dup3\n        /* \"#utility.yul\":11828:11893   */\n      mstore\n        /* \"#utility.yul\":11748:11899   */\n      pop\n      pop\n      jump\t// out\n        /* \"#utility.yul\":11905:12114   */\n    tag_172:\n        /* \"#utility.yul\":11989:11999   */\n      0x00\n        /* \"#utility.yul\":12010:12071   */\n      tag_331\n        /* \"#utility.yul\":12067:12070   */\n      dup4\n        /* \"#utility.yul\":12059:12065   */\n      dup4\n        /* \"#utility.yul\":12010:12071   */\n      tag_171\n      jump\t// in\n    tag_331:\n        /* \"#utility.yul\":12103:12107   */\n      0x20\n        /* \"#utility.yul\":12098:12101   */\n      dup4\n        /* \"#utility.yul\":12094:12108   */\n      add\n        /* \"#utility.yul\":12080:12108   */\n      swap1\n      pop\n        /* \"#utility.yul\":11905:12114   */\n      swap3\n      swap2\n      pop\n      pop\n      jump\t// out\n        /* \"#utility.yul\":12120:12248   */\n    tag_173:\n        /* \"#utility.yul\":12205:12209   */\n      0x00\n        /* \"#utility.yul\":12237:12241   */\n      0x20\n        /* \"#utility.yul\":12232:12235   */\n      dup3\n        /* \"#utility.yul\":12228:12242   */\n      add\n        /* \"#utility.yul\":12220:12242   */\n      swap1\n      pop\n        /* \"#utility.yul\":12120:12248   */\n      swap2\n      swap1\n      pop\n      jump\t// out\n        /* \"#utility.yul\":12292:13079   */\n    tag_174:\n        /* \"#utility.yul\":12416:12419   */\n      0x00\n        /* \"#utility.yul\":12445:12514   */\n      tag_334\n        /* \"#utility.yul\":12508:12513   */\n      dup3\n        /* \"#utility.yul\":12445:12514   */\n      tag_164\n      jump\t// in\n    tag_334:\n        /* \"#utility.yul\":12530:12606   */\n      tag_335\n        /* \"#utility.yul\":12599:12605   */\n      dup2\n        /* \"#utility.yul\":12594:12597   */\n      dup6\n        /* \"#utility.yul\":12530:12606   */\n      tag_165\n      jump\t// in\n    tag_335:\n        /* \"#utility.yul\":12523:12606   */\n      swap4\n      pop\n        /* \"#utility.yul\":12630:12701   */\n      tag_336\n        /* \"#utility.yul\":12695:12700   */\n      dup4\n        /* \"#utility.yul\":12630:12701   */\n      tag_166\n      jump\t// in\n    tag_336:\n        /* \"#utility.yul\":12724:12731   */\n      dup1\n        /* \"#utility.yul\":12755:12756   */\n      0x00\n        /* \"#utility.yul\":12740:13054   */\n    tag_337:\n        /* \"#utility.yul\":12765:12771   */\n      dup4\n        /* \"#utility.yul\":12762:12763   */\n      dup2\n        /* \"#utility.yul\":12759:12772   */\n      lt\n        /* \"#utility.yul\":12740:13054   */\n      iszero\n      tag_339\n      jumpi\n        /* \"#utility.yul\":12841:12847   */\n      dup2\n        /* \"#utility.yul\":12835:12848   */\n      mload\n        /* \"#utility.yul\":12868:12946   */\n      tag_340\n        /* \"#utility.yul\":12942:12945   */\n      dup9\n        /* \"#utility.yul\":12927:12940   */\n      dup3\n        /* \"#utility.yul\":12868:12946   */\n      tag_172\n      jump\t// in\n    tag_340:\n        /* \"#utility.yul\":12861:12946   */\n      swap8\n      pop\n        /* \"#utility.yul\":12969:13044   */\n      tag_341\n        /* \"#utility.yul\":13037:13043   */\n      dup4\n        /* \"#utility.yul\":12969:13044   */\n      tag_173\n      jump\t// in\n    tag_341:\n        /* \"#utility.yul\":12959:13044   */\n      swap3\n      pop\n        /* \"#utility.yul\":12800:13054   */\n      pop\n        /* \"#utility.yul\":12787:12788   */\n      0x01\n        /* \"#utility.yul\":12784:12785   */\n      dup2\n        /* \"#utility.yul\":12780:12789   */\n      add\n        /* \"#utility.yul\":12775:12789   */\n      swap1\n      pop\n        /* \"#utility.yul\":12740:13054   */\n      jump(tag_337)\n    tag_339:\n        /* \"#utility.yul\":12744:12758   */\n      pop\n        /* \"#utility.yul\":13070:13073   */\n      dup6\n        /* \"#utility.yul\":13063:13073   */\n      swap4\n      pop\n        /* \"#utility.yul\":12421:13079   */\n      pop\n      pop\n      pop\n        /* \"#utility.yul\":12292:13079   */\n      swap3\n      swap2\n      pop\n      pop\n      jump\t// out\n        /* \"#utility.yul\":13085:13259   */\n    tag_175:\n        /* \"#utility.yul\":13174:13185   */\n      0x00\n        /* \"#utility.yul\":13208:13214   */\n      dup3\n        /* \"#utility.yul\":13203:13206   */\n      dup3\n        /* \"#utility.yul\":13196:13215   */\n      mstore\n        /* \"#utility.yul\":13248:13252   */\n      0x20\n        /* \"#utility.yul\":13243:13246   */\n      dup3\n        /* \"#utility.yul\":13239:13253   */\n      add\n        /* \"#utility.yul\":13224:13253   */\n      swap1\n      pop\n        /* \"#utility.yul\":13085:13259   */\n      swap3\n      swap2\n      pop\n      pop\n      jump\t// out\n        /* \"#utility.yul\":13295:14007   */\n    tag_176:\n        /* \"#utility.yul\":13404:13407   */\n      0x00\n        /* \"#utility.yul\":13433:13487   */\n      tag_344\n        /* \"#utility.yul\":13481:13486   */\n      dup3\n        /* \"#utility.yul\":13433:13487   */\n      tag_156\n      jump\t// in\n    tag_344:\n        /* \"#utility.yul\":13503:13579   */\n      tag_345\n        /* \"#utility.yul\":13572:13578   */\n      dup2\n        /* \"#utility.yul\":13567:13570   */\n      dup6\n        /* \"#utility.yul\":13503:13579   */\n      tag_175\n      jump\t// in\n    tag_345:\n        /* \"#utility.yul\":13496:13579   */\n      swap4\n      pop\n        /* \"#utility.yul\":13603:13659   */\n      tag_346\n        /* \"#utility.yul\":13653:13658   */\n      dup4\n        /* \"#utility.yul\":13603:13659   */\n      tag_158\n      jump\t// in\n    tag_346:\n        /* \"#utility.yul\":13682:13689   */\n      dup1\n        /* \"#utility.yul\":13713:13714   */\n      0x00\n        /* \"#utility.yul\":13698:13982   */\n    tag_347:\n        /* \"#utility.yul\":13723:13729   */\n      dup4\n        /* \"#utility.yul\":13720:13721   */\n      dup2\n        /* \"#utility.yul\":13717:13730   */\n      lt\n        /* \"#utility.yul\":13698:13982   */\n      iszero\n      tag_349\n      jumpi\n        /* \"#utility.yul\":13799:13805   */\n      dup2\n        /* \"#utility.yul\":13793:13806   */\n      mload\n        /* \"#utility.yul\":13826:13889   */\n      tag_350\n        /* \"#utility.yul\":13885:13888   */\n      dup9\n        /* \"#utility.yul\":13870:13883   */\n      dup3\n        /* \"#utility.yul\":13826:13889   */\n      tag_160\n      jump\t// in\n    tag_350:\n        /* \"#utility.yul\":13819:13889   */\n      swap8\n      pop\n        /* \"#utility.yul\":13912:13972   */\n      tag_351\n        /* \"#utility.yul\":13965:13971   */\n      dup4\n        /* \"#utility.yul\":13912:13972   */\n      tag_161\n      jump\t// in\n    tag_351:\n        /* \"#utility.yul\":13902:13972   */\n      swap3\n      pop\n        /* \"#utility.yul\":13758:13982   */\n      pop\n        /* \"#utility.yul\":13745:13746   */\n      0x01\n        /* \"#utility.yul\":13742:13743   */\n      dup2\n        /* \"#utility.yul\":13738:13747   */\n      add\n        /* \"#utility.yul\":13733:13747   */\n      swap1\n      pop\n        /* \"#utility.yul\":13698:13982   */\n      jump(tag_347)\n    tag_349:\n        /* \"#utility.yul\":13702:13716   */\n      pop\n        /* \"#utility.yul\":13998:14001   */\n      dup6\n        /* \"#utility.yul\":13991:14001   */\n      swap4\n      pop\n        /* \"#utility.yul\":13409:14007   */\n      pop\n      pop\n      pop\n        /* \"#utility.yul\":13295:14007   */\n      swap3\n      swap2\n      pop\n      pop\n      jump\t// out\n        /* \"#utility.yul\":14013:14111   */\n    tag_177:\n        /* \"#utility.yul\":14064:14070   */\n      0x00\n        /* \"#utility.yul\":14098:14103   */\n      dup2\n        /* \"#utility.yul\":14092:14104   */\n      mload\n        /* \"#utility.yul\":14082:14104   */\n      swap1\n      pop\n        /* \"#utility.yul\":14013:14111   */\n      swap2\n      swap1\n      pop\n      jump\t// out\n        /* \"#utility.yul\":14117:14275   */\n    tag_178:\n        /* \"#utility.yul\":14190:14201   */\n      0x00\n        /* \"#utility.yul\":14224:14230   */\n      dup3\n        /* \"#utility.yul\":14219:14222   */\n      dup3\n        /* \"#utility.yul\":14212:14231   */\n      mstore\n        /* \"#utility.yul\":14264:14268   */\n      0x20\n        /* \"#utility.yul\":14259:14262   */\n      dup3\n        /* \"#utility.yul\":14255:14269   */\n      add\n        /* \"#utility.yul\":14240:14269   */\n      swap1\n      pop\n        /* \"#utility.yul\":14117:14275   */\n      swap3\n      swap2\n      pop\n      pop\n      jump\t// out\n        /* \"#utility.yul\":14281:14588   */\n    tag_179:\n        /* \"#utility.yul\":14349:14350   */\n      0x00\n        /* \"#utility.yul\":14359:14472   */\n    tag_355:\n        /* \"#utility.yul\":14373:14379   */\n      dup4\n        /* \"#utility.yul\":14370:14371   */\n      dup2\n        /* \"#utility.yul\":14367:14380   */\n      lt\n        /* \"#utility.yul\":14359:14472   */\n      iszero\n      tag_357\n      jumpi\n        /* \"#utility.yul\":14458:14459   */\n      dup1\n        /* \"#utility.yul\":14453:14456   */\n      dup3\n        /* \"#utility.yul\":14449:14460   */\n      add\n        /* \"#utility.yul\":14443:14461   */\n      mload\n        /* \"#utility.yul\":14439:14440   */\n      dup2\n        /* \"#utility.yul\":14434:14437   */\n      dup5\n        /* \"#utility.yul\":14430:14441   */\n      add\n        /* \"#utility.yul\":14423:14462   */\n      mstore\n        /* \"#utility.yul\":14395:14397   */\n      0x20\n        /* \"#utility.yul\":14392:14393   */\n      dup2\n        /* \"#utility.yul\":14388:14398   */\n      add\n        /* \"#utility.yul\":14383:14398   */\n      swap1\n      pop\n        /* \"#utility.yul\":14359:14472   */\n      jump(tag_355)\n    tag_357:\n        /* \"#utility.yul\":14490:14496   */\n      dup4\n        /* \"#utility.yul\":14487:14488   */\n      dup2\n        /* \"#utility.yul\":14484:14497   */\n      gt\n        /* \"#utility.yul\":14481:14582   */\n      iszero\n      tag_358\n      jumpi\n        /* \"#utility.yul\":14570:14571   */\n      0x00\n        /* \"#utility.yul\":14561:14567   */\n      dup5\n        /* \"#utility.yul\":14556:14559   */\n      dup5\n        /* \"#utility.yul\":14552:14568   */\n      add\n        /* \"#utility.yul\":14545:14572   */\n      mstore\n        /* \"#utility.yul\":14481:14582   */\n    tag_358:\n        /* \"#utility.yul\":14330:14588   */\n      pop\n        /* \"#utility.yul\":14281:14588   */\n      pop\n      pop\n      pop\n      jump\t// out\n        /* \"#utility.yul\":14594:14934   */\n    tag_180:\n        /* \"#utility.yul\":14670:14673   */\n      0x00\n        /* \"#utility.yul\":14698:14736   */\n      tag_360\n        /* \"#utility.yul\":14730:14735   */\n      dup3\n        /* \"#utility.yul\":14698:14736   */\n      tag_177\n      jump\t// in\n    tag_360:\n        /* \"#utility.yul\":14752:14812   */\n      tag_361\n        /* \"#utility.yul\":14805:14811   */\n      dup2\n        /* \"#utility.yul\":14800:14803   */\n      dup6\n        /* \"#utility.yul\":14752:14812   */\n      tag_178\n      jump\t// in\n    tag_361:\n        /* \"#utility.yul\":14745:14812   */\n      swap4\n      pop\n        /* \"#utility.yul\":14821:14873   */\n      tag_362\n        /* \"#utility.yul\":14866:14872   */\n      dup2\n        /* \"#utility.yul\":14861:14864   */\n      dup6\n        /* \"#utility.yul\":14854:14858   */\n      0x20\n        /* \"#utility.yul\":14847:14852   */\n      dup7\n        /* \"#utility.yul\":14843:14859   */\n      add\n        /* \"#utility.yul\":14821:14873   */\n      tag_179\n      jump\t// in\n    tag_362:\n        /* \"#utility.yul\":14898:14927   */\n      tag_363\n        /* \"#utility.yul\":14920:14926   */\n      dup2\n        /* \"#utility.yul\":14898:14927   */\n      tag_134\n      jump\t// in\n    tag_363:\n        /* \"#utility.yul\":14893:14896   */\n      dup5\n        /* \"#utility.yul\":14889:14928   */\n      add\n        /* \"#utility.yul\":14882:14928   */\n      swap2\n      pop\n        /* \"#utility.yul\":14674:14934   */\n      pop\n        /* \"#utility.yul\":14594:14934   */\n      swap3\n      swap2\n      pop\n      pop\n      jump\t// out\n        /* \"#utility.yul\":14940:15030   */\n    tag_181:\n        /* \"#utility.yul\":14974:14981   */\n      0x00\n        /* \"#utility.yul\":15017:15022   */\n      dup2\n        /* \"#utility.yul\":15010:15023   */\n      iszero\n        /* \"#utility.yul\":15003:15024   */\n      iszero\n        /* \"#utility.yul\":14992:15024   */\n      swap1\n      pop\n        /* \"#utility.yul\":14940:15030   */\n      swap2\n      swap1\n      pop\n      jump\t// out\n        /* \"#utility.yul\":15036:15135   */\n    tag_182:\n        /* \"#utility.yul\":15107:15128   */\n      tag_366\n        /* \"#utility.yul\":15122:15127   */\n      dup2\n        /* \"#utility.yul\":15107:15128   */\n      tag_181\n      jump\t// in\n    tag_366:\n        /* \"#utility.yul\":15102:15105   */\n      dup3\n        /* \"#utility.yul\":15095:15129   */\n      mstore\n        /* \"#utility.yul\":15036:15135   */\n      pop\n      pop\n      jump\t// out\n        /* \"#utility.yul\":15219:16427   */\n    tag_183:\n        /* \"#utility.yul\":15354:15357   */\n      0x00\n        /* \"#utility.yul\":15390:15394   */\n      0x80\n        /* \"#utility.yul\":15385:15388   */\n      dup4\n        /* \"#utility.yul\":15381:15395   */\n      add\n        /* \"#utility.yul\":15479:15483   */\n      0x00\n        /* \"#utility.yul\":15472:15477   */\n      dup4\n        /* \"#utility.yul\":15468:15484   */\n      add\n        /* \"#utility.yul\":15462:15485   */\n      mload\n        /* \"#utility.yul\":15532:15535   */\n      dup5\n        /* \"#utility.yul\":15526:15530   */\n      dup3\n        /* \"#utility.yul\":15522:15536   */\n      sub\n        /* \"#utility.yul\":15515:15519   */\n      0x00\n        /* \"#utility.yul\":15510:15513   */\n      dup7\n        /* \"#utility.yul\":15506:15520   */\n      add\n        /* \"#utility.yul\":15499:15537   */\n      mstore\n        /* \"#utility.yul\":15558:15676   */\n      tag_368\n        /* \"#utility.yul\":15671:15675   */\n      dup3\n        /* \"#utility.yul\":15657:15669   */\n      dup3\n        /* \"#utility.yul\":15558:15676   */\n      tag_174\n      jump\t// in\n    tag_368:\n        /* \"#utility.yul\":15550:15676   */\n      swap2\n      pop\n        /* \"#utility.yul\":15405:15687   */\n      pop\n        /* \"#utility.yul\":15777:15781   */\n      0x20\n        /* \"#utility.yul\":15770:15775   */\n      dup4\n        /* \"#utility.yul\":15766:15782   */\n      add\n        /* \"#utility.yul\":15760:15783   */\n      mload\n        /* \"#utility.yul\":15830:15833   */\n      dup5\n        /* \"#utility.yul\":15824:15828   */\n      dup3\n        /* \"#utility.yul\":15820:15834   */\n      sub\n        /* \"#utility.yul\":15813:15817   */\n      0x20\n        /* \"#utility.yul\":15808:15811   */\n      dup7\n        /* \"#utility.yul\":15804:15818   */\n      add\n        /* \"#utility.yul\":15797:15835   */\n      mstore\n        /* \"#utility.yul\":15856:15959   */\n      tag_369\n        /* \"#utility.yul\":15954:15958   */\n      dup3\n        /* \"#utility.yul\":15940:15952   */\n      dup3\n        /* \"#utility.yul\":15856:15959   */\n      tag_176\n      jump\t// in\n    tag_369:\n        /* \"#utility.yul\":15848:15959   */\n      swap2\n      pop\n        /* \"#utility.yul\":15697:15970   */\n      pop\n        /* \"#utility.yul\":16056:16060   */\n      0x40\n        /* \"#utility.yul\":16049:16054   */\n      dup4\n        /* \"#utility.yul\":16045:16061   */\n      add\n        /* \"#utility.yul\":16039:16062   */\n      mload\n        /* \"#utility.yul\":16109:16112   */\n      dup5\n        /* \"#utility.yul\":16103:16107   */\n      dup3\n        /* \"#utility.yul\":16099:16113   */\n      sub\n        /* \"#utility.yul\":16092:16096   */\n      0x40\n        /* \"#utility.yul\":16087:16090   */\n      dup7\n        /* \"#utility.yul\":16083:16097   */\n      add\n        /* \"#utility.yul\":16076:16114   */\n      mstore\n        /* \"#utility.yul\":16135:16206   */\n      tag_370\n        /* \"#utility.yul\":16201:16205   */\n      dup3\n        /* \"#utility.yul\":16187:16199   */\n      dup3\n        /* \"#utility.yul\":16135:16206   */\n      tag_180\n      jump\t// in\n    tag_370:\n        /* \"#utility.yul\":16127:16206   */\n      swap2\n      pop\n        /* \"#utility.yul\":15980:16217   */\n      pop\n        /* \"#utility.yul\":16314:16318   */\n      0x60\n        /* \"#utility.yul\":16307:16312   */\n      dup4\n        /* \"#utility.yul\":16303:16319   */\n      add\n        /* \"#utility.yul\":16297:16320   */\n      mload\n        /* \"#utility.yul\":16333:16390   */\n      tag_371\n        /* \"#utility.yul\":16384:16388   */\n      0x60\n        /* \"#utility.yul\":16379:16382   */\n      dup7\n        /* \"#utility.yul\":16375:16389   */\n      add\n        /* \"#utility.yul\":16361:16373   */\n      dup3\n        /* \"#utility.yul\":16333:16390   */\n      tag_182\n      jump\t// in\n    tag_371:\n        /* \"#utility.yul\":16227:16400   */\n      pop\n        /* \"#utility.yul\":16417:16421   */\n      dup1\n        /* \"#utility.yul\":16410:16421   */\n      swap2\n      pop\n        /* \"#utility.yul\":15359:16427   */\n      pop\n        /* \"#utility.yul\":15219:16427   */\n      swap3\n      swap2\n      pop\n      pop\n      jump\t// out\n        /* \"#utility.yul\":16433:17169   */\n    tag_51:\n        /* \"#utility.yul\":16676:16680   */\n      0x00\n        /* \"#utility.yul\":16714:16717   */\n      0x80\n        /* \"#utility.yul\":16703:16712   */\n      dup3\n        /* \"#utility.yul\":16699:16718   */\n      add\n        /* \"#utility.yul\":16691:16718   */\n      swap1\n      pop\n        /* \"#utility.yul\":16728:16799   */\n      tag_373\n        /* \"#utility.yul\":16796:16797   */\n      0x00\n        /* \"#utility.yul\":16785:16794   */\n      dup4\n        /* \"#utility.yul\":16781:16798   */\n      add\n        /* \"#utility.yul\":16772:16778   */\n      dup8\n        /* \"#utility.yul\":16728:16799   */\n      tag_163\n      jump\t// in\n    tag_373:\n        /* \"#utility.yul\":16809:16881   */\n      tag_374\n        /* \"#utility.yul\":16877:16879   */\n      0x20\n        /* \"#utility.yul\":16866:16875   */\n      dup4\n        /* \"#utility.yul\":16862:16880   */\n      add\n        /* \"#utility.yul\":16853:16859   */\n      dup7\n        /* \"#utility.yul\":16809:16881   */\n      tag_127\n      jump\t// in\n    tag_374:\n        /* \"#utility.yul\":16891:16963   */\n      tag_375\n        /* \"#utility.yul\":16959:16961   */\n      0x40\n        /* \"#utility.yul\":16948:16957   */\n      dup4\n        /* \"#utility.yul\":16944:16962   */\n      add\n        /* \"#utility.yul\":16935:16941   */\n      dup6\n        /* \"#utility.yul\":16891:16963   */\n      tag_127\n      jump\t// in\n    tag_375:\n        /* \"#utility.yul\":17010:17019   */\n      dup2\n        /* \"#utility.yul\":17004:17008   */\n      dup2\n        /* \"#utility.yul\":17000:17020   */\n      sub\n        /* \"#utility.yul\":16995:16997   */\n      0x60\n        /* \"#utility.yul\":16984:16993   */\n      dup4\n        /* \"#utility.yul\":16980:16998   */\n      add\n        /* \"#utility.yul\":16973:17021   */\n      mstore\n        /* \"#utility.yul\":17038:17162   */\n      tag_376\n        /* \"#utility.yul\":17157:17161   */\n      dup2\n        /* \"#utility.yul\":17148:17154   */\n      dup5\n        /* \"#utility.yul\":17038:17162   */\n      tag_183\n      jump\t// in\n    tag_376:\n        /* \"#utility.yul\":17030:17162   */\n      swap1\n      pop\n        /* \"#utility.yul\":16433:17169   */\n      swap6\n      swap5\n      pop\n      pop\n      pop\n      pop\n      pop\n      jump\t// out\n        /* \"#utility.yul\":17175:17318   */\n    tag_184:\n        /* \"#utility.yul\":17232:17237   */\n      0x00\n        /* \"#utility.yul\":17263:17269   */\n      dup2\n        /* \"#utility.yul\":17257:17270   */\n      mload\n        /* \"#utility.yul\":17248:17270   */\n      swap1\n      pop\n        /* \"#utility.yul\":17279:17312   */\n      tag_378\n        /* \"#utility.yul\":17306:17311   */\n      dup2\n        /* \"#utility.yul\":17279:17312   */\n      tag_147\n      jump\t// in\n    tag_378:\n        /* \"#utility.yul\":17175:17318   */\n      swap3\n      swap2\n      pop\n      pop\n      jump\t// out\n        /* \"#utility.yul\":17324:17675   */\n    tag_66:\n        /* \"#utility.yul\":17394:17400   */\n      0x00\n        /* \"#utility.yul\":17443:17445   */\n      0x20\n        /* \"#utility.yul\":17431:17440   */\n      dup3\n        /* \"#utility.yul\":17422:17429   */\n      dup5\n        /* \"#utility.yul\":17418:17441   */\n      sub\n        /* \"#utility.yul\":17414:17446   */\n      slt\n        /* \"#utility.yul\":17411:17530   */\n      iszero\n      tag_380\n      jumpi\n        /* \"#utility.yul\":17449:17528   */\n      tag_381\n      tag_129\n      jump\t// in\n    tag_381:\n        /* \"#utility.yul\":17411:17530   */\n    tag_380:\n        /* \"#utility.yul\":17569:17570   */\n      0x00\n        /* \"#utility.yul\":17594:17658   */\n      tag_382\n        /* \"#utility.yul\":17650:17657   */\n      dup5\n        /* \"#utility.yul\":17641:17647   */\n      dup3\n        /* \"#utility.yul\":17630:17639   */\n      dup6\n        /* \"#utility.yul\":17626:17648   */\n      add\n        /* \"#utility.yul\":17594:17658   */\n      tag_184\n      jump\t// in\n    tag_382:\n        /* \"#utility.yul\":17584:17658   */\n      swap2\n      pop\n        /* \"#utility.yul\":17540:17668   */\n      pop\n        /* \"#utility.yul\":17324:17675   */\n      swap3\n      swap2\n      pop\n      pop\n      jump\t// out\n        /* \"#utility.yul\":17681:17797   */\n    tag_185:\n        /* \"#utility.yul\":17751:17772   */\n      tag_384\n        /* \"#utility.yul\":17766:17771   */\n      dup2\n        /* \"#utility.yul\":17751:17772   */\n      tag_181\n      jump\t// in\n    tag_384:\n        /* \"#utility.yul\":17744:17749   */\n      dup2\n        /* \"#utility.yul\":17741:17773   */\n      eq\n        /* \"#utility.yul\":17731:17791   */\n      tag_385\n      jumpi\n        /* \"#utility.yul\":17787:17788   */\n      0x00\n        /* \"#utility.yul\":17784:17785   */\n      dup1\n        /* \"#utility.yul\":17777:17789   */\n      revert\n        /* \"#utility.yul\":17731:17791   */\n    tag_385:\n        /* \"#utility.yul\":17681:17797   */\n      pop\n      jump\t// out\n        /* \"#utility.yul\":17803:17940   */\n    tag_186:\n        /* \"#utility.yul\":17857:17862   */\n      0x00\n        /* \"#utility.yul\":17888:17894   */\n      dup2\n        /* \"#utility.yul\":17882:17895   */\n      mload\n        /* \"#utility.yul\":17873:17895   */\n      swap1\n      pop\n        /* \"#utility.yul\":17904:17934   */\n      tag_387\n        /* \"#utility.yul\":17928:17933   */\n      dup2\n        /* \"#utility.yul\":17904:17934   */\n      tag_185\n      jump\t// in\n    tag_387:\n        /* \"#utility.yul\":17803:17940   */\n      swap3\n      swap2\n      pop\n      pop\n      jump\t// out\n        /* \"#utility.yul\":17946:18291   */\n    tag_73:\n        /* \"#utility.yul\":18013:18019   */\n      0x00\n        /* \"#utility.yul\":18062:18064   */\n      0x20\n        /* \"#utility.yul\":18050:18059   */\n      dup3\n        /* \"#utility.yul\":18041:18048   */\n      dup5\n        /* \"#utility.yul\":18037:18060   */\n      sub\n        /* \"#utility.yul\":18033:18065   */\n      slt\n        /* \"#utility.yul\":18030:18149   */\n      iszero\n      tag_389\n      jumpi\n        /* \"#utility.yul\":18068:18147   */\n      tag_390\n      tag_129\n      jump\t// in\n    tag_390:\n        /* \"#utility.yul\":18030:18149   */\n    tag_389:\n        /* \"#utility.yul\":18188:18189   */\n      0x00\n        /* \"#utility.yul\":18213:18274   */\n      tag_391\n        /* \"#utility.yul\":18266:18273   */\n      dup5\n        /* \"#utility.yul\":18257:18263   */\n      dup3\n        /* \"#utility.yul\":18246:18255   */\n      dup6\n        /* \"#utility.yul\":18242:18264   */\n      add\n        /* \"#utility.yul\":18213:18274   */\n      tag_186\n      jump\t// in\n    tag_391:\n        /* \"#utility.yul\":18203:18274   */\n      swap2\n      pop\n        /* \"#utility.yul\":18159:18284   */\n      pop\n        /* \"#utility.yul\":17946:18291   */\n      swap3\n      swap2\n      pop\n      pop\n      jump\t// out\n        /* \"#utility.yul\":18297:18466   */\n    tag_187:\n        /* \"#utility.yul\":18381:18392   */\n      0x00\n        /* \"#utility.yul\":18415:18421   */\n      dup3\n        /* \"#utility.yul\":18410:18413   */\n      dup3\n        /* \"#utility.yul\":18403:18422   */\n      mstore\n        /* \"#utility.yul\":18455:18459   */\n      0x20\n        /* \"#utility.yul\":18450:18453   */\n      dup3\n        /* \"#utility.yul\":18446:18460   */\n      add\n        /* \"#utility.yul\":18431:18460   */\n      swap1\n      pop\n        /* \"#utility.yul\":18297:18466   */\n      swap3\n      swap2\n      pop\n      pop\n      jump\t// out\n        /* \"#utility.yul\":18472:18701   */\n    tag_188:\n        /* \"#utility.yul\":18612:18646   */\n      0x5361666545524332303a204552433230206f7065726174696f6e20646964206e\n        /* \"#utility.yul\":18608:18609   */\n      0x00\n        /* \"#utility.yul\":18600:18606   */\n      dup3\n        /* \"#utility.yul\":18596:18610   */\n      add\n        /* \"#utility.yul\":18589:18647   */\n      mstore\n        /* \"#utility.yul\":18681:18693   */\n      0x6f74207375636365656400000000000000000000000000000000000000000000\n        /* \"#utility.yul\":18676:18678   */\n      0x20\n        /* \"#utility.yul\":18668:18674   */\n      dup3\n        /* \"#utility.yul\":18664:18679   */\n      add\n        /* \"#utility.yul\":18657:18694   */\n      mstore\n        /* \"#utility.yul\":18472:18701   */\n      pop\n      jump\t// out\n        /* \"#utility.yul\":18707:19073   */\n    tag_189:\n        /* \"#utility.yul\":18849:18852   */\n      0x00\n        /* \"#utility.yul\":18870:18937   */\n      tag_395\n        /* \"#utility.yul\":18934:18936   */\n      0x2a\n        /* \"#utility.yul\":18929:18932   */\n      dup4\n        /* \"#utility.yul\":18870:18937   */\n      tag_187\n      jump\t// in\n    tag_395:\n        /* \"#utility.yul\":18863:18937   */\n      swap2\n      pop\n        /* \"#utility.yul\":18946:19039   */\n      tag_396\n        /* \"#utility.yul\":19035:19038   */\n      dup3\n        /* \"#utility.yul\":18946:19039   */\n      tag_188\n      jump\t// in\n    tag_396:\n        /* \"#utility.yul\":19064:19066   */\n      0x40\n        /* \"#utility.yul\":19059:19062   */\n      dup3\n        /* \"#utility.yul\":19055:19067   */\n      add\n        /* \"#utility.yul\":19048:19067   */\n      swap1\n      pop\n        /* \"#utility.yul\":18707:19073   */\n      swap2\n      swap1\n      pop\n      jump\t// out\n        /* \"#utility.yul\":19079:19498   */\n    tag_76:\n        /* \"#utility.yul\":19245:19249   */\n      0x00\n        /* \"#utility.yul\":19283:19285   */\n      0x20\n        /* \"#utility.yul\":19272:19281   */\n      dup3\n        /* \"#utility.yul\":19268:19286   */\n      add\n        /* \"#utility.yul\":19260:19286   */\n      swap1\n      pop\n        /* \"#utility.yul\":19332:19341   */\n      dup2\n        /* \"#utility.yul\":19326:19330   */\n      dup2\n        /* \"#utility.yul\":19322:19342   */\n      sub\n        /* \"#utility.yul\":19318:19319   */\n      0x00\n        /* \"#utility.yul\":19307:19316   */\n      dup4\n        /* \"#utility.yul\":19303:19320   */\n      add\n        /* \"#utility.yul\":19296:19343   */\n      mstore\n        /* \"#utility.yul\":19360:19491   */\n      tag_398\n        /* \"#utility.yul\":19486:19490   */\n      dup2\n        /* \"#utility.yul\":19360:19491   */\n      tag_189\n      jump\t// in\n    tag_398:\n        /* \"#utility.yul\":19352:19491   */\n      swap1\n      pop\n        /* \"#utility.yul\":19079:19498   */\n      swap2\n      swap1\n      pop\n      jump\t// out\n        /* \"#utility.yul\":19504:19836   */\n    tag_79:\n        /* \"#utility.yul\":19625:19629   */\n      0x00\n        /* \"#utility.yul\":19663:19665   */\n      0x40\n        /* \"#utility.yul\":19652:19661   */\n      dup3\n        /* \"#utility.yul\":19648:19666   */\n      add\n        /* \"#utility.yul\":19640:19666   */\n      swap1\n      pop\n        /* \"#utility.yul\":19676:19747   */\n      tag_400\n        /* \"#utility.yul\":19744:19745   */\n      0x00\n        /* \"#utility.yul\":19733:19742   */\n      dup4\n        /* \"#utility.yul\":19729:19746   */\n      add\n        /* \"#utility.yul\":19720:19726   */\n      dup6\n        /* \"#utility.yul\":19676:19747   */\n      tag_127\n      jump\t// in\n    tag_400:\n        /* \"#utility.yul\":19757:19829   */\n      tag_401\n        /* \"#utility.yul\":19825:19827   */\n      0x20\n        /* \"#utility.yul\":19814:19823   */\n      dup4\n        /* \"#utility.yul\":19810:19828   */\n      add\n        /* \"#utility.yul\":19801:19807   */\n      dup5\n        /* \"#utility.yul\":19757:19829   */\n      tag_127\n      jump\t// in\n    tag_401:\n        /* \"#utility.yul\":19504:19836   */\n      swap4\n      swap3\n      pop\n      pop\n      pop\n      jump\t// out\n        /* \"#utility.yul\":19842:20022   */\n    tag_190:\n        /* \"#utility.yul\":19890:19967   */\n      0x4e487b7100000000000000000000000000000000000000000000000000000000\n        /* \"#utility.yul\":19887:19888   */\n      0x00\n        /* \"#utility.yul\":19880:19968   */\n      mstore\n        /* \"#utility.yul\":19987:19991   */\n      0x11\n        /* \"#utility.yul\":19984:19985   */\n      0x04\n        /* \"#utility.yul\":19977:19992   */\n      mstore\n        /* \"#utility.yul\":20011:20015   */\n      0x24\n        /* \"#utility.yul\":20008:20009   */\n      0x00\n        /* \"#utility.yul\":20001:20016   */\n      revert\n        /* \"#utility.yul\":20028:20333   */\n    tag_84:\n        /* \"#utility.yul\":20068:20071   */\n      0x00\n        /* \"#utility.yul\":20087:20107   */\n      tag_404\n        /* \"#utility.yul\":20105:20106   */\n      dup3\n        /* \"#utility.yul\":20087:20107   */\n      tag_146\n      jump\t// in\n    tag_404:\n        /* \"#utility.yul\":20082:20107   */\n      swap2\n      pop\n        /* \"#utility.yul\":20121:20141   */\n      tag_405\n        /* \"#utility.yul\":20139:20140   */\n      dup4\n        /* \"#utility.yul\":20121:20141   */\n      tag_146\n      jump\t// in\n    tag_405:\n        /* \"#utility.yul\":20116:20141   */\n      swap3\n      pop\n        /* \"#utility.yul\":20275:20276   */\n      dup3\n        /* \"#utility.yul\":20207:20273   */\n      0xffffffffffffffffffffffffffffffffffffffffffffffffffffffffffffffff\n        /* \"#utility.yul\":20203:20277   */\n      sub\n        /* \"#utility.yul\":20200:20201   */\n      dup3\n        /* \"#utility.yul\":20197:20278   */\n      gt\n        /* \"#utility.yul\":20194:20301   */\n      iszero\n      tag_406\n      jumpi\n        /* \"#utility.yul\":20281:20299   */\n      tag_407\n      tag_190\n      jump\t// in\n    tag_407:\n        /* \"#utility.yul\":20194:20301   */\n    tag_406:\n        /* \"#utility.yul\":20325:20326   */\n      dup3\n        /* \"#utility.yul\":20322:20323   */\n      dup3\n        /* \"#utility.yul\":20318:20327   */\n      add\n        /* \"#utility.yul\":20311:20327   */\n      swap1\n      pop\n        /* \"#utility.yul\":20028:20333   */\n      swap3\n      swap2\n      pop\n      pop\n      jump\t// out\n        /* \"#utility.yul\":20339:20671   */\n    tag_87:\n        /* \"#utility.yul\":20460:20464   */\n      0x00\n        /* \"#utility.yul\":20498:20500   */\n      0x40\n        /* \"#utility.yul\":20487:20496   */\n      dup3\n        /* \"#utility.yul\":20483:20501   */\n      add\n        /* \"#utility.yul\":20475:20501   */\n      swap1\n      pop\n        /* \"#utility.yul\":20511:20582   */\n      tag_409\n        /* \"#utility.yul\":20579:20580   */\n      0x00\n        /* \"#utility.yul\":20568:20577   */\n      dup4\n        /* \"#utility.yul\":20564:20581   */\n      add\n        /* \"#utility.yul\":20555:20561   */\n      dup6\n        /* \"#utility.yul\":20511:20582   */\n      tag_127\n      jump\t// in\n    tag_409:\n        /* \"#utility.yul\":20592:20664   */\n      tag_410\n        /* \"#utility.yul\":20660:20662   */\n      0x20\n        /* \"#utility.yul\":20649:20658   */\n      dup4\n        /* \"#utility.yul\":20645:20663   */\n      add\n        /* \"#utility.yul\":20636:20642   */\n      dup5\n        /* \"#utility.yul\":20592:20664   */\n      tag_153\n      jump\t// in\n    tag_410:\n        /* \"#utility.yul\":20339:20671   */\n      swap4\n      swap3\n      pop\n      pop\n      pop\n      jump\t// out\n        /* \"#utility.yul\":20677:20902   */\n    tag_191:\n        /* \"#utility.yul\":20817:20851   */\n      0x416464726573733a20696e73756666696369656e742062616c616e636520666f\n        /* \"#utility.yul\":20813:20814   */\n      0x00\n        /* \"#utility.yul\":20805:20811   */\n      dup3\n        /* \"#utility.yul\":20801:20815   */\n      add\n        /* \"#utility.yul\":20794:20852   */\n      mstore\n        /* \"#utility.yul\":20886:20894   */\n      0x722063616c6c0000000000000000000000000000000000000000000000000000\n        /* \"#utility.yul\":20881:20883   */\n      0x20\n        /* \"#utility.yul\":20873:20879   */\n      dup3\n        /* \"#utility.yul\":20869:20884   */\n      add\n        /* \"#utility.yul\":20862:20895   */\n      mstore\n        /* \"#utility.yul\":20677:20902   */\n      pop\n      jump\t// out\n        /* \"#utility.yul\":20908:21274   */\n    tag_192:\n        /* \"#utility.yul\":21050:21053   */\n      0x00\n        /* \"#utility.yul\":21071:21138   */\n      tag_413\n        /* \"#utility.yul\":21135:21137   */\n      0x26\n        /* \"#utility.yul\":21130:21133   */\n      dup4\n        /* \"#utility.yul\":21071:21138   */\n      tag_187\n      jump\t// in\n    tag_413:\n        /* \"#utility.yul\":21064:21138   */\n      swap2\n      pop\n        /* \"#utility.yul\":21147:21240   */\n      tag_414\n        /* \"#utility.yul\":21236:21239   */\n      dup3\n        /* \"#utility.yul\":21147:21240   */\n      tag_191\n      jump\t// in\n    tag_414:\n        /* \"#utility.yul\":21265:21267   */\n      0x40\n        /* \"#utility.yul\":21260:21263   */\n      dup3\n        /* \"#utility.yul\":21256:21268   */\n      add\n        /* \"#utility.yul\":21249:21268   */\n      swap1\n      pop\n        /* \"#utility.yul\":20908:21274   */\n      swap2\n      swap1\n      pop\n      jump\t// out\n        /* \"#utility.yul\":21280:21699   */\n    tag_104:\n        /* \"#utility.yul\":21446:21450   */\n      0x00\n        /* \"#utility.yul\":21484:21486   */\n      0x20\n        /* \"#utility.yul\":21473:21482   */\n      dup3\n        /* \"#utility.yul\":21469:21487   */\n      add\n        /* \"#utility.yul\":21461:21487   */\n      swap1\n      pop\n        /* \"#utility.yul\":21533:21542   */\n      dup2\n        /* \"#utility.yul\":21527:21531   */\n      dup2\n        /* \"#utility.yul\":21523:21543   */\n      sub\n        /* \"#utility.yul\":21519:21520   */\n      0x00\n        /* \"#utility.yul\":21508:21517   */\n      dup4\n        /* \"#utility.yul\":21504:21521   */\n      add\n        /* \"#utility.yul\":21497:21544   */\n      mstore\n        /* \"#utility.yul\":21561:21692   */\n      tag_416\n        /* \"#utility.yul\":21687:21691   */\n      dup2\n        /* \"#utility.yul\":21561:21692   */\n      tag_192\n      jump\t// in\n    tag_416:\n        /* \"#utility.yul\":21553:21692   */\n      swap1\n      pop\n        /* \"#utility.yul\":21280:21699   */\n      swap2\n      swap1\n      pop\n      jump\t// out\n        /* \"#utility.yul\":21705:21884   */\n    tag_193:\n        /* \"#utility.yul\":21845:21876   */\n      0x416464726573733a2063616c6c20746f206e6f6e2d636f6e7472616374000000\n        /* \"#utility.yul\":21841:21842   */\n      0x00\n        /* \"#utility.yul\":21833:21839   */\n      dup3\n        /* \"#utility.yul\":21829:21843   */\n      add\n        /* \"#utility.yul\":21822:21877   */\n      mstore\n        /* \"#utility.yul\":21705:21884   */\n      pop\n      jump\t// out\n        /* \"#utility.yul\":21890:22256   */\n    tag_194:\n        /* \"#utility.yul\":22032:22035   */\n      0x00\n        /* \"#utility.yul\":22053:22120   */\n      tag_419\n        /* \"#utility.yul\":22117:22119   */\n      0x1d\n        /* \"#utility.yul\":22112:22115   */\n      dup4\n        /* \"#utility.yul\":22053:22120   */\n      tag_187\n      jump\t// in\n    tag_419:\n        /* \"#utility.yul\":22046:22120   */\n      swap2\n      pop\n        /* \"#utility.yul\":22129:22222   */\n      tag_420\n        /* \"#utility.yul\":22218:22221   */\n      dup3\n        /* \"#utility.yul\":22129:22222   */\n      tag_193\n      jump\t// in\n    tag_420:\n        /* \"#utility.yul\":22247:22249   */\n      0x20\n        /* \"#utility.yul\":22242:22245   */\n      dup3\n        /* \"#utility.yul\":22238:22250   */\n      add\n        /* \"#utility.yul\":22231:22250   */\n      swap1\n      pop\n        /* \"#utility.yul\":21890:22256   */\n      swap2\n      swap1\n      pop\n      jump\t// out\n        /* \"#utility.yul\":22262:22681   */\n    tag_109:\n        /* \"#utility.yul\":22428:22432   */\n      0x00\n        /* \"#utility.yul\":22466:22468   */\n      0x20\n        /* \"#utility.yul\":22455:22464   */\n      dup3\n        /* \"#utility.yul\":22451:22469   */\n      add\n        /* \"#utility.yul\":22443:22469   */\n      swap1\n      pop\n        /* \"#utility.yul\":22515:22524   */\n      dup2\n        /* \"#utility.yul\":22509:22513   */\n      dup2\n        /* \"#utility.yul\":22505:22525   */\n      sub\n        /* \"#utility.yul\":22501:22502   */\n      0x00\n        /* \"#utility.yul\":22490:22499   */\n      dup4\n        /* \"#utility.yul\":22486:22503   */\n      add\n        /* \"#utility.yul\":22479:22526   */\n      mstore\n        /* \"#utility.yul\":22543:22674   */\n      tag_422\n        /* \"#utility.yul\":22669:22673   */\n      dup2\n        /* \"#utility.yul\":22543:22674   */\n      tag_194\n      jump\t// in\n    tag_422:\n        /* \"#utility.yul\":22535:22674   */\n      swap1\n      pop\n        /* \"#utility.yul\":22262:22681   */\n      swap2\n      swap1\n      pop\n      jump\t// out\n        /* \"#utility.yul\":22687:22834   */\n    tag_195:\n        /* \"#utility.yul\":22788:22799   */\n      0x00\n        /* \"#utility.yul\":22825:22828   */\n      dup2\n        /* \"#utility.yul\":22810:22828   */\n      swap1\n      pop\n        /* \"#utility.yul\":22687:22834   */\n      swap3\n      swap2\n      pop\n      pop\n      jump\t// out\n        /* \"#utility.yul\":22840:23213   */\n    tag_196:\n        /* \"#utility.yul\":22944:22947   */\n      0x00\n        /* \"#utility.yul\":22972:23010   */\n      tag_425\n        /* \"#utility.yul\":23004:23009   */\n      dup3\n        /* \"#utility.yul\":22972:23010   */\n      tag_177\n      jump\t// in\n    tag_425:\n        /* \"#utility.yul\":23026:23114   */\n      tag_426\n        /* \"#utility.yul\":23107:23113   */\n      dup2\n        /* \"#utility.yul\":23102:23105   */\n      dup6\n        /* \"#utility.yul\":23026:23114   */\n      tag_195\n      jump\t// in\n    tag_426:\n        /* \"#utility.yul\":23019:23114   */\n      swap4\n      pop\n        /* \"#utility.yul\":23123:23175   */\n      tag_427\n        /* \"#utility.yul\":23168:23174   */\n      dup2\n        /* \"#utility.yul\":23163:23166   */\n      dup6\n        /* \"#utility.yul\":23156:23160   */\n      0x20\n        /* \"#utility.yul\":23149:23154   */\n      dup7\n        /* \"#utility.yul\":23145:23161   */\n      add\n        /* \"#utility.yul\":23123:23175   */\n      tag_179\n      jump\t// in\n    tag_427:\n        /* \"#utility.yul\":23200:23206   */\n      dup1\n        /* \"#utility.yul\":23195:23198   */\n      dup5\n        /* \"#utility.yul\":23191:23207   */\n      add\n        /* \"#utility.yul\":23184:23207   */\n      swap2\n      pop\n        /* \"#utility.yul\":22948:23213   */\n      pop\n        /* \"#utility.yul\":22840:23213   */\n      swap3\n      swap2\n      pop\n      pop\n      jump\t// out\n        /* \"#utility.yul\":23219:23490   */\n    tag_111:\n        /* \"#utility.yul\":23349:23352   */\n      0x00\n        /* \"#utility.yul\":23371:23464   */\n      tag_429\n        /* \"#utility.yul\":23460:23463   */\n      dup3\n        /* \"#utility.yul\":23451:23457   */\n      dup5\n        /* \"#utility.yul\":23371:23464   */\n      tag_196\n      jump\t// in\n    tag_429:\n        /* \"#utility.yul\":23364:23464   */\n      swap2\n      pop\n        /* \"#utility.yul\":23481:23484   */\n      dup2\n        /* \"#utility.yul\":23474:23484   */\n      swap1\n      pop\n        /* \"#utility.yul\":23219:23490   */\n      swap3\n      swap2\n      pop\n      pop\n      jump\t// out\n        /* \"#utility.yul\":23496:23595   */\n    tag_197:\n        /* \"#utility.yul\":23548:23554   */\n      0x00\n        /* \"#utility.yul\":23582:23587   */\n      dup2\n        /* \"#utility.yul\":23576:23588   */\n      mload\n        /* \"#utility.yul\":23566:23588   */\n      swap1\n      pop\n        /* \"#utility.yul\":23496:23595   */\n      swap2\n      swap1\n      pop\n      jump\t// out\n        /* \"#utility.yul\":23601:23965   */\n    tag_198:\n        /* \"#utility.yul\":23689:23692   */\n      0x00\n        /* \"#utility.yul\":23717:23756   */\n      tag_432\n        /* \"#utility.yul\":23750:23755   */\n      dup3\n        /* \"#utility.yul\":23717:23756   */\n      tag_197\n      jump\t// in\n    tag_432:\n        /* \"#utility.yul\":23772:23843   */\n      tag_433\n        /* \"#utility.yul\":23836:23842   */\n      dup2\n        /* \"#utility.yul\":23831:23834   */\n      dup6\n        /* \"#utility.yul\":23772:23843   */\n      tag_187\n      jump\t// in\n    tag_433:\n        /* \"#utility.yul\":23765:23843   */\n      swap4\n      pop\n        /* \"#utility.yul\":23852:23904   */\n      tag_434\n        /* \"#utility.yul\":23897:23903   */\n      dup2\n        /* \"#utility.yul\":23892:23895   */\n      dup6\n        /* \"#utility.yul\":23885:23889   */\n      0x20\n        /* \"#utility.yul\":23878:23883   */\n      dup7\n        /* \"#utility.yul\":23874:23890   */\n      add\n        /* \"#utility.yul\":23852:23904   */\n      tag_179\n      jump\t// in\n    tag_434:\n        /* \"#utility.yul\":23929:23958   */\n      tag_435\n        /* \"#utility.yul\":23951:23957   */\n      dup2\n        /* \"#utility.yul\":23929:23958   */\n      tag_134\n      jump\t// in\n    tag_435:\n        /* \"#utility.yul\":23924:23927   */\n      dup5\n        /* \"#utility.yul\":23920:23959   */\n      add\n        /* \"#utility.yul\":23913:23959   */\n      swap2\n      pop\n        /* \"#utility.yul\":23693:23965   */\n      pop\n        /* \"#utility.yul\":23601:23965   */\n      swap3\n      swap2\n      pop\n      pop\n      jump\t// out\n        /* \"#utility.yul\":23971:24284   */\n    tag_124:\n        /* \"#utility.yul\":24084:24088   */\n      0x00\n        /* \"#utility.yul\":24122:24124   */\n      0x20\n        /* \"#utility.yul\":24111:24120   */\n      dup3\n        /* \"#utility.yul\":24107:24125   */\n      add\n        /* \"#utility.yul\":24099:24125   */\n      swap1\n      pop\n        /* \"#utility.yul\":24171:24180   */\n      dup2\n        /* \"#utility.yul\":24165:24169   */\n      dup2\n        /* \"#utility.yul\":24161:24181   */\n      sub\n        /* \"#utility.yul\":24157:24158   */\n      0x00\n        /* \"#utility.yul\":24146:24155   */\n      dup4\n        /* \"#utility.yul\":24142:24159   */\n      add\n        /* \"#utility.yul\":24135:24182   */\n      mstore\n        /* \"#utility.yul\":24199:24277   */\n      tag_437\n        /* \"#utility.yul\":24272:24276   */\n      dup2\n        /* \"#utility.yul\":24263:24269   */\n      dup5\n        /* \"#utility.yul\":24199:24277   */\n      tag_198\n      jump\t// in\n    tag_437:\n        /* \"#utility.yul\":24191:24277   */\n      swap1\n      pop\n        /* \"#utility.yul\":23971:24284   */\n      swap3\n      swap2\n      pop\n      pop\n      jump\t// out\n\n    auxdata: 0xa2646970667358221220a2370759b6fbe599747e868d81e8d799ca01d6b2d27c066b5e92ec63f0eebe0c64736f6c634300080d0033\n}\n",
				"bytecode": {
					"linkReferences": {},
					"object": "60a06040523480156200001157600080fd5b50604051620017a2380380620017a28339818101604052810190620000379190620000dc565b8073ffffffffffffffffffffffffffffffffffffffff1660808173ffffffffffffffffffffffffffffffffffffffff1681525050506200010e565b600080fd5b600073ffffffffffffffffffffffffffffffffffffffff82169050919050565b6000620000a48262000077565b9050919050565b620000b68162000097565b8114620000c257600080fd5b50565b600081519050620000d681620000ab565b92915050565b600060208284031215620000f557620000f462000072565b5b60006200010584828501620000c5565b91505092915050565b60805161166b62000137600039600081816077015281816102ef0152610351015261166b6000f3fe608060405234801561001057600080fd5b50600436106100365760003560e01c806377aba2131461003b5780639cbcf4c714610059575b600080fd5b610043610075565b6040516100509190610a5d565b60405180910390f35b610073600480360381019061006e9190610d81565b610099565b005b7f000000000000000000000000000000000000000000000000000000000000000081565b81600001518260200151815181106100b4576100b3610df0565b5b602002602001015173ffffffffffffffffffffffffffffffffffffffff168373ffffffffffffffffffffffffffffffffffffffff16036100fd576100f88282610103565b6100fe565b5b505050565b600082600001518360200151815181106101205761011f610df0565b5b602002602001015190506101573330848473ffffffffffffffffffffffffffffffffffffffff1661018b909392919063ffffffff16565b61016f83600001518385602001518660400151610214565b610186836060015184608001518560a001516103eb565b505050565b61020e846323b872dd60e01b8585856040516024016101ac93929190610e2e565b604051602081830303815290604052907bffffffffffffffffffffffffffffffffffffffffffffffffffffffff19166020820180517bffffffffffffffffffffffffffffffffffffffffffffffffffffffff8381831617835250505050610504565b50505050565b6000600190506000855167ffffffffffffffff81111561023757610236610ace565b5b6040519080825280602002602001820160405280156102655781602001602082028036833780820191505090505b5090508481858151811061027c5761027b610df0565b5b60200260200101818152505060006001905060008383836040516020016102a593929190610f3f565b60405160208183030381529060405290506102be6109f2565b888160000181905250838160200181905250818160400181905250600081606001901515908115158152505061034f7f0000000000000000000000000000000000000000000000000000000000000000898b8a8151811061032257610321610df0565b5b602002602001015173ffffffffffffffffffffffffffffffffffffffff166105cb9092919063ffffffff16565b7f000000000000000000000000000000000000000000000000000000000000000073ffffffffffffffffffffffffffffffffffffffff1663b95cac28873030856040518563ffffffff1660e01b81526004016103ae949392919061121d565b600060405180830381600087803b1580156103c857600080fd5b505af11580156103dc573d6000803e3d6000fd5b50505050505050505050505050565b6103f582846106dd565b8173ffffffffffffffffffffffffffffffffffffffff1663de5f62686040518163ffffffff1660e01b8152600401600060405180830381600087803b15801561043d57600080fd5b505af1158015610451573d6000803e3d6000fd5b5050505060008290506104fe828273ffffffffffffffffffffffffffffffffffffffff166370a08231306040518263ffffffff1660e01b81526004016104979190610a5d565b602060405180830381865afa1580156104b4573d6000803e3d6000fd5b505050506040513d601f19601f820116820180604052508101906104d8919061127e565b8373ffffffffffffffffffffffffffffffffffffffff166107b69092919063ffffffff16565b50505050565b6000610566826040518060400160405280602081526020017f5361666545524332303a206c6f772d6c6576656c2063616c6c206661696c65648152508573ffffffffffffffffffffffffffffffffffffffff1661083c9092919063ffffffff16565b90506000815111156105c6578080602001905181019061058691906112d7565b6105c5576040517f08c379a00000000000000000000000000000000000000000000000000000000081526004016105bc90611387565b60405180910390fd5b5b505050565b6000818473ffffffffffffffffffffffffffffffffffffffff1663dd62ed3e30866040518363ffffffff1660e01b81526004016106099291906113a7565b602060405180830381865afa158015610626573d6000803e3d6000fd5b505050506040513d601f19601f8201168201806040525081019061064a919061127e565b61065491906113ff565b90506106d78463095ea7b360e01b8584604051602401610675929190611455565b604051602081830303815290604052907bffffffffffffffffffffffffffffffffffffffffffffffffffffffff19166020820180517bffffffffffffffffffffffffffffffffffffffffffffffffffffffff8381831617835250505050610504565b50505050565b600081905060008173ffffffffffffffffffffffffffffffffffffffff1663dd62ed3e30866040518363ffffffff1660e01b815260040161071f9291906113a7565b602060405180830381865afa15801561073c573d6000803e3d6000fd5b505050506040513d601f19601f82011682018060405250810190610760919061127e565b036107b1576107b0837fffffffffffffffffffffffffffffffffffffffffffffffffffffffffffffffff8373ffffffffffffffffffffffffffffffffffffffff166105cb9092919063ffffffff16565b5b505050565b6108378363a9059cbb60e01b84846040516024016107d5929190611455565b604051602081830303815290604052907bffffffffffffffffffffffffffffffffffffffffffffffffffffffff19166020820180517bffffffffffffffffffffffffffffffffffffffffffffffffffffffff8381831617835250505050610504565b505050565b606061084b8484600085610854565b90509392505050565b606082471015610899576040517f08c379a0000000000000000000000000000000000000000000000000000000008152600401610890906114f0565b60405180910390fd5b6108a285610968565b6108e1576040517f08c379a00000000000000000000000000000000000000000000000000000000081526004016108d89061155c565b60405180910390fd5b6000808673ffffffffffffffffffffffffffffffffffffffff16858760405161090a91906115b8565b60006040518083038185875af1925050503d8060008114610947576040519150601f19603f3d011682016040523d82523d6000602084013e61094c565b606091505b509150915061095c82828661098b565b92505050949350505050565b6000808273ffffffffffffffffffffffffffffffffffffffff163b119050919050565b6060831561099b578290506109eb565b6000835111156109ae5782518084602001fd5b816040517f08c379a00000000000000000000000000000000000000000000000000000000081526004016109e29190611613565b60405180910390fd5b9392505050565b60405180608001604052806060815260200160608152602001606081526020016000151581525090565b600073ffffffffffffffffffffffffffffffffffffffff82169050919050565b6000610a4782610a1c565b9050919050565b610a5781610a3c565b82525050565b6000602082019050610a726000830184610a4e565b92915050565b6000604051905090565b600080fd5b600080fd5b610a9581610a3c565b8114610aa057600080fd5b50565b600081359050610ab281610a8c565b92915050565b600080fd5b6000601f19601f8301169050919050565b7f4e487b7100000000000000000000000000000000000000000000000000000000600052604160045260246000fd5b610b0682610abd565b810181811067ffffffffffffffff82111715610b2557610b24610ace565b5b80604052505050565b6000610b38610a78565b9050610b448282610afd565b919050565b600080fd5b600080fd5b600067ffffffffffffffff821115610b6e57610b6d610ace565b5b602082029050602081019050919050565b600080fd5b6000610b8f82610a3c565b9050919050565b610b9f81610b84565b8114610baa57600080fd5b50565b600081359050610bbc81610b96565b92915050565b6000610bd5610bd084610b53565b610b2e565b90508083825260208201905060208402830185811115610bf857610bf7610b7f565b5b835b81811015610c215780610c0d8882610bad565b845260208401935050602081019050610bfa565b5050509392505050565b600082601f830112610c4057610c3f610b4e565b5b8135610c50848260208601610bc2565b91505092915050565b6000819050919050565b610c6c81610c59565b8114610c7757600080fd5b50565b600081359050610c8981610c63565b92915050565b6000819050919050565b610ca281610c8f565b8114610cad57600080fd5b50565b600081359050610cbf81610c99565b92915050565b600060c08284031215610cdb57610cda610ab8565b5b610ce560c0610b2e565b9050600082013567ffffffffffffffff811115610d0557610d04610b49565b5b610d1184828501610c2b565b6000830152506020610d2584828501610c7a565b6020830152506040610d3984828501610cb0565b6040830152506060610d4d84828501610aa3565b6060830152506080610d6184828501610aa3565b60808301525060a0610d7584828501610aa3565b60a08301525092915050565b600080600060608486031215610d9a57610d99610a82565b5b6000610da886828701610aa3565b935050602084013567ffffffffffffffff811115610dc957610dc8610a87565b5b610dd586828701610cc5565b9250506040610de686828701610c7a565b9150509250925092565b7f4e487b7100000000000000000000000000000000000000000000000000000000600052603260045260246000fd5b610e2881610c59565b82525050565b6000606082019050610e436000830186610a4e565b610e506020830185610a4e565b610e5d6040830184610e1f565b949350505050565b600060ff82169050919050565b610e7b81610e65565b82525050565b600081519050919050565b600082825260208201905092915050565b6000819050602082019050919050565b610eb681610c59565b82525050565b6000610ec88383610ead565b60208301905092915050565b6000602082019050919050565b6000610eec82610e81565b610ef68185610e8c565b9350610f0183610e9d565b8060005b83811015610f32578151610f198882610ebc565b9750610f2483610ed4565b925050600181019050610f05565b5085935050505092915050565b6000606082019050610f546000830186610e72565b8181036020830152610f668185610ee1565b9050610f756040830184610e1f565b949350505050565b610f8681610c8f565b82525050565b600081519050919050565b600082825260208201905092915050565b6000819050602082019050919050565b6000819050919050565b6000610fdd610fd8610fd384610a1c565b610fb8565b610a1c565b9050919050565b6000610fef82610fc2565b9050919050565b600061100182610fe4565b9050919050565b61101181610ff6565b82525050565b60006110238383611008565b60208301905092915050565b6000602082019050919050565b600061104782610f8c565b6110518185610f97565b935061105c83610fa8565b8060005b8381101561108d5781516110748882611017565b975061107f8361102f565b925050600181019050611060565b5085935050505092915050565b600082825260208201905092915050565b60006110b682610e81565b6110c0818561109a565b93506110cb83610e9d565b8060005b838110156110fc5781516110e38882610ebc565b97506110ee83610ed4565b9250506001810190506110cf565b5085935050505092915050565b600081519050919050565b600082825260208201905092915050565b60005b83811015611143578082015181840152602081019050611128565b83811115611152576000848401525b50505050565b600061116382611109565b61116d8185611114565b935061117d818560208601611125565b61118681610abd565b840191505092915050565b60008115159050919050565b6111a681611191565b82525050565b600060808301600083015184820360008601526111c9828261103c565b915050602083015184820360208601526111e382826110ab565b915050604083015184820360408601526111fd8282611158565b9150506060830151611212606086018261119d565b508091505092915050565b60006080820190506112326000830187610f7d565b61123f6020830186610a4e565b61124c6040830185610a4e565b818103606083015261125e81846111ac565b905095945050505050565b60008151905061127881610c63565b92915050565b60006020828403121561129457611293610a82565b5b60006112a284828501611269565b91505092915050565b6112b481611191565b81146112bf57600080fd5b50565b6000815190506112d1816112ab565b92915050565b6000602082840312156112ed576112ec610a82565b5b60006112fb848285016112c2565b91505092915050565b600082825260208201905092915050565b7f5361666545524332303a204552433230206f7065726174696f6e20646964206e60008201527f6f74207375636365656400000000000000000000000000000000000000000000602082015250565b6000611371602a83611304565b915061137c82611315565b604082019050919050565b600060208201905081810360008301526113a081611364565b9050919050565b60006040820190506113bc6000830185610a4e565b6113c96020830184610a4e565b9392505050565b7f4e487b7100000000000000000000000000000000000000000000000000000000600052601160045260246000fd5b600061140a82610c59565b915061141583610c59565b9250827fffffffffffffffffffffffffffffffffffffffffffffffffffffffffffffffff0382111561144a576114496113d0565b5b828201905092915050565b600060408201905061146a6000830185610a4e565b6114776020830184610e1f565b9392505050565b7f416464726573733a20696e73756666696369656e742062616c616e636520666f60008201527f722063616c6c0000000000000000000000000000000000000000000000000000602082015250565b60006114da602683611304565b91506114e58261147e565b604082019050919050565b60006020820190508181036000830152611509816114cd565b9050919050565b7f416464726573733a2063616c6c20746f206e6f6e2d636f6e7472616374000000600082015250565b6000611546601d83611304565b915061155182611510565b602082019050919050565b6000602082019050818103600083015261157581611539565b9050919050565b600081905092915050565b600061159282611109565b61159c818561157c565b93506115ac818560208601611125565b80840191505092915050565b60006115c48284611587565b915081905092915050565b600081519050919050565b60006115e5826115cf565b6115ef8185611304565b93506115ff818560208601611125565b61160881610abd565b840191505092915050565b6000602082019050818103600083015261162d81846115da565b90509291505056fea2646970667358221220a2370759b6fbe599747e868d81e8d799ca01d6b2d27c066b5e92ec63f0eebe0c64736f6c634300080d0033",
					"opcodes": "PUSH1 0xA0 PUSH1 0x40 MSTORE CALLVALUE DUP1 ISZERO PUSH3 0x11 JUMPI PUSH1 0x0 DUP1 REVERT JUMPDEST POP PUSH1 0x40 MLOAD PUSH3 0x17A2 CODESIZE SUB DUP1 PUSH3 0x17A2 DUP4 CODECOPY DUP2 DUP2 ADD PUSH1 0x40 MSTORE DUP2 ADD SWAP1 PUSH3 0x37 SWAP2 SWAP1 PUSH3 0xDC JUMP JUMPDEST DUP1 PUSH20 0xFFFFFFFFFFFFFFFFFFFFFFFFFFFFFFFFFFFFFFFF AND PUSH1 0x80 DUP2 PUSH20 0xFFFFFFFFFFFFFFFFFFFFFFFFFFFFFFFFFFFFFFFF AND DUP2 MSTORE POP POP POP PUSH3 0x10E JUMP JUMPDEST PUSH1 0x0 DUP1 REVERT JUMPDEST PUSH1 0x0 PUSH20 0xFFFFFFFFFFFFFFFFFFFFFFFFFFFFFFFFFFFFFFFF DUP3 AND SWAP1 POP SWAP2 SWAP1 POP JUMP JUMPDEST PUSH1 0x0 PUSH3 0xA4 DUP3 PUSH3 0x77 JUMP JUMPDEST SWAP1 POP SWAP2 SWAP1 POP JUMP JUMPDEST PUSH3 0xB6 DUP2 PUSH3 0x97 JUMP JUMPDEST DUP2 EQ PUSH3 0xC2 JUMPI PUSH1 0x0 DUP1 REVERT JUMPDEST POP JUMP JUMPDEST PUSH1 0x0 DUP2 MLOAD SWAP1 POP PUSH3 0xD6 DUP2 PUSH3 0xAB JUMP JUMPDEST SWAP3 SWAP2 POP POP JUMP JUMPDEST PUSH1 0x0 PUSH1 0x20 DUP3 DUP5 SUB SLT ISZERO PUSH3 0xF5 JUMPI PUSH3 0xF4 PUSH3 0x72 JUMP JUMPDEST JUMPDEST PUSH1 0x0 PUSH3 0x105 DUP5 DUP3 DUP6 ADD PUSH3 0xC5 JUMP JUMPDEST SWAP2 POP POP SWAP3 SWAP2 POP POP JUMP JUMPDEST PUSH1 0x80 MLOAD PUSH2 0x166B PUSH3 0x137 PUSH1 0x0 CODECOPY PUSH1 0x0 DUP2 DUP2 PUSH1 0x77 ADD MSTORE DUP2 DUP2 PUSH2 0x2EF ADD MSTORE PUSH2 0x351 ADD MSTORE PUSH2 0x166B PUSH1 0x0 RETURN INVALID PUSH1 0x80 PUSH1 0x40 MSTORE CALLVALUE DUP1 ISZERO PUSH2 0x10 JUMPI PUSH1 0x0 DUP1 REVERT JUMPDEST POP PUSH1 0x4 CALLDATASIZE LT PUSH2 0x36 JUMPI PUSH1 0x0 CALLDATALOAD PUSH1 0xE0 SHR DUP1 PUSH4 0x77ABA213 EQ PUSH2 0x3B JUMPI DUP1 PUSH4 0x9CBCF4C7 EQ PUSH2 0x59 JUMPI JUMPDEST PUSH1 0x0 DUP1 REVERT JUMPDEST PUSH2 0x43 PUSH2 0x75 JUMP JUMPDEST PUSH1 0x40 MLOAD PUSH2 0x50 SWAP2 SWAP1 PUSH2 0xA5D JUMP JUMPDEST PUSH1 0x40 MLOAD DUP1 SWAP2 SUB SWAP1 RETURN JUMPDEST PUSH2 0x73 PUSH1 0x4 DUP1 CALLDATASIZE SUB DUP2 ADD SWAP1 PUSH2 0x6E SWAP2 SWAP1 PUSH2 0xD81 JUMP JUMPDEST PUSH2 0x99 JUMP JUMPDEST STOP JUMPDEST PUSH32 0x0 DUP2 JUMP JUMPDEST DUP2 PUSH1 0x0 ADD MLOAD DUP3 PUSH1 0x20 ADD MLOAD DUP2 MLOAD DUP2 LT PUSH2 0xB4 JUMPI PUSH2 0xB3 PUSH2 0xDF0 JUMP JUMPDEST JUMPDEST PUSH1 0x20 MUL PUSH1 0x20 ADD ADD MLOAD PUSH20 0xFFFFFFFFFFFFFFFFFFFFFFFFFFFFFFFFFFFFFFFF AND DUP4 PUSH20 0xFFFFFFFFFFFFFFFFFFFFFFFFFFFFFFFFFFFFFFFF AND SUB PUSH2 0xFD JUMPI PUSH2 0xF8 DUP3 DUP3 PUSH2 0x103 JUMP JUMPDEST PUSH2 0xFE JUMP JUMPDEST JUMPDEST POP POP POP JUMP JUMPDEST PUSH1 0x0 DUP3 PUSH1 0x0 ADD MLOAD DUP4 PUSH1 0x20 ADD MLOAD DUP2 MLOAD DUP2 LT PUSH2 0x120 JUMPI PUSH2 0x11F PUSH2 0xDF0 JUMP JUMPDEST JUMPDEST PUSH1 0x20 MUL PUSH1 0x20 ADD ADD MLOAD SWAP1 POP PUSH2 0x157 CALLER ADDRESS DUP5 DUP5 PUSH20 0xFFFFFFFFFFFFFFFFFFFFFFFFFFFFFFFFFFFFFFFF AND PUSH2 0x18B SWAP1 SWAP4 SWAP3 SWAP2 SWAP1 PUSH4 0xFFFFFFFF AND JUMP JUMPDEST PUSH2 0x16F DUP4 PUSH1 0x0 ADD MLOAD DUP4 DUP6 PUSH1 0x20 ADD MLOAD DUP7 PUSH1 0x40 ADD MLOAD PUSH2 0x214 JUMP JUMPDEST PUSH2 0x186 DUP4 PUSH1 0x60 ADD MLOAD DUP5 PUSH1 0x80 ADD MLOAD DUP6 PUSH1 0xA0 ADD MLOAD PUSH2 0x3EB JUMP JUMPDEST POP POP POP JUMP JUMPDEST PUSH2 0x20E DUP5 PUSH4 0x23B872DD PUSH1 0xE0 SHL DUP6 DUP6 DUP6 PUSH1 0x40 MLOAD PUSH1 0x24 ADD PUSH2 0x1AC SWAP4 SWAP3 SWAP2 SWAP1 PUSH2 0xE2E JUMP JUMPDEST PUSH1 0x40 MLOAD PUSH1 0x20 DUP2 DUP4 SUB SUB DUP2 MSTORE SWAP1 PUSH1 0x40 MSTORE SWAP1 PUSH28 0xFFFFFFFFFFFFFFFFFFFFFFFFFFFFFFFFFFFFFFFFFFFFFFFFFFFFFFFF NOT AND PUSH1 0x20 DUP3 ADD DUP1 MLOAD PUSH28 0xFFFFFFFFFFFFFFFFFFFFFFFFFFFFFFFFFFFFFFFFFFFFFFFFFFFFFFFF DUP4 DUP2 DUP4 AND OR DUP4 MSTORE POP POP POP POP PUSH2 0x504 JUMP JUMPDEST POP POP POP POP JUMP JUMPDEST PUSH1 0x0 PUSH1 0x1 SWAP1 POP PUSH1 0x0 DUP6 MLOAD PUSH8 0xFFFFFFFFFFFFFFFF DUP2 GT ISZERO PUSH2 0x237 JUMPI PUSH2 0x236 PUSH2 0xACE JUMP JUMPDEST JUMPDEST PUSH1 0x40 MLOAD SWAP1 DUP1 DUP3 MSTORE DUP1 PUSH1 0x20 MUL PUSH1 0x20 ADD DUP3 ADD PUSH1 0x40 MSTORE DUP1 ISZERO PUSH2 0x265 JUMPI DUP2 PUSH1 0x20 ADD PUSH1 0x20 DUP3 MUL DUP1 CALLDATASIZE DUP4 CALLDATACOPY DUP1 DUP3 ADD SWAP2 POP POP SWAP1 POP JUMPDEST POP SWAP1 POP DUP5 DUP2 DUP6 DUP2 MLOAD DUP2 LT PUSH2 0x27C JUMPI PUSH2 0x27B PUSH2 0xDF0 JUMP JUMPDEST JUMPDEST PUSH1 0x20 MUL PUSH1 0x20 ADD ADD DUP2 DUP2 MSTORE POP POP PUSH1 0x0 PUSH1 0x1 SWAP1 POP PUSH1 0x0 DUP4 DUP4 DUP4 PUSH1 0x40 MLOAD PUSH1 0x20 ADD PUSH2 0x2A5 SWAP4 SWAP3 SWAP2 SWAP1 PUSH2 0xF3F JUMP JUMPDEST PUSH1 0x40 MLOAD PUSH1 0x20 DUP2 DUP4 SUB SUB DUP2 MSTORE SWAP1 PUSH1 0x40 MSTORE SWAP1 POP PUSH2 0x2BE PUSH2 0x9F2 JUMP JUMPDEST DUP9 DUP2 PUSH1 0x0 ADD DUP2 SWAP1 MSTORE POP DUP4 DUP2 PUSH1 0x20 ADD DUP2 SWAP1 MSTORE POP DUP2 DUP2 PUSH1 0x40 ADD DUP2 SWAP1 MSTORE POP PUSH1 0x0 DUP2 PUSH1 0x60 ADD SWAP1 ISZERO ISZERO SWAP1 DUP2 ISZERO ISZERO DUP2 MSTORE POP POP PUSH2 0x34F PUSH32 0x0 DUP10 DUP12 DUP11 DUP2 MLOAD DUP2 LT PUSH2 0x322 JUMPI PUSH2 0x321 PUSH2 0xDF0 JUMP JUMPDEST JUMPDEST PUSH1 0x20 MUL PUSH1 0x20 ADD ADD MLOAD PUSH20 0xFFFFFFFFFFFFFFFFFFFFFFFFFFFFFFFFFFFFFFFF AND PUSH2 0x5CB SWAP1 SWAP3 SWAP2 SWAP1 PUSH4 0xFFFFFFFF AND JUMP JUMPDEST PUSH32 0x0 PUSH20 0xFFFFFFFFFFFFFFFFFFFFFFFFFFFFFFFFFFFFFFFF AND PUSH4 0xB95CAC28 DUP8 ADDRESS ADDRESS DUP6 PUSH1 0x40 MLOAD DUP6 PUSH4 0xFFFFFFFF AND PUSH1 0xE0 SHL DUP2 MSTORE PUSH1 0x4 ADD PUSH2 0x3AE SWAP5 SWAP4 SWAP3 SWAP2 SWAP1 PUSH2 0x121D JUMP JUMPDEST PUSH1 0x0 PUSH1 0x40 MLOAD DUP1 DUP4 SUB DUP2 PUSH1 0x0 DUP8 DUP1 EXTCODESIZE ISZERO DUP1 ISZERO PUSH2 0x3C8 JUMPI PUSH1 0x0 DUP1 REVERT JUMPDEST POP GAS CALL ISZERO DUP1 ISZERO PUSH2 0x3DC JUMPI RETURNDATASIZE PUSH1 0x0 DUP1 RETURNDATACOPY RETURNDATASIZE PUSH1 0x0 REVERT JUMPDEST POP POP POP POP POP POP POP POP POP POP POP POP POP JUMP JUMPDEST PUSH2 0x3F5 DUP3 DUP5 PUSH2 0x6DD JUMP JUMPDEST DUP2 PUSH20 0xFFFFFFFFFFFFFFFFFFFFFFFFFFFFFFFFFFFFFFFF AND PUSH4 0xDE5F6268 PUSH1 0x40 MLOAD DUP2 PUSH4 0xFFFFFFFF AND PUSH1 0xE0 SHL DUP2 MSTORE PUSH1 0x4 ADD PUSH1 0x0 PUSH1 0x40 MLOAD DUP1 DUP4 SUB DUP2 PUSH1 0x0 DUP8 DUP1 EXTCODESIZE ISZERO DUP1 ISZERO PUSH2 0x43D JUMPI PUSH1 0x0 DUP1 REVERT JUMPDEST POP GAS CALL ISZERO DUP1 ISZERO PUSH2 0x451 JUMPI RETURNDATASIZE PUSH1 0x0 DUP1 RETURNDATACOPY RETURNDATASIZE PUSH1 0x0 REVERT JUMPDEST POP POP POP POP PUSH1 0x0 DUP3 SWAP1 POP PUSH2 0x4FE DUP3 DUP3 PUSH20 0xFFFFFFFFFFFFFFFFFFFFFFFFFFFFFFFFFFFFFFFF AND PUSH4 0x70A08231 ADDRESS PUSH1 0x40 MLOAD DUP3 PUSH4 0xFFFFFFFF AND PUSH1 0xE0 SHL DUP2 MSTORE PUSH1 0x4 ADD PUSH2 0x497 SWAP2 SWAP1 PUSH2 0xA5D JUMP JUMPDEST PUSH1 0x20 PUSH1 0x40 MLOAD DUP1 DUP4 SUB DUP2 DUP7 GAS STATICCALL ISZERO DUP1 ISZERO PUSH2 0x4B4 JUMPI RETURNDATASIZE PUSH1 0x0 DUP1 RETURNDATACOPY RETURNDATASIZE PUSH1 0x0 REVERT JUMPDEST POP POP POP POP PUSH1 0x40 MLOAD RETURNDATASIZE PUSH1 0x1F NOT PUSH1 0x1F DUP3 ADD AND DUP3 ADD DUP1 PUSH1 0x40 MSTORE POP DUP2 ADD SWAP1 PUSH2 0x4D8 SWAP2 SWAP1 PUSH2 0x127E JUMP JUMPDEST DUP4 PUSH20 0xFFFFFFFFFFFFFFFFFFFFFFFFFFFFFFFFFFFFFFFF AND PUSH2 0x7B6 SWAP1 SWAP3 SWAP2 SWAP1 PUSH4 0xFFFFFFFF AND JUMP JUMPDEST POP POP POP POP JUMP JUMPDEST PUSH1 0x0 PUSH2 0x566 DUP3 PUSH1 0x40 MLOAD DUP1 PUSH1 0x40 ADD PUSH1 0x40 MSTORE DUP1 PUSH1 0x20 DUP2 MSTORE PUSH1 0x20 ADD PUSH32 0x5361666545524332303A206C6F772D6C6576656C2063616C6C206661696C6564 DUP2 MSTORE POP DUP6 PUSH20 0xFFFFFFFFFFFFFFFFFFFFFFFFFFFFFFFFFFFFFFFF AND PUSH2 0x83C SWAP1 SWAP3 SWAP2 SWAP1 PUSH4 0xFFFFFFFF AND JUMP JUMPDEST SWAP1 POP PUSH1 0x0 DUP2 MLOAD GT ISZERO PUSH2 0x5C6 JUMPI DUP1 DUP1 PUSH1 0x20 ADD SWAP1 MLOAD DUP2 ADD SWAP1 PUSH2 0x586 SWAP2 SWAP1 PUSH2 0x12D7 JUMP JUMPDEST PUSH2 0x5C5 JUMPI PUSH1 0x40 MLOAD PUSH32 0x8C379A000000000000000000000000000000000000000000000000000000000 DUP2 MSTORE PUSH1 0x4 ADD PUSH2 0x5BC SWAP1 PUSH2 0x1387 JUMP JUMPDEST PUSH1 0x40 MLOAD DUP1 SWAP2 SUB SWAP1 REVERT JUMPDEST JUMPDEST POP POP POP JUMP JUMPDEST PUSH1 0x0 DUP2 DUP5 PUSH20 0xFFFFFFFFFFFFFFFFFFFFFFFFFFFFFFFFFFFFFFFF AND PUSH4 0xDD62ED3E ADDRESS DUP7 PUSH1 0x40 MLOAD DUP4 PUSH4 0xFFFFFFFF AND PUSH1 0xE0 SHL DUP2 MSTORE PUSH1 0x4 ADD PUSH2 0x609 SWAP3 SWAP2 SWAP1 PUSH2 0x13A7 JUMP JUMPDEST PUSH1 0x20 PUSH1 0x40 MLOAD DUP1 DUP4 SUB DUP2 DUP7 GAS STATICCALL ISZERO DUP1 ISZERO PUSH2 0x626 JUMPI RETURNDATASIZE PUSH1 0x0 DUP1 RETURNDATACOPY RETURNDATASIZE PUSH1 0x0 REVERT JUMPDEST POP POP POP POP PUSH1 0x40 MLOAD RETURNDATASIZE PUSH1 0x1F NOT PUSH1 0x1F DUP3 ADD AND DUP3 ADD DUP1 PUSH1 0x40 MSTORE POP DUP2 ADD SWAP1 PUSH2 0x64A SWAP2 SWAP1 PUSH2 0x127E JUMP JUMPDEST PUSH2 0x654 SWAP2 SWAP1 PUSH2 0x13FF JUMP JUMPDEST SWAP1 POP PUSH2 0x6D7 DUP5 PUSH4 0x95EA7B3 PUSH1 0xE0 SHL DUP6 DUP5 PUSH1 0x40 MLOAD PUSH1 0x24 ADD PUSH2 0x675 SWAP3 SWAP2 SWAP1 PUSH2 0x1455 JUMP JUMPDEST PUSH1 0x40 MLOAD PUSH1 0x20 DUP2 DUP4 SUB SUB DUP2 MSTORE SWAP1 PUSH1 0x40 MSTORE SWAP1 PUSH28 0xFFFFFFFFFFFFFFFFFFFFFFFFFFFFFFFFFFFFFFFFFFFFFFFFFFFFFFFF NOT AND PUSH1 0x20 DUP3 ADD DUP1 MLOAD PUSH28 0xFFFFFFFFFFFFFFFFFFFFFFFFFFFFFFFFFFFFFFFFFFFFFFFFFFFFFFFF DUP4 DUP2 DUP4 AND OR DUP4 MSTORE POP POP POP POP PUSH2 0x504 JUMP JUMPDEST POP POP POP POP JUMP JUMPDEST PUSH1 0x0 DUP2 SWAP1 POP PUSH1 0x0 DUP2 PUSH20 0xFFFFFFFFFFFFFFFFFFFFFFFFFFFFFFFFFFFFFFFF AND PUSH4 0xDD62ED3E ADDRESS DUP7 PUSH1 0x40 MLOAD DUP4 PUSH4 0xFFFFFFFF AND PUSH1 0xE0 SHL DUP2 MSTORE PUSH1 0x4 ADD PUSH2 0x71F SWAP3 SWAP2 SWAP1 PUSH2 0x13A7 JUMP JUMPDEST PUSH1 0x20 PUSH1 0x40 MLOAD DUP1 DUP4 SUB DUP2 DUP7 GAS STATICCALL ISZERO DUP1 ISZERO PUSH2 0x73C JUMPI RETURNDATASIZE PUSH1 0x0 DUP1 RETURNDATACOPY RETURNDATASIZE PUSH1 0x0 REVERT JUMPDEST POP POP POP POP PUSH1 0x40 MLOAD RETURNDATASIZE PUSH1 0x1F NOT PUSH1 0x1F DUP3 ADD AND DUP3 ADD DUP1 PUSH1 0x40 MSTORE POP DUP2 ADD SWAP1 PUSH2 0x760 SWAP2 SWAP1 PUSH2 0x127E JUMP JUMPDEST SUB PUSH2 0x7B1 JUMPI PUSH2 0x7B0 DUP4 PUSH32 0xFFFFFFFFFFFFFFFFFFFFFFFFFFFFFFFFFFFFFFFFFFFFFFFFFFFFFFFFFFFFFFFF DUP4 PUSH20 0xFFFFFFFFFFFFFFFFFFFFFFFFFFFFFFFFFFFFFFFF AND PUSH2 0x5CB SWAP1 SWAP3 SWAP2 SWAP1 PUSH4 0xFFFFFFFF AND JUMP JUMPDEST JUMPDEST POP POP POP JUMP JUMPDEST PUSH2 0x837 DUP4 PUSH4 0xA9059CBB PUSH1 0xE0 SHL DUP5 DUP5 PUSH1 0x40 MLOAD PUSH1 0x24 ADD PUSH2 0x7D5 SWAP3 SWAP2 SWAP1 PUSH2 0x1455 JUMP JUMPDEST PUSH1 0x40 MLOAD PUSH1 0x20 DUP2 DUP4 SUB SUB DUP2 MSTORE SWAP1 PUSH1 0x40 MSTORE SWAP1 PUSH28 0xFFFFFFFFFFFFFFFFFFFFFFFFFFFFFFFFFFFFFFFFFFFFFFFFFFFFFFFF NOT AND PUSH1 0x20 DUP3 ADD DUP1 MLOAD PUSH28 0xFFFFFFFFFFFFFFFFFFFFFFFFFFFFFFFFFFFFFFFFFFFFFFFFFFFFFFFF DUP4 DUP2 DUP4 AND OR DUP4 MSTORE POP POP POP POP PUSH2 0x504 JUMP JUMPDEST POP POP POP JUMP JUMPDEST PUSH1 0x60 PUSH2 0x84B DUP5 DUP5 PUSH1 0x0 DUP6 PUSH2 0x854 JUMP JUMPDEST SWAP1 POP SWAP4 SWAP3 POP POP POP JUMP JUMPDEST PUSH1 0x60 DUP3 SELFBALANCE LT ISZERO PUSH2 0x899 JUMPI PUSH1 0x40 MLOAD PUSH32 0x8C379A000000000000000000000000000000000000000000000000000000000 DUP2 MSTORE PUSH1 0x4 ADD PUSH2 0x890 SWAP1 PUSH2 0x14F0 JUMP JUMPDEST PUSH1 0x40 MLOAD DUP1 SWAP2 SUB SWAP1 REVERT JUMPDEST PUSH2 0x8A2 DUP6 PUSH2 0x968 JUMP JUMPDEST PUSH2 0x8E1 JUMPI PUSH1 0x40 MLOAD PUSH32 0x8C379A000000000000000000000000000000000000000000000000000000000 DUP2 MSTORE PUSH1 0x4 ADD PUSH2 0x8D8 SWAP1 PUSH2 0x155C JUMP JUMPDEST PUSH1 0x40 MLOAD DUP1 SWAP2 SUB SWAP1 REVERT JUMPDEST PUSH1 0x0 DUP1 DUP7 PUSH20 0xFFFFFFFFFFFFFFFFFFFFFFFFFFFFFFFFFFFFFFFF AND DUP6 DUP8 PUSH1 0x40 MLOAD PUSH2 0x90A SWAP2 SWAP1 PUSH2 0x15B8 JUMP JUMPDEST PUSH1 0x0 PUSH1 0x40 MLOAD DUP1 DUP4 SUB DUP2 DUP6 DUP8 GAS CALL SWAP3 POP POP POP RETURNDATASIZE DUP1 PUSH1 0x0 DUP2 EQ PUSH2 0x947 JUMPI PUSH1 0x40 MLOAD SWAP2 POP PUSH1 0x1F NOT PUSH1 0x3F RETURNDATASIZE ADD AND DUP3 ADD PUSH1 0x40 MSTORE RETURNDATASIZE DUP3 MSTORE RETURNDATASIZE PUSH1 0x0 PUSH1 0x20 DUP5 ADD RETURNDATACOPY PUSH2 0x94C JUMP JUMPDEST PUSH1 0x60 SWAP2 POP JUMPDEST POP SWAP2 POP SWAP2 POP PUSH2 0x95C DUP3 DUP3 DUP7 PUSH2 0x98B JUMP JUMPDEST SWAP3 POP POP POP SWAP5 SWAP4 POP POP POP POP JUMP JUMPDEST PUSH1 0x0 DUP1 DUP3 PUSH20 0xFFFFFFFFFFFFFFFFFFFFFFFFFFFFFFFFFFFFFFFF AND EXTCODESIZE GT SWAP1 POP SWAP2 SWAP1 POP JUMP JUMPDEST PUSH1 0x60 DUP4 ISZERO PUSH2 0x99B JUMPI DUP3 SWAP1 POP PUSH2 0x9EB JUMP JUMPDEST PUSH1 0x0 DUP4 MLOAD GT ISZERO PUSH2 0x9AE JUMPI DUP3 MLOAD DUP1 DUP5 PUSH1 0x20 ADD REVERT JUMPDEST DUP2 PUSH1 0x40 MLOAD PUSH32 0x8C379A000000000000000000000000000000000000000000000000000000000 DUP2 MSTORE PUSH1 0x4 ADD PUSH2 0x9E2 SWAP2 SWAP1 PUSH2 0x1613 JUMP JUMPDEST PUSH1 0x40 MLOAD DUP1 SWAP2 SUB SWAP1 REVERT JUMPDEST SWAP4 SWAP3 POP POP POP JUMP JUMPDEST PUSH1 0x40 MLOAD DUP1 PUSH1 0x80 ADD PUSH1 0x40 MSTORE DUP1 PUSH1 0x60 DUP2 MSTORE PUSH1 0x20 ADD PUSH1 0x60 DUP2 MSTORE PUSH1 0x20 ADD PUSH1 0x60 DUP2 MSTORE PUSH1 0x20 ADD PUSH1 0x0 ISZERO ISZERO DUP2 MSTORE POP SWAP1 JUMP JUMPDEST PUSH1 0x0 PUSH20 0xFFFFFFFFFFFFFFFFFFFFFFFFFFFFFFFFFFFFFFFF DUP3 AND SWAP1 POP SWAP2 SWAP1 POP JUMP JUMPDEST PUSH1 0x0 PUSH2 0xA47 DUP3 PUSH2 0xA1C JUMP JUMPDEST SWAP1 POP SWAP2 SWAP1 POP JUMP JUMPDEST PUSH2 0xA57 DUP2 PUSH2 0xA3C JUMP JUMPDEST DUP3 MSTORE POP POP JUMP JUMPDEST PUSH1 0x0 PUSH1 0x20 DUP3 ADD SWAP1 POP PUSH2 0xA72 PUSH1 0x0 DUP4 ADD DUP5 PUSH2 0xA4E JUMP JUMPDEST SWAP3 SWAP2 POP POP JUMP JUMPDEST PUSH1 0x0 PUSH1 0x40 MLOAD SWAP1 POP SWAP1 JUMP JUMPDEST PUSH1 0x0 DUP1 REVERT JUMPDEST PUSH1 0x0 DUP1 REVERT JUMPDEST PUSH2 0xA95 DUP2 PUSH2 0xA3C JUMP JUMPDEST DUP2 EQ PUSH2 0xAA0 JUMPI PUSH1 0x0 DUP1 REVERT JUMPDEST POP JUMP JUMPDEST PUSH1 0x0 DUP2 CALLDATALOAD SWAP1 POP PUSH2 0xAB2 DUP2 PUSH2 0xA8C JUMP JUMPDEST SWAP3 SWAP2 POP POP JUMP JUMPDEST PUSH1 0x0 DUP1 REVERT JUMPDEST PUSH1 0x0 PUSH1 0x1F NOT PUSH1 0x1F DUP4 ADD AND SWAP1 POP SWAP2 SWAP1 POP JUMP JUMPDEST PUSH32 0x4E487B7100000000000000000000000000000000000000000000000000000000 PUSH1 0x0 MSTORE PUSH1 0x41 PUSH1 0x4 MSTORE PUSH1 0x24 PUSH1 0x0 REVERT JUMPDEST PUSH2 0xB06 DUP3 PUSH2 0xABD JUMP JUMPDEST DUP2 ADD DUP2 DUP2 LT PUSH8 0xFFFFFFFFFFFFFFFF DUP3 GT OR ISZERO PUSH2 0xB25 JUMPI PUSH2 0xB24 PUSH2 0xACE JUMP JUMPDEST JUMPDEST DUP1 PUSH1 0x40 MSTORE POP POP POP JUMP JUMPDEST PUSH1 0x0 PUSH2 0xB38 PUSH2 0xA78 JUMP JUMPDEST SWAP1 POP PUSH2 0xB44 DUP3 DUP3 PUSH2 0xAFD JUMP JUMPDEST SWAP2 SWAP1 POP JUMP JUMPDEST PUSH1 0x0 DUP1 REVERT JUMPDEST PUSH1 0x0 DUP1 REVERT JUMPDEST PUSH1 0x0 PUSH8 0xFFFFFFFFFFFFFFFF DUP3 GT ISZERO PUSH2 0xB6E JUMPI PUSH2 0xB6D PUSH2 0xACE JUMP JUMPDEST JUMPDEST PUSH1 0x20 DUP3 MUL SWAP1 POP PUSH1 0x20 DUP2 ADD SWAP1 POP SWAP2 SWAP1 POP JUMP JUMPDEST PUSH1 0x0 DUP1 REVERT JUMPDEST PUSH1 0x0 PUSH2 0xB8F DUP3 PUSH2 0xA3C JUMP JUMPDEST SWAP1 POP SWAP2 SWAP1 POP JUMP JUMPDEST PUSH2 0xB9F DUP2 PUSH2 0xB84 JUMP JUMPDEST DUP2 EQ PUSH2 0xBAA JUMPI PUSH1 0x0 DUP1 REVERT JUMPDEST POP JUMP JUMPDEST PUSH1 0x0 DUP2 CALLDATALOAD SWAP1 POP PUSH2 0xBBC DUP2 PUSH2 0xB96 JUMP JUMPDEST SWAP3 SWAP2 POP POP JUMP JUMPDEST PUSH1 0x0 PUSH2 0xBD5 PUSH2 0xBD0 DUP5 PUSH2 0xB53 JUMP JUMPDEST PUSH2 0xB2E JUMP JUMPDEST SWAP1 POP DUP1 DUP4 DUP3 MSTORE PUSH1 0x20 DUP3 ADD SWAP1 POP PUSH1 0x20 DUP5 MUL DUP4 ADD DUP6 DUP2 GT ISZERO PUSH2 0xBF8 JUMPI PUSH2 0xBF7 PUSH2 0xB7F JUMP JUMPDEST JUMPDEST DUP4 JUMPDEST DUP2 DUP2 LT ISZERO PUSH2 0xC21 JUMPI DUP1 PUSH2 0xC0D DUP9 DUP3 PUSH2 0xBAD JUMP JUMPDEST DUP5 MSTORE PUSH1 0x20 DUP5 ADD SWAP4 POP POP PUSH1 0x20 DUP2 ADD SWAP1 POP PUSH2 0xBFA JUMP JUMPDEST POP POP POP SWAP4 SWAP3 POP POP POP JUMP JUMPDEST PUSH1 0x0 DUP3 PUSH1 0x1F DUP4 ADD SLT PUSH2 0xC40 JUMPI PUSH2 0xC3F PUSH2 0xB4E JUMP JUMPDEST JUMPDEST DUP2 CALLDATALOAD PUSH2 0xC50 DUP5 DUP3 PUSH1 0x20 DUP7 ADD PUSH2 0xBC2 JUMP JUMPDEST SWAP2 POP POP SWAP3 SWAP2 POP POP JUMP JUMPDEST PUSH1 0x0 DUP2 SWAP1 POP SWAP2 SWAP1 POP JUMP JUMPDEST PUSH2 0xC6C DUP2 PUSH2 0xC59 JUMP JUMPDEST DUP2 EQ PUSH2 0xC77 JUMPI PUSH1 0x0 DUP1 REVERT JUMPDEST POP JUMP JUMPDEST PUSH1 0x0 DUP2 CALLDATALOAD SWAP1 POP PUSH2 0xC89 DUP2 PUSH2 0xC63 JUMP JUMPDEST SWAP3 SWAP2 POP POP JUMP JUMPDEST PUSH1 0x0 DUP2 SWAP1 POP SWAP2 SWAP1 POP JUMP JUMPDEST PUSH2 0xCA2 DUP2 PUSH2 0xC8F JUMP JUMPDEST DUP2 EQ PUSH2 0xCAD JUMPI PUSH1 0x0 DUP1 REVERT JUMPDEST POP JUMP JUMPDEST PUSH1 0x0 DUP2 CALLDATALOAD SWAP1 POP PUSH2 0xCBF DUP2 PUSH2 0xC99 JUMP JUMPDEST SWAP3 SWAP2 POP POP JUMP JUMPDEST PUSH1 0x0 PUSH1 0xC0 DUP3 DUP5 SUB SLT ISZERO PUSH2 0xCDB JUMPI PUSH2 0xCDA PUSH2 0xAB8 JUMP JUMPDEST JUMPDEST PUSH2 0xCE5 PUSH1 0xC0 PUSH2 0xB2E JUMP JUMPDEST SWAP1 POP PUSH1 0x0 DUP3 ADD CALLDATALOAD PUSH8 0xFFFFFFFFFFFFFFFF DUP2 GT ISZERO PUSH2 0xD05 JUMPI PUSH2 0xD04 PUSH2 0xB49 JUMP JUMPDEST JUMPDEST PUSH2 0xD11 DUP5 DUP3 DUP6 ADD PUSH2 0xC2B JUMP JUMPDEST PUSH1 0x0 DUP4 ADD MSTORE POP PUSH1 0x20 PUSH2 0xD25 DUP5 DUP3 DUP6 ADD PUSH2 0xC7A JUMP JUMPDEST PUSH1 0x20 DUP4 ADD MSTORE POP PUSH1 0x40 PUSH2 0xD39 DUP5 DUP3 DUP6 ADD PUSH2 0xCB0 JUMP JUMPDEST PUSH1 0x40 DUP4 ADD MSTORE POP PUSH1 0x60 PUSH2 0xD4D DUP5 DUP3 DUP6 ADD PUSH2 0xAA3 JUMP JUMPDEST PUSH1 0x60 DUP4 ADD MSTORE POP PUSH1 0x80 PUSH2 0xD61 DUP5 DUP3 DUP6 ADD PUSH2 0xAA3 JUMP JUMPDEST PUSH1 0x80 DUP4 ADD MSTORE POP PUSH1 0xA0 PUSH2 0xD75 DUP5 DUP3 DUP6 ADD PUSH2 0xAA3 JUMP JUMPDEST PUSH1 0xA0 DUP4 ADD MSTORE POP SWAP3 SWAP2 POP POP JUMP JUMPDEST PUSH1 0x0 DUP1 PUSH1 0x0 PUSH1 0x60 DUP5 DUP7 SUB SLT ISZERO PUSH2 0xD9A JUMPI PUSH2 0xD99 PUSH2 0xA82 JUMP JUMPDEST JUMPDEST PUSH1 0x0 PUSH2 0xDA8 DUP7 DUP3 DUP8 ADD PUSH2 0xAA3 JUMP JUMPDEST SWAP4 POP POP PUSH1 0x20 DUP5 ADD CALLDATALOAD PUSH8 0xFFFFFFFFFFFFFFFF DUP2 GT ISZERO PUSH2 0xDC9 JUMPI PUSH2 0xDC8 PUSH2 0xA87 JUMP JUMPDEST JUMPDEST PUSH2 0xDD5 DUP7 DUP3 DUP8 ADD PUSH2 0xCC5 JUMP JUMPDEST SWAP3 POP POP PUSH1 0x40 PUSH2 0xDE6 DUP7 DUP3 DUP8 ADD PUSH2 0xC7A JUMP JUMPDEST SWAP2 POP POP SWAP3 POP SWAP3 POP SWAP3 JUMP JUMPDEST PUSH32 0x4E487B7100000000000000000000000000000000000000000000000000000000 PUSH1 0x0 MSTORE PUSH1 0x32 PUSH1 0x4 MSTORE PUSH1 0x24 PUSH1 0x0 REVERT JUMPDEST PUSH2 0xE28 DUP2 PUSH2 0xC59 JUMP JUMPDEST DUP3 MSTORE POP POP JUMP JUMPDEST PUSH1 0x0 PUSH1 0x60 DUP3 ADD SWAP1 POP PUSH2 0xE43 PUSH1 0x0 DUP4 ADD DUP7 PUSH2 0xA4E JUMP JUMPDEST PUSH2 0xE50 PUSH1 0x20 DUP4 ADD DUP6 PUSH2 0xA4E JUMP JUMPDEST PUSH2 0xE5D PUSH1 0x40 DUP4 ADD DUP5 PUSH2 0xE1F JUMP JUMPDEST SWAP5 SWAP4 POP POP POP POP JUMP JUMPDEST PUSH1 0x0 PUSH1 0xFF DUP3 AND SWAP1 POP SWAP2 SWAP1 POP JUMP JUMPDEST PUSH2 0xE7B DUP2 PUSH2 0xE65 JUMP JUMPDEST DUP3 MSTORE POP POP JUMP JUMPDEST PUSH1 0x0 DUP2 MLOAD SWAP1 POP SWAP2 SWAP1 POP JUMP JUMPDEST PUSH1 0x0 DUP3 DUP3 MSTORE PUSH1 0x20 DUP3 ADD SWAP1 POP SWAP3 SWAP2 POP POP JUMP JUMPDEST PUSH1 0x0 DUP2 SWAP1 POP PUSH1 0x20 DUP3 ADD SWAP1 POP SWAP2 SWAP1 POP JUMP JUMPDEST PUSH2 0xEB6 DUP2 PUSH2 0xC59 JUMP JUMPDEST DUP3 MSTORE POP POP JUMP JUMPDEST PUSH1 0x0 PUSH2 0xEC8 DUP4 DUP4 PUSH2 0xEAD JUMP JUMPDEST PUSH1 0x20 DUP4 ADD SWAP1 POP SWAP3 SWAP2 POP POP JUMP JUMPDEST PUSH1 0x0 PUSH1 0x20 DUP3 ADD SWAP1 POP SWAP2 SWAP1 POP JUMP JUMPDEST PUSH1 0x0 PUSH2 0xEEC DUP3 PUSH2 0xE81 JUMP JUMPDEST PUSH2 0xEF6 DUP2 DUP6 PUSH2 0xE8C JUMP JUMPDEST SWAP4 POP PUSH2 0xF01 DUP4 PUSH2 0xE9D JUMP JUMPDEST DUP1 PUSH1 0x0 JUMPDEST DUP4 DUP2 LT ISZERO PUSH2 0xF32 JUMPI DUP2 MLOAD PUSH2 0xF19 DUP9 DUP3 PUSH2 0xEBC JUMP JUMPDEST SWAP8 POP PUSH2 0xF24 DUP4 PUSH2 0xED4 JUMP JUMPDEST SWAP3 POP POP PUSH1 0x1 DUP2 ADD SWAP1 POP PUSH2 0xF05 JUMP JUMPDEST POP DUP6 SWAP4 POP POP POP POP SWAP3 SWAP2 POP POP JUMP JUMPDEST PUSH1 0x0 PUSH1 0x60 DUP3 ADD SWAP1 POP PUSH2 0xF54 PUSH1 0x0 DUP4 ADD DUP7 PUSH2 0xE72 JUMP JUMPDEST DUP2 DUP2 SUB PUSH1 0x20 DUP4 ADD MSTORE PUSH2 0xF66 DUP2 DUP6 PUSH2 0xEE1 JUMP JUMPDEST SWAP1 POP PUSH2 0xF75 PUSH1 0x40 DUP4 ADD DUP5 PUSH2 0xE1F JUMP JUMPDEST SWAP5 SWAP4 POP POP POP POP JUMP JUMPDEST PUSH2 0xF86 DUP2 PUSH2 0xC8F JUMP JUMPDEST DUP3 MSTORE POP POP JUMP JUMPDEST PUSH1 0x0 DUP2 MLOAD SWAP1 POP SWAP2 SWAP1 POP JUMP JUMPDEST PUSH1 0x0 DUP3 DUP3 MSTORE PUSH1 0x20 DUP3 ADD SWAP1 POP SWAP3 SWAP2 POP POP JUMP JUMPDEST PUSH1 0x0 DUP2 SWAP1 POP PUSH1 0x20 DUP3 ADD SWAP1 POP SWAP2 SWAP1 POP JUMP JUMPDEST PUSH1 0x0 DUP2 SWAP1 POP SWAP2 SWAP1 POP JUMP JUMPDEST PUSH1 0x0 PUSH2 0xFDD PUSH2 0xFD8 PUSH2 0xFD3 DUP5 PUSH2 0xA1C JUMP JUMPDEST PUSH2 0xFB8 JUMP JUMPDEST PUSH2 0xA1C JUMP JUMPDEST SWAP1 POP SWAP2 SWAP1 POP JUMP JUMPDEST PUSH1 0x0 PUSH2 0xFEF DUP3 PUSH2 0xFC2 JUMP JUMPDEST SWAP1 POP SWAP2 SWAP1 POP JUMP JUMPDEST PUSH1 0x0 PUSH2 0x1001 DUP3 PUSH2 0xFE4 JUMP JUMPDEST SWAP1 POP SWAP2 SWAP1 POP JUMP JUMPDEST PUSH2 0x1011 DUP2 PUSH2 0xFF6 JUMP JUMPDEST DUP3 MSTORE POP POP JUMP JUMPDEST PUSH1 0x0 PUSH2 0x1023 DUP4 DUP4 PUSH2 0x1008 JUMP JUMPDEST PUSH1 0x20 DUP4 ADD SWAP1 POP SWAP3 SWAP2 POP POP JUMP JUMPDEST PUSH1 0x0 PUSH1 0x20 DUP3 ADD SWAP1 POP SWAP2 SWAP1 POP JUMP JUMPDEST PUSH1 0x0 PUSH2 0x1047 DUP3 PUSH2 0xF8C JUMP JUMPDEST PUSH2 0x1051 DUP2 DUP6 PUSH2 0xF97 JUMP JUMPDEST SWAP4 POP PUSH2 0x105C DUP4 PUSH2 0xFA8 JUMP JUMPDEST DUP1 PUSH1 0x0 JUMPDEST DUP4 DUP2 LT ISZERO PUSH2 0x108D JUMPI DUP2 MLOAD PUSH2 0x1074 DUP9 DUP3 PUSH2 0x1017 JUMP JUMPDEST SWAP8 POP PUSH2 0x107F DUP4 PUSH2 0x102F JUMP JUMPDEST SWAP3 POP POP PUSH1 0x1 DUP2 ADD SWAP1 POP PUSH2 0x1060 JUMP JUMPDEST POP DUP6 SWAP4 POP POP POP POP SWAP3 SWAP2 POP POP JUMP JUMPDEST PUSH1 0x0 DUP3 DUP3 MSTORE PUSH1 0x20 DUP3 ADD SWAP1 POP SWAP3 SWAP2 POP POP JUMP JUMPDEST PUSH1 0x0 PUSH2 0x10B6 DUP3 PUSH2 0xE81 JUMP JUMPDEST PUSH2 0x10C0 DUP2 DUP6 PUSH2 0x109A JUMP JUMPDEST SWAP4 POP PUSH2 0x10CB DUP4 PUSH2 0xE9D JUMP JUMPDEST DUP1 PUSH1 0x0 JUMPDEST DUP4 DUP2 LT ISZERO PUSH2 0x10FC JUMPI DUP2 MLOAD PUSH2 0x10E3 DUP9 DUP3 PUSH2 0xEBC JUMP JUMPDEST SWAP8 POP PUSH2 0x10EE DUP4 PUSH2 0xED4 JUMP JUMPDEST SWAP3 POP POP PUSH1 0x1 DUP2 ADD SWAP1 POP PUSH2 0x10CF JUMP JUMPDEST POP DUP6 SWAP4 POP POP POP POP SWAP3 SWAP2 POP POP JUMP JUMPDEST PUSH1 0x0 DUP2 MLOAD SWAP1 POP SWAP2 SWAP1 POP JUMP JUMPDEST PUSH1 0x0 DUP3 DUP3 MSTORE PUSH1 0x20 DUP3 ADD SWAP1 POP SWAP3 SWAP2 POP POP JUMP JUMPDEST PUSH1 0x0 JUMPDEST DUP4 DUP2 LT ISZERO PUSH2 0x1143 JUMPI DUP1 DUP3 ADD MLOAD DUP2 DUP5 ADD MSTORE PUSH1 0x20 DUP2 ADD SWAP1 POP PUSH2 0x1128 JUMP JUMPDEST DUP4 DUP2 GT ISZERO PUSH2 0x1152 JUMPI PUSH1 0x0 DUP5 DUP5 ADD MSTORE JUMPDEST POP POP POP POP JUMP JUMPDEST PUSH1 0x0 PUSH2 0x1163 DUP3 PUSH2 0x1109 JUMP JUMPDEST PUSH2 0x116D DUP2 DUP6 PUSH2 0x1114 JUMP JUMPDEST SWAP4 POP PUSH2 0x117D DUP2 DUP6 PUSH1 0x20 DUP7 ADD PUSH2 0x1125 JUMP JUMPDEST PUSH2 0x1186 DUP2 PUSH2 0xABD JUMP JUMPDEST DUP5 ADD SWAP2 POP POP SWAP3 SWAP2 POP POP JUMP JUMPDEST PUSH1 0x0 DUP2 ISZERO ISZERO SWAP1 POP SWAP2 SWAP1 POP JUMP JUMPDEST PUSH2 0x11A6 DUP2 PUSH2 0x1191 JUMP JUMPDEST DUP3 MSTORE POP POP JUMP JUMPDEST PUSH1 0x0 PUSH1 0x80 DUP4 ADD PUSH1 0x0 DUP4 ADD MLOAD DUP5 DUP3 SUB PUSH1 0x0 DUP7 ADD MSTORE PUSH2 0x11C9 DUP3 DUP3 PUSH2 0x103C JUMP JUMPDEST SWAP2 POP POP PUSH1 0x20 DUP4 ADD MLOAD DUP5 DUP3 SUB PUSH1 0x20 DUP7 ADD MSTORE PUSH2 0x11E3 DUP3 DUP3 PUSH2 0x10AB JUMP JUMPDEST SWAP2 POP POP PUSH1 0x40 DUP4 ADD MLOAD DUP5 DUP3 SUB PUSH1 0x40 DUP7 ADD MSTORE PUSH2 0x11FD DUP3 DUP3 PUSH2 0x1158 JUMP JUMPDEST SWAP2 POP POP PUSH1 0x60 DUP4 ADD MLOAD PUSH2 0x1212 PUSH1 0x60 DUP7 ADD DUP3 PUSH2 0x119D JUMP JUMPDEST POP DUP1 SWAP2 POP POP SWAP3 SWAP2 POP POP JUMP JUMPDEST PUSH1 0x0 PUSH1 0x80 DUP3 ADD SWAP1 POP PUSH2 0x1232 PUSH1 0x0 DUP4 ADD DUP8 PUSH2 0xF7D JUMP JUMPDEST PUSH2 0x123F PUSH1 0x20 DUP4 ADD DUP7 PUSH2 0xA4E JUMP JUMPDEST PUSH2 0x124C PUSH1 0x40 DUP4 ADD DUP6 PUSH2 0xA4E JUMP JUMPDEST DUP2 DUP2 SUB PUSH1 0x60 DUP4 ADD MSTORE PUSH2 0x125E DUP2 DUP5 PUSH2 0x11AC JUMP JUMPDEST SWAP1 POP SWAP6 SWAP5 POP POP POP POP POP JUMP JUMPDEST PUSH1 0x0 DUP2 MLOAD SWAP1 POP PUSH2 0x1278 DUP2 PUSH2 0xC63 JUMP JUMPDEST SWAP3 SWAP2 POP POP JUMP JUMPDEST PUSH1 0x0 PUSH1 0x20 DUP3 DUP5 SUB SLT ISZERO PUSH2 0x1294 JUMPI PUSH2 0x1293 PUSH2 0xA82 JUMP JUMPDEST JUMPDEST PUSH1 0x0 PUSH2 0x12A2 DUP5 DUP3 DUP6 ADD PUSH2 0x1269 JUMP JUMPDEST SWAP2 POP POP SWAP3 SWAP2 POP POP JUMP JUMPDEST PUSH2 0x12B4 DUP2 PUSH2 0x1191 JUMP JUMPDEST DUP2 EQ PUSH2 0x12BF JUMPI PUSH1 0x0 DUP1 REVERT JUMPDEST POP JUMP JUMPDEST PUSH1 0x0 DUP2 MLOAD SWAP1 POP PUSH2 0x12D1 DUP2 PUSH2 0x12AB JUMP JUMPDEST SWAP3 SWAP2 POP POP JUMP JUMPDEST PUSH1 0x0 PUSH1 0x20 DUP3 DUP5 SUB SLT ISZERO PUSH2 0x12ED JUMPI PUSH2 0x12EC PUSH2 0xA82 JUMP JUMPDEST JUMPDEST PUSH1 0x0 PUSH2 0x12FB DUP5 DUP3 DUP6 ADD PUSH2 0x12C2 JUMP JUMPDEST SWAP2 POP POP SWAP3 SWAP2 POP POP JUMP JUMPDEST PUSH1 0x0 DUP3 DUP3 MSTORE PUSH1 0x20 DUP3 ADD SWAP1 POP SWAP3 SWAP2 POP POP JUMP JUMPDEST PUSH32 0x5361666545524332303A204552433230206F7065726174696F6E20646964206E PUSH1 0x0 DUP3 ADD MSTORE PUSH32 0x6F74207375636365656400000000000000000000000000000000000000000000 PUSH1 0x20 DUP3 ADD MSTORE POP JUMP JUMPDEST PUSH1 0x0 PUSH2 0x1371 PUSH1 0x2A DUP4 PUSH2 0x1304 JUMP JUMPDEST SWAP2 POP PUSH2 0x137C DUP3 PUSH2 0x1315 JUMP JUMPDEST PUSH1 0x40 DUP3 ADD SWAP1 POP SWAP2 SWAP1 POP JUMP JUMPDEST PUSH1 0x0 PUSH1 0x20 DUP3 ADD SWAP1 POP DUP2 DUP2 SUB PUSH1 0x0 DUP4 ADD MSTORE PUSH2 0x13A0 DUP2 PUSH2 0x1364 JUMP JUMPDEST SWAP1 POP SWAP2 SWAP1 POP JUMP JUMPDEST PUSH1 0x0 PUSH1 0x40 DUP3 ADD SWAP1 POP PUSH2 0x13BC PUSH1 0x0 DUP4 ADD DUP6 PUSH2 0xA4E JUMP JUMPDEST PUSH2 0x13C9 PUSH1 0x20 DUP4 ADD DUP5 PUSH2 0xA4E JUMP JUMPDEST SWAP4 SWAP3 POP POP POP JUMP JUMPDEST PUSH32 0x4E487B7100000000000000000000000000000000000000000000000000000000 PUSH1 0x0 MSTORE PUSH1 0x11 PUSH1 0x4 MSTORE PUSH1 0x24 PUSH1 0x0 REVERT JUMPDEST PUSH1 0x0 PUSH2 0x140A DUP3 PUSH2 0xC59 JUMP JUMPDEST SWAP2 POP PUSH2 0x1415 DUP4 PUSH2 0xC59 JUMP JUMPDEST SWAP3 POP DUP3 PUSH32 0xFFFFFFFFFFFFFFFFFFFFFFFFFFFFFFFFFFFFFFFFFFFFFFFFFFFFFFFFFFFFFFFF SUB DUP3 GT ISZERO PUSH2 0x144A JUMPI PUSH2 0x1449 PUSH2 0x13D0 JUMP JUMPDEST JUMPDEST DUP3 DUP3 ADD SWAP1 POP SWAP3 SWAP2 POP POP JUMP JUMPDEST PUSH1 0x0 PUSH1 0x40 DUP3 ADD SWAP1 POP PUSH2 0x146A PUSH1 0x0 DUP4 ADD DUP6 PUSH2 0xA4E JUMP JUMPDEST PUSH2 0x1477 PUSH1 0x20 DUP4 ADD DUP5 PUSH2 0xE1F JUMP JUMPDEST SWAP4 SWAP3 POP POP POP JUMP JUMPDEST PUSH32 0x416464726573733A20696E73756666696369656E742062616C616E636520666F PUSH1 0x0 DUP3 ADD MSTORE PUSH32 0x722063616C6C0000000000000000000000000000000000000000000000000000 PUSH1 0x20 DUP3 ADD MSTORE POP JUMP JUMPDEST PUSH1 0x0 PUSH2 0x14DA PUSH1 0x26 DUP4 PUSH2 0x1304 JUMP JUMPDEST SWAP2 POP PUSH2 0x14E5 DUP3 PUSH2 0x147E JUMP JUMPDEST PUSH1 0x40 DUP3 ADD SWAP1 POP SWAP2 SWAP1 POP JUMP JUMPDEST PUSH1 0x0 PUSH1 0x20 DUP3 ADD SWAP1 POP DUP2 DUP2 SUB PUSH1 0x0 DUP4 ADD MSTORE PUSH2 0x1509 DUP2 PUSH2 0x14CD JUMP JUMPDEST SWAP1 POP SWAP2 SWAP1 POP JUMP JUMPDEST PUSH32 0x416464726573733A2063616C6C20746F206E6F6E2D636F6E7472616374000000 PUSH1 0x0 DUP3 ADD MSTORE POP JUMP JUMPDEST PUSH1 0x0 PUSH2 0x1546 PUSH1 0x1D DUP4 PUSH2 0x1304 JUMP JUMPDEST SWAP2 POP PUSH2 0x1551 DUP3 PUSH2 0x1510 JUMP JUMPDEST PUSH1 0x20 DUP3 ADD SWAP1 POP SWAP2 SWAP1 POP JUMP JUMPDEST PUSH1 0x0 PUSH1 0x20 DUP3 ADD SWAP1 POP DUP2 DUP2 SUB PUSH1 0x0 DUP4 ADD MSTORE PUSH2 0x1575 DUP2 PUSH2 0x1539 JUMP JUMPDEST SWAP1 POP SWAP2 SWAP1 POP JUMP JUMPDEST PUSH1 0x0 DUP2 SWAP1 POP SWAP3 SWAP2 POP POP JUMP JUMPDEST PUSH1 0x0 PUSH2 0x1592 DUP3 PUSH2 0x1109 JUMP JUMPDEST PUSH2 0x159C DUP2 DUP6 PUSH2 0x157C JUMP JUMPDEST SWAP4 POP PUSH2 0x15AC DUP2 DUP6 PUSH1 0x20 DUP7 ADD PUSH2 0x1125 JUMP JUMPDEST DUP1 DUP5 ADD SWAP2 POP POP SWAP3 SWAP2 POP POP JUMP JUMPDEST PUSH1 0x0 PUSH2 0x15C4 DUP3 DUP5 PUSH2 0x1587 JUMP JUMPDEST SWAP2 POP DUP2 SWAP1 POP SWAP3 SWAP2 POP POP JUMP JUMPDEST PUSH1 0x0 DUP2 MLOAD SWAP1 POP SWAP2 SWAP1 POP JUMP JUMPDEST PUSH1 0x0 PUSH2 0x15E5 DUP3 PUSH2 0x15CF JUMP JUMPDEST PUSH2 0x15EF DUP2 DUP6 PUSH2 0x1304 JUMP JUMPDEST SWAP4 POP PUSH2 0x15FF DUP2 DUP6 PUSH1 0x20 DUP7 ADD PUSH2 0x1125 JUMP JUMPDEST PUSH2 0x1608 DUP2 PUSH2 0xABD JUMP JUMPDEST DUP5 ADD SWAP2 POP POP SWAP3 SWAP2 POP POP JUMP JUMPDEST PUSH1 0x0 PUSH1 0x20 DUP3 ADD SWAP1 POP DUP2 DUP2 SUB PUSH1 0x0 DUP4 ADD MSTORE PUSH2 0x162D DUP2 DUP5 PUSH2 0x15DA JUMP JUMPDEST SWAP1 POP SWAP3 SWAP2 POP POP JUMP INVALID LOG2 PUSH5 0x6970667358 0x22 SLT KECCAK256 LOG2 CALLDATACOPY SMOD MSIZE 0xB6 0xFB 0xE5 SWAP10 PUSH21 0x7E868D81E8D799CA01D6B2D27C066B5E92EC63F0EE 0xBE 0xC PUSH5 0x736F6C6343 STOP ADDMOD 0xD STOP CALLER "
				},
				"gasEstimates": {
					"creation": {
						"codeDepositCost": "1147800",
						"executionCost": "infinite",
						"totalCost": "infinite"
					},
					"external": {
						"balVault()": "infinite",
						"routeDeposit(address,(address[],uint256,bytes32,address,address,address),uint256)": "infinite"
					},
					"internal": {
						"_approveIfNeeded(address,address)": "infinite",
						"_depositLPToVault(address,address,address)": "infinite",
						"_joinPool(contract IAsset[] memory,uint256,uint256,bytes32)": "infinite",
						"_singleSideDeposit(struct SuperDepositor.DepositParams memory,uint256)": "infinite"
					}
				},
				"methodIdentifiers": {
					"balVault()": "77aba213",
					"routeDeposit(address,(address[],uint256,bytes32,address,address,address),uint256)": "9cbcf4c7"
				}
			},
			"storageLayout": {
				"storage": [],
				"types": null
			},
			"userdoc": {
				"kind": "user",
				"methods": {},
				"version": 1
			}
		}
	}
}