{
	"SuperDepositor.sol": {
		"SuperDepositor": {
			"abi": [
				{
					"inputs": [
						{
							"internalType": "address",
							"name": "_balVault",
							"type": "address"
						}
					],
					"stateMutability": "nonpayable",
					"type": "constructor"
				},
				{
					"inputs": [],
					"name": "balVault",
					"outputs": [
						{
							"internalType": "address",
							"name": "",
							"type": "address"
						}
					],
					"stateMutability": "view",
					"type": "function"
				},
				{
					"inputs": [
						{
							"components": [
								{
									"internalType": "contract IAsset[]",
									"name": "underlyings",
									"type": "address[]"
								},
								{
									"internalType": "uint256",
									"name": "depositTokenIndex",
									"type": "uint256"
								},
								{
									"internalType": "bytes32",
									"name": "beetsPoolId",
									"type": "bytes32"
								},
								{
									"internalType": "address",
									"name": "lpToken",
									"type": "address"
								},
								{
									"internalType": "address",
									"name": "vault",
									"type": "address"
								},
								{
									"internalType": "address",
									"name": "recipient",
									"type": "address"
								}
							],
							"internalType": "struct SuperDepositor.DepositParams",
							"name": "details",
							"type": "tuple"
						},
						{
							"internalType": "uint256",
							"name": "amount",
							"type": "uint256"
						}
					],
					"name": "routeDeposit",
					"outputs": [],
					"stateMutability": "nonpayable",
					"type": "function"
				},
				{
					"inputs": [
						{
							"components": [
								{
									"internalType": "contract IAsset[]",
									"name": "underlyings",
									"type": "address[]"
								},
								{
									"internalType": "uint256",
									"name": "depositTokenIndex",
									"type": "uint256"
								},
								{
									"internalType": "bytes32",
									"name": "beetsPoolId",
									"type": "bytes32"
								},
								{
									"internalType": "address",
									"name": "lpToken",
									"type": "address"
								},
								{
									"internalType": "address",
									"name": "vault",
									"type": "address"
								},
								{
									"internalType": "address",
									"name": "recipient",
									"type": "address"
								}
							],
							"internalType": "struct SuperDepositor.DepositParams",
							"name": "details",
							"type": "tuple"
						},
						{
							"internalType": "uint256",
							"name": "amount",
							"type": "uint256"
						}
					],
					"name": "singleSideDeposit",
					"outputs": [],
					"stateMutability": "nonpayable",
					"type": "function"
				}
			],
			"devdoc": {
				"author": "andreas@nascent.xyz",
				"kind": "dev",
				"methods": {},
				"title": "Greeter",
				"version": 1
			},
			"evm": {
				"assembly": "    /* \"SuperDepositor.sol\":289:3295  contract SuperDepositor {... */\n  mstore(0x40, 0xa0)\n    /* \"SuperDepositor.sol\":904:974  constructor(address _balVault) {... */\n  callvalue\n  dup1\n  iszero\n  tag_1\n  jumpi\n  0x00\n  dup1\n  revert\ntag_1:\n  pop\n  mload(0x40)\n  sub(codesize, bytecodeSize)\n  dup1\n  bytecodeSize\n  dup4\n  codecopy\n  dup2\n  dup2\n  add\n  0x40\n  mstore\n  dup2\n  add\n  swap1\n  tag_2\n  swap2\n  swap1\n  tag_3\n  jump\t// in\ntag_2:\n    /* \"SuperDepositor.sol\":957:966  _balVault */\n  dup1\n    /* \"SuperDepositor.sol\":946:966  balVault = _balVault */\n  0xffffffffffffffffffffffffffffffffffffffff\n  and\n  0x80\n  dup2\n  0xffffffffffffffffffffffffffffffffffffffff\n  and\n  dup2\n  mstore\n  pop\n  pop\n    /* \"SuperDepositor.sol\":904:974  constructor(address _balVault) {... */\n  pop\n    /* \"SuperDepositor.sol\":289:3295  contract SuperDepositor {... */\n  jump(tag_6)\n    /* \"#utility.yul\":88:205   */\ntag_8:\n    /* \"#utility.yul\":197:198   */\n  0x00\n    /* \"#utility.yul\":194:195   */\n  dup1\n    /* \"#utility.yul\":187:199   */\n  revert\n    /* \"#utility.yul\":334:460   */\ntag_10:\n    /* \"#utility.yul\":371:378   */\n  0x00\n    /* \"#utility.yul\":411:453   */\n  0xffffffffffffffffffffffffffffffffffffffff\n    /* \"#utility.yul\":404:409   */\n  dup3\n    /* \"#utility.yul\":400:454   */\n  and\n    /* \"#utility.yul\":389:454   */\n  swap1\n  pop\n    /* \"#utility.yul\":334:460   */\n  swap2\n  swap1\n  pop\n  jump\t// out\n    /* \"#utility.yul\":466:562   */\ntag_11:\n    /* \"#utility.yul\":503:510   */\n  0x00\n    /* \"#utility.yul\":532:556   */\n  tag_20\n    /* \"#utility.yul\":550:555   */\n  dup3\n    /* \"#utility.yul\":532:556   */\n  tag_10\n  jump\t// in\ntag_20:\n    /* \"#utility.yul\":521:556   */\n  swap1\n  pop\n    /* \"#utility.yul\":466:562   */\n  swap2\n  swap1\n  pop\n  jump\t// out\n    /* \"#utility.yul\":568:690   */\ntag_12:\n    /* \"#utility.yul\":641:665   */\n  tag_22\n    /* \"#utility.yul\":659:664   */\n  dup2\n    /* \"#utility.yul\":641:665   */\n  tag_11\n  jump\t// in\ntag_22:\n    /* \"#utility.yul\":634:639   */\n  dup2\n    /* \"#utility.yul\":631:666   */\n  eq\n    /* \"#utility.yul\":621:684   */\n  tag_23\n  jumpi\n    /* \"#utility.yul\":680:681   */\n  0x00\n    /* \"#utility.yul\":677:678   */\n  dup1\n    /* \"#utility.yul\":670:682   */\n  revert\n    /* \"#utility.yul\":621:684   */\ntag_23:\n    /* \"#utility.yul\":568:690   */\n  pop\n  jump\t// out\n    /* \"#utility.yul\":696:839   */\ntag_13:\n    /* \"#utility.yul\":753:758   */\n  0x00\n    /* \"#utility.yul\":784:790   */\n  dup2\n    /* \"#utility.yul\":778:791   */\n  mload\n    /* \"#utility.yul\":769:791   */\n  swap1\n  pop\n    /* \"#utility.yul\":800:833   */\n  tag_25\n    /* \"#utility.yul\":827:832   */\n  dup2\n    /* \"#utility.yul\":800:833   */\n  tag_12\n  jump\t// in\ntag_25:\n    /* \"#utility.yul\":696:839   */\n  swap3\n  swap2\n  pop\n  pop\n  jump\t// out\n    /* \"#utility.yul\":845:1196   */\ntag_3:\n    /* \"#utility.yul\":915:921   */\n  0x00\n    /* \"#utility.yul\":964:966   */\n  0x20\n    /* \"#utility.yul\":952:961   */\n  dup3\n    /* \"#utility.yul\":943:950   */\n  dup5\n    /* \"#utility.yul\":939:962   */\n  sub\n    /* \"#utility.yul\":935:967   */\n  slt\n    /* \"#utility.yul\":932:1051   */\n  iszero\n  tag_27\n  jumpi\n    /* \"#utility.yul\":970:1049   */\n  tag_28\n  tag_8\n  jump\t// in\ntag_28:\n    /* \"#utility.yul\":932:1051   */\ntag_27:\n    /* \"#utility.yul\":1090:1091   */\n  0x00\n    /* \"#utility.yul\":1115:1179   */\n  tag_29\n    /* \"#utility.yul\":1171:1178   */\n  dup5\n    /* \"#utility.yul\":1162:1168   */\n  dup3\n    /* \"#utility.yul\":1151:1160   */\n  dup6\n    /* \"#utility.yul\":1147:1169   */\n  add\n    /* \"#utility.yul\":1115:1179   */\n  tag_13\n  jump\t// in\ntag_29:\n    /* \"#utility.yul\":1105:1179   */\n  swap2\n  pop\n    /* \"#utility.yul\":1061:1189   */\n  pop\n    /* \"#utility.yul\":845:1196   */\n  swap3\n  swap2\n  pop\n  pop\n  jump\t// out\n    /* \"SuperDepositor.sol\":289:3295  contract SuperDepositor {... */\ntag_6:\n  mload(0x80)\n  codecopy(0x00, dataOffset(sub_0), dataSize(sub_0))\n  0x00\n  assignImmutable(\"0xf3c94672c9097e8255317de36dd0d00a9f72d57eeb896861f583a1140be6889a\")\n  return(0x00, dataSize(sub_0))\nstop\n\nsub_0: assembly {\n        /* \"SuperDepositor.sol\":289:3295  contract SuperDepositor {... */\n      mstore(0x40, 0x80)\n      callvalue\n      dup1\n      iszero\n      tag_1\n      jumpi\n      0x00\n      dup1\n      revert\n    tag_1:\n      pop\n      jumpi(tag_2, lt(calldatasize, 0x04))\n      shr(0xe0, calldataload(0x00))\n      dup1\n      0x11ffbf3c\n      eq\n      tag_3\n      jumpi\n      dup1\n      0x77aba213\n      eq\n      tag_4\n      jumpi\n      dup1\n      0x81144563\n      eq\n      tag_5\n      jumpi\n    tag_2:\n      0x00\n      dup1\n      revert\n        /* \"SuperDepositor.sol\":982:1075  function routeDeposit(DepositParams memory details, uint256 amount) public {... */\n    tag_3:\n      tag_6\n      0x04\n      dup1\n      calldatasize\n      sub\n      dup2\n      add\n      swap1\n      tag_7\n      swap2\n      swap1\n      tag_8\n      jump\t// in\n    tag_7:\n      tag_9\n      jump\t// in\n    tag_6:\n      stop\n        /* \"SuperDepositor.sol\":379:412  address public immutable balVault */\n    tag_4:\n      tag_10\n      tag_11\n      jump\t// in\n    tag_10:\n      mload(0x40)\n      tag_12\n      swap2\n      swap1\n      tag_13\n      jump\t// in\n    tag_12:\n      mload(0x40)\n      dup1\n      swap2\n      sub\n      swap1\n      return\n        /* \"SuperDepositor.sol\":1083:1562  function singleSideDeposit(DepositParams memory details, uint256 amount) public {... */\n    tag_5:\n      tag_14\n      0x04\n      dup1\n      calldatasize\n      sub\n      dup2\n      add\n      swap1\n      tag_15\n      swap2\n      swap1\n      tag_8\n      jump\t// in\n    tag_15:\n      tag_16\n      jump\t// in\n    tag_14:\n      stop\n        /* \"SuperDepositor.sol\":982:1075  function routeDeposit(DepositParams memory details, uint256 amount) public {... */\n    tag_9:\n      pop\n      pop\n      jump\t// out\n        /* \"SuperDepositor.sol\":379:412  address public immutable balVault */\n    tag_11:\n      immutable(\"0xf3c94672c9097e8255317de36dd0d00a9f72d57eeb896861f583a1140be6889a\")\n      dup2\n      jump\t// out\n        /* \"SuperDepositor.sol\":1083:1562  function singleSideDeposit(DepositParams memory details, uint256 amount) public {... */\n    tag_16:\n        /* \"SuperDepositor.sol\":1174:1202  IERC20Upgradeable inputToken */\n      0x00\n        /* \"SuperDepositor.sol\":1231:1238  details */\n      dup3\n        /* \"SuperDepositor.sol\":1231:1250  details.underlyings */\n      0x00\n      add\n      mload\n        /* \"SuperDepositor.sol\":1251:1258  details */\n      dup4\n        /* \"SuperDepositor.sol\":1251:1276  details.depositTokenIndex */\n      0x20\n      add\n      mload\n        /* \"SuperDepositor.sol\":1231:1277  details.underlyings[details.depositTokenIndex] */\n      dup2\n      mload\n      dup2\n      lt\n      tag_19\n      jumpi\n      tag_20\n      tag_21\n      jump\t// in\n    tag_20:\n    tag_19:\n      0x20\n      mul\n      0x20\n      add\n      add\n      mload\n        /* \"SuperDepositor.sol\":1174:1279  IERC20Upgradeable inputToken = IERC20Upgradeable(address(details.underlyings[details.depositTokenIndex])) */\n      swap1\n      pop\n        /* \"SuperDepositor.sol\":1290:1352  inputToken.safeTransferFrom(msg.sender, address(this), amount) */\n      tag_22\n        /* \"SuperDepositor.sol\":1318:1328  msg.sender */\n      caller\n        /* \"SuperDepositor.sol\":1338:1342  this */\n      address\n        /* \"SuperDepositor.sol\":1345:1351  amount */\n      dup5\n        /* \"SuperDepositor.sol\":1290:1300  inputToken */\n      dup5\n        /* \"SuperDepositor.sol\":1290:1317  inputToken.safeTransferFrom */\n      0xffffffffffffffffffffffffffffffffffffffff\n      and\n      tag_23\n      swap1\n        /* \"SuperDepositor.sol\":1290:1352  inputToken.safeTransferFrom(msg.sender, address(this), amount) */\n      swap4\n      swap3\n      swap2\n      swap1\n      0xffffffff\n      and\n      jump\t// in\n    tag_22:\n        /* \"SuperDepositor.sol\":1363:1449  _joinPool(details.underlyings, amount, details.depositTokenIndex, details.beetsPoolId) */\n      tag_24\n        /* \"SuperDepositor.sol\":1373:1380  details */\n      dup4\n        /* \"SuperDepositor.sol\":1373:1392  details.underlyings */\n      0x00\n      add\n      mload\n        /* \"SuperDepositor.sol\":1394:1400  amount */\n      dup4\n        /* \"SuperDepositor.sol\":1402:1409  details */\n      dup6\n        /* \"SuperDepositor.sol\":1402:1427  details.depositTokenIndex */\n      0x20\n      add\n      mload\n        /* \"SuperDepositor.sol\":1429:1436  details */\n      dup7\n        /* \"SuperDepositor.sol\":1429:1448  details.beetsPoolId */\n      0x40\n      add\n      mload\n        /* \"SuperDepositor.sol\":1363:1372  _joinPool */\n      tag_25\n        /* \"SuperDepositor.sol\":1363:1449  _joinPool(details.underlyings, amount, details.depositTokenIndex, details.beetsPoolId) */\n      jump\t// in\n    tag_24:\n        /* \"SuperDepositor.sol\":1486:1554  _depositLPToVault(details.lpToken, details.vault, details.recipient) */\n      tag_26\n        /* \"SuperDepositor.sol\":1504:1511  details */\n      dup4\n        /* \"SuperDepositor.sol\":1504:1519  details.lpToken */\n      0x60\n      add\n      mload\n        /* \"SuperDepositor.sol\":1521:1528  details */\n      dup5\n        /* \"SuperDepositor.sol\":1521:1534  details.vault */\n      0x80\n      add\n      mload\n        /* \"SuperDepositor.sol\":1536:1543  details */\n      dup6\n        /* \"SuperDepositor.sol\":1536:1553  details.recipient */\n      0xa0\n      add\n      mload\n        /* \"SuperDepositor.sol\":1486:1503  _depositLPToVault */\n      tag_27\n        /* \"SuperDepositor.sol\":1486:1554  _depositLPToVault(details.lpToken, details.vault, details.recipient) */\n      jump\t// in\n    tag_26:\n        /* \"SuperDepositor.sol\":1163:1562  {... */\n      pop\n        /* \"SuperDepositor.sol\":1083:1562  function singleSideDeposit(DepositParams memory details, uint256 amount) public {... */\n      pop\n      pop\n      jump\t// out\n        /* \"@openzeppelin/contracts-upgradeable/token/ERC20/utils/SafeERC20Upgradeable.sol\":967:1219  function safeTransferFrom(... */\n    tag_23:\n        /* \"@openzeppelin/contracts-upgradeable/token/ERC20/utils/SafeERC20Upgradeable.sol\":1116:1212  _callOptionalReturn(token, abi.encodeWithSelector(token.transferFrom.selector, from, to, value)) */\n      tag_29\n        /* \"@openzeppelin/contracts-upgradeable/token/ERC20/utils/SafeERC20Upgradeable.sol\":1136:1141  token */\n      dup5\n        /* \"@openzeppelin/contracts-upgradeable/token/ERC20/utils/SafeERC20Upgradeable.sol\":1166:1193  token.transferFrom.selector */\n      shl(0xe0, 0x23b872dd)\n        /* \"@openzeppelin/contracts-upgradeable/token/ERC20/utils/SafeERC20Upgradeable.sol\":1195:1199  from */\n      dup6\n        /* \"@openzeppelin/contracts-upgradeable/token/ERC20/utils/SafeERC20Upgradeable.sol\":1201:1203  to */\n      dup6\n        /* \"@openzeppelin/contracts-upgradeable/token/ERC20/utils/SafeERC20Upgradeable.sol\":1205:1210  value */\n      dup6\n        /* \"@openzeppelin/contracts-upgradeable/token/ERC20/utils/SafeERC20Upgradeable.sol\":1143:1211  abi.encodeWithSelector(token.transferFrom.selector, from, to, value) */\n      add(0x24, mload(0x40))\n      tag_30\n      swap4\n      swap3\n      swap2\n      swap1\n      tag_31\n      jump\t// in\n    tag_30:\n      mload(0x40)\n      0x20\n      dup2\n      dup4\n      sub\n      sub\n      dup2\n      mstore\n      swap1\n      0x40\n      mstore\n      swap1\n      not(0xffffffffffffffffffffffffffffffffffffffffffffffffffffffff)\n      and\n      0x20\n      dup3\n      add\n      dup1\n      mload\n      0xffffffffffffffffffffffffffffffffffffffffffffffffffffffff\n      dup4\n      dup2\n      dup4\n      and\n      or\n      dup4\n      mstore\n      pop\n      pop\n      pop\n      pop\n        /* \"@openzeppelin/contracts-upgradeable/token/ERC20/utils/SafeERC20Upgradeable.sol\":1116:1135  _callOptionalReturn */\n      tag_32\n        /* \"@openzeppelin/contracts-upgradeable/token/ERC20/utils/SafeERC20Upgradeable.sol\":1116:1212  _callOptionalReturn(token, abi.encodeWithSelector(token.transferFrom.selector, from, to, value)) */\n      jump\t// in\n    tag_29:\n        /* \"@openzeppelin/contracts-upgradeable/token/ERC20/utils/SafeERC20Upgradeable.sol\":967:1219  function safeTransferFrom(... */\n      pop\n      pop\n      pop\n      pop\n      jump\t// out\n        /* \"SuperDepositor.sol\":2372:3290  function _joinPool(IAsset[] memory underlyings, uint256 amtIn, uint256 tokenIndex, bytes32 beetsPoolId) internal {... */\n    tag_25:\n        /* \"SuperDepositor.sol\":2496:2510  uint8 joinKind */\n      0x00\n        /* \"SuperDepositor.sol\":2513:2514  1 */\n      0x01\n        /* \"SuperDepositor.sol\":2496:2514  uint8 joinKind = 1 */\n      swap1\n      pop\n        /* \"SuperDepositor.sol\":2607:2633  uint256[] memory amountsIn */\n      0x00\n        /* \"SuperDepositor.sol\":2650:2661  underlyings */\n      dup6\n        /* \"SuperDepositor.sol\":2650:2668  underlyings.length */\n      mload\n        /* \"SuperDepositor.sol\":2636:2669  new uint256[](underlyings.length) */\n      0xffffffffffffffff\n      dup2\n      gt\n      iszero\n      tag_34\n      jumpi\n      tag_35\n      tag_36\n      jump\t// in\n    tag_35:\n    tag_34:\n      mload(0x40)\n      swap1\n      dup1\n      dup3\n      mstore\n      dup1\n      0x20\n      mul\n      0x20\n      add\n      dup3\n      add\n      0x40\n      mstore\n      dup1\n      iszero\n      tag_37\n      jumpi\n      dup2\n      0x20\n      add\n      0x20\n      dup3\n      mul\n      dup1\n      calldatasize\n      dup4\n      calldatacopy\n      dup1\n      dup3\n      add\n      swap2\n      pop\n      pop\n      swap1\n      pop\n    tag_37:\n      pop\n        /* \"SuperDepositor.sol\":2607:2669  uint256[] memory amountsIn = new uint256[](underlyings.length) */\n      swap1\n      pop\n        /* \"SuperDepositor.sol\":2704:2709  amtIn */\n      dup5\n        /* \"SuperDepositor.sol\":2680:2689  amountsIn */\n      dup2\n        /* \"SuperDepositor.sol\":2690:2700  tokenIndex */\n      dup6\n        /* \"SuperDepositor.sol\":2680:2701  amountsIn[tokenIndex] */\n      dup2\n      mload\n      dup2\n      lt\n      tag_38\n      jumpi\n      tag_39\n      tag_21\n      jump\t// in\n    tag_39:\n    tag_38:\n      0x20\n      mul\n      0x20\n      add\n      add\n        /* \"SuperDepositor.sol\":2680:2709  amountsIn[tokenIndex] = amtIn */\n      dup2\n      dup2\n      mstore\n      pop\n      pop\n        /* \"SuperDepositor.sol\":2722:2742  uint256 minAmountOut */\n      0x00\n        /* \"SuperDepositor.sol\":2745:2746  1 */\n      0x01\n        /* \"SuperDepositor.sol\":2722:2746  uint256 minAmountOut = 1 */\n      swap1\n      pop\n        /* \"SuperDepositor.sol\":2798:2819  bytes memory userData */\n      0x00\n        /* \"SuperDepositor.sol\":2833:2841  joinKind */\n      dup4\n        /* \"SuperDepositor.sol\":2843:2852  amountsIn */\n      dup4\n        /* \"SuperDepositor.sol\":2854:2866  minAmountOut */\n      dup4\n        /* \"SuperDepositor.sol\":2822:2867  abi.encode(joinKind, amountsIn, minAmountOut) */\n      add(0x20, mload(0x40))\n      tag_40\n      swap4\n      swap3\n      swap2\n      swap1\n      tag_41\n      jump\t// in\n    tag_40:\n      mload(0x40)\n      0x20\n      dup2\n      dup4\n      sub\n      sub\n      dup2\n      mstore\n      swap1\n      0x40\n      mstore\n        /* \"SuperDepositor.sol\":2798:2867  bytes memory userData = abi.encode(joinKind, amountsIn, minAmountOut) */\n      swap1\n      pop\n        /* \"SuperDepositor.sol\":2880:2921  IBeetVault.JoinPoolRequest memory request */\n      tag_42\n      tag_43\n      jump\t// in\n    tag_42:\n        /* \"SuperDepositor.sol\":2949:2960  underlyings */\n      dup9\n        /* \"SuperDepositor.sol\":2932:2939  request */\n      dup2\n        /* \"SuperDepositor.sol\":2932:2946  request.assets */\n      0x00\n      add\n        /* \"SuperDepositor.sol\":2932:2960  request.assets = underlyings */\n      dup2\n      swap1\n      mstore\n      pop\n        /* \"SuperDepositor.sol\":2994:3003  amountsIn */\n      dup4\n        /* \"SuperDepositor.sol\":2971:2978  request */\n      dup2\n        /* \"SuperDepositor.sol\":2971:2991  request.maxAmountsIn */\n      0x20\n      add\n        /* \"SuperDepositor.sol\":2971:3003  request.maxAmountsIn = amountsIn */\n      dup2\n      swap1\n      mstore\n      pop\n        /* \"SuperDepositor.sol\":3033:3041  userData */\n      dup2\n        /* \"SuperDepositor.sol\":3014:3021  request */\n      dup2\n        /* \"SuperDepositor.sol\":3014:3030  request.userData */\n      0x40\n      add\n        /* \"SuperDepositor.sol\":3014:3041  request.userData = userData */\n      dup2\n      swap1\n      mstore\n      pop\n        /* \"SuperDepositor.sol\":3082:3087  false */\n      0x00\n        /* \"SuperDepositor.sol\":3052:3059  request */\n      dup2\n        /* \"SuperDepositor.sol\":3052:3079  request.fromInternalBalance */\n      0x60\n      add\n        /* \"SuperDepositor.sol\":3052:3087  request.fromInternalBalance = false */\n      swap1\n      iszero\n      iszero\n      swap1\n      dup2\n      iszero\n      iszero\n      dup2\n      mstore\n      pop\n      pop\n        /* \"SuperDepositor.sol\":3100:3190  IERC20Upgradeable(address(underlyings[tokenIndex])).safeIncreaseAllowance(balVault, amtIn) */\n      tag_44\n        /* \"SuperDepositor.sol\":3174:3182  balVault */\n      immutable(\"0xf3c94672c9097e8255317de36dd0d00a9f72d57eeb896861f583a1140be6889a\")\n        /* \"SuperDepositor.sol\":3184:3189  amtIn */\n      dup10\n        /* \"SuperDepositor.sol\":3126:3137  underlyings */\n      dup12\n        /* \"SuperDepositor.sol\":3138:3148  tokenIndex */\n      dup11\n        /* \"SuperDepositor.sol\":3126:3149  underlyings[tokenIndex] */\n      dup2\n      mload\n      dup2\n      lt\n      tag_45\n      jumpi\n      tag_46\n      tag_21\n      jump\t// in\n    tag_46:\n    tag_45:\n      0x20\n      mul\n      0x20\n      add\n      add\n      mload\n        /* \"SuperDepositor.sol\":3100:3173  IERC20Upgradeable(address(underlyings[tokenIndex])).safeIncreaseAllowance */\n      0xffffffffffffffffffffffffffffffffffffffff\n      and\n      tag_47\n      swap1\n        /* \"SuperDepositor.sol\":3100:3190  IERC20Upgradeable(address(underlyings[tokenIndex])).safeIncreaseAllowance(balVault, amtIn) */\n      swap3\n      swap2\n      swap1\n      0xffffffff\n      and\n      jump\t// in\n    tag_44:\n        /* \"SuperDepositor.sol\":3212:3220  balVault */\n      immutable(\"0xf3c94672c9097e8255317de36dd0d00a9f72d57eeb896861f583a1140be6889a\")\n        /* \"SuperDepositor.sol\":3201:3230  IBeetVault(balVault).joinPool */\n      0xffffffffffffffffffffffffffffffffffffffff\n      and\n      0xb95cac28\n        /* \"SuperDepositor.sol\":3231:3242  beetsPoolId */\n      dup8\n        /* \"SuperDepositor.sol\":3252:3256  this */\n      address\n        /* \"SuperDepositor.sol\":3267:3271  this */\n      address\n        /* \"SuperDepositor.sol\":3274:3281  request */\n      dup6\n        /* \"SuperDepositor.sol\":3201:3282  IBeetVault(balVault).joinPool(beetsPoolId, address(this), address(this), request) */\n      mload(0x40)\n      dup6\n      0xffffffff\n      and\n      0xe0\n      shl\n      dup2\n      mstore\n      0x04\n      add\n      tag_48\n      swap5\n      swap4\n      swap3\n      swap2\n      swap1\n      tag_49\n      jump\t// in\n    tag_48:\n      0x00\n      mload(0x40)\n      dup1\n      dup4\n      sub\n      dup2\n      0x00\n      dup8\n      dup1\n      extcodesize\n      iszero\n      dup1\n      iszero\n      tag_50\n      jumpi\n      0x00\n      dup1\n      revert\n    tag_50:\n      pop\n      gas\n      call\n      iszero\n      dup1\n      iszero\n      tag_52\n      jumpi\n      returndatasize\n      0x00\n      dup1\n      returndatacopy\n      revert(0x00, returndatasize)\n    tag_52:\n      pop\n      pop\n      pop\n      pop\n        /* \"SuperDepositor.sol\":2485:3290  {... */\n      pop\n      pop\n      pop\n      pop\n      pop\n        /* \"SuperDepositor.sol\":2372:3290  function _joinPool(IAsset[] memory underlyings, uint256 amtIn, uint256 tokenIndex, bytes32 beetsPoolId) internal {... */\n      pop\n      pop\n      pop\n      pop\n      jump\t// out\n        /* \"SuperDepositor.sol\":1570:1977  function _depositLPToVault(address lp, address vault, address recipient) internal {... */\n    tag_27:\n        /* \"SuperDepositor.sol\":1688:1715  _approveIfNeeded(vault, lp) */\n      tag_54\n        /* \"SuperDepositor.sol\":1705:1710  vault */\n      dup3\n        /* \"SuperDepositor.sol\":1712:1714  lp */\n      dup5\n        /* \"SuperDepositor.sol\":1688:1704  _approveIfNeeded */\n      tag_55\n        /* \"SuperDepositor.sol\":1688:1715  _approveIfNeeded(vault, lp) */\n      jump\t// in\n    tag_54:\n        /* \"SuperDepositor.sol\":1783:1788  vault */\n      dup2\n        /* \"SuperDepositor.sol\":1776:1800  IVault(vault).depositAll */\n      0xffffffffffffffffffffffffffffffffffffffff\n      and\n      0xde5f6268\n        /* \"SuperDepositor.sol\":1776:1802  IVault(vault).depositAll() */\n      mload(0x40)\n      dup2\n      0xffffffff\n      and\n      0xe0\n      shl\n      dup2\n      mstore\n      0x04\n      add\n      0x00\n      mload(0x40)\n      dup1\n      dup4\n      sub\n      dup2\n      0x00\n      dup8\n      dup1\n      extcodesize\n      iszero\n      dup1\n      iszero\n      tag_56\n      jumpi\n      0x00\n      dup1\n      revert\n    tag_56:\n      pop\n      gas\n      call\n      iszero\n      dup1\n      iszero\n      tag_58\n      jumpi\n      returndatasize\n      0x00\n      dup1\n      returndatacopy\n      revert(0x00, returndatasize)\n    tag_58:\n      pop\n      pop\n      pop\n      pop\n        /* \"SuperDepositor.sol\":1844:1868  IERC20Upgradeable shares */\n      0x00\n        /* \"SuperDepositor.sol\":1889:1894  vault */\n      dup3\n        /* \"SuperDepositor.sol\":1844:1895  IERC20Upgradeable shares = IERC20Upgradeable(vault) */\n      swap1\n      pop\n        /* \"SuperDepositor.sol\":1906:1969  shares.safeTransfer(recipient, shares.balanceOf(address(this))) */\n      tag_59\n        /* \"SuperDepositor.sol\":1926:1935  recipient */\n      dup3\n        /* \"SuperDepositor.sol\":1937:1943  shares */\n      dup3\n        /* \"SuperDepositor.sol\":1937:1953  shares.balanceOf */\n      0xffffffffffffffffffffffffffffffffffffffff\n      and\n      0x70a08231\n        /* \"SuperDepositor.sol\":1962:1966  this */\n      address\n        /* \"SuperDepositor.sol\":1937:1968  shares.balanceOf(address(this)) */\n      mload(0x40)\n      dup3\n      0xffffffff\n      and\n      0xe0\n      shl\n      dup2\n      mstore\n      0x04\n      add\n      tag_60\n      swap2\n      swap1\n      tag_13\n      jump\t// in\n    tag_60:\n      0x20\n      mload(0x40)\n      dup1\n      dup4\n      sub\n      dup2\n      dup7\n      gas\n      staticcall\n      iszero\n      dup1\n      iszero\n      tag_62\n      jumpi\n      returndatasize\n      0x00\n      dup1\n      returndatacopy\n      revert(0x00, returndatasize)\n    tag_62:\n      pop\n      pop\n      pop\n      pop\n      mload(0x40)\n      returndatasize\n      not(0x1f)\n      0x1f\n      dup3\n      add\n      and\n      dup3\n      add\n      dup1\n      0x40\n      mstore\n      pop\n      dup2\n      add\n      swap1\n      tag_63\n      swap2\n      swap1\n      tag_64\n      jump\t// in\n    tag_63:\n        /* \"SuperDepositor.sol\":1906:1912  shares */\n      dup4\n        /* \"SuperDepositor.sol\":1906:1925  shares.safeTransfer */\n      0xffffffffffffffffffffffffffffffffffffffff\n      and\n      tag_65\n      swap1\n        /* \"SuperDepositor.sol\":1906:1969  shares.safeTransfer(recipient, shares.balanceOf(address(this))) */\n      swap3\n      swap2\n      swap1\n      0xffffffff\n      and\n      jump\t// in\n    tag_59:\n        /* \"SuperDepositor.sol\":1652:1977  {... */\n      pop\n        /* \"SuperDepositor.sol\":1570:1977  function _depositLPToVault(address lp, address vault, address recipient) internal {... */\n      pop\n      pop\n      pop\n      jump\t// out\n        /* \"@openzeppelin/contracts-upgradeable/token/ERC20/utils/SafeERC20Upgradeable.sol\":3306:4023  function _callOptionalReturn(IERC20Upgradeable token, bytes memory data) private {... */\n    tag_32:\n        /* \"@openzeppelin/contracts-upgradeable/token/ERC20/utils/SafeERC20Upgradeable.sol\":3736:3759  bytes memory returndata */\n      0x00\n        /* \"@openzeppelin/contracts-upgradeable/token/ERC20/utils/SafeERC20Upgradeable.sol\":3762:3831  address(token).functionCall(data, \"SafeERC20: low-level call failed\") */\n      tag_67\n        /* \"@openzeppelin/contracts-upgradeable/token/ERC20/utils/SafeERC20Upgradeable.sol\":3790:3794  data */\n      dup3\n        /* \"@openzeppelin/contracts-upgradeable/token/ERC20/utils/SafeERC20Upgradeable.sol\":3762:3831  address(token).functionCall(data, \"SafeERC20: low-level call failed\") */\n      mload(0x40)\n      dup1\n      0x40\n      add\n      0x40\n      mstore\n      dup1\n      0x20\n      dup2\n      mstore\n      0x20\n      add\n      0x5361666545524332303a206c6f772d6c6576656c2063616c6c206661696c6564\n      dup2\n      mstore\n      pop\n        /* \"@openzeppelin/contracts-upgradeable/token/ERC20/utils/SafeERC20Upgradeable.sol\":3770:3775  token */\n      dup6\n        /* \"@openzeppelin/contracts-upgradeable/token/ERC20/utils/SafeERC20Upgradeable.sol\":3762:3789  address(token).functionCall */\n      0xffffffffffffffffffffffffffffffffffffffff\n      and\n      tag_68\n      swap1\n        /* \"@openzeppelin/contracts-upgradeable/token/ERC20/utils/SafeERC20Upgradeable.sol\":3762:3831  address(token).functionCall(data, \"SafeERC20: low-level call failed\") */\n      swap3\n      swap2\n      swap1\n      0xffffffff\n      and\n      jump\t// in\n    tag_67:\n        /* \"@openzeppelin/contracts-upgradeable/token/ERC20/utils/SafeERC20Upgradeable.sol\":3736:3831  bytes memory returndata = address(token).functionCall(data, \"SafeERC20: low-level call failed\") */\n      swap1\n      pop\n        /* \"@openzeppelin/contracts-upgradeable/token/ERC20/utils/SafeERC20Upgradeable.sol\":3865:3866  0 */\n      0x00\n        /* \"@openzeppelin/contracts-upgradeable/token/ERC20/utils/SafeERC20Upgradeable.sol\":3845:3855  returndata */\n      dup2\n        /* \"@openzeppelin/contracts-upgradeable/token/ERC20/utils/SafeERC20Upgradeable.sol\":3845:3862  returndata.length */\n      mload\n        /* \"@openzeppelin/contracts-upgradeable/token/ERC20/utils/SafeERC20Upgradeable.sol\":3845:3866  returndata.length > 0 */\n      gt\n        /* \"@openzeppelin/contracts-upgradeable/token/ERC20/utils/SafeERC20Upgradeable.sol\":3841:4017  if (returndata.length > 0) {... */\n      iszero\n      tag_69\n      jumpi\n        /* \"@openzeppelin/contracts-upgradeable/token/ERC20/utils/SafeERC20Upgradeable.sol\":3940:3950  returndata */\n      dup1\n        /* \"@openzeppelin/contracts-upgradeable/token/ERC20/utils/SafeERC20Upgradeable.sol\":3929:3959  abi.decode(returndata, (bool)) */\n      dup1\n      0x20\n      add\n      swap1\n      mload\n      dup2\n      add\n      swap1\n      tag_70\n      swap2\n      swap1\n      tag_71\n      jump\t// in\n    tag_70:\n        /* \"@openzeppelin/contracts-upgradeable/token/ERC20/utils/SafeERC20Upgradeable.sol\":3921:4006  require(abi.decode(returndata, (bool)), \"SafeERC20: ERC20 operation did not succeed\") */\n      tag_72\n      jumpi\n      mload(0x40)\n      0x08c379a000000000000000000000000000000000000000000000000000000000\n      dup2\n      mstore\n      0x04\n      add\n      tag_73\n      swap1\n      tag_74\n      jump\t// in\n    tag_73:\n      mload(0x40)\n      dup1\n      swap2\n      sub\n      swap1\n      revert\n    tag_72:\n        /* \"@openzeppelin/contracts-upgradeable/token/ERC20/utils/SafeERC20Upgradeable.sol\":3841:4017  if (returndata.length > 0) {... */\n    tag_69:\n        /* \"@openzeppelin/contracts-upgradeable/token/ERC20/utils/SafeERC20Upgradeable.sol\":3387:4023  {... */\n      pop\n        /* \"@openzeppelin/contracts-upgradeable/token/ERC20/utils/SafeERC20Upgradeable.sol\":3306:4023  function _callOptionalReturn(IERC20Upgradeable token, bytes memory data) private {... */\n      pop\n      pop\n      jump\t// out\n        /* \"@openzeppelin/contracts-upgradeable/token/ERC20/utils/SafeERC20Upgradeable.sol\":2099:2420  function safeIncreaseAllowance(... */\n    tag_47:\n        /* \"@openzeppelin/contracts-upgradeable/token/ERC20/utils/SafeERC20Upgradeable.sol\":2236:2256  uint256 newAllowance */\n      0x00\n        /* \"@openzeppelin/contracts-upgradeable/token/ERC20/utils/SafeERC20Upgradeable.sol\":2301:2306  value */\n      dup2\n        /* \"@openzeppelin/contracts-upgradeable/token/ERC20/utils/SafeERC20Upgradeable.sol\":2259:2264  token */\n      dup5\n        /* \"@openzeppelin/contracts-upgradeable/token/ERC20/utils/SafeERC20Upgradeable.sol\":2259:2274  token.allowance */\n      0xffffffffffffffffffffffffffffffffffffffff\n      and\n      0xdd62ed3e\n        /* \"@openzeppelin/contracts-upgradeable/token/ERC20/utils/SafeERC20Upgradeable.sol\":2283:2287  this */\n      address\n        /* \"@openzeppelin/contracts-upgradeable/token/ERC20/utils/SafeERC20Upgradeable.sol\":2290:2297  spender */\n      dup7\n        /* \"@openzeppelin/contracts-upgradeable/token/ERC20/utils/SafeERC20Upgradeable.sol\":2259:2298  token.allowance(address(this), spender) */\n      mload(0x40)\n      dup4\n      0xffffffff\n      and\n      0xe0\n      shl\n      dup2\n      mstore\n      0x04\n      add\n      tag_76\n      swap3\n      swap2\n      swap1\n      tag_77\n      jump\t// in\n    tag_76:\n      0x20\n      mload(0x40)\n      dup1\n      dup4\n      sub\n      dup2\n      dup7\n      gas\n      staticcall\n      iszero\n      dup1\n      iszero\n      tag_79\n      jumpi\n      returndatasize\n      0x00\n      dup1\n      returndatacopy\n      revert(0x00, returndatasize)\n    tag_79:\n      pop\n      pop\n      pop\n      pop\n      mload(0x40)\n      returndatasize\n      not(0x1f)\n      0x1f\n      dup3\n      add\n      and\n      dup3\n      add\n      dup1\n      0x40\n      mstore\n      pop\n      dup2\n      add\n      swap1\n      tag_80\n      swap2\n      swap1\n      tag_64\n      jump\t// in\n    tag_80:\n        /* \"@openzeppelin/contracts-upgradeable/token/ERC20/utils/SafeERC20Upgradeable.sol\":2259:2306  token.allowance(address(this), spender) + value */\n      tag_81\n      swap2\n      swap1\n      tag_82\n      jump\t// in\n    tag_81:\n        /* \"@openzeppelin/contracts-upgradeable/token/ERC20/utils/SafeERC20Upgradeable.sol\":2236:2306  uint256 newAllowance = token.allowance(address(this), spender) + value */\n      swap1\n      pop\n        /* \"@openzeppelin/contracts-upgradeable/token/ERC20/utils/SafeERC20Upgradeable.sol\":2316:2413  _callOptionalReturn(token, abi.encodeWithSelector(token.approve.selector, spender, newAllowance)) */\n      tag_83\n        /* \"@openzeppelin/contracts-upgradeable/token/ERC20/utils/SafeERC20Upgradeable.sol\":2336:2341  token */\n      dup5\n        /* \"@openzeppelin/contracts-upgradeable/token/ERC20/utils/SafeERC20Upgradeable.sol\":2366:2388  token.approve.selector */\n      shl(0xe0, 0x095ea7b3)\n        /* \"@openzeppelin/contracts-upgradeable/token/ERC20/utils/SafeERC20Upgradeable.sol\":2390:2397  spender */\n      dup6\n        /* \"@openzeppelin/contracts-upgradeable/token/ERC20/utils/SafeERC20Upgradeable.sol\":2399:2411  newAllowance */\n      dup5\n        /* \"@openzeppelin/contracts-upgradeable/token/ERC20/utils/SafeERC20Upgradeable.sol\":2343:2412  abi.encodeWithSelector(token.approve.selector, spender, newAllowance) */\n      add(0x24, mload(0x40))\n      tag_84\n      swap3\n      swap2\n      swap1\n      tag_85\n      jump\t// in\n    tag_84:\n      mload(0x40)\n      0x20\n      dup2\n      dup4\n      sub\n      sub\n      dup2\n      mstore\n      swap1\n      0x40\n      mstore\n      swap1\n      not(0xffffffffffffffffffffffffffffffffffffffffffffffffffffffff)\n      and\n      0x20\n      dup3\n      add\n      dup1\n      mload\n      0xffffffffffffffffffffffffffffffffffffffffffffffffffffffff\n      dup4\n      dup2\n      dup4\n      and\n      or\n      dup4\n      mstore\n      pop\n      pop\n      pop\n      pop\n        /* \"@openzeppelin/contracts-upgradeable/token/ERC20/utils/SafeERC20Upgradeable.sol\":2316:2335  _callOptionalReturn */\n      tag_32\n        /* \"@openzeppelin/contracts-upgradeable/token/ERC20/utils/SafeERC20Upgradeable.sol\":2316:2413  _callOptionalReturn(token, abi.encodeWithSelector(token.approve.selector, spender, newAllowance)) */\n      jump\t// in\n    tag_83:\n        /* \"@openzeppelin/contracts-upgradeable/token/ERC20/utils/SafeERC20Upgradeable.sol\":2226:2420  {... */\n      pop\n        /* \"@openzeppelin/contracts-upgradeable/token/ERC20/utils/SafeERC20Upgradeable.sol\":2099:2420  function safeIncreaseAllowance(... */\n      pop\n      pop\n      pop\n      jump\t// out\n        /* \"SuperDepositor.sol\":1985:2272  function _approveIfNeeded(address spender, address token) internal {... */\n    tag_55:\n        /* \"SuperDepositor.sol\":2063:2086  IERC20Upgradeable token */\n      0x00\n        /* \"SuperDepositor.sol\":2107:2112  token */\n      dup2\n        /* \"SuperDepositor.sol\":2063:2113  IERC20Upgradeable token = IERC20Upgradeable(token) */\n      swap1\n      pop\n        /* \"SuperDepositor.sol\":2179:2180  0 */\n      0x00\n        /* \"SuperDepositor.sol\":2128:2133  token */\n      dup2\n        /* \"SuperDepositor.sol\":2128:2143  token.allowance */\n      0xffffffffffffffffffffffffffffffffffffffff\n      and\n      0xdd62ed3e\n        /* \"SuperDepositor.sol\":2152:2156  this */\n      address\n        /* \"SuperDepositor.sol\":2159:2166  spender */\n      dup7\n        /* \"SuperDepositor.sol\":2128:2167  token.allowance(address(this), spender) */\n      mload(0x40)\n      dup4\n      0xffffffff\n      and\n      0xe0\n      shl\n      dup2\n      mstore\n      0x04\n      add\n      tag_87\n      swap3\n      swap2\n      swap1\n      tag_77\n      jump\t// in\n    tag_87:\n      0x20\n      mload(0x40)\n      dup1\n      dup4\n      sub\n      dup2\n      dup7\n      gas\n      staticcall\n      iszero\n      dup1\n      iszero\n      tag_89\n      jumpi\n      returndatasize\n      0x00\n      dup1\n      returndatacopy\n      revert(0x00, returndatasize)\n    tag_89:\n      pop\n      pop\n      pop\n      pop\n      mload(0x40)\n      returndatasize\n      not(0x1f)\n      0x1f\n      dup3\n      add\n      and\n      dup3\n      add\n      dup1\n      0x40\n      mstore\n      pop\n      dup2\n      add\n      swap1\n      tag_90\n      swap2\n      swap1\n      tag_64\n      jump\t// in\n    tag_90:\n        /* \"SuperDepositor.sol\":2128:2181  token.allowance(address(this), spender) == uint256(0) */\n      sub\n        /* \"SuperDepositor.sol\":2124:2265  if (token.allowance(address(this), spender) == uint256(0)) {... */\n      tag_91\n      jumpi\n        /* \"SuperDepositor.sol\":2198:2253  token.safeIncreaseAllowance(spender, type(uint256).max) */\n      tag_92\n        /* \"SuperDepositor.sol\":2226:2233  spender */\n      dup4\n        /* \"SuperDepositor.sol\":2235:2252  type(uint256).max */\n      0xffffffffffffffffffffffffffffffffffffffffffffffffffffffffffffffff\n        /* \"SuperDepositor.sol\":2198:2203  token */\n      dup4\n        /* \"SuperDepositor.sol\":2198:2225  token.safeIncreaseAllowance */\n      0xffffffffffffffffffffffffffffffffffffffff\n      and\n      tag_47\n      swap1\n        /* \"SuperDepositor.sol\":2198:2253  token.safeIncreaseAllowance(spender, type(uint256).max) */\n      swap3\n      swap2\n      swap1\n      0xffffffff\n      and\n      jump\t// in\n    tag_92:\n        /* \"SuperDepositor.sol\":2124:2265  if (token.allowance(address(this), spender) == uint256(0)) {... */\n    tag_91:\n        /* \"SuperDepositor.sol\":2052:2272  {... */\n      pop\n        /* \"SuperDepositor.sol\":1985:2272  function _approveIfNeeded(address spender, address token) internal {... */\n      pop\n      pop\n      jump\t// out\n        /* \"@openzeppelin/contracts-upgradeable/token/ERC20/utils/SafeERC20Upgradeable.sol\":745:961  function safeTransfer(... */\n    tag_65:\n        /* \"@openzeppelin/contracts-upgradeable/token/ERC20/utils/SafeERC20Upgradeable.sol\":868:954  _callOptionalReturn(token, abi.encodeWithSelector(token.transfer.selector, to, value)) */\n      tag_94\n        /* \"@openzeppelin/contracts-upgradeable/token/ERC20/utils/SafeERC20Upgradeable.sol\":888:893  token */\n      dup4\n        /* \"@openzeppelin/contracts-upgradeable/token/ERC20/utils/SafeERC20Upgradeable.sol\":918:941  token.transfer.selector */\n      shl(0xe0, 0xa9059cbb)\n        /* \"@openzeppelin/contracts-upgradeable/token/ERC20/utils/SafeERC20Upgradeable.sol\":943:945  to */\n      dup5\n        /* \"@openzeppelin/contracts-upgradeable/token/ERC20/utils/SafeERC20Upgradeable.sol\":947:952  value */\n      dup5\n        /* \"@openzeppelin/contracts-upgradeable/token/ERC20/utils/SafeERC20Upgradeable.sol\":895:953  abi.encodeWithSelector(token.transfer.selector, to, value) */\n      add(0x24, mload(0x40))\n      tag_95\n      swap3\n      swap2\n      swap1\n      tag_85\n      jump\t// in\n    tag_95:\n      mload(0x40)\n      0x20\n      dup2\n      dup4\n      sub\n      sub\n      dup2\n      mstore\n      swap1\n      0x40\n      mstore\n      swap1\n      not(0xffffffffffffffffffffffffffffffffffffffffffffffffffffffff)\n      and\n      0x20\n      dup3\n      add\n      dup1\n      mload\n      0xffffffffffffffffffffffffffffffffffffffffffffffffffffffff\n      dup4\n      dup2\n      dup4\n      and\n      or\n      dup4\n      mstore\n      pop\n      pop\n      pop\n      pop\n        /* \"@openzeppelin/contracts-upgradeable/token/ERC20/utils/SafeERC20Upgradeable.sol\":868:887  _callOptionalReturn */\n      tag_32\n        /* \"@openzeppelin/contracts-upgradeable/token/ERC20/utils/SafeERC20Upgradeable.sol\":868:954  _callOptionalReturn(token, abi.encodeWithSelector(token.transfer.selector, to, value)) */\n      jump\t// in\n    tag_94:\n        /* \"@openzeppelin/contracts-upgradeable/token/ERC20/utils/SafeERC20Upgradeable.sol\":745:961  function safeTransfer(... */\n      pop\n      pop\n      pop\n      jump\t// out\n        /* \"@openzeppelin/contracts-upgradeable/utils/AddressUpgradeable.sol\":3872:4095  function functionCall(... */\n    tag_68:\n        /* \"@openzeppelin/contracts-upgradeable/utils/AddressUpgradeable.sol\":4005:4017  bytes memory */\n      0x60\n        /* \"@openzeppelin/contracts-upgradeable/utils/AddressUpgradeable.sol\":4036:4088  functionCallWithValue(target, data, 0, errorMessage) */\n      tag_97\n        /* \"@openzeppelin/contracts-upgradeable/utils/AddressUpgradeable.sol\":4058:4064  target */\n      dup5\n        /* \"@openzeppelin/contracts-upgradeable/utils/AddressUpgradeable.sol\":4066:4070  data */\n      dup5\n        /* \"@openzeppelin/contracts-upgradeable/utils/AddressUpgradeable.sol\":4072:4073  0 */\n      0x00\n        /* \"@openzeppelin/contracts-upgradeable/utils/AddressUpgradeable.sol\":4075:4087  errorMessage */\n      dup6\n        /* \"@openzeppelin/contracts-upgradeable/utils/AddressUpgradeable.sol\":4036:4057  functionCallWithValue */\n      tag_98\n        /* \"@openzeppelin/contracts-upgradeable/utils/AddressUpgradeable.sol\":4036:4088  functionCallWithValue(target, data, 0, errorMessage) */\n      jump\t// in\n    tag_97:\n        /* \"@openzeppelin/contracts-upgradeable/utils/AddressUpgradeable.sol\":4029:4088  return functionCallWithValue(target, data, 0, errorMessage) */\n      swap1\n      pop\n        /* \"@openzeppelin/contracts-upgradeable/utils/AddressUpgradeable.sol\":3872:4095  function functionCall(... */\n      swap4\n      swap3\n      pop\n      pop\n      pop\n      jump\t// out\n        /* \"@openzeppelin/contracts-upgradeable/utils/AddressUpgradeable.sol\":4959:5458  function functionCallWithValue(... */\n    tag_98:\n        /* \"@openzeppelin/contracts-upgradeable/utils/AddressUpgradeable.sol\":5124:5136  bytes memory */\n      0x60\n        /* \"@openzeppelin/contracts-upgradeable/utils/AddressUpgradeable.sol\":5181:5186  value */\n      dup3\n        /* \"@openzeppelin/contracts-upgradeable/utils/AddressUpgradeable.sol\":5156:5177  address(this).balance */\n      selfbalance\n        /* \"@openzeppelin/contracts-upgradeable/utils/AddressUpgradeable.sol\":5156:5186  address(this).balance >= value */\n      lt\n      iszero\n        /* \"@openzeppelin/contracts-upgradeable/utils/AddressUpgradeable.sol\":5148:5229  require(address(this).balance >= value, \"Address: insufficient balance for call\") */\n      tag_100\n      jumpi\n      mload(0x40)\n      0x08c379a000000000000000000000000000000000000000000000000000000000\n      dup2\n      mstore\n      0x04\n      add\n      tag_101\n      swap1\n      tag_102\n      jump\t// in\n    tag_101:\n      mload(0x40)\n      dup1\n      swap2\n      sub\n      swap1\n      revert\n    tag_100:\n        /* \"@openzeppelin/contracts-upgradeable/utils/AddressUpgradeable.sol\":5247:5265  isContract(target) */\n      tag_103\n        /* \"@openzeppelin/contracts-upgradeable/utils/AddressUpgradeable.sol\":5258:5264  target */\n      dup6\n        /* \"@openzeppelin/contracts-upgradeable/utils/AddressUpgradeable.sol\":5247:5257  isContract */\n      tag_104\n        /* \"@openzeppelin/contracts-upgradeable/utils/AddressUpgradeable.sol\":5247:5265  isContract(target) */\n      jump\t// in\n    tag_103:\n        /* \"@openzeppelin/contracts-upgradeable/utils/AddressUpgradeable.sol\":5239:5299  require(isContract(target), \"Address: call to non-contract\") */\n      tag_105\n      jumpi\n      mload(0x40)\n      0x08c379a000000000000000000000000000000000000000000000000000000000\n      dup2\n      mstore\n      0x04\n      add\n      tag_106\n      swap1\n      tag_107\n      jump\t// in\n    tag_106:\n      mload(0x40)\n      dup1\n      swap2\n      sub\n      swap1\n      revert\n    tag_105:\n        /* \"@openzeppelin/contracts-upgradeable/utils/AddressUpgradeable.sol\":5311:5323  bool success */\n      0x00\n        /* \"@openzeppelin/contracts-upgradeable/utils/AddressUpgradeable.sol\":5325:5348  bytes memory returndata */\n      dup1\n        /* \"@openzeppelin/contracts-upgradeable/utils/AddressUpgradeable.sol\":5352:5358  target */\n      dup7\n        /* \"@openzeppelin/contracts-upgradeable/utils/AddressUpgradeable.sol\":5352:5363  target.call */\n      0xffffffffffffffffffffffffffffffffffffffff\n      and\n        /* \"@openzeppelin/contracts-upgradeable/utils/AddressUpgradeable.sol\":5371:5376  value */\n      dup6\n        /* \"@openzeppelin/contracts-upgradeable/utils/AddressUpgradeable.sol\":5378:5382  data */\n      dup8\n        /* \"@openzeppelin/contracts-upgradeable/utils/AddressUpgradeable.sol\":5352:5383  target.call{value: value}(data) */\n      mload(0x40)\n      tag_108\n      swap2\n      swap1\n      tag_109\n      jump\t// in\n    tag_108:\n      0x00\n      mload(0x40)\n      dup1\n      dup4\n      sub\n      dup2\n      dup6\n      dup8\n      gas\n      call\n      swap3\n      pop\n      pop\n      pop\n      returndatasize\n      dup1\n      0x00\n      dup2\n      eq\n      tag_112\n      jumpi\n      mload(0x40)\n      swap2\n      pop\n      and(add(returndatasize, 0x3f), not(0x1f))\n      dup3\n      add\n      0x40\n      mstore\n      returndatasize\n      dup3\n      mstore\n      returndatasize\n      0x00\n      0x20\n      dup5\n      add\n      returndatacopy\n      jump(tag_111)\n    tag_112:\n      0x60\n      swap2\n      pop\n    tag_111:\n      pop\n        /* \"@openzeppelin/contracts-upgradeable/utils/AddressUpgradeable.sol\":5310:5383  (bool success, bytes memory returndata) = target.call{value: value}(data) */\n      swap2\n      pop\n      swap2\n      pop\n        /* \"@openzeppelin/contracts-upgradeable/utils/AddressUpgradeable.sol\":5400:5451  verifyCallResult(success, returndata, errorMessage) */\n      tag_113\n        /* \"@openzeppelin/contracts-upgradeable/utils/AddressUpgradeable.sol\":5417:5424  success */\n      dup3\n        /* \"@openzeppelin/contracts-upgradeable/utils/AddressUpgradeable.sol\":5426:5436  returndata */\n      dup3\n        /* \"@openzeppelin/contracts-upgradeable/utils/AddressUpgradeable.sol\":5438:5450  errorMessage */\n      dup7\n        /* \"@openzeppelin/contracts-upgradeable/utils/AddressUpgradeable.sol\":5400:5416  verifyCallResult */\n      tag_114\n        /* \"@openzeppelin/contracts-upgradeable/utils/AddressUpgradeable.sol\":5400:5451  verifyCallResult(success, returndata, errorMessage) */\n      jump\t// in\n    tag_113:\n        /* \"@openzeppelin/contracts-upgradeable/utils/AddressUpgradeable.sol\":5393:5451  return verifyCallResult(success, returndata, errorMessage) */\n      swap3\n      pop\n      pop\n      pop\n        /* \"@openzeppelin/contracts-upgradeable/utils/AddressUpgradeable.sol\":4959:5458  function functionCallWithValue(... */\n      swap5\n      swap4\n      pop\n      pop\n      pop\n      pop\n      jump\t// out\n        /* \"@openzeppelin/contracts-upgradeable/utils/AddressUpgradeable.sol\":1186:1506  function isContract(address account) internal view returns (bool) {... */\n    tag_104:\n        /* \"@openzeppelin/contracts-upgradeable/utils/AddressUpgradeable.sol\":1246:1250  bool */\n      0x00\n        /* \"@openzeppelin/contracts-upgradeable/utils/AddressUpgradeable.sol\":1498:1499  0 */\n      dup1\n        /* \"@openzeppelin/contracts-upgradeable/utils/AddressUpgradeable.sol\":1476:1483  account */\n      dup3\n        /* \"@openzeppelin/contracts-upgradeable/utils/AddressUpgradeable.sol\":1476:1495  account.code.length */\n      0xffffffffffffffffffffffffffffffffffffffff\n      and\n      extcodesize\n        /* \"@openzeppelin/contracts-upgradeable/utils/AddressUpgradeable.sol\":1476:1499  account.code.length > 0 */\n      gt\n        /* \"@openzeppelin/contracts-upgradeable/utils/AddressUpgradeable.sol\":1469:1499  return account.code.length > 0 */\n      swap1\n      pop\n        /* \"@openzeppelin/contracts-upgradeable/utils/AddressUpgradeable.sol\":1186:1506  function isContract(address account) internal view returns (bool) {... */\n      swap2\n      swap1\n      pop\n      jump\t// out\n        /* \"@openzeppelin/contracts-upgradeable/utils/AddressUpgradeable.sol\":6622:7314  function verifyCallResult(... */\n    tag_114:\n        /* \"@openzeppelin/contracts-upgradeable/utils/AddressUpgradeable.sol\":6768:6780  bytes memory */\n      0x60\n        /* \"@openzeppelin/contracts-upgradeable/utils/AddressUpgradeable.sol\":6796:6803  success */\n      dup4\n        /* \"@openzeppelin/contracts-upgradeable/utils/AddressUpgradeable.sol\":6792:7308  if (success) {... */\n      iszero\n      tag_117\n      jumpi\n        /* \"@openzeppelin/contracts-upgradeable/utils/AddressUpgradeable.sol\":6826:6836  returndata */\n      dup3\n        /* \"@openzeppelin/contracts-upgradeable/utils/AddressUpgradeable.sol\":6819:6836  return returndata */\n      swap1\n      pop\n      jump(tag_116)\n        /* \"@openzeppelin/contracts-upgradeable/utils/AddressUpgradeable.sol\":6792:7308  if (success) {... */\n    tag_117:\n        /* \"@openzeppelin/contracts-upgradeable/utils/AddressUpgradeable.sol\":6957:6958  0 */\n      0x00\n        /* \"@openzeppelin/contracts-upgradeable/utils/AddressUpgradeable.sol\":6937:6947  returndata */\n      dup4\n        /* \"@openzeppelin/contracts-upgradeable/utils/AddressUpgradeable.sol\":6937:6954  returndata.length */\n      mload\n        /* \"@openzeppelin/contracts-upgradeable/utils/AddressUpgradeable.sol\":6937:6958  returndata.length > 0 */\n      gt\n        /* \"@openzeppelin/contracts-upgradeable/utils/AddressUpgradeable.sol\":6933:7298  if (returndata.length > 0) {... */\n      iszero\n      tag_119\n      jumpi\n        /* \"@openzeppelin/contracts-upgradeable/utils/AddressUpgradeable.sol\":7131:7141  returndata */\n      dup3\n        /* \"@openzeppelin/contracts-upgradeable/utils/AddressUpgradeable.sol\":7125:7142  mload(returndata) */\n      mload\n        /* \"@openzeppelin/contracts-upgradeable/utils/AddressUpgradeable.sol\":7191:7206  returndata_size */\n      dup1\n        /* \"@openzeppelin/contracts-upgradeable/utils/AddressUpgradeable.sol\":7178:7188  returndata */\n      dup5\n        /* \"@openzeppelin/contracts-upgradeable/utils/AddressUpgradeable.sol\":7174:7176  32 */\n      0x20\n        /* \"@openzeppelin/contracts-upgradeable/utils/AddressUpgradeable.sol\":7170:7189  add(32, returndata) */\n      add\n        /* \"@openzeppelin/contracts-upgradeable/utils/AddressUpgradeable.sol\":7163:7207  revert(add(32, returndata), returndata_size) */\n      revert\n        /* \"@openzeppelin/contracts-upgradeable/utils/AddressUpgradeable.sol\":6933:7298  if (returndata.length > 0) {... */\n    tag_119:\n        /* \"@openzeppelin/contracts-upgradeable/utils/AddressUpgradeable.sol\":7270:7282  errorMessage */\n      dup2\n        /* \"@openzeppelin/contracts-upgradeable/utils/AddressUpgradeable.sol\":7263:7283  revert(errorMessage) */\n      mload(0x40)\n      0x08c379a000000000000000000000000000000000000000000000000000000000\n      dup2\n      mstore\n      0x04\n      add\n      tag_121\n      swap2\n      swap1\n      tag_122\n      jump\t// in\n    tag_121:\n      mload(0x40)\n      dup1\n      swap2\n      sub\n      swap1\n      revert\n        /* \"@openzeppelin/contracts-upgradeable/utils/AddressUpgradeable.sol\":6622:7314  function verifyCallResult(... */\n    tag_116:\n      swap4\n      swap3\n      pop\n      pop\n      pop\n      jump\t// out\n    tag_43:\n      mload(0x40)\n      dup1\n      0x80\n      add\n      0x40\n      mstore\n      dup1\n      0x60\n      dup2\n      mstore\n      0x20\n      add\n      0x60\n      dup2\n      mstore\n      0x20\n      add\n      0x60\n      dup2\n      mstore\n      0x20\n      add\n      iszero(iszero(0x00))\n      dup2\n      mstore\n      pop\n      swap1\n      jump\t// out\n        /* \"#utility.yul\":7:82   */\n    tag_123:\n        /* \"#utility.yul\":40:46   */\n      0x00\n        /* \"#utility.yul\":73:75   */\n      0x40\n        /* \"#utility.yul\":67:76   */\n      mload\n        /* \"#utility.yul\":57:76   */\n      swap1\n      pop\n        /* \"#utility.yul\":7:82   */\n      swap1\n      jump\t// out\n        /* \"#utility.yul\":88:205   */\n    tag_124:\n        /* \"#utility.yul\":197:198   */\n      0x00\n        /* \"#utility.yul\":194:195   */\n      dup1\n        /* \"#utility.yul\":187:199   */\n      revert\n        /* \"#utility.yul\":211:328   */\n    tag_125:\n        /* \"#utility.yul\":320:321   */\n      0x00\n        /* \"#utility.yul\":317:318   */\n      dup1\n        /* \"#utility.yul\":310:322   */\n      revert\n        /* \"#utility.yul\":334:451   */\n    tag_126:\n        /* \"#utility.yul\":443:444   */\n      0x00\n        /* \"#utility.yul\":440:441   */\n      dup1\n        /* \"#utility.yul\":433:445   */\n      revert\n        /* \"#utility.yul\":457:559   */\n    tag_127:\n        /* \"#utility.yul\":498:504   */\n      0x00\n        /* \"#utility.yul\":549:551   */\n      0x1f\n        /* \"#utility.yul\":545:552   */\n      not\n        /* \"#utility.yul\":540:542   */\n      0x1f\n        /* \"#utility.yul\":533:538   */\n      dup4\n        /* \"#utility.yul\":529:543   */\n      add\n        /* \"#utility.yul\":525:553   */\n      and\n        /* \"#utility.yul\":515:553   */\n      swap1\n      pop\n        /* \"#utility.yul\":457:559   */\n      swap2\n      swap1\n      pop\n      jump\t// out\n        /* \"#utility.yul\":565:745   */\n    tag_36:\n        /* \"#utility.yul\":613:690   */\n      0x4e487b7100000000000000000000000000000000000000000000000000000000\n        /* \"#utility.yul\":610:611   */\n      0x00\n        /* \"#utility.yul\":603:691   */\n      mstore\n        /* \"#utility.yul\":710:714   */\n      0x41\n        /* \"#utility.yul\":707:708   */\n      0x04\n        /* \"#utility.yul\":700:715   */\n      mstore\n        /* \"#utility.yul\":734:738   */\n      0x24\n        /* \"#utility.yul\":731:732   */\n      0x00\n        /* \"#utility.yul\":724:739   */\n      revert\n        /* \"#utility.yul\":751:1032   */\n    tag_128:\n        /* \"#utility.yul\":834:861   */\n      tag_205\n        /* \"#utility.yul\":856:860   */\n      dup3\n        /* \"#utility.yul\":834:861   */\n      tag_127\n      jump\t// in\n    tag_205:\n        /* \"#utility.yul\":826:832   */\n      dup2\n        /* \"#utility.yul\":822:862   */\n      add\n        /* \"#utility.yul\":964:970   */\n      dup2\n        /* \"#utility.yul\":952:962   */\n      dup2\n        /* \"#utility.yul\":949:971   */\n      lt\n        /* \"#utility.yul\":928:946   */\n      0xffffffffffffffff\n        /* \"#utility.yul\":916:926   */\n      dup3\n        /* \"#utility.yul\":913:947   */\n      gt\n        /* \"#utility.yul\":910:972   */\n      or\n        /* \"#utility.yul\":907:995   */\n      iszero\n      tag_206\n      jumpi\n        /* \"#utility.yul\":975:993   */\n      tag_207\n      tag_36\n      jump\t// in\n    tag_207:\n        /* \"#utility.yul\":907:995   */\n    tag_206:\n        /* \"#utility.yul\":1015:1025   */\n      dup1\n        /* \"#utility.yul\":1011:1013   */\n      0x40\n        /* \"#utility.yul\":1004:1026   */\n      mstore\n        /* \"#utility.yul\":794:1032   */\n      pop\n        /* \"#utility.yul\":751:1032   */\n      pop\n      pop\n      jump\t// out\n        /* \"#utility.yul\":1038:1167   */\n    tag_129:\n        /* \"#utility.yul\":1072:1078   */\n      0x00\n        /* \"#utility.yul\":1099:1119   */\n      tag_209\n      tag_123\n      jump\t// in\n    tag_209:\n        /* \"#utility.yul\":1089:1119   */\n      swap1\n      pop\n        /* \"#utility.yul\":1128:1161   */\n      tag_210\n        /* \"#utility.yul\":1156:1160   */\n      dup3\n        /* \"#utility.yul\":1148:1154   */\n      dup3\n        /* \"#utility.yul\":1128:1161   */\n      tag_128\n      jump\t// in\n    tag_210:\n        /* \"#utility.yul\":1038:1167   */\n      swap2\n      swap1\n      pop\n      jump\t// out\n        /* \"#utility.yul\":1173:1290   */\n    tag_130:\n        /* \"#utility.yul\":1282:1283   */\n      0x00\n        /* \"#utility.yul\":1279:1280   */\n      dup1\n        /* \"#utility.yul\":1272:1284   */\n      revert\n        /* \"#utility.yul\":1296:1413   */\n    tag_131:\n        /* \"#utility.yul\":1405:1406   */\n      0x00\n        /* \"#utility.yul\":1402:1403   */\n      dup1\n        /* \"#utility.yul\":1395:1407   */\n      revert\n        /* \"#utility.yul\":1419:1745   */\n    tag_132:\n        /* \"#utility.yul\":1511:1515   */\n      0x00\n        /* \"#utility.yul\":1601:1619   */\n      0xffffffffffffffff\n        /* \"#utility.yul\":1593:1599   */\n      dup3\n        /* \"#utility.yul\":1590:1620   */\n      gt\n        /* \"#utility.yul\":1587:1643   */\n      iszero\n      tag_214\n      jumpi\n        /* \"#utility.yul\":1623:1641   */\n      tag_215\n      tag_36\n      jump\t// in\n    tag_215:\n        /* \"#utility.yul\":1587:1643   */\n    tag_214:\n        /* \"#utility.yul\":1673:1677   */\n      0x20\n        /* \"#utility.yul\":1665:1671   */\n      dup3\n        /* \"#utility.yul\":1661:1678   */\n      mul\n        /* \"#utility.yul\":1653:1678   */\n      swap1\n      pop\n        /* \"#utility.yul\":1733:1737   */\n      0x20\n        /* \"#utility.yul\":1727:1731   */\n      dup2\n        /* \"#utility.yul\":1723:1738   */\n      add\n        /* \"#utility.yul\":1715:1738   */\n      swap1\n      pop\n        /* \"#utility.yul\":1419:1745   */\n      swap2\n      swap1\n      pop\n      jump\t// out\n        /* \"#utility.yul\":1751:1868   */\n    tag_133:\n        /* \"#utility.yul\":1860:1861   */\n      0x00\n        /* \"#utility.yul\":1857:1858   */\n      dup1\n        /* \"#utility.yul\":1850:1862   */\n      revert\n        /* \"#utility.yul\":1874:2000   */\n    tag_134:\n        /* \"#utility.yul\":1911:1918   */\n      0x00\n        /* \"#utility.yul\":1951:1993   */\n      0xffffffffffffffffffffffffffffffffffffffff\n        /* \"#utility.yul\":1944:1949   */\n      dup3\n        /* \"#utility.yul\":1940:1994   */\n      and\n        /* \"#utility.yul\":1929:1994   */\n      swap1\n      pop\n        /* \"#utility.yul\":1874:2000   */\n      swap2\n      swap1\n      pop\n      jump\t// out\n        /* \"#utility.yul\":2006:2102   */\n    tag_135:\n        /* \"#utility.yul\":2043:2050   */\n      0x00\n        /* \"#utility.yul\":2072:2096   */\n      tag_219\n        /* \"#utility.yul\":2090:2095   */\n      dup3\n        /* \"#utility.yul\":2072:2096   */\n      tag_134\n      jump\t// in\n    tag_219:\n        /* \"#utility.yul\":2061:2096   */\n      swap1\n      pop\n        /* \"#utility.yul\":2006:2102   */\n      swap2\n      swap1\n      pop\n      jump\t// out\n        /* \"#utility.yul\":2108:2219   */\n    tag_136:\n        /* \"#utility.yul\":2160:2167   */\n      0x00\n        /* \"#utility.yul\":2189:2213   */\n      tag_221\n        /* \"#utility.yul\":2207:2212   */\n      dup3\n        /* \"#utility.yul\":2189:2213   */\n      tag_135\n      jump\t// in\n    tag_221:\n        /* \"#utility.yul\":2178:2213   */\n      swap1\n      pop\n        /* \"#utility.yul\":2108:2219   */\n      swap2\n      swap1\n      pop\n      jump\t// out\n        /* \"#utility.yul\":2225:2377   */\n    tag_137:\n        /* \"#utility.yul\":2313:2352   */\n      tag_223\n        /* \"#utility.yul\":2346:2351   */\n      dup2\n        /* \"#utility.yul\":2313:2352   */\n      tag_136\n      jump\t// in\n    tag_223:\n        /* \"#utility.yul\":2306:2311   */\n      dup2\n        /* \"#utility.yul\":2303:2353   */\n      eq\n        /* \"#utility.yul\":2293:2371   */\n      tag_224\n      jumpi\n        /* \"#utility.yul\":2367:2368   */\n      0x00\n        /* \"#utility.yul\":2364:2365   */\n      dup1\n        /* \"#utility.yul\":2357:2369   */\n      revert\n        /* \"#utility.yul\":2293:2371   */\n    tag_224:\n        /* \"#utility.yul\":2225:2377   */\n      pop\n      jump\t// out\n        /* \"#utility.yul\":2383:2552   */\n    tag_138:\n        /* \"#utility.yul\":2444:2449   */\n      0x00\n        /* \"#utility.yul\":2482:2488   */\n      dup2\n        /* \"#utility.yul\":2469:2489   */\n      calldataload\n        /* \"#utility.yul\":2460:2489   */\n      swap1\n      pop\n        /* \"#utility.yul\":2498:2546   */\n      tag_226\n        /* \"#utility.yul\":2540:2545   */\n      dup2\n        /* \"#utility.yul\":2498:2546   */\n      tag_137\n      jump\t// in\n    tag_226:\n        /* \"#utility.yul\":2383:2552   */\n      swap3\n      swap2\n      pop\n      pop\n      jump\t// out\n        /* \"#utility.yul\":2583:3338   */\n    tag_139:\n        /* \"#utility.yul\":2694:2699   */\n      0x00\n        /* \"#utility.yul\":2719:2815   */\n      tag_228\n        /* \"#utility.yul\":2735:2814   */\n      tag_229\n        /* \"#utility.yul\":2807:2813   */\n      dup5\n        /* \"#utility.yul\":2735:2814   */\n      tag_132\n      jump\t// in\n    tag_229:\n        /* \"#utility.yul\":2719:2815   */\n      tag_129\n      jump\t// in\n    tag_228:\n        /* \"#utility.yul\":2710:2815   */\n      swap1\n      pop\n        /* \"#utility.yul\":2835:2840   */\n      dup1\n        /* \"#utility.yul\":2864:2870   */\n      dup4\n        /* \"#utility.yul\":2857:2862   */\n      dup3\n        /* \"#utility.yul\":2850:2871   */\n      mstore\n        /* \"#utility.yul\":2898:2902   */\n      0x20\n        /* \"#utility.yul\":2891:2896   */\n      dup3\n        /* \"#utility.yul\":2887:2903   */\n      add\n        /* \"#utility.yul\":2880:2903   */\n      swap1\n      pop\n        /* \"#utility.yul\":2951:2955   */\n      0x20\n        /* \"#utility.yul\":2943:2949   */\n      dup5\n        /* \"#utility.yul\":2939:2956   */\n      mul\n        /* \"#utility.yul\":2931:2937   */\n      dup4\n        /* \"#utility.yul\":2927:2957   */\n      add\n        /* \"#utility.yul\":2980:2983   */\n      dup6\n        /* \"#utility.yul\":2972:2978   */\n      dup2\n        /* \"#utility.yul\":2969:2984   */\n      gt\n        /* \"#utility.yul\":2966:3088   */\n      iszero\n      tag_230\n      jumpi\n        /* \"#utility.yul\":2999:3078   */\n      tag_231\n      tag_133\n      jump\t// in\n    tag_231:\n        /* \"#utility.yul\":2966:3088   */\n    tag_230:\n        /* \"#utility.yul\":3114:3120   */\n      dup4\n        /* \"#utility.yul\":3097:3332   */\n    tag_232:\n        /* \"#utility.yul\":3131:3137   */\n      dup2\n        /* \"#utility.yul\":3126:3129   */\n      dup2\n        /* \"#utility.yul\":3123:3138   */\n      lt\n        /* \"#utility.yul\":3097:3332   */\n      iszero\n      tag_234\n      jumpi\n        /* \"#utility.yul\":3206:3209   */\n      dup1\n        /* \"#utility.yul\":3235:3287   */\n      tag_235\n        /* \"#utility.yul\":3283:3286   */\n      dup9\n        /* \"#utility.yul\":3271:3281   */\n      dup3\n        /* \"#utility.yul\":3235:3287   */\n      tag_138\n      jump\t// in\n    tag_235:\n        /* \"#utility.yul\":3230:3233   */\n      dup5\n        /* \"#utility.yul\":3223:3288   */\n      mstore\n        /* \"#utility.yul\":3317:3321   */\n      0x20\n        /* \"#utility.yul\":3312:3315   */\n      dup5\n        /* \"#utility.yul\":3308:3322   */\n      add\n        /* \"#utility.yul\":3301:3322   */\n      swap4\n      pop\n        /* \"#utility.yul\":3173:3332   */\n      pop\n        /* \"#utility.yul\":3157:3161   */\n      0x20\n        /* \"#utility.yul\":3152:3155   */\n      dup2\n        /* \"#utility.yul\":3148:3162   */\n      add\n        /* \"#utility.yul\":3141:3162   */\n      swap1\n      pop\n        /* \"#utility.yul\":3097:3332   */\n      jump(tag_232)\n    tag_234:\n        /* \"#utility.yul\":3101:3122   */\n      pop\n        /* \"#utility.yul\":2700:3338   */\n      pop\n      pop\n        /* \"#utility.yul\":2583:3338   */\n      swap4\n      swap3\n      pop\n      pop\n      pop\n      jump\t// out\n        /* \"#utility.yul\":3369:3769   */\n    tag_140:\n        /* \"#utility.yul\":3455:3460   */\n      0x00\n        /* \"#utility.yul\":3504:3507   */\n      dup3\n        /* \"#utility.yul\":3497:3501   */\n      0x1f\n        /* \"#utility.yul\":3489:3495   */\n      dup4\n        /* \"#utility.yul\":3485:3502   */\n      add\n        /* \"#utility.yul\":3481:3508   */\n      slt\n        /* \"#utility.yul\":3471:3593   */\n      tag_237\n      jumpi\n        /* \"#utility.yul\":3512:3591   */\n      tag_238\n      tag_131\n      jump\t// in\n    tag_238:\n        /* \"#utility.yul\":3471:3593   */\n    tag_237:\n        /* \"#utility.yul\":3629:3635   */\n      dup2\n        /* \"#utility.yul\":3616:3636   */\n      calldataload\n        /* \"#utility.yul\":3654:3763   */\n      tag_239\n        /* \"#utility.yul\":3759:3762   */\n      dup5\n        /* \"#utility.yul\":3751:3757   */\n      dup3\n        /* \"#utility.yul\":3744:3748   */\n      0x20\n        /* \"#utility.yul\":3736:3742   */\n      dup7\n        /* \"#utility.yul\":3732:3749   */\n      add\n        /* \"#utility.yul\":3654:3763   */\n      tag_139\n      jump\t// in\n    tag_239:\n        /* \"#utility.yul\":3645:3763   */\n      swap2\n      pop\n        /* \"#utility.yul\":3461:3769   */\n      pop\n        /* \"#utility.yul\":3369:3769   */\n      swap3\n      swap2\n      pop\n      pop\n      jump\t// out\n        /* \"#utility.yul\":3775:3852   */\n    tag_141:\n        /* \"#utility.yul\":3812:3819   */\n      0x00\n        /* \"#utility.yul\":3841:3846   */\n      dup2\n        /* \"#utility.yul\":3830:3846   */\n      swap1\n      pop\n        /* \"#utility.yul\":3775:3852   */\n      swap2\n      swap1\n      pop\n      jump\t// out\n        /* \"#utility.yul\":3858:3980   */\n    tag_142:\n        /* \"#utility.yul\":3931:3955   */\n      tag_242\n        /* \"#utility.yul\":3949:3954   */\n      dup2\n        /* \"#utility.yul\":3931:3955   */\n      tag_141\n      jump\t// in\n    tag_242:\n        /* \"#utility.yul\":3924:3929   */\n      dup2\n        /* \"#utility.yul\":3921:3956   */\n      eq\n        /* \"#utility.yul\":3911:3974   */\n      tag_243\n      jumpi\n        /* \"#utility.yul\":3970:3971   */\n      0x00\n        /* \"#utility.yul\":3967:3968   */\n      dup1\n        /* \"#utility.yul\":3960:3972   */\n      revert\n        /* \"#utility.yul\":3911:3974   */\n    tag_243:\n        /* \"#utility.yul\":3858:3980   */\n      pop\n      jump\t// out\n        /* \"#utility.yul\":3986:4125   */\n    tag_143:\n        /* \"#utility.yul\":4032:4037   */\n      0x00\n        /* \"#utility.yul\":4070:4076   */\n      dup2\n        /* \"#utility.yul\":4057:4077   */\n      calldataload\n        /* \"#utility.yul\":4048:4077   */\n      swap1\n      pop\n        /* \"#utility.yul\":4086:4119   */\n      tag_245\n        /* \"#utility.yul\":4113:4118   */\n      dup2\n        /* \"#utility.yul\":4086:4119   */\n      tag_142\n      jump\t// in\n    tag_245:\n        /* \"#utility.yul\":3986:4125   */\n      swap3\n      swap2\n      pop\n      pop\n      jump\t// out\n        /* \"#utility.yul\":4131:4208   */\n    tag_144:\n        /* \"#utility.yul\":4168:4175   */\n      0x00\n        /* \"#utility.yul\":4197:4202   */\n      dup2\n        /* \"#utility.yul\":4186:4202   */\n      swap1\n      pop\n        /* \"#utility.yul\":4131:4208   */\n      swap2\n      swap1\n      pop\n      jump\t// out\n        /* \"#utility.yul\":4214:4336   */\n    tag_145:\n        /* \"#utility.yul\":4287:4311   */\n      tag_248\n        /* \"#utility.yul\":4305:4310   */\n      dup2\n        /* \"#utility.yul\":4287:4311   */\n      tag_144\n      jump\t// in\n    tag_248:\n        /* \"#utility.yul\":4280:4285   */\n      dup2\n        /* \"#utility.yul\":4277:4312   */\n      eq\n        /* \"#utility.yul\":4267:4330   */\n      tag_249\n      jumpi\n        /* \"#utility.yul\":4326:4327   */\n      0x00\n        /* \"#utility.yul\":4323:4324   */\n      dup1\n        /* \"#utility.yul\":4316:4328   */\n      revert\n        /* \"#utility.yul\":4267:4330   */\n    tag_249:\n        /* \"#utility.yul\":4214:4336   */\n      pop\n      jump\t// out\n        /* \"#utility.yul\":4342:4481   */\n    tag_146:\n        /* \"#utility.yul\":4388:4393   */\n      0x00\n        /* \"#utility.yul\":4426:4432   */\n      dup2\n        /* \"#utility.yul\":4413:4433   */\n      calldataload\n        /* \"#utility.yul\":4404:4433   */\n      swap1\n      pop\n        /* \"#utility.yul\":4442:4475   */\n      tag_251\n        /* \"#utility.yul\":4469:4474   */\n      dup2\n        /* \"#utility.yul\":4442:4475   */\n      tag_145\n      jump\t// in\n    tag_251:\n        /* \"#utility.yul\":4342:4481   */\n      swap3\n      swap2\n      pop\n      pop\n      jump\t// out\n        /* \"#utility.yul\":4487:4609   */\n    tag_147:\n        /* \"#utility.yul\":4560:4584   */\n      tag_253\n        /* \"#utility.yul\":4578:4583   */\n      dup2\n        /* \"#utility.yul\":4560:4584   */\n      tag_135\n      jump\t// in\n    tag_253:\n        /* \"#utility.yul\":4553:4558   */\n      dup2\n        /* \"#utility.yul\":4550:4585   */\n      eq\n        /* \"#utility.yul\":4540:4603   */\n      tag_254\n      jumpi\n        /* \"#utility.yul\":4599:4600   */\n      0x00\n        /* \"#utility.yul\":4596:4597   */\n      dup1\n        /* \"#utility.yul\":4589:4601   */\n      revert\n        /* \"#utility.yul\":4540:4603   */\n    tag_254:\n        /* \"#utility.yul\":4487:4609   */\n      pop\n      jump\t// out\n        /* \"#utility.yul\":4615:4754   */\n    tag_148:\n        /* \"#utility.yul\":4661:4666   */\n      0x00\n        /* \"#utility.yul\":4699:4705   */\n      dup2\n        /* \"#utility.yul\":4686:4706   */\n      calldataload\n        /* \"#utility.yul\":4677:4706   */\n      swap1\n      pop\n        /* \"#utility.yul\":4715:4748   */\n      tag_256\n        /* \"#utility.yul\":4742:4747   */\n      dup2\n        /* \"#utility.yul\":4715:4748   */\n      tag_147\n      jump\t// in\n    tag_256:\n        /* \"#utility.yul\":4615:4754   */\n      swap3\n      swap2\n      pop\n      pop\n      jump\t// out\n        /* \"#utility.yul\":4803:6265   */\n    tag_149:\n        /* \"#utility.yul\":4883:4888   */\n      0x00\n        /* \"#utility.yul\":4927:4931   */\n      0xc0\n        /* \"#utility.yul\":4915:4924   */\n      dup3\n        /* \"#utility.yul\":4910:4913   */\n      dup5\n        /* \"#utility.yul\":4906:4925   */\n      sub\n        /* \"#utility.yul\":4902:4932   */\n      slt\n        /* \"#utility.yul\":4899:5016   */\n      iszero\n      tag_258\n      jumpi\n        /* \"#utility.yul\":4935:5014   */\n      tag_259\n      tag_126\n      jump\t// in\n    tag_259:\n        /* \"#utility.yul\":4899:5016   */\n    tag_258:\n        /* \"#utility.yul\":5034:5055   */\n      tag_260\n        /* \"#utility.yul\":5050:5054   */\n      0xc0\n        /* \"#utility.yul\":5034:5055   */\n      tag_129\n      jump\t// in\n    tag_260:\n        /* \"#utility.yul\":5025:5055   */\n      swap1\n      pop\n        /* \"#utility.yul\":5149:5150   */\n      0x00\n        /* \"#utility.yul\":5138:5147   */\n      dup3\n        /* \"#utility.yul\":5134:5151   */\n      add\n        /* \"#utility.yul\":5121:5152   */\n      calldataload\n        /* \"#utility.yul\":5179:5197   */\n      0xffffffffffffffff\n        /* \"#utility.yul\":5171:5177   */\n      dup2\n        /* \"#utility.yul\":5168:5198   */\n      gt\n        /* \"#utility.yul\":5165:5282   */\n      iszero\n      tag_261\n      jumpi\n        /* \"#utility.yul\":5201:5280   */\n      tag_262\n      tag_130\n      jump\t// in\n    tag_262:\n        /* \"#utility.yul\":5165:5282   */\n    tag_261:\n        /* \"#utility.yul\":5321:5410   */\n      tag_263\n        /* \"#utility.yul\":5406:5409   */\n      dup5\n        /* \"#utility.yul\":5397:5403   */\n      dup3\n        /* \"#utility.yul\":5386:5395   */\n      dup6\n        /* \"#utility.yul\":5382:5404   */\n      add\n        /* \"#utility.yul\":5321:5410   */\n      tag_140\n      jump\t// in\n    tag_263:\n        /* \"#utility.yul\":5314:5318   */\n      0x00\n        /* \"#utility.yul\":5307:5312   */\n      dup4\n        /* \"#utility.yul\":5303:5319   */\n      add\n        /* \"#utility.yul\":5296:5411   */\n      mstore\n        /* \"#utility.yul\":5065:5422   */\n      pop\n        /* \"#utility.yul\":5494:5496   */\n      0x20\n        /* \"#utility.yul\":5535:5584   */\n      tag_264\n        /* \"#utility.yul\":5580:5583   */\n      dup5\n        /* \"#utility.yul\":5571:5577   */\n      dup3\n        /* \"#utility.yul\":5560:5569   */\n      dup6\n        /* \"#utility.yul\":5556:5578   */\n      add\n        /* \"#utility.yul\":5535:5584   */\n      tag_143\n      jump\t// in\n    tag_264:\n        /* \"#utility.yul\":5528:5532   */\n      0x20\n        /* \"#utility.yul\":5521:5526   */\n      dup4\n        /* \"#utility.yul\":5517:5533   */\n      add\n        /* \"#utility.yul\":5510:5585   */\n      mstore\n        /* \"#utility.yul\":5432:5596   */\n      pop\n        /* \"#utility.yul\":5662:5664   */\n      0x40\n        /* \"#utility.yul\":5703:5752   */\n      tag_265\n        /* \"#utility.yul\":5748:5751   */\n      dup5\n        /* \"#utility.yul\":5739:5745   */\n      dup3\n        /* \"#utility.yul\":5728:5737   */\n      dup6\n        /* \"#utility.yul\":5724:5746   */\n      add\n        /* \"#utility.yul\":5703:5752   */\n      tag_146\n      jump\t// in\n    tag_265:\n        /* \"#utility.yul\":5696:5700   */\n      0x40\n        /* \"#utility.yul\":5689:5694   */\n      dup4\n        /* \"#utility.yul\":5685:5701   */\n      add\n        /* \"#utility.yul\":5678:5753   */\n      mstore\n        /* \"#utility.yul\":5606:5764   */\n      pop\n        /* \"#utility.yul\":5826:5828   */\n      0x60\n        /* \"#utility.yul\":5867:5916   */\n      tag_266\n        /* \"#utility.yul\":5912:5915   */\n      dup5\n        /* \"#utility.yul\":5903:5909   */\n      dup3\n        /* \"#utility.yul\":5892:5901   */\n      dup6\n        /* \"#utility.yul\":5888:5910   */\n      add\n        /* \"#utility.yul\":5867:5916   */\n      tag_148\n      jump\t// in\n    tag_266:\n        /* \"#utility.yul\":5860:5864   */\n      0x60\n        /* \"#utility.yul\":5853:5858   */\n      dup4\n        /* \"#utility.yul\":5849:5865   */\n      add\n        /* \"#utility.yul\":5842:5917   */\n      mstore\n        /* \"#utility.yul\":5774:5928   */\n      pop\n        /* \"#utility.yul\":5988:5991   */\n      0x80\n        /* \"#utility.yul\":6030:6079   */\n      tag_267\n        /* \"#utility.yul\":6075:6078   */\n      dup5\n        /* \"#utility.yul\":6066:6072   */\n      dup3\n        /* \"#utility.yul\":6055:6064   */\n      dup6\n        /* \"#utility.yul\":6051:6073   */\n      add\n        /* \"#utility.yul\":6030:6079   */\n      tag_148\n      jump\t// in\n    tag_267:\n        /* \"#utility.yul\":6023:6027   */\n      0x80\n        /* \"#utility.yul\":6016:6021   */\n      dup4\n        /* \"#utility.yul\":6012:6028   */\n      add\n        /* \"#utility.yul\":6005:6080   */\n      mstore\n        /* \"#utility.yul\":5938:6091   */\n      pop\n        /* \"#utility.yul\":6155:6158   */\n      0xa0\n        /* \"#utility.yul\":6197:6246   */\n      tag_268\n        /* \"#utility.yul\":6242:6245   */\n      dup5\n        /* \"#utility.yul\":6233:6239   */\n      dup3\n        /* \"#utility.yul\":6222:6231   */\n      dup6\n        /* \"#utility.yul\":6218:6240   */\n      add\n        /* \"#utility.yul\":6197:6246   */\n      tag_148\n      jump\t// in\n    tag_268:\n        /* \"#utility.yul\":6190:6194   */\n      0xa0\n        /* \"#utility.yul\":6183:6188   */\n      dup4\n        /* \"#utility.yul\":6179:6195   */\n      add\n        /* \"#utility.yul\":6172:6247   */\n      mstore\n        /* \"#utility.yul\":6101:6258   */\n      pop\n        /* \"#utility.yul\":4803:6265   */\n      swap3\n      swap2\n      pop\n      pop\n      jump\t// out\n        /* \"#utility.yul\":6271:6967   */\n    tag_8:\n        /* \"#utility.yul\":6370:6376   */\n      0x00\n        /* \"#utility.yul\":6378:6384   */\n      dup1\n        /* \"#utility.yul\":6427:6429   */\n      0x40\n        /* \"#utility.yul\":6415:6424   */\n      dup4\n        /* \"#utility.yul\":6406:6413   */\n      dup6\n        /* \"#utility.yul\":6402:6425   */\n      sub\n        /* \"#utility.yul\":6398:6430   */\n      slt\n        /* \"#utility.yul\":6395:6514   */\n      iszero\n      tag_270\n      jumpi\n        /* \"#utility.yul\":6433:6512   */\n      tag_271\n      tag_124\n      jump\t// in\n    tag_271:\n        /* \"#utility.yul\":6395:6514   */\n    tag_270:\n        /* \"#utility.yul\":6581:6582   */\n      0x00\n        /* \"#utility.yul\":6570:6579   */\n      dup4\n        /* \"#utility.yul\":6566:6583   */\n      add\n        /* \"#utility.yul\":6553:6584   */\n      calldataload\n        /* \"#utility.yul\":6611:6629   */\n      0xffffffffffffffff\n        /* \"#utility.yul\":6603:6609   */\n      dup2\n        /* \"#utility.yul\":6600:6630   */\n      gt\n        /* \"#utility.yul\":6597:6714   */\n      iszero\n      tag_272\n      jumpi\n        /* \"#utility.yul\":6633:6712   */\n      tag_273\n      tag_125\n      jump\t// in\n    tag_273:\n        /* \"#utility.yul\":6597:6714   */\n    tag_272:\n        /* \"#utility.yul\":6738:6822   */\n      tag_274\n        /* \"#utility.yul\":6814:6821   */\n      dup6\n        /* \"#utility.yul\":6805:6811   */\n      dup3\n        /* \"#utility.yul\":6794:6803   */\n      dup7\n        /* \"#utility.yul\":6790:6812   */\n      add\n        /* \"#utility.yul\":6738:6822   */\n      tag_149\n      jump\t// in\n    tag_274:\n        /* \"#utility.yul\":6728:6822   */\n      swap3\n      pop\n        /* \"#utility.yul\":6524:6832   */\n      pop\n        /* \"#utility.yul\":6871:6873   */\n      0x20\n        /* \"#utility.yul\":6897:6950   */\n      tag_275\n        /* \"#utility.yul\":6942:6949   */\n      dup6\n        /* \"#utility.yul\":6933:6939   */\n      dup3\n        /* \"#utility.yul\":6922:6931   */\n      dup7\n        /* \"#utility.yul\":6918:6940   */\n      add\n        /* \"#utility.yul\":6897:6950   */\n      tag_143\n      jump\t// in\n    tag_275:\n        /* \"#utility.yul\":6887:6950   */\n      swap2\n      pop\n        /* \"#utility.yul\":6842:6960   */\n      pop\n        /* \"#utility.yul\":6271:6967   */\n      swap3\n      pop\n      swap3\n      swap1\n      pop\n      jump\t// out\n        /* \"#utility.yul\":6973:7091   */\n    tag_150:\n        /* \"#utility.yul\":7060:7084   */\n      tag_277\n        /* \"#utility.yul\":7078:7083   */\n      dup2\n        /* \"#utility.yul\":7060:7084   */\n      tag_135\n      jump\t// in\n    tag_277:\n        /* \"#utility.yul\":7055:7058   */\n      dup3\n        /* \"#utility.yul\":7048:7085   */\n      mstore\n        /* \"#utility.yul\":6973:7091   */\n      pop\n      pop\n      jump\t// out\n        /* \"#utility.yul\":7097:7319   */\n    tag_13:\n        /* \"#utility.yul\":7190:7194   */\n      0x00\n        /* \"#utility.yul\":7228:7230   */\n      0x20\n        /* \"#utility.yul\":7217:7226   */\n      dup3\n        /* \"#utility.yul\":7213:7231   */\n      add\n        /* \"#utility.yul\":7205:7231   */\n      swap1\n      pop\n        /* \"#utility.yul\":7241:7312   */\n      tag_279\n        /* \"#utility.yul\":7309:7310   */\n      0x00\n        /* \"#utility.yul\":7298:7307   */\n      dup4\n        /* \"#utility.yul\":7294:7311   */\n      add\n        /* \"#utility.yul\":7285:7291   */\n      dup5\n        /* \"#utility.yul\":7241:7312   */\n      tag_150\n      jump\t// in\n    tag_279:\n        /* \"#utility.yul\":7097:7319   */\n      swap3\n      swap2\n      pop\n      pop\n      jump\t// out\n        /* \"#utility.yul\":7325:7505   */\n    tag_21:\n        /* \"#utility.yul\":7373:7450   */\n      0x4e487b7100000000000000000000000000000000000000000000000000000000\n        /* \"#utility.yul\":7370:7371   */\n      0x00\n        /* \"#utility.yul\":7363:7451   */\n      mstore\n        /* \"#utility.yul\":7470:7474   */\n      0x32\n        /* \"#utility.yul\":7467:7468   */\n      0x04\n        /* \"#utility.yul\":7460:7475   */\n      mstore\n        /* \"#utility.yul\":7494:7498   */\n      0x24\n        /* \"#utility.yul\":7491:7492   */\n      0x00\n        /* \"#utility.yul\":7484:7499   */\n      revert\n        /* \"#utility.yul\":7511:7629   */\n    tag_151:\n        /* \"#utility.yul\":7598:7622   */\n      tag_282\n        /* \"#utility.yul\":7616:7621   */\n      dup2\n        /* \"#utility.yul\":7598:7622   */\n      tag_141\n      jump\t// in\n    tag_282:\n        /* \"#utility.yul\":7593:7596   */\n      dup3\n        /* \"#utility.yul\":7586:7623   */\n      mstore\n        /* \"#utility.yul\":7511:7629   */\n      pop\n      pop\n      jump\t// out\n        /* \"#utility.yul\":7635:8077   */\n    tag_31:\n        /* \"#utility.yul\":7784:7788   */\n      0x00\n        /* \"#utility.yul\":7822:7824   */\n      0x60\n        /* \"#utility.yul\":7811:7820   */\n      dup3\n        /* \"#utility.yul\":7807:7825   */\n      add\n        /* \"#utility.yul\":7799:7825   */\n      swap1\n      pop\n        /* \"#utility.yul\":7835:7906   */\n      tag_284\n        /* \"#utility.yul\":7903:7904   */\n      0x00\n        /* \"#utility.yul\":7892:7901   */\n      dup4\n        /* \"#utility.yul\":7888:7905   */\n      add\n        /* \"#utility.yul\":7879:7885   */\n      dup7\n        /* \"#utility.yul\":7835:7906   */\n      tag_150\n      jump\t// in\n    tag_284:\n        /* \"#utility.yul\":7916:7988   */\n      tag_285\n        /* \"#utility.yul\":7984:7986   */\n      0x20\n        /* \"#utility.yul\":7973:7982   */\n      dup4\n        /* \"#utility.yul\":7969:7987   */\n      add\n        /* \"#utility.yul\":7960:7966   */\n      dup6\n        /* \"#utility.yul\":7916:7988   */\n      tag_150\n      jump\t// in\n    tag_285:\n        /* \"#utility.yul\":7998:8070   */\n      tag_286\n        /* \"#utility.yul\":8066:8068   */\n      0x40\n        /* \"#utility.yul\":8055:8064   */\n      dup4\n        /* \"#utility.yul\":8051:8069   */\n      add\n        /* \"#utility.yul\":8042:8048   */\n      dup5\n        /* \"#utility.yul\":7998:8070   */\n      tag_151\n      jump\t// in\n    tag_286:\n        /* \"#utility.yul\":7635:8077   */\n      swap5\n      swap4\n      pop\n      pop\n      pop\n      pop\n      jump\t// out\n        /* \"#utility.yul\":8083:8169   */\n    tag_152:\n        /* \"#utility.yul\":8118:8125   */\n      0x00\n        /* \"#utility.yul\":8158:8162   */\n      0xff\n        /* \"#utility.yul\":8151:8156   */\n      dup3\n        /* \"#utility.yul\":8147:8163   */\n      and\n        /* \"#utility.yul\":8136:8163   */\n      swap1\n      pop\n        /* \"#utility.yul\":8083:8169   */\n      swap2\n      swap1\n      pop\n      jump\t// out\n        /* \"#utility.yul\":8175:8287   */\n    tag_153:\n        /* \"#utility.yul\":8258:8280   */\n      tag_289\n        /* \"#utility.yul\":8274:8279   */\n      dup2\n        /* \"#utility.yul\":8258:8280   */\n      tag_152\n      jump\t// in\n    tag_289:\n        /* \"#utility.yul\":8253:8256   */\n      dup3\n        /* \"#utility.yul\":8246:8281   */\n      mstore\n        /* \"#utility.yul\":8175:8287   */\n      pop\n      pop\n      jump\t// out\n        /* \"#utility.yul\":8293:8407   */\n    tag_154:\n        /* \"#utility.yul\":8360:8366   */\n      0x00\n        /* \"#utility.yul\":8394:8399   */\n      dup2\n        /* \"#utility.yul\":8388:8400   */\n      mload\n        /* \"#utility.yul\":8378:8400   */\n      swap1\n      pop\n        /* \"#utility.yul\":8293:8407   */\n      swap2\n      swap1\n      pop\n      jump\t// out\n        /* \"#utility.yul\":8413:8597   */\n    tag_155:\n        /* \"#utility.yul\":8512:8523   */\n      0x00\n        /* \"#utility.yul\":8546:8552   */\n      dup3\n        /* \"#utility.yul\":8541:8544   */\n      dup3\n        /* \"#utility.yul\":8534:8553   */\n      mstore\n        /* \"#utility.yul\":8586:8590   */\n      0x20\n        /* \"#utility.yul\":8581:8584   */\n      dup3\n        /* \"#utility.yul\":8577:8591   */\n      add\n        /* \"#utility.yul\":8562:8591   */\n      swap1\n      pop\n        /* \"#utility.yul\":8413:8597   */\n      swap3\n      swap2\n      pop\n      pop\n      jump\t// out\n        /* \"#utility.yul\":8603:8735   */\n    tag_156:\n        /* \"#utility.yul\":8670:8674   */\n      0x00\n        /* \"#utility.yul\":8693:8696   */\n      dup2\n        /* \"#utility.yul\":8685:8696   */\n      swap1\n      pop\n        /* \"#utility.yul\":8723:8727   */\n      0x20\n        /* \"#utility.yul\":8718:8721   */\n      dup3\n        /* \"#utility.yul\":8714:8728   */\n      add\n        /* \"#utility.yul\":8706:8728   */\n      swap1\n      pop\n        /* \"#utility.yul\":8603:8735   */\n      swap2\n      swap1\n      pop\n      jump\t// out\n        /* \"#utility.yul\":8741:8849   */\n    tag_157:\n        /* \"#utility.yul\":8818:8842   */\n      tag_294\n        /* \"#utility.yul\":8836:8841   */\n      dup2\n        /* \"#utility.yul\":8818:8842   */\n      tag_141\n      jump\t// in\n    tag_294:\n        /* \"#utility.yul\":8813:8816   */\n      dup3\n        /* \"#utility.yul\":8806:8843   */\n      mstore\n        /* \"#utility.yul\":8741:8849   */\n      pop\n      pop\n      jump\t// out\n        /* \"#utility.yul\":8855:9034   */\n    tag_158:\n        /* \"#utility.yul\":8924:8934   */\n      0x00\n        /* \"#utility.yul\":8945:8991   */\n      tag_296\n        /* \"#utility.yul\":8987:8990   */\n      dup4\n        /* \"#utility.yul\":8979:8985   */\n      dup4\n        /* \"#utility.yul\":8945:8991   */\n      tag_157\n      jump\t// in\n    tag_296:\n        /* \"#utility.yul\":9023:9027   */\n      0x20\n        /* \"#utility.yul\":9018:9021   */\n      dup4\n        /* \"#utility.yul\":9014:9028   */\n      add\n        /* \"#utility.yul\":9000:9028   */\n      swap1\n      pop\n        /* \"#utility.yul\":8855:9034   */\n      swap3\n      swap2\n      pop\n      pop\n      jump\t// out\n        /* \"#utility.yul\":9040:9153   */\n    tag_159:\n        /* \"#utility.yul\":9110:9114   */\n      0x00\n        /* \"#utility.yul\":9142:9146   */\n      0x20\n        /* \"#utility.yul\":9137:9140   */\n      dup3\n        /* \"#utility.yul\":9133:9147   */\n      add\n        /* \"#utility.yul\":9125:9147   */\n      swap1\n      pop\n        /* \"#utility.yul\":9040:9153   */\n      swap2\n      swap1\n      pop\n      jump\t// out\n        /* \"#utility.yul\":9189:9921   */\n    tag_160:\n        /* \"#utility.yul\":9308:9311   */\n      0x00\n        /* \"#utility.yul\":9337:9391   */\n      tag_299\n        /* \"#utility.yul\":9385:9390   */\n      dup3\n        /* \"#utility.yul\":9337:9391   */\n      tag_154\n      jump\t// in\n    tag_299:\n        /* \"#utility.yul\":9407:9493   */\n      tag_300\n        /* \"#utility.yul\":9486:9492   */\n      dup2\n        /* \"#utility.yul\":9481:9484   */\n      dup6\n        /* \"#utility.yul\":9407:9493   */\n      tag_155\n      jump\t// in\n    tag_300:\n        /* \"#utility.yul\":9400:9493   */\n      swap4\n      pop\n        /* \"#utility.yul\":9517:9573   */\n      tag_301\n        /* \"#utility.yul\":9567:9572   */\n      dup4\n        /* \"#utility.yul\":9517:9573   */\n      tag_156\n      jump\t// in\n    tag_301:\n        /* \"#utility.yul\":9596:9603   */\n      dup1\n        /* \"#utility.yul\":9627:9628   */\n      0x00\n        /* \"#utility.yul\":9612:9896   */\n    tag_302:\n        /* \"#utility.yul\":9637:9643   */\n      dup4\n        /* \"#utility.yul\":9634:9635   */\n      dup2\n        /* \"#utility.yul\":9631:9644   */\n      lt\n        /* \"#utility.yul\":9612:9896   */\n      iszero\n      tag_304\n      jumpi\n        /* \"#utility.yul\":9713:9719   */\n      dup2\n        /* \"#utility.yul\":9707:9720   */\n      mload\n        /* \"#utility.yul\":9740:9803   */\n      tag_305\n        /* \"#utility.yul\":9799:9802   */\n      dup9\n        /* \"#utility.yul\":9784:9797   */\n      dup3\n        /* \"#utility.yul\":9740:9803   */\n      tag_158\n      jump\t// in\n    tag_305:\n        /* \"#utility.yul\":9733:9803   */\n      swap8\n      pop\n        /* \"#utility.yul\":9826:9886   */\n      tag_306\n        /* \"#utility.yul\":9879:9885   */\n      dup4\n        /* \"#utility.yul\":9826:9886   */\n      tag_159\n      jump\t// in\n    tag_306:\n        /* \"#utility.yul\":9816:9886   */\n      swap3\n      pop\n        /* \"#utility.yul\":9672:9896   */\n      pop\n        /* \"#utility.yul\":9659:9660   */\n      0x01\n        /* \"#utility.yul\":9656:9657   */\n      dup2\n        /* \"#utility.yul\":9652:9661   */\n      add\n        /* \"#utility.yul\":9647:9661   */\n      swap1\n      pop\n        /* \"#utility.yul\":9612:9896   */\n      jump(tag_302)\n    tag_304:\n        /* \"#utility.yul\":9616:9630   */\n      pop\n        /* \"#utility.yul\":9912:9915   */\n      dup6\n        /* \"#utility.yul\":9905:9915   */\n      swap4\n      pop\n        /* \"#utility.yul\":9313:9921   */\n      pop\n      pop\n      pop\n        /* \"#utility.yul\":9189:9921   */\n      swap3\n      swap2\n      pop\n      pop\n      jump\t// out\n        /* \"#utility.yul\":9927:10512   */\n    tag_41:\n        /* \"#utility.yul\":10122:10126   */\n      0x00\n        /* \"#utility.yul\":10160:10162   */\n      0x60\n        /* \"#utility.yul\":10149:10158   */\n      dup3\n        /* \"#utility.yul\":10145:10163   */\n      add\n        /* \"#utility.yul\":10137:10163   */\n      swap1\n      pop\n        /* \"#utility.yul\":10173:10240   */\n      tag_308\n        /* \"#utility.yul\":10237:10238   */\n      0x00\n        /* \"#utility.yul\":10226:10235   */\n      dup4\n        /* \"#utility.yul\":10222:10239   */\n      add\n        /* \"#utility.yul\":10213:10219   */\n      dup7\n        /* \"#utility.yul\":10173:10240   */\n      tag_153\n      jump\t// in\n    tag_308:\n        /* \"#utility.yul\":10287:10296   */\n      dup2\n        /* \"#utility.yul\":10281:10285   */\n      dup2\n        /* \"#utility.yul\":10277:10297   */\n      sub\n        /* \"#utility.yul\":10272:10274   */\n      0x20\n        /* \"#utility.yul\":10261:10270   */\n      dup4\n        /* \"#utility.yul\":10257:10275   */\n      add\n        /* \"#utility.yul\":10250:10298   */\n      mstore\n        /* \"#utility.yul\":10315:10423   */\n      tag_309\n        /* \"#utility.yul\":10418:10422   */\n      dup2\n        /* \"#utility.yul\":10409:10415   */\n      dup6\n        /* \"#utility.yul\":10315:10423   */\n      tag_160\n      jump\t// in\n    tag_309:\n        /* \"#utility.yul\":10307:10423   */\n      swap1\n      pop\n        /* \"#utility.yul\":10433:10505   */\n      tag_310\n        /* \"#utility.yul\":10501:10503   */\n      0x40\n        /* \"#utility.yul\":10490:10499   */\n      dup4\n        /* \"#utility.yul\":10486:10504   */\n      add\n        /* \"#utility.yul\":10477:10483   */\n      dup5\n        /* \"#utility.yul\":10433:10505   */\n      tag_151\n      jump\t// in\n    tag_310:\n        /* \"#utility.yul\":9927:10512   */\n      swap5\n      swap4\n      pop\n      pop\n      pop\n      pop\n      jump\t// out\n        /* \"#utility.yul\":10518:10636   */\n    tag_161:\n        /* \"#utility.yul\":10605:10629   */\n      tag_312\n        /* \"#utility.yul\":10623:10628   */\n      dup2\n        /* \"#utility.yul\":10605:10629   */\n      tag_144\n      jump\t// in\n    tag_312:\n        /* \"#utility.yul\":10600:10603   */\n      dup3\n        /* \"#utility.yul\":10593:10630   */\n      mstore\n        /* \"#utility.yul\":10518:10636   */\n      pop\n      pop\n      jump\t// out\n        /* \"#utility.yul\":10642:10771   */\n    tag_162:\n        /* \"#utility.yul\":10724:10730   */\n      0x00\n        /* \"#utility.yul\":10758:10763   */\n      dup2\n        /* \"#utility.yul\":10752:10764   */\n      mload\n        /* \"#utility.yul\":10742:10764   */\n      swap1\n      pop\n        /* \"#utility.yul\":10642:10771   */\n      swap2\n      swap1\n      pop\n      jump\t// out\n        /* \"#utility.yul\":10777:10951   */\n    tag_163:\n        /* \"#utility.yul\":10866:10877   */\n      0x00\n        /* \"#utility.yul\":10900:10906   */\n      dup3\n        /* \"#utility.yul\":10895:10898   */\n      dup3\n        /* \"#utility.yul\":10888:10907   */\n      mstore\n        /* \"#utility.yul\":10940:10944   */\n      0x20\n        /* \"#utility.yul\":10935:10938   */\n      dup3\n        /* \"#utility.yul\":10931:10945   */\n      add\n        /* \"#utility.yul\":10916:10945   */\n      swap1\n      pop\n        /* \"#utility.yul\":10777:10951   */\n      swap3\n      swap2\n      pop\n      pop\n      jump\t// out\n        /* \"#utility.yul\":10957:11104   */\n    tag_164:\n        /* \"#utility.yul\":11039:11043   */\n      0x00\n        /* \"#utility.yul\":11062:11065   */\n      dup2\n        /* \"#utility.yul\":11054:11065   */\n      swap1\n      pop\n        /* \"#utility.yul\":11092:11096   */\n      0x20\n        /* \"#utility.yul\":11087:11090   */\n      dup3\n        /* \"#utility.yul\":11083:11097   */\n      add\n        /* \"#utility.yul\":11075:11097   */\n      swap1\n      pop\n        /* \"#utility.yul\":10957:11104   */\n      swap2\n      swap1\n      pop\n      jump\t// out\n        /* \"#utility.yul\":11110:11170   */\n    tag_165:\n        /* \"#utility.yul\":11138:11141   */\n      0x00\n        /* \"#utility.yul\":11159:11164   */\n      dup2\n        /* \"#utility.yul\":11152:11164   */\n      swap1\n      pop\n        /* \"#utility.yul\":11110:11170   */\n      swap2\n      swap1\n      pop\n      jump\t// out\n        /* \"#utility.yul\":11176:11318   */\n    tag_166:\n        /* \"#utility.yul\":11226:11235   */\n      0x00\n        /* \"#utility.yul\":11259:11312   */\n      tag_318\n        /* \"#utility.yul\":11277:11311   */\n      tag_319\n        /* \"#utility.yul\":11286:11310   */\n      tag_320\n        /* \"#utility.yul\":11304:11309   */\n      dup5\n        /* \"#utility.yul\":11286:11310   */\n      tag_134\n      jump\t// in\n    tag_320:\n        /* \"#utility.yul\":11277:11311   */\n      tag_165\n      jump\t// in\n    tag_319:\n        /* \"#utility.yul\":11259:11312   */\n      tag_134\n      jump\t// in\n    tag_318:\n        /* \"#utility.yul\":11246:11312   */\n      swap1\n      pop\n        /* \"#utility.yul\":11176:11318   */\n      swap2\n      swap1\n      pop\n      jump\t// out\n        /* \"#utility.yul\":11324:11450   */\n    tag_167:\n        /* \"#utility.yul\":11374:11383   */\n      0x00\n        /* \"#utility.yul\":11407:11444   */\n      tag_322\n        /* \"#utility.yul\":11438:11443   */\n      dup3\n        /* \"#utility.yul\":11407:11444   */\n      tag_166\n      jump\t// in\n    tag_322:\n        /* \"#utility.yul\":11394:11444   */\n      swap1\n      pop\n        /* \"#utility.yul\":11324:11450   */\n      swap2\n      swap1\n      pop\n      jump\t// out\n        /* \"#utility.yul\":11456:11597   */\n    tag_168:\n        /* \"#utility.yul\":11521:11530   */\n      0x00\n        /* \"#utility.yul\":11554:11591   */\n      tag_324\n        /* \"#utility.yul\":11585:11590   */\n      dup3\n        /* \"#utility.yul\":11554:11591   */\n      tag_167\n      jump\t// in\n    tag_324:\n        /* \"#utility.yul\":11541:11591   */\n      swap1\n      pop\n        /* \"#utility.yul\":11456:11597   */\n      swap2\n      swap1\n      pop\n      jump\t// out\n        /* \"#utility.yul\":11603:11754   */\n    tag_169:\n        /* \"#utility.yul\":11695:11747   */\n      tag_326\n        /* \"#utility.yul\":11741:11746   */\n      dup2\n        /* \"#utility.yul\":11695:11747   */\n      tag_168\n      jump\t// in\n    tag_326:\n        /* \"#utility.yul\":11690:11693   */\n      dup3\n        /* \"#utility.yul\":11683:11748   */\n      mstore\n        /* \"#utility.yul\":11603:11754   */\n      pop\n      pop\n      jump\t// out\n        /* \"#utility.yul\":11760:11969   */\n    tag_170:\n        /* \"#utility.yul\":11844:11854   */\n      0x00\n        /* \"#utility.yul\":11865:11926   */\n      tag_328\n        /* \"#utility.yul\":11922:11925   */\n      dup4\n        /* \"#utility.yul\":11914:11920   */\n      dup4\n        /* \"#utility.yul\":11865:11926   */\n      tag_169\n      jump\t// in\n    tag_328:\n        /* \"#utility.yul\":11958:11962   */\n      0x20\n        /* \"#utility.yul\":11953:11956   */\n      dup4\n        /* \"#utility.yul\":11949:11963   */\n      add\n        /* \"#utility.yul\":11935:11963   */\n      swap1\n      pop\n        /* \"#utility.yul\":11760:11969   */\n      swap3\n      swap2\n      pop\n      pop\n      jump\t// out\n        /* \"#utility.yul\":11975:12103   */\n    tag_171:\n        /* \"#utility.yul\":12060:12064   */\n      0x00\n        /* \"#utility.yul\":12092:12096   */\n      0x20\n        /* \"#utility.yul\":12087:12090   */\n      dup3\n        /* \"#utility.yul\":12083:12097   */\n      add\n        /* \"#utility.yul\":12075:12097   */\n      swap1\n      pop\n        /* \"#utility.yul\":11975:12103   */\n      swap2\n      swap1\n      pop\n      jump\t// out\n        /* \"#utility.yul\":12147:12934   */\n    tag_172:\n        /* \"#utility.yul\":12271:12274   */\n      0x00\n        /* \"#utility.yul\":12300:12369   */\n      tag_331\n        /* \"#utility.yul\":12363:12368   */\n      dup3\n        /* \"#utility.yul\":12300:12369   */\n      tag_162\n      jump\t// in\n    tag_331:\n        /* \"#utility.yul\":12385:12461   */\n      tag_332\n        /* \"#utility.yul\":12454:12460   */\n      dup2\n        /* \"#utility.yul\":12449:12452   */\n      dup6\n        /* \"#utility.yul\":12385:12461   */\n      tag_163\n      jump\t// in\n    tag_332:\n        /* \"#utility.yul\":12378:12461   */\n      swap4\n      pop\n        /* \"#utility.yul\":12485:12556   */\n      tag_333\n        /* \"#utility.yul\":12550:12555   */\n      dup4\n        /* \"#utility.yul\":12485:12556   */\n      tag_164\n      jump\t// in\n    tag_333:\n        /* \"#utility.yul\":12579:12586   */\n      dup1\n        /* \"#utility.yul\":12610:12611   */\n      0x00\n        /* \"#utility.yul\":12595:12909   */\n    tag_334:\n        /* \"#utility.yul\":12620:12626   */\n      dup4\n        /* \"#utility.yul\":12617:12618   */\n      dup2\n        /* \"#utility.yul\":12614:12627   */\n      lt\n        /* \"#utility.yul\":12595:12909   */\n      iszero\n      tag_336\n      jumpi\n        /* \"#utility.yul\":12696:12702   */\n      dup2\n        /* \"#utility.yul\":12690:12703   */\n      mload\n        /* \"#utility.yul\":12723:12801   */\n      tag_337\n        /* \"#utility.yul\":12797:12800   */\n      dup9\n        /* \"#utility.yul\":12782:12795   */\n      dup3\n        /* \"#utility.yul\":12723:12801   */\n      tag_170\n      jump\t// in\n    tag_337:\n        /* \"#utility.yul\":12716:12801   */\n      swap8\n      pop\n        /* \"#utility.yul\":12824:12899   */\n      tag_338\n        /* \"#utility.yul\":12892:12898   */\n      dup4\n        /* \"#utility.yul\":12824:12899   */\n      tag_171\n      jump\t// in\n    tag_338:\n        /* \"#utility.yul\":12814:12899   */\n      swap3\n      pop\n        /* \"#utility.yul\":12655:12909   */\n      pop\n        /* \"#utility.yul\":12642:12643   */\n      0x01\n        /* \"#utility.yul\":12639:12640   */\n      dup2\n        /* \"#utility.yul\":12635:12644   */\n      add\n        /* \"#utility.yul\":12630:12644   */\n      swap1\n      pop\n        /* \"#utility.yul\":12595:12909   */\n      jump(tag_334)\n    tag_336:\n        /* \"#utility.yul\":12599:12613   */\n      pop\n        /* \"#utility.yul\":12925:12928   */\n      dup6\n        /* \"#utility.yul\":12918:12928   */\n      swap4\n      pop\n        /* \"#utility.yul\":12276:12934   */\n      pop\n      pop\n      pop\n        /* \"#utility.yul\":12147:12934   */\n      swap3\n      swap2\n      pop\n      pop\n      jump\t// out\n        /* \"#utility.yul\":12940:13114   */\n    tag_173:\n        /* \"#utility.yul\":13029:13040   */\n      0x00\n        /* \"#utility.yul\":13063:13069   */\n      dup3\n        /* \"#utility.yul\":13058:13061   */\n      dup3\n        /* \"#utility.yul\":13051:13070   */\n      mstore\n        /* \"#utility.yul\":13103:13107   */\n      0x20\n        /* \"#utility.yul\":13098:13101   */\n      dup3\n        /* \"#utility.yul\":13094:13108   */\n      add\n        /* \"#utility.yul\":13079:13108   */\n      swap1\n      pop\n        /* \"#utility.yul\":12940:13114   */\n      swap3\n      swap2\n      pop\n      pop\n      jump\t// out\n        /* \"#utility.yul\":13150:13862   */\n    tag_174:\n        /* \"#utility.yul\":13259:13262   */\n      0x00\n        /* \"#utility.yul\":13288:13342   */\n      tag_341\n        /* \"#utility.yul\":13336:13341   */\n      dup3\n        /* \"#utility.yul\":13288:13342   */\n      tag_154\n      jump\t// in\n    tag_341:\n        /* \"#utility.yul\":13358:13434   */\n      tag_342\n        /* \"#utility.yul\":13427:13433   */\n      dup2\n        /* \"#utility.yul\":13422:13425   */\n      dup6\n        /* \"#utility.yul\":13358:13434   */\n      tag_173\n      jump\t// in\n    tag_342:\n        /* \"#utility.yul\":13351:13434   */\n      swap4\n      pop\n        /* \"#utility.yul\":13458:13514   */\n      tag_343\n        /* \"#utility.yul\":13508:13513   */\n      dup4\n        /* \"#utility.yul\":13458:13514   */\n      tag_156\n      jump\t// in\n    tag_343:\n        /* \"#utility.yul\":13537:13544   */\n      dup1\n        /* \"#utility.yul\":13568:13569   */\n      0x00\n        /* \"#utility.yul\":13553:13837   */\n    tag_344:\n        /* \"#utility.yul\":13578:13584   */\n      dup4\n        /* \"#utility.yul\":13575:13576   */\n      dup2\n        /* \"#utility.yul\":13572:13585   */\n      lt\n        /* \"#utility.yul\":13553:13837   */\n      iszero\n      tag_346\n      jumpi\n        /* \"#utility.yul\":13654:13660   */\n      dup2\n        /* \"#utility.yul\":13648:13661   */\n      mload\n        /* \"#utility.yul\":13681:13744   */\n      tag_347\n        /* \"#utility.yul\":13740:13743   */\n      dup9\n        /* \"#utility.yul\":13725:13738   */\n      dup3\n        /* \"#utility.yul\":13681:13744   */\n      tag_158\n      jump\t// in\n    tag_347:\n        /* \"#utility.yul\":13674:13744   */\n      swap8\n      pop\n        /* \"#utility.yul\":13767:13827   */\n      tag_348\n        /* \"#utility.yul\":13820:13826   */\n      dup4\n        /* \"#utility.yul\":13767:13827   */\n      tag_159\n      jump\t// in\n    tag_348:\n        /* \"#utility.yul\":13757:13827   */\n      swap3\n      pop\n        /* \"#utility.yul\":13613:13837   */\n      pop\n        /* \"#utility.yul\":13600:13601   */\n      0x01\n        /* \"#utility.yul\":13597:13598   */\n      dup2\n        /* \"#utility.yul\":13593:13602   */\n      add\n        /* \"#utility.yul\":13588:13602   */\n      swap1\n      pop\n        /* \"#utility.yul\":13553:13837   */\n      jump(tag_344)\n    tag_346:\n        /* \"#utility.yul\":13557:13571   */\n      pop\n        /* \"#utility.yul\":13853:13856   */\n      dup6\n        /* \"#utility.yul\":13846:13856   */\n      swap4\n      pop\n        /* \"#utility.yul\":13264:13862   */\n      pop\n      pop\n      pop\n        /* \"#utility.yul\":13150:13862   */\n      swap3\n      swap2\n      pop\n      pop\n      jump\t// out\n        /* \"#utility.yul\":13868:13966   */\n    tag_175:\n        /* \"#utility.yul\":13919:13925   */\n      0x00\n        /* \"#utility.yul\":13953:13958   */\n      dup2\n        /* \"#utility.yul\":13947:13959   */\n      mload\n        /* \"#utility.yul\":13937:13959   */\n      swap1\n      pop\n        /* \"#utility.yul\":13868:13966   */\n      swap2\n      swap1\n      pop\n      jump\t// out\n        /* \"#utility.yul\":13972:14130   */\n    tag_176:\n        /* \"#utility.yul\":14045:14056   */\n      0x00\n        /* \"#utility.yul\":14079:14085   */\n      dup3\n        /* \"#utility.yul\":14074:14077   */\n      dup3\n        /* \"#utility.yul\":14067:14086   */\n      mstore\n        /* \"#utility.yul\":14119:14123   */\n      0x20\n        /* \"#utility.yul\":14114:14117   */\n      dup3\n        /* \"#utility.yul\":14110:14124   */\n      add\n        /* \"#utility.yul\":14095:14124   */\n      swap1\n      pop\n        /* \"#utility.yul\":13972:14130   */\n      swap3\n      swap2\n      pop\n      pop\n      jump\t// out\n        /* \"#utility.yul\":14136:14443   */\n    tag_177:\n        /* \"#utility.yul\":14204:14205   */\n      0x00\n        /* \"#utility.yul\":14214:14327   */\n    tag_352:\n        /* \"#utility.yul\":14228:14234   */\n      dup4\n        /* \"#utility.yul\":14225:14226   */\n      dup2\n        /* \"#utility.yul\":14222:14235   */\n      lt\n        /* \"#utility.yul\":14214:14327   */\n      iszero\n      tag_354\n      jumpi\n        /* \"#utility.yul\":14313:14314   */\n      dup1\n        /* \"#utility.yul\":14308:14311   */\n      dup3\n        /* \"#utility.yul\":14304:14315   */\n      add\n        /* \"#utility.yul\":14298:14316   */\n      mload\n        /* \"#utility.yul\":14294:14295   */\n      dup2\n        /* \"#utility.yul\":14289:14292   */\n      dup5\n        /* \"#utility.yul\":14285:14296   */\n      add\n        /* \"#utility.yul\":14278:14317   */\n      mstore\n        /* \"#utility.yul\":14250:14252   */\n      0x20\n        /* \"#utility.yul\":14247:14248   */\n      dup2\n        /* \"#utility.yul\":14243:14253   */\n      add\n        /* \"#utility.yul\":14238:14253   */\n      swap1\n      pop\n        /* \"#utility.yul\":14214:14327   */\n      jump(tag_352)\n    tag_354:\n        /* \"#utility.yul\":14345:14351   */\n      dup4\n        /* \"#utility.yul\":14342:14343   */\n      dup2\n        /* \"#utility.yul\":14339:14352   */\n      gt\n        /* \"#utility.yul\":14336:14437   */\n      iszero\n      tag_355\n      jumpi\n        /* \"#utility.yul\":14425:14426   */\n      0x00\n        /* \"#utility.yul\":14416:14422   */\n      dup5\n        /* \"#utility.yul\":14411:14414   */\n      dup5\n        /* \"#utility.yul\":14407:14423   */\n      add\n        /* \"#utility.yul\":14400:14427   */\n      mstore\n        /* \"#utility.yul\":14336:14437   */\n    tag_355:\n        /* \"#utility.yul\":14185:14443   */\n      pop\n        /* \"#utility.yul\":14136:14443   */\n      pop\n      pop\n      pop\n      jump\t// out\n        /* \"#utility.yul\":14449:14789   */\n    tag_178:\n        /* \"#utility.yul\":14525:14528   */\n      0x00\n        /* \"#utility.yul\":14553:14591   */\n      tag_357\n        /* \"#utility.yul\":14585:14590   */\n      dup3\n        /* \"#utility.yul\":14553:14591   */\n      tag_175\n      jump\t// in\n    tag_357:\n        /* \"#utility.yul\":14607:14667   */\n      tag_358\n        /* \"#utility.yul\":14660:14666   */\n      dup2\n        /* \"#utility.yul\":14655:14658   */\n      dup6\n        /* \"#utility.yul\":14607:14667   */\n      tag_176\n      jump\t// in\n    tag_358:\n        /* \"#utility.yul\":14600:14667   */\n      swap4\n      pop\n        /* \"#utility.yul\":14676:14728   */\n      tag_359\n        /* \"#utility.yul\":14721:14727   */\n      dup2\n        /* \"#utility.yul\":14716:14719   */\n      dup6\n        /* \"#utility.yul\":14709:14713   */\n      0x20\n        /* \"#utility.yul\":14702:14707   */\n      dup7\n        /* \"#utility.yul\":14698:14714   */\n      add\n        /* \"#utility.yul\":14676:14728   */\n      tag_177\n      jump\t// in\n    tag_359:\n        /* \"#utility.yul\":14753:14782   */\n      tag_360\n        /* \"#utility.yul\":14775:14781   */\n      dup2\n        /* \"#utility.yul\":14753:14782   */\n      tag_127\n      jump\t// in\n    tag_360:\n        /* \"#utility.yul\":14748:14751   */\n      dup5\n        /* \"#utility.yul\":14744:14783   */\n      add\n        /* \"#utility.yul\":14737:14783   */\n      swap2\n      pop\n        /* \"#utility.yul\":14529:14789   */\n      pop\n        /* \"#utility.yul\":14449:14789   */\n      swap3\n      swap2\n      pop\n      pop\n      jump\t// out\n        /* \"#utility.yul\":14795:14885   */\n    tag_179:\n        /* \"#utility.yul\":14829:14836   */\n      0x00\n        /* \"#utility.yul\":14872:14877   */\n      dup2\n        /* \"#utility.yul\":14865:14878   */\n      iszero\n        /* \"#utility.yul\":14858:14879   */\n      iszero\n        /* \"#utility.yul\":14847:14879   */\n      swap1\n      pop\n        /* \"#utility.yul\":14795:14885   */\n      swap2\n      swap1\n      pop\n      jump\t// out\n        /* \"#utility.yul\":14891:14990   */\n    tag_180:\n        /* \"#utility.yul\":14962:14983   */\n      tag_363\n        /* \"#utility.yul\":14977:14982   */\n      dup2\n        /* \"#utility.yul\":14962:14983   */\n      tag_179\n      jump\t// in\n    tag_363:\n        /* \"#utility.yul\":14957:14960   */\n      dup3\n        /* \"#utility.yul\":14950:14984   */\n      mstore\n        /* \"#utility.yul\":14891:14990   */\n      pop\n      pop\n      jump\t// out\n        /* \"#utility.yul\":15074:16282   */\n    tag_181:\n        /* \"#utility.yul\":15209:15212   */\n      0x00\n        /* \"#utility.yul\":15245:15249   */\n      0x80\n        /* \"#utility.yul\":15240:15243   */\n      dup4\n        /* \"#utility.yul\":15236:15250   */\n      add\n        /* \"#utility.yul\":15334:15338   */\n      0x00\n        /* \"#utility.yul\":15327:15332   */\n      dup4\n        /* \"#utility.yul\":15323:15339   */\n      add\n        /* \"#utility.yul\":15317:15340   */\n      mload\n        /* \"#utility.yul\":15387:15390   */\n      dup5\n        /* \"#utility.yul\":15381:15385   */\n      dup3\n        /* \"#utility.yul\":15377:15391   */\n      sub\n        /* \"#utility.yul\":15370:15374   */\n      0x00\n        /* \"#utility.yul\":15365:15368   */\n      dup7\n        /* \"#utility.yul\":15361:15375   */\n      add\n        /* \"#utility.yul\":15354:15392   */\n      mstore\n        /* \"#utility.yul\":15413:15531   */\n      tag_365\n        /* \"#utility.yul\":15526:15530   */\n      dup3\n        /* \"#utility.yul\":15512:15524   */\n      dup3\n        /* \"#utility.yul\":15413:15531   */\n      tag_172\n      jump\t// in\n    tag_365:\n        /* \"#utility.yul\":15405:15531   */\n      swap2\n      pop\n        /* \"#utility.yul\":15260:15542   */\n      pop\n        /* \"#utility.yul\":15632:15636   */\n      0x20\n        /* \"#utility.yul\":15625:15630   */\n      dup4\n        /* \"#utility.yul\":15621:15637   */\n      add\n        /* \"#utility.yul\":15615:15638   */\n      mload\n        /* \"#utility.yul\":15685:15688   */\n      dup5\n        /* \"#utility.yul\":15679:15683   */\n      dup3\n        /* \"#utility.yul\":15675:15689   */\n      sub\n        /* \"#utility.yul\":15668:15672   */\n      0x20\n        /* \"#utility.yul\":15663:15666   */\n      dup7\n        /* \"#utility.yul\":15659:15673   */\n      add\n        /* \"#utility.yul\":15652:15690   */\n      mstore\n        /* \"#utility.yul\":15711:15814   */\n      tag_366\n        /* \"#utility.yul\":15809:15813   */\n      dup3\n        /* \"#utility.yul\":15795:15807   */\n      dup3\n        /* \"#utility.yul\":15711:15814   */\n      tag_174\n      jump\t// in\n    tag_366:\n        /* \"#utility.yul\":15703:15814   */\n      swap2\n      pop\n        /* \"#utility.yul\":15552:15825   */\n      pop\n        /* \"#utility.yul\":15911:15915   */\n      0x40\n        /* \"#utility.yul\":15904:15909   */\n      dup4\n        /* \"#utility.yul\":15900:15916   */\n      add\n        /* \"#utility.yul\":15894:15917   */\n      mload\n        /* \"#utility.yul\":15964:15967   */\n      dup5\n        /* \"#utility.yul\":15958:15962   */\n      dup3\n        /* \"#utility.yul\":15954:15968   */\n      sub\n        /* \"#utility.yul\":15947:15951   */\n      0x40\n        /* \"#utility.yul\":15942:15945   */\n      dup7\n        /* \"#utility.yul\":15938:15952   */\n      add\n        /* \"#utility.yul\":15931:15969   */\n      mstore\n        /* \"#utility.yul\":15990:16061   */\n      tag_367\n        /* \"#utility.yul\":16056:16060   */\n      dup3\n        /* \"#utility.yul\":16042:16054   */\n      dup3\n        /* \"#utility.yul\":15990:16061   */\n      tag_178\n      jump\t// in\n    tag_367:\n        /* \"#utility.yul\":15982:16061   */\n      swap2\n      pop\n        /* \"#utility.yul\":15835:16072   */\n      pop\n        /* \"#utility.yul\":16169:16173   */\n      0x60\n        /* \"#utility.yul\":16162:16167   */\n      dup4\n        /* \"#utility.yul\":16158:16174   */\n      add\n        /* \"#utility.yul\":16152:16175   */\n      mload\n        /* \"#utility.yul\":16188:16245   */\n      tag_368\n        /* \"#utility.yul\":16239:16243   */\n      0x60\n        /* \"#utility.yul\":16234:16237   */\n      dup7\n        /* \"#utility.yul\":16230:16244   */\n      add\n        /* \"#utility.yul\":16216:16228   */\n      dup3\n        /* \"#utility.yul\":16188:16245   */\n      tag_180\n      jump\t// in\n    tag_368:\n        /* \"#utility.yul\":16082:16255   */\n      pop\n        /* \"#utility.yul\":16272:16276   */\n      dup1\n        /* \"#utility.yul\":16265:16276   */\n      swap2\n      pop\n        /* \"#utility.yul\":15214:16282   */\n      pop\n        /* \"#utility.yul\":15074:16282   */\n      swap3\n      swap2\n      pop\n      pop\n      jump\t// out\n        /* \"#utility.yul\":16288:17024   */\n    tag_49:\n        /* \"#utility.yul\":16531:16535   */\n      0x00\n        /* \"#utility.yul\":16569:16572   */\n      0x80\n        /* \"#utility.yul\":16558:16567   */\n      dup3\n        /* \"#utility.yul\":16554:16573   */\n      add\n        /* \"#utility.yul\":16546:16573   */\n      swap1\n      pop\n        /* \"#utility.yul\":16583:16654   */\n      tag_370\n        /* \"#utility.yul\":16651:16652   */\n      0x00\n        /* \"#utility.yul\":16640:16649   */\n      dup4\n        /* \"#utility.yul\":16636:16653   */\n      add\n        /* \"#utility.yul\":16627:16633   */\n      dup8\n        /* \"#utility.yul\":16583:16654   */\n      tag_161\n      jump\t// in\n    tag_370:\n        /* \"#utility.yul\":16664:16736   */\n      tag_371\n        /* \"#utility.yul\":16732:16734   */\n      0x20\n        /* \"#utility.yul\":16721:16730   */\n      dup4\n        /* \"#utility.yul\":16717:16735   */\n      add\n        /* \"#utility.yul\":16708:16714   */\n      dup7\n        /* \"#utility.yul\":16664:16736   */\n      tag_150\n      jump\t// in\n    tag_371:\n        /* \"#utility.yul\":16746:16818   */\n      tag_372\n        /* \"#utility.yul\":16814:16816   */\n      0x40\n        /* \"#utility.yul\":16803:16812   */\n      dup4\n        /* \"#utility.yul\":16799:16817   */\n      add\n        /* \"#utility.yul\":16790:16796   */\n      dup6\n        /* \"#utility.yul\":16746:16818   */\n      tag_150\n      jump\t// in\n    tag_372:\n        /* \"#utility.yul\":16865:16874   */\n      dup2\n        /* \"#utility.yul\":16859:16863   */\n      dup2\n        /* \"#utility.yul\":16855:16875   */\n      sub\n        /* \"#utility.yul\":16850:16852   */\n      0x60\n        /* \"#utility.yul\":16839:16848   */\n      dup4\n        /* \"#utility.yul\":16835:16853   */\n      add\n        /* \"#utility.yul\":16828:16876   */\n      mstore\n        /* \"#utility.yul\":16893:17017   */\n      tag_373\n        /* \"#utility.yul\":17012:17016   */\n      dup2\n        /* \"#utility.yul\":17003:17009   */\n      dup5\n        /* \"#utility.yul\":16893:17017   */\n      tag_181\n      jump\t// in\n    tag_373:\n        /* \"#utility.yul\":16885:17017   */\n      swap1\n      pop\n        /* \"#utility.yul\":16288:17024   */\n      swap6\n      swap5\n      pop\n      pop\n      pop\n      pop\n      pop\n      jump\t// out\n        /* \"#utility.yul\":17030:17173   */\n    tag_182:\n        /* \"#utility.yul\":17087:17092   */\n      0x00\n        /* \"#utility.yul\":17118:17124   */\n      dup2\n        /* \"#utility.yul\":17112:17125   */\n      mload\n        /* \"#utility.yul\":17103:17125   */\n      swap1\n      pop\n        /* \"#utility.yul\":17134:17167   */\n      tag_375\n        /* \"#utility.yul\":17161:17166   */\n      dup2\n        /* \"#utility.yul\":17134:17167   */\n      tag_142\n      jump\t// in\n    tag_375:\n        /* \"#utility.yul\":17030:17173   */\n      swap3\n      swap2\n      pop\n      pop\n      jump\t// out\n        /* \"#utility.yul\":17179:17530   */\n    tag_64:\n        /* \"#utility.yul\":17249:17255   */\n      0x00\n        /* \"#utility.yul\":17298:17300   */\n      0x20\n        /* \"#utility.yul\":17286:17295   */\n      dup3\n        /* \"#utility.yul\":17277:17284   */\n      dup5\n        /* \"#utility.yul\":17273:17296   */\n      sub\n        /* \"#utility.yul\":17269:17301   */\n      slt\n        /* \"#utility.yul\":17266:17385   */\n      iszero\n      tag_377\n      jumpi\n        /* \"#utility.yul\":17304:17383   */\n      tag_378\n      tag_124\n      jump\t// in\n    tag_378:\n        /* \"#utility.yul\":17266:17385   */\n    tag_377:\n        /* \"#utility.yul\":17424:17425   */\n      0x00\n        /* \"#utility.yul\":17449:17513   */\n      tag_379\n        /* \"#utility.yul\":17505:17512   */\n      dup5\n        /* \"#utility.yul\":17496:17502   */\n      dup3\n        /* \"#utility.yul\":17485:17494   */\n      dup6\n        /* \"#utility.yul\":17481:17503   */\n      add\n        /* \"#utility.yul\":17449:17513   */\n      tag_182\n      jump\t// in\n    tag_379:\n        /* \"#utility.yul\":17439:17513   */\n      swap2\n      pop\n        /* \"#utility.yul\":17395:17523   */\n      pop\n        /* \"#utility.yul\":17179:17530   */\n      swap3\n      swap2\n      pop\n      pop\n      jump\t// out\n        /* \"#utility.yul\":17536:17652   */\n    tag_183:\n        /* \"#utility.yul\":17606:17627   */\n      tag_381\n        /* \"#utility.yul\":17621:17626   */\n      dup2\n        /* \"#utility.yul\":17606:17627   */\n      tag_179\n      jump\t// in\n    tag_381:\n        /* \"#utility.yul\":17599:17604   */\n      dup2\n        /* \"#utility.yul\":17596:17628   */\n      eq\n        /* \"#utility.yul\":17586:17646   */\n      tag_382\n      jumpi\n        /* \"#utility.yul\":17642:17643   */\n      0x00\n        /* \"#utility.yul\":17639:17640   */\n      dup1\n        /* \"#utility.yul\":17632:17644   */\n      revert\n        /* \"#utility.yul\":17586:17646   */\n    tag_382:\n        /* \"#utility.yul\":17536:17652   */\n      pop\n      jump\t// out\n        /* \"#utility.yul\":17658:17795   */\n    tag_184:\n        /* \"#utility.yul\":17712:17717   */\n      0x00\n        /* \"#utility.yul\":17743:17749   */\n      dup2\n        /* \"#utility.yul\":17737:17750   */\n      mload\n        /* \"#utility.yul\":17728:17750   */\n      swap1\n      pop\n        /* \"#utility.yul\":17759:17789   */\n      tag_384\n        /* \"#utility.yul\":17783:17788   */\n      dup2\n        /* \"#utility.yul\":17759:17789   */\n      tag_183\n      jump\t// in\n    tag_384:\n        /* \"#utility.yul\":17658:17795   */\n      swap3\n      swap2\n      pop\n      pop\n      jump\t// out\n        /* \"#utility.yul\":17801:18146   */\n    tag_71:\n        /* \"#utility.yul\":17868:17874   */\n      0x00\n        /* \"#utility.yul\":17917:17919   */\n      0x20\n        /* \"#utility.yul\":17905:17914   */\n      dup3\n        /* \"#utility.yul\":17896:17903   */\n      dup5\n        /* \"#utility.yul\":17892:17915   */\n      sub\n        /* \"#utility.yul\":17888:17920   */\n      slt\n        /* \"#utility.yul\":17885:18004   */\n      iszero\n      tag_386\n      jumpi\n        /* \"#utility.yul\":17923:18002   */\n      tag_387\n      tag_124\n      jump\t// in\n    tag_387:\n        /* \"#utility.yul\":17885:18004   */\n    tag_386:\n        /* \"#utility.yul\":18043:18044   */\n      0x00\n        /* \"#utility.yul\":18068:18129   */\n      tag_388\n        /* \"#utility.yul\":18121:18128   */\n      dup5\n        /* \"#utility.yul\":18112:18118   */\n      dup3\n        /* \"#utility.yul\":18101:18110   */\n      dup6\n        /* \"#utility.yul\":18097:18119   */\n      add\n        /* \"#utility.yul\":18068:18129   */\n      tag_184\n      jump\t// in\n    tag_388:\n        /* \"#utility.yul\":18058:18129   */\n      swap2\n      pop\n        /* \"#utility.yul\":18014:18139   */\n      pop\n        /* \"#utility.yul\":17801:18146   */\n      swap3\n      swap2\n      pop\n      pop\n      jump\t// out\n        /* \"#utility.yul\":18152:18321   */\n    tag_185:\n        /* \"#utility.yul\":18236:18247   */\n      0x00\n        /* \"#utility.yul\":18270:18276   */\n      dup3\n        /* \"#utility.yul\":18265:18268   */\n      dup3\n        /* \"#utility.yul\":18258:18277   */\n      mstore\n        /* \"#utility.yul\":18310:18314   */\n      0x20\n        /* \"#utility.yul\":18305:18308   */\n      dup3\n        /* \"#utility.yul\":18301:18315   */\n      add\n        /* \"#utility.yul\":18286:18315   */\n      swap1\n      pop\n        /* \"#utility.yul\":18152:18321   */\n      swap3\n      swap2\n      pop\n      pop\n      jump\t// out\n        /* \"#utility.yul\":18327:18556   */\n    tag_186:\n        /* \"#utility.yul\":18467:18501   */\n      0x5361666545524332303a204552433230206f7065726174696f6e20646964206e\n        /* \"#utility.yul\":18463:18464   */\n      0x00\n        /* \"#utility.yul\":18455:18461   */\n      dup3\n        /* \"#utility.yul\":18451:18465   */\n      add\n        /* \"#utility.yul\":18444:18502   */\n      mstore\n        /* \"#utility.yul\":18536:18548   */\n      0x6f74207375636365656400000000000000000000000000000000000000000000\n        /* \"#utility.yul\":18531:18533   */\n      0x20\n        /* \"#utility.yul\":18523:18529   */\n      dup3\n        /* \"#utility.yul\":18519:18534   */\n      add\n        /* \"#utility.yul\":18512:18549   */\n      mstore\n        /* \"#utility.yul\":18327:18556   */\n      pop\n      jump\t// out\n        /* \"#utility.yul\":18562:18928   */\n    tag_187:\n        /* \"#utility.yul\":18704:18707   */\n      0x00\n        /* \"#utility.yul\":18725:18792   */\n      tag_392\n        /* \"#utility.yul\":18789:18791   */\n      0x2a\n        /* \"#utility.yul\":18784:18787   */\n      dup4\n        /* \"#utility.yul\":18725:18792   */\n      tag_185\n      jump\t// in\n    tag_392:\n        /* \"#utility.yul\":18718:18792   */\n      swap2\n      pop\n        /* \"#utility.yul\":18801:18894   */\n      tag_393\n        /* \"#utility.yul\":18890:18893   */\n      dup3\n        /* \"#utility.yul\":18801:18894   */\n      tag_186\n      jump\t// in\n    tag_393:\n        /* \"#utility.yul\":18919:18921   */\n      0x40\n        /* \"#utility.yul\":18914:18917   */\n      dup3\n        /* \"#utility.yul\":18910:18922   */\n      add\n        /* \"#utility.yul\":18903:18922   */\n      swap1\n      pop\n        /* \"#utility.yul\":18562:18928   */\n      swap2\n      swap1\n      pop\n      jump\t// out\n        /* \"#utility.yul\":18934:19353   */\n    tag_74:\n        /* \"#utility.yul\":19100:19104   */\n      0x00\n        /* \"#utility.yul\":19138:19140   */\n      0x20\n        /* \"#utility.yul\":19127:19136   */\n      dup3\n        /* \"#utility.yul\":19123:19141   */\n      add\n        /* \"#utility.yul\":19115:19141   */\n      swap1\n      pop\n        /* \"#utility.yul\":19187:19196   */\n      dup2\n        /* \"#utility.yul\":19181:19185   */\n      dup2\n        /* \"#utility.yul\":19177:19197   */\n      sub\n        /* \"#utility.yul\":19173:19174   */\n      0x00\n        /* \"#utility.yul\":19162:19171   */\n      dup4\n        /* \"#utility.yul\":19158:19175   */\n      add\n        /* \"#utility.yul\":19151:19198   */\n      mstore\n        /* \"#utility.yul\":19215:19346   */\n      tag_395\n        /* \"#utility.yul\":19341:19345   */\n      dup2\n        /* \"#utility.yul\":19215:19346   */\n      tag_187\n      jump\t// in\n    tag_395:\n        /* \"#utility.yul\":19207:19346   */\n      swap1\n      pop\n        /* \"#utility.yul\":18934:19353   */\n      swap2\n      swap1\n      pop\n      jump\t// out\n        /* \"#utility.yul\":19359:19691   */\n    tag_77:\n        /* \"#utility.yul\":19480:19484   */\n      0x00\n        /* \"#utility.yul\":19518:19520   */\n      0x40\n        /* \"#utility.yul\":19507:19516   */\n      dup3\n        /* \"#utility.yul\":19503:19521   */\n      add\n        /* \"#utility.yul\":19495:19521   */\n      swap1\n      pop\n        /* \"#utility.yul\":19531:19602   */\n      tag_397\n        /* \"#utility.yul\":19599:19600   */\n      0x00\n        /* \"#utility.yul\":19588:19597   */\n      dup4\n        /* \"#utility.yul\":19584:19601   */\n      add\n        /* \"#utility.yul\":19575:19581   */\n      dup6\n        /* \"#utility.yul\":19531:19602   */\n      tag_150\n      jump\t// in\n    tag_397:\n        /* \"#utility.yul\":19612:19684   */\n      tag_398\n        /* \"#utility.yul\":19680:19682   */\n      0x20\n        /* \"#utility.yul\":19669:19678   */\n      dup4\n        /* \"#utility.yul\":19665:19683   */\n      add\n        /* \"#utility.yul\":19656:19662   */\n      dup5\n        /* \"#utility.yul\":19612:19684   */\n      tag_150\n      jump\t// in\n    tag_398:\n        /* \"#utility.yul\":19359:19691   */\n      swap4\n      swap3\n      pop\n      pop\n      pop\n      jump\t// out\n        /* \"#utility.yul\":19697:19877   */\n    tag_188:\n        /* \"#utility.yul\":19745:19822   */\n      0x4e487b7100000000000000000000000000000000000000000000000000000000\n        /* \"#utility.yul\":19742:19743   */\n      0x00\n        /* \"#utility.yul\":19735:19823   */\n      mstore\n        /* \"#utility.yul\":19842:19846   */\n      0x11\n        /* \"#utility.yul\":19839:19840   */\n      0x04\n        /* \"#utility.yul\":19832:19847   */\n      mstore\n        /* \"#utility.yul\":19866:19870   */\n      0x24\n        /* \"#utility.yul\":19863:19864   */\n      0x00\n        /* \"#utility.yul\":19856:19871   */\n      revert\n        /* \"#utility.yul\":19883:20188   */\n    tag_82:\n        /* \"#utility.yul\":19923:19926   */\n      0x00\n        /* \"#utility.yul\":19942:19962   */\n      tag_401\n        /* \"#utility.yul\":19960:19961   */\n      dup3\n        /* \"#utility.yul\":19942:19962   */\n      tag_141\n      jump\t// in\n    tag_401:\n        /* \"#utility.yul\":19937:19962   */\n      swap2\n      pop\n        /* \"#utility.yul\":19976:19996   */\n      tag_402\n        /* \"#utility.yul\":19994:19995   */\n      dup4\n        /* \"#utility.yul\":19976:19996   */\n      tag_141\n      jump\t// in\n    tag_402:\n        /* \"#utility.yul\":19971:19996   */\n      swap3\n      pop\n        /* \"#utility.yul\":20130:20131   */\n      dup3\n        /* \"#utility.yul\":20062:20128   */\n      0xffffffffffffffffffffffffffffffffffffffffffffffffffffffffffffffff\n        /* \"#utility.yul\":20058:20132   */\n      sub\n        /* \"#utility.yul\":20055:20056   */\n      dup3\n        /* \"#utility.yul\":20052:20133   */\n      gt\n        /* \"#utility.yul\":20049:20156   */\n      iszero\n      tag_403\n      jumpi\n        /* \"#utility.yul\":20136:20154   */\n      tag_404\n      tag_188\n      jump\t// in\n    tag_404:\n        /* \"#utility.yul\":20049:20156   */\n    tag_403:\n        /* \"#utility.yul\":20180:20181   */\n      dup3\n        /* \"#utility.yul\":20177:20178   */\n      dup3\n        /* \"#utility.yul\":20173:20182   */\n      add\n        /* \"#utility.yul\":20166:20182   */\n      swap1\n      pop\n        /* \"#utility.yul\":19883:20188   */\n      swap3\n      swap2\n      pop\n      pop\n      jump\t// out\n        /* \"#utility.yul\":20194:20526   */\n    tag_85:\n        /* \"#utility.yul\":20315:20319   */\n      0x00\n        /* \"#utility.yul\":20353:20355   */\n      0x40\n        /* \"#utility.yul\":20342:20351   */\n      dup3\n        /* \"#utility.yul\":20338:20356   */\n      add\n        /* \"#utility.yul\":20330:20356   */\n      swap1\n      pop\n        /* \"#utility.yul\":20366:20437   */\n      tag_406\n        /* \"#utility.yul\":20434:20435   */\n      0x00\n        /* \"#utility.yul\":20423:20432   */\n      dup4\n        /* \"#utility.yul\":20419:20436   */\n      add\n        /* \"#utility.yul\":20410:20416   */\n      dup6\n        /* \"#utility.yul\":20366:20437   */\n      tag_150\n      jump\t// in\n    tag_406:\n        /* \"#utility.yul\":20447:20519   */\n      tag_407\n        /* \"#utility.yul\":20515:20517   */\n      0x20\n        /* \"#utility.yul\":20504:20513   */\n      dup4\n        /* \"#utility.yul\":20500:20518   */\n      add\n        /* \"#utility.yul\":20491:20497   */\n      dup5\n        /* \"#utility.yul\":20447:20519   */\n      tag_151\n      jump\t// in\n    tag_407:\n        /* \"#utility.yul\":20194:20526   */\n      swap4\n      swap3\n      pop\n      pop\n      pop\n      jump\t// out\n        /* \"#utility.yul\":20532:20757   */\n    tag_189:\n        /* \"#utility.yul\":20672:20706   */\n      0x416464726573733a20696e73756666696369656e742062616c616e636520666f\n        /* \"#utility.yul\":20668:20669   */\n      0x00\n        /* \"#utility.yul\":20660:20666   */\n      dup3\n        /* \"#utility.yul\":20656:20670   */\n      add\n        /* \"#utility.yul\":20649:20707   */\n      mstore\n        /* \"#utility.yul\":20741:20749   */\n      0x722063616c6c0000000000000000000000000000000000000000000000000000\n        /* \"#utility.yul\":20736:20738   */\n      0x20\n        /* \"#utility.yul\":20728:20734   */\n      dup3\n        /* \"#utility.yul\":20724:20739   */\n      add\n        /* \"#utility.yul\":20717:20750   */\n      mstore\n        /* \"#utility.yul\":20532:20757   */\n      pop\n      jump\t// out\n        /* \"#utility.yul\":20763:21129   */\n    tag_190:\n        /* \"#utility.yul\":20905:20908   */\n      0x00\n        /* \"#utility.yul\":20926:20993   */\n      tag_410\n        /* \"#utility.yul\":20990:20992   */\n      0x26\n        /* \"#utility.yul\":20985:20988   */\n      dup4\n        /* \"#utility.yul\":20926:20993   */\n      tag_185\n      jump\t// in\n    tag_410:\n        /* \"#utility.yul\":20919:20993   */\n      swap2\n      pop\n        /* \"#utility.yul\":21002:21095   */\n      tag_411\n        /* \"#utility.yul\":21091:21094   */\n      dup3\n        /* \"#utility.yul\":21002:21095   */\n      tag_189\n      jump\t// in\n    tag_411:\n        /* \"#utility.yul\":21120:21122   */\n      0x40\n        /* \"#utility.yul\":21115:21118   */\n      dup3\n        /* \"#utility.yul\":21111:21123   */\n      add\n        /* \"#utility.yul\":21104:21123   */\n      swap1\n      pop\n        /* \"#utility.yul\":20763:21129   */\n      swap2\n      swap1\n      pop\n      jump\t// out\n        /* \"#utility.yul\":21135:21554   */\n    tag_102:\n        /* \"#utility.yul\":21301:21305   */\n      0x00\n        /* \"#utility.yul\":21339:21341   */\n      0x20\n        /* \"#utility.yul\":21328:21337   */\n      dup3\n        /* \"#utility.yul\":21324:21342   */\n      add\n        /* \"#utility.yul\":21316:21342   */\n      swap1\n      pop\n        /* \"#utility.yul\":21388:21397   */\n      dup2\n        /* \"#utility.yul\":21382:21386   */\n      dup2\n        /* \"#utility.yul\":21378:21398   */\n      sub\n        /* \"#utility.yul\":21374:21375   */\n      0x00\n        /* \"#utility.yul\":21363:21372   */\n      dup4\n        /* \"#utility.yul\":21359:21376   */\n      add\n        /* \"#utility.yul\":21352:21399   */\n      mstore\n        /* \"#utility.yul\":21416:21547   */\n      tag_413\n        /* \"#utility.yul\":21542:21546   */\n      dup2\n        /* \"#utility.yul\":21416:21547   */\n      tag_190\n      jump\t// in\n    tag_413:\n        /* \"#utility.yul\":21408:21547   */\n      swap1\n      pop\n        /* \"#utility.yul\":21135:21554   */\n      swap2\n      swap1\n      pop\n      jump\t// out\n        /* \"#utility.yul\":21560:21739   */\n    tag_191:\n        /* \"#utility.yul\":21700:21731   */\n      0x416464726573733a2063616c6c20746f206e6f6e2d636f6e7472616374000000\n        /* \"#utility.yul\":21696:21697   */\n      0x00\n        /* \"#utility.yul\":21688:21694   */\n      dup3\n        /* \"#utility.yul\":21684:21698   */\n      add\n        /* \"#utility.yul\":21677:21732   */\n      mstore\n        /* \"#utility.yul\":21560:21739   */\n      pop\n      jump\t// out\n        /* \"#utility.yul\":21745:22111   */\n    tag_192:\n        /* \"#utility.yul\":21887:21890   */\n      0x00\n        /* \"#utility.yul\":21908:21975   */\n      tag_416\n        /* \"#utility.yul\":21972:21974   */\n      0x1d\n        /* \"#utility.yul\":21967:21970   */\n      dup4\n        /* \"#utility.yul\":21908:21975   */\n      tag_185\n      jump\t// in\n    tag_416:\n        /* \"#utility.yul\":21901:21975   */\n      swap2\n      pop\n        /* \"#utility.yul\":21984:22077   */\n      tag_417\n        /* \"#utility.yul\":22073:22076   */\n      dup3\n        /* \"#utility.yul\":21984:22077   */\n      tag_191\n      jump\t// in\n    tag_417:\n        /* \"#utility.yul\":22102:22104   */\n      0x20\n        /* \"#utility.yul\":22097:22100   */\n      dup3\n        /* \"#utility.yul\":22093:22105   */\n      add\n        /* \"#utility.yul\":22086:22105   */\n      swap1\n      pop\n        /* \"#utility.yul\":21745:22111   */\n      swap2\n      swap1\n      pop\n      jump\t// out\n        /* \"#utility.yul\":22117:22536   */\n    tag_107:\n        /* \"#utility.yul\":22283:22287   */\n      0x00\n        /* \"#utility.yul\":22321:22323   */\n      0x20\n        /* \"#utility.yul\":22310:22319   */\n      dup3\n        /* \"#utility.yul\":22306:22324   */\n      add\n        /* \"#utility.yul\":22298:22324   */\n      swap1\n      pop\n        /* \"#utility.yul\":22370:22379   */\n      dup2\n        /* \"#utility.yul\":22364:22368   */\n      dup2\n        /* \"#utility.yul\":22360:22380   */\n      sub\n        /* \"#utility.yul\":22356:22357   */\n      0x00\n        /* \"#utility.yul\":22345:22354   */\n      dup4\n        /* \"#utility.yul\":22341:22358   */\n      add\n        /* \"#utility.yul\":22334:22381   */\n      mstore\n        /* \"#utility.yul\":22398:22529   */\n      tag_419\n        /* \"#utility.yul\":22524:22528   */\n      dup2\n        /* \"#utility.yul\":22398:22529   */\n      tag_192\n      jump\t// in\n    tag_419:\n        /* \"#utility.yul\":22390:22529   */\n      swap1\n      pop\n        /* \"#utility.yul\":22117:22536   */\n      swap2\n      swap1\n      pop\n      jump\t// out\n        /* \"#utility.yul\":22542:22689   */\n    tag_193:\n        /* \"#utility.yul\":22643:22654   */\n      0x00\n        /* \"#utility.yul\":22680:22683   */\n      dup2\n        /* \"#utility.yul\":22665:22683   */\n      swap1\n      pop\n        /* \"#utility.yul\":22542:22689   */\n      swap3\n      swap2\n      pop\n      pop\n      jump\t// out\n        /* \"#utility.yul\":22695:23068   */\n    tag_194:\n        /* \"#utility.yul\":22799:22802   */\n      0x00\n        /* \"#utility.yul\":22827:22865   */\n      tag_422\n        /* \"#utility.yul\":22859:22864   */\n      dup3\n        /* \"#utility.yul\":22827:22865   */\n      tag_175\n      jump\t// in\n    tag_422:\n        /* \"#utility.yul\":22881:22969   */\n      tag_423\n        /* \"#utility.yul\":22962:22968   */\n      dup2\n        /* \"#utility.yul\":22957:22960   */\n      dup6\n        /* \"#utility.yul\":22881:22969   */\n      tag_193\n      jump\t// in\n    tag_423:\n        /* \"#utility.yul\":22874:22969   */\n      swap4\n      pop\n        /* \"#utility.yul\":22978:23030   */\n      tag_424\n        /* \"#utility.yul\":23023:23029   */\n      dup2\n        /* \"#utility.yul\":23018:23021   */\n      dup6\n        /* \"#utility.yul\":23011:23015   */\n      0x20\n        /* \"#utility.yul\":23004:23009   */\n      dup7\n        /* \"#utility.yul\":23000:23016   */\n      add\n        /* \"#utility.yul\":22978:23030   */\n      tag_177\n      jump\t// in\n    tag_424:\n        /* \"#utility.yul\":23055:23061   */\n      dup1\n        /* \"#utility.yul\":23050:23053   */\n      dup5\n        /* \"#utility.yul\":23046:23062   */\n      add\n        /* \"#utility.yul\":23039:23062   */\n      swap2\n      pop\n        /* \"#utility.yul\":22803:23068   */\n      pop\n        /* \"#utility.yul\":22695:23068   */\n      swap3\n      swap2\n      pop\n      pop\n      jump\t// out\n        /* \"#utility.yul\":23074:23345   */\n    tag_109:\n        /* \"#utility.yul\":23204:23207   */\n      0x00\n        /* \"#utility.yul\":23226:23319   */\n      tag_426\n        /* \"#utility.yul\":23315:23318   */\n      dup3\n        /* \"#utility.yul\":23306:23312   */\n      dup5\n        /* \"#utility.yul\":23226:23319   */\n      tag_194\n      jump\t// in\n    tag_426:\n        /* \"#utility.yul\":23219:23319   */\n      swap2\n      pop\n        /* \"#utility.yul\":23336:23339   */\n      dup2\n        /* \"#utility.yul\":23329:23339   */\n      swap1\n      pop\n        /* \"#utility.yul\":23074:23345   */\n      swap3\n      swap2\n      pop\n      pop\n      jump\t// out\n        /* \"#utility.yul\":23351:23450   */\n    tag_195:\n        /* \"#utility.yul\":23403:23409   */\n      0x00\n        /* \"#utility.yul\":23437:23442   */\n      dup2\n        /* \"#utility.yul\":23431:23443   */\n      mload\n        /* \"#utility.yul\":23421:23443   */\n      swap1\n      pop\n        /* \"#utility.yul\":23351:23450   */\n      swap2\n      swap1\n      pop\n      jump\t// out\n        /* \"#utility.yul\":23456:23820   */\n    tag_196:\n        /* \"#utility.yul\":23544:23547   */\n      0x00\n        /* \"#utility.yul\":23572:23611   */\n      tag_429\n        /* \"#utility.yul\":23605:23610   */\n      dup3\n        /* \"#utility.yul\":23572:23611   */\n      tag_195\n      jump\t// in\n    tag_429:\n        /* \"#utility.yul\":23627:23698   */\n      tag_430\n        /* \"#utility.yul\":23691:23697   */\n      dup2\n        /* \"#utility.yul\":23686:23689   */\n      dup6\n        /* \"#utility.yul\":23627:23698   */\n      tag_185\n      jump\t// in\n    tag_430:\n        /* \"#utility.yul\":23620:23698   */\n      swap4\n      pop\n        /* \"#utility.yul\":23707:23759   */\n      tag_431\n        /* \"#utility.yul\":23752:23758   */\n      dup2\n        /* \"#utility.yul\":23747:23750   */\n      dup6\n        /* \"#utility.yul\":23740:23744   */\n      0x20\n        /* \"#utility.yul\":23733:23738   */\n      dup7\n        /* \"#utility.yul\":23729:23745   */\n      add\n        /* \"#utility.yul\":23707:23759   */\n      tag_177\n      jump\t// in\n    tag_431:\n        /* \"#utility.yul\":23784:23813   */\n      tag_432\n        /* \"#utility.yul\":23806:23812   */\n      dup2\n        /* \"#utility.yul\":23784:23813   */\n      tag_127\n      jump\t// in\n    tag_432:\n        /* \"#utility.yul\":23779:23782   */\n      dup5\n        /* \"#utility.yul\":23775:23814   */\n      add\n        /* \"#utility.yul\":23768:23814   */\n      swap2\n      pop\n        /* \"#utility.yul\":23548:23820   */\n      pop\n        /* \"#utility.yul\":23456:23820   */\n      swap3\n      swap2\n      pop\n      pop\n      jump\t// out\n        /* \"#utility.yul\":23826:24139   */\n    tag_122:\n        /* \"#utility.yul\":23939:23943   */\n      0x00\n        /* \"#utility.yul\":23977:23979   */\n      0x20\n        /* \"#utility.yul\":23966:23975   */\n      dup3\n        /* \"#utility.yul\":23962:23980   */\n      add\n        /* \"#utility.yul\":23954:23980   */\n      swap1\n      pop\n        /* \"#utility.yul\":24026:24035   */\n      dup2\n        /* \"#utility.yul\":24020:24024   */\n      dup2\n        /* \"#utility.yul\":24016:24036   */\n      sub\n        /* \"#utility.yul\":24012:24013   */\n      0x00\n        /* \"#utility.yul\":24001:24010   */\n      dup4\n        /* \"#utility.yul\":23997:24014   */\n      add\n        /* \"#utility.yul\":23990:24037   */\n      mstore\n        /* \"#utility.yul\":24054:24132   */\n      tag_434\n        /* \"#utility.yul\":24127:24131   */\n      dup2\n        /* \"#utility.yul\":24118:24124   */\n      dup5\n        /* \"#utility.yul\":24054:24132   */\n      tag_196\n      jump\t// in\n    tag_434:\n        /* \"#utility.yul\":24046:24132   */\n      swap1\n      pop\n        /* \"#utility.yul\":23826:24139   */\n      swap3\n      swap2\n      pop\n      pop\n      jump\t// out\n\n    auxdata: 0xa264697066735822122006189797d4b756d9da998b41eead227f9f43a87af3edc622510e453b2a100cbd64736f6c634300080d0033\n}\n",
				"bytecode": {
					"linkReferences": {},
					"object": "60a06040523480156200001157600080fd5b5060405162001750380380620017508339818101604052810190620000379190620000dc565b8073ffffffffffffffffffffffffffffffffffffffff1660808173ffffffffffffffffffffffffffffffffffffffff1681525050506200010e565b600080fd5b600073ffffffffffffffffffffffffffffffffffffffff82169050919050565b6000620000a48262000077565b9050919050565b620000b68162000097565b8114620000c257600080fd5b50565b600081519050620000d681620000ab565b92915050565b600060208284031215620000f557620000f462000072565b5b60006200010584828501620000c5565b91505092915050565b608051611619620001376000396000818160a2015281816102b0015261031201526116196000f3fe608060405234801561001057600080fd5b50600436106100415760003560e01c806311ffbf3c1461004657806377aba213146100625780638114456314610080575b600080fd5b610060600480360381019061005b9190610d18565b61009c565b005b61006a6100a0565b6040516100779190610d83565b60405180910390f35b61009a60048036038101906100959190610d18565b6100c4565b005b5050565b7f000000000000000000000000000000000000000000000000000000000000000081565b600082600001518360200151815181106100e1576100e0610d9e565b5b602002602001015190506101183330848473ffffffffffffffffffffffffffffffffffffffff1661014c909392919063ffffffff16565b610130836000015183856020015186604001516101d5565b610147836060015184608001518560a001516103ac565b505050565b6101cf846323b872dd60e01b85858560405160240161016d93929190610ddc565b604051602081830303815290604052907bffffffffffffffffffffffffffffffffffffffffffffffffffffffff19166020820180517bffffffffffffffffffffffffffffffffffffffffffffffffffffffff83818316178352505050506104c5565b50505050565b6000600190506000855167ffffffffffffffff8111156101f8576101f7610a07565b5b6040519080825280602002602001820160405280156102265781602001602082028036833780820191505090505b5090508481858151811061023d5761023c610d9e565b5b602002602001018181525050600060019050600083838360405160200161026693929190610eed565b604051602081830303815290604052905061027f6109b3565b88816000018190525083816020018190525081816040018190525060008160600190151590811515815250506103107f0000000000000000000000000000000000000000000000000000000000000000898b8a815181106102e3576102e2610d9e565b5b602002602001015173ffffffffffffffffffffffffffffffffffffffff1661058c9092919063ffffffff16565b7f000000000000000000000000000000000000000000000000000000000000000073ffffffffffffffffffffffffffffffffffffffff1663b95cac28873030856040518563ffffffff1660e01b815260040161036f94939291906111cb565b600060405180830381600087803b15801561038957600080fd5b505af115801561039d573d6000803e3d6000fd5b50505050505050505050505050565b6103b6828461069e565b8173ffffffffffffffffffffffffffffffffffffffff1663de5f62686040518163ffffffff1660e01b8152600401600060405180830381600087803b1580156103fe57600080fd5b505af1158015610412573d6000803e3d6000fd5b5050505060008290506104bf828273ffffffffffffffffffffffffffffffffffffffff166370a08231306040518263ffffffff1660e01b81526004016104589190610d83565b602060405180830381865afa158015610475573d6000803e3d6000fd5b505050506040513d601f19601f82011682018060405250810190610499919061122c565b8373ffffffffffffffffffffffffffffffffffffffff166107779092919063ffffffff16565b50505050565b6000610527826040518060400160405280602081526020017f5361666545524332303a206c6f772d6c6576656c2063616c6c206661696c65648152508573ffffffffffffffffffffffffffffffffffffffff166107fd9092919063ffffffff16565b905060008151111561058757808060200190518101906105479190611285565b610586576040517f08c379a000000000000000000000000000000000000000000000000000000000815260040161057d90611335565b60405180910390fd5b5b505050565b6000818473ffffffffffffffffffffffffffffffffffffffff1663dd62ed3e30866040518363ffffffff1660e01b81526004016105ca929190611355565b602060405180830381865afa1580156105e7573d6000803e3d6000fd5b505050506040513d601f19601f8201168201806040525081019061060b919061122c565b61061591906113ad565b90506106988463095ea7b360e01b8584604051602401610636929190611403565b604051602081830303815290604052907bffffffffffffffffffffffffffffffffffffffffffffffffffffffff19166020820180517bffffffffffffffffffffffffffffffffffffffffffffffffffffffff83818316178352505050506104c5565b50505050565b600081905060008173ffffffffffffffffffffffffffffffffffffffff1663dd62ed3e30866040518363ffffffff1660e01b81526004016106e0929190611355565b602060405180830381865afa1580156106fd573d6000803e3d6000fd5b505050506040513d601f19601f82011682018060405250810190610721919061122c565b0361077257610771837fffffffffffffffffffffffffffffffffffffffffffffffffffffffffffffffff8373ffffffffffffffffffffffffffffffffffffffff1661058c9092919063ffffffff16565b5b505050565b6107f88363a9059cbb60e01b8484604051602401610796929190611403565b604051602081830303815290604052907bffffffffffffffffffffffffffffffffffffffffffffffffffffffff19166020820180517bffffffffffffffffffffffffffffffffffffffffffffffffffffffff83818316178352505050506104c5565b505050565b606061080c8484600085610815565b90509392505050565b60608247101561085a576040517f08c379a00000000000000000000000000000000000000000000000000000000081526004016108519061149e565b60405180910390fd5b61086385610929565b6108a2576040517f08c379a00000000000000000000000000000000000000000000000000000000081526004016108999061150a565b60405180910390fd5b6000808673ffffffffffffffffffffffffffffffffffffffff1685876040516108cb9190611566565b60006040518083038185875af1925050503d8060008114610908576040519150601f19603f3d011682016040523d82523d6000602084013e61090d565b606091505b509150915061091d82828661094c565b92505050949350505050565b6000808273ffffffffffffffffffffffffffffffffffffffff163b119050919050565b6060831561095c578290506109ac565b60008351111561096f5782518084602001fd5b816040517f08c379a00000000000000000000000000000000000000000000000000000000081526004016109a391906115c1565b60405180910390fd5b9392505050565b60405180608001604052806060815260200160608152602001606081526020016000151581525090565b6000604051905090565b600080fd5b600080fd5b600080fd5b6000601f19601f8301169050919050565b7f4e487b7100000000000000000000000000000000000000000000000000000000600052604160045260246000fd5b610a3f826109f6565b810181811067ffffffffffffffff82111715610a5e57610a5d610a07565b5b80604052505050565b6000610a716109dd565b9050610a7d8282610a36565b919050565b600080fd5b600080fd5b600067ffffffffffffffff821115610aa757610aa6610a07565b5b602082029050602081019050919050565b600080fd5b600073ffffffffffffffffffffffffffffffffffffffff82169050919050565b6000610ae882610abd565b9050919050565b6000610afa82610add565b9050919050565b610b0a81610aef565b8114610b1557600080fd5b50565b600081359050610b2781610b01565b92915050565b6000610b40610b3b84610a8c565b610a67565b90508083825260208201905060208402830185811115610b6357610b62610ab8565b5b835b81811015610b8c5780610b788882610b18565b845260208401935050602081019050610b65565b5050509392505050565b600082601f830112610bab57610baa610a87565b5b8135610bbb848260208601610b2d565b91505092915050565b6000819050919050565b610bd781610bc4565b8114610be257600080fd5b50565b600081359050610bf481610bce565b92915050565b6000819050919050565b610c0d81610bfa565b8114610c1857600080fd5b50565b600081359050610c2a81610c04565b92915050565b610c3981610add565b8114610c4457600080fd5b50565b600081359050610c5681610c30565b92915050565b600060c08284031215610c7257610c716109f1565b5b610c7c60c0610a67565b9050600082013567ffffffffffffffff811115610c9c57610c9b610a82565b5b610ca884828501610b96565b6000830152506020610cbc84828501610be5565b6020830152506040610cd084828501610c1b565b6040830152506060610ce484828501610c47565b6060830152506080610cf884828501610c47565b60808301525060a0610d0c84828501610c47565b60a08301525092915050565b60008060408385031215610d2f57610d2e6109e7565b5b600083013567ffffffffffffffff811115610d4d57610d4c6109ec565b5b610d5985828601610c5c565b9250506020610d6a85828601610be5565b9150509250929050565b610d7d81610add565b82525050565b6000602082019050610d986000830184610d74565b92915050565b7f4e487b7100000000000000000000000000000000000000000000000000000000600052603260045260246000fd5b610dd681610bc4565b82525050565b6000606082019050610df16000830186610d74565b610dfe6020830185610d74565b610e0b6040830184610dcd565b949350505050565b600060ff82169050919050565b610e2981610e13565b82525050565b600081519050919050565b600082825260208201905092915050565b6000819050602082019050919050565b610e6481610bc4565b82525050565b6000610e768383610e5b565b60208301905092915050565b6000602082019050919050565b6000610e9a82610e2f565b610ea48185610e3a565b9350610eaf83610e4b565b8060005b83811015610ee0578151610ec78882610e6a565b9750610ed283610e82565b925050600181019050610eb3565b5085935050505092915050565b6000606082019050610f026000830186610e20565b8181036020830152610f148185610e8f565b9050610f236040830184610dcd565b949350505050565b610f3481610bfa565b82525050565b600081519050919050565b600082825260208201905092915050565b6000819050602082019050919050565b6000819050919050565b6000610f8b610f86610f8184610abd565b610f66565b610abd565b9050919050565b6000610f9d82610f70565b9050919050565b6000610faf82610f92565b9050919050565b610fbf81610fa4565b82525050565b6000610fd18383610fb6565b60208301905092915050565b6000602082019050919050565b6000610ff582610f3a565b610fff8185610f45565b935061100a83610f56565b8060005b8381101561103b5781516110228882610fc5565b975061102d83610fdd565b92505060018101905061100e565b5085935050505092915050565b600082825260208201905092915050565b600061106482610e2f565b61106e8185611048565b935061107983610e4b565b8060005b838110156110aa5781516110918882610e6a565b975061109c83610e82565b92505060018101905061107d565b5085935050505092915050565b600081519050919050565b600082825260208201905092915050565b60005b838110156110f15780820151818401526020810190506110d6565b83811115611100576000848401525b50505050565b6000611111826110b7565b61111b81856110c2565b935061112b8185602086016110d3565b611134816109f6565b840191505092915050565b60008115159050919050565b6111548161113f565b82525050565b600060808301600083015184820360008601526111778282610fea565b915050602083015184820360208601526111918282611059565b915050604083015184820360408601526111ab8282611106565b91505060608301516111c0606086018261114b565b508091505092915050565b60006080820190506111e06000830187610f2b565b6111ed6020830186610d74565b6111fa6040830185610d74565b818103606083015261120c818461115a565b905095945050505050565b60008151905061122681610bce565b92915050565b600060208284031215611242576112416109e7565b5b600061125084828501611217565b91505092915050565b6112628161113f565b811461126d57600080fd5b50565b60008151905061127f81611259565b92915050565b60006020828403121561129b5761129a6109e7565b5b60006112a984828501611270565b91505092915050565b600082825260208201905092915050565b7f5361666545524332303a204552433230206f7065726174696f6e20646964206e60008201527f6f74207375636365656400000000000000000000000000000000000000000000602082015250565b600061131f602a836112b2565b915061132a826112c3565b604082019050919050565b6000602082019050818103600083015261134e81611312565b9050919050565b600060408201905061136a6000830185610d74565b6113776020830184610d74565b9392505050565b7f4e487b7100000000000000000000000000000000000000000000000000000000600052601160045260246000fd5b60006113b882610bc4565b91506113c383610bc4565b9250827fffffffffffffffffffffffffffffffffffffffffffffffffffffffffffffffff038211156113f8576113f761137e565b5b828201905092915050565b60006040820190506114186000830185610d74565b6114256020830184610dcd565b9392505050565b7f416464726573733a20696e73756666696369656e742062616c616e636520666f60008201527f722063616c6c0000000000000000000000000000000000000000000000000000602082015250565b60006114886026836112b2565b91506114938261142c565b604082019050919050565b600060208201905081810360008301526114b78161147b565b9050919050565b7f416464726573733a2063616c6c20746f206e6f6e2d636f6e7472616374000000600082015250565b60006114f4601d836112b2565b91506114ff826114be565b602082019050919050565b60006020820190508181036000830152611523816114e7565b9050919050565b600081905092915050565b6000611540826110b7565b61154a818561152a565b935061155a8185602086016110d3565b80840191505092915050565b60006115728284611535565b915081905092915050565b600081519050919050565b60006115938261157d565b61159d81856112b2565b93506115ad8185602086016110d3565b6115b6816109f6565b840191505092915050565b600060208201905081810360008301526115db8184611588565b90509291505056fea264697066735822122006189797d4b756d9da998b41eead227f9f43a87af3edc622510e453b2a100cbd64736f6c634300080d0033",
					"opcodes": "PUSH1 0xA0 PUSH1 0x40 MSTORE CALLVALUE DUP1 ISZERO PUSH3 0x11 JUMPI PUSH1 0x0 DUP1 REVERT JUMPDEST POP PUSH1 0x40 MLOAD PUSH3 0x1750 CODESIZE SUB DUP1 PUSH3 0x1750 DUP4 CODECOPY DUP2 DUP2 ADD PUSH1 0x40 MSTORE DUP2 ADD SWAP1 PUSH3 0x37 SWAP2 SWAP1 PUSH3 0xDC JUMP JUMPDEST DUP1 PUSH20 0xFFFFFFFFFFFFFFFFFFFFFFFFFFFFFFFFFFFFFFFF AND PUSH1 0x80 DUP2 PUSH20 0xFFFFFFFFFFFFFFFFFFFFFFFFFFFFFFFFFFFFFFFF AND DUP2 MSTORE POP POP POP PUSH3 0x10E JUMP JUMPDEST PUSH1 0x0 DUP1 REVERT JUMPDEST PUSH1 0x0 PUSH20 0xFFFFFFFFFFFFFFFFFFFFFFFFFFFFFFFFFFFFFFFF DUP3 AND SWAP1 POP SWAP2 SWAP1 POP JUMP JUMPDEST PUSH1 0x0 PUSH3 0xA4 DUP3 PUSH3 0x77 JUMP JUMPDEST SWAP1 POP SWAP2 SWAP1 POP JUMP JUMPDEST PUSH3 0xB6 DUP2 PUSH3 0x97 JUMP JUMPDEST DUP2 EQ PUSH3 0xC2 JUMPI PUSH1 0x0 DUP1 REVERT JUMPDEST POP JUMP JUMPDEST PUSH1 0x0 DUP2 MLOAD SWAP1 POP PUSH3 0xD6 DUP2 PUSH3 0xAB JUMP JUMPDEST SWAP3 SWAP2 POP POP JUMP JUMPDEST PUSH1 0x0 PUSH1 0x20 DUP3 DUP5 SUB SLT ISZERO PUSH3 0xF5 JUMPI PUSH3 0xF4 PUSH3 0x72 JUMP JUMPDEST JUMPDEST PUSH1 0x0 PUSH3 0x105 DUP5 DUP3 DUP6 ADD PUSH3 0xC5 JUMP JUMPDEST SWAP2 POP POP SWAP3 SWAP2 POP POP JUMP JUMPDEST PUSH1 0x80 MLOAD PUSH2 0x1619 PUSH3 0x137 PUSH1 0x0 CODECOPY PUSH1 0x0 DUP2 DUP2 PUSH1 0xA2 ADD MSTORE DUP2 DUP2 PUSH2 0x2B0 ADD MSTORE PUSH2 0x312 ADD MSTORE PUSH2 0x1619 PUSH1 0x0 RETURN INVALID PUSH1 0x80 PUSH1 0x40 MSTORE CALLVALUE DUP1 ISZERO PUSH2 0x10 JUMPI PUSH1 0x0 DUP1 REVERT JUMPDEST POP PUSH1 0x4 CALLDATASIZE LT PUSH2 0x41 JUMPI PUSH1 0x0 CALLDATALOAD PUSH1 0xE0 SHR DUP1 PUSH4 0x11FFBF3C EQ PUSH2 0x46 JUMPI DUP1 PUSH4 0x77ABA213 EQ PUSH2 0x62 JUMPI DUP1 PUSH4 0x81144563 EQ PUSH2 0x80 JUMPI JUMPDEST PUSH1 0x0 DUP1 REVERT JUMPDEST PUSH2 0x60 PUSH1 0x4 DUP1 CALLDATASIZE SUB DUP2 ADD SWAP1 PUSH2 0x5B SWAP2 SWAP1 PUSH2 0xD18 JUMP JUMPDEST PUSH2 0x9C JUMP JUMPDEST STOP JUMPDEST PUSH2 0x6A PUSH2 0xA0 JUMP JUMPDEST PUSH1 0x40 MLOAD PUSH2 0x77 SWAP2 SWAP1 PUSH2 0xD83 JUMP JUMPDEST PUSH1 0x40 MLOAD DUP1 SWAP2 SUB SWAP1 RETURN JUMPDEST PUSH2 0x9A PUSH1 0x4 DUP1 CALLDATASIZE SUB DUP2 ADD SWAP1 PUSH2 0x95 SWAP2 SWAP1 PUSH2 0xD18 JUMP JUMPDEST PUSH2 0xC4 JUMP JUMPDEST STOP JUMPDEST POP POP JUMP JUMPDEST PUSH32 0x0 DUP2 JUMP JUMPDEST PUSH1 0x0 DUP3 PUSH1 0x0 ADD MLOAD DUP4 PUSH1 0x20 ADD MLOAD DUP2 MLOAD DUP2 LT PUSH2 0xE1 JUMPI PUSH2 0xE0 PUSH2 0xD9E JUMP JUMPDEST JUMPDEST PUSH1 0x20 MUL PUSH1 0x20 ADD ADD MLOAD SWAP1 POP PUSH2 0x118 CALLER ADDRESS DUP5 DUP5 PUSH20 0xFFFFFFFFFFFFFFFFFFFFFFFFFFFFFFFFFFFFFFFF AND PUSH2 0x14C SWAP1 SWAP4 SWAP3 SWAP2 SWAP1 PUSH4 0xFFFFFFFF AND JUMP JUMPDEST PUSH2 0x130 DUP4 PUSH1 0x0 ADD MLOAD DUP4 DUP6 PUSH1 0x20 ADD MLOAD DUP7 PUSH1 0x40 ADD MLOAD PUSH2 0x1D5 JUMP JUMPDEST PUSH2 0x147 DUP4 PUSH1 0x60 ADD MLOAD DUP5 PUSH1 0x80 ADD MLOAD DUP6 PUSH1 0xA0 ADD MLOAD PUSH2 0x3AC JUMP JUMPDEST POP POP POP JUMP JUMPDEST PUSH2 0x1CF DUP5 PUSH4 0x23B872DD PUSH1 0xE0 SHL DUP6 DUP6 DUP6 PUSH1 0x40 MLOAD PUSH1 0x24 ADD PUSH2 0x16D SWAP4 SWAP3 SWAP2 SWAP1 PUSH2 0xDDC JUMP JUMPDEST PUSH1 0x40 MLOAD PUSH1 0x20 DUP2 DUP4 SUB SUB DUP2 MSTORE SWAP1 PUSH1 0x40 MSTORE SWAP1 PUSH28 0xFFFFFFFFFFFFFFFFFFFFFFFFFFFFFFFFFFFFFFFFFFFFFFFFFFFFFFFF NOT AND PUSH1 0x20 DUP3 ADD DUP1 MLOAD PUSH28 0xFFFFFFFFFFFFFFFFFFFFFFFFFFFFFFFFFFFFFFFFFFFFFFFFFFFFFFFF DUP4 DUP2 DUP4 AND OR DUP4 MSTORE POP POP POP POP PUSH2 0x4C5 JUMP JUMPDEST POP POP POP POP JUMP JUMPDEST PUSH1 0x0 PUSH1 0x1 SWAP1 POP PUSH1 0x0 DUP6 MLOAD PUSH8 0xFFFFFFFFFFFFFFFF DUP2 GT ISZERO PUSH2 0x1F8 JUMPI PUSH2 0x1F7 PUSH2 0xA07 JUMP JUMPDEST JUMPDEST PUSH1 0x40 MLOAD SWAP1 DUP1 DUP3 MSTORE DUP1 PUSH1 0x20 MUL PUSH1 0x20 ADD DUP3 ADD PUSH1 0x40 MSTORE DUP1 ISZERO PUSH2 0x226 JUMPI DUP2 PUSH1 0x20 ADD PUSH1 0x20 DUP3 MUL DUP1 CALLDATASIZE DUP4 CALLDATACOPY DUP1 DUP3 ADD SWAP2 POP POP SWAP1 POP JUMPDEST POP SWAP1 POP DUP5 DUP2 DUP6 DUP2 MLOAD DUP2 LT PUSH2 0x23D JUMPI PUSH2 0x23C PUSH2 0xD9E JUMP JUMPDEST JUMPDEST PUSH1 0x20 MUL PUSH1 0x20 ADD ADD DUP2 DUP2 MSTORE POP POP PUSH1 0x0 PUSH1 0x1 SWAP1 POP PUSH1 0x0 DUP4 DUP4 DUP4 PUSH1 0x40 MLOAD PUSH1 0x20 ADD PUSH2 0x266 SWAP4 SWAP3 SWAP2 SWAP1 PUSH2 0xEED JUMP JUMPDEST PUSH1 0x40 MLOAD PUSH1 0x20 DUP2 DUP4 SUB SUB DUP2 MSTORE SWAP1 PUSH1 0x40 MSTORE SWAP1 POP PUSH2 0x27F PUSH2 0x9B3 JUMP JUMPDEST DUP9 DUP2 PUSH1 0x0 ADD DUP2 SWAP1 MSTORE POP DUP4 DUP2 PUSH1 0x20 ADD DUP2 SWAP1 MSTORE POP DUP2 DUP2 PUSH1 0x40 ADD DUP2 SWAP1 MSTORE POP PUSH1 0x0 DUP2 PUSH1 0x60 ADD SWAP1 ISZERO ISZERO SWAP1 DUP2 ISZERO ISZERO DUP2 MSTORE POP POP PUSH2 0x310 PUSH32 0x0 DUP10 DUP12 DUP11 DUP2 MLOAD DUP2 LT PUSH2 0x2E3 JUMPI PUSH2 0x2E2 PUSH2 0xD9E JUMP JUMPDEST JUMPDEST PUSH1 0x20 MUL PUSH1 0x20 ADD ADD MLOAD PUSH20 0xFFFFFFFFFFFFFFFFFFFFFFFFFFFFFFFFFFFFFFFF AND PUSH2 0x58C SWAP1 SWAP3 SWAP2 SWAP1 PUSH4 0xFFFFFFFF AND JUMP JUMPDEST PUSH32 0x0 PUSH20 0xFFFFFFFFFFFFFFFFFFFFFFFFFFFFFFFFFFFFFFFF AND PUSH4 0xB95CAC28 DUP8 ADDRESS ADDRESS DUP6 PUSH1 0x40 MLOAD DUP6 PUSH4 0xFFFFFFFF AND PUSH1 0xE0 SHL DUP2 MSTORE PUSH1 0x4 ADD PUSH2 0x36F SWAP5 SWAP4 SWAP3 SWAP2 SWAP1 PUSH2 0x11CB JUMP JUMPDEST PUSH1 0x0 PUSH1 0x40 MLOAD DUP1 DUP4 SUB DUP2 PUSH1 0x0 DUP8 DUP1 EXTCODESIZE ISZERO DUP1 ISZERO PUSH2 0x389 JUMPI PUSH1 0x0 DUP1 REVERT JUMPDEST POP GAS CALL ISZERO DUP1 ISZERO PUSH2 0x39D JUMPI RETURNDATASIZE PUSH1 0x0 DUP1 RETURNDATACOPY RETURNDATASIZE PUSH1 0x0 REVERT JUMPDEST POP POP POP POP POP POP POP POP POP POP POP POP POP JUMP JUMPDEST PUSH2 0x3B6 DUP3 DUP5 PUSH2 0x69E JUMP JUMPDEST DUP2 PUSH20 0xFFFFFFFFFFFFFFFFFFFFFFFFFFFFFFFFFFFFFFFF AND PUSH4 0xDE5F6268 PUSH1 0x40 MLOAD DUP2 PUSH4 0xFFFFFFFF AND PUSH1 0xE0 SHL DUP2 MSTORE PUSH1 0x4 ADD PUSH1 0x0 PUSH1 0x40 MLOAD DUP1 DUP4 SUB DUP2 PUSH1 0x0 DUP8 DUP1 EXTCODESIZE ISZERO DUP1 ISZERO PUSH2 0x3FE JUMPI PUSH1 0x0 DUP1 REVERT JUMPDEST POP GAS CALL ISZERO DUP1 ISZERO PUSH2 0x412 JUMPI RETURNDATASIZE PUSH1 0x0 DUP1 RETURNDATACOPY RETURNDATASIZE PUSH1 0x0 REVERT JUMPDEST POP POP POP POP PUSH1 0x0 DUP3 SWAP1 POP PUSH2 0x4BF DUP3 DUP3 PUSH20 0xFFFFFFFFFFFFFFFFFFFFFFFFFFFFFFFFFFFFFFFF AND PUSH4 0x70A08231 ADDRESS PUSH1 0x40 MLOAD DUP3 PUSH4 0xFFFFFFFF AND PUSH1 0xE0 SHL DUP2 MSTORE PUSH1 0x4 ADD PUSH2 0x458 SWAP2 SWAP1 PUSH2 0xD83 JUMP JUMPDEST PUSH1 0x20 PUSH1 0x40 MLOAD DUP1 DUP4 SUB DUP2 DUP7 GAS STATICCALL ISZERO DUP1 ISZERO PUSH2 0x475 JUMPI RETURNDATASIZE PUSH1 0x0 DUP1 RETURNDATACOPY RETURNDATASIZE PUSH1 0x0 REVERT JUMPDEST POP POP POP POP PUSH1 0x40 MLOAD RETURNDATASIZE PUSH1 0x1F NOT PUSH1 0x1F DUP3 ADD AND DUP3 ADD DUP1 PUSH1 0x40 MSTORE POP DUP2 ADD SWAP1 PUSH2 0x499 SWAP2 SWAP1 PUSH2 0x122C JUMP JUMPDEST DUP4 PUSH20 0xFFFFFFFFFFFFFFFFFFFFFFFFFFFFFFFFFFFFFFFF AND PUSH2 0x777 SWAP1 SWAP3 SWAP2 SWAP1 PUSH4 0xFFFFFFFF AND JUMP JUMPDEST POP POP POP POP JUMP JUMPDEST PUSH1 0x0 PUSH2 0x527 DUP3 PUSH1 0x40 MLOAD DUP1 PUSH1 0x40 ADD PUSH1 0x40 MSTORE DUP1 PUSH1 0x20 DUP2 MSTORE PUSH1 0x20 ADD PUSH32 0x5361666545524332303A206C6F772D6C6576656C2063616C6C206661696C6564 DUP2 MSTORE POP DUP6 PUSH20 0xFFFFFFFFFFFFFFFFFFFFFFFFFFFFFFFFFFFFFFFF AND PUSH2 0x7FD SWAP1 SWAP3 SWAP2 SWAP1 PUSH4 0xFFFFFFFF AND JUMP JUMPDEST SWAP1 POP PUSH1 0x0 DUP2 MLOAD GT ISZERO PUSH2 0x587 JUMPI DUP1 DUP1 PUSH1 0x20 ADD SWAP1 MLOAD DUP2 ADD SWAP1 PUSH2 0x547 SWAP2 SWAP1 PUSH2 0x1285 JUMP JUMPDEST PUSH2 0x586 JUMPI PUSH1 0x40 MLOAD PUSH32 0x8C379A000000000000000000000000000000000000000000000000000000000 DUP2 MSTORE PUSH1 0x4 ADD PUSH2 0x57D SWAP1 PUSH2 0x1335 JUMP JUMPDEST PUSH1 0x40 MLOAD DUP1 SWAP2 SUB SWAP1 REVERT JUMPDEST JUMPDEST POP POP POP JUMP JUMPDEST PUSH1 0x0 DUP2 DUP5 PUSH20 0xFFFFFFFFFFFFFFFFFFFFFFFFFFFFFFFFFFFFFFFF AND PUSH4 0xDD62ED3E ADDRESS DUP7 PUSH1 0x40 MLOAD DUP4 PUSH4 0xFFFFFFFF AND PUSH1 0xE0 SHL DUP2 MSTORE PUSH1 0x4 ADD PUSH2 0x5CA SWAP3 SWAP2 SWAP1 PUSH2 0x1355 JUMP JUMPDEST PUSH1 0x20 PUSH1 0x40 MLOAD DUP1 DUP4 SUB DUP2 DUP7 GAS STATICCALL ISZERO DUP1 ISZERO PUSH2 0x5E7 JUMPI RETURNDATASIZE PUSH1 0x0 DUP1 RETURNDATACOPY RETURNDATASIZE PUSH1 0x0 REVERT JUMPDEST POP POP POP POP PUSH1 0x40 MLOAD RETURNDATASIZE PUSH1 0x1F NOT PUSH1 0x1F DUP3 ADD AND DUP3 ADD DUP1 PUSH1 0x40 MSTORE POP DUP2 ADD SWAP1 PUSH2 0x60B SWAP2 SWAP1 PUSH2 0x122C JUMP JUMPDEST PUSH2 0x615 SWAP2 SWAP1 PUSH2 0x13AD JUMP JUMPDEST SWAP1 POP PUSH2 0x698 DUP5 PUSH4 0x95EA7B3 PUSH1 0xE0 SHL DUP6 DUP5 PUSH1 0x40 MLOAD PUSH1 0x24 ADD PUSH2 0x636 SWAP3 SWAP2 SWAP1 PUSH2 0x1403 JUMP JUMPDEST PUSH1 0x40 MLOAD PUSH1 0x20 DUP2 DUP4 SUB SUB DUP2 MSTORE SWAP1 PUSH1 0x40 MSTORE SWAP1 PUSH28 0xFFFFFFFFFFFFFFFFFFFFFFFFFFFFFFFFFFFFFFFFFFFFFFFFFFFFFFFF NOT AND PUSH1 0x20 DUP3 ADD DUP1 MLOAD PUSH28 0xFFFFFFFFFFFFFFFFFFFFFFFFFFFFFFFFFFFFFFFFFFFFFFFFFFFFFFFF DUP4 DUP2 DUP4 AND OR DUP4 MSTORE POP POP POP POP PUSH2 0x4C5 JUMP JUMPDEST POP POP POP POP JUMP JUMPDEST PUSH1 0x0 DUP2 SWAP1 POP PUSH1 0x0 DUP2 PUSH20 0xFFFFFFFFFFFFFFFFFFFFFFFFFFFFFFFFFFFFFFFF AND PUSH4 0xDD62ED3E ADDRESS DUP7 PUSH1 0x40 MLOAD DUP4 PUSH4 0xFFFFFFFF AND PUSH1 0xE0 SHL DUP2 MSTORE PUSH1 0x4 ADD PUSH2 0x6E0 SWAP3 SWAP2 SWAP1 PUSH2 0x1355 JUMP JUMPDEST PUSH1 0x20 PUSH1 0x40 MLOAD DUP1 DUP4 SUB DUP2 DUP7 GAS STATICCALL ISZERO DUP1 ISZERO PUSH2 0x6FD JUMPI RETURNDATASIZE PUSH1 0x0 DUP1 RETURNDATACOPY RETURNDATASIZE PUSH1 0x0 REVERT JUMPDEST POP POP POP POP PUSH1 0x40 MLOAD RETURNDATASIZE PUSH1 0x1F NOT PUSH1 0x1F DUP3 ADD AND DUP3 ADD DUP1 PUSH1 0x40 MSTORE POP DUP2 ADD SWAP1 PUSH2 0x721 SWAP2 SWAP1 PUSH2 0x122C JUMP JUMPDEST SUB PUSH2 0x772 JUMPI PUSH2 0x771 DUP4 PUSH32 0xFFFFFFFFFFFFFFFFFFFFFFFFFFFFFFFFFFFFFFFFFFFFFFFFFFFFFFFFFFFFFFFF DUP4 PUSH20 0xFFFFFFFFFFFFFFFFFFFFFFFFFFFFFFFFFFFFFFFF AND PUSH2 0x58C SWAP1 SWAP3 SWAP2 SWAP1 PUSH4 0xFFFFFFFF AND JUMP JUMPDEST JUMPDEST POP POP POP JUMP JUMPDEST PUSH2 0x7F8 DUP4 PUSH4 0xA9059CBB PUSH1 0xE0 SHL DUP5 DUP5 PUSH1 0x40 MLOAD PUSH1 0x24 ADD PUSH2 0x796 SWAP3 SWAP2 SWAP1 PUSH2 0x1403 JUMP JUMPDEST PUSH1 0x40 MLOAD PUSH1 0x20 DUP2 DUP4 SUB SUB DUP2 MSTORE SWAP1 PUSH1 0x40 MSTORE SWAP1 PUSH28 0xFFFFFFFFFFFFFFFFFFFFFFFFFFFFFFFFFFFFFFFFFFFFFFFFFFFFFFFF NOT AND PUSH1 0x20 DUP3 ADD DUP1 MLOAD PUSH28 0xFFFFFFFFFFFFFFFFFFFFFFFFFFFFFFFFFFFFFFFFFFFFFFFFFFFFFFFF DUP4 DUP2 DUP4 AND OR DUP4 MSTORE POP POP POP POP PUSH2 0x4C5 JUMP JUMPDEST POP POP POP JUMP JUMPDEST PUSH1 0x60 PUSH2 0x80C DUP5 DUP5 PUSH1 0x0 DUP6 PUSH2 0x815 JUMP JUMPDEST SWAP1 POP SWAP4 SWAP3 POP POP POP JUMP JUMPDEST PUSH1 0x60 DUP3 SELFBALANCE LT ISZERO PUSH2 0x85A JUMPI PUSH1 0x40 MLOAD PUSH32 0x8C379A000000000000000000000000000000000000000000000000000000000 DUP2 MSTORE PUSH1 0x4 ADD PUSH2 0x851 SWAP1 PUSH2 0x149E JUMP JUMPDEST PUSH1 0x40 MLOAD DUP1 SWAP2 SUB SWAP1 REVERT JUMPDEST PUSH2 0x863 DUP6 PUSH2 0x929 JUMP JUMPDEST PUSH2 0x8A2 JUMPI PUSH1 0x40 MLOAD PUSH32 0x8C379A000000000000000000000000000000000000000000000000000000000 DUP2 MSTORE PUSH1 0x4 ADD PUSH2 0x899 SWAP1 PUSH2 0x150A JUMP JUMPDEST PUSH1 0x40 MLOAD DUP1 SWAP2 SUB SWAP1 REVERT JUMPDEST PUSH1 0x0 DUP1 DUP7 PUSH20 0xFFFFFFFFFFFFFFFFFFFFFFFFFFFFFFFFFFFFFFFF AND DUP6 DUP8 PUSH1 0x40 MLOAD PUSH2 0x8CB SWAP2 SWAP1 PUSH2 0x1566 JUMP JUMPDEST PUSH1 0x0 PUSH1 0x40 MLOAD DUP1 DUP4 SUB DUP2 DUP6 DUP8 GAS CALL SWAP3 POP POP POP RETURNDATASIZE DUP1 PUSH1 0x0 DUP2 EQ PUSH2 0x908 JUMPI PUSH1 0x40 MLOAD SWAP2 POP PUSH1 0x1F NOT PUSH1 0x3F RETURNDATASIZE ADD AND DUP3 ADD PUSH1 0x40 MSTORE RETURNDATASIZE DUP3 MSTORE RETURNDATASIZE PUSH1 0x0 PUSH1 0x20 DUP5 ADD RETURNDATACOPY PUSH2 0x90D JUMP JUMPDEST PUSH1 0x60 SWAP2 POP JUMPDEST POP SWAP2 POP SWAP2 POP PUSH2 0x91D DUP3 DUP3 DUP7 PUSH2 0x94C JUMP JUMPDEST SWAP3 POP POP POP SWAP5 SWAP4 POP POP POP POP JUMP JUMPDEST PUSH1 0x0 DUP1 DUP3 PUSH20 0xFFFFFFFFFFFFFFFFFFFFFFFFFFFFFFFFFFFFFFFF AND EXTCODESIZE GT SWAP1 POP SWAP2 SWAP1 POP JUMP JUMPDEST PUSH1 0x60 DUP4 ISZERO PUSH2 0x95C JUMPI DUP3 SWAP1 POP PUSH2 0x9AC JUMP JUMPDEST PUSH1 0x0 DUP4 MLOAD GT ISZERO PUSH2 0x96F JUMPI DUP3 MLOAD DUP1 DUP5 PUSH1 0x20 ADD REVERT JUMPDEST DUP2 PUSH1 0x40 MLOAD PUSH32 0x8C379A000000000000000000000000000000000000000000000000000000000 DUP2 MSTORE PUSH1 0x4 ADD PUSH2 0x9A3 SWAP2 SWAP1 PUSH2 0x15C1 JUMP JUMPDEST PUSH1 0x40 MLOAD DUP1 SWAP2 SUB SWAP1 REVERT JUMPDEST SWAP4 SWAP3 POP POP POP JUMP JUMPDEST PUSH1 0x40 MLOAD DUP1 PUSH1 0x80 ADD PUSH1 0x40 MSTORE DUP1 PUSH1 0x60 DUP2 MSTORE PUSH1 0x20 ADD PUSH1 0x60 DUP2 MSTORE PUSH1 0x20 ADD PUSH1 0x60 DUP2 MSTORE PUSH1 0x20 ADD PUSH1 0x0 ISZERO ISZERO DUP2 MSTORE POP SWAP1 JUMP JUMPDEST PUSH1 0x0 PUSH1 0x40 MLOAD SWAP1 POP SWAP1 JUMP JUMPDEST PUSH1 0x0 DUP1 REVERT JUMPDEST PUSH1 0x0 DUP1 REVERT JUMPDEST PUSH1 0x0 DUP1 REVERT JUMPDEST PUSH1 0x0 PUSH1 0x1F NOT PUSH1 0x1F DUP4 ADD AND SWAP1 POP SWAP2 SWAP1 POP JUMP JUMPDEST PUSH32 0x4E487B7100000000000000000000000000000000000000000000000000000000 PUSH1 0x0 MSTORE PUSH1 0x41 PUSH1 0x4 MSTORE PUSH1 0x24 PUSH1 0x0 REVERT JUMPDEST PUSH2 0xA3F DUP3 PUSH2 0x9F6 JUMP JUMPDEST DUP2 ADD DUP2 DUP2 LT PUSH8 0xFFFFFFFFFFFFFFFF DUP3 GT OR ISZERO PUSH2 0xA5E JUMPI PUSH2 0xA5D PUSH2 0xA07 JUMP JUMPDEST JUMPDEST DUP1 PUSH1 0x40 MSTORE POP POP POP JUMP JUMPDEST PUSH1 0x0 PUSH2 0xA71 PUSH2 0x9DD JUMP JUMPDEST SWAP1 POP PUSH2 0xA7D DUP3 DUP3 PUSH2 0xA36 JUMP JUMPDEST SWAP2 SWAP1 POP JUMP JUMPDEST PUSH1 0x0 DUP1 REVERT JUMPDEST PUSH1 0x0 DUP1 REVERT JUMPDEST PUSH1 0x0 PUSH8 0xFFFFFFFFFFFFFFFF DUP3 GT ISZERO PUSH2 0xAA7 JUMPI PUSH2 0xAA6 PUSH2 0xA07 JUMP JUMPDEST JUMPDEST PUSH1 0x20 DUP3 MUL SWAP1 POP PUSH1 0x20 DUP2 ADD SWAP1 POP SWAP2 SWAP1 POP JUMP JUMPDEST PUSH1 0x0 DUP1 REVERT JUMPDEST PUSH1 0x0 PUSH20 0xFFFFFFFFFFFFFFFFFFFFFFFFFFFFFFFFFFFFFFFF DUP3 AND SWAP1 POP SWAP2 SWAP1 POP JUMP JUMPDEST PUSH1 0x0 PUSH2 0xAE8 DUP3 PUSH2 0xABD JUMP JUMPDEST SWAP1 POP SWAP2 SWAP1 POP JUMP JUMPDEST PUSH1 0x0 PUSH2 0xAFA DUP3 PUSH2 0xADD JUMP JUMPDEST SWAP1 POP SWAP2 SWAP1 POP JUMP JUMPDEST PUSH2 0xB0A DUP2 PUSH2 0xAEF JUMP JUMPDEST DUP2 EQ PUSH2 0xB15 JUMPI PUSH1 0x0 DUP1 REVERT JUMPDEST POP JUMP JUMPDEST PUSH1 0x0 DUP2 CALLDATALOAD SWAP1 POP PUSH2 0xB27 DUP2 PUSH2 0xB01 JUMP JUMPDEST SWAP3 SWAP2 POP POP JUMP JUMPDEST PUSH1 0x0 PUSH2 0xB40 PUSH2 0xB3B DUP5 PUSH2 0xA8C JUMP JUMPDEST PUSH2 0xA67 JUMP JUMPDEST SWAP1 POP DUP1 DUP4 DUP3 MSTORE PUSH1 0x20 DUP3 ADD SWAP1 POP PUSH1 0x20 DUP5 MUL DUP4 ADD DUP6 DUP2 GT ISZERO PUSH2 0xB63 JUMPI PUSH2 0xB62 PUSH2 0xAB8 JUMP JUMPDEST JUMPDEST DUP4 JUMPDEST DUP2 DUP2 LT ISZERO PUSH2 0xB8C JUMPI DUP1 PUSH2 0xB78 DUP9 DUP3 PUSH2 0xB18 JUMP JUMPDEST DUP5 MSTORE PUSH1 0x20 DUP5 ADD SWAP4 POP POP PUSH1 0x20 DUP2 ADD SWAP1 POP PUSH2 0xB65 JUMP JUMPDEST POP POP POP SWAP4 SWAP3 POP POP POP JUMP JUMPDEST PUSH1 0x0 DUP3 PUSH1 0x1F DUP4 ADD SLT PUSH2 0xBAB JUMPI PUSH2 0xBAA PUSH2 0xA87 JUMP JUMPDEST JUMPDEST DUP2 CALLDATALOAD PUSH2 0xBBB DUP5 DUP3 PUSH1 0x20 DUP7 ADD PUSH2 0xB2D JUMP JUMPDEST SWAP2 POP POP SWAP3 SWAP2 POP POP JUMP JUMPDEST PUSH1 0x0 DUP2 SWAP1 POP SWAP2 SWAP1 POP JUMP JUMPDEST PUSH2 0xBD7 DUP2 PUSH2 0xBC4 JUMP JUMPDEST DUP2 EQ PUSH2 0xBE2 JUMPI PUSH1 0x0 DUP1 REVERT JUMPDEST POP JUMP JUMPDEST PUSH1 0x0 DUP2 CALLDATALOAD SWAP1 POP PUSH2 0xBF4 DUP2 PUSH2 0xBCE JUMP JUMPDEST SWAP3 SWAP2 POP POP JUMP JUMPDEST PUSH1 0x0 DUP2 SWAP1 POP SWAP2 SWAP1 POP JUMP JUMPDEST PUSH2 0xC0D DUP2 PUSH2 0xBFA JUMP JUMPDEST DUP2 EQ PUSH2 0xC18 JUMPI PUSH1 0x0 DUP1 REVERT JUMPDEST POP JUMP JUMPDEST PUSH1 0x0 DUP2 CALLDATALOAD SWAP1 POP PUSH2 0xC2A DUP2 PUSH2 0xC04 JUMP JUMPDEST SWAP3 SWAP2 POP POP JUMP JUMPDEST PUSH2 0xC39 DUP2 PUSH2 0xADD JUMP JUMPDEST DUP2 EQ PUSH2 0xC44 JUMPI PUSH1 0x0 DUP1 REVERT JUMPDEST POP JUMP JUMPDEST PUSH1 0x0 DUP2 CALLDATALOAD SWAP1 POP PUSH2 0xC56 DUP2 PUSH2 0xC30 JUMP JUMPDEST SWAP3 SWAP2 POP POP JUMP JUMPDEST PUSH1 0x0 PUSH1 0xC0 DUP3 DUP5 SUB SLT ISZERO PUSH2 0xC72 JUMPI PUSH2 0xC71 PUSH2 0x9F1 JUMP JUMPDEST JUMPDEST PUSH2 0xC7C PUSH1 0xC0 PUSH2 0xA67 JUMP JUMPDEST SWAP1 POP PUSH1 0x0 DUP3 ADD CALLDATALOAD PUSH8 0xFFFFFFFFFFFFFFFF DUP2 GT ISZERO PUSH2 0xC9C JUMPI PUSH2 0xC9B PUSH2 0xA82 JUMP JUMPDEST JUMPDEST PUSH2 0xCA8 DUP5 DUP3 DUP6 ADD PUSH2 0xB96 JUMP JUMPDEST PUSH1 0x0 DUP4 ADD MSTORE POP PUSH1 0x20 PUSH2 0xCBC DUP5 DUP3 DUP6 ADD PUSH2 0xBE5 JUMP JUMPDEST PUSH1 0x20 DUP4 ADD MSTORE POP PUSH1 0x40 PUSH2 0xCD0 DUP5 DUP3 DUP6 ADD PUSH2 0xC1B JUMP JUMPDEST PUSH1 0x40 DUP4 ADD MSTORE POP PUSH1 0x60 PUSH2 0xCE4 DUP5 DUP3 DUP6 ADD PUSH2 0xC47 JUMP JUMPDEST PUSH1 0x60 DUP4 ADD MSTORE POP PUSH1 0x80 PUSH2 0xCF8 DUP5 DUP3 DUP6 ADD PUSH2 0xC47 JUMP JUMPDEST PUSH1 0x80 DUP4 ADD MSTORE POP PUSH1 0xA0 PUSH2 0xD0C DUP5 DUP3 DUP6 ADD PUSH2 0xC47 JUMP JUMPDEST PUSH1 0xA0 DUP4 ADD MSTORE POP SWAP3 SWAP2 POP POP JUMP JUMPDEST PUSH1 0x0 DUP1 PUSH1 0x40 DUP4 DUP6 SUB SLT ISZERO PUSH2 0xD2F JUMPI PUSH2 0xD2E PUSH2 0x9E7 JUMP JUMPDEST JUMPDEST PUSH1 0x0 DUP4 ADD CALLDATALOAD PUSH8 0xFFFFFFFFFFFFFFFF DUP2 GT ISZERO PUSH2 0xD4D JUMPI PUSH2 0xD4C PUSH2 0x9EC JUMP JUMPDEST JUMPDEST PUSH2 0xD59 DUP6 DUP3 DUP7 ADD PUSH2 0xC5C JUMP JUMPDEST SWAP3 POP POP PUSH1 0x20 PUSH2 0xD6A DUP6 DUP3 DUP7 ADD PUSH2 0xBE5 JUMP JUMPDEST SWAP2 POP POP SWAP3 POP SWAP3 SWAP1 POP JUMP JUMPDEST PUSH2 0xD7D DUP2 PUSH2 0xADD JUMP JUMPDEST DUP3 MSTORE POP POP JUMP JUMPDEST PUSH1 0x0 PUSH1 0x20 DUP3 ADD SWAP1 POP PUSH2 0xD98 PUSH1 0x0 DUP4 ADD DUP5 PUSH2 0xD74 JUMP JUMPDEST SWAP3 SWAP2 POP POP JUMP JUMPDEST PUSH32 0x4E487B7100000000000000000000000000000000000000000000000000000000 PUSH1 0x0 MSTORE PUSH1 0x32 PUSH1 0x4 MSTORE PUSH1 0x24 PUSH1 0x0 REVERT JUMPDEST PUSH2 0xDD6 DUP2 PUSH2 0xBC4 JUMP JUMPDEST DUP3 MSTORE POP POP JUMP JUMPDEST PUSH1 0x0 PUSH1 0x60 DUP3 ADD SWAP1 POP PUSH2 0xDF1 PUSH1 0x0 DUP4 ADD DUP7 PUSH2 0xD74 JUMP JUMPDEST PUSH2 0xDFE PUSH1 0x20 DUP4 ADD DUP6 PUSH2 0xD74 JUMP JUMPDEST PUSH2 0xE0B PUSH1 0x40 DUP4 ADD DUP5 PUSH2 0xDCD JUMP JUMPDEST SWAP5 SWAP4 POP POP POP POP JUMP JUMPDEST PUSH1 0x0 PUSH1 0xFF DUP3 AND SWAP1 POP SWAP2 SWAP1 POP JUMP JUMPDEST PUSH2 0xE29 DUP2 PUSH2 0xE13 JUMP JUMPDEST DUP3 MSTORE POP POP JUMP JUMPDEST PUSH1 0x0 DUP2 MLOAD SWAP1 POP SWAP2 SWAP1 POP JUMP JUMPDEST PUSH1 0x0 DUP3 DUP3 MSTORE PUSH1 0x20 DUP3 ADD SWAP1 POP SWAP3 SWAP2 POP POP JUMP JUMPDEST PUSH1 0x0 DUP2 SWAP1 POP PUSH1 0x20 DUP3 ADD SWAP1 POP SWAP2 SWAP1 POP JUMP JUMPDEST PUSH2 0xE64 DUP2 PUSH2 0xBC4 JUMP JUMPDEST DUP3 MSTORE POP POP JUMP JUMPDEST PUSH1 0x0 PUSH2 0xE76 DUP4 DUP4 PUSH2 0xE5B JUMP JUMPDEST PUSH1 0x20 DUP4 ADD SWAP1 POP SWAP3 SWAP2 POP POP JUMP JUMPDEST PUSH1 0x0 PUSH1 0x20 DUP3 ADD SWAP1 POP SWAP2 SWAP1 POP JUMP JUMPDEST PUSH1 0x0 PUSH2 0xE9A DUP3 PUSH2 0xE2F JUMP JUMPDEST PUSH2 0xEA4 DUP2 DUP6 PUSH2 0xE3A JUMP JUMPDEST SWAP4 POP PUSH2 0xEAF DUP4 PUSH2 0xE4B JUMP JUMPDEST DUP1 PUSH1 0x0 JUMPDEST DUP4 DUP2 LT ISZERO PUSH2 0xEE0 JUMPI DUP2 MLOAD PUSH2 0xEC7 DUP9 DUP3 PUSH2 0xE6A JUMP JUMPDEST SWAP8 POP PUSH2 0xED2 DUP4 PUSH2 0xE82 JUMP JUMPDEST SWAP3 POP POP PUSH1 0x1 DUP2 ADD SWAP1 POP PUSH2 0xEB3 JUMP JUMPDEST POP DUP6 SWAP4 POP POP POP POP SWAP3 SWAP2 POP POP JUMP JUMPDEST PUSH1 0x0 PUSH1 0x60 DUP3 ADD SWAP1 POP PUSH2 0xF02 PUSH1 0x0 DUP4 ADD DUP7 PUSH2 0xE20 JUMP JUMPDEST DUP2 DUP2 SUB PUSH1 0x20 DUP4 ADD MSTORE PUSH2 0xF14 DUP2 DUP6 PUSH2 0xE8F JUMP JUMPDEST SWAP1 POP PUSH2 0xF23 PUSH1 0x40 DUP4 ADD DUP5 PUSH2 0xDCD JUMP JUMPDEST SWAP5 SWAP4 POP POP POP POP JUMP JUMPDEST PUSH2 0xF34 DUP2 PUSH2 0xBFA JUMP JUMPDEST DUP3 MSTORE POP POP JUMP JUMPDEST PUSH1 0x0 DUP2 MLOAD SWAP1 POP SWAP2 SWAP1 POP JUMP JUMPDEST PUSH1 0x0 DUP3 DUP3 MSTORE PUSH1 0x20 DUP3 ADD SWAP1 POP SWAP3 SWAP2 POP POP JUMP JUMPDEST PUSH1 0x0 DUP2 SWAP1 POP PUSH1 0x20 DUP3 ADD SWAP1 POP SWAP2 SWAP1 POP JUMP JUMPDEST PUSH1 0x0 DUP2 SWAP1 POP SWAP2 SWAP1 POP JUMP JUMPDEST PUSH1 0x0 PUSH2 0xF8B PUSH2 0xF86 PUSH2 0xF81 DUP5 PUSH2 0xABD JUMP JUMPDEST PUSH2 0xF66 JUMP JUMPDEST PUSH2 0xABD JUMP JUMPDEST SWAP1 POP SWAP2 SWAP1 POP JUMP JUMPDEST PUSH1 0x0 PUSH2 0xF9D DUP3 PUSH2 0xF70 JUMP JUMPDEST SWAP1 POP SWAP2 SWAP1 POP JUMP JUMPDEST PUSH1 0x0 PUSH2 0xFAF DUP3 PUSH2 0xF92 JUMP JUMPDEST SWAP1 POP SWAP2 SWAP1 POP JUMP JUMPDEST PUSH2 0xFBF DUP2 PUSH2 0xFA4 JUMP JUMPDEST DUP3 MSTORE POP POP JUMP JUMPDEST PUSH1 0x0 PUSH2 0xFD1 DUP4 DUP4 PUSH2 0xFB6 JUMP JUMPDEST PUSH1 0x20 DUP4 ADD SWAP1 POP SWAP3 SWAP2 POP POP JUMP JUMPDEST PUSH1 0x0 PUSH1 0x20 DUP3 ADD SWAP1 POP SWAP2 SWAP1 POP JUMP JUMPDEST PUSH1 0x0 PUSH2 0xFF5 DUP3 PUSH2 0xF3A JUMP JUMPDEST PUSH2 0xFFF DUP2 DUP6 PUSH2 0xF45 JUMP JUMPDEST SWAP4 POP PUSH2 0x100A DUP4 PUSH2 0xF56 JUMP JUMPDEST DUP1 PUSH1 0x0 JUMPDEST DUP4 DUP2 LT ISZERO PUSH2 0x103B JUMPI DUP2 MLOAD PUSH2 0x1022 DUP9 DUP3 PUSH2 0xFC5 JUMP JUMPDEST SWAP8 POP PUSH2 0x102D DUP4 PUSH2 0xFDD JUMP JUMPDEST SWAP3 POP POP PUSH1 0x1 DUP2 ADD SWAP1 POP PUSH2 0x100E JUMP JUMPDEST POP DUP6 SWAP4 POP POP POP POP SWAP3 SWAP2 POP POP JUMP JUMPDEST PUSH1 0x0 DUP3 DUP3 MSTORE PUSH1 0x20 DUP3 ADD SWAP1 POP SWAP3 SWAP2 POP POP JUMP JUMPDEST PUSH1 0x0 PUSH2 0x1064 DUP3 PUSH2 0xE2F JUMP JUMPDEST PUSH2 0x106E DUP2 DUP6 PUSH2 0x1048 JUMP JUMPDEST SWAP4 POP PUSH2 0x1079 DUP4 PUSH2 0xE4B JUMP JUMPDEST DUP1 PUSH1 0x0 JUMPDEST DUP4 DUP2 LT ISZERO PUSH2 0x10AA JUMPI DUP2 MLOAD PUSH2 0x1091 DUP9 DUP3 PUSH2 0xE6A JUMP JUMPDEST SWAP8 POP PUSH2 0x109C DUP4 PUSH2 0xE82 JUMP JUMPDEST SWAP3 POP POP PUSH1 0x1 DUP2 ADD SWAP1 POP PUSH2 0x107D JUMP JUMPDEST POP DUP6 SWAP4 POP POP POP POP SWAP3 SWAP2 POP POP JUMP JUMPDEST PUSH1 0x0 DUP2 MLOAD SWAP1 POP SWAP2 SWAP1 POP JUMP JUMPDEST PUSH1 0x0 DUP3 DUP3 MSTORE PUSH1 0x20 DUP3 ADD SWAP1 POP SWAP3 SWAP2 POP POP JUMP JUMPDEST PUSH1 0x0 JUMPDEST DUP4 DUP2 LT ISZERO PUSH2 0x10F1 JUMPI DUP1 DUP3 ADD MLOAD DUP2 DUP5 ADD MSTORE PUSH1 0x20 DUP2 ADD SWAP1 POP PUSH2 0x10D6 JUMP JUMPDEST DUP4 DUP2 GT ISZERO PUSH2 0x1100 JUMPI PUSH1 0x0 DUP5 DUP5 ADD MSTORE JUMPDEST POP POP POP POP JUMP JUMPDEST PUSH1 0x0 PUSH2 0x1111 DUP3 PUSH2 0x10B7 JUMP JUMPDEST PUSH2 0x111B DUP2 DUP6 PUSH2 0x10C2 JUMP JUMPDEST SWAP4 POP PUSH2 0x112B DUP2 DUP6 PUSH1 0x20 DUP7 ADD PUSH2 0x10D3 JUMP JUMPDEST PUSH2 0x1134 DUP2 PUSH2 0x9F6 JUMP JUMPDEST DUP5 ADD SWAP2 POP POP SWAP3 SWAP2 POP POP JUMP JUMPDEST PUSH1 0x0 DUP2 ISZERO ISZERO SWAP1 POP SWAP2 SWAP1 POP JUMP JUMPDEST PUSH2 0x1154 DUP2 PUSH2 0x113F JUMP JUMPDEST DUP3 MSTORE POP POP JUMP JUMPDEST PUSH1 0x0 PUSH1 0x80 DUP4 ADD PUSH1 0x0 DUP4 ADD MLOAD DUP5 DUP3 SUB PUSH1 0x0 DUP7 ADD MSTORE PUSH2 0x1177 DUP3 DUP3 PUSH2 0xFEA JUMP JUMPDEST SWAP2 POP POP PUSH1 0x20 DUP4 ADD MLOAD DUP5 DUP3 SUB PUSH1 0x20 DUP7 ADD MSTORE PUSH2 0x1191 DUP3 DUP3 PUSH2 0x1059 JUMP JUMPDEST SWAP2 POP POP PUSH1 0x40 DUP4 ADD MLOAD DUP5 DUP3 SUB PUSH1 0x40 DUP7 ADD MSTORE PUSH2 0x11AB DUP3 DUP3 PUSH2 0x1106 JUMP JUMPDEST SWAP2 POP POP PUSH1 0x60 DUP4 ADD MLOAD PUSH2 0x11C0 PUSH1 0x60 DUP7 ADD DUP3 PUSH2 0x114B JUMP JUMPDEST POP DUP1 SWAP2 POP POP SWAP3 SWAP2 POP POP JUMP JUMPDEST PUSH1 0x0 PUSH1 0x80 DUP3 ADD SWAP1 POP PUSH2 0x11E0 PUSH1 0x0 DUP4 ADD DUP8 PUSH2 0xF2B JUMP JUMPDEST PUSH2 0x11ED PUSH1 0x20 DUP4 ADD DUP7 PUSH2 0xD74 JUMP JUMPDEST PUSH2 0x11FA PUSH1 0x40 DUP4 ADD DUP6 PUSH2 0xD74 JUMP JUMPDEST DUP2 DUP2 SUB PUSH1 0x60 DUP4 ADD MSTORE PUSH2 0x120C DUP2 DUP5 PUSH2 0x115A JUMP JUMPDEST SWAP1 POP SWAP6 SWAP5 POP POP POP POP POP JUMP JUMPDEST PUSH1 0x0 DUP2 MLOAD SWAP1 POP PUSH2 0x1226 DUP2 PUSH2 0xBCE JUMP JUMPDEST SWAP3 SWAP2 POP POP JUMP JUMPDEST PUSH1 0x0 PUSH1 0x20 DUP3 DUP5 SUB SLT ISZERO PUSH2 0x1242 JUMPI PUSH2 0x1241 PUSH2 0x9E7 JUMP JUMPDEST JUMPDEST PUSH1 0x0 PUSH2 0x1250 DUP5 DUP3 DUP6 ADD PUSH2 0x1217 JUMP JUMPDEST SWAP2 POP POP SWAP3 SWAP2 POP POP JUMP JUMPDEST PUSH2 0x1262 DUP2 PUSH2 0x113F JUMP JUMPDEST DUP2 EQ PUSH2 0x126D JUMPI PUSH1 0x0 DUP1 REVERT JUMPDEST POP JUMP JUMPDEST PUSH1 0x0 DUP2 MLOAD SWAP1 POP PUSH2 0x127F DUP2 PUSH2 0x1259 JUMP JUMPDEST SWAP3 SWAP2 POP POP JUMP JUMPDEST PUSH1 0x0 PUSH1 0x20 DUP3 DUP5 SUB SLT ISZERO PUSH2 0x129B JUMPI PUSH2 0x129A PUSH2 0x9E7 JUMP JUMPDEST JUMPDEST PUSH1 0x0 PUSH2 0x12A9 DUP5 DUP3 DUP6 ADD PUSH2 0x1270 JUMP JUMPDEST SWAP2 POP POP SWAP3 SWAP2 POP POP JUMP JUMPDEST PUSH1 0x0 DUP3 DUP3 MSTORE PUSH1 0x20 DUP3 ADD SWAP1 POP SWAP3 SWAP2 POP POP JUMP JUMPDEST PUSH32 0x5361666545524332303A204552433230206F7065726174696F6E20646964206E PUSH1 0x0 DUP3 ADD MSTORE PUSH32 0x6F74207375636365656400000000000000000000000000000000000000000000 PUSH1 0x20 DUP3 ADD MSTORE POP JUMP JUMPDEST PUSH1 0x0 PUSH2 0x131F PUSH1 0x2A DUP4 PUSH2 0x12B2 JUMP JUMPDEST SWAP2 POP PUSH2 0x132A DUP3 PUSH2 0x12C3 JUMP JUMPDEST PUSH1 0x40 DUP3 ADD SWAP1 POP SWAP2 SWAP1 POP JUMP JUMPDEST PUSH1 0x0 PUSH1 0x20 DUP3 ADD SWAP1 POP DUP2 DUP2 SUB PUSH1 0x0 DUP4 ADD MSTORE PUSH2 0x134E DUP2 PUSH2 0x1312 JUMP JUMPDEST SWAP1 POP SWAP2 SWAP1 POP JUMP JUMPDEST PUSH1 0x0 PUSH1 0x40 DUP3 ADD SWAP1 POP PUSH2 0x136A PUSH1 0x0 DUP4 ADD DUP6 PUSH2 0xD74 JUMP JUMPDEST PUSH2 0x1377 PUSH1 0x20 DUP4 ADD DUP5 PUSH2 0xD74 JUMP JUMPDEST SWAP4 SWAP3 POP POP POP JUMP JUMPDEST PUSH32 0x4E487B7100000000000000000000000000000000000000000000000000000000 PUSH1 0x0 MSTORE PUSH1 0x11 PUSH1 0x4 MSTORE PUSH1 0x24 PUSH1 0x0 REVERT JUMPDEST PUSH1 0x0 PUSH2 0x13B8 DUP3 PUSH2 0xBC4 JUMP JUMPDEST SWAP2 POP PUSH2 0x13C3 DUP4 PUSH2 0xBC4 JUMP JUMPDEST SWAP3 POP DUP3 PUSH32 0xFFFFFFFFFFFFFFFFFFFFFFFFFFFFFFFFFFFFFFFFFFFFFFFFFFFFFFFFFFFFFFFF SUB DUP3 GT ISZERO PUSH2 0x13F8 JUMPI PUSH2 0x13F7 PUSH2 0x137E JUMP JUMPDEST JUMPDEST DUP3 DUP3 ADD SWAP1 POP SWAP3 SWAP2 POP POP JUMP JUMPDEST PUSH1 0x0 PUSH1 0x40 DUP3 ADD SWAP1 POP PUSH2 0x1418 PUSH1 0x0 DUP4 ADD DUP6 PUSH2 0xD74 JUMP JUMPDEST PUSH2 0x1425 PUSH1 0x20 DUP4 ADD DUP5 PUSH2 0xDCD JUMP JUMPDEST SWAP4 SWAP3 POP POP POP JUMP JUMPDEST PUSH32 0x416464726573733A20696E73756666696369656E742062616C616E636520666F PUSH1 0x0 DUP3 ADD MSTORE PUSH32 0x722063616C6C0000000000000000000000000000000000000000000000000000 PUSH1 0x20 DUP3 ADD MSTORE POP JUMP JUMPDEST PUSH1 0x0 PUSH2 0x1488 PUSH1 0x26 DUP4 PUSH2 0x12B2 JUMP JUMPDEST SWAP2 POP PUSH2 0x1493 DUP3 PUSH2 0x142C JUMP JUMPDEST PUSH1 0x40 DUP3 ADD SWAP1 POP SWAP2 SWAP1 POP JUMP JUMPDEST PUSH1 0x0 PUSH1 0x20 DUP3 ADD SWAP1 POP DUP2 DUP2 SUB PUSH1 0x0 DUP4 ADD MSTORE PUSH2 0x14B7 DUP2 PUSH2 0x147B JUMP JUMPDEST SWAP1 POP SWAP2 SWAP1 POP JUMP JUMPDEST PUSH32 0x416464726573733A2063616C6C20746F206E6F6E2D636F6E7472616374000000 PUSH1 0x0 DUP3 ADD MSTORE POP JUMP JUMPDEST PUSH1 0x0 PUSH2 0x14F4 PUSH1 0x1D DUP4 PUSH2 0x12B2 JUMP JUMPDEST SWAP2 POP PUSH2 0x14FF DUP3 PUSH2 0x14BE JUMP JUMPDEST PUSH1 0x20 DUP3 ADD SWAP1 POP SWAP2 SWAP1 POP JUMP JUMPDEST PUSH1 0x0 PUSH1 0x20 DUP3 ADD SWAP1 POP DUP2 DUP2 SUB PUSH1 0x0 DUP4 ADD MSTORE PUSH2 0x1523 DUP2 PUSH2 0x14E7 JUMP JUMPDEST SWAP1 POP SWAP2 SWAP1 POP JUMP JUMPDEST PUSH1 0x0 DUP2 SWAP1 POP SWAP3 SWAP2 POP POP JUMP JUMPDEST PUSH1 0x0 PUSH2 0x1540 DUP3 PUSH2 0x10B7 JUMP JUMPDEST PUSH2 0x154A DUP2 DUP6 PUSH2 0x152A JUMP JUMPDEST SWAP4 POP PUSH2 0x155A DUP2 DUP6 PUSH1 0x20 DUP7 ADD PUSH2 0x10D3 JUMP JUMPDEST DUP1 DUP5 ADD SWAP2 POP POP SWAP3 SWAP2 POP POP JUMP JUMPDEST PUSH1 0x0 PUSH2 0x1572 DUP3 DUP5 PUSH2 0x1535 JUMP JUMPDEST SWAP2 POP DUP2 SWAP1 POP SWAP3 SWAP2 POP POP JUMP JUMPDEST PUSH1 0x0 DUP2 MLOAD SWAP1 POP SWAP2 SWAP1 POP JUMP JUMPDEST PUSH1 0x0 PUSH2 0x1593 DUP3 PUSH2 0x157D JUMP JUMPDEST PUSH2 0x159D DUP2 DUP6 PUSH2 0x12B2 JUMP JUMPDEST SWAP4 POP PUSH2 0x15AD DUP2 DUP6 PUSH1 0x20 DUP7 ADD PUSH2 0x10D3 JUMP JUMPDEST PUSH2 0x15B6 DUP2 PUSH2 0x9F6 JUMP JUMPDEST DUP5 ADD SWAP2 POP POP SWAP3 SWAP2 POP POP JUMP JUMPDEST PUSH1 0x0 PUSH1 0x20 DUP3 ADD SWAP1 POP DUP2 DUP2 SUB PUSH1 0x0 DUP4 ADD MSTORE PUSH2 0x15DB DUP2 DUP5 PUSH2 0x1588 JUMP JUMPDEST SWAP1 POP SWAP3 SWAP2 POP POP JUMP INVALID LOG2 PUSH5 0x6970667358 0x22 SLT KECCAK256 MOD XOR SWAP8 SWAP8 0xD4 0xB7 JUMP 0xD9 0xDA SWAP10 DUP12 COINBASE 0xEE 0xAD 0x22 PUSH32 0x9F43A87AF3EDC622510E453B2A100CBD64736F6C634300080D00330000000000 "
				},
				"gasEstimates": {
					"creation": {
						"codeDepositCost": "1131400",
						"executionCost": "infinite",
						"totalCost": "infinite"
					},
					"external": {
						"balVault()": "infinite",
						"routeDeposit((address[],uint256,bytes32,address,address,address),uint256)": "infinite",
						"singleSideDeposit((address[],uint256,bytes32,address,address,address),uint256)": "infinite"
					},
					"internal": {
						"_approveIfNeeded(address,address)": "infinite",
						"_depositLPToVault(address,address,address)": "infinite",
						"_joinPool(contract IAsset[] memory,uint256,uint256,bytes32)": "infinite"
					}
				},
				"methodIdentifiers": {
					"balVault()": "77aba213",
					"routeDeposit((address[],uint256,bytes32,address,address,address),uint256)": "11ffbf3c",
					"singleSideDeposit((address[],uint256,bytes32,address,address,address),uint256)": "81144563"
				}
			},
			"storageLayout": {
				"storage": [],
				"types": null
			},
			"userdoc": {
				"kind": "user",
				"methods": {},
				"version": 1
			}
		}
	}
}