{
	"SuperDepositor.sol": {
		"BeetsHelper": {
			"abi": [
				{
					"inputs": [
						{
							"internalType": "address",
							"name": "_balVault",
							"type": "address"
						}
					],
					"stateMutability": "nonpayable",
					"type": "constructor"
				},
				{
					"inputs": [
						{
							"components": [
								{
									"internalType": "contract IAsset[]",
									"name": "underlyings",
									"type": "address[]"
								},
								{
									"internalType": "uint256",
									"name": "tokenIndex",
									"type": "uint256"
								},
								{
									"internalType": "bytes32",
									"name": "beetsPoolId",
									"type": "bytes32"
								},
								{
									"internalType": "address",
									"name": "lpToken",
									"type": "address"
								},
								{
									"internalType": "address",
									"name": "vault",
									"type": "address"
								},
								{
									"internalType": "address",
									"name": "recipient",
									"type": "address"
								}
							],
							"internalType": "struct BeetsHelper.VaultParams",
							"name": "details",
							"type": "tuple"
						},
						{
							"internalType": "uint256",
							"name": "amount",
							"type": "uint256"
						}
					],
					"name": "_singleSideDeposit",
					"outputs": [],
					"stateMutability": "nonpayable",
					"type": "function"
				},
				{
					"inputs": [
						{
							"components": [
								{
									"internalType": "contract IAsset[]",
									"name": "underlyings",
									"type": "address[]"
								},
								{
									"internalType": "uint256",
									"name": "tokenIndex",
									"type": "uint256"
								},
								{
									"internalType": "bytes32",
									"name": "beetsPoolId",
									"type": "bytes32"
								},
								{
									"internalType": "address",
									"name": "lpToken",
									"type": "address"
								},
								{
									"internalType": "address",
									"name": "vault",
									"type": "address"
								},
								{
									"internalType": "address",
									"name": "recipient",
									"type": "address"
								}
							],
							"internalType": "struct BeetsHelper.VaultParams",
							"name": "details",
							"type": "tuple"
						},
						{
							"internalType": "uint256",
							"name": "amount",
							"type": "uint256"
						}
					],
					"name": "_singleSideWithdraw",
					"outputs": [],
					"stateMutability": "nonpayable",
					"type": "function"
				},
				{
					"inputs": [],
					"name": "balVault",
					"outputs": [
						{
							"internalType": "address",
							"name": "",
							"type": "address"
						}
					],
					"stateMutability": "view",
					"type": "function"
				},
				{
					"inputs": [
						{
							"internalType": "address",
							"name": "tokenIn",
							"type": "address"
						},
						{
							"components": [
								{
									"internalType": "contract IAsset[]",
									"name": "underlyings",
									"type": "address[]"
								},
								{
									"internalType": "uint256",
									"name": "tokenIndex",
									"type": "uint256"
								},
								{
									"internalType": "bytes32",
									"name": "beetsPoolId",
									"type": "bytes32"
								},
								{
									"internalType": "address",
									"name": "lpToken",
									"type": "address"
								},
								{
									"internalType": "address",
									"name": "vault",
									"type": "address"
								},
								{
									"internalType": "address",
									"name": "recipient",
									"type": "address"
								}
							],
							"internalType": "struct BeetsHelper.VaultParams",
							"name": "details",
							"type": "tuple"
						},
						{
							"internalType": "uint256",
							"name": "amount",
							"type": "uint256"
						}
					],
					"name": "routeDeposit",
					"outputs": [],
					"stateMutability": "nonpayable",
					"type": "function"
				}
			],
			"devdoc": {
				"author": "z80 and Eidolon",
				"kind": "dev",
				"methods": {},
				"title": "BeetsHelper",
				"version": 1
			},
			"evm": {
				"assembly": "    /* \"SuperDepositor.sol\":289:5020  contract BeetsHelper {... */\n  mstore(0x40, 0xa0)\n    /* \"SuperDepositor.sol\":910:980  constructor(address _balVault) {... */\n  callvalue\n  dup1\n  iszero\n  tag_1\n  jumpi\n  0x00\n  dup1\n  revert\ntag_1:\n  pop\n  mload(0x40)\n  sub(codesize, bytecodeSize)\n  dup1\n  bytecodeSize\n  dup4\n  codecopy\n  dup2\n  dup2\n  add\n  0x40\n  mstore\n  dup2\n  add\n  swap1\n  tag_2\n  swap2\n  swap1\n  tag_3\n  jump\t// in\ntag_2:\n    /* \"SuperDepositor.sol\":963:972  _balVault */\n  dup1\n    /* \"SuperDepositor.sol\":952:972  balVault = _balVault */\n  0xffffffffffffffffffffffffffffffffffffffff\n  and\n  0x80\n  dup2\n  0xffffffffffffffffffffffffffffffffffffffff\n  and\n  dup2\n  mstore\n  pop\n  pop\n    /* \"SuperDepositor.sol\":910:980  constructor(address _balVault) {... */\n  pop\n    /* \"SuperDepositor.sol\":289:5020  contract BeetsHelper {... */\n  jump(tag_6)\n    /* \"#utility.yul\":88:205   */\ntag_8:\n    /* \"#utility.yul\":197:198   */\n  0x00\n    /* \"#utility.yul\":194:195   */\n  dup1\n    /* \"#utility.yul\":187:199   */\n  revert\n    /* \"#utility.yul\":334:460   */\ntag_10:\n    /* \"#utility.yul\":371:378   */\n  0x00\n    /* \"#utility.yul\":411:453   */\n  0xffffffffffffffffffffffffffffffffffffffff\n    /* \"#utility.yul\":404:409   */\n  dup3\n    /* \"#utility.yul\":400:454   */\n  and\n    /* \"#utility.yul\":389:454   */\n  swap1\n  pop\n    /* \"#utility.yul\":334:460   */\n  swap2\n  swap1\n  pop\n  jump\t// out\n    /* \"#utility.yul\":466:562   */\ntag_11:\n    /* \"#utility.yul\":503:510   */\n  0x00\n    /* \"#utility.yul\":532:556   */\n  tag_20\n    /* \"#utility.yul\":550:555   */\n  dup3\n    /* \"#utility.yul\":532:556   */\n  tag_10\n  jump\t// in\ntag_20:\n    /* \"#utility.yul\":521:556   */\n  swap1\n  pop\n    /* \"#utility.yul\":466:562   */\n  swap2\n  swap1\n  pop\n  jump\t// out\n    /* \"#utility.yul\":568:690   */\ntag_12:\n    /* \"#utility.yul\":641:665   */\n  tag_22\n    /* \"#utility.yul\":659:664   */\n  dup2\n    /* \"#utility.yul\":641:665   */\n  tag_11\n  jump\t// in\ntag_22:\n    /* \"#utility.yul\":634:639   */\n  dup2\n    /* \"#utility.yul\":631:666   */\n  eq\n    /* \"#utility.yul\":621:684   */\n  tag_23\n  jumpi\n    /* \"#utility.yul\":680:681   */\n  0x00\n    /* \"#utility.yul\":677:678   */\n  dup1\n    /* \"#utility.yul\":670:682   */\n  revert\n    /* \"#utility.yul\":621:684   */\ntag_23:\n    /* \"#utility.yul\":568:690   */\n  pop\n  jump\t// out\n    /* \"#utility.yul\":696:839   */\ntag_13:\n    /* \"#utility.yul\":753:758   */\n  0x00\n    /* \"#utility.yul\":784:790   */\n  dup2\n    /* \"#utility.yul\":778:791   */\n  mload\n    /* \"#utility.yul\":769:791   */\n  swap1\n  pop\n    /* \"#utility.yul\":800:833   */\n  tag_25\n    /* \"#utility.yul\":827:832   */\n  dup2\n    /* \"#utility.yul\":800:833   */\n  tag_12\n  jump\t// in\ntag_25:\n    /* \"#utility.yul\":696:839   */\n  swap3\n  swap2\n  pop\n  pop\n  jump\t// out\n    /* \"#utility.yul\":845:1196   */\ntag_3:\n    /* \"#utility.yul\":915:921   */\n  0x00\n    /* \"#utility.yul\":964:966   */\n  0x20\n    /* \"#utility.yul\":952:961   */\n  dup3\n    /* \"#utility.yul\":943:950   */\n  dup5\n    /* \"#utility.yul\":939:962   */\n  sub\n    /* \"#utility.yul\":935:967   */\n  slt\n    /* \"#utility.yul\":932:1051   */\n  iszero\n  tag_27\n  jumpi\n    /* \"#utility.yul\":970:1049   */\n  tag_28\n  tag_8\n  jump\t// in\ntag_28:\n    /* \"#utility.yul\":932:1051   */\ntag_27:\n    /* \"#utility.yul\":1090:1091   */\n  0x00\n    /* \"#utility.yul\":1115:1179   */\n  tag_29\n    /* \"#utility.yul\":1171:1178   */\n  dup5\n    /* \"#utility.yul\":1162:1168   */\n  dup3\n    /* \"#utility.yul\":1151:1160   */\n  dup6\n    /* \"#utility.yul\":1147:1169   */\n  add\n    /* \"#utility.yul\":1115:1179   */\n  tag_13\n  jump\t// in\ntag_29:\n    /* \"#utility.yul\":1105:1179   */\n  swap2\n  pop\n    /* \"#utility.yul\":1061:1189   */\n  pop\n    /* \"#utility.yul\":845:1196   */\n  swap3\n  swap2\n  pop\n  pop\n  jump\t// out\n    /* \"SuperDepositor.sol\":289:5020  contract BeetsHelper {... */\ntag_6:\n  mload(0x80)\n  codecopy(0x00, dataOffset(sub_0), dataSize(sub_0))\n  0x00\n  assignImmutable(\"0xf3c94672c9097e8255317de36dd0d00a9f72d57eeb896861f583a1140be6889a\")\n  return(0x00, dataSize(sub_0))\nstop\n\nsub_0: assembly {\n        /* \"SuperDepositor.sol\":289:5020  contract BeetsHelper {... */\n      mstore(0x40, 0x80)\n      callvalue\n      dup1\n      iszero\n      tag_1\n      jumpi\n      0x00\n      dup1\n      revert\n    tag_1:\n      pop\n      jumpi(tag_2, lt(calldatasize, 0x04))\n      shr(0xe0, calldataload(0x00))\n      dup1\n      0x0e6335e6\n      eq\n      tag_3\n      jumpi\n      dup1\n      0x77aba213\n      eq\n      tag_4\n      jumpi\n      dup1\n      0x9cbcf4c7\n      eq\n      tag_5\n      jumpi\n      dup1\n      0xbfbd3808\n      eq\n      tag_6\n      jumpi\n    tag_2:\n      0x00\n      dup1\n      revert\n        /* \"SuperDepositor.sol\":1961:2332  function _singleSideWithdraw(VaultParams memory details, uint256 amount) public {... */\n    tag_3:\n      tag_7\n      0x04\n      dup1\n      calldatasize\n      sub\n      dup2\n      add\n      swap1\n      tag_8\n      swap2\n      swap1\n      tag_9\n      jump\t// in\n    tag_8:\n      tag_10\n      jump\t// in\n    tag_7:\n      stop\n        /* \"SuperDepositor.sol\":376:409  address public immutable balVault */\n    tag_4:\n      tag_11\n      tag_12\n      jump\t// in\n    tag_11:\n      mload(0x40)\n      tag_13\n      swap2\n      swap1\n      tag_14\n      jump\t// in\n    tag_13:\n      mload(0x40)\n      dup1\n      swap2\n      sub\n      swap1\n      return\n        /* \"SuperDepositor.sol\":988:1481  function routeDeposit(address tokenIn, VaultParams memory details, uint256 amount) public {... */\n    tag_5:\n      tag_15\n      0x04\n      dup1\n      calldatasize\n      sub\n      dup2\n      add\n      swap1\n      tag_16\n      swap2\n      swap1\n      tag_17\n      jump\t// in\n    tag_16:\n      tag_18\n      jump\t// in\n    tag_15:\n      stop\n        /* \"SuperDepositor.sol\":1489:1953  function _singleSideDeposit(VaultParams memory details, uint256 amount) public {... */\n    tag_6:\n      tag_19\n      0x04\n      dup1\n      calldatasize\n      sub\n      dup2\n      add\n      swap1\n      tag_20\n      swap2\n      swap1\n      tag_9\n      jump\t// in\n    tag_20:\n      tag_21\n      jump\t// in\n    tag_19:\n      stop\n        /* \"SuperDepositor.sol\":1961:2332  function _singleSideWithdraw(VaultParams memory details, uint256 amount) public {... */\n    tag_10:\n        /* \"SuperDepositor.sol\":2052:2080  IERC20Upgradeable inputToken */\n      0x00\n        /* \"SuperDepositor.sol\":2101:2108  details */\n      dup3\n        /* \"SuperDepositor.sol\":2101:2114  details.vault */\n      0x80\n      add\n      mload\n        /* \"SuperDepositor.sol\":2052:2115  IERC20Upgradeable inputToken = IERC20Upgradeable(details.vault) */\n      swap1\n      pop\n        /* \"SuperDepositor.sol\":2126:2188  inputToken.safeTransferFrom(msg.sender, address(this), amount) */\n      tag_23\n        /* \"SuperDepositor.sol\":2154:2164  msg.sender */\n      caller\n        /* \"SuperDepositor.sol\":2174:2178  this */\n      address\n        /* \"SuperDepositor.sol\":2181:2187  amount */\n      dup5\n        /* \"SuperDepositor.sol\":2126:2136  inputToken */\n      dup5\n        /* \"SuperDepositor.sol\":2126:2153  inputToken.safeTransferFrom */\n      0xffffffffffffffffffffffffffffffffffffffff\n      and\n      tag_24\n      swap1\n        /* \"SuperDepositor.sol\":2126:2188  inputToken.safeTransferFrom(msg.sender, address(this), amount) */\n      swap4\n      swap3\n      swap2\n      swap1\n      0xffffffff\n      and\n      jump\t// in\n    tag_23:\n        /* \"SuperDepositor.sol\":2206:2213  details */\n      dup3\n        /* \"SuperDepositor.sol\":2206:2219  details.vault */\n      0x80\n      add\n      mload\n        /* \"SuperDepositor.sol\":2199:2232  IVault(details.vault).withdrawAll */\n      0xffffffffffffffffffffffffffffffffffffffff\n      and\n      0x853828b6\n        /* \"SuperDepositor.sol\":2199:2234  IVault(details.vault).withdrawAll() */\n      mload(0x40)\n      dup2\n      0xffffffff\n      and\n      0xe0\n      shl\n      dup2\n      mstore\n      0x04\n      add\n      0x00\n      mload(0x40)\n      dup1\n      dup4\n      sub\n      dup2\n      0x00\n      dup8\n      dup1\n      extcodesize\n      iszero\n      dup1\n      iszero\n      tag_25\n      jumpi\n      0x00\n      dup1\n      revert\n    tag_25:\n      pop\n      gas\n      call\n      iszero\n      dup1\n      iszero\n      tag_27\n      jumpi\n      returndatasize\n      0x00\n      dup1\n      returndatacopy\n      revert(0x00, returndatasize)\n    tag_27:\n      pop\n      pop\n      pop\n      pop\n        /* \"SuperDepositor.sol\":2245:2324  _exitPool(details.underlyings, amount, details.tokenIndex, details.beetsPoolId) */\n      tag_28\n        /* \"SuperDepositor.sol\":2255:2262  details */\n      dup4\n        /* \"SuperDepositor.sol\":2255:2274  details.underlyings */\n      0x00\n      add\n      mload\n        /* \"SuperDepositor.sol\":2276:2282  amount */\n      dup4\n        /* \"SuperDepositor.sol\":2284:2291  details */\n      dup6\n        /* \"SuperDepositor.sol\":2284:2302  details.tokenIndex */\n      0x20\n      add\n      mload\n        /* \"SuperDepositor.sol\":2304:2311  details */\n      dup7\n        /* \"SuperDepositor.sol\":2304:2323  details.beetsPoolId */\n      0x40\n      add\n      mload\n        /* \"SuperDepositor.sol\":2245:2254  _exitPool */\n      tag_29\n        /* \"SuperDepositor.sol\":2245:2324  _exitPool(details.underlyings, amount, details.tokenIndex, details.beetsPoolId) */\n      jump\t// in\n    tag_28:\n        /* \"SuperDepositor.sol\":2041:2332  {... */\n      pop\n        /* \"SuperDepositor.sol\":1961:2332  function _singleSideWithdraw(VaultParams memory details, uint256 amount) public {... */\n      pop\n      pop\n      jump\t// out\n        /* \"SuperDepositor.sol\":376:409  address public immutable balVault */\n    tag_12:\n      immutable(\"0xf3c94672c9097e8255317de36dd0d00a9f72d57eeb896861f583a1140be6889a\")\n      dup2\n      jump\t// out\n        /* \"SuperDepositor.sol\":988:1481  function routeDeposit(address tokenIn, VaultParams memory details, uint256 amount) public {... */\n    tag_18:\n        /* \"SuperDepositor.sol\":1216:1236  address depositToken */\n      0x00\n        /* \"SuperDepositor.sol\":1247:1254  details */\n      dup3\n        /* \"SuperDepositor.sol\":1247:1266  details.underlyings */\n      0x00\n      add\n      mload\n        /* \"SuperDepositor.sol\":1267:1274  details */\n      dup4\n        /* \"SuperDepositor.sol\":1267:1285  details.tokenIndex */\n      0x20\n      add\n      mload\n        /* \"SuperDepositor.sol\":1247:1286  details.underlyings[details.tokenIndex] */\n      dup2\n      mload\n      dup2\n      lt\n      tag_31\n      jumpi\n      tag_32\n      tag_33\n      jump\t// in\n    tag_32:\n    tag_31:\n      0x20\n      mul\n      0x20\n      add\n      add\n      mload\n        /* \"SuperDepositor.sol\":1216:1287  address depositToken = address(details.underlyings[details.tokenIndex]) */\n      swap1\n      pop\n        /* \"SuperDepositor.sol\":1312:1324  depositToken */\n      dup1\n        /* \"SuperDepositor.sol\":1301:1324  tokenIn == depositToken */\n      0xffffffffffffffffffffffffffffffffffffffff\n      and\n        /* \"SuperDepositor.sol\":1301:1308  tokenIn */\n      dup5\n        /* \"SuperDepositor.sol\":1301:1324  tokenIn == depositToken */\n      0xffffffffffffffffffffffffffffffffffffffff\n      and\n      sub\n        /* \"SuperDepositor.sol\":1298:1464  if(tokenIn == depositToken){... */\n      tag_34\n      jumpi\n        /* \"SuperDepositor.sol\":1340:1375  _singleSideDeposit(details, amount) */\n      tag_35\n        /* \"SuperDepositor.sol\":1359:1366  details */\n      dup4\n        /* \"SuperDepositor.sol\":1368:1374  amount */\n      dup4\n        /* \"SuperDepositor.sol\":1340:1358  _singleSideDeposit */\n      tag_21\n        /* \"SuperDepositor.sol\":1340:1375  _singleSideDeposit(details, amount) */\n      jump\t// in\n    tag_35:\n        /* \"SuperDepositor.sol\":1298:1464  if(tokenIn == depositToken){... */\n      jump(tag_36)\n    tag_34:\n    tag_36:\n        /* \"SuperDepositor.sol\":1078:1481  {... */\n      pop\n        /* \"SuperDepositor.sol\":988:1481  function routeDeposit(address tokenIn, VaultParams memory details, uint256 amount) public {... */\n      pop\n      pop\n      pop\n      jump\t// out\n        /* \"SuperDepositor.sol\":1489:1953  function _singleSideDeposit(VaultParams memory details, uint256 amount) public {... */\n    tag_21:\n        /* \"SuperDepositor.sol\":1579:1607  IERC20Upgradeable inputToken */\n      0x00\n        /* \"SuperDepositor.sol\":1636:1643  details */\n      dup3\n        /* \"SuperDepositor.sol\":1636:1655  details.underlyings */\n      0x00\n      add\n      mload\n        /* \"SuperDepositor.sol\":1656:1663  details */\n      dup4\n        /* \"SuperDepositor.sol\":1656:1674  details.tokenIndex */\n      0x20\n      add\n      mload\n        /* \"SuperDepositor.sol\":1636:1675  details.underlyings[details.tokenIndex] */\n      dup2\n      mload\n      dup2\n      lt\n      tag_38\n      jumpi\n      tag_39\n      tag_33\n      jump\t// in\n    tag_39:\n    tag_38:\n      0x20\n      mul\n      0x20\n      add\n      add\n      mload\n        /* \"SuperDepositor.sol\":1579:1677  IERC20Upgradeable inputToken = IERC20Upgradeable(address(details.underlyings[details.tokenIndex])) */\n      swap1\n      pop\n        /* \"SuperDepositor.sol\":1688:1750  inputToken.safeTransferFrom(msg.sender, address(this), amount) */\n      tag_40\n        /* \"SuperDepositor.sol\":1716:1726  msg.sender */\n      caller\n        /* \"SuperDepositor.sol\":1736:1740  this */\n      address\n        /* \"SuperDepositor.sol\":1743:1749  amount */\n      dup5\n        /* \"SuperDepositor.sol\":1688:1698  inputToken */\n      dup5\n        /* \"SuperDepositor.sol\":1688:1715  inputToken.safeTransferFrom */\n      0xffffffffffffffffffffffffffffffffffffffff\n      and\n      tag_24\n      swap1\n        /* \"SuperDepositor.sol\":1688:1750  inputToken.safeTransferFrom(msg.sender, address(this), amount) */\n      swap4\n      swap3\n      swap2\n      swap1\n      0xffffffff\n      and\n      jump\t// in\n    tag_40:\n        /* \"SuperDepositor.sol\":1761:1840  _joinPool(details.underlyings, amount, details.tokenIndex, details.beetsPoolId) */\n      tag_41\n        /* \"SuperDepositor.sol\":1771:1778  details */\n      dup4\n        /* \"SuperDepositor.sol\":1771:1790  details.underlyings */\n      0x00\n      add\n      mload\n        /* \"SuperDepositor.sol\":1792:1798  amount */\n      dup4\n        /* \"SuperDepositor.sol\":1800:1807  details */\n      dup6\n        /* \"SuperDepositor.sol\":1800:1818  details.tokenIndex */\n      0x20\n      add\n      mload\n        /* \"SuperDepositor.sol\":1820:1827  details */\n      dup7\n        /* \"SuperDepositor.sol\":1820:1839  details.beetsPoolId */\n      0x40\n      add\n      mload\n        /* \"SuperDepositor.sol\":1761:1770  _joinPool */\n      tag_42\n        /* \"SuperDepositor.sol\":1761:1840  _joinPool(details.underlyings, amount, details.tokenIndex, details.beetsPoolId) */\n      jump\t// in\n    tag_41:\n        /* \"SuperDepositor.sol\":1877:1945  _depositLPToVault(details.lpToken, details.vault, details.recipient) */\n      tag_43\n        /* \"SuperDepositor.sol\":1895:1902  details */\n      dup4\n        /* \"SuperDepositor.sol\":1895:1910  details.lpToken */\n      0x60\n      add\n      mload\n        /* \"SuperDepositor.sol\":1912:1919  details */\n      dup5\n        /* \"SuperDepositor.sol\":1912:1925  details.vault */\n      0x80\n      add\n      mload\n        /* \"SuperDepositor.sol\":1927:1934  details */\n      dup6\n        /* \"SuperDepositor.sol\":1927:1944  details.recipient */\n      0xa0\n      add\n      mload\n        /* \"SuperDepositor.sol\":1877:1894  _depositLPToVault */\n      tag_44\n        /* \"SuperDepositor.sol\":1877:1945  _depositLPToVault(details.lpToken, details.vault, details.recipient) */\n      jump\t// in\n    tag_43:\n        /* \"SuperDepositor.sol\":1568:1953  {... */\n      pop\n        /* \"SuperDepositor.sol\":1489:1953  function _singleSideDeposit(VaultParams memory details, uint256 amount) public {... */\n      pop\n      pop\n      jump\t// out\n        /* \"@openzeppelin/contracts-upgradeable/token/ERC20/utils/SafeERC20Upgradeable.sol\":967:1219  function safeTransferFrom(... */\n    tag_24:\n        /* \"@openzeppelin/contracts-upgradeable/token/ERC20/utils/SafeERC20Upgradeable.sol\":1116:1212  _callOptionalReturn(token, abi.encodeWithSelector(token.transferFrom.selector, from, to, value)) */\n      tag_46\n        /* \"@openzeppelin/contracts-upgradeable/token/ERC20/utils/SafeERC20Upgradeable.sol\":1136:1141  token */\n      dup5\n        /* \"@openzeppelin/contracts-upgradeable/token/ERC20/utils/SafeERC20Upgradeable.sol\":1166:1193  token.transferFrom.selector */\n      shl(0xe0, 0x23b872dd)\n        /* \"@openzeppelin/contracts-upgradeable/token/ERC20/utils/SafeERC20Upgradeable.sol\":1195:1199  from */\n      dup6\n        /* \"@openzeppelin/contracts-upgradeable/token/ERC20/utils/SafeERC20Upgradeable.sol\":1201:1203  to */\n      dup6\n        /* \"@openzeppelin/contracts-upgradeable/token/ERC20/utils/SafeERC20Upgradeable.sol\":1205:1210  value */\n      dup6\n        /* \"@openzeppelin/contracts-upgradeable/token/ERC20/utils/SafeERC20Upgradeable.sol\":1143:1211  abi.encodeWithSelector(token.transferFrom.selector, from, to, value) */\n      add(0x24, mload(0x40))\n      tag_47\n      swap4\n      swap3\n      swap2\n      swap1\n      tag_48\n      jump\t// in\n    tag_47:\n      mload(0x40)\n      0x20\n      dup2\n      dup4\n      sub\n      sub\n      dup2\n      mstore\n      swap1\n      0x40\n      mstore\n      swap1\n      not(0xffffffffffffffffffffffffffffffffffffffffffffffffffffffff)\n      and\n      0x20\n      dup3\n      add\n      dup1\n      mload\n      0xffffffffffffffffffffffffffffffffffffffffffffffffffffffff\n      dup4\n      dup2\n      dup4\n      and\n      or\n      dup4\n      mstore\n      pop\n      pop\n      pop\n      pop\n        /* \"@openzeppelin/contracts-upgradeable/token/ERC20/utils/SafeERC20Upgradeable.sol\":1116:1135  _callOptionalReturn */\n      tag_49\n        /* \"@openzeppelin/contracts-upgradeable/token/ERC20/utils/SafeERC20Upgradeable.sol\":1116:1212  _callOptionalReturn(token, abi.encodeWithSelector(token.transferFrom.selector, from, to, value)) */\n      jump\t// in\n    tag_46:\n        /* \"@openzeppelin/contracts-upgradeable/token/ERC20/utils/SafeERC20Upgradeable.sol\":967:1219  function safeTransferFrom(... */\n      pop\n      pop\n      pop\n      pop\n      jump\t// out\n        /* \"SuperDepositor.sol\":4075:5015  function _exitPool(IAsset[] memory underlyings, uint256 amtOut, uint256 tokenIndex, bytes32 beetsPoolId) internal {... */\n    tag_29:\n        /* \"SuperDepositor.sol\":4281:4311  uint256[] memory minAmountsOut */\n      0x00\n        /* \"SuperDepositor.sol\":4328:4339  underlyings */\n      dup5\n        /* \"SuperDepositor.sol\":4328:4346  underlyings.length */\n      mload\n        /* \"SuperDepositor.sol\":4314:4347  new uint256[](underlyings.length) */\n      0xffffffffffffffff\n      dup2\n      gt\n      iszero\n      tag_51\n      jumpi\n      tag_52\n      tag_53\n      jump\t// in\n    tag_52:\n    tag_51:\n      mload(0x40)\n      swap1\n      dup1\n      dup3\n      mstore\n      dup1\n      0x20\n      mul\n      0x20\n      add\n      dup3\n      add\n      0x40\n      mstore\n      dup1\n      iszero\n      tag_54\n      jumpi\n      dup2\n      0x20\n      add\n      0x20\n      dup3\n      mul\n      dup1\n      calldatasize\n      dup4\n      calldatacopy\n      dup1\n      dup3\n      add\n      swap2\n      pop\n      pop\n      swap1\n      pop\n    tag_54:\n      pop\n        /* \"SuperDepositor.sol\":4281:4347  uint256[] memory minAmountsOut = new uint256[](underlyings.length) */\n      swap1\n      pop\n        /* \"SuperDepositor.sol\":4386:4392  amtOut */\n      dup4\n        /* \"SuperDepositor.sol\":4358:4371  minAmountsOut */\n      dup2\n        /* \"SuperDepositor.sol\":4372:4382  tokenIndex */\n      dup5\n        /* \"SuperDepositor.sol\":4358:4383  minAmountsOut[tokenIndex] */\n      dup2\n      mload\n      dup2\n      lt\n      tag_55\n      jumpi\n      tag_56\n      tag_33\n      jump\t// in\n    tag_56:\n    tag_55:\n      0x20\n      mul\n      0x20\n      add\n      add\n        /* \"SuperDepositor.sol\":4358:4392  minAmountsOut[tokenIndex] = amtOut */\n      dup2\n      dup2\n      mstore\n      pop\n      pop\n        /* \"SuperDepositor.sol\":4405:4425  uint256 minAmountOut */\n      0x00\n        /* \"SuperDepositor.sol\":4428:4429  1 */\n      0x01\n        /* \"SuperDepositor.sol\":4405:4429  uint256 minAmountOut = 1 */\n      swap1\n      pop\n        /* \"SuperDepositor.sol\":4481:4502  bytes memory userData */\n      0x00\n        /* \"SuperDepositor.sol\":4516:4517  0 */\n      dup1\n        /* \"SuperDepositor.sol\":4518:4531  minAmountsOut */\n      dup4\n        /* \"SuperDepositor.sol\":4533:4545  minAmountOut */\n      dup4\n        /* \"SuperDepositor.sol\":4505:4546  abi.encode(0,minAmountsOut, minAmountOut) */\n      add(0x20, mload(0x40))\n      tag_57\n      swap4\n      swap3\n      swap2\n      swap1\n      tag_58\n      jump\t// in\n    tag_57:\n      mload(0x40)\n      0x20\n      dup2\n      dup4\n      sub\n      sub\n      dup2\n      mstore\n      swap1\n      0x40\n      mstore\n        /* \"SuperDepositor.sol\":4481:4546  bytes memory userData = abi.encode(0,minAmountsOut, minAmountOut) */\n      swap1\n      pop\n        /* \"SuperDepositor.sol\":4559:4600  IBeetVault.ExitPoolRequest memory request */\n      tag_59\n      tag_60\n      jump\t// in\n    tag_59:\n        /* \"SuperDepositor.sol\":4628:4639  underlyings */\n      dup8\n        /* \"SuperDepositor.sol\":4611:4618  request */\n      dup2\n        /* \"SuperDepositor.sol\":4611:4625  request.assets */\n      0x00\n      add\n        /* \"SuperDepositor.sol\":4611:4639  request.assets = underlyings */\n      dup2\n      swap1\n      mstore\n      pop\n        /* \"SuperDepositor.sol\":4674:4687  minAmountsOut */\n      dup4\n        /* \"SuperDepositor.sol\":4650:4657  request */\n      dup2\n        /* \"SuperDepositor.sol\":4650:4671  request.minAmountsOut */\n      0x20\n      add\n        /* \"SuperDepositor.sol\":4650:4687  request.minAmountsOut = minAmountsOut */\n      dup2\n      swap1\n      mstore\n      pop\n        /* \"SuperDepositor.sol\":4717:4725  userData */\n      dup2\n        /* \"SuperDepositor.sol\":4698:4705  request */\n      dup2\n        /* \"SuperDepositor.sol\":4698:4714  request.userData */\n      0x40\n      add\n        /* \"SuperDepositor.sol\":4698:4725  request.userData = userData */\n      dup2\n      swap1\n      mstore\n      pop\n        /* \"SuperDepositor.sol\":4764:4769  false */\n      0x00\n        /* \"SuperDepositor.sol\":4736:4743  request */\n      dup2\n        /* \"SuperDepositor.sol\":4736:4761  request.toInternalBalance */\n      0x60\n      add\n        /* \"SuperDepositor.sol\":4736:4769  request.toInternalBalance = false */\n      swap1\n      iszero\n      iszero\n      swap1\n      dup2\n      iszero\n      iszero\n      dup2\n      mstore\n      pop\n      pop\n        /* \"SuperDepositor.sol\":4896:4904  balVault */\n      immutable(\"0xf3c94672c9097e8255317de36dd0d00a9f72d57eeb896861f583a1140be6889a\")\n        /* \"SuperDepositor.sol\":4885:4914  IBeetVault(balVault).exitPool */\n      0xffffffffffffffffffffffffffffffffffffffff\n      and\n      0x8bdb3913\n        /* \"SuperDepositor.sol\":4915:4926  beetsPoolId */\n      dup7\n        /* \"SuperDepositor.sol\":4936:4940  this */\n      address\n        /* \"SuperDepositor.sol\":4951:4961  msg.sender */\n      caller\n        /* \"SuperDepositor.sol\":4964:4971  request */\n      dup6\n        /* \"SuperDepositor.sol\":4885:4972  IBeetVault(balVault).exitPool(beetsPoolId, address(this), payable(msg.sender), request) */\n      mload(0x40)\n      dup6\n      0xffffffff\n      and\n      0xe0\n      shl\n      dup2\n      mstore\n      0x04\n      add\n      tag_61\n      swap5\n      swap4\n      swap3\n      swap2\n      swap1\n      tag_62\n      jump\t// in\n    tag_61:\n      0x00\n      mload(0x40)\n      dup1\n      dup4\n      sub\n      dup2\n      0x00\n      dup8\n      dup1\n      extcodesize\n      iszero\n      dup1\n      iszero\n      tag_63\n      jumpi\n      0x00\n      dup1\n      revert\n    tag_63:\n      pop\n      gas\n      call\n      iszero\n      dup1\n      iszero\n      tag_65\n      jumpi\n      returndatasize\n      0x00\n      dup1\n      returndatacopy\n      revert(0x00, returndatasize)\n    tag_65:\n      pop\n      pop\n      pop\n      pop\n        /* \"SuperDepositor.sol\":4189:5015  {... */\n      pop\n      pop\n      pop\n      pop\n        /* \"SuperDepositor.sol\":4075:5015  function _exitPool(IAsset[] memory underlyings, uint256 amtOut, uint256 tokenIndex, bytes32 beetsPoolId) internal {... */\n      pop\n      pop\n      pop\n      pop\n      jump\t// out\n        /* \"SuperDepositor.sol\":3149:4067  function _joinPool(IAsset[] memory underlyings, uint256 amtIn, uint256 tokenIndex, bytes32 beetsPoolId) internal {... */\n    tag_42:\n        /* \"SuperDepositor.sol\":3273:3287  uint8 joinKind */\n      0x00\n        /* \"SuperDepositor.sol\":3290:3291  1 */\n      0x01\n        /* \"SuperDepositor.sol\":3273:3291  uint8 joinKind = 1 */\n      swap1\n      pop\n        /* \"SuperDepositor.sol\":3384:3410  uint256[] memory amountsIn */\n      0x00\n        /* \"SuperDepositor.sol\":3427:3438  underlyings */\n      dup6\n        /* \"SuperDepositor.sol\":3427:3445  underlyings.length */\n      mload\n        /* \"SuperDepositor.sol\":3413:3446  new uint256[](underlyings.length) */\n      0xffffffffffffffff\n      dup2\n      gt\n      iszero\n      tag_67\n      jumpi\n      tag_68\n      tag_53\n      jump\t// in\n    tag_68:\n    tag_67:\n      mload(0x40)\n      swap1\n      dup1\n      dup3\n      mstore\n      dup1\n      0x20\n      mul\n      0x20\n      add\n      dup3\n      add\n      0x40\n      mstore\n      dup1\n      iszero\n      tag_69\n      jumpi\n      dup2\n      0x20\n      add\n      0x20\n      dup3\n      mul\n      dup1\n      calldatasize\n      dup4\n      calldatacopy\n      dup1\n      dup3\n      add\n      swap2\n      pop\n      pop\n      swap1\n      pop\n    tag_69:\n      pop\n        /* \"SuperDepositor.sol\":3384:3446  uint256[] memory amountsIn = new uint256[](underlyings.length) */\n      swap1\n      pop\n        /* \"SuperDepositor.sol\":3481:3486  amtIn */\n      dup5\n        /* \"SuperDepositor.sol\":3457:3466  amountsIn */\n      dup2\n        /* \"SuperDepositor.sol\":3467:3477  tokenIndex */\n      dup6\n        /* \"SuperDepositor.sol\":3457:3478  amountsIn[tokenIndex] */\n      dup2\n      mload\n      dup2\n      lt\n      tag_70\n      jumpi\n      tag_71\n      tag_33\n      jump\t// in\n    tag_71:\n    tag_70:\n      0x20\n      mul\n      0x20\n      add\n      add\n        /* \"SuperDepositor.sol\":3457:3486  amountsIn[tokenIndex] = amtIn */\n      dup2\n      dup2\n      mstore\n      pop\n      pop\n        /* \"SuperDepositor.sol\":3499:3519  uint256 minAmountOut */\n      0x00\n        /* \"SuperDepositor.sol\":3522:3523  1 */\n      0x01\n        /* \"SuperDepositor.sol\":3499:3523  uint256 minAmountOut = 1 */\n      swap1\n      pop\n        /* \"SuperDepositor.sol\":3575:3596  bytes memory userData */\n      0x00\n        /* \"SuperDepositor.sol\":3610:3618  joinKind */\n      dup4\n        /* \"SuperDepositor.sol\":3620:3629  amountsIn */\n      dup4\n        /* \"SuperDepositor.sol\":3631:3643  minAmountOut */\n      dup4\n        /* \"SuperDepositor.sol\":3599:3644  abi.encode(joinKind, amountsIn, minAmountOut) */\n      add(0x20, mload(0x40))\n      tag_72\n      swap4\n      swap3\n      swap2\n      swap1\n      tag_73\n      jump\t// in\n    tag_72:\n      mload(0x40)\n      0x20\n      dup2\n      dup4\n      sub\n      sub\n      dup2\n      mstore\n      swap1\n      0x40\n      mstore\n        /* \"SuperDepositor.sol\":3575:3644  bytes memory userData = abi.encode(joinKind, amountsIn, minAmountOut) */\n      swap1\n      pop\n        /* \"SuperDepositor.sol\":3657:3698  IBeetVault.JoinPoolRequest memory request */\n      tag_74\n      tag_75\n      jump\t// in\n    tag_74:\n        /* \"SuperDepositor.sol\":3726:3737  underlyings */\n      dup9\n        /* \"SuperDepositor.sol\":3709:3716  request */\n      dup2\n        /* \"SuperDepositor.sol\":3709:3723  request.assets */\n      0x00\n      add\n        /* \"SuperDepositor.sol\":3709:3737  request.assets = underlyings */\n      dup2\n      swap1\n      mstore\n      pop\n        /* \"SuperDepositor.sol\":3771:3780  amountsIn */\n      dup4\n        /* \"SuperDepositor.sol\":3748:3755  request */\n      dup2\n        /* \"SuperDepositor.sol\":3748:3768  request.maxAmountsIn */\n      0x20\n      add\n        /* \"SuperDepositor.sol\":3748:3780  request.maxAmountsIn = amountsIn */\n      dup2\n      swap1\n      mstore\n      pop\n        /* \"SuperDepositor.sol\":3810:3818  userData */\n      dup2\n        /* \"SuperDepositor.sol\":3791:3798  request */\n      dup2\n        /* \"SuperDepositor.sol\":3791:3807  request.userData */\n      0x40\n      add\n        /* \"SuperDepositor.sol\":3791:3818  request.userData = userData */\n      dup2\n      swap1\n      mstore\n      pop\n        /* \"SuperDepositor.sol\":3859:3864  false */\n      0x00\n        /* \"SuperDepositor.sol\":3829:3836  request */\n      dup2\n        /* \"SuperDepositor.sol\":3829:3856  request.fromInternalBalance */\n      0x60\n      add\n        /* \"SuperDepositor.sol\":3829:3864  request.fromInternalBalance = false */\n      swap1\n      iszero\n      iszero\n      swap1\n      dup2\n      iszero\n      iszero\n      dup2\n      mstore\n      pop\n      pop\n        /* \"SuperDepositor.sol\":3877:3967  IERC20Upgradeable(address(underlyings[tokenIndex])).safeIncreaseAllowance(balVault, amtIn) */\n      tag_76\n        /* \"SuperDepositor.sol\":3951:3959  balVault */\n      immutable(\"0xf3c94672c9097e8255317de36dd0d00a9f72d57eeb896861f583a1140be6889a\")\n        /* \"SuperDepositor.sol\":3961:3966  amtIn */\n      dup10\n        /* \"SuperDepositor.sol\":3903:3914  underlyings */\n      dup12\n        /* \"SuperDepositor.sol\":3915:3925  tokenIndex */\n      dup11\n        /* \"SuperDepositor.sol\":3903:3926  underlyings[tokenIndex] */\n      dup2\n      mload\n      dup2\n      lt\n      tag_77\n      jumpi\n      tag_78\n      tag_33\n      jump\t// in\n    tag_78:\n    tag_77:\n      0x20\n      mul\n      0x20\n      add\n      add\n      mload\n        /* \"SuperDepositor.sol\":3877:3950  IERC20Upgradeable(address(underlyings[tokenIndex])).safeIncreaseAllowance */\n      0xffffffffffffffffffffffffffffffffffffffff\n      and\n      tag_79\n      swap1\n        /* \"SuperDepositor.sol\":3877:3967  IERC20Upgradeable(address(underlyings[tokenIndex])).safeIncreaseAllowance(balVault, amtIn) */\n      swap3\n      swap2\n      swap1\n      0xffffffff\n      and\n      jump\t// in\n    tag_76:\n        /* \"SuperDepositor.sol\":3989:3997  balVault */\n      immutable(\"0xf3c94672c9097e8255317de36dd0d00a9f72d57eeb896861f583a1140be6889a\")\n        /* \"SuperDepositor.sol\":3978:4007  IBeetVault(balVault).joinPool */\n      0xffffffffffffffffffffffffffffffffffffffff\n      and\n      0xb95cac28\n        /* \"SuperDepositor.sol\":4008:4019  beetsPoolId */\n      dup8\n        /* \"SuperDepositor.sol\":4029:4033  this */\n      address\n        /* \"SuperDepositor.sol\":4044:4048  this */\n      address\n        /* \"SuperDepositor.sol\":4051:4058  request */\n      dup6\n        /* \"SuperDepositor.sol\":3978:4059  IBeetVault(balVault).joinPool(beetsPoolId, address(this), address(this), request) */\n      mload(0x40)\n      dup6\n      0xffffffff\n      and\n      0xe0\n      shl\n      dup2\n      mstore\n      0x04\n      add\n      tag_80\n      swap5\n      swap4\n      swap3\n      swap2\n      swap1\n      tag_81\n      jump\t// in\n    tag_80:\n      0x00\n      mload(0x40)\n      dup1\n      dup4\n      sub\n      dup2\n      0x00\n      dup8\n      dup1\n      extcodesize\n      iszero\n      dup1\n      iszero\n      tag_82\n      jumpi\n      0x00\n      dup1\n      revert\n    tag_82:\n      pop\n      gas\n      call\n      iszero\n      dup1\n      iszero\n      tag_84\n      jumpi\n      returndatasize\n      0x00\n      dup1\n      returndatacopy\n      revert(0x00, returndatasize)\n    tag_84:\n      pop\n      pop\n      pop\n      pop\n        /* \"SuperDepositor.sol\":3262:4067  {... */\n      pop\n      pop\n      pop\n      pop\n      pop\n        /* \"SuperDepositor.sol\":3149:4067  function _joinPool(IAsset[] memory underlyings, uint256 amtIn, uint256 tokenIndex, bytes32 beetsPoolId) internal {... */\n      pop\n      pop\n      pop\n      pop\n      jump\t// out\n        /* \"SuperDepositor.sol\":2344:2751  function _depositLPToVault(address lp, address vault, address recipient) internal {... */\n    tag_44:\n        /* \"SuperDepositor.sol\":2462:2489  _approveIfNeeded(vault, lp) */\n      tag_86\n        /* \"SuperDepositor.sol\":2479:2484  vault */\n      dup3\n        /* \"SuperDepositor.sol\":2486:2488  lp */\n      dup5\n        /* \"SuperDepositor.sol\":2462:2478  _approveIfNeeded */\n      tag_87\n        /* \"SuperDepositor.sol\":2462:2489  _approveIfNeeded(vault, lp) */\n      jump\t// in\n    tag_86:\n        /* \"SuperDepositor.sol\":2557:2562  vault */\n      dup2\n        /* \"SuperDepositor.sol\":2550:2574  IVault(vault).depositAll */\n      0xffffffffffffffffffffffffffffffffffffffff\n      and\n      0xde5f6268\n        /* \"SuperDepositor.sol\":2550:2576  IVault(vault).depositAll() */\n      mload(0x40)\n      dup2\n      0xffffffff\n      and\n      0xe0\n      shl\n      dup2\n      mstore\n      0x04\n      add\n      0x00\n      mload(0x40)\n      dup1\n      dup4\n      sub\n      dup2\n      0x00\n      dup8\n      dup1\n      extcodesize\n      iszero\n      dup1\n      iszero\n      tag_88\n      jumpi\n      0x00\n      dup1\n      revert\n    tag_88:\n      pop\n      gas\n      call\n      iszero\n      dup1\n      iszero\n      tag_90\n      jumpi\n      returndatasize\n      0x00\n      dup1\n      returndatacopy\n      revert(0x00, returndatasize)\n    tag_90:\n      pop\n      pop\n      pop\n      pop\n        /* \"SuperDepositor.sol\":2618:2642  IERC20Upgradeable shares */\n      0x00\n        /* \"SuperDepositor.sol\":2663:2668  vault */\n      dup3\n        /* \"SuperDepositor.sol\":2618:2669  IERC20Upgradeable shares = IERC20Upgradeable(vault) */\n      swap1\n      pop\n        /* \"SuperDepositor.sol\":2680:2743  shares.safeTransfer(recipient, shares.balanceOf(address(this))) */\n      tag_91\n        /* \"SuperDepositor.sol\":2700:2709  recipient */\n      dup3\n        /* \"SuperDepositor.sol\":2711:2717  shares */\n      dup3\n        /* \"SuperDepositor.sol\":2711:2727  shares.balanceOf */\n      0xffffffffffffffffffffffffffffffffffffffff\n      and\n      0x70a08231\n        /* \"SuperDepositor.sol\":2736:2740  this */\n      address\n        /* \"SuperDepositor.sol\":2711:2742  shares.balanceOf(address(this)) */\n      mload(0x40)\n      dup3\n      0xffffffff\n      and\n      0xe0\n      shl\n      dup2\n      mstore\n      0x04\n      add\n      tag_92\n      swap2\n      swap1\n      tag_14\n      jump\t// in\n    tag_92:\n      0x20\n      mload(0x40)\n      dup1\n      dup4\n      sub\n      dup2\n      dup7\n      gas\n      staticcall\n      iszero\n      dup1\n      iszero\n      tag_94\n      jumpi\n      returndatasize\n      0x00\n      dup1\n      returndatacopy\n      revert(0x00, returndatasize)\n    tag_94:\n      pop\n      pop\n      pop\n      pop\n      mload(0x40)\n      returndatasize\n      not(0x1f)\n      0x1f\n      dup3\n      add\n      and\n      dup3\n      add\n      dup1\n      0x40\n      mstore\n      pop\n      dup2\n      add\n      swap1\n      tag_95\n      swap2\n      swap1\n      tag_96\n      jump\t// in\n    tag_95:\n        /* \"SuperDepositor.sol\":2680:2686  shares */\n      dup4\n        /* \"SuperDepositor.sol\":2680:2699  shares.safeTransfer */\n      0xffffffffffffffffffffffffffffffffffffffff\n      and\n      tag_97\n      swap1\n        /* \"SuperDepositor.sol\":2680:2743  shares.safeTransfer(recipient, shares.balanceOf(address(this))) */\n      swap3\n      swap2\n      swap1\n      0xffffffff\n      and\n      jump\t// in\n    tag_91:\n        /* \"SuperDepositor.sol\":2426:2751  {... */\n      pop\n        /* \"SuperDepositor.sol\":2344:2751  function _depositLPToVault(address lp, address vault, address recipient) internal {... */\n      pop\n      pop\n      pop\n      jump\t// out\n        /* \"@openzeppelin/contracts-upgradeable/token/ERC20/utils/SafeERC20Upgradeable.sol\":3306:4023  function _callOptionalReturn(IERC20Upgradeable token, bytes memory data) private {... */\n    tag_49:\n        /* \"@openzeppelin/contracts-upgradeable/token/ERC20/utils/SafeERC20Upgradeable.sol\":3736:3759  bytes memory returndata */\n      0x00\n        /* \"@openzeppelin/contracts-upgradeable/token/ERC20/utils/SafeERC20Upgradeable.sol\":3762:3831  address(token).functionCall(data, \"SafeERC20: low-level call failed\") */\n      tag_99\n        /* \"@openzeppelin/contracts-upgradeable/token/ERC20/utils/SafeERC20Upgradeable.sol\":3790:3794  data */\n      dup3\n        /* \"@openzeppelin/contracts-upgradeable/token/ERC20/utils/SafeERC20Upgradeable.sol\":3762:3831  address(token).functionCall(data, \"SafeERC20: low-level call failed\") */\n      mload(0x40)\n      dup1\n      0x40\n      add\n      0x40\n      mstore\n      dup1\n      0x20\n      dup2\n      mstore\n      0x20\n      add\n      0x5361666545524332303a206c6f772d6c6576656c2063616c6c206661696c6564\n      dup2\n      mstore\n      pop\n        /* \"@openzeppelin/contracts-upgradeable/token/ERC20/utils/SafeERC20Upgradeable.sol\":3770:3775  token */\n      dup6\n        /* \"@openzeppelin/contracts-upgradeable/token/ERC20/utils/SafeERC20Upgradeable.sol\":3762:3789  address(token).functionCall */\n      0xffffffffffffffffffffffffffffffffffffffff\n      and\n      tag_100\n      swap1\n        /* \"@openzeppelin/contracts-upgradeable/token/ERC20/utils/SafeERC20Upgradeable.sol\":3762:3831  address(token).functionCall(data, \"SafeERC20: low-level call failed\") */\n      swap3\n      swap2\n      swap1\n      0xffffffff\n      and\n      jump\t// in\n    tag_99:\n        /* \"@openzeppelin/contracts-upgradeable/token/ERC20/utils/SafeERC20Upgradeable.sol\":3736:3831  bytes memory returndata = address(token).functionCall(data, \"SafeERC20: low-level call failed\") */\n      swap1\n      pop\n        /* \"@openzeppelin/contracts-upgradeable/token/ERC20/utils/SafeERC20Upgradeable.sol\":3865:3866  0 */\n      0x00\n        /* \"@openzeppelin/contracts-upgradeable/token/ERC20/utils/SafeERC20Upgradeable.sol\":3845:3855  returndata */\n      dup2\n        /* \"@openzeppelin/contracts-upgradeable/token/ERC20/utils/SafeERC20Upgradeable.sol\":3845:3862  returndata.length */\n      mload\n        /* \"@openzeppelin/contracts-upgradeable/token/ERC20/utils/SafeERC20Upgradeable.sol\":3845:3866  returndata.length > 0 */\n      gt\n        /* \"@openzeppelin/contracts-upgradeable/token/ERC20/utils/SafeERC20Upgradeable.sol\":3841:4017  if (returndata.length > 0) {... */\n      iszero\n      tag_101\n      jumpi\n        /* \"@openzeppelin/contracts-upgradeable/token/ERC20/utils/SafeERC20Upgradeable.sol\":3940:3950  returndata */\n      dup1\n        /* \"@openzeppelin/contracts-upgradeable/token/ERC20/utils/SafeERC20Upgradeable.sol\":3929:3959  abi.decode(returndata, (bool)) */\n      dup1\n      0x20\n      add\n      swap1\n      mload\n      dup2\n      add\n      swap1\n      tag_102\n      swap2\n      swap1\n      tag_103\n      jump\t// in\n    tag_102:\n        /* \"@openzeppelin/contracts-upgradeable/token/ERC20/utils/SafeERC20Upgradeable.sol\":3921:4006  require(abi.decode(returndata, (bool)), \"SafeERC20: ERC20 operation did not succeed\") */\n      tag_104\n      jumpi\n      mload(0x40)\n      0x08c379a000000000000000000000000000000000000000000000000000000000\n      dup2\n      mstore\n      0x04\n      add\n      tag_105\n      swap1\n      tag_106\n      jump\t// in\n    tag_105:\n      mload(0x40)\n      dup1\n      swap2\n      sub\n      swap1\n      revert\n    tag_104:\n        /* \"@openzeppelin/contracts-upgradeable/token/ERC20/utils/SafeERC20Upgradeable.sol\":3841:4017  if (returndata.length > 0) {... */\n    tag_101:\n        /* \"@openzeppelin/contracts-upgradeable/token/ERC20/utils/SafeERC20Upgradeable.sol\":3387:4023  {... */\n      pop\n        /* \"@openzeppelin/contracts-upgradeable/token/ERC20/utils/SafeERC20Upgradeable.sol\":3306:4023  function _callOptionalReturn(IERC20Upgradeable token, bytes memory data) private {... */\n      pop\n      pop\n      jump\t// out\n        /* \"@openzeppelin/contracts-upgradeable/token/ERC20/utils/SafeERC20Upgradeable.sol\":2099:2420  function safeIncreaseAllowance(... */\n    tag_79:\n        /* \"@openzeppelin/contracts-upgradeable/token/ERC20/utils/SafeERC20Upgradeable.sol\":2236:2256  uint256 newAllowance */\n      0x00\n        /* \"@openzeppelin/contracts-upgradeable/token/ERC20/utils/SafeERC20Upgradeable.sol\":2301:2306  value */\n      dup2\n        /* \"@openzeppelin/contracts-upgradeable/token/ERC20/utils/SafeERC20Upgradeable.sol\":2259:2264  token */\n      dup5\n        /* \"@openzeppelin/contracts-upgradeable/token/ERC20/utils/SafeERC20Upgradeable.sol\":2259:2274  token.allowance */\n      0xffffffffffffffffffffffffffffffffffffffff\n      and\n      0xdd62ed3e\n        /* \"@openzeppelin/contracts-upgradeable/token/ERC20/utils/SafeERC20Upgradeable.sol\":2283:2287  this */\n      address\n        /* \"@openzeppelin/contracts-upgradeable/token/ERC20/utils/SafeERC20Upgradeable.sol\":2290:2297  spender */\n      dup7\n        /* \"@openzeppelin/contracts-upgradeable/token/ERC20/utils/SafeERC20Upgradeable.sol\":2259:2298  token.allowance(address(this), spender) */\n      mload(0x40)\n      dup4\n      0xffffffff\n      and\n      0xe0\n      shl\n      dup2\n      mstore\n      0x04\n      add\n      tag_108\n      swap3\n      swap2\n      swap1\n      tag_109\n      jump\t// in\n    tag_108:\n      0x20\n      mload(0x40)\n      dup1\n      dup4\n      sub\n      dup2\n      dup7\n      gas\n      staticcall\n      iszero\n      dup1\n      iszero\n      tag_111\n      jumpi\n      returndatasize\n      0x00\n      dup1\n      returndatacopy\n      revert(0x00, returndatasize)\n    tag_111:\n      pop\n      pop\n      pop\n      pop\n      mload(0x40)\n      returndatasize\n      not(0x1f)\n      0x1f\n      dup3\n      add\n      and\n      dup3\n      add\n      dup1\n      0x40\n      mstore\n      pop\n      dup2\n      add\n      swap1\n      tag_112\n      swap2\n      swap1\n      tag_96\n      jump\t// in\n    tag_112:\n        /* \"@openzeppelin/contracts-upgradeable/token/ERC20/utils/SafeERC20Upgradeable.sol\":2259:2306  token.allowance(address(this), spender) + value */\n      tag_113\n      swap2\n      swap1\n      tag_114\n      jump\t// in\n    tag_113:\n        /* \"@openzeppelin/contracts-upgradeable/token/ERC20/utils/SafeERC20Upgradeable.sol\":2236:2306  uint256 newAllowance = token.allowance(address(this), spender) + value */\n      swap1\n      pop\n        /* \"@openzeppelin/contracts-upgradeable/token/ERC20/utils/SafeERC20Upgradeable.sol\":2316:2413  _callOptionalReturn(token, abi.encodeWithSelector(token.approve.selector, spender, newAllowance)) */\n      tag_115\n        /* \"@openzeppelin/contracts-upgradeable/token/ERC20/utils/SafeERC20Upgradeable.sol\":2336:2341  token */\n      dup5\n        /* \"@openzeppelin/contracts-upgradeable/token/ERC20/utils/SafeERC20Upgradeable.sol\":2366:2388  token.approve.selector */\n      shl(0xe0, 0x095ea7b3)\n        /* \"@openzeppelin/contracts-upgradeable/token/ERC20/utils/SafeERC20Upgradeable.sol\":2390:2397  spender */\n      dup6\n        /* \"@openzeppelin/contracts-upgradeable/token/ERC20/utils/SafeERC20Upgradeable.sol\":2399:2411  newAllowance */\n      dup5\n        /* \"@openzeppelin/contracts-upgradeable/token/ERC20/utils/SafeERC20Upgradeable.sol\":2343:2412  abi.encodeWithSelector(token.approve.selector, spender, newAllowance) */\n      add(0x24, mload(0x40))\n      tag_116\n      swap3\n      swap2\n      swap1\n      tag_117\n      jump\t// in\n    tag_116:\n      mload(0x40)\n      0x20\n      dup2\n      dup4\n      sub\n      sub\n      dup2\n      mstore\n      swap1\n      0x40\n      mstore\n      swap1\n      not(0xffffffffffffffffffffffffffffffffffffffffffffffffffffffff)\n      and\n      0x20\n      dup3\n      add\n      dup1\n      mload\n      0xffffffffffffffffffffffffffffffffffffffffffffffffffffffff\n      dup4\n      dup2\n      dup4\n      and\n      or\n      dup4\n      mstore\n      pop\n      pop\n      pop\n      pop\n        /* \"@openzeppelin/contracts-upgradeable/token/ERC20/utils/SafeERC20Upgradeable.sol\":2316:2335  _callOptionalReturn */\n      tag_49\n        /* \"@openzeppelin/contracts-upgradeable/token/ERC20/utils/SafeERC20Upgradeable.sol\":2316:2413  _callOptionalReturn(token, abi.encodeWithSelector(token.approve.selector, spender, newAllowance)) */\n      jump\t// in\n    tag_115:\n        /* \"@openzeppelin/contracts-upgradeable/token/ERC20/utils/SafeERC20Upgradeable.sol\":2226:2420  {... */\n      pop\n        /* \"@openzeppelin/contracts-upgradeable/token/ERC20/utils/SafeERC20Upgradeable.sol\":2099:2420  function safeIncreaseAllowance(... */\n      pop\n      pop\n      pop\n      jump\t// out\n        /* \"SuperDepositor.sol\":2759:3049  function _approveIfNeeded(address spender, address token) internal {... */\n    tag_87:\n        /* \"SuperDepositor.sol\":2837:2861  IERC20Upgradeable token_ */\n      0x00\n        /* \"SuperDepositor.sol\":2882:2887  token */\n      dup2\n        /* \"SuperDepositor.sol\":2837:2888  IERC20Upgradeable token_ = IERC20Upgradeable(token) */\n      swap1\n      pop\n        /* \"SuperDepositor.sol\":2955:2956  0 */\n      0x00\n        /* \"SuperDepositor.sol\":2903:2909  token_ */\n      dup2\n        /* \"SuperDepositor.sol\":2903:2919  token_.allowance */\n      0xffffffffffffffffffffffffffffffffffffffff\n      and\n      0xdd62ed3e\n        /* \"SuperDepositor.sol\":2928:2932  this */\n      address\n        /* \"SuperDepositor.sol\":2935:2942  spender */\n      dup7\n        /* \"SuperDepositor.sol\":2903:2943  token_.allowance(address(this), spender) */\n      mload(0x40)\n      dup4\n      0xffffffff\n      and\n      0xe0\n      shl\n      dup2\n      mstore\n      0x04\n      add\n      tag_119\n      swap3\n      swap2\n      swap1\n      tag_109\n      jump\t// in\n    tag_119:\n      0x20\n      mload(0x40)\n      dup1\n      dup4\n      sub\n      dup2\n      dup7\n      gas\n      staticcall\n      iszero\n      dup1\n      iszero\n      tag_121\n      jumpi\n      returndatasize\n      0x00\n      dup1\n      returndatacopy\n      revert(0x00, returndatasize)\n    tag_121:\n      pop\n      pop\n      pop\n      pop\n      mload(0x40)\n      returndatasize\n      not(0x1f)\n      0x1f\n      dup3\n      add\n      and\n      dup3\n      add\n      dup1\n      0x40\n      mstore\n      pop\n      dup2\n      add\n      swap1\n      tag_122\n      swap2\n      swap1\n      tag_96\n      jump\t// in\n    tag_122:\n        /* \"SuperDepositor.sol\":2903:2957  token_.allowance(address(this), spender) == uint256(0) */\n      sub\n        /* \"SuperDepositor.sol\":2899:3042  if (token_.allowance(address(this), spender) == uint256(0)) {... */\n      tag_123\n      jumpi\n        /* \"SuperDepositor.sol\":2974:3030  token_.safeIncreaseAllowance(spender, type(uint256).max) */\n      tag_124\n        /* \"SuperDepositor.sol\":3003:3010  spender */\n      dup4\n        /* \"SuperDepositor.sol\":3012:3029  type(uint256).max */\n      0xffffffffffffffffffffffffffffffffffffffffffffffffffffffffffffffff\n        /* \"SuperDepositor.sol\":2974:2980  token_ */\n      dup4\n        /* \"SuperDepositor.sol\":2974:3002  token_.safeIncreaseAllowance */\n      0xffffffffffffffffffffffffffffffffffffffff\n      and\n      tag_79\n      swap1\n        /* \"SuperDepositor.sol\":2974:3030  token_.safeIncreaseAllowance(spender, type(uint256).max) */\n      swap3\n      swap2\n      swap1\n      0xffffffff\n      and\n      jump\t// in\n    tag_124:\n        /* \"SuperDepositor.sol\":2899:3042  if (token_.allowance(address(this), spender) == uint256(0)) {... */\n    tag_123:\n        /* \"SuperDepositor.sol\":2826:3049  {... */\n      pop\n        /* \"SuperDepositor.sol\":2759:3049  function _approveIfNeeded(address spender, address token) internal {... */\n      pop\n      pop\n      jump\t// out\n        /* \"@openzeppelin/contracts-upgradeable/token/ERC20/utils/SafeERC20Upgradeable.sol\":745:961  function safeTransfer(... */\n    tag_97:\n        /* \"@openzeppelin/contracts-upgradeable/token/ERC20/utils/SafeERC20Upgradeable.sol\":868:954  _callOptionalReturn(token, abi.encodeWithSelector(token.transfer.selector, to, value)) */\n      tag_126\n        /* \"@openzeppelin/contracts-upgradeable/token/ERC20/utils/SafeERC20Upgradeable.sol\":888:893  token */\n      dup4\n        /* \"@openzeppelin/contracts-upgradeable/token/ERC20/utils/SafeERC20Upgradeable.sol\":918:941  token.transfer.selector */\n      shl(0xe0, 0xa9059cbb)\n        /* \"@openzeppelin/contracts-upgradeable/token/ERC20/utils/SafeERC20Upgradeable.sol\":943:945  to */\n      dup5\n        /* \"@openzeppelin/contracts-upgradeable/token/ERC20/utils/SafeERC20Upgradeable.sol\":947:952  value */\n      dup5\n        /* \"@openzeppelin/contracts-upgradeable/token/ERC20/utils/SafeERC20Upgradeable.sol\":895:953  abi.encodeWithSelector(token.transfer.selector, to, value) */\n      add(0x24, mload(0x40))\n      tag_127\n      swap3\n      swap2\n      swap1\n      tag_117\n      jump\t// in\n    tag_127:\n      mload(0x40)\n      0x20\n      dup2\n      dup4\n      sub\n      sub\n      dup2\n      mstore\n      swap1\n      0x40\n      mstore\n      swap1\n      not(0xffffffffffffffffffffffffffffffffffffffffffffffffffffffff)\n      and\n      0x20\n      dup3\n      add\n      dup1\n      mload\n      0xffffffffffffffffffffffffffffffffffffffffffffffffffffffff\n      dup4\n      dup2\n      dup4\n      and\n      or\n      dup4\n      mstore\n      pop\n      pop\n      pop\n      pop\n        /* \"@openzeppelin/contracts-upgradeable/token/ERC20/utils/SafeERC20Upgradeable.sol\":868:887  _callOptionalReturn */\n      tag_49\n        /* \"@openzeppelin/contracts-upgradeable/token/ERC20/utils/SafeERC20Upgradeable.sol\":868:954  _callOptionalReturn(token, abi.encodeWithSelector(token.transfer.selector, to, value)) */\n      jump\t// in\n    tag_126:\n        /* \"@openzeppelin/contracts-upgradeable/token/ERC20/utils/SafeERC20Upgradeable.sol\":745:961  function safeTransfer(... */\n      pop\n      pop\n      pop\n      jump\t// out\n        /* \"@openzeppelin/contracts-upgradeable/utils/AddressUpgradeable.sol\":3872:4095  function functionCall(... */\n    tag_100:\n        /* \"@openzeppelin/contracts-upgradeable/utils/AddressUpgradeable.sol\":4005:4017  bytes memory */\n      0x60\n        /* \"@openzeppelin/contracts-upgradeable/utils/AddressUpgradeable.sol\":4036:4088  functionCallWithValue(target, data, 0, errorMessage) */\n      tag_129\n        /* \"@openzeppelin/contracts-upgradeable/utils/AddressUpgradeable.sol\":4058:4064  target */\n      dup5\n        /* \"@openzeppelin/contracts-upgradeable/utils/AddressUpgradeable.sol\":4066:4070  data */\n      dup5\n        /* \"@openzeppelin/contracts-upgradeable/utils/AddressUpgradeable.sol\":4072:4073  0 */\n      0x00\n        /* \"@openzeppelin/contracts-upgradeable/utils/AddressUpgradeable.sol\":4075:4087  errorMessage */\n      dup6\n        /* \"@openzeppelin/contracts-upgradeable/utils/AddressUpgradeable.sol\":4036:4057  functionCallWithValue */\n      tag_130\n        /* \"@openzeppelin/contracts-upgradeable/utils/AddressUpgradeable.sol\":4036:4088  functionCallWithValue(target, data, 0, errorMessage) */\n      jump\t// in\n    tag_129:\n        /* \"@openzeppelin/contracts-upgradeable/utils/AddressUpgradeable.sol\":4029:4088  return functionCallWithValue(target, data, 0, errorMessage) */\n      swap1\n      pop\n        /* \"@openzeppelin/contracts-upgradeable/utils/AddressUpgradeable.sol\":3872:4095  function functionCall(... */\n      swap4\n      swap3\n      pop\n      pop\n      pop\n      jump\t// out\n        /* \"@openzeppelin/contracts-upgradeable/utils/AddressUpgradeable.sol\":4959:5458  function functionCallWithValue(... */\n    tag_130:\n        /* \"@openzeppelin/contracts-upgradeable/utils/AddressUpgradeable.sol\":5124:5136  bytes memory */\n      0x60\n        /* \"@openzeppelin/contracts-upgradeable/utils/AddressUpgradeable.sol\":5181:5186  value */\n      dup3\n        /* \"@openzeppelin/contracts-upgradeable/utils/AddressUpgradeable.sol\":5156:5177  address(this).balance */\n      selfbalance\n        /* \"@openzeppelin/contracts-upgradeable/utils/AddressUpgradeable.sol\":5156:5186  address(this).balance >= value */\n      lt\n      iszero\n        /* \"@openzeppelin/contracts-upgradeable/utils/AddressUpgradeable.sol\":5148:5229  require(address(this).balance >= value, \"Address: insufficient balance for call\") */\n      tag_132\n      jumpi\n      mload(0x40)\n      0x08c379a000000000000000000000000000000000000000000000000000000000\n      dup2\n      mstore\n      0x04\n      add\n      tag_133\n      swap1\n      tag_134\n      jump\t// in\n    tag_133:\n      mload(0x40)\n      dup1\n      swap2\n      sub\n      swap1\n      revert\n    tag_132:\n        /* \"@openzeppelin/contracts-upgradeable/utils/AddressUpgradeable.sol\":5247:5265  isContract(target) */\n      tag_135\n        /* \"@openzeppelin/contracts-upgradeable/utils/AddressUpgradeable.sol\":5258:5264  target */\n      dup6\n        /* \"@openzeppelin/contracts-upgradeable/utils/AddressUpgradeable.sol\":5247:5257  isContract */\n      tag_136\n        /* \"@openzeppelin/contracts-upgradeable/utils/AddressUpgradeable.sol\":5247:5265  isContract(target) */\n      jump\t// in\n    tag_135:\n        /* \"@openzeppelin/contracts-upgradeable/utils/AddressUpgradeable.sol\":5239:5299  require(isContract(target), \"Address: call to non-contract\") */\n      tag_137\n      jumpi\n      mload(0x40)\n      0x08c379a000000000000000000000000000000000000000000000000000000000\n      dup2\n      mstore\n      0x04\n      add\n      tag_138\n      swap1\n      tag_139\n      jump\t// in\n    tag_138:\n      mload(0x40)\n      dup1\n      swap2\n      sub\n      swap1\n      revert\n    tag_137:\n        /* \"@openzeppelin/contracts-upgradeable/utils/AddressUpgradeable.sol\":5311:5323  bool success */\n      0x00\n        /* \"@openzeppelin/contracts-upgradeable/utils/AddressUpgradeable.sol\":5325:5348  bytes memory returndata */\n      dup1\n        /* \"@openzeppelin/contracts-upgradeable/utils/AddressUpgradeable.sol\":5352:5358  target */\n      dup7\n        /* \"@openzeppelin/contracts-upgradeable/utils/AddressUpgradeable.sol\":5352:5363  target.call */\n      0xffffffffffffffffffffffffffffffffffffffff\n      and\n        /* \"@openzeppelin/contracts-upgradeable/utils/AddressUpgradeable.sol\":5371:5376  value */\n      dup6\n        /* \"@openzeppelin/contracts-upgradeable/utils/AddressUpgradeable.sol\":5378:5382  data */\n      dup8\n        /* \"@openzeppelin/contracts-upgradeable/utils/AddressUpgradeable.sol\":5352:5383  target.call{value: value}(data) */\n      mload(0x40)\n      tag_140\n      swap2\n      swap1\n      tag_141\n      jump\t// in\n    tag_140:\n      0x00\n      mload(0x40)\n      dup1\n      dup4\n      sub\n      dup2\n      dup6\n      dup8\n      gas\n      call\n      swap3\n      pop\n      pop\n      pop\n      returndatasize\n      dup1\n      0x00\n      dup2\n      eq\n      tag_144\n      jumpi\n      mload(0x40)\n      swap2\n      pop\n      and(add(returndatasize, 0x3f), not(0x1f))\n      dup3\n      add\n      0x40\n      mstore\n      returndatasize\n      dup3\n      mstore\n      returndatasize\n      0x00\n      0x20\n      dup5\n      add\n      returndatacopy\n      jump(tag_143)\n    tag_144:\n      0x60\n      swap2\n      pop\n    tag_143:\n      pop\n        /* \"@openzeppelin/contracts-upgradeable/utils/AddressUpgradeable.sol\":5310:5383  (bool success, bytes memory returndata) = target.call{value: value}(data) */\n      swap2\n      pop\n      swap2\n      pop\n        /* \"@openzeppelin/contracts-upgradeable/utils/AddressUpgradeable.sol\":5400:5451  verifyCallResult(success, returndata, errorMessage) */\n      tag_145\n        /* \"@openzeppelin/contracts-upgradeable/utils/AddressUpgradeable.sol\":5417:5424  success */\n      dup3\n        /* \"@openzeppelin/contracts-upgradeable/utils/AddressUpgradeable.sol\":5426:5436  returndata */\n      dup3\n        /* \"@openzeppelin/contracts-upgradeable/utils/AddressUpgradeable.sol\":5438:5450  errorMessage */\n      dup7\n        /* \"@openzeppelin/contracts-upgradeable/utils/AddressUpgradeable.sol\":5400:5416  verifyCallResult */\n      tag_146\n        /* \"@openzeppelin/contracts-upgradeable/utils/AddressUpgradeable.sol\":5400:5451  verifyCallResult(success, returndata, errorMessage) */\n      jump\t// in\n    tag_145:\n        /* \"@openzeppelin/contracts-upgradeable/utils/AddressUpgradeable.sol\":5393:5451  return verifyCallResult(success, returndata, errorMessage) */\n      swap3\n      pop\n      pop\n      pop\n        /* \"@openzeppelin/contracts-upgradeable/utils/AddressUpgradeable.sol\":4959:5458  function functionCallWithValue(... */\n      swap5\n      swap4\n      pop\n      pop\n      pop\n      pop\n      jump\t// out\n        /* \"@openzeppelin/contracts-upgradeable/utils/AddressUpgradeable.sol\":1186:1506  function isContract(address account) internal view returns (bool) {... */\n    tag_136:\n        /* \"@openzeppelin/contracts-upgradeable/utils/AddressUpgradeable.sol\":1246:1250  bool */\n      0x00\n        /* \"@openzeppelin/contracts-upgradeable/utils/AddressUpgradeable.sol\":1498:1499  0 */\n      dup1\n        /* \"@openzeppelin/contracts-upgradeable/utils/AddressUpgradeable.sol\":1476:1483  account */\n      dup3\n        /* \"@openzeppelin/contracts-upgradeable/utils/AddressUpgradeable.sol\":1476:1495  account.code.length */\n      0xffffffffffffffffffffffffffffffffffffffff\n      and\n      extcodesize\n        /* \"@openzeppelin/contracts-upgradeable/utils/AddressUpgradeable.sol\":1476:1499  account.code.length > 0 */\n      gt\n        /* \"@openzeppelin/contracts-upgradeable/utils/AddressUpgradeable.sol\":1469:1499  return account.code.length > 0 */\n      swap1\n      pop\n        /* \"@openzeppelin/contracts-upgradeable/utils/AddressUpgradeable.sol\":1186:1506  function isContract(address account) internal view returns (bool) {... */\n      swap2\n      swap1\n      pop\n      jump\t// out\n        /* \"@openzeppelin/contracts-upgradeable/utils/AddressUpgradeable.sol\":6622:7314  function verifyCallResult(... */\n    tag_146:\n        /* \"@openzeppelin/contracts-upgradeable/utils/AddressUpgradeable.sol\":6768:6780  bytes memory */\n      0x60\n        /* \"@openzeppelin/contracts-upgradeable/utils/AddressUpgradeable.sol\":6796:6803  success */\n      dup4\n        /* \"@openzeppelin/contracts-upgradeable/utils/AddressUpgradeable.sol\":6792:7308  if (success) {... */\n      iszero\n      tag_149\n      jumpi\n        /* \"@openzeppelin/contracts-upgradeable/utils/AddressUpgradeable.sol\":6826:6836  returndata */\n      dup3\n        /* \"@openzeppelin/contracts-upgradeable/utils/AddressUpgradeable.sol\":6819:6836  return returndata */\n      swap1\n      pop\n      jump(tag_148)\n        /* \"@openzeppelin/contracts-upgradeable/utils/AddressUpgradeable.sol\":6792:7308  if (success) {... */\n    tag_149:\n        /* \"@openzeppelin/contracts-upgradeable/utils/AddressUpgradeable.sol\":6957:6958  0 */\n      0x00\n        /* \"@openzeppelin/contracts-upgradeable/utils/AddressUpgradeable.sol\":6937:6947  returndata */\n      dup4\n        /* \"@openzeppelin/contracts-upgradeable/utils/AddressUpgradeable.sol\":6937:6954  returndata.length */\n      mload\n        /* \"@openzeppelin/contracts-upgradeable/utils/AddressUpgradeable.sol\":6937:6958  returndata.length > 0 */\n      gt\n        /* \"@openzeppelin/contracts-upgradeable/utils/AddressUpgradeable.sol\":6933:7298  if (returndata.length > 0) {... */\n      iszero\n      tag_151\n      jumpi\n        /* \"@openzeppelin/contracts-upgradeable/utils/AddressUpgradeable.sol\":7131:7141  returndata */\n      dup3\n        /* \"@openzeppelin/contracts-upgradeable/utils/AddressUpgradeable.sol\":7125:7142  mload(returndata) */\n      mload\n        /* \"@openzeppelin/contracts-upgradeable/utils/AddressUpgradeable.sol\":7191:7206  returndata_size */\n      dup1\n        /* \"@openzeppelin/contracts-upgradeable/utils/AddressUpgradeable.sol\":7178:7188  returndata */\n      dup5\n        /* \"@openzeppelin/contracts-upgradeable/utils/AddressUpgradeable.sol\":7174:7176  32 */\n      0x20\n        /* \"@openzeppelin/contracts-upgradeable/utils/AddressUpgradeable.sol\":7170:7189  add(32, returndata) */\n      add\n        /* \"@openzeppelin/contracts-upgradeable/utils/AddressUpgradeable.sol\":7163:7207  revert(add(32, returndata), returndata_size) */\n      revert\n        /* \"@openzeppelin/contracts-upgradeable/utils/AddressUpgradeable.sol\":6933:7298  if (returndata.length > 0) {... */\n    tag_151:\n        /* \"@openzeppelin/contracts-upgradeable/utils/AddressUpgradeable.sol\":7270:7282  errorMessage */\n      dup2\n        /* \"@openzeppelin/contracts-upgradeable/utils/AddressUpgradeable.sol\":7263:7283  revert(errorMessage) */\n      mload(0x40)\n      0x08c379a000000000000000000000000000000000000000000000000000000000\n      dup2\n      mstore\n      0x04\n      add\n      tag_153\n      swap2\n      swap1\n      tag_154\n      jump\t// in\n    tag_153:\n      mload(0x40)\n      dup1\n      swap2\n      sub\n      swap1\n      revert\n        /* \"@openzeppelin/contracts-upgradeable/utils/AddressUpgradeable.sol\":6622:7314  function verifyCallResult(... */\n    tag_148:\n      swap4\n      swap3\n      pop\n      pop\n      pop\n      jump\t// out\n    tag_60:\n      mload(0x40)\n      dup1\n      0x80\n      add\n      0x40\n      mstore\n      dup1\n      0x60\n      dup2\n      mstore\n      0x20\n      add\n      0x60\n      dup2\n      mstore\n      0x20\n      add\n      0x60\n      dup2\n      mstore\n      0x20\n      add\n      iszero(iszero(0x00))\n      dup2\n      mstore\n      pop\n      swap1\n      jump\t// out\n    tag_75:\n      mload(0x40)\n      dup1\n      0x80\n      add\n      0x40\n      mstore\n      dup1\n      0x60\n      dup2\n      mstore\n      0x20\n      add\n      0x60\n      dup2\n      mstore\n      0x20\n      add\n      0x60\n      dup2\n      mstore\n      0x20\n      add\n      iszero(iszero(0x00))\n      dup2\n      mstore\n      pop\n      swap1\n      jump\t// out\n        /* \"#utility.yul\":7:82   */\n    tag_155:\n        /* \"#utility.yul\":40:46   */\n      0x00\n        /* \"#utility.yul\":73:75   */\n      0x40\n        /* \"#utility.yul\":67:76   */\n      mload\n        /* \"#utility.yul\":57:76   */\n      swap1\n      pop\n        /* \"#utility.yul\":7:82   */\n      swap1\n      jump\t// out\n        /* \"#utility.yul\":88:205   */\n    tag_156:\n        /* \"#utility.yul\":197:198   */\n      0x00\n        /* \"#utility.yul\":194:195   */\n      dup1\n        /* \"#utility.yul\":187:199   */\n      revert\n        /* \"#utility.yul\":211:328   */\n    tag_157:\n        /* \"#utility.yul\":320:321   */\n      0x00\n        /* \"#utility.yul\":317:318   */\n      dup1\n        /* \"#utility.yul\":310:322   */\n      revert\n        /* \"#utility.yul\":334:451   */\n    tag_158:\n        /* \"#utility.yul\":443:444   */\n      0x00\n        /* \"#utility.yul\":440:441   */\n      dup1\n        /* \"#utility.yul\":433:445   */\n      revert\n        /* \"#utility.yul\":457:559   */\n    tag_159:\n        /* \"#utility.yul\":498:504   */\n      0x00\n        /* \"#utility.yul\":549:551   */\n      0x1f\n        /* \"#utility.yul\":545:552   */\n      not\n        /* \"#utility.yul\":540:542   */\n      0x1f\n        /* \"#utility.yul\":533:538   */\n      dup4\n        /* \"#utility.yul\":529:543   */\n      add\n        /* \"#utility.yul\":525:553   */\n      and\n        /* \"#utility.yul\":515:553   */\n      swap1\n      pop\n        /* \"#utility.yul\":457:559   */\n      swap2\n      swap1\n      pop\n      jump\t// out\n        /* \"#utility.yul\":565:745   */\n    tag_53:\n        /* \"#utility.yul\":613:690   */\n      0x4e487b7100000000000000000000000000000000000000000000000000000000\n        /* \"#utility.yul\":610:611   */\n      0x00\n        /* \"#utility.yul\":603:691   */\n      mstore\n        /* \"#utility.yul\":710:714   */\n      0x41\n        /* \"#utility.yul\":707:708   */\n      0x04\n        /* \"#utility.yul\":700:715   */\n      mstore\n        /* \"#utility.yul\":734:738   */\n      0x24\n        /* \"#utility.yul\":731:732   */\n      0x00\n        /* \"#utility.yul\":724:739   */\n      revert\n        /* \"#utility.yul\":751:1032   */\n    tag_160:\n        /* \"#utility.yul\":834:861   */\n      tag_243\n        /* \"#utility.yul\":856:860   */\n      dup3\n        /* \"#utility.yul\":834:861   */\n      tag_159\n      jump\t// in\n    tag_243:\n        /* \"#utility.yul\":826:832   */\n      dup2\n        /* \"#utility.yul\":822:862   */\n      add\n        /* \"#utility.yul\":964:970   */\n      dup2\n        /* \"#utility.yul\":952:962   */\n      dup2\n        /* \"#utility.yul\":949:971   */\n      lt\n        /* \"#utility.yul\":928:946   */\n      0xffffffffffffffff\n        /* \"#utility.yul\":916:926   */\n      dup3\n        /* \"#utility.yul\":913:947   */\n      gt\n        /* \"#utility.yul\":910:972   */\n      or\n        /* \"#utility.yul\":907:995   */\n      iszero\n      tag_244\n      jumpi\n        /* \"#utility.yul\":975:993   */\n      tag_245\n      tag_53\n      jump\t// in\n    tag_245:\n        /* \"#utility.yul\":907:995   */\n    tag_244:\n        /* \"#utility.yul\":1015:1025   */\n      dup1\n        /* \"#utility.yul\":1011:1013   */\n      0x40\n        /* \"#utility.yul\":1004:1026   */\n      mstore\n        /* \"#utility.yul\":794:1032   */\n      pop\n        /* \"#utility.yul\":751:1032   */\n      pop\n      pop\n      jump\t// out\n        /* \"#utility.yul\":1038:1167   */\n    tag_161:\n        /* \"#utility.yul\":1072:1078   */\n      0x00\n        /* \"#utility.yul\":1099:1119   */\n      tag_247\n      tag_155\n      jump\t// in\n    tag_247:\n        /* \"#utility.yul\":1089:1119   */\n      swap1\n      pop\n        /* \"#utility.yul\":1128:1161   */\n      tag_248\n        /* \"#utility.yul\":1156:1160   */\n      dup3\n        /* \"#utility.yul\":1148:1154   */\n      dup3\n        /* \"#utility.yul\":1128:1161   */\n      tag_160\n      jump\t// in\n    tag_248:\n        /* \"#utility.yul\":1038:1167   */\n      swap2\n      swap1\n      pop\n      jump\t// out\n        /* \"#utility.yul\":1173:1290   */\n    tag_162:\n        /* \"#utility.yul\":1282:1283   */\n      0x00\n        /* \"#utility.yul\":1279:1280   */\n      dup1\n        /* \"#utility.yul\":1272:1284   */\n      revert\n        /* \"#utility.yul\":1296:1413   */\n    tag_163:\n        /* \"#utility.yul\":1405:1406   */\n      0x00\n        /* \"#utility.yul\":1402:1403   */\n      dup1\n        /* \"#utility.yul\":1395:1407   */\n      revert\n        /* \"#utility.yul\":1419:1745   */\n    tag_164:\n        /* \"#utility.yul\":1511:1515   */\n      0x00\n        /* \"#utility.yul\":1601:1619   */\n      0xffffffffffffffff\n        /* \"#utility.yul\":1593:1599   */\n      dup3\n        /* \"#utility.yul\":1590:1620   */\n      gt\n        /* \"#utility.yul\":1587:1643   */\n      iszero\n      tag_252\n      jumpi\n        /* \"#utility.yul\":1623:1641   */\n      tag_253\n      tag_53\n      jump\t// in\n    tag_253:\n        /* \"#utility.yul\":1587:1643   */\n    tag_252:\n        /* \"#utility.yul\":1673:1677   */\n      0x20\n        /* \"#utility.yul\":1665:1671   */\n      dup3\n        /* \"#utility.yul\":1661:1678   */\n      mul\n        /* \"#utility.yul\":1653:1678   */\n      swap1\n      pop\n        /* \"#utility.yul\":1733:1737   */\n      0x20\n        /* \"#utility.yul\":1727:1731   */\n      dup2\n        /* \"#utility.yul\":1723:1738   */\n      add\n        /* \"#utility.yul\":1715:1738   */\n      swap1\n      pop\n        /* \"#utility.yul\":1419:1745   */\n      swap2\n      swap1\n      pop\n      jump\t// out\n        /* \"#utility.yul\":1751:1868   */\n    tag_165:\n        /* \"#utility.yul\":1860:1861   */\n      0x00\n        /* \"#utility.yul\":1857:1858   */\n      dup1\n        /* \"#utility.yul\":1850:1862   */\n      revert\n        /* \"#utility.yul\":1874:2000   */\n    tag_166:\n        /* \"#utility.yul\":1911:1918   */\n      0x00\n        /* \"#utility.yul\":1951:1993   */\n      0xffffffffffffffffffffffffffffffffffffffff\n        /* \"#utility.yul\":1944:1949   */\n      dup3\n        /* \"#utility.yul\":1940:1994   */\n      and\n        /* \"#utility.yul\":1929:1994   */\n      swap1\n      pop\n        /* \"#utility.yul\":1874:2000   */\n      swap2\n      swap1\n      pop\n      jump\t// out\n        /* \"#utility.yul\":2006:2102   */\n    tag_167:\n        /* \"#utility.yul\":2043:2050   */\n      0x00\n        /* \"#utility.yul\":2072:2096   */\n      tag_257\n        /* \"#utility.yul\":2090:2095   */\n      dup3\n        /* \"#utility.yul\":2072:2096   */\n      tag_166\n      jump\t// in\n    tag_257:\n        /* \"#utility.yul\":2061:2096   */\n      swap1\n      pop\n        /* \"#utility.yul\":2006:2102   */\n      swap2\n      swap1\n      pop\n      jump\t// out\n        /* \"#utility.yul\":2108:2219   */\n    tag_168:\n        /* \"#utility.yul\":2160:2167   */\n      0x00\n        /* \"#utility.yul\":2189:2213   */\n      tag_259\n        /* \"#utility.yul\":2207:2212   */\n      dup3\n        /* \"#utility.yul\":2189:2213   */\n      tag_167\n      jump\t// in\n    tag_259:\n        /* \"#utility.yul\":2178:2213   */\n      swap1\n      pop\n        /* \"#utility.yul\":2108:2219   */\n      swap2\n      swap1\n      pop\n      jump\t// out\n        /* \"#utility.yul\":2225:2377   */\n    tag_169:\n        /* \"#utility.yul\":2313:2352   */\n      tag_261\n        /* \"#utility.yul\":2346:2351   */\n      dup2\n        /* \"#utility.yul\":2313:2352   */\n      tag_168\n      jump\t// in\n    tag_261:\n        /* \"#utility.yul\":2306:2311   */\n      dup2\n        /* \"#utility.yul\":2303:2353   */\n      eq\n        /* \"#utility.yul\":2293:2371   */\n      tag_262\n      jumpi\n        /* \"#utility.yul\":2367:2368   */\n      0x00\n        /* \"#utility.yul\":2364:2365   */\n      dup1\n        /* \"#utility.yul\":2357:2369   */\n      revert\n        /* \"#utility.yul\":2293:2371   */\n    tag_262:\n        /* \"#utility.yul\":2225:2377   */\n      pop\n      jump\t// out\n        /* \"#utility.yul\":2383:2552   */\n    tag_170:\n        /* \"#utility.yul\":2444:2449   */\n      0x00\n        /* \"#utility.yul\":2482:2488   */\n      dup2\n        /* \"#utility.yul\":2469:2489   */\n      calldataload\n        /* \"#utility.yul\":2460:2489   */\n      swap1\n      pop\n        /* \"#utility.yul\":2498:2546   */\n      tag_264\n        /* \"#utility.yul\":2540:2545   */\n      dup2\n        /* \"#utility.yul\":2498:2546   */\n      tag_169\n      jump\t// in\n    tag_264:\n        /* \"#utility.yul\":2383:2552   */\n      swap3\n      swap2\n      pop\n      pop\n      jump\t// out\n        /* \"#utility.yul\":2583:3338   */\n    tag_171:\n        /* \"#utility.yul\":2694:2699   */\n      0x00\n        /* \"#utility.yul\":2719:2815   */\n      tag_266\n        /* \"#utility.yul\":2735:2814   */\n      tag_267\n        /* \"#utility.yul\":2807:2813   */\n      dup5\n        /* \"#utility.yul\":2735:2814   */\n      tag_164\n      jump\t// in\n    tag_267:\n        /* \"#utility.yul\":2719:2815   */\n      tag_161\n      jump\t// in\n    tag_266:\n        /* \"#utility.yul\":2710:2815   */\n      swap1\n      pop\n        /* \"#utility.yul\":2835:2840   */\n      dup1\n        /* \"#utility.yul\":2864:2870   */\n      dup4\n        /* \"#utility.yul\":2857:2862   */\n      dup3\n        /* \"#utility.yul\":2850:2871   */\n      mstore\n        /* \"#utility.yul\":2898:2902   */\n      0x20\n        /* \"#utility.yul\":2891:2896   */\n      dup3\n        /* \"#utility.yul\":2887:2903   */\n      add\n        /* \"#utility.yul\":2880:2903   */\n      swap1\n      pop\n        /* \"#utility.yul\":2951:2955   */\n      0x20\n        /* \"#utility.yul\":2943:2949   */\n      dup5\n        /* \"#utility.yul\":2939:2956   */\n      mul\n        /* \"#utility.yul\":2931:2937   */\n      dup4\n        /* \"#utility.yul\":2927:2957   */\n      add\n        /* \"#utility.yul\":2980:2983   */\n      dup6\n        /* \"#utility.yul\":2972:2978   */\n      dup2\n        /* \"#utility.yul\":2969:2984   */\n      gt\n        /* \"#utility.yul\":2966:3088   */\n      iszero\n      tag_268\n      jumpi\n        /* \"#utility.yul\":2999:3078   */\n      tag_269\n      tag_165\n      jump\t// in\n    tag_269:\n        /* \"#utility.yul\":2966:3088   */\n    tag_268:\n        /* \"#utility.yul\":3114:3120   */\n      dup4\n        /* \"#utility.yul\":3097:3332   */\n    tag_270:\n        /* \"#utility.yul\":3131:3137   */\n      dup2\n        /* \"#utility.yul\":3126:3129   */\n      dup2\n        /* \"#utility.yul\":3123:3138   */\n      lt\n        /* \"#utility.yul\":3097:3332   */\n      iszero\n      tag_272\n      jumpi\n        /* \"#utility.yul\":3206:3209   */\n      dup1\n        /* \"#utility.yul\":3235:3287   */\n      tag_273\n        /* \"#utility.yul\":3283:3286   */\n      dup9\n        /* \"#utility.yul\":3271:3281   */\n      dup3\n        /* \"#utility.yul\":3235:3287   */\n      tag_170\n      jump\t// in\n    tag_273:\n        /* \"#utility.yul\":3230:3233   */\n      dup5\n        /* \"#utility.yul\":3223:3288   */\n      mstore\n        /* \"#utility.yul\":3317:3321   */\n      0x20\n        /* \"#utility.yul\":3312:3315   */\n      dup5\n        /* \"#utility.yul\":3308:3322   */\n      add\n        /* \"#utility.yul\":3301:3322   */\n      swap4\n      pop\n        /* \"#utility.yul\":3173:3332   */\n      pop\n        /* \"#utility.yul\":3157:3161   */\n      0x20\n        /* \"#utility.yul\":3152:3155   */\n      dup2\n        /* \"#utility.yul\":3148:3162   */\n      add\n        /* \"#utility.yul\":3141:3162   */\n      swap1\n      pop\n        /* \"#utility.yul\":3097:3332   */\n      jump(tag_270)\n    tag_272:\n        /* \"#utility.yul\":3101:3122   */\n      pop\n        /* \"#utility.yul\":2700:3338   */\n      pop\n      pop\n        /* \"#utility.yul\":2583:3338   */\n      swap4\n      swap3\n      pop\n      pop\n      pop\n      jump\t// out\n        /* \"#utility.yul\":3369:3769   */\n    tag_172:\n        /* \"#utility.yul\":3455:3460   */\n      0x00\n        /* \"#utility.yul\":3504:3507   */\n      dup3\n        /* \"#utility.yul\":3497:3501   */\n      0x1f\n        /* \"#utility.yul\":3489:3495   */\n      dup4\n        /* \"#utility.yul\":3485:3502   */\n      add\n        /* \"#utility.yul\":3481:3508   */\n      slt\n        /* \"#utility.yul\":3471:3593   */\n      tag_275\n      jumpi\n        /* \"#utility.yul\":3512:3591   */\n      tag_276\n      tag_163\n      jump\t// in\n    tag_276:\n        /* \"#utility.yul\":3471:3593   */\n    tag_275:\n        /* \"#utility.yul\":3629:3635   */\n      dup2\n        /* \"#utility.yul\":3616:3636   */\n      calldataload\n        /* \"#utility.yul\":3654:3763   */\n      tag_277\n        /* \"#utility.yul\":3759:3762   */\n      dup5\n        /* \"#utility.yul\":3751:3757   */\n      dup3\n        /* \"#utility.yul\":3744:3748   */\n      0x20\n        /* \"#utility.yul\":3736:3742   */\n      dup7\n        /* \"#utility.yul\":3732:3749   */\n      add\n        /* \"#utility.yul\":3654:3763   */\n      tag_171\n      jump\t// in\n    tag_277:\n        /* \"#utility.yul\":3645:3763   */\n      swap2\n      pop\n        /* \"#utility.yul\":3461:3769   */\n      pop\n        /* \"#utility.yul\":3369:3769   */\n      swap3\n      swap2\n      pop\n      pop\n      jump\t// out\n        /* \"#utility.yul\":3775:3852   */\n    tag_173:\n        /* \"#utility.yul\":3812:3819   */\n      0x00\n        /* \"#utility.yul\":3841:3846   */\n      dup2\n        /* \"#utility.yul\":3830:3846   */\n      swap1\n      pop\n        /* \"#utility.yul\":3775:3852   */\n      swap2\n      swap1\n      pop\n      jump\t// out\n        /* \"#utility.yul\":3858:3980   */\n    tag_174:\n        /* \"#utility.yul\":3931:3955   */\n      tag_280\n        /* \"#utility.yul\":3949:3954   */\n      dup2\n        /* \"#utility.yul\":3931:3955   */\n      tag_173\n      jump\t// in\n    tag_280:\n        /* \"#utility.yul\":3924:3929   */\n      dup2\n        /* \"#utility.yul\":3921:3956   */\n      eq\n        /* \"#utility.yul\":3911:3974   */\n      tag_281\n      jumpi\n        /* \"#utility.yul\":3970:3971   */\n      0x00\n        /* \"#utility.yul\":3967:3968   */\n      dup1\n        /* \"#utility.yul\":3960:3972   */\n      revert\n        /* \"#utility.yul\":3911:3974   */\n    tag_281:\n        /* \"#utility.yul\":3858:3980   */\n      pop\n      jump\t// out\n        /* \"#utility.yul\":3986:4125   */\n    tag_175:\n        /* \"#utility.yul\":4032:4037   */\n      0x00\n        /* \"#utility.yul\":4070:4076   */\n      dup2\n        /* \"#utility.yul\":4057:4077   */\n      calldataload\n        /* \"#utility.yul\":4048:4077   */\n      swap1\n      pop\n        /* \"#utility.yul\":4086:4119   */\n      tag_283\n        /* \"#utility.yul\":4113:4118   */\n      dup2\n        /* \"#utility.yul\":4086:4119   */\n      tag_174\n      jump\t// in\n    tag_283:\n        /* \"#utility.yul\":3986:4125   */\n      swap3\n      swap2\n      pop\n      pop\n      jump\t// out\n        /* \"#utility.yul\":4131:4208   */\n    tag_176:\n        /* \"#utility.yul\":4168:4175   */\n      0x00\n        /* \"#utility.yul\":4197:4202   */\n      dup2\n        /* \"#utility.yul\":4186:4202   */\n      swap1\n      pop\n        /* \"#utility.yul\":4131:4208   */\n      swap2\n      swap1\n      pop\n      jump\t// out\n        /* \"#utility.yul\":4214:4336   */\n    tag_177:\n        /* \"#utility.yul\":4287:4311   */\n      tag_286\n        /* \"#utility.yul\":4305:4310   */\n      dup2\n        /* \"#utility.yul\":4287:4311   */\n      tag_176\n      jump\t// in\n    tag_286:\n        /* \"#utility.yul\":4280:4285   */\n      dup2\n        /* \"#utility.yul\":4277:4312   */\n      eq\n        /* \"#utility.yul\":4267:4330   */\n      tag_287\n      jumpi\n        /* \"#utility.yul\":4326:4327   */\n      0x00\n        /* \"#utility.yul\":4323:4324   */\n      dup1\n        /* \"#utility.yul\":4316:4328   */\n      revert\n        /* \"#utility.yul\":4267:4330   */\n    tag_287:\n        /* \"#utility.yul\":4214:4336   */\n      pop\n      jump\t// out\n        /* \"#utility.yul\":4342:4481   */\n    tag_178:\n        /* \"#utility.yul\":4388:4393   */\n      0x00\n        /* \"#utility.yul\":4426:4432   */\n      dup2\n        /* \"#utility.yul\":4413:4433   */\n      calldataload\n        /* \"#utility.yul\":4404:4433   */\n      swap1\n      pop\n        /* \"#utility.yul\":4442:4475   */\n      tag_289\n        /* \"#utility.yul\":4469:4474   */\n      dup2\n        /* \"#utility.yul\":4442:4475   */\n      tag_177\n      jump\t// in\n    tag_289:\n        /* \"#utility.yul\":4342:4481   */\n      swap3\n      swap2\n      pop\n      pop\n      jump\t// out\n        /* \"#utility.yul\":4487:4609   */\n    tag_179:\n        /* \"#utility.yul\":4560:4584   */\n      tag_291\n        /* \"#utility.yul\":4578:4583   */\n      dup2\n        /* \"#utility.yul\":4560:4584   */\n      tag_167\n      jump\t// in\n    tag_291:\n        /* \"#utility.yul\":4553:4558   */\n      dup2\n        /* \"#utility.yul\":4550:4585   */\n      eq\n        /* \"#utility.yul\":4540:4603   */\n      tag_292\n      jumpi\n        /* \"#utility.yul\":4599:4600   */\n      0x00\n        /* \"#utility.yul\":4596:4597   */\n      dup1\n        /* \"#utility.yul\":4589:4601   */\n      revert\n        /* \"#utility.yul\":4540:4603   */\n    tag_292:\n        /* \"#utility.yul\":4487:4609   */\n      pop\n      jump\t// out\n        /* \"#utility.yul\":4615:4754   */\n    tag_180:\n        /* \"#utility.yul\":4661:4666   */\n      0x00\n        /* \"#utility.yul\":4699:4705   */\n      dup2\n        /* \"#utility.yul\":4686:4706   */\n      calldataload\n        /* \"#utility.yul\":4677:4706   */\n      swap1\n      pop\n        /* \"#utility.yul\":4715:4748   */\n      tag_294\n        /* \"#utility.yul\":4742:4747   */\n      dup2\n        /* \"#utility.yul\":4715:4748   */\n      tag_179\n      jump\t// in\n    tag_294:\n        /* \"#utility.yul\":4615:4754   */\n      swap3\n      swap2\n      pop\n      pop\n      jump\t// out\n        /* \"#utility.yul\":4798:6251   */\n    tag_181:\n        /* \"#utility.yul\":4876:4881   */\n      0x00\n        /* \"#utility.yul\":4920:4924   */\n      0xc0\n        /* \"#utility.yul\":4908:4917   */\n      dup3\n        /* \"#utility.yul\":4903:4906   */\n      dup5\n        /* \"#utility.yul\":4899:4918   */\n      sub\n        /* \"#utility.yul\":4895:4925   */\n      slt\n        /* \"#utility.yul\":4892:5009   */\n      iszero\n      tag_296\n      jumpi\n        /* \"#utility.yul\":4928:5007   */\n      tag_297\n      tag_158\n      jump\t// in\n    tag_297:\n        /* \"#utility.yul\":4892:5009   */\n    tag_296:\n        /* \"#utility.yul\":5027:5048   */\n      tag_298\n        /* \"#utility.yul\":5043:5047   */\n      0xc0\n        /* \"#utility.yul\":5027:5048   */\n      tag_161\n      jump\t// in\n    tag_298:\n        /* \"#utility.yul\":5018:5048   */\n      swap1\n      pop\n        /* \"#utility.yul\":5142:5143   */\n      0x00\n        /* \"#utility.yul\":5131:5140   */\n      dup3\n        /* \"#utility.yul\":5127:5144   */\n      add\n        /* \"#utility.yul\":5114:5145   */\n      calldataload\n        /* \"#utility.yul\":5172:5190   */\n      0xffffffffffffffff\n        /* \"#utility.yul\":5164:5170   */\n      dup2\n        /* \"#utility.yul\":5161:5191   */\n      gt\n        /* \"#utility.yul\":5158:5275   */\n      iszero\n      tag_299\n      jumpi\n        /* \"#utility.yul\":5194:5273   */\n      tag_300\n      tag_162\n      jump\t// in\n    tag_300:\n        /* \"#utility.yul\":5158:5275   */\n    tag_299:\n        /* \"#utility.yul\":5314:5403   */\n      tag_301\n        /* \"#utility.yul\":5399:5402   */\n      dup5\n        /* \"#utility.yul\":5390:5396   */\n      dup3\n        /* \"#utility.yul\":5379:5388   */\n      dup6\n        /* \"#utility.yul\":5375:5397   */\n      add\n        /* \"#utility.yul\":5314:5403   */\n      tag_172\n      jump\t// in\n    tag_301:\n        /* \"#utility.yul\":5307:5311   */\n      0x00\n        /* \"#utility.yul\":5300:5305   */\n      dup4\n        /* \"#utility.yul\":5296:5312   */\n      add\n        /* \"#utility.yul\":5289:5404   */\n      mstore\n        /* \"#utility.yul\":5058:5415   */\n      pop\n        /* \"#utility.yul\":5480:5482   */\n      0x20\n        /* \"#utility.yul\":5521:5570   */\n      tag_302\n        /* \"#utility.yul\":5566:5569   */\n      dup5\n        /* \"#utility.yul\":5557:5563   */\n      dup3\n        /* \"#utility.yul\":5546:5555   */\n      dup6\n        /* \"#utility.yul\":5542:5564   */\n      add\n        /* \"#utility.yul\":5521:5570   */\n      tag_175\n      jump\t// in\n    tag_302:\n        /* \"#utility.yul\":5514:5518   */\n      0x20\n        /* \"#utility.yul\":5507:5512   */\n      dup4\n        /* \"#utility.yul\":5503:5519   */\n      add\n        /* \"#utility.yul\":5496:5571   */\n      mstore\n        /* \"#utility.yul\":5425:5582   */\n      pop\n        /* \"#utility.yul\":5648:5650   */\n      0x40\n        /* \"#utility.yul\":5689:5738   */\n      tag_303\n        /* \"#utility.yul\":5734:5737   */\n      dup5\n        /* \"#utility.yul\":5725:5731   */\n      dup3\n        /* \"#utility.yul\":5714:5723   */\n      dup6\n        /* \"#utility.yul\":5710:5732   */\n      add\n        /* \"#utility.yul\":5689:5738   */\n      tag_178\n      jump\t// in\n    tag_303:\n        /* \"#utility.yul\":5682:5686   */\n      0x40\n        /* \"#utility.yul\":5675:5680   */\n      dup4\n        /* \"#utility.yul\":5671:5687   */\n      add\n        /* \"#utility.yul\":5664:5739   */\n      mstore\n        /* \"#utility.yul\":5592:5750   */\n      pop\n        /* \"#utility.yul\":5812:5814   */\n      0x60\n        /* \"#utility.yul\":5853:5902   */\n      tag_304\n        /* \"#utility.yul\":5898:5901   */\n      dup5\n        /* \"#utility.yul\":5889:5895   */\n      dup3\n        /* \"#utility.yul\":5878:5887   */\n      dup6\n        /* \"#utility.yul\":5874:5896   */\n      add\n        /* \"#utility.yul\":5853:5902   */\n      tag_180\n      jump\t// in\n    tag_304:\n        /* \"#utility.yul\":5846:5850   */\n      0x60\n        /* \"#utility.yul\":5839:5844   */\n      dup4\n        /* \"#utility.yul\":5835:5851   */\n      add\n        /* \"#utility.yul\":5828:5903   */\n      mstore\n        /* \"#utility.yul\":5760:5914   */\n      pop\n        /* \"#utility.yul\":5974:5977   */\n      0x80\n        /* \"#utility.yul\":6016:6065   */\n      tag_305\n        /* \"#utility.yul\":6061:6064   */\n      dup5\n        /* \"#utility.yul\":6052:6058   */\n      dup3\n        /* \"#utility.yul\":6041:6050   */\n      dup6\n        /* \"#utility.yul\":6037:6059   */\n      add\n        /* \"#utility.yul\":6016:6065   */\n      tag_180\n      jump\t// in\n    tag_305:\n        /* \"#utility.yul\":6009:6013   */\n      0x80\n        /* \"#utility.yul\":6002:6007   */\n      dup4\n        /* \"#utility.yul\":5998:6014   */\n      add\n        /* \"#utility.yul\":5991:6066   */\n      mstore\n        /* \"#utility.yul\":5924:6077   */\n      pop\n        /* \"#utility.yul\":6141:6144   */\n      0xa0\n        /* \"#utility.yul\":6183:6232   */\n      tag_306\n        /* \"#utility.yul\":6228:6231   */\n      dup5\n        /* \"#utility.yul\":6219:6225   */\n      dup3\n        /* \"#utility.yul\":6208:6217   */\n      dup6\n        /* \"#utility.yul\":6204:6226   */\n      add\n        /* \"#utility.yul\":6183:6232   */\n      tag_180\n      jump\t// in\n    tag_306:\n        /* \"#utility.yul\":6176:6180   */\n      0xa0\n        /* \"#utility.yul\":6169:6174   */\n      dup4\n        /* \"#utility.yul\":6165:6181   */\n      add\n        /* \"#utility.yul\":6158:6233   */\n      mstore\n        /* \"#utility.yul\":6087:6244   */\n      pop\n        /* \"#utility.yul\":4798:6251   */\n      swap3\n      swap2\n      pop\n      pop\n      jump\t// out\n        /* \"#utility.yul\":6257:6949   */\n    tag_9:\n        /* \"#utility.yul\":6354:6360   */\n      0x00\n        /* \"#utility.yul\":6362:6368   */\n      dup1\n        /* \"#utility.yul\":6411:6413   */\n      0x40\n        /* \"#utility.yul\":6399:6408   */\n      dup4\n        /* \"#utility.yul\":6390:6397   */\n      dup6\n        /* \"#utility.yul\":6386:6409   */\n      sub\n        /* \"#utility.yul\":6382:6414   */\n      slt\n        /* \"#utility.yul\":6379:6498   */\n      iszero\n      tag_308\n      jumpi\n        /* \"#utility.yul\":6417:6496   */\n      tag_309\n      tag_156\n      jump\t// in\n    tag_309:\n        /* \"#utility.yul\":6379:6498   */\n    tag_308:\n        /* \"#utility.yul\":6565:6566   */\n      0x00\n        /* \"#utility.yul\":6554:6563   */\n      dup4\n        /* \"#utility.yul\":6550:6567   */\n      add\n        /* \"#utility.yul\":6537:6568   */\n      calldataload\n        /* \"#utility.yul\":6595:6613   */\n      0xffffffffffffffff\n        /* \"#utility.yul\":6587:6593   */\n      dup2\n        /* \"#utility.yul\":6584:6614   */\n      gt\n        /* \"#utility.yul\":6581:6698   */\n      iszero\n      tag_310\n      jumpi\n        /* \"#utility.yul\":6617:6696   */\n      tag_311\n      tag_157\n      jump\t// in\n    tag_311:\n        /* \"#utility.yul\":6581:6698   */\n    tag_310:\n        /* \"#utility.yul\":6722:6804   */\n      tag_312\n        /* \"#utility.yul\":6796:6803   */\n      dup6\n        /* \"#utility.yul\":6787:6793   */\n      dup3\n        /* \"#utility.yul\":6776:6785   */\n      dup7\n        /* \"#utility.yul\":6772:6794   */\n      add\n        /* \"#utility.yul\":6722:6804   */\n      tag_181\n      jump\t// in\n    tag_312:\n        /* \"#utility.yul\":6712:6804   */\n      swap3\n      pop\n        /* \"#utility.yul\":6508:6814   */\n      pop\n        /* \"#utility.yul\":6853:6855   */\n      0x20\n        /* \"#utility.yul\":6879:6932   */\n      tag_313\n        /* \"#utility.yul\":6924:6931   */\n      dup6\n        /* \"#utility.yul\":6915:6921   */\n      dup3\n        /* \"#utility.yul\":6904:6913   */\n      dup7\n        /* \"#utility.yul\":6900:6922   */\n      add\n        /* \"#utility.yul\":6879:6932   */\n      tag_175\n      jump\t// in\n    tag_313:\n        /* \"#utility.yul\":6869:6932   */\n      swap2\n      pop\n        /* \"#utility.yul\":6824:6942   */\n      pop\n        /* \"#utility.yul\":6257:6949   */\n      swap3\n      pop\n      swap3\n      swap1\n      pop\n      jump\t// out\n        /* \"#utility.yul\":6955:7073   */\n    tag_182:\n        /* \"#utility.yul\":7042:7066   */\n      tag_315\n        /* \"#utility.yul\":7060:7065   */\n      dup2\n        /* \"#utility.yul\":7042:7066   */\n      tag_167\n      jump\t// in\n    tag_315:\n        /* \"#utility.yul\":7037:7040   */\n      dup3\n        /* \"#utility.yul\":7030:7067   */\n      mstore\n        /* \"#utility.yul\":6955:7073   */\n      pop\n      pop\n      jump\t// out\n        /* \"#utility.yul\":7079:7301   */\n    tag_14:\n        /* \"#utility.yul\":7172:7176   */\n      0x00\n        /* \"#utility.yul\":7210:7212   */\n      0x20\n        /* \"#utility.yul\":7199:7208   */\n      dup3\n        /* \"#utility.yul\":7195:7213   */\n      add\n        /* \"#utility.yul\":7187:7213   */\n      swap1\n      pop\n        /* \"#utility.yul\":7223:7294   */\n      tag_317\n        /* \"#utility.yul\":7291:7292   */\n      0x00\n        /* \"#utility.yul\":7280:7289   */\n      dup4\n        /* \"#utility.yul\":7276:7293   */\n      add\n        /* \"#utility.yul\":7267:7273   */\n      dup5\n        /* \"#utility.yul\":7223:7294   */\n      tag_182\n      jump\t// in\n    tag_317:\n        /* \"#utility.yul\":7079:7301   */\n      swap3\n      swap2\n      pop\n      pop\n      jump\t// out\n        /* \"#utility.yul\":7307:8144   */\n    tag_17:\n        /* \"#utility.yul\":7413:7419   */\n      0x00\n        /* \"#utility.yul\":7421:7427   */\n      dup1\n        /* \"#utility.yul\":7429:7435   */\n      0x00\n        /* \"#utility.yul\":7478:7480   */\n      0x60\n        /* \"#utility.yul\":7466:7475   */\n      dup5\n        /* \"#utility.yul\":7457:7464   */\n      dup7\n        /* \"#utility.yul\":7453:7476   */\n      sub\n        /* \"#utility.yul\":7449:7481   */\n      slt\n        /* \"#utility.yul\":7446:7565   */\n      iszero\n      tag_319\n      jumpi\n        /* \"#utility.yul\":7484:7563   */\n      tag_320\n      tag_156\n      jump\t// in\n    tag_320:\n        /* \"#utility.yul\":7446:7565   */\n    tag_319:\n        /* \"#utility.yul\":7604:7605   */\n      0x00\n        /* \"#utility.yul\":7629:7682   */\n      tag_321\n        /* \"#utility.yul\":7674:7681   */\n      dup7\n        /* \"#utility.yul\":7665:7671   */\n      dup3\n        /* \"#utility.yul\":7654:7663   */\n      dup8\n        /* \"#utility.yul\":7650:7672   */\n      add\n        /* \"#utility.yul\":7629:7682   */\n      tag_180\n      jump\t// in\n    tag_321:\n        /* \"#utility.yul\":7619:7682   */\n      swap4\n      pop\n        /* \"#utility.yul\":7575:7692   */\n      pop\n        /* \"#utility.yul\":7759:7761   */\n      0x20\n        /* \"#utility.yul\":7748:7757   */\n      dup5\n        /* \"#utility.yul\":7744:7762   */\n      add\n        /* \"#utility.yul\":7731:7763   */\n      calldataload\n        /* \"#utility.yul\":7790:7808   */\n      0xffffffffffffffff\n        /* \"#utility.yul\":7782:7788   */\n      dup2\n        /* \"#utility.yul\":7779:7809   */\n      gt\n        /* \"#utility.yul\":7776:7893   */\n      iszero\n      tag_322\n      jumpi\n        /* \"#utility.yul\":7812:7891   */\n      tag_323\n      tag_157\n      jump\t// in\n    tag_323:\n        /* \"#utility.yul\":7776:7893   */\n    tag_322:\n        /* \"#utility.yul\":7917:7999   */\n      tag_324\n        /* \"#utility.yul\":7991:7998   */\n      dup7\n        /* \"#utility.yul\":7982:7988   */\n      dup3\n        /* \"#utility.yul\":7971:7980   */\n      dup8\n        /* \"#utility.yul\":7967:7989   */\n      add\n        /* \"#utility.yul\":7917:7999   */\n      tag_181\n      jump\t// in\n    tag_324:\n        /* \"#utility.yul\":7907:7999   */\n      swap3\n      pop\n        /* \"#utility.yul\":7702:8009   */\n      pop\n        /* \"#utility.yul\":8048:8050   */\n      0x40\n        /* \"#utility.yul\":8074:8127   */\n      tag_325\n        /* \"#utility.yul\":8119:8126   */\n      dup7\n        /* \"#utility.yul\":8110:8116   */\n      dup3\n        /* \"#utility.yul\":8099:8108   */\n      dup8\n        /* \"#utility.yul\":8095:8117   */\n      add\n        /* \"#utility.yul\":8074:8127   */\n      tag_175\n      jump\t// in\n    tag_325:\n        /* \"#utility.yul\":8064:8127   */\n      swap2\n      pop\n        /* \"#utility.yul\":8019:8137   */\n      pop\n        /* \"#utility.yul\":7307:8144   */\n      swap3\n      pop\n      swap3\n      pop\n      swap3\n      jump\t// out\n        /* \"#utility.yul\":8150:8330   */\n    tag_33:\n        /* \"#utility.yul\":8198:8275   */\n      0x4e487b7100000000000000000000000000000000000000000000000000000000\n        /* \"#utility.yul\":8195:8196   */\n      0x00\n        /* \"#utility.yul\":8188:8276   */\n      mstore\n        /* \"#utility.yul\":8295:8299   */\n      0x32\n        /* \"#utility.yul\":8292:8293   */\n      0x04\n        /* \"#utility.yul\":8285:8300   */\n      mstore\n        /* \"#utility.yul\":8319:8323   */\n      0x24\n        /* \"#utility.yul\":8316:8317   */\n      0x00\n        /* \"#utility.yul\":8309:8324   */\n      revert\n        /* \"#utility.yul\":8336:8454   */\n    tag_183:\n        /* \"#utility.yul\":8423:8447   */\n      tag_328\n        /* \"#utility.yul\":8441:8446   */\n      dup2\n        /* \"#utility.yul\":8423:8447   */\n      tag_173\n      jump\t// in\n    tag_328:\n        /* \"#utility.yul\":8418:8421   */\n      dup3\n        /* \"#utility.yul\":8411:8448   */\n      mstore\n        /* \"#utility.yul\":8336:8454   */\n      pop\n      pop\n      jump\t// out\n        /* \"#utility.yul\":8460:8902   */\n    tag_48:\n        /* \"#utility.yul\":8609:8613   */\n      0x00\n        /* \"#utility.yul\":8647:8649   */\n      0x60\n        /* \"#utility.yul\":8636:8645   */\n      dup3\n        /* \"#utility.yul\":8632:8650   */\n      add\n        /* \"#utility.yul\":8624:8650   */\n      swap1\n      pop\n        /* \"#utility.yul\":8660:8731   */\n      tag_330\n        /* \"#utility.yul\":8728:8729   */\n      0x00\n        /* \"#utility.yul\":8717:8726   */\n      dup4\n        /* \"#utility.yul\":8713:8730   */\n      add\n        /* \"#utility.yul\":8704:8710   */\n      dup7\n        /* \"#utility.yul\":8660:8731   */\n      tag_182\n      jump\t// in\n    tag_330:\n        /* \"#utility.yul\":8741:8813   */\n      tag_331\n        /* \"#utility.yul\":8809:8811   */\n      0x20\n        /* \"#utility.yul\":8798:8807   */\n      dup4\n        /* \"#utility.yul\":8794:8812   */\n      add\n        /* \"#utility.yul\":8785:8791   */\n      dup6\n        /* \"#utility.yul\":8741:8813   */\n      tag_182\n      jump\t// in\n    tag_331:\n        /* \"#utility.yul\":8823:8895   */\n      tag_332\n        /* \"#utility.yul\":8891:8893   */\n      0x40\n        /* \"#utility.yul\":8880:8889   */\n      dup4\n        /* \"#utility.yul\":8876:8894   */\n      add\n        /* \"#utility.yul\":8867:8873   */\n      dup5\n        /* \"#utility.yul\":8823:8895   */\n      tag_183\n      jump\t// in\n    tag_332:\n        /* \"#utility.yul\":8460:8902   */\n      swap5\n      swap4\n      pop\n      pop\n      pop\n      pop\n      jump\t// out\n        /* \"#utility.yul\":8908:8993   */\n    tag_184:\n        /* \"#utility.yul\":8953:8960   */\n      0x00\n        /* \"#utility.yul\":8982:8987   */\n      dup2\n        /* \"#utility.yul\":8971:8987   */\n      swap1\n      pop\n        /* \"#utility.yul\":8908:8993   */\n      swap2\n      swap1\n      pop\n      jump\t// out\n        /* \"#utility.yul\":8999:9085   */\n    tag_185:\n        /* \"#utility.yul\":9034:9041   */\n      0x00\n        /* \"#utility.yul\":9074:9078   */\n      0xff\n        /* \"#utility.yul\":9067:9072   */\n      dup3\n        /* \"#utility.yul\":9063:9079   */\n      and\n        /* \"#utility.yul\":9052:9079   */\n      swap1\n      pop\n        /* \"#utility.yul\":8999:9085   */\n      swap2\n      swap1\n      pop\n      jump\t// out\n        /* \"#utility.yul\":9091:9151   */\n    tag_186:\n        /* \"#utility.yul\":9119:9122   */\n      0x00\n        /* \"#utility.yul\":9140:9145   */\n      dup2\n        /* \"#utility.yul\":9133:9145   */\n      swap1\n      pop\n        /* \"#utility.yul\":9091:9151   */\n      swap2\n      swap1\n      pop\n      jump\t// out\n        /* \"#utility.yul\":9157:9311   */\n    tag_187:\n        /* \"#utility.yul\":9213:9222   */\n      0x00\n        /* \"#utility.yul\":9246:9305   */\n      tag_337\n        /* \"#utility.yul\":9262:9304   */\n      tag_338\n        /* \"#utility.yul\":9271:9303   */\n      tag_339\n        /* \"#utility.yul\":9297:9302   */\n      dup5\n        /* \"#utility.yul\":9271:9303   */\n      tag_184\n      jump\t// in\n    tag_339:\n        /* \"#utility.yul\":9262:9304   */\n      tag_186\n      jump\t// in\n    tag_338:\n        /* \"#utility.yul\":9246:9305   */\n      tag_185\n      jump\t// in\n    tag_337:\n        /* \"#utility.yul\":9233:9305   */\n      swap1\n      pop\n        /* \"#utility.yul\":9157:9311   */\n      swap2\n      swap1\n      pop\n      jump\t// out\n        /* \"#utility.yul\":9317:9460   */\n    tag_188:\n        /* \"#utility.yul\":9410:9453   */\n      tag_341\n        /* \"#utility.yul\":9447:9452   */\n      dup2\n        /* \"#utility.yul\":9410:9453   */\n      tag_187\n      jump\t// in\n    tag_341:\n        /* \"#utility.yul\":9405:9408   */\n      dup3\n        /* \"#utility.yul\":9398:9454   */\n      mstore\n        /* \"#utility.yul\":9317:9460   */\n      pop\n      pop\n      jump\t// out\n        /* \"#utility.yul\":9466:9580   */\n    tag_189:\n        /* \"#utility.yul\":9533:9539   */\n      0x00\n        /* \"#utility.yul\":9567:9572   */\n      dup2\n        /* \"#utility.yul\":9561:9573   */\n      mload\n        /* \"#utility.yul\":9551:9573   */\n      swap1\n      pop\n        /* \"#utility.yul\":9466:9580   */\n      swap2\n      swap1\n      pop\n      jump\t// out\n        /* \"#utility.yul\":9586:9770   */\n    tag_190:\n        /* \"#utility.yul\":9685:9696   */\n      0x00\n        /* \"#utility.yul\":9719:9725   */\n      dup3\n        /* \"#utility.yul\":9714:9717   */\n      dup3\n        /* \"#utility.yul\":9707:9726   */\n      mstore\n        /* \"#utility.yul\":9759:9763   */\n      0x20\n        /* \"#utility.yul\":9754:9757   */\n      dup3\n        /* \"#utility.yul\":9750:9764   */\n      add\n        /* \"#utility.yul\":9735:9764   */\n      swap1\n      pop\n        /* \"#utility.yul\":9586:9770   */\n      swap3\n      swap2\n      pop\n      pop\n      jump\t// out\n        /* \"#utility.yul\":9776:9908   */\n    tag_191:\n        /* \"#utility.yul\":9843:9847   */\n      0x00\n        /* \"#utility.yul\":9866:9869   */\n      dup2\n        /* \"#utility.yul\":9858:9869   */\n      swap1\n      pop\n        /* \"#utility.yul\":9896:9900   */\n      0x20\n        /* \"#utility.yul\":9891:9894   */\n      dup3\n        /* \"#utility.yul\":9887:9901   */\n      add\n        /* \"#utility.yul\":9879:9901   */\n      swap1\n      pop\n        /* \"#utility.yul\":9776:9908   */\n      swap2\n      swap1\n      pop\n      jump\t// out\n        /* \"#utility.yul\":9914:10022   */\n    tag_192:\n        /* \"#utility.yul\":9991:10015   */\n      tag_346\n        /* \"#utility.yul\":10009:10014   */\n      dup2\n        /* \"#utility.yul\":9991:10015   */\n      tag_173\n      jump\t// in\n    tag_346:\n        /* \"#utility.yul\":9986:9989   */\n      dup3\n        /* \"#utility.yul\":9979:10016   */\n      mstore\n        /* \"#utility.yul\":9914:10022   */\n      pop\n      pop\n      jump\t// out\n        /* \"#utility.yul\":10028:10207   */\n    tag_193:\n        /* \"#utility.yul\":10097:10107   */\n      0x00\n        /* \"#utility.yul\":10118:10164   */\n      tag_348\n        /* \"#utility.yul\":10160:10163   */\n      dup4\n        /* \"#utility.yul\":10152:10158   */\n      dup4\n        /* \"#utility.yul\":10118:10164   */\n      tag_192\n      jump\t// in\n    tag_348:\n        /* \"#utility.yul\":10196:10200   */\n      0x20\n        /* \"#utility.yul\":10191:10194   */\n      dup4\n        /* \"#utility.yul\":10187:10201   */\n      add\n        /* \"#utility.yul\":10173:10201   */\n      swap1\n      pop\n        /* \"#utility.yul\":10028:10207   */\n      swap3\n      swap2\n      pop\n      pop\n      jump\t// out\n        /* \"#utility.yul\":10213:10326   */\n    tag_194:\n        /* \"#utility.yul\":10283:10287   */\n      0x00\n        /* \"#utility.yul\":10315:10319   */\n      0x20\n        /* \"#utility.yul\":10310:10313   */\n      dup3\n        /* \"#utility.yul\":10306:10320   */\n      add\n        /* \"#utility.yul\":10298:10320   */\n      swap1\n      pop\n        /* \"#utility.yul\":10213:10326   */\n      swap2\n      swap1\n      pop\n      jump\t// out\n        /* \"#utility.yul\":10362:11094   */\n    tag_195:\n        /* \"#utility.yul\":10481:10484   */\n      0x00\n        /* \"#utility.yul\":10510:10564   */\n      tag_351\n        /* \"#utility.yul\":10558:10563   */\n      dup3\n        /* \"#utility.yul\":10510:10564   */\n      tag_189\n      jump\t// in\n    tag_351:\n        /* \"#utility.yul\":10580:10666   */\n      tag_352\n        /* \"#utility.yul\":10659:10665   */\n      dup2\n        /* \"#utility.yul\":10654:10657   */\n      dup6\n        /* \"#utility.yul\":10580:10666   */\n      tag_190\n      jump\t// in\n    tag_352:\n        /* \"#utility.yul\":10573:10666   */\n      swap4\n      pop\n        /* \"#utility.yul\":10690:10746   */\n      tag_353\n        /* \"#utility.yul\":10740:10745   */\n      dup4\n        /* \"#utility.yul\":10690:10746   */\n      tag_191\n      jump\t// in\n    tag_353:\n        /* \"#utility.yul\":10769:10776   */\n      dup1\n        /* \"#utility.yul\":10800:10801   */\n      0x00\n        /* \"#utility.yul\":10785:11069   */\n    tag_354:\n        /* \"#utility.yul\":10810:10816   */\n      dup4\n        /* \"#utility.yul\":10807:10808   */\n      dup2\n        /* \"#utility.yul\":10804:10817   */\n      lt\n        /* \"#utility.yul\":10785:11069   */\n      iszero\n      tag_356\n      jumpi\n        /* \"#utility.yul\":10886:10892   */\n      dup2\n        /* \"#utility.yul\":10880:10893   */\n      mload\n        /* \"#utility.yul\":10913:10976   */\n      tag_357\n        /* \"#utility.yul\":10972:10975   */\n      dup9\n        /* \"#utility.yul\":10957:10970   */\n      dup3\n        /* \"#utility.yul\":10913:10976   */\n      tag_193\n      jump\t// in\n    tag_357:\n        /* \"#utility.yul\":10906:10976   */\n      swap8\n      pop\n        /* \"#utility.yul\":10999:11059   */\n      tag_358\n        /* \"#utility.yul\":11052:11058   */\n      dup4\n        /* \"#utility.yul\":10999:11059   */\n      tag_194\n      jump\t// in\n    tag_358:\n        /* \"#utility.yul\":10989:11059   */\n      swap3\n      pop\n        /* \"#utility.yul\":10845:11069   */\n      pop\n        /* \"#utility.yul\":10832:10833   */\n      0x01\n        /* \"#utility.yul\":10829:10830   */\n      dup2\n        /* \"#utility.yul\":10825:10834   */\n      add\n        /* \"#utility.yul\":10820:10834   */\n      swap1\n      pop\n        /* \"#utility.yul\":10785:11069   */\n      jump(tag_354)\n    tag_356:\n        /* \"#utility.yul\":10789:10803   */\n      pop\n        /* \"#utility.yul\":11085:11088   */\n      dup6\n        /* \"#utility.yul\":11078:11088   */\n      swap4\n      pop\n        /* \"#utility.yul\":10486:11094   */\n      pop\n      pop\n      pop\n        /* \"#utility.yul\":10362:11094   */\n      swap3\n      swap2\n      pop\n      pop\n      jump\t// out\n        /* \"#utility.yul\":11100:11705   */\n    tag_58:\n        /* \"#utility.yul\":11305:11309   */\n      0x00\n        /* \"#utility.yul\":11343:11345   */\n      0x60\n        /* \"#utility.yul\":11332:11341   */\n      dup3\n        /* \"#utility.yul\":11328:11346   */\n      add\n        /* \"#utility.yul\":11320:11346   */\n      swap1\n      pop\n        /* \"#utility.yul\":11356:11433   */\n      tag_360\n        /* \"#utility.yul\":11430:11431   */\n      0x00\n        /* \"#utility.yul\":11419:11428   */\n      dup4\n        /* \"#utility.yul\":11415:11432   */\n      add\n        /* \"#utility.yul\":11406:11412   */\n      dup7\n        /* \"#utility.yul\":11356:11433   */\n      tag_188\n      jump\t// in\n    tag_360:\n        /* \"#utility.yul\":11480:11489   */\n      dup2\n        /* \"#utility.yul\":11474:11478   */\n      dup2\n        /* \"#utility.yul\":11470:11490   */\n      sub\n        /* \"#utility.yul\":11465:11467   */\n      0x20\n        /* \"#utility.yul\":11454:11463   */\n      dup4\n        /* \"#utility.yul\":11450:11468   */\n      add\n        /* \"#utility.yul\":11443:11491   */\n      mstore\n        /* \"#utility.yul\":11508:11616   */\n      tag_361\n        /* \"#utility.yul\":11611:11615   */\n      dup2\n        /* \"#utility.yul\":11602:11608   */\n      dup6\n        /* \"#utility.yul\":11508:11616   */\n      tag_195\n      jump\t// in\n    tag_361:\n        /* \"#utility.yul\":11500:11616   */\n      swap1\n      pop\n        /* \"#utility.yul\":11626:11698   */\n      tag_362\n        /* \"#utility.yul\":11694:11696   */\n      0x40\n        /* \"#utility.yul\":11683:11692   */\n      dup4\n        /* \"#utility.yul\":11679:11697   */\n      add\n        /* \"#utility.yul\":11670:11676   */\n      dup5\n        /* \"#utility.yul\":11626:11698   */\n      tag_183\n      jump\t// in\n    tag_362:\n        /* \"#utility.yul\":11100:11705   */\n      swap5\n      swap4\n      pop\n      pop\n      pop\n      pop\n      jump\t// out\n        /* \"#utility.yul\":11711:11829   */\n    tag_196:\n        /* \"#utility.yul\":11798:11822   */\n      tag_364\n        /* \"#utility.yul\":11816:11821   */\n      dup2\n        /* \"#utility.yul\":11798:11822   */\n      tag_176\n      jump\t// in\n    tag_364:\n        /* \"#utility.yul\":11793:11796   */\n      dup3\n        /* \"#utility.yul\":11786:11823   */\n      mstore\n        /* \"#utility.yul\":11711:11829   */\n      pop\n      pop\n      jump\t// out\n        /* \"#utility.yul\":11835:11939   */\n    tag_197:\n        /* \"#utility.yul\":11880:11887   */\n      0x00\n        /* \"#utility.yul\":11909:11933   */\n      tag_366\n        /* \"#utility.yul\":11927:11932   */\n      dup3\n        /* \"#utility.yul\":11909:11933   */\n      tag_166\n      jump\t// in\n    tag_366:\n        /* \"#utility.yul\":11898:11933   */\n      swap1\n      pop\n        /* \"#utility.yul\":11835:11939   */\n      swap2\n      swap1\n      pop\n      jump\t// out\n        /* \"#utility.yul\":11945:12087   */\n    tag_198:\n        /* \"#utility.yul\":12048:12080   */\n      tag_368\n        /* \"#utility.yul\":12074:12079   */\n      dup2\n        /* \"#utility.yul\":12048:12080   */\n      tag_197\n      jump\t// in\n    tag_368:\n        /* \"#utility.yul\":12043:12046   */\n      dup3\n        /* \"#utility.yul\":12036:12081   */\n      mstore\n        /* \"#utility.yul\":11945:12087   */\n      pop\n      pop\n      jump\t// out\n        /* \"#utility.yul\":12093:12222   */\n    tag_199:\n        /* \"#utility.yul\":12175:12181   */\n      0x00\n        /* \"#utility.yul\":12209:12214   */\n      dup2\n        /* \"#utility.yul\":12203:12215   */\n      mload\n        /* \"#utility.yul\":12193:12215   */\n      swap1\n      pop\n        /* \"#utility.yul\":12093:12222   */\n      swap2\n      swap1\n      pop\n      jump\t// out\n        /* \"#utility.yul\":12228:12402   */\n    tag_200:\n        /* \"#utility.yul\":12317:12328   */\n      0x00\n        /* \"#utility.yul\":12351:12357   */\n      dup3\n        /* \"#utility.yul\":12346:12349   */\n      dup3\n        /* \"#utility.yul\":12339:12358   */\n      mstore\n        /* \"#utility.yul\":12391:12395   */\n      0x20\n        /* \"#utility.yul\":12386:12389   */\n      dup3\n        /* \"#utility.yul\":12382:12396   */\n      add\n        /* \"#utility.yul\":12367:12396   */\n      swap1\n      pop\n        /* \"#utility.yul\":12228:12402   */\n      swap3\n      swap2\n      pop\n      pop\n      jump\t// out\n        /* \"#utility.yul\":12408:12555   */\n    tag_201:\n        /* \"#utility.yul\":12490:12494   */\n      0x00\n        /* \"#utility.yul\":12513:12516   */\n      dup2\n        /* \"#utility.yul\":12505:12516   */\n      swap1\n      pop\n        /* \"#utility.yul\":12543:12547   */\n      0x20\n        /* \"#utility.yul\":12538:12541   */\n      dup3\n        /* \"#utility.yul\":12534:12548   */\n      add\n        /* \"#utility.yul\":12526:12548   */\n      swap1\n      pop\n        /* \"#utility.yul\":12408:12555   */\n      swap2\n      swap1\n      pop\n      jump\t// out\n        /* \"#utility.yul\":12561:12703   */\n    tag_202:\n        /* \"#utility.yul\":12611:12620   */\n      0x00\n        /* \"#utility.yul\":12644:12697   */\n      tag_373\n        /* \"#utility.yul\":12662:12696   */\n      tag_374\n        /* \"#utility.yul\":12671:12695   */\n      tag_375\n        /* \"#utility.yul\":12689:12694   */\n      dup5\n        /* \"#utility.yul\":12671:12695   */\n      tag_166\n      jump\t// in\n    tag_375:\n        /* \"#utility.yul\":12662:12696   */\n      tag_186\n      jump\t// in\n    tag_374:\n        /* \"#utility.yul\":12644:12697   */\n      tag_166\n      jump\t// in\n    tag_373:\n        /* \"#utility.yul\":12631:12697   */\n      swap1\n      pop\n        /* \"#utility.yul\":12561:12703   */\n      swap2\n      swap1\n      pop\n      jump\t// out\n        /* \"#utility.yul\":12709:12835   */\n    tag_203:\n        /* \"#utility.yul\":12759:12768   */\n      0x00\n        /* \"#utility.yul\":12792:12829   */\n      tag_377\n        /* \"#utility.yul\":12823:12828   */\n      dup3\n        /* \"#utility.yul\":12792:12829   */\n      tag_202\n      jump\t// in\n    tag_377:\n        /* \"#utility.yul\":12779:12829   */\n      swap1\n      pop\n        /* \"#utility.yul\":12709:12835   */\n      swap2\n      swap1\n      pop\n      jump\t// out\n        /* \"#utility.yul\":12841:12982   */\n    tag_204:\n        /* \"#utility.yul\":12906:12915   */\n      0x00\n        /* \"#utility.yul\":12939:12976   */\n      tag_379\n        /* \"#utility.yul\":12970:12975   */\n      dup3\n        /* \"#utility.yul\":12939:12976   */\n      tag_203\n      jump\t// in\n    tag_379:\n        /* \"#utility.yul\":12926:12976   */\n      swap1\n      pop\n        /* \"#utility.yul\":12841:12982   */\n      swap2\n      swap1\n      pop\n      jump\t// out\n        /* \"#utility.yul\":12988:13139   */\n    tag_205:\n        /* \"#utility.yul\":13080:13132   */\n      tag_381\n        /* \"#utility.yul\":13126:13131   */\n      dup2\n        /* \"#utility.yul\":13080:13132   */\n      tag_204\n      jump\t// in\n    tag_381:\n        /* \"#utility.yul\":13075:13078   */\n      dup3\n        /* \"#utility.yul\":13068:13133   */\n      mstore\n        /* \"#utility.yul\":12988:13139   */\n      pop\n      pop\n      jump\t// out\n        /* \"#utility.yul\":13145:13354   */\n    tag_206:\n        /* \"#utility.yul\":13229:13239   */\n      0x00\n        /* \"#utility.yul\":13250:13311   */\n      tag_383\n        /* \"#utility.yul\":13307:13310   */\n      dup4\n        /* \"#utility.yul\":13299:13305   */\n      dup4\n        /* \"#utility.yul\":13250:13311   */\n      tag_205\n      jump\t// in\n    tag_383:\n        /* \"#utility.yul\":13343:13347   */\n      0x20\n        /* \"#utility.yul\":13338:13341   */\n      dup4\n        /* \"#utility.yul\":13334:13348   */\n      add\n        /* \"#utility.yul\":13320:13348   */\n      swap1\n      pop\n        /* \"#utility.yul\":13145:13354   */\n      swap3\n      swap2\n      pop\n      pop\n      jump\t// out\n        /* \"#utility.yul\":13360:13488   */\n    tag_207:\n        /* \"#utility.yul\":13445:13449   */\n      0x00\n        /* \"#utility.yul\":13477:13481   */\n      0x20\n        /* \"#utility.yul\":13472:13475   */\n      dup3\n        /* \"#utility.yul\":13468:13482   */\n      add\n        /* \"#utility.yul\":13460:13482   */\n      swap1\n      pop\n        /* \"#utility.yul\":13360:13488   */\n      swap2\n      swap1\n      pop\n      jump\t// out\n        /* \"#utility.yul\":13532:14319   */\n    tag_208:\n        /* \"#utility.yul\":13656:13659   */\n      0x00\n        /* \"#utility.yul\":13685:13754   */\n      tag_386\n        /* \"#utility.yul\":13748:13753   */\n      dup3\n        /* \"#utility.yul\":13685:13754   */\n      tag_199\n      jump\t// in\n    tag_386:\n        /* \"#utility.yul\":13770:13846   */\n      tag_387\n        /* \"#utility.yul\":13839:13845   */\n      dup2\n        /* \"#utility.yul\":13834:13837   */\n      dup6\n        /* \"#utility.yul\":13770:13846   */\n      tag_200\n      jump\t// in\n    tag_387:\n        /* \"#utility.yul\":13763:13846   */\n      swap4\n      pop\n        /* \"#utility.yul\":13870:13941   */\n      tag_388\n        /* \"#utility.yul\":13935:13940   */\n      dup4\n        /* \"#utility.yul\":13870:13941   */\n      tag_201\n      jump\t// in\n    tag_388:\n        /* \"#utility.yul\":13964:13971   */\n      dup1\n        /* \"#utility.yul\":13995:13996   */\n      0x00\n        /* \"#utility.yul\":13980:14294   */\n    tag_389:\n        /* \"#utility.yul\":14005:14011   */\n      dup4\n        /* \"#utility.yul\":14002:14003   */\n      dup2\n        /* \"#utility.yul\":13999:14012   */\n      lt\n        /* \"#utility.yul\":13980:14294   */\n      iszero\n      tag_391\n      jumpi\n        /* \"#utility.yul\":14081:14087   */\n      dup2\n        /* \"#utility.yul\":14075:14088   */\n      mload\n        /* \"#utility.yul\":14108:14186   */\n      tag_392\n        /* \"#utility.yul\":14182:14185   */\n      dup9\n        /* \"#utility.yul\":14167:14180   */\n      dup3\n        /* \"#utility.yul\":14108:14186   */\n      tag_206\n      jump\t// in\n    tag_392:\n        /* \"#utility.yul\":14101:14186   */\n      swap8\n      pop\n        /* \"#utility.yul\":14209:14284   */\n      tag_393\n        /* \"#utility.yul\":14277:14283   */\n      dup4\n        /* \"#utility.yul\":14209:14284   */\n      tag_207\n      jump\t// in\n    tag_393:\n        /* \"#utility.yul\":14199:14284   */\n      swap3\n      pop\n        /* \"#utility.yul\":14040:14294   */\n      pop\n        /* \"#utility.yul\":14027:14028   */\n      0x01\n        /* \"#utility.yul\":14024:14025   */\n      dup2\n        /* \"#utility.yul\":14020:14029   */\n      add\n        /* \"#utility.yul\":14015:14029   */\n      swap1\n      pop\n        /* \"#utility.yul\":13980:14294   */\n      jump(tag_389)\n    tag_391:\n        /* \"#utility.yul\":13984:13998   */\n      pop\n        /* \"#utility.yul\":14310:14313   */\n      dup6\n        /* \"#utility.yul\":14303:14313   */\n      swap4\n      pop\n        /* \"#utility.yul\":13661:14319   */\n      pop\n      pop\n      pop\n        /* \"#utility.yul\":13532:14319   */\n      swap3\n      swap2\n      pop\n      pop\n      jump\t// out\n        /* \"#utility.yul\":14325:14499   */\n    tag_209:\n        /* \"#utility.yul\":14414:14425   */\n      0x00\n        /* \"#utility.yul\":14448:14454   */\n      dup3\n        /* \"#utility.yul\":14443:14446   */\n      dup3\n        /* \"#utility.yul\":14436:14455   */\n      mstore\n        /* \"#utility.yul\":14488:14492   */\n      0x20\n        /* \"#utility.yul\":14483:14486   */\n      dup3\n        /* \"#utility.yul\":14479:14493   */\n      add\n        /* \"#utility.yul\":14464:14493   */\n      swap1\n      pop\n        /* \"#utility.yul\":14325:14499   */\n      swap3\n      swap2\n      pop\n      pop\n      jump\t// out\n        /* \"#utility.yul\":14535:15247   */\n    tag_210:\n        /* \"#utility.yul\":14644:14647   */\n      0x00\n        /* \"#utility.yul\":14673:14727   */\n      tag_396\n        /* \"#utility.yul\":14721:14726   */\n      dup3\n        /* \"#utility.yul\":14673:14727   */\n      tag_189\n      jump\t// in\n    tag_396:\n        /* \"#utility.yul\":14743:14819   */\n      tag_397\n        /* \"#utility.yul\":14812:14818   */\n      dup2\n        /* \"#utility.yul\":14807:14810   */\n      dup6\n        /* \"#utility.yul\":14743:14819   */\n      tag_209\n      jump\t// in\n    tag_397:\n        /* \"#utility.yul\":14736:14819   */\n      swap4\n      pop\n        /* \"#utility.yul\":14843:14899   */\n      tag_398\n        /* \"#utility.yul\":14893:14898   */\n      dup4\n        /* \"#utility.yul\":14843:14899   */\n      tag_191\n      jump\t// in\n    tag_398:\n        /* \"#utility.yul\":14922:14929   */\n      dup1\n        /* \"#utility.yul\":14953:14954   */\n      0x00\n        /* \"#utility.yul\":14938:15222   */\n    tag_399:\n        /* \"#utility.yul\":14963:14969   */\n      dup4\n        /* \"#utility.yul\":14960:14961   */\n      dup2\n        /* \"#utility.yul\":14957:14970   */\n      lt\n        /* \"#utility.yul\":14938:15222   */\n      iszero\n      tag_401\n      jumpi\n        /* \"#utility.yul\":15039:15045   */\n      dup2\n        /* \"#utility.yul\":15033:15046   */\n      mload\n        /* \"#utility.yul\":15066:15129   */\n      tag_402\n        /* \"#utility.yul\":15125:15128   */\n      dup9\n        /* \"#utility.yul\":15110:15123   */\n      dup3\n        /* \"#utility.yul\":15066:15129   */\n      tag_193\n      jump\t// in\n    tag_402:\n        /* \"#utility.yul\":15059:15129   */\n      swap8\n      pop\n        /* \"#utility.yul\":15152:15212   */\n      tag_403\n        /* \"#utility.yul\":15205:15211   */\n      dup4\n        /* \"#utility.yul\":15152:15212   */\n      tag_194\n      jump\t// in\n    tag_403:\n        /* \"#utility.yul\":15142:15212   */\n      swap3\n      pop\n        /* \"#utility.yul\":14998:15222   */\n      pop\n        /* \"#utility.yul\":14985:14986   */\n      0x01\n        /* \"#utility.yul\":14982:14983   */\n      dup2\n        /* \"#utility.yul\":14978:14987   */\n      add\n        /* \"#utility.yul\":14973:14987   */\n      swap1\n      pop\n        /* \"#utility.yul\":14938:15222   */\n      jump(tag_399)\n    tag_401:\n        /* \"#utility.yul\":14942:14956   */\n      pop\n        /* \"#utility.yul\":15238:15241   */\n      dup6\n        /* \"#utility.yul\":15231:15241   */\n      swap4\n      pop\n        /* \"#utility.yul\":14649:15247   */\n      pop\n      pop\n      pop\n        /* \"#utility.yul\":14535:15247   */\n      swap3\n      swap2\n      pop\n      pop\n      jump\t// out\n        /* \"#utility.yul\":15253:15351   */\n    tag_211:\n        /* \"#utility.yul\":15304:15310   */\n      0x00\n        /* \"#utility.yul\":15338:15343   */\n      dup2\n        /* \"#utility.yul\":15332:15344   */\n      mload\n        /* \"#utility.yul\":15322:15344   */\n      swap1\n      pop\n        /* \"#utility.yul\":15253:15351   */\n      swap2\n      swap1\n      pop\n      jump\t// out\n        /* \"#utility.yul\":15357:15515   */\n    tag_212:\n        /* \"#utility.yul\":15430:15441   */\n      0x00\n        /* \"#utility.yul\":15464:15470   */\n      dup3\n        /* \"#utility.yul\":15459:15462   */\n      dup3\n        /* \"#utility.yul\":15452:15471   */\n      mstore\n        /* \"#utility.yul\":15504:15508   */\n      0x20\n        /* \"#utility.yul\":15499:15502   */\n      dup3\n        /* \"#utility.yul\":15495:15509   */\n      add\n        /* \"#utility.yul\":15480:15509   */\n      swap1\n      pop\n        /* \"#utility.yul\":15357:15515   */\n      swap3\n      swap2\n      pop\n      pop\n      jump\t// out\n        /* \"#utility.yul\":15521:15828   */\n    tag_213:\n        /* \"#utility.yul\":15589:15590   */\n      0x00\n        /* \"#utility.yul\":15599:15712   */\n    tag_407:\n        /* \"#utility.yul\":15613:15619   */\n      dup4\n        /* \"#utility.yul\":15610:15611   */\n      dup2\n        /* \"#utility.yul\":15607:15620   */\n      lt\n        /* \"#utility.yul\":15599:15712   */\n      iszero\n      tag_409\n      jumpi\n        /* \"#utility.yul\":15698:15699   */\n      dup1\n        /* \"#utility.yul\":15693:15696   */\n      dup3\n        /* \"#utility.yul\":15689:15700   */\n      add\n        /* \"#utility.yul\":15683:15701   */\n      mload\n        /* \"#utility.yul\":15679:15680   */\n      dup2\n        /* \"#utility.yul\":15674:15677   */\n      dup5\n        /* \"#utility.yul\":15670:15681   */\n      add\n        /* \"#utility.yul\":15663:15702   */\n      mstore\n        /* \"#utility.yul\":15635:15637   */\n      0x20\n        /* \"#utility.yul\":15632:15633   */\n      dup2\n        /* \"#utility.yul\":15628:15638   */\n      add\n        /* \"#utility.yul\":15623:15638   */\n      swap1\n      pop\n        /* \"#utility.yul\":15599:15712   */\n      jump(tag_407)\n    tag_409:\n        /* \"#utility.yul\":15730:15736   */\n      dup4\n        /* \"#utility.yul\":15727:15728   */\n      dup2\n        /* \"#utility.yul\":15724:15737   */\n      gt\n        /* \"#utility.yul\":15721:15822   */\n      iszero\n      tag_410\n      jumpi\n        /* \"#utility.yul\":15810:15811   */\n      0x00\n        /* \"#utility.yul\":15801:15807   */\n      dup5\n        /* \"#utility.yul\":15796:15799   */\n      dup5\n        /* \"#utility.yul\":15792:15808   */\n      add\n        /* \"#utility.yul\":15785:15812   */\n      mstore\n        /* \"#utility.yul\":15721:15822   */\n    tag_410:\n        /* \"#utility.yul\":15570:15828   */\n      pop\n        /* \"#utility.yul\":15521:15828   */\n      pop\n      pop\n      pop\n      jump\t// out\n        /* \"#utility.yul\":15834:16174   */\n    tag_214:\n        /* \"#utility.yul\":15910:15913   */\n      0x00\n        /* \"#utility.yul\":15938:15976   */\n      tag_412\n        /* \"#utility.yul\":15970:15975   */\n      dup3\n        /* \"#utility.yul\":15938:15976   */\n      tag_211\n      jump\t// in\n    tag_412:\n        /* \"#utility.yul\":15992:16052   */\n      tag_413\n        /* \"#utility.yul\":16045:16051   */\n      dup2\n        /* \"#utility.yul\":16040:16043   */\n      dup6\n        /* \"#utility.yul\":15992:16052   */\n      tag_212\n      jump\t// in\n    tag_413:\n        /* \"#utility.yul\":15985:16052   */\n      swap4\n      pop\n        /* \"#utility.yul\":16061:16113   */\n      tag_414\n        /* \"#utility.yul\":16106:16112   */\n      dup2\n        /* \"#utility.yul\":16101:16104   */\n      dup6\n        /* \"#utility.yul\":16094:16098   */\n      0x20\n        /* \"#utility.yul\":16087:16092   */\n      dup7\n        /* \"#utility.yul\":16083:16099   */\n      add\n        /* \"#utility.yul\":16061:16113   */\n      tag_213\n      jump\t// in\n    tag_414:\n        /* \"#utility.yul\":16138:16167   */\n      tag_415\n        /* \"#utility.yul\":16160:16166   */\n      dup2\n        /* \"#utility.yul\":16138:16167   */\n      tag_159\n      jump\t// in\n    tag_415:\n        /* \"#utility.yul\":16133:16136   */\n      dup5\n        /* \"#utility.yul\":16129:16168   */\n      add\n        /* \"#utility.yul\":16122:16168   */\n      swap2\n      pop\n        /* \"#utility.yul\":15914:16174   */\n      pop\n        /* \"#utility.yul\":15834:16174   */\n      swap3\n      swap2\n      pop\n      pop\n      jump\t// out\n        /* \"#utility.yul\":16180:16270   */\n    tag_215:\n        /* \"#utility.yul\":16214:16221   */\n      0x00\n        /* \"#utility.yul\":16257:16262   */\n      dup2\n        /* \"#utility.yul\":16250:16263   */\n      iszero\n        /* \"#utility.yul\":16243:16264   */\n      iszero\n        /* \"#utility.yul\":16232:16264   */\n      swap1\n      pop\n        /* \"#utility.yul\":16180:16270   */\n      swap2\n      swap1\n      pop\n      jump\t// out\n        /* \"#utility.yul\":16276:16375   */\n    tag_216:\n        /* \"#utility.yul\":16347:16368   */\n      tag_418\n        /* \"#utility.yul\":16362:16367   */\n      dup2\n        /* \"#utility.yul\":16347:16368   */\n      tag_215\n      jump\t// in\n    tag_418:\n        /* \"#utility.yul\":16342:16345   */\n      dup3\n        /* \"#utility.yul\":16335:16369   */\n      mstore\n        /* \"#utility.yul\":16276:16375   */\n      pop\n      pop\n      jump\t// out\n        /* \"#utility.yul\":16459:17666   */\n    tag_217:\n        /* \"#utility.yul\":16594:16597   */\n      0x00\n        /* \"#utility.yul\":16630:16634   */\n      0x80\n        /* \"#utility.yul\":16625:16628   */\n      dup4\n        /* \"#utility.yul\":16621:16635   */\n      add\n        /* \"#utility.yul\":16719:16723   */\n      0x00\n        /* \"#utility.yul\":16712:16717   */\n      dup4\n        /* \"#utility.yul\":16708:16724   */\n      add\n        /* \"#utility.yul\":16702:16725   */\n      mload\n        /* \"#utility.yul\":16772:16775   */\n      dup5\n        /* \"#utility.yul\":16766:16770   */\n      dup3\n        /* \"#utility.yul\":16762:16776   */\n      sub\n        /* \"#utility.yul\":16755:16759   */\n      0x00\n        /* \"#utility.yul\":16750:16753   */\n      dup7\n        /* \"#utility.yul\":16746:16760   */\n      add\n        /* \"#utility.yul\":16739:16777   */\n      mstore\n        /* \"#utility.yul\":16798:16916   */\n      tag_420\n        /* \"#utility.yul\":16911:16915   */\n      dup3\n        /* \"#utility.yul\":16897:16909   */\n      dup3\n        /* \"#utility.yul\":16798:16916   */\n      tag_208\n      jump\t// in\n    tag_420:\n        /* \"#utility.yul\":16790:16916   */\n      swap2\n      pop\n        /* \"#utility.yul\":16645:16927   */\n      pop\n        /* \"#utility.yul\":17018:17022   */\n      0x20\n        /* \"#utility.yul\":17011:17016   */\n      dup4\n        /* \"#utility.yul\":17007:17023   */\n      add\n        /* \"#utility.yul\":17001:17024   */\n      mload\n        /* \"#utility.yul\":17071:17074   */\n      dup5\n        /* \"#utility.yul\":17065:17069   */\n      dup3\n        /* \"#utility.yul\":17061:17075   */\n      sub\n        /* \"#utility.yul\":17054:17058   */\n      0x20\n        /* \"#utility.yul\":17049:17052   */\n      dup7\n        /* \"#utility.yul\":17045:17059   */\n      add\n        /* \"#utility.yul\":17038:17076   */\n      mstore\n        /* \"#utility.yul\":17097:17200   */\n      tag_421\n        /* \"#utility.yul\":17195:17199   */\n      dup3\n        /* \"#utility.yul\":17181:17193   */\n      dup3\n        /* \"#utility.yul\":17097:17200   */\n      tag_210\n      jump\t// in\n    tag_421:\n        /* \"#utility.yul\":17089:17200   */\n      swap2\n      pop\n        /* \"#utility.yul\":16937:17211   */\n      pop\n        /* \"#utility.yul\":17297:17301   */\n      0x40\n        /* \"#utility.yul\":17290:17295   */\n      dup4\n        /* \"#utility.yul\":17286:17302   */\n      add\n        /* \"#utility.yul\":17280:17303   */\n      mload\n        /* \"#utility.yul\":17350:17353   */\n      dup5\n        /* \"#utility.yul\":17344:17348   */\n      dup3\n        /* \"#utility.yul\":17340:17354   */\n      sub\n        /* \"#utility.yul\":17333:17337   */\n      0x40\n        /* \"#utility.yul\":17328:17331   */\n      dup7\n        /* \"#utility.yul\":17324:17338   */\n      add\n        /* \"#utility.yul\":17317:17355   */\n      mstore\n        /* \"#utility.yul\":17376:17447   */\n      tag_422\n        /* \"#utility.yul\":17442:17446   */\n      dup3\n        /* \"#utility.yul\":17428:17440   */\n      dup3\n        /* \"#utility.yul\":17376:17447   */\n      tag_214\n      jump\t// in\n    tag_422:\n        /* \"#utility.yul\":17368:17447   */\n      swap2\n      pop\n        /* \"#utility.yul\":17221:17458   */\n      pop\n        /* \"#utility.yul\":17553:17557   */\n      0x60\n        /* \"#utility.yul\":17546:17551   */\n      dup4\n        /* \"#utility.yul\":17542:17558   */\n      add\n        /* \"#utility.yul\":17536:17559   */\n      mload\n        /* \"#utility.yul\":17572:17629   */\n      tag_423\n        /* \"#utility.yul\":17623:17627   */\n      0x60\n        /* \"#utility.yul\":17618:17621   */\n      dup7\n        /* \"#utility.yul\":17614:17628   */\n      add\n        /* \"#utility.yul\":17600:17612   */\n      dup3\n        /* \"#utility.yul\":17572:17629   */\n      tag_216\n      jump\t// in\n    tag_423:\n        /* \"#utility.yul\":17468:17639   */\n      pop\n        /* \"#utility.yul\":17656:17660   */\n      dup1\n        /* \"#utility.yul\":17649:17660   */\n      swap2\n      pop\n        /* \"#utility.yul\":16599:17666   */\n      pop\n        /* \"#utility.yul\":16459:17666   */\n      swap3\n      swap2\n      pop\n      pop\n      jump\t// out\n        /* \"#utility.yul\":17672:18440   */\n    tag_62:\n        /* \"#utility.yul\":17931:17935   */\n      0x00\n        /* \"#utility.yul\":17969:17972   */\n      0x80\n        /* \"#utility.yul\":17958:17967   */\n      dup3\n        /* \"#utility.yul\":17954:17973   */\n      add\n        /* \"#utility.yul\":17946:17973   */\n      swap1\n      pop\n        /* \"#utility.yul\":17983:18054   */\n      tag_425\n        /* \"#utility.yul\":18051:18052   */\n      0x00\n        /* \"#utility.yul\":18040:18049   */\n      dup4\n        /* \"#utility.yul\":18036:18053   */\n      add\n        /* \"#utility.yul\":18027:18033   */\n      dup8\n        /* \"#utility.yul\":17983:18054   */\n      tag_196\n      jump\t// in\n    tag_425:\n        /* \"#utility.yul\":18064:18136   */\n      tag_426\n        /* \"#utility.yul\":18132:18134   */\n      0x20\n        /* \"#utility.yul\":18121:18130   */\n      dup4\n        /* \"#utility.yul\":18117:18135   */\n      add\n        /* \"#utility.yul\":18108:18114   */\n      dup7\n        /* \"#utility.yul\":18064:18136   */\n      tag_182\n      jump\t// in\n    tag_426:\n        /* \"#utility.yul\":18146:18234   */\n      tag_427\n        /* \"#utility.yul\":18230:18232   */\n      0x40\n        /* \"#utility.yul\":18219:18228   */\n      dup4\n        /* \"#utility.yul\":18215:18233   */\n      add\n        /* \"#utility.yul\":18206:18212   */\n      dup6\n        /* \"#utility.yul\":18146:18234   */\n      tag_198\n      jump\t// in\n    tag_427:\n        /* \"#utility.yul\":18281:18290   */\n      dup2\n        /* \"#utility.yul\":18275:18279   */\n      dup2\n        /* \"#utility.yul\":18271:18291   */\n      sub\n        /* \"#utility.yul\":18266:18268   */\n      0x60\n        /* \"#utility.yul\":18255:18264   */\n      dup4\n        /* \"#utility.yul\":18251:18269   */\n      add\n        /* \"#utility.yul\":18244:18292   */\n      mstore\n        /* \"#utility.yul\":18309:18433   */\n      tag_428\n        /* \"#utility.yul\":18428:18432   */\n      dup2\n        /* \"#utility.yul\":18419:18425   */\n      dup5\n        /* \"#utility.yul\":18309:18433   */\n      tag_217\n      jump\t// in\n    tag_428:\n        /* \"#utility.yul\":18301:18433   */\n      swap1\n      pop\n        /* \"#utility.yul\":17672:18440   */\n      swap6\n      swap5\n      pop\n      pop\n      pop\n      pop\n      pop\n      jump\t// out\n        /* \"#utility.yul\":18446:18558   */\n    tag_218:\n        /* \"#utility.yul\":18529:18551   */\n      tag_430\n        /* \"#utility.yul\":18545:18550   */\n      dup2\n        /* \"#utility.yul\":18529:18551   */\n      tag_185\n      jump\t// in\n    tag_430:\n        /* \"#utility.yul\":18524:18527   */\n      dup3\n        /* \"#utility.yul\":18517:18552   */\n      mstore\n        /* \"#utility.yul\":18446:18558   */\n      pop\n      pop\n      jump\t// out\n        /* \"#utility.yul\":18564:19149   */\n    tag_73:\n        /* \"#utility.yul\":18759:18763   */\n      0x00\n        /* \"#utility.yul\":18797:18799   */\n      0x60\n        /* \"#utility.yul\":18786:18795   */\n      dup3\n        /* \"#utility.yul\":18782:18800   */\n      add\n        /* \"#utility.yul\":18774:18800   */\n      swap1\n      pop\n        /* \"#utility.yul\":18810:18877   */\n      tag_432\n        /* \"#utility.yul\":18874:18875   */\n      0x00\n        /* \"#utility.yul\":18863:18872   */\n      dup4\n        /* \"#utility.yul\":18859:18876   */\n      add\n        /* \"#utility.yul\":18850:18856   */\n      dup7\n        /* \"#utility.yul\":18810:18877   */\n      tag_218\n      jump\t// in\n    tag_432:\n        /* \"#utility.yul\":18924:18933   */\n      dup2\n        /* \"#utility.yul\":18918:18922   */\n      dup2\n        /* \"#utility.yul\":18914:18934   */\n      sub\n        /* \"#utility.yul\":18909:18911   */\n      0x20\n        /* \"#utility.yul\":18898:18907   */\n      dup4\n        /* \"#utility.yul\":18894:18912   */\n      add\n        /* \"#utility.yul\":18887:18935   */\n      mstore\n        /* \"#utility.yul\":18952:19060   */\n      tag_433\n        /* \"#utility.yul\":19055:19059   */\n      dup2\n        /* \"#utility.yul\":19046:19052   */\n      dup6\n        /* \"#utility.yul\":18952:19060   */\n      tag_195\n      jump\t// in\n    tag_433:\n        /* \"#utility.yul\":18944:19060   */\n      swap1\n      pop\n        /* \"#utility.yul\":19070:19142   */\n      tag_434\n        /* \"#utility.yul\":19138:19140   */\n      0x40\n        /* \"#utility.yul\":19127:19136   */\n      dup4\n        /* \"#utility.yul\":19123:19141   */\n      add\n        /* \"#utility.yul\":19114:19120   */\n      dup5\n        /* \"#utility.yul\":19070:19142   */\n      tag_183\n      jump\t// in\n    tag_434:\n        /* \"#utility.yul\":18564:19149   */\n      swap5\n      swap4\n      pop\n      pop\n      pop\n      pop\n      jump\t// out\n        /* \"#utility.yul\":19233:20441   */\n    tag_219:\n        /* \"#utility.yul\":19368:19371   */\n      0x00\n        /* \"#utility.yul\":19404:19408   */\n      0x80\n        /* \"#utility.yul\":19399:19402   */\n      dup4\n        /* \"#utility.yul\":19395:19409   */\n      add\n        /* \"#utility.yul\":19493:19497   */\n      0x00\n        /* \"#utility.yul\":19486:19491   */\n      dup4\n        /* \"#utility.yul\":19482:19498   */\n      add\n        /* \"#utility.yul\":19476:19499   */\n      mload\n        /* \"#utility.yul\":19546:19549   */\n      dup5\n        /* \"#utility.yul\":19540:19544   */\n      dup3\n        /* \"#utility.yul\":19536:19550   */\n      sub\n        /* \"#utility.yul\":19529:19533   */\n      0x00\n        /* \"#utility.yul\":19524:19527   */\n      dup7\n        /* \"#utility.yul\":19520:19534   */\n      add\n        /* \"#utility.yul\":19513:19551   */\n      mstore\n        /* \"#utility.yul\":19572:19690   */\n      tag_436\n        /* \"#utility.yul\":19685:19689   */\n      dup3\n        /* \"#utility.yul\":19671:19683   */\n      dup3\n        /* \"#utility.yul\":19572:19690   */\n      tag_208\n      jump\t// in\n    tag_436:\n        /* \"#utility.yul\":19564:19690   */\n      swap2\n      pop\n        /* \"#utility.yul\":19419:19701   */\n      pop\n        /* \"#utility.yul\":19791:19795   */\n      0x20\n        /* \"#utility.yul\":19784:19789   */\n      dup4\n        /* \"#utility.yul\":19780:19796   */\n      add\n        /* \"#utility.yul\":19774:19797   */\n      mload\n        /* \"#utility.yul\":19844:19847   */\n      dup5\n        /* \"#utility.yul\":19838:19842   */\n      dup3\n        /* \"#utility.yul\":19834:19848   */\n      sub\n        /* \"#utility.yul\":19827:19831   */\n      0x20\n        /* \"#utility.yul\":19822:19825   */\n      dup7\n        /* \"#utility.yul\":19818:19832   */\n      add\n        /* \"#utility.yul\":19811:19849   */\n      mstore\n        /* \"#utility.yul\":19870:19973   */\n      tag_437\n        /* \"#utility.yul\":19968:19972   */\n      dup3\n        /* \"#utility.yul\":19954:19966   */\n      dup3\n        /* \"#utility.yul\":19870:19973   */\n      tag_210\n      jump\t// in\n    tag_437:\n        /* \"#utility.yul\":19862:19973   */\n      swap2\n      pop\n        /* \"#utility.yul\":19711:19984   */\n      pop\n        /* \"#utility.yul\":20070:20074   */\n      0x40\n        /* \"#utility.yul\":20063:20068   */\n      dup4\n        /* \"#utility.yul\":20059:20075   */\n      add\n        /* \"#utility.yul\":20053:20076   */\n      mload\n        /* \"#utility.yul\":20123:20126   */\n      dup5\n        /* \"#utility.yul\":20117:20121   */\n      dup3\n        /* \"#utility.yul\":20113:20127   */\n      sub\n        /* \"#utility.yul\":20106:20110   */\n      0x40\n        /* \"#utility.yul\":20101:20104   */\n      dup7\n        /* \"#utility.yul\":20097:20111   */\n      add\n        /* \"#utility.yul\":20090:20128   */\n      mstore\n        /* \"#utility.yul\":20149:20220   */\n      tag_438\n        /* \"#utility.yul\":20215:20219   */\n      dup3\n        /* \"#utility.yul\":20201:20213   */\n      dup3\n        /* \"#utility.yul\":20149:20220   */\n      tag_214\n      jump\t// in\n    tag_438:\n        /* \"#utility.yul\":20141:20220   */\n      swap2\n      pop\n        /* \"#utility.yul\":19994:20231   */\n      pop\n        /* \"#utility.yul\":20328:20332   */\n      0x60\n        /* \"#utility.yul\":20321:20326   */\n      dup4\n        /* \"#utility.yul\":20317:20333   */\n      add\n        /* \"#utility.yul\":20311:20334   */\n      mload\n        /* \"#utility.yul\":20347:20404   */\n      tag_439\n        /* \"#utility.yul\":20398:20402   */\n      0x60\n        /* \"#utility.yul\":20393:20396   */\n      dup7\n        /* \"#utility.yul\":20389:20403   */\n      add\n        /* \"#utility.yul\":20375:20387   */\n      dup3\n        /* \"#utility.yul\":20347:20404   */\n      tag_216\n      jump\t// in\n    tag_439:\n        /* \"#utility.yul\":20241:20414   */\n      pop\n        /* \"#utility.yul\":20431:20435   */\n      dup1\n        /* \"#utility.yul\":20424:20435   */\n      swap2\n      pop\n        /* \"#utility.yul\":19373:20441   */\n      pop\n        /* \"#utility.yul\":19233:20441   */\n      swap3\n      swap2\n      pop\n      pop\n      jump\t// out\n        /* \"#utility.yul\":20447:21183   */\n    tag_81:\n        /* \"#utility.yul\":20690:20694   */\n      0x00\n        /* \"#utility.yul\":20728:20731   */\n      0x80\n        /* \"#utility.yul\":20717:20726   */\n      dup3\n        /* \"#utility.yul\":20713:20732   */\n      add\n        /* \"#utility.yul\":20705:20732   */\n      swap1\n      pop\n        /* \"#utility.yul\":20742:20813   */\n      tag_441\n        /* \"#utility.yul\":20810:20811   */\n      0x00\n        /* \"#utility.yul\":20799:20808   */\n      dup4\n        /* \"#utility.yul\":20795:20812   */\n      add\n        /* \"#utility.yul\":20786:20792   */\n      dup8\n        /* \"#utility.yul\":20742:20813   */\n      tag_196\n      jump\t// in\n    tag_441:\n        /* \"#utility.yul\":20823:20895   */\n      tag_442\n        /* \"#utility.yul\":20891:20893   */\n      0x20\n        /* \"#utility.yul\":20880:20889   */\n      dup4\n        /* \"#utility.yul\":20876:20894   */\n      add\n        /* \"#utility.yul\":20867:20873   */\n      dup7\n        /* \"#utility.yul\":20823:20895   */\n      tag_182\n      jump\t// in\n    tag_442:\n        /* \"#utility.yul\":20905:20977   */\n      tag_443\n        /* \"#utility.yul\":20973:20975   */\n      0x40\n        /* \"#utility.yul\":20962:20971   */\n      dup4\n        /* \"#utility.yul\":20958:20976   */\n      add\n        /* \"#utility.yul\":20949:20955   */\n      dup6\n        /* \"#utility.yul\":20905:20977   */\n      tag_182\n      jump\t// in\n    tag_443:\n        /* \"#utility.yul\":21024:21033   */\n      dup2\n        /* \"#utility.yul\":21018:21022   */\n      dup2\n        /* \"#utility.yul\":21014:21034   */\n      sub\n        /* \"#utility.yul\":21009:21011   */\n      0x60\n        /* \"#utility.yul\":20998:21007   */\n      dup4\n        /* \"#utility.yul\":20994:21012   */\n      add\n        /* \"#utility.yul\":20987:21035   */\n      mstore\n        /* \"#utility.yul\":21052:21176   */\n      tag_444\n        /* \"#utility.yul\":21171:21175   */\n      dup2\n        /* \"#utility.yul\":21162:21168   */\n      dup5\n        /* \"#utility.yul\":21052:21176   */\n      tag_219\n      jump\t// in\n    tag_444:\n        /* \"#utility.yul\":21044:21176   */\n      swap1\n      pop\n        /* \"#utility.yul\":20447:21183   */\n      swap6\n      swap5\n      pop\n      pop\n      pop\n      pop\n      pop\n      jump\t// out\n        /* \"#utility.yul\":21189:21332   */\n    tag_220:\n        /* \"#utility.yul\":21246:21251   */\n      0x00\n        /* \"#utility.yul\":21277:21283   */\n      dup2\n        /* \"#utility.yul\":21271:21284   */\n      mload\n        /* \"#utility.yul\":21262:21284   */\n      swap1\n      pop\n        /* \"#utility.yul\":21293:21326   */\n      tag_446\n        /* \"#utility.yul\":21320:21325   */\n      dup2\n        /* \"#utility.yul\":21293:21326   */\n      tag_174\n      jump\t// in\n    tag_446:\n        /* \"#utility.yul\":21189:21332   */\n      swap3\n      swap2\n      pop\n      pop\n      jump\t// out\n        /* \"#utility.yul\":21338:21689   */\n    tag_96:\n        /* \"#utility.yul\":21408:21414   */\n      0x00\n        /* \"#utility.yul\":21457:21459   */\n      0x20\n        /* \"#utility.yul\":21445:21454   */\n      dup3\n        /* \"#utility.yul\":21436:21443   */\n      dup5\n        /* \"#utility.yul\":21432:21455   */\n      sub\n        /* \"#utility.yul\":21428:21460   */\n      slt\n        /* \"#utility.yul\":21425:21544   */\n      iszero\n      tag_448\n      jumpi\n        /* \"#utility.yul\":21463:21542   */\n      tag_449\n      tag_156\n      jump\t// in\n    tag_449:\n        /* \"#utility.yul\":21425:21544   */\n    tag_448:\n        /* \"#utility.yul\":21583:21584   */\n      0x00\n        /* \"#utility.yul\":21608:21672   */\n      tag_450\n        /* \"#utility.yul\":21664:21671   */\n      dup5\n        /* \"#utility.yul\":21655:21661   */\n      dup3\n        /* \"#utility.yul\":21644:21653   */\n      dup6\n        /* \"#utility.yul\":21640:21662   */\n      add\n        /* \"#utility.yul\":21608:21672   */\n      tag_220\n      jump\t// in\n    tag_450:\n        /* \"#utility.yul\":21598:21672   */\n      swap2\n      pop\n        /* \"#utility.yul\":21554:21682   */\n      pop\n        /* \"#utility.yul\":21338:21689   */\n      swap3\n      swap2\n      pop\n      pop\n      jump\t// out\n        /* \"#utility.yul\":21695:21811   */\n    tag_221:\n        /* \"#utility.yul\":21765:21786   */\n      tag_452\n        /* \"#utility.yul\":21780:21785   */\n      dup2\n        /* \"#utility.yul\":21765:21786   */\n      tag_215\n      jump\t// in\n    tag_452:\n        /* \"#utility.yul\":21758:21763   */\n      dup2\n        /* \"#utility.yul\":21755:21787   */\n      eq\n        /* \"#utility.yul\":21745:21805   */\n      tag_453\n      jumpi\n        /* \"#utility.yul\":21801:21802   */\n      0x00\n        /* \"#utility.yul\":21798:21799   */\n      dup1\n        /* \"#utility.yul\":21791:21803   */\n      revert\n        /* \"#utility.yul\":21745:21805   */\n    tag_453:\n        /* \"#utility.yul\":21695:21811   */\n      pop\n      jump\t// out\n        /* \"#utility.yul\":21817:21954   */\n    tag_222:\n        /* \"#utility.yul\":21871:21876   */\n      0x00\n        /* \"#utility.yul\":21902:21908   */\n      dup2\n        /* \"#utility.yul\":21896:21909   */\n      mload\n        /* \"#utility.yul\":21887:21909   */\n      swap1\n      pop\n        /* \"#utility.yul\":21918:21948   */\n      tag_455\n        /* \"#utility.yul\":21942:21947   */\n      dup2\n        /* \"#utility.yul\":21918:21948   */\n      tag_221\n      jump\t// in\n    tag_455:\n        /* \"#utility.yul\":21817:21954   */\n      swap3\n      swap2\n      pop\n      pop\n      jump\t// out\n        /* \"#utility.yul\":21960:22305   */\n    tag_103:\n        /* \"#utility.yul\":22027:22033   */\n      0x00\n        /* \"#utility.yul\":22076:22078   */\n      0x20\n        /* \"#utility.yul\":22064:22073   */\n      dup3\n        /* \"#utility.yul\":22055:22062   */\n      dup5\n        /* \"#utility.yul\":22051:22074   */\n      sub\n        /* \"#utility.yul\":22047:22079   */\n      slt\n        /* \"#utility.yul\":22044:22163   */\n      iszero\n      tag_457\n      jumpi\n        /* \"#utility.yul\":22082:22161   */\n      tag_458\n      tag_156\n      jump\t// in\n    tag_458:\n        /* \"#utility.yul\":22044:22163   */\n    tag_457:\n        /* \"#utility.yul\":22202:22203   */\n      0x00\n        /* \"#utility.yul\":22227:22288   */\n      tag_459\n        /* \"#utility.yul\":22280:22287   */\n      dup5\n        /* \"#utility.yul\":22271:22277   */\n      dup3\n        /* \"#utility.yul\":22260:22269   */\n      dup6\n        /* \"#utility.yul\":22256:22278   */\n      add\n        /* \"#utility.yul\":22227:22288   */\n      tag_222\n      jump\t// in\n    tag_459:\n        /* \"#utility.yul\":22217:22288   */\n      swap2\n      pop\n        /* \"#utility.yul\":22173:22298   */\n      pop\n        /* \"#utility.yul\":21960:22305   */\n      swap3\n      swap2\n      pop\n      pop\n      jump\t// out\n        /* \"#utility.yul\":22311:22480   */\n    tag_223:\n        /* \"#utility.yul\":22395:22406   */\n      0x00\n        /* \"#utility.yul\":22429:22435   */\n      dup3\n        /* \"#utility.yul\":22424:22427   */\n      dup3\n        /* \"#utility.yul\":22417:22436   */\n      mstore\n        /* \"#utility.yul\":22469:22473   */\n      0x20\n        /* \"#utility.yul\":22464:22467   */\n      dup3\n        /* \"#utility.yul\":22460:22474   */\n      add\n        /* \"#utility.yul\":22445:22474   */\n      swap1\n      pop\n        /* \"#utility.yul\":22311:22480   */\n      swap3\n      swap2\n      pop\n      pop\n      jump\t// out\n        /* \"#utility.yul\":22486:22715   */\n    tag_224:\n        /* \"#utility.yul\":22626:22660   */\n      0x5361666545524332303a204552433230206f7065726174696f6e20646964206e\n        /* \"#utility.yul\":22622:22623   */\n      0x00\n        /* \"#utility.yul\":22614:22620   */\n      dup3\n        /* \"#utility.yul\":22610:22624   */\n      add\n        /* \"#utility.yul\":22603:22661   */\n      mstore\n        /* \"#utility.yul\":22695:22707   */\n      0x6f74207375636365656400000000000000000000000000000000000000000000\n        /* \"#utility.yul\":22690:22692   */\n      0x20\n        /* \"#utility.yul\":22682:22688   */\n      dup3\n        /* \"#utility.yul\":22678:22693   */\n      add\n        /* \"#utility.yul\":22671:22708   */\n      mstore\n        /* \"#utility.yul\":22486:22715   */\n      pop\n      jump\t// out\n        /* \"#utility.yul\":22721:23087   */\n    tag_225:\n        /* \"#utility.yul\":22863:22866   */\n      0x00\n        /* \"#utility.yul\":22884:22951   */\n      tag_463\n        /* \"#utility.yul\":22948:22950   */\n      0x2a\n        /* \"#utility.yul\":22943:22946   */\n      dup4\n        /* \"#utility.yul\":22884:22951   */\n      tag_223\n      jump\t// in\n    tag_463:\n        /* \"#utility.yul\":22877:22951   */\n      swap2\n      pop\n        /* \"#utility.yul\":22960:23053   */\n      tag_464\n        /* \"#utility.yul\":23049:23052   */\n      dup3\n        /* \"#utility.yul\":22960:23053   */\n      tag_224\n      jump\t// in\n    tag_464:\n        /* \"#utility.yul\":23078:23080   */\n      0x40\n        /* \"#utility.yul\":23073:23076   */\n      dup3\n        /* \"#utility.yul\":23069:23081   */\n      add\n        /* \"#utility.yul\":23062:23081   */\n      swap1\n      pop\n        /* \"#utility.yul\":22721:23087   */\n      swap2\n      swap1\n      pop\n      jump\t// out\n        /* \"#utility.yul\":23093:23512   */\n    tag_106:\n        /* \"#utility.yul\":23259:23263   */\n      0x00\n        /* \"#utility.yul\":23297:23299   */\n      0x20\n        /* \"#utility.yul\":23286:23295   */\n      dup3\n        /* \"#utility.yul\":23282:23300   */\n      add\n        /* \"#utility.yul\":23274:23300   */\n      swap1\n      pop\n        /* \"#utility.yul\":23346:23355   */\n      dup2\n        /* \"#utility.yul\":23340:23344   */\n      dup2\n        /* \"#utility.yul\":23336:23356   */\n      sub\n        /* \"#utility.yul\":23332:23333   */\n      0x00\n        /* \"#utility.yul\":23321:23330   */\n      dup4\n        /* \"#utility.yul\":23317:23334   */\n      add\n        /* \"#utility.yul\":23310:23357   */\n      mstore\n        /* \"#utility.yul\":23374:23505   */\n      tag_466\n        /* \"#utility.yul\":23500:23504   */\n      dup2\n        /* \"#utility.yul\":23374:23505   */\n      tag_225\n      jump\t// in\n    tag_466:\n        /* \"#utility.yul\":23366:23505   */\n      swap1\n      pop\n        /* \"#utility.yul\":23093:23512   */\n      swap2\n      swap1\n      pop\n      jump\t// out\n        /* \"#utility.yul\":23518:23850   */\n    tag_109:\n        /* \"#utility.yul\":23639:23643   */\n      0x00\n        /* \"#utility.yul\":23677:23679   */\n      0x40\n        /* \"#utility.yul\":23666:23675   */\n      dup3\n        /* \"#utility.yul\":23662:23680   */\n      add\n        /* \"#utility.yul\":23654:23680   */\n      swap1\n      pop\n        /* \"#utility.yul\":23690:23761   */\n      tag_468\n        /* \"#utility.yul\":23758:23759   */\n      0x00\n        /* \"#utility.yul\":23747:23756   */\n      dup4\n        /* \"#utility.yul\":23743:23760   */\n      add\n        /* \"#utility.yul\":23734:23740   */\n      dup6\n        /* \"#utility.yul\":23690:23761   */\n      tag_182\n      jump\t// in\n    tag_468:\n        /* \"#utility.yul\":23771:23843   */\n      tag_469\n        /* \"#utility.yul\":23839:23841   */\n      0x20\n        /* \"#utility.yul\":23828:23837   */\n      dup4\n        /* \"#utility.yul\":23824:23842   */\n      add\n        /* \"#utility.yul\":23815:23821   */\n      dup5\n        /* \"#utility.yul\":23771:23843   */\n      tag_182\n      jump\t// in\n    tag_469:\n        /* \"#utility.yul\":23518:23850   */\n      swap4\n      swap3\n      pop\n      pop\n      pop\n      jump\t// out\n        /* \"#utility.yul\":23856:24036   */\n    tag_226:\n        /* \"#utility.yul\":23904:23981   */\n      0x4e487b7100000000000000000000000000000000000000000000000000000000\n        /* \"#utility.yul\":23901:23902   */\n      0x00\n        /* \"#utility.yul\":23894:23982   */\n      mstore\n        /* \"#utility.yul\":24001:24005   */\n      0x11\n        /* \"#utility.yul\":23998:23999   */\n      0x04\n        /* \"#utility.yul\":23991:24006   */\n      mstore\n        /* \"#utility.yul\":24025:24029   */\n      0x24\n        /* \"#utility.yul\":24022:24023   */\n      0x00\n        /* \"#utility.yul\":24015:24030   */\n      revert\n        /* \"#utility.yul\":24042:24347   */\n    tag_114:\n        /* \"#utility.yul\":24082:24085   */\n      0x00\n        /* \"#utility.yul\":24101:24121   */\n      tag_472\n        /* \"#utility.yul\":24119:24120   */\n      dup3\n        /* \"#utility.yul\":24101:24121   */\n      tag_173\n      jump\t// in\n    tag_472:\n        /* \"#utility.yul\":24096:24121   */\n      swap2\n      pop\n        /* \"#utility.yul\":24135:24155   */\n      tag_473\n        /* \"#utility.yul\":24153:24154   */\n      dup4\n        /* \"#utility.yul\":24135:24155   */\n      tag_173\n      jump\t// in\n    tag_473:\n        /* \"#utility.yul\":24130:24155   */\n      swap3\n      pop\n        /* \"#utility.yul\":24289:24290   */\n      dup3\n        /* \"#utility.yul\":24221:24287   */\n      0xffffffffffffffffffffffffffffffffffffffffffffffffffffffffffffffff\n        /* \"#utility.yul\":24217:24291   */\n      sub\n        /* \"#utility.yul\":24214:24215   */\n      dup3\n        /* \"#utility.yul\":24211:24292   */\n      gt\n        /* \"#utility.yul\":24208:24315   */\n      iszero\n      tag_474\n      jumpi\n        /* \"#utility.yul\":24295:24313   */\n      tag_475\n      tag_226\n      jump\t// in\n    tag_475:\n        /* \"#utility.yul\":24208:24315   */\n    tag_474:\n        /* \"#utility.yul\":24339:24340   */\n      dup3\n        /* \"#utility.yul\":24336:24337   */\n      dup3\n        /* \"#utility.yul\":24332:24341   */\n      add\n        /* \"#utility.yul\":24325:24341   */\n      swap1\n      pop\n        /* \"#utility.yul\":24042:24347   */\n      swap3\n      swap2\n      pop\n      pop\n      jump\t// out\n        /* \"#utility.yul\":24353:24685   */\n    tag_117:\n        /* \"#utility.yul\":24474:24478   */\n      0x00\n        /* \"#utility.yul\":24512:24514   */\n      0x40\n        /* \"#utility.yul\":24501:24510   */\n      dup3\n        /* \"#utility.yul\":24497:24515   */\n      add\n        /* \"#utility.yul\":24489:24515   */\n      swap1\n      pop\n        /* \"#utility.yul\":24525:24596   */\n      tag_477\n        /* \"#utility.yul\":24593:24594   */\n      0x00\n        /* \"#utility.yul\":24582:24591   */\n      dup4\n        /* \"#utility.yul\":24578:24595   */\n      add\n        /* \"#utility.yul\":24569:24575   */\n      dup6\n        /* \"#utility.yul\":24525:24596   */\n      tag_182\n      jump\t// in\n    tag_477:\n        /* \"#utility.yul\":24606:24678   */\n      tag_478\n        /* \"#utility.yul\":24674:24676   */\n      0x20\n        /* \"#utility.yul\":24663:24672   */\n      dup4\n        /* \"#utility.yul\":24659:24677   */\n      add\n        /* \"#utility.yul\":24650:24656   */\n      dup5\n        /* \"#utility.yul\":24606:24678   */\n      tag_183\n      jump\t// in\n    tag_478:\n        /* \"#utility.yul\":24353:24685   */\n      swap4\n      swap3\n      pop\n      pop\n      pop\n      jump\t// out\n        /* \"#utility.yul\":24691:24916   */\n    tag_227:\n        /* \"#utility.yul\":24831:24865   */\n      0x416464726573733a20696e73756666696369656e742062616c616e636520666f\n        /* \"#utility.yul\":24827:24828   */\n      0x00\n        /* \"#utility.yul\":24819:24825   */\n      dup3\n        /* \"#utility.yul\":24815:24829   */\n      add\n        /* \"#utility.yul\":24808:24866   */\n      mstore\n        /* \"#utility.yul\":24900:24908   */\n      0x722063616c6c0000000000000000000000000000000000000000000000000000\n        /* \"#utility.yul\":24895:24897   */\n      0x20\n        /* \"#utility.yul\":24887:24893   */\n      dup3\n        /* \"#utility.yul\":24883:24898   */\n      add\n        /* \"#utility.yul\":24876:24909   */\n      mstore\n        /* \"#utility.yul\":24691:24916   */\n      pop\n      jump\t// out\n        /* \"#utility.yul\":24922:25288   */\n    tag_228:\n        /* \"#utility.yul\":25064:25067   */\n      0x00\n        /* \"#utility.yul\":25085:25152   */\n      tag_481\n        /* \"#utility.yul\":25149:25151   */\n      0x26\n        /* \"#utility.yul\":25144:25147   */\n      dup4\n        /* \"#utility.yul\":25085:25152   */\n      tag_223\n      jump\t// in\n    tag_481:\n        /* \"#utility.yul\":25078:25152   */\n      swap2\n      pop\n        /* \"#utility.yul\":25161:25254   */\n      tag_482\n        /* \"#utility.yul\":25250:25253   */\n      dup3\n        /* \"#utility.yul\":25161:25254   */\n      tag_227\n      jump\t// in\n    tag_482:\n        /* \"#utility.yul\":25279:25281   */\n      0x40\n        /* \"#utility.yul\":25274:25277   */\n      dup3\n        /* \"#utility.yul\":25270:25282   */\n      add\n        /* \"#utility.yul\":25263:25282   */\n      swap1\n      pop\n        /* \"#utility.yul\":24922:25288   */\n      swap2\n      swap1\n      pop\n      jump\t// out\n        /* \"#utility.yul\":25294:25713   */\n    tag_134:\n        /* \"#utility.yul\":25460:25464   */\n      0x00\n        /* \"#utility.yul\":25498:25500   */\n      0x20\n        /* \"#utility.yul\":25487:25496   */\n      dup3\n        /* \"#utility.yul\":25483:25501   */\n      add\n        /* \"#utility.yul\":25475:25501   */\n      swap1\n      pop\n        /* \"#utility.yul\":25547:25556   */\n      dup2\n        /* \"#utility.yul\":25541:25545   */\n      dup2\n        /* \"#utility.yul\":25537:25557   */\n      sub\n        /* \"#utility.yul\":25533:25534   */\n      0x00\n        /* \"#utility.yul\":25522:25531   */\n      dup4\n        /* \"#utility.yul\":25518:25535   */\n      add\n        /* \"#utility.yul\":25511:25558   */\n      mstore\n        /* \"#utility.yul\":25575:25706   */\n      tag_484\n        /* \"#utility.yul\":25701:25705   */\n      dup2\n        /* \"#utility.yul\":25575:25706   */\n      tag_228\n      jump\t// in\n    tag_484:\n        /* \"#utility.yul\":25567:25706   */\n      swap1\n      pop\n        /* \"#utility.yul\":25294:25713   */\n      swap2\n      swap1\n      pop\n      jump\t// out\n        /* \"#utility.yul\":25719:25898   */\n    tag_229:\n        /* \"#utility.yul\":25859:25890   */\n      0x416464726573733a2063616c6c20746f206e6f6e2d636f6e7472616374000000\n        /* \"#utility.yul\":25855:25856   */\n      0x00\n        /* \"#utility.yul\":25847:25853   */\n      dup3\n        /* \"#utility.yul\":25843:25857   */\n      add\n        /* \"#utility.yul\":25836:25891   */\n      mstore\n        /* \"#utility.yul\":25719:25898   */\n      pop\n      jump\t// out\n        /* \"#utility.yul\":25904:26270   */\n    tag_230:\n        /* \"#utility.yul\":26046:26049   */\n      0x00\n        /* \"#utility.yul\":26067:26134   */\n      tag_487\n        /* \"#utility.yul\":26131:26133   */\n      0x1d\n        /* \"#utility.yul\":26126:26129   */\n      dup4\n        /* \"#utility.yul\":26067:26134   */\n      tag_223\n      jump\t// in\n    tag_487:\n        /* \"#utility.yul\":26060:26134   */\n      swap2\n      pop\n        /* \"#utility.yul\":26143:26236   */\n      tag_488\n        /* \"#utility.yul\":26232:26235   */\n      dup3\n        /* \"#utility.yul\":26143:26236   */\n      tag_229\n      jump\t// in\n    tag_488:\n        /* \"#utility.yul\":26261:26263   */\n      0x20\n        /* \"#utility.yul\":26256:26259   */\n      dup3\n        /* \"#utility.yul\":26252:26264   */\n      add\n        /* \"#utility.yul\":26245:26264   */\n      swap1\n      pop\n        /* \"#utility.yul\":25904:26270   */\n      swap2\n      swap1\n      pop\n      jump\t// out\n        /* \"#utility.yul\":26276:26695   */\n    tag_139:\n        /* \"#utility.yul\":26442:26446   */\n      0x00\n        /* \"#utility.yul\":26480:26482   */\n      0x20\n        /* \"#utility.yul\":26469:26478   */\n      dup3\n        /* \"#utility.yul\":26465:26483   */\n      add\n        /* \"#utility.yul\":26457:26483   */\n      swap1\n      pop\n        /* \"#utility.yul\":26529:26538   */\n      dup2\n        /* \"#utility.yul\":26523:26527   */\n      dup2\n        /* \"#utility.yul\":26519:26539   */\n      sub\n        /* \"#utility.yul\":26515:26516   */\n      0x00\n        /* \"#utility.yul\":26504:26513   */\n      dup4\n        /* \"#utility.yul\":26500:26517   */\n      add\n        /* \"#utility.yul\":26493:26540   */\n      mstore\n        /* \"#utility.yul\":26557:26688   */\n      tag_490\n        /* \"#utility.yul\":26683:26687   */\n      dup2\n        /* \"#utility.yul\":26557:26688   */\n      tag_230\n      jump\t// in\n    tag_490:\n        /* \"#utility.yul\":26549:26688   */\n      swap1\n      pop\n        /* \"#utility.yul\":26276:26695   */\n      swap2\n      swap1\n      pop\n      jump\t// out\n        /* \"#utility.yul\":26701:26848   */\n    tag_231:\n        /* \"#utility.yul\":26802:26813   */\n      0x00\n        /* \"#utility.yul\":26839:26842   */\n      dup2\n        /* \"#utility.yul\":26824:26842   */\n      swap1\n      pop\n        /* \"#utility.yul\":26701:26848   */\n      swap3\n      swap2\n      pop\n      pop\n      jump\t// out\n        /* \"#utility.yul\":26854:27227   */\n    tag_232:\n        /* \"#utility.yul\":26958:26961   */\n      0x00\n        /* \"#utility.yul\":26986:27024   */\n      tag_493\n        /* \"#utility.yul\":27018:27023   */\n      dup3\n        /* \"#utility.yul\":26986:27024   */\n      tag_211\n      jump\t// in\n    tag_493:\n        /* \"#utility.yul\":27040:27128   */\n      tag_494\n        /* \"#utility.yul\":27121:27127   */\n      dup2\n        /* \"#utility.yul\":27116:27119   */\n      dup6\n        /* \"#utility.yul\":27040:27128   */\n      tag_231\n      jump\t// in\n    tag_494:\n        /* \"#utility.yul\":27033:27128   */\n      swap4\n      pop\n        /* \"#utility.yul\":27137:27189   */\n      tag_495\n        /* \"#utility.yul\":27182:27188   */\n      dup2\n        /* \"#utility.yul\":27177:27180   */\n      dup6\n        /* \"#utility.yul\":27170:27174   */\n      0x20\n        /* \"#utility.yul\":27163:27168   */\n      dup7\n        /* \"#utility.yul\":27159:27175   */\n      add\n        /* \"#utility.yul\":27137:27189   */\n      tag_213\n      jump\t// in\n    tag_495:\n        /* \"#utility.yul\":27214:27220   */\n      dup1\n        /* \"#utility.yul\":27209:27212   */\n      dup5\n        /* \"#utility.yul\":27205:27221   */\n      add\n        /* \"#utility.yul\":27198:27221   */\n      swap2\n      pop\n        /* \"#utility.yul\":26962:27227   */\n      pop\n        /* \"#utility.yul\":26854:27227   */\n      swap3\n      swap2\n      pop\n      pop\n      jump\t// out\n        /* \"#utility.yul\":27233:27504   */\n    tag_141:\n        /* \"#utility.yul\":27363:27366   */\n      0x00\n        /* \"#utility.yul\":27385:27478   */\n      tag_497\n        /* \"#utility.yul\":27474:27477   */\n      dup3\n        /* \"#utility.yul\":27465:27471   */\n      dup5\n        /* \"#utility.yul\":27385:27478   */\n      tag_232\n      jump\t// in\n    tag_497:\n        /* \"#utility.yul\":27378:27478   */\n      swap2\n      pop\n        /* \"#utility.yul\":27495:27498   */\n      dup2\n        /* \"#utility.yul\":27488:27498   */\n      swap1\n      pop\n        /* \"#utility.yul\":27233:27504   */\n      swap3\n      swap2\n      pop\n      pop\n      jump\t// out\n        /* \"#utility.yul\":27510:27609   */\n    tag_233:\n        /* \"#utility.yul\":27562:27568   */\n      0x00\n        /* \"#utility.yul\":27596:27601   */\n      dup2\n        /* \"#utility.yul\":27590:27602   */\n      mload\n        /* \"#utility.yul\":27580:27602   */\n      swap1\n      pop\n        /* \"#utility.yul\":27510:27609   */\n      swap2\n      swap1\n      pop\n      jump\t// out\n        /* \"#utility.yul\":27615:27979   */\n    tag_234:\n        /* \"#utility.yul\":27703:27706   */\n      0x00\n        /* \"#utility.yul\":27731:27770   */\n      tag_500\n        /* \"#utility.yul\":27764:27769   */\n      dup3\n        /* \"#utility.yul\":27731:27770   */\n      tag_233\n      jump\t// in\n    tag_500:\n        /* \"#utility.yul\":27786:27857   */\n      tag_501\n        /* \"#utility.yul\":27850:27856   */\n      dup2\n        /* \"#utility.yul\":27845:27848   */\n      dup6\n        /* \"#utility.yul\":27786:27857   */\n      tag_223\n      jump\t// in\n    tag_501:\n        /* \"#utility.yul\":27779:27857   */\n      swap4\n      pop\n        /* \"#utility.yul\":27866:27918   */\n      tag_502\n        /* \"#utility.yul\":27911:27917   */\n      dup2\n        /* \"#utility.yul\":27906:27909   */\n      dup6\n        /* \"#utility.yul\":27899:27903   */\n      0x20\n        /* \"#utility.yul\":27892:27897   */\n      dup7\n        /* \"#utility.yul\":27888:27904   */\n      add\n        /* \"#utility.yul\":27866:27918   */\n      tag_213\n      jump\t// in\n    tag_502:\n        /* \"#utility.yul\":27943:27972   */\n      tag_503\n        /* \"#utility.yul\":27965:27971   */\n      dup2\n        /* \"#utility.yul\":27943:27972   */\n      tag_159\n      jump\t// in\n    tag_503:\n        /* \"#utility.yul\":27938:27941   */\n      dup5\n        /* \"#utility.yul\":27934:27973   */\n      add\n        /* \"#utility.yul\":27927:27973   */\n      swap2\n      pop\n        /* \"#utility.yul\":27707:27979   */\n      pop\n        /* \"#utility.yul\":27615:27979   */\n      swap3\n      swap2\n      pop\n      pop\n      jump\t// out\n        /* \"#utility.yul\":27985:28298   */\n    tag_154:\n        /* \"#utility.yul\":28098:28102   */\n      0x00\n        /* \"#utility.yul\":28136:28138   */\n      0x20\n        /* \"#utility.yul\":28125:28134   */\n      dup3\n        /* \"#utility.yul\":28121:28139   */\n      add\n        /* \"#utility.yul\":28113:28139   */\n      swap1\n      pop\n        /* \"#utility.yul\":28185:28194   */\n      dup2\n        /* \"#utility.yul\":28179:28183   */\n      dup2\n        /* \"#utility.yul\":28175:28195   */\n      sub\n        /* \"#utility.yul\":28171:28172   */\n      0x00\n        /* \"#utility.yul\":28160:28169   */\n      dup4\n        /* \"#utility.yul\":28156:28173   */\n      add\n        /* \"#utility.yul\":28149:28196   */\n      mstore\n        /* \"#utility.yul\":28213:28291   */\n      tag_505\n        /* \"#utility.yul\":28286:28290   */\n      dup2\n        /* \"#utility.yul\":28277:28283   */\n      dup5\n        /* \"#utility.yul\":28213:28291   */\n      tag_234\n      jump\t// in\n    tag_505:\n        /* \"#utility.yul\":28205:28291   */\n      swap1\n      pop\n        /* \"#utility.yul\":27985:28298   */\n      swap3\n      swap2\n      pop\n      pop\n      jump\t// out\n\n    auxdata: 0xa26469706673582212204a84b23eb5c3b925ef107490915a93d32f6b7de56f7a8dedb6fbb2f33286a0aa64736f6c634300080d0033\n}\n",
				"bytecode": {
					"linkReferences": {},
					"object": "60a06040523480156200001157600080fd5b5060405162001bfd38038062001bfd8339818101604052810190620000379190620000dc565b8073ffffffffffffffffffffffffffffffffffffffff1660808173ffffffffffffffffffffffffffffffffffffffff1681525050506200010e565b600080fd5b600073ffffffffffffffffffffffffffffffffffffffff82169050919050565b6000620000a48262000077565b9050919050565b620000b68162000097565b8114620000c257600080fd5b50565b600081519050620000d681620000ab565b92915050565b600060208284031215620000f557620000f462000072565b5b60006200010584828501620000c5565b91505092915050565b608051611abe6200013f6000396000818161017c015281816103f10152818161056501526105c70152611abe6000f3fe608060405234801561001057600080fd5b506004361061004c5760003560e01c80630e6335e61461005157806377aba2131461006d5780639cbcf4c71461008b578063bfbd3808146100a7575b600080fd5b61006b60048036038101906100669190610ff7565b6100c3565b005b61007561017a565b6040516100829190611062565b60405180910390f35b6100a560048036038101906100a0919061107d565b61019e565b005b6100c160048036038101906100bc9190610ff7565b61020e565b005b6000826080015190506100f93330848473ffffffffffffffffffffffffffffffffffffffff16610296909392919063ffffffff16565b826080015173ffffffffffffffffffffffffffffffffffffffff1663853828b66040518163ffffffff1660e01b8152600401600060405180830381600087803b15801561014557600080fd5b505af1158015610159573d6000803e3d6000fd5b505050506101758360000151838560200151866040015161031f565b505050565b7f000000000000000000000000000000000000000000000000000000000000000081565b600082600001518360200151815181106101bb576101ba6110ec565b5b602002602001015190508073ffffffffffffffffffffffffffffffffffffffff168473ffffffffffffffffffffffffffffffffffffffff160361020757610202838361020e565b610208565b5b50505050565b6000826000015183602001518151811061022b5761022a6110ec565b5b602002602001015190506102623330848473ffffffffffffffffffffffffffffffffffffffff16610296909392919063ffffffff16565b61027a8360000151838560200151866040015161048a565b610291836060015184608001518560a00151610661565b505050565b610319846323b872dd60e01b8585856040516024016102b79392919061112a565b604051602081830303815290604052907bffffffffffffffffffffffffffffffffffffffffffffffffffffffff19166020820180517bffffffffffffffffffffffffffffffffffffffffffffffffffffffff838183161783525050505061077a565b50505050565b6000845167ffffffffffffffff81111561033c5761033b610ce6565b5b60405190808252806020026020018201604052801561036a5781602001602082028036833780820191505090505b50905083818481518110610381576103806110ec565b5b60200260200101818152505060006001905060008083836040516020016103aa93929190611271565b60405160208183030381529060405290506103c3610c68565b87816000018190525083816020018190525081816040018190525060008160600190151590811515815250507f000000000000000000000000000000000000000000000000000000000000000073ffffffffffffffffffffffffffffffffffffffff16638bdb3913863033856040518563ffffffff1660e01b815260040161044e9493929190611566565b600060405180830381600087803b15801561046857600080fd5b505af115801561047c573d6000803e3d6000fd5b505050505050505050505050565b6000600190506000855167ffffffffffffffff8111156104ad576104ac610ce6565b5b6040519080825280602002602001820160405280156104db5781602001602082028036833780820191505090505b509050848185815181106104f2576104f16110ec565b5b602002602001018181525050600060019050600083838360405160200161051b939291906115c1565b6040516020818303038152906040529050610534610c92565b88816000018190525083816020018190525081816040018190525060008160600190151590811515815250506105c57f0000000000000000000000000000000000000000000000000000000000000000898b8a81518110610598576105976110ec565b5b602002602001015173ffffffffffffffffffffffffffffffffffffffff166108419092919063ffffffff16565b7f000000000000000000000000000000000000000000000000000000000000000073ffffffffffffffffffffffffffffffffffffffff1663b95cac28873030856040518563ffffffff1660e01b81526004016106249493929190611670565b600060405180830381600087803b15801561063e57600080fd5b505af1158015610652573d6000803e3d6000fd5b50505050505050505050505050565b61066b8284610953565b8173ffffffffffffffffffffffffffffffffffffffff1663de5f62686040518163ffffffff1660e01b8152600401600060405180830381600087803b1580156106b357600080fd5b505af11580156106c7573d6000803e3d6000fd5b505050506000829050610774828273ffffffffffffffffffffffffffffffffffffffff166370a08231306040518263ffffffff1660e01b815260040161070d9190611062565b602060405180830381865afa15801561072a573d6000803e3d6000fd5b505050506040513d601f19601f8201168201806040525081019061074e91906116d1565b8373ffffffffffffffffffffffffffffffffffffffff16610a2c9092919063ffffffff16565b50505050565b60006107dc826040518060400160405280602081526020017f5361666545524332303a206c6f772d6c6576656c2063616c6c206661696c65648152508573ffffffffffffffffffffffffffffffffffffffff16610ab29092919063ffffffff16565b905060008151111561083c57808060200190518101906107fc919061172a565b61083b576040517f08c379a0000000000000000000000000000000000000000000000000000000008152600401610832906117da565b60405180910390fd5b5b505050565b6000818473ffffffffffffffffffffffffffffffffffffffff1663dd62ed3e30866040518363ffffffff1660e01b815260040161087f9291906117fa565b602060405180830381865afa15801561089c573d6000803e3d6000fd5b505050506040513d601f19601f820116820180604052508101906108c091906116d1565b6108ca9190611852565b905061094d8463095ea7b360e01b85846040516024016108eb9291906118a8565b604051602081830303815290604052907bffffffffffffffffffffffffffffffffffffffffffffffffffffffff19166020820180517bffffffffffffffffffffffffffffffffffffffffffffffffffffffff838183161783525050505061077a565b50505050565b600081905060008173ffffffffffffffffffffffffffffffffffffffff1663dd62ed3e30866040518363ffffffff1660e01b81526004016109959291906117fa565b602060405180830381865afa1580156109b2573d6000803e3d6000fd5b505050506040513d601f19601f820116820180604052508101906109d691906116d1565b03610a2757610a26837fffffffffffffffffffffffffffffffffffffffffffffffffffffffffffffffff8373ffffffffffffffffffffffffffffffffffffffff166108419092919063ffffffff16565b5b505050565b610aad8363a9059cbb60e01b8484604051602401610a4b9291906118a8565b604051602081830303815290604052907bffffffffffffffffffffffffffffffffffffffffffffffffffffffff19166020820180517bffffffffffffffffffffffffffffffffffffffffffffffffffffffff838183161783525050505061077a565b505050565b6060610ac18484600085610aca565b90509392505050565b606082471015610b0f576040517f08c379a0000000000000000000000000000000000000000000000000000000008152600401610b0690611943565b60405180910390fd5b610b1885610bde565b610b57576040517f08c379a0000000000000000000000000000000000000000000000000000000008152600401610b4e906119af565b60405180910390fd5b6000808673ffffffffffffffffffffffffffffffffffffffff168587604051610b809190611a0b565b60006040518083038185875af1925050503d8060008114610bbd576040519150601f19603f3d011682016040523d82523d6000602084013e610bc2565b606091505b5091509150610bd2828286610c01565b92505050949350505050565b6000808273ffffffffffffffffffffffffffffffffffffffff163b119050919050565b60608315610c1157829050610c61565b600083511115610c245782518084602001fd5b816040517f08c379a0000000000000000000000000000000000000000000000000000000008152600401610c589190611a66565b60405180910390fd5b9392505050565b60405180608001604052806060815260200160608152602001606081526020016000151581525090565b60405180608001604052806060815260200160608152602001606081526020016000151581525090565b6000604051905090565b600080fd5b600080fd5b600080fd5b6000601f19601f8301169050919050565b7f4e487b7100000000000000000000000000000000000000000000000000000000600052604160045260246000fd5b610d1e82610cd5565b810181811067ffffffffffffffff82111715610d3d57610d3c610ce6565b5b80604052505050565b6000610d50610cbc565b9050610d5c8282610d15565b919050565b600080fd5b600080fd5b600067ffffffffffffffff821115610d8657610d85610ce6565b5b602082029050602081019050919050565b600080fd5b600073ffffffffffffffffffffffffffffffffffffffff82169050919050565b6000610dc782610d9c565b9050919050565b6000610dd982610dbc565b9050919050565b610de981610dce565b8114610df457600080fd5b50565b600081359050610e0681610de0565b92915050565b6000610e1f610e1a84610d6b565b610d46565b90508083825260208201905060208402830185811115610e4257610e41610d97565b5b835b81811015610e6b5780610e578882610df7565b845260208401935050602081019050610e44565b5050509392505050565b600082601f830112610e8a57610e89610d66565b5b8135610e9a848260208601610e0c565b91505092915050565b6000819050919050565b610eb681610ea3565b8114610ec157600080fd5b50565b600081359050610ed381610ead565b92915050565b6000819050919050565b610eec81610ed9565b8114610ef757600080fd5b50565b600081359050610f0981610ee3565b92915050565b610f1881610dbc565b8114610f2357600080fd5b50565b600081359050610f3581610f0f565b92915050565b600060c08284031215610f5157610f50610cd0565b5b610f5b60c0610d46565b9050600082013567ffffffffffffffff811115610f7b57610f7a610d61565b5b610f8784828501610e75565b6000830152506020610f9b84828501610ec4565b6020830152506040610faf84828501610efa565b6040830152506060610fc384828501610f26565b6060830152506080610fd784828501610f26565b60808301525060a0610feb84828501610f26565b60a08301525092915050565b6000806040838503121561100e5761100d610cc6565b5b600083013567ffffffffffffffff81111561102c5761102b610ccb565b5b61103885828601610f3b565b925050602061104985828601610ec4565b9150509250929050565b61105c81610dbc565b82525050565b60006020820190506110776000830184611053565b92915050565b60008060006060848603121561109657611095610cc6565b5b60006110a486828701610f26565b935050602084013567ffffffffffffffff8111156110c5576110c4610ccb565b5b6110d186828701610f3b565b92505060406110e286828701610ec4565b9150509250925092565b7f4e487b7100000000000000000000000000000000000000000000000000000000600052603260045260246000fd5b61112481610ea3565b82525050565b600060608201905061113f6000830186611053565b61114c6020830185611053565b611159604083018461111b565b949350505050565b6000819050919050565b600060ff82169050919050565b6000819050919050565b600061119d61119861119384611161565b611178565b61116b565b9050919050565b6111ad81611182565b82525050565b600081519050919050565b600082825260208201905092915050565b6000819050602082019050919050565b6111e881610ea3565b82525050565b60006111fa83836111df565b60208301905092915050565b6000602082019050919050565b600061121e826111b3565b61122881856111be565b9350611233836111cf565b8060005b8381101561126457815161124b88826111ee565b975061125683611206565b925050600181019050611237565b5085935050505092915050565b600060608201905061128660008301866111a4565b81810360208301526112988185611213565b90506112a7604083018461111b565b949350505050565b6112b881610ed9565b82525050565b60006112c982610d9c565b9050919050565b6112d9816112be565b82525050565b600081519050919050565b600082825260208201905092915050565b6000819050602082019050919050565b600061132661132161131c84610d9c565b611178565b610d9c565b9050919050565b60006113388261130b565b9050919050565b600061134a8261132d565b9050919050565b61135a8161133f565b82525050565b600061136c8383611351565b60208301905092915050565b6000602082019050919050565b6000611390826112df565b61139a81856112ea565b93506113a5836112fb565b8060005b838110156113d65781516113bd8882611360565b97506113c883611378565b9250506001810190506113a9565b5085935050505092915050565b600082825260208201905092915050565b60006113ff826111b3565b61140981856113e3565b9350611414836111cf565b8060005b8381101561144557815161142c88826111ee565b975061143783611206565b925050600181019050611418565b5085935050505092915050565b600081519050919050565b600082825260208201905092915050565b60005b8381101561148c578082015181840152602081019050611471565b8381111561149b576000848401525b50505050565b60006114ac82611452565b6114b6818561145d565b93506114c681856020860161146e565b6114cf81610cd5565b840191505092915050565b60008115159050919050565b6114ef816114da565b82525050565b600060808301600083015184820360008601526115128282611385565b9150506020830151848203602086015261152c82826113f4565b9150506040830151848203604086015261154682826114a1565b915050606083015161155b60608601826114e6565b508091505092915050565b600060808201905061157b60008301876112af565b6115886020830186611053565b61159560408301856112d0565b81810360608301526115a781846114f5565b905095945050505050565b6115bb8161116b565b82525050565b60006060820190506115d660008301866115b2565b81810360208301526115e88185611213565b90506115f7604083018461111b565b949350505050565b6000608083016000830151848203600086015261161c8282611385565b9150506020830151848203602086015261163682826113f4565b9150506040830151848203604086015261165082826114a1565b915050606083015161166560608601826114e6565b508091505092915050565b600060808201905061168560008301876112af565b6116926020830186611053565b61169f6040830185611053565b81810360608301526116b181846115ff565b905095945050505050565b6000815190506116cb81610ead565b92915050565b6000602082840312156116e7576116e6610cc6565b5b60006116f5848285016116bc565b91505092915050565b611707816114da565b811461171257600080fd5b50565b600081519050611724816116fe565b92915050565b6000602082840312156117405761173f610cc6565b5b600061174e84828501611715565b91505092915050565b600082825260208201905092915050565b7f5361666545524332303a204552433230206f7065726174696f6e20646964206e60008201527f6f74207375636365656400000000000000000000000000000000000000000000602082015250565b60006117c4602a83611757565b91506117cf82611768565b604082019050919050565b600060208201905081810360008301526117f3816117b7565b9050919050565b600060408201905061180f6000830185611053565b61181c6020830184611053565b9392505050565b7f4e487b7100000000000000000000000000000000000000000000000000000000600052601160045260246000fd5b600061185d82610ea3565b915061186883610ea3565b9250827fffffffffffffffffffffffffffffffffffffffffffffffffffffffffffffffff0382111561189d5761189c611823565b5b828201905092915050565b60006040820190506118bd6000830185611053565b6118ca602083018461111b565b9392505050565b7f416464726573733a20696e73756666696369656e742062616c616e636520666f60008201527f722063616c6c0000000000000000000000000000000000000000000000000000602082015250565b600061192d602683611757565b9150611938826118d1565b604082019050919050565b6000602082019050818103600083015261195c81611920565b9050919050565b7f416464726573733a2063616c6c20746f206e6f6e2d636f6e7472616374000000600082015250565b6000611999601d83611757565b91506119a482611963565b602082019050919050565b600060208201905081810360008301526119c88161198c565b9050919050565b600081905092915050565b60006119e582611452565b6119ef81856119cf565b93506119ff81856020860161146e565b80840191505092915050565b6000611a1782846119da565b915081905092915050565b600081519050919050565b6000611a3882611a22565b611a428185611757565b9350611a5281856020860161146e565b611a5b81610cd5565b840191505092915050565b60006020820190508181036000830152611a808184611a2d565b90509291505056fea26469706673582212204a84b23eb5c3b925ef107490915a93d32f6b7de56f7a8dedb6fbb2f33286a0aa64736f6c634300080d0033",
					"opcodes": "PUSH1 0xA0 PUSH1 0x40 MSTORE CALLVALUE DUP1 ISZERO PUSH3 0x11 JUMPI PUSH1 0x0 DUP1 REVERT JUMPDEST POP PUSH1 0x40 MLOAD PUSH3 0x1BFD CODESIZE SUB DUP1 PUSH3 0x1BFD DUP4 CODECOPY DUP2 DUP2 ADD PUSH1 0x40 MSTORE DUP2 ADD SWAP1 PUSH3 0x37 SWAP2 SWAP1 PUSH3 0xDC JUMP JUMPDEST DUP1 PUSH20 0xFFFFFFFFFFFFFFFFFFFFFFFFFFFFFFFFFFFFFFFF AND PUSH1 0x80 DUP2 PUSH20 0xFFFFFFFFFFFFFFFFFFFFFFFFFFFFFFFFFFFFFFFF AND DUP2 MSTORE POP POP POP PUSH3 0x10E JUMP JUMPDEST PUSH1 0x0 DUP1 REVERT JUMPDEST PUSH1 0x0 PUSH20 0xFFFFFFFFFFFFFFFFFFFFFFFFFFFFFFFFFFFFFFFF DUP3 AND SWAP1 POP SWAP2 SWAP1 POP JUMP JUMPDEST PUSH1 0x0 PUSH3 0xA4 DUP3 PUSH3 0x77 JUMP JUMPDEST SWAP1 POP SWAP2 SWAP1 POP JUMP JUMPDEST PUSH3 0xB6 DUP2 PUSH3 0x97 JUMP JUMPDEST DUP2 EQ PUSH3 0xC2 JUMPI PUSH1 0x0 DUP1 REVERT JUMPDEST POP JUMP JUMPDEST PUSH1 0x0 DUP2 MLOAD SWAP1 POP PUSH3 0xD6 DUP2 PUSH3 0xAB JUMP JUMPDEST SWAP3 SWAP2 POP POP JUMP JUMPDEST PUSH1 0x0 PUSH1 0x20 DUP3 DUP5 SUB SLT ISZERO PUSH3 0xF5 JUMPI PUSH3 0xF4 PUSH3 0x72 JUMP JUMPDEST JUMPDEST PUSH1 0x0 PUSH3 0x105 DUP5 DUP3 DUP6 ADD PUSH3 0xC5 JUMP JUMPDEST SWAP2 POP POP SWAP3 SWAP2 POP POP JUMP JUMPDEST PUSH1 0x80 MLOAD PUSH2 0x1ABE PUSH3 0x13F PUSH1 0x0 CODECOPY PUSH1 0x0 DUP2 DUP2 PUSH2 0x17C ADD MSTORE DUP2 DUP2 PUSH2 0x3F1 ADD MSTORE DUP2 DUP2 PUSH2 0x565 ADD MSTORE PUSH2 0x5C7 ADD MSTORE PUSH2 0x1ABE PUSH1 0x0 RETURN INVALID PUSH1 0x80 PUSH1 0x40 MSTORE CALLVALUE DUP1 ISZERO PUSH2 0x10 JUMPI PUSH1 0x0 DUP1 REVERT JUMPDEST POP PUSH1 0x4 CALLDATASIZE LT PUSH2 0x4C JUMPI PUSH1 0x0 CALLDATALOAD PUSH1 0xE0 SHR DUP1 PUSH4 0xE6335E6 EQ PUSH2 0x51 JUMPI DUP1 PUSH4 0x77ABA213 EQ PUSH2 0x6D JUMPI DUP1 PUSH4 0x9CBCF4C7 EQ PUSH2 0x8B JUMPI DUP1 PUSH4 0xBFBD3808 EQ PUSH2 0xA7 JUMPI JUMPDEST PUSH1 0x0 DUP1 REVERT JUMPDEST PUSH2 0x6B PUSH1 0x4 DUP1 CALLDATASIZE SUB DUP2 ADD SWAP1 PUSH2 0x66 SWAP2 SWAP1 PUSH2 0xFF7 JUMP JUMPDEST PUSH2 0xC3 JUMP JUMPDEST STOP JUMPDEST PUSH2 0x75 PUSH2 0x17A JUMP JUMPDEST PUSH1 0x40 MLOAD PUSH2 0x82 SWAP2 SWAP1 PUSH2 0x1062 JUMP JUMPDEST PUSH1 0x40 MLOAD DUP1 SWAP2 SUB SWAP1 RETURN JUMPDEST PUSH2 0xA5 PUSH1 0x4 DUP1 CALLDATASIZE SUB DUP2 ADD SWAP1 PUSH2 0xA0 SWAP2 SWAP1 PUSH2 0x107D JUMP JUMPDEST PUSH2 0x19E JUMP JUMPDEST STOP JUMPDEST PUSH2 0xC1 PUSH1 0x4 DUP1 CALLDATASIZE SUB DUP2 ADD SWAP1 PUSH2 0xBC SWAP2 SWAP1 PUSH2 0xFF7 JUMP JUMPDEST PUSH2 0x20E JUMP JUMPDEST STOP JUMPDEST PUSH1 0x0 DUP3 PUSH1 0x80 ADD MLOAD SWAP1 POP PUSH2 0xF9 CALLER ADDRESS DUP5 DUP5 PUSH20 0xFFFFFFFFFFFFFFFFFFFFFFFFFFFFFFFFFFFFFFFF AND PUSH2 0x296 SWAP1 SWAP4 SWAP3 SWAP2 SWAP1 PUSH4 0xFFFFFFFF AND JUMP JUMPDEST DUP3 PUSH1 0x80 ADD MLOAD PUSH20 0xFFFFFFFFFFFFFFFFFFFFFFFFFFFFFFFFFFFFFFFF AND PUSH4 0x853828B6 PUSH1 0x40 MLOAD DUP2 PUSH4 0xFFFFFFFF AND PUSH1 0xE0 SHL DUP2 MSTORE PUSH1 0x4 ADD PUSH1 0x0 PUSH1 0x40 MLOAD DUP1 DUP4 SUB DUP2 PUSH1 0x0 DUP8 DUP1 EXTCODESIZE ISZERO DUP1 ISZERO PUSH2 0x145 JUMPI PUSH1 0x0 DUP1 REVERT JUMPDEST POP GAS CALL ISZERO DUP1 ISZERO PUSH2 0x159 JUMPI RETURNDATASIZE PUSH1 0x0 DUP1 RETURNDATACOPY RETURNDATASIZE PUSH1 0x0 REVERT JUMPDEST POP POP POP POP PUSH2 0x175 DUP4 PUSH1 0x0 ADD MLOAD DUP4 DUP6 PUSH1 0x20 ADD MLOAD DUP7 PUSH1 0x40 ADD MLOAD PUSH2 0x31F JUMP JUMPDEST POP POP POP JUMP JUMPDEST PUSH32 0x0 DUP2 JUMP JUMPDEST PUSH1 0x0 DUP3 PUSH1 0x0 ADD MLOAD DUP4 PUSH1 0x20 ADD MLOAD DUP2 MLOAD DUP2 LT PUSH2 0x1BB JUMPI PUSH2 0x1BA PUSH2 0x10EC JUMP JUMPDEST JUMPDEST PUSH1 0x20 MUL PUSH1 0x20 ADD ADD MLOAD SWAP1 POP DUP1 PUSH20 0xFFFFFFFFFFFFFFFFFFFFFFFFFFFFFFFFFFFFFFFF AND DUP5 PUSH20 0xFFFFFFFFFFFFFFFFFFFFFFFFFFFFFFFFFFFFFFFF AND SUB PUSH2 0x207 JUMPI PUSH2 0x202 DUP4 DUP4 PUSH2 0x20E JUMP JUMPDEST PUSH2 0x208 JUMP JUMPDEST JUMPDEST POP POP POP POP JUMP JUMPDEST PUSH1 0x0 DUP3 PUSH1 0x0 ADD MLOAD DUP4 PUSH1 0x20 ADD MLOAD DUP2 MLOAD DUP2 LT PUSH2 0x22B JUMPI PUSH2 0x22A PUSH2 0x10EC JUMP JUMPDEST JUMPDEST PUSH1 0x20 MUL PUSH1 0x20 ADD ADD MLOAD SWAP1 POP PUSH2 0x262 CALLER ADDRESS DUP5 DUP5 PUSH20 0xFFFFFFFFFFFFFFFFFFFFFFFFFFFFFFFFFFFFFFFF AND PUSH2 0x296 SWAP1 SWAP4 SWAP3 SWAP2 SWAP1 PUSH4 0xFFFFFFFF AND JUMP JUMPDEST PUSH2 0x27A DUP4 PUSH1 0x0 ADD MLOAD DUP4 DUP6 PUSH1 0x20 ADD MLOAD DUP7 PUSH1 0x40 ADD MLOAD PUSH2 0x48A JUMP JUMPDEST PUSH2 0x291 DUP4 PUSH1 0x60 ADD MLOAD DUP5 PUSH1 0x80 ADD MLOAD DUP6 PUSH1 0xA0 ADD MLOAD PUSH2 0x661 JUMP JUMPDEST POP POP POP JUMP JUMPDEST PUSH2 0x319 DUP5 PUSH4 0x23B872DD PUSH1 0xE0 SHL DUP6 DUP6 DUP6 PUSH1 0x40 MLOAD PUSH1 0x24 ADD PUSH2 0x2B7 SWAP4 SWAP3 SWAP2 SWAP1 PUSH2 0x112A JUMP JUMPDEST PUSH1 0x40 MLOAD PUSH1 0x20 DUP2 DUP4 SUB SUB DUP2 MSTORE SWAP1 PUSH1 0x40 MSTORE SWAP1 PUSH28 0xFFFFFFFFFFFFFFFFFFFFFFFFFFFFFFFFFFFFFFFFFFFFFFFFFFFFFFFF NOT AND PUSH1 0x20 DUP3 ADD DUP1 MLOAD PUSH28 0xFFFFFFFFFFFFFFFFFFFFFFFFFFFFFFFFFFFFFFFFFFFFFFFFFFFFFFFF DUP4 DUP2 DUP4 AND OR DUP4 MSTORE POP POP POP POP PUSH2 0x77A JUMP JUMPDEST POP POP POP POP JUMP JUMPDEST PUSH1 0x0 DUP5 MLOAD PUSH8 0xFFFFFFFFFFFFFFFF DUP2 GT ISZERO PUSH2 0x33C JUMPI PUSH2 0x33B PUSH2 0xCE6 JUMP JUMPDEST JUMPDEST PUSH1 0x40 MLOAD SWAP1 DUP1 DUP3 MSTORE DUP1 PUSH1 0x20 MUL PUSH1 0x20 ADD DUP3 ADD PUSH1 0x40 MSTORE DUP1 ISZERO PUSH2 0x36A JUMPI DUP2 PUSH1 0x20 ADD PUSH1 0x20 DUP3 MUL DUP1 CALLDATASIZE DUP4 CALLDATACOPY DUP1 DUP3 ADD SWAP2 POP POP SWAP1 POP JUMPDEST POP SWAP1 POP DUP4 DUP2 DUP5 DUP2 MLOAD DUP2 LT PUSH2 0x381 JUMPI PUSH2 0x380 PUSH2 0x10EC JUMP JUMPDEST JUMPDEST PUSH1 0x20 MUL PUSH1 0x20 ADD ADD DUP2 DUP2 MSTORE POP POP PUSH1 0x0 PUSH1 0x1 SWAP1 POP PUSH1 0x0 DUP1 DUP4 DUP4 PUSH1 0x40 MLOAD PUSH1 0x20 ADD PUSH2 0x3AA SWAP4 SWAP3 SWAP2 SWAP1 PUSH2 0x1271 JUMP JUMPDEST PUSH1 0x40 MLOAD PUSH1 0x20 DUP2 DUP4 SUB SUB DUP2 MSTORE SWAP1 PUSH1 0x40 MSTORE SWAP1 POP PUSH2 0x3C3 PUSH2 0xC68 JUMP JUMPDEST DUP8 DUP2 PUSH1 0x0 ADD DUP2 SWAP1 MSTORE POP DUP4 DUP2 PUSH1 0x20 ADD DUP2 SWAP1 MSTORE POP DUP2 DUP2 PUSH1 0x40 ADD DUP2 SWAP1 MSTORE POP PUSH1 0x0 DUP2 PUSH1 0x60 ADD SWAP1 ISZERO ISZERO SWAP1 DUP2 ISZERO ISZERO DUP2 MSTORE POP POP PUSH32 0x0 PUSH20 0xFFFFFFFFFFFFFFFFFFFFFFFFFFFFFFFFFFFFFFFF AND PUSH4 0x8BDB3913 DUP7 ADDRESS CALLER DUP6 PUSH1 0x40 MLOAD DUP6 PUSH4 0xFFFFFFFF AND PUSH1 0xE0 SHL DUP2 MSTORE PUSH1 0x4 ADD PUSH2 0x44E SWAP5 SWAP4 SWAP3 SWAP2 SWAP1 PUSH2 0x1566 JUMP JUMPDEST PUSH1 0x0 PUSH1 0x40 MLOAD DUP1 DUP4 SUB DUP2 PUSH1 0x0 DUP8 DUP1 EXTCODESIZE ISZERO DUP1 ISZERO PUSH2 0x468 JUMPI PUSH1 0x0 DUP1 REVERT JUMPDEST POP GAS CALL ISZERO DUP1 ISZERO PUSH2 0x47C JUMPI RETURNDATASIZE PUSH1 0x0 DUP1 RETURNDATACOPY RETURNDATASIZE PUSH1 0x0 REVERT JUMPDEST POP POP POP POP POP POP POP POP POP POP POP POP JUMP JUMPDEST PUSH1 0x0 PUSH1 0x1 SWAP1 POP PUSH1 0x0 DUP6 MLOAD PUSH8 0xFFFFFFFFFFFFFFFF DUP2 GT ISZERO PUSH2 0x4AD JUMPI PUSH2 0x4AC PUSH2 0xCE6 JUMP JUMPDEST JUMPDEST PUSH1 0x40 MLOAD SWAP1 DUP1 DUP3 MSTORE DUP1 PUSH1 0x20 MUL PUSH1 0x20 ADD DUP3 ADD PUSH1 0x40 MSTORE DUP1 ISZERO PUSH2 0x4DB JUMPI DUP2 PUSH1 0x20 ADD PUSH1 0x20 DUP3 MUL DUP1 CALLDATASIZE DUP4 CALLDATACOPY DUP1 DUP3 ADD SWAP2 POP POP SWAP1 POP JUMPDEST POP SWAP1 POP DUP5 DUP2 DUP6 DUP2 MLOAD DUP2 LT PUSH2 0x4F2 JUMPI PUSH2 0x4F1 PUSH2 0x10EC JUMP JUMPDEST JUMPDEST PUSH1 0x20 MUL PUSH1 0x20 ADD ADD DUP2 DUP2 MSTORE POP POP PUSH1 0x0 PUSH1 0x1 SWAP1 POP PUSH1 0x0 DUP4 DUP4 DUP4 PUSH1 0x40 MLOAD PUSH1 0x20 ADD PUSH2 0x51B SWAP4 SWAP3 SWAP2 SWAP1 PUSH2 0x15C1 JUMP JUMPDEST PUSH1 0x40 MLOAD PUSH1 0x20 DUP2 DUP4 SUB SUB DUP2 MSTORE SWAP1 PUSH1 0x40 MSTORE SWAP1 POP PUSH2 0x534 PUSH2 0xC92 JUMP JUMPDEST DUP9 DUP2 PUSH1 0x0 ADD DUP2 SWAP1 MSTORE POP DUP4 DUP2 PUSH1 0x20 ADD DUP2 SWAP1 MSTORE POP DUP2 DUP2 PUSH1 0x40 ADD DUP2 SWAP1 MSTORE POP PUSH1 0x0 DUP2 PUSH1 0x60 ADD SWAP1 ISZERO ISZERO SWAP1 DUP2 ISZERO ISZERO DUP2 MSTORE POP POP PUSH2 0x5C5 PUSH32 0x0 DUP10 DUP12 DUP11 DUP2 MLOAD DUP2 LT PUSH2 0x598 JUMPI PUSH2 0x597 PUSH2 0x10EC JUMP JUMPDEST JUMPDEST PUSH1 0x20 MUL PUSH1 0x20 ADD ADD MLOAD PUSH20 0xFFFFFFFFFFFFFFFFFFFFFFFFFFFFFFFFFFFFFFFF AND PUSH2 0x841 SWAP1 SWAP3 SWAP2 SWAP1 PUSH4 0xFFFFFFFF AND JUMP JUMPDEST PUSH32 0x0 PUSH20 0xFFFFFFFFFFFFFFFFFFFFFFFFFFFFFFFFFFFFFFFF AND PUSH4 0xB95CAC28 DUP8 ADDRESS ADDRESS DUP6 PUSH1 0x40 MLOAD DUP6 PUSH4 0xFFFFFFFF AND PUSH1 0xE0 SHL DUP2 MSTORE PUSH1 0x4 ADD PUSH2 0x624 SWAP5 SWAP4 SWAP3 SWAP2 SWAP1 PUSH2 0x1670 JUMP JUMPDEST PUSH1 0x0 PUSH1 0x40 MLOAD DUP1 DUP4 SUB DUP2 PUSH1 0x0 DUP8 DUP1 EXTCODESIZE ISZERO DUP1 ISZERO PUSH2 0x63E JUMPI PUSH1 0x0 DUP1 REVERT JUMPDEST POP GAS CALL ISZERO DUP1 ISZERO PUSH2 0x652 JUMPI RETURNDATASIZE PUSH1 0x0 DUP1 RETURNDATACOPY RETURNDATASIZE PUSH1 0x0 REVERT JUMPDEST POP POP POP POP POP POP POP POP POP POP POP POP POP JUMP JUMPDEST PUSH2 0x66B DUP3 DUP5 PUSH2 0x953 JUMP JUMPDEST DUP2 PUSH20 0xFFFFFFFFFFFFFFFFFFFFFFFFFFFFFFFFFFFFFFFF AND PUSH4 0xDE5F6268 PUSH1 0x40 MLOAD DUP2 PUSH4 0xFFFFFFFF AND PUSH1 0xE0 SHL DUP2 MSTORE PUSH1 0x4 ADD PUSH1 0x0 PUSH1 0x40 MLOAD DUP1 DUP4 SUB DUP2 PUSH1 0x0 DUP8 DUP1 EXTCODESIZE ISZERO DUP1 ISZERO PUSH2 0x6B3 JUMPI PUSH1 0x0 DUP1 REVERT JUMPDEST POP GAS CALL ISZERO DUP1 ISZERO PUSH2 0x6C7 JUMPI RETURNDATASIZE PUSH1 0x0 DUP1 RETURNDATACOPY RETURNDATASIZE PUSH1 0x0 REVERT JUMPDEST POP POP POP POP PUSH1 0x0 DUP3 SWAP1 POP PUSH2 0x774 DUP3 DUP3 PUSH20 0xFFFFFFFFFFFFFFFFFFFFFFFFFFFFFFFFFFFFFFFF AND PUSH4 0x70A08231 ADDRESS PUSH1 0x40 MLOAD DUP3 PUSH4 0xFFFFFFFF AND PUSH1 0xE0 SHL DUP2 MSTORE PUSH1 0x4 ADD PUSH2 0x70D SWAP2 SWAP1 PUSH2 0x1062 JUMP JUMPDEST PUSH1 0x20 PUSH1 0x40 MLOAD DUP1 DUP4 SUB DUP2 DUP7 GAS STATICCALL ISZERO DUP1 ISZERO PUSH2 0x72A JUMPI RETURNDATASIZE PUSH1 0x0 DUP1 RETURNDATACOPY RETURNDATASIZE PUSH1 0x0 REVERT JUMPDEST POP POP POP POP PUSH1 0x40 MLOAD RETURNDATASIZE PUSH1 0x1F NOT PUSH1 0x1F DUP3 ADD AND DUP3 ADD DUP1 PUSH1 0x40 MSTORE POP DUP2 ADD SWAP1 PUSH2 0x74E SWAP2 SWAP1 PUSH2 0x16D1 JUMP JUMPDEST DUP4 PUSH20 0xFFFFFFFFFFFFFFFFFFFFFFFFFFFFFFFFFFFFFFFF AND PUSH2 0xA2C SWAP1 SWAP3 SWAP2 SWAP1 PUSH4 0xFFFFFFFF AND JUMP JUMPDEST POP POP POP POP JUMP JUMPDEST PUSH1 0x0 PUSH2 0x7DC DUP3 PUSH1 0x40 MLOAD DUP1 PUSH1 0x40 ADD PUSH1 0x40 MSTORE DUP1 PUSH1 0x20 DUP2 MSTORE PUSH1 0x20 ADD PUSH32 0x5361666545524332303A206C6F772D6C6576656C2063616C6C206661696C6564 DUP2 MSTORE POP DUP6 PUSH20 0xFFFFFFFFFFFFFFFFFFFFFFFFFFFFFFFFFFFFFFFF AND PUSH2 0xAB2 SWAP1 SWAP3 SWAP2 SWAP1 PUSH4 0xFFFFFFFF AND JUMP JUMPDEST SWAP1 POP PUSH1 0x0 DUP2 MLOAD GT ISZERO PUSH2 0x83C JUMPI DUP1 DUP1 PUSH1 0x20 ADD SWAP1 MLOAD DUP2 ADD SWAP1 PUSH2 0x7FC SWAP2 SWAP1 PUSH2 0x172A JUMP JUMPDEST PUSH2 0x83B JUMPI PUSH1 0x40 MLOAD PUSH32 0x8C379A000000000000000000000000000000000000000000000000000000000 DUP2 MSTORE PUSH1 0x4 ADD PUSH2 0x832 SWAP1 PUSH2 0x17DA JUMP JUMPDEST PUSH1 0x40 MLOAD DUP1 SWAP2 SUB SWAP1 REVERT JUMPDEST JUMPDEST POP POP POP JUMP JUMPDEST PUSH1 0x0 DUP2 DUP5 PUSH20 0xFFFFFFFFFFFFFFFFFFFFFFFFFFFFFFFFFFFFFFFF AND PUSH4 0xDD62ED3E ADDRESS DUP7 PUSH1 0x40 MLOAD DUP4 PUSH4 0xFFFFFFFF AND PUSH1 0xE0 SHL DUP2 MSTORE PUSH1 0x4 ADD PUSH2 0x87F SWAP3 SWAP2 SWAP1 PUSH2 0x17FA JUMP JUMPDEST PUSH1 0x20 PUSH1 0x40 MLOAD DUP1 DUP4 SUB DUP2 DUP7 GAS STATICCALL ISZERO DUP1 ISZERO PUSH2 0x89C JUMPI RETURNDATASIZE PUSH1 0x0 DUP1 RETURNDATACOPY RETURNDATASIZE PUSH1 0x0 REVERT JUMPDEST POP POP POP POP PUSH1 0x40 MLOAD RETURNDATASIZE PUSH1 0x1F NOT PUSH1 0x1F DUP3 ADD AND DUP3 ADD DUP1 PUSH1 0x40 MSTORE POP DUP2 ADD SWAP1 PUSH2 0x8C0 SWAP2 SWAP1 PUSH2 0x16D1 JUMP JUMPDEST PUSH2 0x8CA SWAP2 SWAP1 PUSH2 0x1852 JUMP JUMPDEST SWAP1 POP PUSH2 0x94D DUP5 PUSH4 0x95EA7B3 PUSH1 0xE0 SHL DUP6 DUP5 PUSH1 0x40 MLOAD PUSH1 0x24 ADD PUSH2 0x8EB SWAP3 SWAP2 SWAP1 PUSH2 0x18A8 JUMP JUMPDEST PUSH1 0x40 MLOAD PUSH1 0x20 DUP2 DUP4 SUB SUB DUP2 MSTORE SWAP1 PUSH1 0x40 MSTORE SWAP1 PUSH28 0xFFFFFFFFFFFFFFFFFFFFFFFFFFFFFFFFFFFFFFFFFFFFFFFFFFFFFFFF NOT AND PUSH1 0x20 DUP3 ADD DUP1 MLOAD PUSH28 0xFFFFFFFFFFFFFFFFFFFFFFFFFFFFFFFFFFFFFFFFFFFFFFFFFFFFFFFF DUP4 DUP2 DUP4 AND OR DUP4 MSTORE POP POP POP POP PUSH2 0x77A JUMP JUMPDEST POP POP POP POP JUMP JUMPDEST PUSH1 0x0 DUP2 SWAP1 POP PUSH1 0x0 DUP2 PUSH20 0xFFFFFFFFFFFFFFFFFFFFFFFFFFFFFFFFFFFFFFFF AND PUSH4 0xDD62ED3E ADDRESS DUP7 PUSH1 0x40 MLOAD DUP4 PUSH4 0xFFFFFFFF AND PUSH1 0xE0 SHL DUP2 MSTORE PUSH1 0x4 ADD PUSH2 0x995 SWAP3 SWAP2 SWAP1 PUSH2 0x17FA JUMP JUMPDEST PUSH1 0x20 PUSH1 0x40 MLOAD DUP1 DUP4 SUB DUP2 DUP7 GAS STATICCALL ISZERO DUP1 ISZERO PUSH2 0x9B2 JUMPI RETURNDATASIZE PUSH1 0x0 DUP1 RETURNDATACOPY RETURNDATASIZE PUSH1 0x0 REVERT JUMPDEST POP POP POP POP PUSH1 0x40 MLOAD RETURNDATASIZE PUSH1 0x1F NOT PUSH1 0x1F DUP3 ADD AND DUP3 ADD DUP1 PUSH1 0x40 MSTORE POP DUP2 ADD SWAP1 PUSH2 0x9D6 SWAP2 SWAP1 PUSH2 0x16D1 JUMP JUMPDEST SUB PUSH2 0xA27 JUMPI PUSH2 0xA26 DUP4 PUSH32 0xFFFFFFFFFFFFFFFFFFFFFFFFFFFFFFFFFFFFFFFFFFFFFFFFFFFFFFFFFFFFFFFF DUP4 PUSH20 0xFFFFFFFFFFFFFFFFFFFFFFFFFFFFFFFFFFFFFFFF AND PUSH2 0x841 SWAP1 SWAP3 SWAP2 SWAP1 PUSH4 0xFFFFFFFF AND JUMP JUMPDEST JUMPDEST POP POP POP JUMP JUMPDEST PUSH2 0xAAD DUP4 PUSH4 0xA9059CBB PUSH1 0xE0 SHL DUP5 DUP5 PUSH1 0x40 MLOAD PUSH1 0x24 ADD PUSH2 0xA4B SWAP3 SWAP2 SWAP1 PUSH2 0x18A8 JUMP JUMPDEST PUSH1 0x40 MLOAD PUSH1 0x20 DUP2 DUP4 SUB SUB DUP2 MSTORE SWAP1 PUSH1 0x40 MSTORE SWAP1 PUSH28 0xFFFFFFFFFFFFFFFFFFFFFFFFFFFFFFFFFFFFFFFFFFFFFFFFFFFFFFFF NOT AND PUSH1 0x20 DUP3 ADD DUP1 MLOAD PUSH28 0xFFFFFFFFFFFFFFFFFFFFFFFFFFFFFFFFFFFFFFFFFFFFFFFFFFFFFFFF DUP4 DUP2 DUP4 AND OR DUP4 MSTORE POP POP POP POP PUSH2 0x77A JUMP JUMPDEST POP POP POP JUMP JUMPDEST PUSH1 0x60 PUSH2 0xAC1 DUP5 DUP5 PUSH1 0x0 DUP6 PUSH2 0xACA JUMP JUMPDEST SWAP1 POP SWAP4 SWAP3 POP POP POP JUMP JUMPDEST PUSH1 0x60 DUP3 SELFBALANCE LT ISZERO PUSH2 0xB0F JUMPI PUSH1 0x40 MLOAD PUSH32 0x8C379A000000000000000000000000000000000000000000000000000000000 DUP2 MSTORE PUSH1 0x4 ADD PUSH2 0xB06 SWAP1 PUSH2 0x1943 JUMP JUMPDEST PUSH1 0x40 MLOAD DUP1 SWAP2 SUB SWAP1 REVERT JUMPDEST PUSH2 0xB18 DUP6 PUSH2 0xBDE JUMP JUMPDEST PUSH2 0xB57 JUMPI PUSH1 0x40 MLOAD PUSH32 0x8C379A000000000000000000000000000000000000000000000000000000000 DUP2 MSTORE PUSH1 0x4 ADD PUSH2 0xB4E SWAP1 PUSH2 0x19AF JUMP JUMPDEST PUSH1 0x40 MLOAD DUP1 SWAP2 SUB SWAP1 REVERT JUMPDEST PUSH1 0x0 DUP1 DUP7 PUSH20 0xFFFFFFFFFFFFFFFFFFFFFFFFFFFFFFFFFFFFFFFF AND DUP6 DUP8 PUSH1 0x40 MLOAD PUSH2 0xB80 SWAP2 SWAP1 PUSH2 0x1A0B JUMP JUMPDEST PUSH1 0x0 PUSH1 0x40 MLOAD DUP1 DUP4 SUB DUP2 DUP6 DUP8 GAS CALL SWAP3 POP POP POP RETURNDATASIZE DUP1 PUSH1 0x0 DUP2 EQ PUSH2 0xBBD JUMPI PUSH1 0x40 MLOAD SWAP2 POP PUSH1 0x1F NOT PUSH1 0x3F RETURNDATASIZE ADD AND DUP3 ADD PUSH1 0x40 MSTORE RETURNDATASIZE DUP3 MSTORE RETURNDATASIZE PUSH1 0x0 PUSH1 0x20 DUP5 ADD RETURNDATACOPY PUSH2 0xBC2 JUMP JUMPDEST PUSH1 0x60 SWAP2 POP JUMPDEST POP SWAP2 POP SWAP2 POP PUSH2 0xBD2 DUP3 DUP3 DUP7 PUSH2 0xC01 JUMP JUMPDEST SWAP3 POP POP POP SWAP5 SWAP4 POP POP POP POP JUMP JUMPDEST PUSH1 0x0 DUP1 DUP3 PUSH20 0xFFFFFFFFFFFFFFFFFFFFFFFFFFFFFFFFFFFFFFFF AND EXTCODESIZE GT SWAP1 POP SWAP2 SWAP1 POP JUMP JUMPDEST PUSH1 0x60 DUP4 ISZERO PUSH2 0xC11 JUMPI DUP3 SWAP1 POP PUSH2 0xC61 JUMP JUMPDEST PUSH1 0x0 DUP4 MLOAD GT ISZERO PUSH2 0xC24 JUMPI DUP3 MLOAD DUP1 DUP5 PUSH1 0x20 ADD REVERT JUMPDEST DUP2 PUSH1 0x40 MLOAD PUSH32 0x8C379A000000000000000000000000000000000000000000000000000000000 DUP2 MSTORE PUSH1 0x4 ADD PUSH2 0xC58 SWAP2 SWAP1 PUSH2 0x1A66 JUMP JUMPDEST PUSH1 0x40 MLOAD DUP1 SWAP2 SUB SWAP1 REVERT JUMPDEST SWAP4 SWAP3 POP POP POP JUMP JUMPDEST PUSH1 0x40 MLOAD DUP1 PUSH1 0x80 ADD PUSH1 0x40 MSTORE DUP1 PUSH1 0x60 DUP2 MSTORE PUSH1 0x20 ADD PUSH1 0x60 DUP2 MSTORE PUSH1 0x20 ADD PUSH1 0x60 DUP2 MSTORE PUSH1 0x20 ADD PUSH1 0x0 ISZERO ISZERO DUP2 MSTORE POP SWAP1 JUMP JUMPDEST PUSH1 0x40 MLOAD DUP1 PUSH1 0x80 ADD PUSH1 0x40 MSTORE DUP1 PUSH1 0x60 DUP2 MSTORE PUSH1 0x20 ADD PUSH1 0x60 DUP2 MSTORE PUSH1 0x20 ADD PUSH1 0x60 DUP2 MSTORE PUSH1 0x20 ADD PUSH1 0x0 ISZERO ISZERO DUP2 MSTORE POP SWAP1 JUMP JUMPDEST PUSH1 0x0 PUSH1 0x40 MLOAD SWAP1 POP SWAP1 JUMP JUMPDEST PUSH1 0x0 DUP1 REVERT JUMPDEST PUSH1 0x0 DUP1 REVERT JUMPDEST PUSH1 0x0 DUP1 REVERT JUMPDEST PUSH1 0x0 PUSH1 0x1F NOT PUSH1 0x1F DUP4 ADD AND SWAP1 POP SWAP2 SWAP1 POP JUMP JUMPDEST PUSH32 0x4E487B7100000000000000000000000000000000000000000000000000000000 PUSH1 0x0 MSTORE PUSH1 0x41 PUSH1 0x4 MSTORE PUSH1 0x24 PUSH1 0x0 REVERT JUMPDEST PUSH2 0xD1E DUP3 PUSH2 0xCD5 JUMP JUMPDEST DUP2 ADD DUP2 DUP2 LT PUSH8 0xFFFFFFFFFFFFFFFF DUP3 GT OR ISZERO PUSH2 0xD3D JUMPI PUSH2 0xD3C PUSH2 0xCE6 JUMP JUMPDEST JUMPDEST DUP1 PUSH1 0x40 MSTORE POP POP POP JUMP JUMPDEST PUSH1 0x0 PUSH2 0xD50 PUSH2 0xCBC JUMP JUMPDEST SWAP1 POP PUSH2 0xD5C DUP3 DUP3 PUSH2 0xD15 JUMP JUMPDEST SWAP2 SWAP1 POP JUMP JUMPDEST PUSH1 0x0 DUP1 REVERT JUMPDEST PUSH1 0x0 DUP1 REVERT JUMPDEST PUSH1 0x0 PUSH8 0xFFFFFFFFFFFFFFFF DUP3 GT ISZERO PUSH2 0xD86 JUMPI PUSH2 0xD85 PUSH2 0xCE6 JUMP JUMPDEST JUMPDEST PUSH1 0x20 DUP3 MUL SWAP1 POP PUSH1 0x20 DUP2 ADD SWAP1 POP SWAP2 SWAP1 POP JUMP JUMPDEST PUSH1 0x0 DUP1 REVERT JUMPDEST PUSH1 0x0 PUSH20 0xFFFFFFFFFFFFFFFFFFFFFFFFFFFFFFFFFFFFFFFF DUP3 AND SWAP1 POP SWAP2 SWAP1 POP JUMP JUMPDEST PUSH1 0x0 PUSH2 0xDC7 DUP3 PUSH2 0xD9C JUMP JUMPDEST SWAP1 POP SWAP2 SWAP1 POP JUMP JUMPDEST PUSH1 0x0 PUSH2 0xDD9 DUP3 PUSH2 0xDBC JUMP JUMPDEST SWAP1 POP SWAP2 SWAP1 POP JUMP JUMPDEST PUSH2 0xDE9 DUP2 PUSH2 0xDCE JUMP JUMPDEST DUP2 EQ PUSH2 0xDF4 JUMPI PUSH1 0x0 DUP1 REVERT JUMPDEST POP JUMP JUMPDEST PUSH1 0x0 DUP2 CALLDATALOAD SWAP1 POP PUSH2 0xE06 DUP2 PUSH2 0xDE0 JUMP JUMPDEST SWAP3 SWAP2 POP POP JUMP JUMPDEST PUSH1 0x0 PUSH2 0xE1F PUSH2 0xE1A DUP5 PUSH2 0xD6B JUMP JUMPDEST PUSH2 0xD46 JUMP JUMPDEST SWAP1 POP DUP1 DUP4 DUP3 MSTORE PUSH1 0x20 DUP3 ADD SWAP1 POP PUSH1 0x20 DUP5 MUL DUP4 ADD DUP6 DUP2 GT ISZERO PUSH2 0xE42 JUMPI PUSH2 0xE41 PUSH2 0xD97 JUMP JUMPDEST JUMPDEST DUP4 JUMPDEST DUP2 DUP2 LT ISZERO PUSH2 0xE6B JUMPI DUP1 PUSH2 0xE57 DUP9 DUP3 PUSH2 0xDF7 JUMP JUMPDEST DUP5 MSTORE PUSH1 0x20 DUP5 ADD SWAP4 POP POP PUSH1 0x20 DUP2 ADD SWAP1 POP PUSH2 0xE44 JUMP JUMPDEST POP POP POP SWAP4 SWAP3 POP POP POP JUMP JUMPDEST PUSH1 0x0 DUP3 PUSH1 0x1F DUP4 ADD SLT PUSH2 0xE8A JUMPI PUSH2 0xE89 PUSH2 0xD66 JUMP JUMPDEST JUMPDEST DUP2 CALLDATALOAD PUSH2 0xE9A DUP5 DUP3 PUSH1 0x20 DUP7 ADD PUSH2 0xE0C JUMP JUMPDEST SWAP2 POP POP SWAP3 SWAP2 POP POP JUMP JUMPDEST PUSH1 0x0 DUP2 SWAP1 POP SWAP2 SWAP1 POP JUMP JUMPDEST PUSH2 0xEB6 DUP2 PUSH2 0xEA3 JUMP JUMPDEST DUP2 EQ PUSH2 0xEC1 JUMPI PUSH1 0x0 DUP1 REVERT JUMPDEST POP JUMP JUMPDEST PUSH1 0x0 DUP2 CALLDATALOAD SWAP1 POP PUSH2 0xED3 DUP2 PUSH2 0xEAD JUMP JUMPDEST SWAP3 SWAP2 POP POP JUMP JUMPDEST PUSH1 0x0 DUP2 SWAP1 POP SWAP2 SWAP1 POP JUMP JUMPDEST PUSH2 0xEEC DUP2 PUSH2 0xED9 JUMP JUMPDEST DUP2 EQ PUSH2 0xEF7 JUMPI PUSH1 0x0 DUP1 REVERT JUMPDEST POP JUMP JUMPDEST PUSH1 0x0 DUP2 CALLDATALOAD SWAP1 POP PUSH2 0xF09 DUP2 PUSH2 0xEE3 JUMP JUMPDEST SWAP3 SWAP2 POP POP JUMP JUMPDEST PUSH2 0xF18 DUP2 PUSH2 0xDBC JUMP JUMPDEST DUP2 EQ PUSH2 0xF23 JUMPI PUSH1 0x0 DUP1 REVERT JUMPDEST POP JUMP JUMPDEST PUSH1 0x0 DUP2 CALLDATALOAD SWAP1 POP PUSH2 0xF35 DUP2 PUSH2 0xF0F JUMP JUMPDEST SWAP3 SWAP2 POP POP JUMP JUMPDEST PUSH1 0x0 PUSH1 0xC0 DUP3 DUP5 SUB SLT ISZERO PUSH2 0xF51 JUMPI PUSH2 0xF50 PUSH2 0xCD0 JUMP JUMPDEST JUMPDEST PUSH2 0xF5B PUSH1 0xC0 PUSH2 0xD46 JUMP JUMPDEST SWAP1 POP PUSH1 0x0 DUP3 ADD CALLDATALOAD PUSH8 0xFFFFFFFFFFFFFFFF DUP2 GT ISZERO PUSH2 0xF7B JUMPI PUSH2 0xF7A PUSH2 0xD61 JUMP JUMPDEST JUMPDEST PUSH2 0xF87 DUP5 DUP3 DUP6 ADD PUSH2 0xE75 JUMP JUMPDEST PUSH1 0x0 DUP4 ADD MSTORE POP PUSH1 0x20 PUSH2 0xF9B DUP5 DUP3 DUP6 ADD PUSH2 0xEC4 JUMP JUMPDEST PUSH1 0x20 DUP4 ADD MSTORE POP PUSH1 0x40 PUSH2 0xFAF DUP5 DUP3 DUP6 ADD PUSH2 0xEFA JUMP JUMPDEST PUSH1 0x40 DUP4 ADD MSTORE POP PUSH1 0x60 PUSH2 0xFC3 DUP5 DUP3 DUP6 ADD PUSH2 0xF26 JUMP JUMPDEST PUSH1 0x60 DUP4 ADD MSTORE POP PUSH1 0x80 PUSH2 0xFD7 DUP5 DUP3 DUP6 ADD PUSH2 0xF26 JUMP JUMPDEST PUSH1 0x80 DUP4 ADD MSTORE POP PUSH1 0xA0 PUSH2 0xFEB DUP5 DUP3 DUP6 ADD PUSH2 0xF26 JUMP JUMPDEST PUSH1 0xA0 DUP4 ADD MSTORE POP SWAP3 SWAP2 POP POP JUMP JUMPDEST PUSH1 0x0 DUP1 PUSH1 0x40 DUP4 DUP6 SUB SLT ISZERO PUSH2 0x100E JUMPI PUSH2 0x100D PUSH2 0xCC6 JUMP JUMPDEST JUMPDEST PUSH1 0x0 DUP4 ADD CALLDATALOAD PUSH8 0xFFFFFFFFFFFFFFFF DUP2 GT ISZERO PUSH2 0x102C JUMPI PUSH2 0x102B PUSH2 0xCCB JUMP JUMPDEST JUMPDEST PUSH2 0x1038 DUP6 DUP3 DUP7 ADD PUSH2 0xF3B JUMP JUMPDEST SWAP3 POP POP PUSH1 0x20 PUSH2 0x1049 DUP6 DUP3 DUP7 ADD PUSH2 0xEC4 JUMP JUMPDEST SWAP2 POP POP SWAP3 POP SWAP3 SWAP1 POP JUMP JUMPDEST PUSH2 0x105C DUP2 PUSH2 0xDBC JUMP JUMPDEST DUP3 MSTORE POP POP JUMP JUMPDEST PUSH1 0x0 PUSH1 0x20 DUP3 ADD SWAP1 POP PUSH2 0x1077 PUSH1 0x0 DUP4 ADD DUP5 PUSH2 0x1053 JUMP JUMPDEST SWAP3 SWAP2 POP POP JUMP JUMPDEST PUSH1 0x0 DUP1 PUSH1 0x0 PUSH1 0x60 DUP5 DUP7 SUB SLT ISZERO PUSH2 0x1096 JUMPI PUSH2 0x1095 PUSH2 0xCC6 JUMP JUMPDEST JUMPDEST PUSH1 0x0 PUSH2 0x10A4 DUP7 DUP3 DUP8 ADD PUSH2 0xF26 JUMP JUMPDEST SWAP4 POP POP PUSH1 0x20 DUP5 ADD CALLDATALOAD PUSH8 0xFFFFFFFFFFFFFFFF DUP2 GT ISZERO PUSH2 0x10C5 JUMPI PUSH2 0x10C4 PUSH2 0xCCB JUMP JUMPDEST JUMPDEST PUSH2 0x10D1 DUP7 DUP3 DUP8 ADD PUSH2 0xF3B JUMP JUMPDEST SWAP3 POP POP PUSH1 0x40 PUSH2 0x10E2 DUP7 DUP3 DUP8 ADD PUSH2 0xEC4 JUMP JUMPDEST SWAP2 POP POP SWAP3 POP SWAP3 POP SWAP3 JUMP JUMPDEST PUSH32 0x4E487B7100000000000000000000000000000000000000000000000000000000 PUSH1 0x0 MSTORE PUSH1 0x32 PUSH1 0x4 MSTORE PUSH1 0x24 PUSH1 0x0 REVERT JUMPDEST PUSH2 0x1124 DUP2 PUSH2 0xEA3 JUMP JUMPDEST DUP3 MSTORE POP POP JUMP JUMPDEST PUSH1 0x0 PUSH1 0x60 DUP3 ADD SWAP1 POP PUSH2 0x113F PUSH1 0x0 DUP4 ADD DUP7 PUSH2 0x1053 JUMP JUMPDEST PUSH2 0x114C PUSH1 0x20 DUP4 ADD DUP6 PUSH2 0x1053 JUMP JUMPDEST PUSH2 0x1159 PUSH1 0x40 DUP4 ADD DUP5 PUSH2 0x111B JUMP JUMPDEST SWAP5 SWAP4 POP POP POP POP JUMP JUMPDEST PUSH1 0x0 DUP2 SWAP1 POP SWAP2 SWAP1 POP JUMP JUMPDEST PUSH1 0x0 PUSH1 0xFF DUP3 AND SWAP1 POP SWAP2 SWAP1 POP JUMP JUMPDEST PUSH1 0x0 DUP2 SWAP1 POP SWAP2 SWAP1 POP JUMP JUMPDEST PUSH1 0x0 PUSH2 0x119D PUSH2 0x1198 PUSH2 0x1193 DUP5 PUSH2 0x1161 JUMP JUMPDEST PUSH2 0x1178 JUMP JUMPDEST PUSH2 0x116B JUMP JUMPDEST SWAP1 POP SWAP2 SWAP1 POP JUMP JUMPDEST PUSH2 0x11AD DUP2 PUSH2 0x1182 JUMP JUMPDEST DUP3 MSTORE POP POP JUMP JUMPDEST PUSH1 0x0 DUP2 MLOAD SWAP1 POP SWAP2 SWAP1 POP JUMP JUMPDEST PUSH1 0x0 DUP3 DUP3 MSTORE PUSH1 0x20 DUP3 ADD SWAP1 POP SWAP3 SWAP2 POP POP JUMP JUMPDEST PUSH1 0x0 DUP2 SWAP1 POP PUSH1 0x20 DUP3 ADD SWAP1 POP SWAP2 SWAP1 POP JUMP JUMPDEST PUSH2 0x11E8 DUP2 PUSH2 0xEA3 JUMP JUMPDEST DUP3 MSTORE POP POP JUMP JUMPDEST PUSH1 0x0 PUSH2 0x11FA DUP4 DUP4 PUSH2 0x11DF JUMP JUMPDEST PUSH1 0x20 DUP4 ADD SWAP1 POP SWAP3 SWAP2 POP POP JUMP JUMPDEST PUSH1 0x0 PUSH1 0x20 DUP3 ADD SWAP1 POP SWAP2 SWAP1 POP JUMP JUMPDEST PUSH1 0x0 PUSH2 0x121E DUP3 PUSH2 0x11B3 JUMP JUMPDEST PUSH2 0x1228 DUP2 DUP6 PUSH2 0x11BE JUMP JUMPDEST SWAP4 POP PUSH2 0x1233 DUP4 PUSH2 0x11CF JUMP JUMPDEST DUP1 PUSH1 0x0 JUMPDEST DUP4 DUP2 LT ISZERO PUSH2 0x1264 JUMPI DUP2 MLOAD PUSH2 0x124B DUP9 DUP3 PUSH2 0x11EE JUMP JUMPDEST SWAP8 POP PUSH2 0x1256 DUP4 PUSH2 0x1206 JUMP JUMPDEST SWAP3 POP POP PUSH1 0x1 DUP2 ADD SWAP1 POP PUSH2 0x1237 JUMP JUMPDEST POP DUP6 SWAP4 POP POP POP POP SWAP3 SWAP2 POP POP JUMP JUMPDEST PUSH1 0x0 PUSH1 0x60 DUP3 ADD SWAP1 POP PUSH2 0x1286 PUSH1 0x0 DUP4 ADD DUP7 PUSH2 0x11A4 JUMP JUMPDEST DUP2 DUP2 SUB PUSH1 0x20 DUP4 ADD MSTORE PUSH2 0x1298 DUP2 DUP6 PUSH2 0x1213 JUMP JUMPDEST SWAP1 POP PUSH2 0x12A7 PUSH1 0x40 DUP4 ADD DUP5 PUSH2 0x111B JUMP JUMPDEST SWAP5 SWAP4 POP POP POP POP JUMP JUMPDEST PUSH2 0x12B8 DUP2 PUSH2 0xED9 JUMP JUMPDEST DUP3 MSTORE POP POP JUMP JUMPDEST PUSH1 0x0 PUSH2 0x12C9 DUP3 PUSH2 0xD9C JUMP JUMPDEST SWAP1 POP SWAP2 SWAP1 POP JUMP JUMPDEST PUSH2 0x12D9 DUP2 PUSH2 0x12BE JUMP JUMPDEST DUP3 MSTORE POP POP JUMP JUMPDEST PUSH1 0x0 DUP2 MLOAD SWAP1 POP SWAP2 SWAP1 POP JUMP JUMPDEST PUSH1 0x0 DUP3 DUP3 MSTORE PUSH1 0x20 DUP3 ADD SWAP1 POP SWAP3 SWAP2 POP POP JUMP JUMPDEST PUSH1 0x0 DUP2 SWAP1 POP PUSH1 0x20 DUP3 ADD SWAP1 POP SWAP2 SWAP1 POP JUMP JUMPDEST PUSH1 0x0 PUSH2 0x1326 PUSH2 0x1321 PUSH2 0x131C DUP5 PUSH2 0xD9C JUMP JUMPDEST PUSH2 0x1178 JUMP JUMPDEST PUSH2 0xD9C JUMP JUMPDEST SWAP1 POP SWAP2 SWAP1 POP JUMP JUMPDEST PUSH1 0x0 PUSH2 0x1338 DUP3 PUSH2 0x130B JUMP JUMPDEST SWAP1 POP SWAP2 SWAP1 POP JUMP JUMPDEST PUSH1 0x0 PUSH2 0x134A DUP3 PUSH2 0x132D JUMP JUMPDEST SWAP1 POP SWAP2 SWAP1 POP JUMP JUMPDEST PUSH2 0x135A DUP2 PUSH2 0x133F JUMP JUMPDEST DUP3 MSTORE POP POP JUMP JUMPDEST PUSH1 0x0 PUSH2 0x136C DUP4 DUP4 PUSH2 0x1351 JUMP JUMPDEST PUSH1 0x20 DUP4 ADD SWAP1 POP SWAP3 SWAP2 POP POP JUMP JUMPDEST PUSH1 0x0 PUSH1 0x20 DUP3 ADD SWAP1 POP SWAP2 SWAP1 POP JUMP JUMPDEST PUSH1 0x0 PUSH2 0x1390 DUP3 PUSH2 0x12DF JUMP JUMPDEST PUSH2 0x139A DUP2 DUP6 PUSH2 0x12EA JUMP JUMPDEST SWAP4 POP PUSH2 0x13A5 DUP4 PUSH2 0x12FB JUMP JUMPDEST DUP1 PUSH1 0x0 JUMPDEST DUP4 DUP2 LT ISZERO PUSH2 0x13D6 JUMPI DUP2 MLOAD PUSH2 0x13BD DUP9 DUP3 PUSH2 0x1360 JUMP JUMPDEST SWAP8 POP PUSH2 0x13C8 DUP4 PUSH2 0x1378 JUMP JUMPDEST SWAP3 POP POP PUSH1 0x1 DUP2 ADD SWAP1 POP PUSH2 0x13A9 JUMP JUMPDEST POP DUP6 SWAP4 POP POP POP POP SWAP3 SWAP2 POP POP JUMP JUMPDEST PUSH1 0x0 DUP3 DUP3 MSTORE PUSH1 0x20 DUP3 ADD SWAP1 POP SWAP3 SWAP2 POP POP JUMP JUMPDEST PUSH1 0x0 PUSH2 0x13FF DUP3 PUSH2 0x11B3 JUMP JUMPDEST PUSH2 0x1409 DUP2 DUP6 PUSH2 0x13E3 JUMP JUMPDEST SWAP4 POP PUSH2 0x1414 DUP4 PUSH2 0x11CF JUMP JUMPDEST DUP1 PUSH1 0x0 JUMPDEST DUP4 DUP2 LT ISZERO PUSH2 0x1445 JUMPI DUP2 MLOAD PUSH2 0x142C DUP9 DUP3 PUSH2 0x11EE JUMP JUMPDEST SWAP8 POP PUSH2 0x1437 DUP4 PUSH2 0x1206 JUMP JUMPDEST SWAP3 POP POP PUSH1 0x1 DUP2 ADD SWAP1 POP PUSH2 0x1418 JUMP JUMPDEST POP DUP6 SWAP4 POP POP POP POP SWAP3 SWAP2 POP POP JUMP JUMPDEST PUSH1 0x0 DUP2 MLOAD SWAP1 POP SWAP2 SWAP1 POP JUMP JUMPDEST PUSH1 0x0 DUP3 DUP3 MSTORE PUSH1 0x20 DUP3 ADD SWAP1 POP SWAP3 SWAP2 POP POP JUMP JUMPDEST PUSH1 0x0 JUMPDEST DUP4 DUP2 LT ISZERO PUSH2 0x148C JUMPI DUP1 DUP3 ADD MLOAD DUP2 DUP5 ADD MSTORE PUSH1 0x20 DUP2 ADD SWAP1 POP PUSH2 0x1471 JUMP JUMPDEST DUP4 DUP2 GT ISZERO PUSH2 0x149B JUMPI PUSH1 0x0 DUP5 DUP5 ADD MSTORE JUMPDEST POP POP POP POP JUMP JUMPDEST PUSH1 0x0 PUSH2 0x14AC DUP3 PUSH2 0x1452 JUMP JUMPDEST PUSH2 0x14B6 DUP2 DUP6 PUSH2 0x145D JUMP JUMPDEST SWAP4 POP PUSH2 0x14C6 DUP2 DUP6 PUSH1 0x20 DUP7 ADD PUSH2 0x146E JUMP JUMPDEST PUSH2 0x14CF DUP2 PUSH2 0xCD5 JUMP JUMPDEST DUP5 ADD SWAP2 POP POP SWAP3 SWAP2 POP POP JUMP JUMPDEST PUSH1 0x0 DUP2 ISZERO ISZERO SWAP1 POP SWAP2 SWAP1 POP JUMP JUMPDEST PUSH2 0x14EF DUP2 PUSH2 0x14DA JUMP JUMPDEST DUP3 MSTORE POP POP JUMP JUMPDEST PUSH1 0x0 PUSH1 0x80 DUP4 ADD PUSH1 0x0 DUP4 ADD MLOAD DUP5 DUP3 SUB PUSH1 0x0 DUP7 ADD MSTORE PUSH2 0x1512 DUP3 DUP3 PUSH2 0x1385 JUMP JUMPDEST SWAP2 POP POP PUSH1 0x20 DUP4 ADD MLOAD DUP5 DUP3 SUB PUSH1 0x20 DUP7 ADD MSTORE PUSH2 0x152C DUP3 DUP3 PUSH2 0x13F4 JUMP JUMPDEST SWAP2 POP POP PUSH1 0x40 DUP4 ADD MLOAD DUP5 DUP3 SUB PUSH1 0x40 DUP7 ADD MSTORE PUSH2 0x1546 DUP3 DUP3 PUSH2 0x14A1 JUMP JUMPDEST SWAP2 POP POP PUSH1 0x60 DUP4 ADD MLOAD PUSH2 0x155B PUSH1 0x60 DUP7 ADD DUP3 PUSH2 0x14E6 JUMP JUMPDEST POP DUP1 SWAP2 POP POP SWAP3 SWAP2 POP POP JUMP JUMPDEST PUSH1 0x0 PUSH1 0x80 DUP3 ADD SWAP1 POP PUSH2 0x157B PUSH1 0x0 DUP4 ADD DUP8 PUSH2 0x12AF JUMP JUMPDEST PUSH2 0x1588 PUSH1 0x20 DUP4 ADD DUP7 PUSH2 0x1053 JUMP JUMPDEST PUSH2 0x1595 PUSH1 0x40 DUP4 ADD DUP6 PUSH2 0x12D0 JUMP JUMPDEST DUP2 DUP2 SUB PUSH1 0x60 DUP4 ADD MSTORE PUSH2 0x15A7 DUP2 DUP5 PUSH2 0x14F5 JUMP JUMPDEST SWAP1 POP SWAP6 SWAP5 POP POP POP POP POP JUMP JUMPDEST PUSH2 0x15BB DUP2 PUSH2 0x116B JUMP JUMPDEST DUP3 MSTORE POP POP JUMP JUMPDEST PUSH1 0x0 PUSH1 0x60 DUP3 ADD SWAP1 POP PUSH2 0x15D6 PUSH1 0x0 DUP4 ADD DUP7 PUSH2 0x15B2 JUMP JUMPDEST DUP2 DUP2 SUB PUSH1 0x20 DUP4 ADD MSTORE PUSH2 0x15E8 DUP2 DUP6 PUSH2 0x1213 JUMP JUMPDEST SWAP1 POP PUSH2 0x15F7 PUSH1 0x40 DUP4 ADD DUP5 PUSH2 0x111B JUMP JUMPDEST SWAP5 SWAP4 POP POP POP POP JUMP JUMPDEST PUSH1 0x0 PUSH1 0x80 DUP4 ADD PUSH1 0x0 DUP4 ADD MLOAD DUP5 DUP3 SUB PUSH1 0x0 DUP7 ADD MSTORE PUSH2 0x161C DUP3 DUP3 PUSH2 0x1385 JUMP JUMPDEST SWAP2 POP POP PUSH1 0x20 DUP4 ADD MLOAD DUP5 DUP3 SUB PUSH1 0x20 DUP7 ADD MSTORE PUSH2 0x1636 DUP3 DUP3 PUSH2 0x13F4 JUMP JUMPDEST SWAP2 POP POP PUSH1 0x40 DUP4 ADD MLOAD DUP5 DUP3 SUB PUSH1 0x40 DUP7 ADD MSTORE PUSH2 0x1650 DUP3 DUP3 PUSH2 0x14A1 JUMP JUMPDEST SWAP2 POP POP PUSH1 0x60 DUP4 ADD MLOAD PUSH2 0x1665 PUSH1 0x60 DUP7 ADD DUP3 PUSH2 0x14E6 JUMP JUMPDEST POP DUP1 SWAP2 POP POP SWAP3 SWAP2 POP POP JUMP JUMPDEST PUSH1 0x0 PUSH1 0x80 DUP3 ADD SWAP1 POP PUSH2 0x1685 PUSH1 0x0 DUP4 ADD DUP8 PUSH2 0x12AF JUMP JUMPDEST PUSH2 0x1692 PUSH1 0x20 DUP4 ADD DUP7 PUSH2 0x1053 JUMP JUMPDEST PUSH2 0x169F PUSH1 0x40 DUP4 ADD DUP6 PUSH2 0x1053 JUMP JUMPDEST DUP2 DUP2 SUB PUSH1 0x60 DUP4 ADD MSTORE PUSH2 0x16B1 DUP2 DUP5 PUSH2 0x15FF JUMP JUMPDEST SWAP1 POP SWAP6 SWAP5 POP POP POP POP POP JUMP JUMPDEST PUSH1 0x0 DUP2 MLOAD SWAP1 POP PUSH2 0x16CB DUP2 PUSH2 0xEAD JUMP JUMPDEST SWAP3 SWAP2 POP POP JUMP JUMPDEST PUSH1 0x0 PUSH1 0x20 DUP3 DUP5 SUB SLT ISZERO PUSH2 0x16E7 JUMPI PUSH2 0x16E6 PUSH2 0xCC6 JUMP JUMPDEST JUMPDEST PUSH1 0x0 PUSH2 0x16F5 DUP5 DUP3 DUP6 ADD PUSH2 0x16BC JUMP JUMPDEST SWAP2 POP POP SWAP3 SWAP2 POP POP JUMP JUMPDEST PUSH2 0x1707 DUP2 PUSH2 0x14DA JUMP JUMPDEST DUP2 EQ PUSH2 0x1712 JUMPI PUSH1 0x0 DUP1 REVERT JUMPDEST POP JUMP JUMPDEST PUSH1 0x0 DUP2 MLOAD SWAP1 POP PUSH2 0x1724 DUP2 PUSH2 0x16FE JUMP JUMPDEST SWAP3 SWAP2 POP POP JUMP JUMPDEST PUSH1 0x0 PUSH1 0x20 DUP3 DUP5 SUB SLT ISZERO PUSH2 0x1740 JUMPI PUSH2 0x173F PUSH2 0xCC6 JUMP JUMPDEST JUMPDEST PUSH1 0x0 PUSH2 0x174E DUP5 DUP3 DUP6 ADD PUSH2 0x1715 JUMP JUMPDEST SWAP2 POP POP SWAP3 SWAP2 POP POP JUMP JUMPDEST PUSH1 0x0 DUP3 DUP3 MSTORE PUSH1 0x20 DUP3 ADD SWAP1 POP SWAP3 SWAP2 POP POP JUMP JUMPDEST PUSH32 0x5361666545524332303A204552433230206F7065726174696F6E20646964206E PUSH1 0x0 DUP3 ADD MSTORE PUSH32 0x6F74207375636365656400000000000000000000000000000000000000000000 PUSH1 0x20 DUP3 ADD MSTORE POP JUMP JUMPDEST PUSH1 0x0 PUSH2 0x17C4 PUSH1 0x2A DUP4 PUSH2 0x1757 JUMP JUMPDEST SWAP2 POP PUSH2 0x17CF DUP3 PUSH2 0x1768 JUMP JUMPDEST PUSH1 0x40 DUP3 ADD SWAP1 POP SWAP2 SWAP1 POP JUMP JUMPDEST PUSH1 0x0 PUSH1 0x20 DUP3 ADD SWAP1 POP DUP2 DUP2 SUB PUSH1 0x0 DUP4 ADD MSTORE PUSH2 0x17F3 DUP2 PUSH2 0x17B7 JUMP JUMPDEST SWAP1 POP SWAP2 SWAP1 POP JUMP JUMPDEST PUSH1 0x0 PUSH1 0x40 DUP3 ADD SWAP1 POP PUSH2 0x180F PUSH1 0x0 DUP4 ADD DUP6 PUSH2 0x1053 JUMP JUMPDEST PUSH2 0x181C PUSH1 0x20 DUP4 ADD DUP5 PUSH2 0x1053 JUMP JUMPDEST SWAP4 SWAP3 POP POP POP JUMP JUMPDEST PUSH32 0x4E487B7100000000000000000000000000000000000000000000000000000000 PUSH1 0x0 MSTORE PUSH1 0x11 PUSH1 0x4 MSTORE PUSH1 0x24 PUSH1 0x0 REVERT JUMPDEST PUSH1 0x0 PUSH2 0x185D DUP3 PUSH2 0xEA3 JUMP JUMPDEST SWAP2 POP PUSH2 0x1868 DUP4 PUSH2 0xEA3 JUMP JUMPDEST SWAP3 POP DUP3 PUSH32 0xFFFFFFFFFFFFFFFFFFFFFFFFFFFFFFFFFFFFFFFFFFFFFFFFFFFFFFFFFFFFFFFF SUB DUP3 GT ISZERO PUSH2 0x189D JUMPI PUSH2 0x189C PUSH2 0x1823 JUMP JUMPDEST JUMPDEST DUP3 DUP3 ADD SWAP1 POP SWAP3 SWAP2 POP POP JUMP JUMPDEST PUSH1 0x0 PUSH1 0x40 DUP3 ADD SWAP1 POP PUSH2 0x18BD PUSH1 0x0 DUP4 ADD DUP6 PUSH2 0x1053 JUMP JUMPDEST PUSH2 0x18CA PUSH1 0x20 DUP4 ADD DUP5 PUSH2 0x111B JUMP JUMPDEST SWAP4 SWAP3 POP POP POP JUMP JUMPDEST PUSH32 0x416464726573733A20696E73756666696369656E742062616C616E636520666F PUSH1 0x0 DUP3 ADD MSTORE PUSH32 0x722063616C6C0000000000000000000000000000000000000000000000000000 PUSH1 0x20 DUP3 ADD MSTORE POP JUMP JUMPDEST PUSH1 0x0 PUSH2 0x192D PUSH1 0x26 DUP4 PUSH2 0x1757 JUMP JUMPDEST SWAP2 POP PUSH2 0x1938 DUP3 PUSH2 0x18D1 JUMP JUMPDEST PUSH1 0x40 DUP3 ADD SWAP1 POP SWAP2 SWAP1 POP JUMP JUMPDEST PUSH1 0x0 PUSH1 0x20 DUP3 ADD SWAP1 POP DUP2 DUP2 SUB PUSH1 0x0 DUP4 ADD MSTORE PUSH2 0x195C DUP2 PUSH2 0x1920 JUMP JUMPDEST SWAP1 POP SWAP2 SWAP1 POP JUMP JUMPDEST PUSH32 0x416464726573733A2063616C6C20746F206E6F6E2D636F6E7472616374000000 PUSH1 0x0 DUP3 ADD MSTORE POP JUMP JUMPDEST PUSH1 0x0 PUSH2 0x1999 PUSH1 0x1D DUP4 PUSH2 0x1757 JUMP JUMPDEST SWAP2 POP PUSH2 0x19A4 DUP3 PUSH2 0x1963 JUMP JUMPDEST PUSH1 0x20 DUP3 ADD SWAP1 POP SWAP2 SWAP1 POP JUMP JUMPDEST PUSH1 0x0 PUSH1 0x20 DUP3 ADD SWAP1 POP DUP2 DUP2 SUB PUSH1 0x0 DUP4 ADD MSTORE PUSH2 0x19C8 DUP2 PUSH2 0x198C JUMP JUMPDEST SWAP1 POP SWAP2 SWAP1 POP JUMP JUMPDEST PUSH1 0x0 DUP2 SWAP1 POP SWAP3 SWAP2 POP POP JUMP JUMPDEST PUSH1 0x0 PUSH2 0x19E5 DUP3 PUSH2 0x1452 JUMP JUMPDEST PUSH2 0x19EF DUP2 DUP6 PUSH2 0x19CF JUMP JUMPDEST SWAP4 POP PUSH2 0x19FF DUP2 DUP6 PUSH1 0x20 DUP7 ADD PUSH2 0x146E JUMP JUMPDEST DUP1 DUP5 ADD SWAP2 POP POP SWAP3 SWAP2 POP POP JUMP JUMPDEST PUSH1 0x0 PUSH2 0x1A17 DUP3 DUP5 PUSH2 0x19DA JUMP JUMPDEST SWAP2 POP DUP2 SWAP1 POP SWAP3 SWAP2 POP POP JUMP JUMPDEST PUSH1 0x0 DUP2 MLOAD SWAP1 POP SWAP2 SWAP1 POP JUMP JUMPDEST PUSH1 0x0 PUSH2 0x1A38 DUP3 PUSH2 0x1A22 JUMP JUMPDEST PUSH2 0x1A42 DUP2 DUP6 PUSH2 0x1757 JUMP JUMPDEST SWAP4 POP PUSH2 0x1A52 DUP2 DUP6 PUSH1 0x20 DUP7 ADD PUSH2 0x146E JUMP JUMPDEST PUSH2 0x1A5B DUP2 PUSH2 0xCD5 JUMP JUMPDEST DUP5 ADD SWAP2 POP POP SWAP3 SWAP2 POP POP JUMP JUMPDEST PUSH1 0x0 PUSH1 0x20 DUP3 ADD SWAP1 POP DUP2 DUP2 SUB PUSH1 0x0 DUP4 ADD MSTORE PUSH2 0x1A80 DUP2 DUP5 PUSH2 0x1A2D JUMP JUMPDEST SWAP1 POP SWAP3 SWAP2 POP POP JUMP INVALID LOG2 PUSH5 0x6970667358 0x22 SLT KECCAK256 0x4A DUP5 0xB2 RETURNDATACOPY 0xB5 0xC3 0xB9 0x25 0xEF LT PUSH21 0x90915A93D32F6B7DE56F7A8DEDB6FBB2F33286A0AA PUSH5 0x736F6C6343 STOP ADDMOD 0xD STOP CALLER "
				},
				"gasEstimates": {
					"creation": {
						"codeDepositCost": "1369200",
						"executionCost": "infinite",
						"totalCost": "infinite"
					},
					"external": {
						"_singleSideDeposit((address[],uint256,bytes32,address,address,address),uint256)": "infinite",
						"_singleSideWithdraw((address[],uint256,bytes32,address,address,address),uint256)": "infinite",
						"balVault()": "infinite",
						"routeDeposit(address,(address[],uint256,bytes32,address,address,address),uint256)": "infinite"
					},
					"internal": {
						"_approveIfNeeded(address,address)": "infinite",
						"_depositLPToVault(address,address,address)": "infinite",
						"_exitPool(contract IAsset[] memory,uint256,uint256,bytes32)": "infinite",
						"_joinPool(contract IAsset[] memory,uint256,uint256,bytes32)": "infinite"
					}
				},
				"methodIdentifiers": {
					"_singleSideDeposit((address[],uint256,bytes32,address,address,address),uint256)": "bfbd3808",
					"_singleSideWithdraw((address[],uint256,bytes32,address,address,address),uint256)": "0e6335e6",
					"balVault()": "77aba213",
					"routeDeposit(address,(address[],uint256,bytes32,address,address,address),uint256)": "9cbcf4c7"
				}
			},
			"storageLayout": {
				"storage": [],
				"types": null
			},
			"userdoc": {
				"kind": "user",
				"methods": {},
				"version": 1
			}
		}
	}
}