{
	"SuperDepositor.sol": {
		"BeetsHelper": {
			"abi": [
				{
					"inputs": [
						{
							"internalType": "address",
							"name": "_balVault",
							"type": "address"
						}
					],
					"stateMutability": "nonpayable",
					"type": "constructor"
				},
				{
					"inputs": [
						{
							"components": [
								{
									"internalType": "contract IAsset[]",
									"name": "underlyings",
									"type": "address[]"
								},
								{
									"internalType": "uint256",
									"name": "tokenIndex",
									"type": "uint256"
								},
								{
									"internalType": "bytes32",
									"name": "beetsPoolId",
									"type": "bytes32"
								},
								{
									"internalType": "address",
									"name": "lpToken",
									"type": "address"
								},
								{
									"internalType": "address",
									"name": "vault",
									"type": "address"
								},
								{
									"internalType": "address",
									"name": "recipient",
									"type": "address"
								}
							],
							"internalType": "struct BeetsHelper.VaultParams",
							"name": "details",
							"type": "tuple"
						},
						{
							"internalType": "uint256",
							"name": "amount",
							"type": "uint256"
						}
					],
					"name": "_singleSideDeposit",
					"outputs": [],
					"stateMutability": "nonpayable",
					"type": "function"
				},
				{
					"inputs": [
						{
							"components": [
								{
									"internalType": "contract IAsset[]",
									"name": "underlyings",
									"type": "address[]"
								},
								{
									"internalType": "uint256",
									"name": "tokenIndex",
									"type": "uint256"
								},
								{
									"internalType": "bytes32",
									"name": "beetsPoolId",
									"type": "bytes32"
								},
								{
									"internalType": "address",
									"name": "lpToken",
									"type": "address"
								},
								{
									"internalType": "address",
									"name": "vault",
									"type": "address"
								},
								{
									"internalType": "address",
									"name": "recipient",
									"type": "address"
								}
							],
							"internalType": "struct BeetsHelper.VaultParams",
							"name": "details",
							"type": "tuple"
						},
						{
							"internalType": "uint256",
							"name": "amount",
							"type": "uint256"
						}
					],
					"name": "_singleSideWithdraw",
					"outputs": [],
					"stateMutability": "nonpayable",
					"type": "function"
				},
				{
					"inputs": [],
					"name": "balVault",
					"outputs": [
						{
							"internalType": "address",
							"name": "",
							"type": "address"
						}
					],
					"stateMutability": "view",
					"type": "function"
				},
				{
					"inputs": [
						{
							"internalType": "address",
							"name": "tokenIn",
							"type": "address"
						},
						{
							"components": [
								{
									"internalType": "contract IAsset[]",
									"name": "underlyings",
									"type": "address[]"
								},
								{
									"internalType": "uint256",
									"name": "tokenIndex",
									"type": "uint256"
								},
								{
									"internalType": "bytes32",
									"name": "beetsPoolId",
									"type": "bytes32"
								},
								{
									"internalType": "address",
									"name": "lpToken",
									"type": "address"
								},
								{
									"internalType": "address",
									"name": "vault",
									"type": "address"
								},
								{
									"internalType": "address",
									"name": "recipient",
									"type": "address"
								}
							],
							"internalType": "struct BeetsHelper.VaultParams",
							"name": "details",
							"type": "tuple"
						},
						{
							"internalType": "uint256",
							"name": "amount",
							"type": "uint256"
						}
					],
					"name": "routeDeposit",
					"outputs": [],
					"stateMutability": "nonpayable",
					"type": "function"
				}
			],
			"devdoc": {
				"author": "z80 and Eidolon",
				"kind": "dev",
				"methods": {},
				"title": "BeetsHelper",
				"version": 1
			},
			"evm": {
				"assembly": "    /* \"SuperDepositor.sol\":289:5014  contract BeetsHelper {... */\n  mstore(0x40, 0xa0)\n    /* \"SuperDepositor.sol\":910:980  constructor(address _balVault) {... */\n  callvalue\n  dup1\n  iszero\n  tag_1\n  jumpi\n  0x00\n  dup1\n  revert\ntag_1:\n  pop\n  mload(0x40)\n  sub(codesize, bytecodeSize)\n  dup1\n  bytecodeSize\n  dup4\n  codecopy\n  dup2\n  dup2\n  add\n  0x40\n  mstore\n  dup2\n  add\n  swap1\n  tag_2\n  swap2\n  swap1\n  tag_3\n  jump\t// in\ntag_2:\n    /* \"SuperDepositor.sol\":963:972  _balVault */\n  dup1\n    /* \"SuperDepositor.sol\":952:972  balVault = _balVault */\n  0xffffffffffffffffffffffffffffffffffffffff\n  and\n  0x80\n  dup2\n  0xffffffffffffffffffffffffffffffffffffffff\n  and\n  dup2\n  mstore\n  pop\n  pop\n    /* \"SuperDepositor.sol\":910:980  constructor(address _balVault) {... */\n  pop\n    /* \"SuperDepositor.sol\":289:5014  contract BeetsHelper {... */\n  jump(tag_6)\n    /* \"#utility.yul\":88:205   */\ntag_8:\n    /* \"#utility.yul\":197:198   */\n  0x00\n    /* \"#utility.yul\":194:195   */\n  dup1\n    /* \"#utility.yul\":187:199   */\n  revert\n    /* \"#utility.yul\":334:460   */\ntag_10:\n    /* \"#utility.yul\":371:378   */\n  0x00\n    /* \"#utility.yul\":411:453   */\n  0xffffffffffffffffffffffffffffffffffffffff\n    /* \"#utility.yul\":404:409   */\n  dup3\n    /* \"#utility.yul\":400:454   */\n  and\n    /* \"#utility.yul\":389:454   */\n  swap1\n  pop\n    /* \"#utility.yul\":334:460   */\n  swap2\n  swap1\n  pop\n  jump\t// out\n    /* \"#utility.yul\":466:562   */\ntag_11:\n    /* \"#utility.yul\":503:510   */\n  0x00\n    /* \"#utility.yul\":532:556   */\n  tag_20\n    /* \"#utility.yul\":550:555   */\n  dup3\n    /* \"#utility.yul\":532:556   */\n  tag_10\n  jump\t// in\ntag_20:\n    /* \"#utility.yul\":521:556   */\n  swap1\n  pop\n    /* \"#utility.yul\":466:562   */\n  swap2\n  swap1\n  pop\n  jump\t// out\n    /* \"#utility.yul\":568:690   */\ntag_12:\n    /* \"#utility.yul\":641:665   */\n  tag_22\n    /* \"#utility.yul\":659:664   */\n  dup2\n    /* \"#utility.yul\":641:665   */\n  tag_11\n  jump\t// in\ntag_22:\n    /* \"#utility.yul\":634:639   */\n  dup2\n    /* \"#utility.yul\":631:666   */\n  eq\n    /* \"#utility.yul\":621:684   */\n  tag_23\n  jumpi\n    /* \"#utility.yul\":680:681   */\n  0x00\n    /* \"#utility.yul\":677:678   */\n  dup1\n    /* \"#utility.yul\":670:682   */\n  revert\n    /* \"#utility.yul\":621:684   */\ntag_23:\n    /* \"#utility.yul\":568:690   */\n  pop\n  jump\t// out\n    /* \"#utility.yul\":696:839   */\ntag_13:\n    /* \"#utility.yul\":753:758   */\n  0x00\n    /* \"#utility.yul\":784:790   */\n  dup2\n    /* \"#utility.yul\":778:791   */\n  mload\n    /* \"#utility.yul\":769:791   */\n  swap1\n  pop\n    /* \"#utility.yul\":800:833   */\n  tag_25\n    /* \"#utility.yul\":827:832   */\n  dup2\n    /* \"#utility.yul\":800:833   */\n  tag_12\n  jump\t// in\ntag_25:\n    /* \"#utility.yul\":696:839   */\n  swap3\n  swap2\n  pop\n  pop\n  jump\t// out\n    /* \"#utility.yul\":845:1196   */\ntag_3:\n    /* \"#utility.yul\":915:921   */\n  0x00\n    /* \"#utility.yul\":964:966   */\n  0x20\n    /* \"#utility.yul\":952:961   */\n  dup3\n    /* \"#utility.yul\":943:950   */\n  dup5\n    /* \"#utility.yul\":939:962   */\n  sub\n    /* \"#utility.yul\":935:967   */\n  slt\n    /* \"#utility.yul\":932:1051   */\n  iszero\n  tag_27\n  jumpi\n    /* \"#utility.yul\":970:1049   */\n  tag_28\n  tag_8\n  jump\t// in\ntag_28:\n    /* \"#utility.yul\":932:1051   */\ntag_27:\n    /* \"#utility.yul\":1090:1091   */\n  0x00\n    /* \"#utility.yul\":1115:1179   */\n  tag_29\n    /* \"#utility.yul\":1171:1178   */\n  dup5\n    /* \"#utility.yul\":1162:1168   */\n  dup3\n    /* \"#utility.yul\":1151:1160   */\n  dup6\n    /* \"#utility.yul\":1147:1169   */\n  add\n    /* \"#utility.yul\":1115:1179   */\n  tag_13\n  jump\t// in\ntag_29:\n    /* \"#utility.yul\":1105:1179   */\n  swap2\n  pop\n    /* \"#utility.yul\":1061:1189   */\n  pop\n    /* \"#utility.yul\":845:1196   */\n  swap3\n  swap2\n  pop\n  pop\n  jump\t// out\n    /* \"SuperDepositor.sol\":289:5014  contract BeetsHelper {... */\ntag_6:\n  mload(0x80)\n  codecopy(0x00, dataOffset(sub_0), dataSize(sub_0))\n  0x00\n  assignImmutable(\"0xf3c94672c9097e8255317de36dd0d00a9f72d57eeb896861f583a1140be6889a\")\n  return(0x00, dataSize(sub_0))\nstop\n\nsub_0: assembly {\n        /* \"SuperDepositor.sol\":289:5014  contract BeetsHelper {... */\n      mstore(0x40, 0x80)\n      callvalue\n      dup1\n      iszero\n      tag_1\n      jumpi\n      0x00\n      dup1\n      revert\n    tag_1:\n      pop\n      jumpi(tag_2, lt(calldatasize, 0x04))\n      shr(0xe0, calldataload(0x00))\n      dup1\n      0x0e6335e6\n      eq\n      tag_3\n      jumpi\n      dup1\n      0x77aba213\n      eq\n      tag_4\n      jumpi\n      dup1\n      0x9cbcf4c7\n      eq\n      tag_5\n      jumpi\n      dup1\n      0xbfbd3808\n      eq\n      tag_6\n      jumpi\n    tag_2:\n      0x00\n      dup1\n      revert\n        /* \"SuperDepositor.sol\":1961:2332  function _singleSideWithdraw(VaultParams memory details, uint256 amount) public {... */\n    tag_3:\n      tag_7\n      0x04\n      dup1\n      calldatasize\n      sub\n      dup2\n      add\n      swap1\n      tag_8\n      swap2\n      swap1\n      tag_9\n      jump\t// in\n    tag_8:\n      tag_10\n      jump\t// in\n    tag_7:\n      stop\n        /* \"SuperDepositor.sol\":376:409  address public immutable balVault */\n    tag_4:\n      tag_11\n      tag_12\n      jump\t// in\n    tag_11:\n      mload(0x40)\n      tag_13\n      swap2\n      swap1\n      tag_14\n      jump\t// in\n    tag_13:\n      mload(0x40)\n      dup1\n      swap2\n      sub\n      swap1\n      return\n        /* \"SuperDepositor.sol\":988:1481  function routeDeposit(address tokenIn, VaultParams memory details, uint256 amount) public {... */\n    tag_5:\n      tag_15\n      0x04\n      dup1\n      calldatasize\n      sub\n      dup2\n      add\n      swap1\n      tag_16\n      swap2\n      swap1\n      tag_17\n      jump\t// in\n    tag_16:\n      tag_18\n      jump\t// in\n    tag_15:\n      stop\n        /* \"SuperDepositor.sol\":1489:1953  function _singleSideDeposit(VaultParams memory details, uint256 amount) public {... */\n    tag_6:\n      tag_19\n      0x04\n      dup1\n      calldatasize\n      sub\n      dup2\n      add\n      swap1\n      tag_20\n      swap2\n      swap1\n      tag_9\n      jump\t// in\n    tag_20:\n      tag_21\n      jump\t// in\n    tag_19:\n      stop\n        /* \"SuperDepositor.sol\":1961:2332  function _singleSideWithdraw(VaultParams memory details, uint256 amount) public {... */\n    tag_10:\n        /* \"SuperDepositor.sol\":2052:2080  IERC20Upgradeable inputToken */\n      0x00\n        /* \"SuperDepositor.sol\":2101:2108  details */\n      dup3\n        /* \"SuperDepositor.sol\":2101:2114  details.vault */\n      0x80\n      add\n      mload\n        /* \"SuperDepositor.sol\":2052:2115  IERC20Upgradeable inputToken = IERC20Upgradeable(details.vault) */\n      swap1\n      pop\n        /* \"SuperDepositor.sol\":2126:2188  inputToken.safeTransferFrom(msg.sender, address(this), amount) */\n      tag_23\n        /* \"SuperDepositor.sol\":2154:2164  msg.sender */\n      caller\n        /* \"SuperDepositor.sol\":2174:2178  this */\n      address\n        /* \"SuperDepositor.sol\":2181:2187  amount */\n      dup5\n        /* \"SuperDepositor.sol\":2126:2136  inputToken */\n      dup5\n        /* \"SuperDepositor.sol\":2126:2153  inputToken.safeTransferFrom */\n      0xffffffffffffffffffffffffffffffffffffffff\n      and\n      tag_24\n      swap1\n        /* \"SuperDepositor.sol\":2126:2188  inputToken.safeTransferFrom(msg.sender, address(this), amount) */\n      swap4\n      swap3\n      swap2\n      swap1\n      0xffffffff\n      and\n      jump\t// in\n    tag_23:\n        /* \"SuperDepositor.sol\":2206:2213  details */\n      dup3\n        /* \"SuperDepositor.sol\":2206:2219  details.vault */\n      0x80\n      add\n      mload\n        /* \"SuperDepositor.sol\":2199:2232  IVault(details.vault).withdrawAll */\n      0xffffffffffffffffffffffffffffffffffffffff\n      and\n      0x853828b6\n        /* \"SuperDepositor.sol\":2199:2234  IVault(details.vault).withdrawAll() */\n      mload(0x40)\n      dup2\n      0xffffffff\n      and\n      0xe0\n      shl\n      dup2\n      mstore\n      0x04\n      add\n      0x00\n      mload(0x40)\n      dup1\n      dup4\n      sub\n      dup2\n      0x00\n      dup8\n      dup1\n      extcodesize\n      iszero\n      dup1\n      iszero\n      tag_25\n      jumpi\n      0x00\n      dup1\n      revert\n    tag_25:\n      pop\n      gas\n      call\n      iszero\n      dup1\n      iszero\n      tag_27\n      jumpi\n      returndatasize\n      0x00\n      dup1\n      returndatacopy\n      revert(0x00, returndatasize)\n    tag_27:\n      pop\n      pop\n      pop\n      pop\n        /* \"SuperDepositor.sol\":2245:2324  _exitPool(details.underlyings, amount, details.tokenIndex, details.beetsPoolId) */\n      tag_28\n        /* \"SuperDepositor.sol\":2255:2262  details */\n      dup4\n        /* \"SuperDepositor.sol\":2255:2274  details.underlyings */\n      0x00\n      add\n      mload\n        /* \"SuperDepositor.sol\":2276:2282  amount */\n      dup4\n        /* \"SuperDepositor.sol\":2284:2291  details */\n      dup6\n        /* \"SuperDepositor.sol\":2284:2302  details.tokenIndex */\n      0x20\n      add\n      mload\n        /* \"SuperDepositor.sol\":2304:2311  details */\n      dup7\n        /* \"SuperDepositor.sol\":2304:2323  details.beetsPoolId */\n      0x40\n      add\n      mload\n        /* \"SuperDepositor.sol\":2245:2254  _exitPool */\n      tag_29\n        /* \"SuperDepositor.sol\":2245:2324  _exitPool(details.underlyings, amount, details.tokenIndex, details.beetsPoolId) */\n      jump\t// in\n    tag_28:\n        /* \"SuperDepositor.sol\":2041:2332  {... */\n      pop\n        /* \"SuperDepositor.sol\":1961:2332  function _singleSideWithdraw(VaultParams memory details, uint256 amount) public {... */\n      pop\n      pop\n      jump\t// out\n        /* \"SuperDepositor.sol\":376:409  address public immutable balVault */\n    tag_12:\n      immutable(\"0xf3c94672c9097e8255317de36dd0d00a9f72d57eeb896861f583a1140be6889a\")\n      dup2\n      jump\t// out\n        /* \"SuperDepositor.sol\":988:1481  function routeDeposit(address tokenIn, VaultParams memory details, uint256 amount) public {... */\n    tag_18:\n        /* \"SuperDepositor.sol\":1216:1236  address depositToken */\n      0x00\n        /* \"SuperDepositor.sol\":1247:1254  details */\n      dup3\n        /* \"SuperDepositor.sol\":1247:1266  details.underlyings */\n      0x00\n      add\n      mload\n        /* \"SuperDepositor.sol\":1267:1274  details */\n      dup4\n        /* \"SuperDepositor.sol\":1267:1285  details.tokenIndex */\n      0x20\n      add\n      mload\n        /* \"SuperDepositor.sol\":1247:1286  details.underlyings[details.tokenIndex] */\n      dup2\n      mload\n      dup2\n      lt\n      tag_31\n      jumpi\n      tag_32\n      tag_33\n      jump\t// in\n    tag_32:\n    tag_31:\n      0x20\n      mul\n      0x20\n      add\n      add\n      mload\n        /* \"SuperDepositor.sol\":1216:1287  address depositToken = address(details.underlyings[details.tokenIndex]) */\n      swap1\n      pop\n        /* \"SuperDepositor.sol\":1312:1324  depositToken */\n      dup1\n        /* \"SuperDepositor.sol\":1301:1324  tokenIn == depositToken */\n      0xffffffffffffffffffffffffffffffffffffffff\n      and\n        /* \"SuperDepositor.sol\":1301:1308  tokenIn */\n      dup5\n        /* \"SuperDepositor.sol\":1301:1324  tokenIn == depositToken */\n      0xffffffffffffffffffffffffffffffffffffffff\n      and\n      sub\n        /* \"SuperDepositor.sol\":1298:1464  if(tokenIn == depositToken){... */\n      tag_34\n      jumpi\n        /* \"SuperDepositor.sol\":1340:1375  _singleSideDeposit(details, amount) */\n      tag_35\n        /* \"SuperDepositor.sol\":1359:1366  details */\n      dup4\n        /* \"SuperDepositor.sol\":1368:1374  amount */\n      dup4\n        /* \"SuperDepositor.sol\":1340:1358  _singleSideDeposit */\n      tag_21\n        /* \"SuperDepositor.sol\":1340:1375  _singleSideDeposit(details, amount) */\n      jump\t// in\n    tag_35:\n        /* \"SuperDepositor.sol\":1298:1464  if(tokenIn == depositToken){... */\n      jump(tag_36)\n    tag_34:\n    tag_36:\n        /* \"SuperDepositor.sol\":1078:1481  {... */\n      pop\n        /* \"SuperDepositor.sol\":988:1481  function routeDeposit(address tokenIn, VaultParams memory details, uint256 amount) public {... */\n      pop\n      pop\n      pop\n      jump\t// out\n        /* \"SuperDepositor.sol\":1489:1953  function _singleSideDeposit(VaultParams memory details, uint256 amount) public {... */\n    tag_21:\n        /* \"SuperDepositor.sol\":1579:1607  IERC20Upgradeable inputToken */\n      0x00\n        /* \"SuperDepositor.sol\":1636:1643  details */\n      dup3\n        /* \"SuperDepositor.sol\":1636:1655  details.underlyings */\n      0x00\n      add\n      mload\n        /* \"SuperDepositor.sol\":1656:1663  details */\n      dup4\n        /* \"SuperDepositor.sol\":1656:1674  details.tokenIndex */\n      0x20\n      add\n      mload\n        /* \"SuperDepositor.sol\":1636:1675  details.underlyings[details.tokenIndex] */\n      dup2\n      mload\n      dup2\n      lt\n      tag_38\n      jumpi\n      tag_39\n      tag_33\n      jump\t// in\n    tag_39:\n    tag_38:\n      0x20\n      mul\n      0x20\n      add\n      add\n      mload\n        /* \"SuperDepositor.sol\":1579:1677  IERC20Upgradeable inputToken = IERC20Upgradeable(address(details.underlyings[details.tokenIndex])) */\n      swap1\n      pop\n        /* \"SuperDepositor.sol\":1688:1750  inputToken.safeTransferFrom(msg.sender, address(this), amount) */\n      tag_40\n        /* \"SuperDepositor.sol\":1716:1726  msg.sender */\n      caller\n        /* \"SuperDepositor.sol\":1736:1740  this */\n      address\n        /* \"SuperDepositor.sol\":1743:1749  amount */\n      dup5\n        /* \"SuperDepositor.sol\":1688:1698  inputToken */\n      dup5\n        /* \"SuperDepositor.sol\":1688:1715  inputToken.safeTransferFrom */\n      0xffffffffffffffffffffffffffffffffffffffff\n      and\n      tag_24\n      swap1\n        /* \"SuperDepositor.sol\":1688:1750  inputToken.safeTransferFrom(msg.sender, address(this), amount) */\n      swap4\n      swap3\n      swap2\n      swap1\n      0xffffffff\n      and\n      jump\t// in\n    tag_40:\n        /* \"SuperDepositor.sol\":1761:1840  _joinPool(details.underlyings, amount, details.tokenIndex, details.beetsPoolId) */\n      tag_41\n        /* \"SuperDepositor.sol\":1771:1778  details */\n      dup4\n        /* \"SuperDepositor.sol\":1771:1790  details.underlyings */\n      0x00\n      add\n      mload\n        /* \"SuperDepositor.sol\":1792:1798  amount */\n      dup4\n        /* \"SuperDepositor.sol\":1800:1807  details */\n      dup6\n        /* \"SuperDepositor.sol\":1800:1818  details.tokenIndex */\n      0x20\n      add\n      mload\n        /* \"SuperDepositor.sol\":1820:1827  details */\n      dup7\n        /* \"SuperDepositor.sol\":1820:1839  details.beetsPoolId */\n      0x40\n      add\n      mload\n        /* \"SuperDepositor.sol\":1761:1770  _joinPool */\n      tag_42\n        /* \"SuperDepositor.sol\":1761:1840  _joinPool(details.underlyings, amount, details.tokenIndex, details.beetsPoolId) */\n      jump\t// in\n    tag_41:\n        /* \"SuperDepositor.sol\":1877:1945  _depositLPToVault(details.lpToken, details.vault, details.recipient) */\n      tag_43\n        /* \"SuperDepositor.sol\":1895:1902  details */\n      dup4\n        /* \"SuperDepositor.sol\":1895:1910  details.lpToken */\n      0x60\n      add\n      mload\n        /* \"SuperDepositor.sol\":1912:1919  details */\n      dup5\n        /* \"SuperDepositor.sol\":1912:1925  details.vault */\n      0x80\n      add\n      mload\n        /* \"SuperDepositor.sol\":1927:1934  details */\n      dup6\n        /* \"SuperDepositor.sol\":1927:1944  details.recipient */\n      0xa0\n      add\n      mload\n        /* \"SuperDepositor.sol\":1877:1894  _depositLPToVault */\n      tag_44\n        /* \"SuperDepositor.sol\":1877:1945  _depositLPToVault(details.lpToken, details.vault, details.recipient) */\n      jump\t// in\n    tag_43:\n        /* \"SuperDepositor.sol\":1568:1953  {... */\n      pop\n        /* \"SuperDepositor.sol\":1489:1953  function _singleSideDeposit(VaultParams memory details, uint256 amount) public {... */\n      pop\n      pop\n      jump\t// out\n        /* \"@openzeppelin/contracts-upgradeable/token/ERC20/utils/SafeERC20Upgradeable.sol\":967:1219  function safeTransferFrom(... */\n    tag_24:\n        /* \"@openzeppelin/contracts-upgradeable/token/ERC20/utils/SafeERC20Upgradeable.sol\":1116:1212  _callOptionalReturn(token, abi.encodeWithSelector(token.transferFrom.selector, from, to, value)) */\n      tag_46\n        /* \"@openzeppelin/contracts-upgradeable/token/ERC20/utils/SafeERC20Upgradeable.sol\":1136:1141  token */\n      dup5\n        /* \"@openzeppelin/contracts-upgradeable/token/ERC20/utils/SafeERC20Upgradeable.sol\":1166:1193  token.transferFrom.selector */\n      shl(0xe0, 0x23b872dd)\n        /* \"@openzeppelin/contracts-upgradeable/token/ERC20/utils/SafeERC20Upgradeable.sol\":1195:1199  from */\n      dup6\n        /* \"@openzeppelin/contracts-upgradeable/token/ERC20/utils/SafeERC20Upgradeable.sol\":1201:1203  to */\n      dup6\n        /* \"@openzeppelin/contracts-upgradeable/token/ERC20/utils/SafeERC20Upgradeable.sol\":1205:1210  value */\n      dup6\n        /* \"@openzeppelin/contracts-upgradeable/token/ERC20/utils/SafeERC20Upgradeable.sol\":1143:1211  abi.encodeWithSelector(token.transferFrom.selector, from, to, value) */\n      add(0x24, mload(0x40))\n      tag_47\n      swap4\n      swap3\n      swap2\n      swap1\n      tag_48\n      jump\t// in\n    tag_47:\n      mload(0x40)\n      0x20\n      dup2\n      dup4\n      sub\n      sub\n      dup2\n      mstore\n      swap1\n      0x40\n      mstore\n      swap1\n      not(0xffffffffffffffffffffffffffffffffffffffffffffffffffffffff)\n      and\n      0x20\n      dup3\n      add\n      dup1\n      mload\n      0xffffffffffffffffffffffffffffffffffffffffffffffffffffffff\n      dup4\n      dup2\n      dup4\n      and\n      or\n      dup4\n      mstore\n      pop\n      pop\n      pop\n      pop\n        /* \"@openzeppelin/contracts-upgradeable/token/ERC20/utils/SafeERC20Upgradeable.sol\":1116:1135  _callOptionalReturn */\n      tag_49\n        /* \"@openzeppelin/contracts-upgradeable/token/ERC20/utils/SafeERC20Upgradeable.sol\":1116:1212  _callOptionalReturn(token, abi.encodeWithSelector(token.transferFrom.selector, from, to, value)) */\n      jump\t// in\n    tag_46:\n        /* \"@openzeppelin/contracts-upgradeable/token/ERC20/utils/SafeERC20Upgradeable.sol\":967:1219  function safeTransferFrom(... */\n      pop\n      pop\n      pop\n      pop\n      jump\t// out\n        /* \"SuperDepositor.sol\":4075:5009  function _exitPool(IAsset[] memory underlyings, uint256 amtOut, uint256 tokenIndex, bytes32 beetsPoolId) internal {... */\n    tag_29:\n        /* \"SuperDepositor.sol\":4281:4311  uint256[] memory minAmountsOut */\n      0x00\n        /* \"SuperDepositor.sol\":4328:4339  underlyings */\n      dup5\n        /* \"SuperDepositor.sol\":4328:4346  underlyings.length */\n      mload\n        /* \"SuperDepositor.sol\":4314:4347  new uint256[](underlyings.length) */\n      0xffffffffffffffff\n      dup2\n      gt\n      iszero\n      tag_51\n      jumpi\n      tag_52\n      tag_53\n      jump\t// in\n    tag_52:\n    tag_51:\n      mload(0x40)\n      swap1\n      dup1\n      dup3\n      mstore\n      dup1\n      0x20\n      mul\n      0x20\n      add\n      dup3\n      add\n      0x40\n      mstore\n      dup1\n      iszero\n      tag_54\n      jumpi\n      dup2\n      0x20\n      add\n      0x20\n      dup3\n      mul\n      dup1\n      calldatasize\n      dup4\n      calldatacopy\n      dup1\n      dup3\n      add\n      swap2\n      pop\n      pop\n      swap1\n      pop\n    tag_54:\n      pop\n        /* \"SuperDepositor.sol\":4281:4347  uint256[] memory minAmountsOut = new uint256[](underlyings.length) */\n      swap1\n      pop\n        /* \"SuperDepositor.sol\":4386:4392  amtOut */\n      dup4\n        /* \"SuperDepositor.sol\":4358:4371  minAmountsOut */\n      dup2\n        /* \"SuperDepositor.sol\":4372:4382  tokenIndex */\n      dup5\n        /* \"SuperDepositor.sol\":4358:4383  minAmountsOut[tokenIndex] */\n      dup2\n      mload\n      dup2\n      lt\n      tag_55\n      jumpi\n      tag_56\n      tag_33\n      jump\t// in\n    tag_56:\n    tag_55:\n      0x20\n      mul\n      0x20\n      add\n      add\n        /* \"SuperDepositor.sol\":4358:4392  minAmountsOut[tokenIndex] = amtOut */\n      dup2\n      dup2\n      mstore\n      pop\n      pop\n        /* \"SuperDepositor.sol\":4405:4425  uint256 minAmountOut */\n      0x00\n        /* \"SuperDepositor.sol\":4428:4429  1 */\n      0x01\n        /* \"SuperDepositor.sol\":4405:4429  uint256 minAmountOut = 1 */\n      swap1\n      pop\n        /* \"SuperDepositor.sol\":4481:4502  bytes memory userData */\n      0x00\n        /* \"SuperDepositor.sol\":4516:4517  0 */\n      dup1\n        /* \"SuperDepositor.sol\":4518:4524  amtOut */\n      dup7\n        /* \"SuperDepositor.sol\":4526:4536  tokenIndex */\n      dup7\n        /* \"SuperDepositor.sol\":4505:4537  abi.encode(0,amtOut, tokenIndex) */\n      add(0x20, mload(0x40))\n      tag_57\n      swap4\n      swap3\n      swap2\n      swap1\n      tag_58\n      jump\t// in\n    tag_57:\n      mload(0x40)\n      0x20\n      dup2\n      dup4\n      sub\n      sub\n      dup2\n      mstore\n      swap1\n      0x40\n      mstore\n        /* \"SuperDepositor.sol\":4481:4537  bytes memory userData = abi.encode(0,amtOut, tokenIndex) */\n      swap1\n      pop\n        /* \"SuperDepositor.sol\":4550:4591  IBeetVault.ExitPoolRequest memory request */\n      tag_59\n      tag_60\n      jump\t// in\n    tag_59:\n        /* \"SuperDepositor.sol\":4619:4630  underlyings */\n      dup8\n        /* \"SuperDepositor.sol\":4602:4609  request */\n      dup2\n        /* \"SuperDepositor.sol\":4602:4616  request.assets */\n      0x00\n      add\n        /* \"SuperDepositor.sol\":4602:4630  request.assets = underlyings */\n      dup2\n      swap1\n      mstore\n      pop\n        /* \"SuperDepositor.sol\":4665:4678  minAmountsOut */\n      dup4\n        /* \"SuperDepositor.sol\":4641:4648  request */\n      dup2\n        /* \"SuperDepositor.sol\":4641:4662  request.minAmountsOut */\n      0x20\n      add\n        /* \"SuperDepositor.sol\":4641:4678  request.minAmountsOut = minAmountsOut */\n      dup2\n      swap1\n      mstore\n      pop\n        /* \"SuperDepositor.sol\":4708:4716  userData */\n      dup2\n        /* \"SuperDepositor.sol\":4689:4696  request */\n      dup2\n        /* \"SuperDepositor.sol\":4689:4705  request.userData */\n      0x40\n      add\n        /* \"SuperDepositor.sol\":4689:4716  request.userData = userData */\n      dup2\n      swap1\n      mstore\n      pop\n        /* \"SuperDepositor.sol\":4755:4760  false */\n      0x00\n        /* \"SuperDepositor.sol\":4727:4734  request */\n      dup2\n        /* \"SuperDepositor.sol\":4727:4752  request.toInternalBalance */\n      0x60\n      add\n        /* \"SuperDepositor.sol\":4727:4760  request.toInternalBalance = false */\n      swap1\n      iszero\n      iszero\n      swap1\n      dup2\n      iszero\n      iszero\n      dup2\n      mstore\n      pop\n      pop\n        /* \"SuperDepositor.sol\":4887:4895  balVault */\n      immutable(\"0xf3c94672c9097e8255317de36dd0d00a9f72d57eeb896861f583a1140be6889a\")\n        /* \"SuperDepositor.sol\":4876:4905  IBeetVault(balVault).exitPool */\n      0xffffffffffffffffffffffffffffffffffffffff\n      and\n      0x8bdb3913\n        /* \"SuperDepositor.sol\":4906:4917  beetsPoolId */\n      dup7\n        /* \"SuperDepositor.sol\":4927:4931  this */\n      address\n        /* \"SuperDepositor.sol\":4950:4954  this */\n      address\n        /* \"SuperDepositor.sol\":4958:4965  request */\n      dup6\n        /* \"SuperDepositor.sol\":4876:4966  IBeetVault(balVault).exitPool(beetsPoolId, address(this), payable(address(this)), request) */\n      mload(0x40)\n      dup6\n      0xffffffff\n      and\n      0xe0\n      shl\n      dup2\n      mstore\n      0x04\n      add\n      tag_61\n      swap5\n      swap4\n      swap3\n      swap2\n      swap1\n      tag_62\n      jump\t// in\n    tag_61:\n      0x00\n      mload(0x40)\n      dup1\n      dup4\n      sub\n      dup2\n      0x00\n      dup8\n      dup1\n      extcodesize\n      iszero\n      dup1\n      iszero\n      tag_63\n      jumpi\n      0x00\n      dup1\n      revert\n    tag_63:\n      pop\n      gas\n      call\n      iszero\n      dup1\n      iszero\n      tag_65\n      jumpi\n      returndatasize\n      0x00\n      dup1\n      returndatacopy\n      revert(0x00, returndatasize)\n    tag_65:\n      pop\n      pop\n      pop\n      pop\n        /* \"SuperDepositor.sol\":4189:5009  {... */\n      pop\n      pop\n      pop\n      pop\n        /* \"SuperDepositor.sol\":4075:5009  function _exitPool(IAsset[] memory underlyings, uint256 amtOut, uint256 tokenIndex, bytes32 beetsPoolId) internal {... */\n      pop\n      pop\n      pop\n      pop\n      jump\t// out\n        /* \"SuperDepositor.sol\":3149:4067  function _joinPool(IAsset[] memory underlyings, uint256 amtIn, uint256 tokenIndex, bytes32 beetsPoolId) internal {... */\n    tag_42:\n        /* \"SuperDepositor.sol\":3273:3287  uint8 joinKind */\n      0x00\n        /* \"SuperDepositor.sol\":3290:3291  1 */\n      0x01\n        /* \"SuperDepositor.sol\":3273:3291  uint8 joinKind = 1 */\n      swap1\n      pop\n        /* \"SuperDepositor.sol\":3384:3410  uint256[] memory amountsIn */\n      0x00\n        /* \"SuperDepositor.sol\":3427:3438  underlyings */\n      dup6\n        /* \"SuperDepositor.sol\":3427:3445  underlyings.length */\n      mload\n        /* \"SuperDepositor.sol\":3413:3446  new uint256[](underlyings.length) */\n      0xffffffffffffffff\n      dup2\n      gt\n      iszero\n      tag_67\n      jumpi\n      tag_68\n      tag_53\n      jump\t// in\n    tag_68:\n    tag_67:\n      mload(0x40)\n      swap1\n      dup1\n      dup3\n      mstore\n      dup1\n      0x20\n      mul\n      0x20\n      add\n      dup3\n      add\n      0x40\n      mstore\n      dup1\n      iszero\n      tag_69\n      jumpi\n      dup2\n      0x20\n      add\n      0x20\n      dup3\n      mul\n      dup1\n      calldatasize\n      dup4\n      calldatacopy\n      dup1\n      dup3\n      add\n      swap2\n      pop\n      pop\n      swap1\n      pop\n    tag_69:\n      pop\n        /* \"SuperDepositor.sol\":3384:3446  uint256[] memory amountsIn = new uint256[](underlyings.length) */\n      swap1\n      pop\n        /* \"SuperDepositor.sol\":3481:3486  amtIn */\n      dup5\n        /* \"SuperDepositor.sol\":3457:3466  amountsIn */\n      dup2\n        /* \"SuperDepositor.sol\":3467:3477  tokenIndex */\n      dup6\n        /* \"SuperDepositor.sol\":3457:3478  amountsIn[tokenIndex] */\n      dup2\n      mload\n      dup2\n      lt\n      tag_70\n      jumpi\n      tag_71\n      tag_33\n      jump\t// in\n    tag_71:\n    tag_70:\n      0x20\n      mul\n      0x20\n      add\n      add\n        /* \"SuperDepositor.sol\":3457:3486  amountsIn[tokenIndex] = amtIn */\n      dup2\n      dup2\n      mstore\n      pop\n      pop\n        /* \"SuperDepositor.sol\":3499:3519  uint256 minAmountOut */\n      0x00\n        /* \"SuperDepositor.sol\":3522:3523  1 */\n      0x01\n        /* \"SuperDepositor.sol\":3499:3523  uint256 minAmountOut = 1 */\n      swap1\n      pop\n        /* \"SuperDepositor.sol\":3575:3596  bytes memory userData */\n      0x00\n        /* \"SuperDepositor.sol\":3610:3618  joinKind */\n      dup4\n        /* \"SuperDepositor.sol\":3620:3629  amountsIn */\n      dup4\n        /* \"SuperDepositor.sol\":3631:3643  minAmountOut */\n      dup4\n        /* \"SuperDepositor.sol\":3599:3644  abi.encode(joinKind, amountsIn, minAmountOut) */\n      add(0x20, mload(0x40))\n      tag_72\n      swap4\n      swap3\n      swap2\n      swap1\n      tag_73\n      jump\t// in\n    tag_72:\n      mload(0x40)\n      0x20\n      dup2\n      dup4\n      sub\n      sub\n      dup2\n      mstore\n      swap1\n      0x40\n      mstore\n        /* \"SuperDepositor.sol\":3575:3644  bytes memory userData = abi.encode(joinKind, amountsIn, minAmountOut) */\n      swap1\n      pop\n        /* \"SuperDepositor.sol\":3657:3698  IBeetVault.JoinPoolRequest memory request */\n      tag_74\n      tag_75\n      jump\t// in\n    tag_74:\n        /* \"SuperDepositor.sol\":3726:3737  underlyings */\n      dup9\n        /* \"SuperDepositor.sol\":3709:3716  request */\n      dup2\n        /* \"SuperDepositor.sol\":3709:3723  request.assets */\n      0x00\n      add\n        /* \"SuperDepositor.sol\":3709:3737  request.assets = underlyings */\n      dup2\n      swap1\n      mstore\n      pop\n        /* \"SuperDepositor.sol\":3771:3780  amountsIn */\n      dup4\n        /* \"SuperDepositor.sol\":3748:3755  request */\n      dup2\n        /* \"SuperDepositor.sol\":3748:3768  request.maxAmountsIn */\n      0x20\n      add\n        /* \"SuperDepositor.sol\":3748:3780  request.maxAmountsIn = amountsIn */\n      dup2\n      swap1\n      mstore\n      pop\n        /* \"SuperDepositor.sol\":3810:3818  userData */\n      dup2\n        /* \"SuperDepositor.sol\":3791:3798  request */\n      dup2\n        /* \"SuperDepositor.sol\":3791:3807  request.userData */\n      0x40\n      add\n        /* \"SuperDepositor.sol\":3791:3818  request.userData = userData */\n      dup2\n      swap1\n      mstore\n      pop\n        /* \"SuperDepositor.sol\":3859:3864  false */\n      0x00\n        /* \"SuperDepositor.sol\":3829:3836  request */\n      dup2\n        /* \"SuperDepositor.sol\":3829:3856  request.fromInternalBalance */\n      0x60\n      add\n        /* \"SuperDepositor.sol\":3829:3864  request.fromInternalBalance = false */\n      swap1\n      iszero\n      iszero\n      swap1\n      dup2\n      iszero\n      iszero\n      dup2\n      mstore\n      pop\n      pop\n        /* \"SuperDepositor.sol\":3877:3967  IERC20Upgradeable(address(underlyings[tokenIndex])).safeIncreaseAllowance(balVault, amtIn) */\n      tag_76\n        /* \"SuperDepositor.sol\":3951:3959  balVault */\n      immutable(\"0xf3c94672c9097e8255317de36dd0d00a9f72d57eeb896861f583a1140be6889a\")\n        /* \"SuperDepositor.sol\":3961:3966  amtIn */\n      dup10\n        /* \"SuperDepositor.sol\":3903:3914  underlyings */\n      dup12\n        /* \"SuperDepositor.sol\":3915:3925  tokenIndex */\n      dup11\n        /* \"SuperDepositor.sol\":3903:3926  underlyings[tokenIndex] */\n      dup2\n      mload\n      dup2\n      lt\n      tag_77\n      jumpi\n      tag_78\n      tag_33\n      jump\t// in\n    tag_78:\n    tag_77:\n      0x20\n      mul\n      0x20\n      add\n      add\n      mload\n        /* \"SuperDepositor.sol\":3877:3950  IERC20Upgradeable(address(underlyings[tokenIndex])).safeIncreaseAllowance */\n      0xffffffffffffffffffffffffffffffffffffffff\n      and\n      tag_79\n      swap1\n        /* \"SuperDepositor.sol\":3877:3967  IERC20Upgradeable(address(underlyings[tokenIndex])).safeIncreaseAllowance(balVault, amtIn) */\n      swap3\n      swap2\n      swap1\n      0xffffffff\n      and\n      jump\t// in\n    tag_76:\n        /* \"SuperDepositor.sol\":3989:3997  balVault */\n      immutable(\"0xf3c94672c9097e8255317de36dd0d00a9f72d57eeb896861f583a1140be6889a\")\n        /* \"SuperDepositor.sol\":3978:4007  IBeetVault(balVault).joinPool */\n      0xffffffffffffffffffffffffffffffffffffffff\n      and\n      0xb95cac28\n        /* \"SuperDepositor.sol\":4008:4019  beetsPoolId */\n      dup8\n        /* \"SuperDepositor.sol\":4029:4033  this */\n      address\n        /* \"SuperDepositor.sol\":4044:4048  this */\n      address\n        /* \"SuperDepositor.sol\":4051:4058  request */\n      dup6\n        /* \"SuperDepositor.sol\":3978:4059  IBeetVault(balVault).joinPool(beetsPoolId, address(this), address(this), request) */\n      mload(0x40)\n      dup6\n      0xffffffff\n      and\n      0xe0\n      shl\n      dup2\n      mstore\n      0x04\n      add\n      tag_80\n      swap5\n      swap4\n      swap3\n      swap2\n      swap1\n      tag_81\n      jump\t// in\n    tag_80:\n      0x00\n      mload(0x40)\n      dup1\n      dup4\n      sub\n      dup2\n      0x00\n      dup8\n      dup1\n      extcodesize\n      iszero\n      dup1\n      iszero\n      tag_82\n      jumpi\n      0x00\n      dup1\n      revert\n    tag_82:\n      pop\n      gas\n      call\n      iszero\n      dup1\n      iszero\n      tag_84\n      jumpi\n      returndatasize\n      0x00\n      dup1\n      returndatacopy\n      revert(0x00, returndatasize)\n    tag_84:\n      pop\n      pop\n      pop\n      pop\n        /* \"SuperDepositor.sol\":3262:4067  {... */\n      pop\n      pop\n      pop\n      pop\n      pop\n        /* \"SuperDepositor.sol\":3149:4067  function _joinPool(IAsset[] memory underlyings, uint256 amtIn, uint256 tokenIndex, bytes32 beetsPoolId) internal {... */\n      pop\n      pop\n      pop\n      pop\n      jump\t// out\n        /* \"SuperDepositor.sol\":2344:2751  function _depositLPToVault(address lp, address vault, address recipient) internal {... */\n    tag_44:\n        /* \"SuperDepositor.sol\":2462:2489  _approveIfNeeded(vault, lp) */\n      tag_86\n        /* \"SuperDepositor.sol\":2479:2484  vault */\n      dup3\n        /* \"SuperDepositor.sol\":2486:2488  lp */\n      dup5\n        /* \"SuperDepositor.sol\":2462:2478  _approveIfNeeded */\n      tag_87\n        /* \"SuperDepositor.sol\":2462:2489  _approveIfNeeded(vault, lp) */\n      jump\t// in\n    tag_86:\n        /* \"SuperDepositor.sol\":2557:2562  vault */\n      dup2\n        /* \"SuperDepositor.sol\":2550:2574  IVault(vault).depositAll */\n      0xffffffffffffffffffffffffffffffffffffffff\n      and\n      0xde5f6268\n        /* \"SuperDepositor.sol\":2550:2576  IVault(vault).depositAll() */\n      mload(0x40)\n      dup2\n      0xffffffff\n      and\n      0xe0\n      shl\n      dup2\n      mstore\n      0x04\n      add\n      0x00\n      mload(0x40)\n      dup1\n      dup4\n      sub\n      dup2\n      0x00\n      dup8\n      dup1\n      extcodesize\n      iszero\n      dup1\n      iszero\n      tag_88\n      jumpi\n      0x00\n      dup1\n      revert\n    tag_88:\n      pop\n      gas\n      call\n      iszero\n      dup1\n      iszero\n      tag_90\n      jumpi\n      returndatasize\n      0x00\n      dup1\n      returndatacopy\n      revert(0x00, returndatasize)\n    tag_90:\n      pop\n      pop\n      pop\n      pop\n        /* \"SuperDepositor.sol\":2618:2642  IERC20Upgradeable shares */\n      0x00\n        /* \"SuperDepositor.sol\":2663:2668  vault */\n      dup3\n        /* \"SuperDepositor.sol\":2618:2669  IERC20Upgradeable shares = IERC20Upgradeable(vault) */\n      swap1\n      pop\n        /* \"SuperDepositor.sol\":2680:2743  shares.safeTransfer(recipient, shares.balanceOf(address(this))) */\n      tag_91\n        /* \"SuperDepositor.sol\":2700:2709  recipient */\n      dup3\n        /* \"SuperDepositor.sol\":2711:2717  shares */\n      dup3\n        /* \"SuperDepositor.sol\":2711:2727  shares.balanceOf */\n      0xffffffffffffffffffffffffffffffffffffffff\n      and\n      0x70a08231\n        /* \"SuperDepositor.sol\":2736:2740  this */\n      address\n        /* \"SuperDepositor.sol\":2711:2742  shares.balanceOf(address(this)) */\n      mload(0x40)\n      dup3\n      0xffffffff\n      and\n      0xe0\n      shl\n      dup2\n      mstore\n      0x04\n      add\n      tag_92\n      swap2\n      swap1\n      tag_14\n      jump\t// in\n    tag_92:\n      0x20\n      mload(0x40)\n      dup1\n      dup4\n      sub\n      dup2\n      dup7\n      gas\n      staticcall\n      iszero\n      dup1\n      iszero\n      tag_94\n      jumpi\n      returndatasize\n      0x00\n      dup1\n      returndatacopy\n      revert(0x00, returndatasize)\n    tag_94:\n      pop\n      pop\n      pop\n      pop\n      mload(0x40)\n      returndatasize\n      not(0x1f)\n      0x1f\n      dup3\n      add\n      and\n      dup3\n      add\n      dup1\n      0x40\n      mstore\n      pop\n      dup2\n      add\n      swap1\n      tag_95\n      swap2\n      swap1\n      tag_96\n      jump\t// in\n    tag_95:\n        /* \"SuperDepositor.sol\":2680:2686  shares */\n      dup4\n        /* \"SuperDepositor.sol\":2680:2699  shares.safeTransfer */\n      0xffffffffffffffffffffffffffffffffffffffff\n      and\n      tag_97\n      swap1\n        /* \"SuperDepositor.sol\":2680:2743  shares.safeTransfer(recipient, shares.balanceOf(address(this))) */\n      swap3\n      swap2\n      swap1\n      0xffffffff\n      and\n      jump\t// in\n    tag_91:\n        /* \"SuperDepositor.sol\":2426:2751  {... */\n      pop\n        /* \"SuperDepositor.sol\":2344:2751  function _depositLPToVault(address lp, address vault, address recipient) internal {... */\n      pop\n      pop\n      pop\n      jump\t// out\n        /* \"@openzeppelin/contracts-upgradeable/token/ERC20/utils/SafeERC20Upgradeable.sol\":3306:4023  function _callOptionalReturn(IERC20Upgradeable token, bytes memory data) private {... */\n    tag_49:\n        /* \"@openzeppelin/contracts-upgradeable/token/ERC20/utils/SafeERC20Upgradeable.sol\":3736:3759  bytes memory returndata */\n      0x00\n        /* \"@openzeppelin/contracts-upgradeable/token/ERC20/utils/SafeERC20Upgradeable.sol\":3762:3831  address(token).functionCall(data, \"SafeERC20: low-level call failed\") */\n      tag_99\n        /* \"@openzeppelin/contracts-upgradeable/token/ERC20/utils/SafeERC20Upgradeable.sol\":3790:3794  data */\n      dup3\n        /* \"@openzeppelin/contracts-upgradeable/token/ERC20/utils/SafeERC20Upgradeable.sol\":3762:3831  address(token).functionCall(data, \"SafeERC20: low-level call failed\") */\n      mload(0x40)\n      dup1\n      0x40\n      add\n      0x40\n      mstore\n      dup1\n      0x20\n      dup2\n      mstore\n      0x20\n      add\n      0x5361666545524332303a206c6f772d6c6576656c2063616c6c206661696c6564\n      dup2\n      mstore\n      pop\n        /* \"@openzeppelin/contracts-upgradeable/token/ERC20/utils/SafeERC20Upgradeable.sol\":3770:3775  token */\n      dup6\n        /* \"@openzeppelin/contracts-upgradeable/token/ERC20/utils/SafeERC20Upgradeable.sol\":3762:3789  address(token).functionCall */\n      0xffffffffffffffffffffffffffffffffffffffff\n      and\n      tag_100\n      swap1\n        /* \"@openzeppelin/contracts-upgradeable/token/ERC20/utils/SafeERC20Upgradeable.sol\":3762:3831  address(token).functionCall(data, \"SafeERC20: low-level call failed\") */\n      swap3\n      swap2\n      swap1\n      0xffffffff\n      and\n      jump\t// in\n    tag_99:\n        /* \"@openzeppelin/contracts-upgradeable/token/ERC20/utils/SafeERC20Upgradeable.sol\":3736:3831  bytes memory returndata = address(token).functionCall(data, \"SafeERC20: low-level call failed\") */\n      swap1\n      pop\n        /* \"@openzeppelin/contracts-upgradeable/token/ERC20/utils/SafeERC20Upgradeable.sol\":3865:3866  0 */\n      0x00\n        /* \"@openzeppelin/contracts-upgradeable/token/ERC20/utils/SafeERC20Upgradeable.sol\":3845:3855  returndata */\n      dup2\n        /* \"@openzeppelin/contracts-upgradeable/token/ERC20/utils/SafeERC20Upgradeable.sol\":3845:3862  returndata.length */\n      mload\n        /* \"@openzeppelin/contracts-upgradeable/token/ERC20/utils/SafeERC20Upgradeable.sol\":3845:3866  returndata.length > 0 */\n      gt\n        /* \"@openzeppelin/contracts-upgradeable/token/ERC20/utils/SafeERC20Upgradeable.sol\":3841:4017  if (returndata.length > 0) {... */\n      iszero\n      tag_101\n      jumpi\n        /* \"@openzeppelin/contracts-upgradeable/token/ERC20/utils/SafeERC20Upgradeable.sol\":3940:3950  returndata */\n      dup1\n        /* \"@openzeppelin/contracts-upgradeable/token/ERC20/utils/SafeERC20Upgradeable.sol\":3929:3959  abi.decode(returndata, (bool)) */\n      dup1\n      0x20\n      add\n      swap1\n      mload\n      dup2\n      add\n      swap1\n      tag_102\n      swap2\n      swap1\n      tag_103\n      jump\t// in\n    tag_102:\n        /* \"@openzeppelin/contracts-upgradeable/token/ERC20/utils/SafeERC20Upgradeable.sol\":3921:4006  require(abi.decode(returndata, (bool)), \"SafeERC20: ERC20 operation did not succeed\") */\n      tag_104\n      jumpi\n      mload(0x40)\n      0x08c379a000000000000000000000000000000000000000000000000000000000\n      dup2\n      mstore\n      0x04\n      add\n      tag_105\n      swap1\n      tag_106\n      jump\t// in\n    tag_105:\n      mload(0x40)\n      dup1\n      swap2\n      sub\n      swap1\n      revert\n    tag_104:\n        /* \"@openzeppelin/contracts-upgradeable/token/ERC20/utils/SafeERC20Upgradeable.sol\":3841:4017  if (returndata.length > 0) {... */\n    tag_101:\n        /* \"@openzeppelin/contracts-upgradeable/token/ERC20/utils/SafeERC20Upgradeable.sol\":3387:4023  {... */\n      pop\n        /* \"@openzeppelin/contracts-upgradeable/token/ERC20/utils/SafeERC20Upgradeable.sol\":3306:4023  function _callOptionalReturn(IERC20Upgradeable token, bytes memory data) private {... */\n      pop\n      pop\n      jump\t// out\n        /* \"@openzeppelin/contracts-upgradeable/token/ERC20/utils/SafeERC20Upgradeable.sol\":2099:2420  function safeIncreaseAllowance(... */\n    tag_79:\n        /* \"@openzeppelin/contracts-upgradeable/token/ERC20/utils/SafeERC20Upgradeable.sol\":2236:2256  uint256 newAllowance */\n      0x00\n        /* \"@openzeppelin/contracts-upgradeable/token/ERC20/utils/SafeERC20Upgradeable.sol\":2301:2306  value */\n      dup2\n        /* \"@openzeppelin/contracts-upgradeable/token/ERC20/utils/SafeERC20Upgradeable.sol\":2259:2264  token */\n      dup5\n        /* \"@openzeppelin/contracts-upgradeable/token/ERC20/utils/SafeERC20Upgradeable.sol\":2259:2274  token.allowance */\n      0xffffffffffffffffffffffffffffffffffffffff\n      and\n      0xdd62ed3e\n        /* \"@openzeppelin/contracts-upgradeable/token/ERC20/utils/SafeERC20Upgradeable.sol\":2283:2287  this */\n      address\n        /* \"@openzeppelin/contracts-upgradeable/token/ERC20/utils/SafeERC20Upgradeable.sol\":2290:2297  spender */\n      dup7\n        /* \"@openzeppelin/contracts-upgradeable/token/ERC20/utils/SafeERC20Upgradeable.sol\":2259:2298  token.allowance(address(this), spender) */\n      mload(0x40)\n      dup4\n      0xffffffff\n      and\n      0xe0\n      shl\n      dup2\n      mstore\n      0x04\n      add\n      tag_108\n      swap3\n      swap2\n      swap1\n      tag_109\n      jump\t// in\n    tag_108:\n      0x20\n      mload(0x40)\n      dup1\n      dup4\n      sub\n      dup2\n      dup7\n      gas\n      staticcall\n      iszero\n      dup1\n      iszero\n      tag_111\n      jumpi\n      returndatasize\n      0x00\n      dup1\n      returndatacopy\n      revert(0x00, returndatasize)\n    tag_111:\n      pop\n      pop\n      pop\n      pop\n      mload(0x40)\n      returndatasize\n      not(0x1f)\n      0x1f\n      dup3\n      add\n      and\n      dup3\n      add\n      dup1\n      0x40\n      mstore\n      pop\n      dup2\n      add\n      swap1\n      tag_112\n      swap2\n      swap1\n      tag_96\n      jump\t// in\n    tag_112:\n        /* \"@openzeppelin/contracts-upgradeable/token/ERC20/utils/SafeERC20Upgradeable.sol\":2259:2306  token.allowance(address(this), spender) + value */\n      tag_113\n      swap2\n      swap1\n      tag_114\n      jump\t// in\n    tag_113:\n        /* \"@openzeppelin/contracts-upgradeable/token/ERC20/utils/SafeERC20Upgradeable.sol\":2236:2306  uint256 newAllowance = token.allowance(address(this), spender) + value */\n      swap1\n      pop\n        /* \"@openzeppelin/contracts-upgradeable/token/ERC20/utils/SafeERC20Upgradeable.sol\":2316:2413  _callOptionalReturn(token, abi.encodeWithSelector(token.approve.selector, spender, newAllowance)) */\n      tag_115\n        /* \"@openzeppelin/contracts-upgradeable/token/ERC20/utils/SafeERC20Upgradeable.sol\":2336:2341  token */\n      dup5\n        /* \"@openzeppelin/contracts-upgradeable/token/ERC20/utils/SafeERC20Upgradeable.sol\":2366:2388  token.approve.selector */\n      shl(0xe0, 0x095ea7b3)\n        /* \"@openzeppelin/contracts-upgradeable/token/ERC20/utils/SafeERC20Upgradeable.sol\":2390:2397  spender */\n      dup6\n        /* \"@openzeppelin/contracts-upgradeable/token/ERC20/utils/SafeERC20Upgradeable.sol\":2399:2411  newAllowance */\n      dup5\n        /* \"@openzeppelin/contracts-upgradeable/token/ERC20/utils/SafeERC20Upgradeable.sol\":2343:2412  abi.encodeWithSelector(token.approve.selector, spender, newAllowance) */\n      add(0x24, mload(0x40))\n      tag_116\n      swap3\n      swap2\n      swap1\n      tag_117\n      jump\t// in\n    tag_116:\n      mload(0x40)\n      0x20\n      dup2\n      dup4\n      sub\n      sub\n      dup2\n      mstore\n      swap1\n      0x40\n      mstore\n      swap1\n      not(0xffffffffffffffffffffffffffffffffffffffffffffffffffffffff)\n      and\n      0x20\n      dup3\n      add\n      dup1\n      mload\n      0xffffffffffffffffffffffffffffffffffffffffffffffffffffffff\n      dup4\n      dup2\n      dup4\n      and\n      or\n      dup4\n      mstore\n      pop\n      pop\n      pop\n      pop\n        /* \"@openzeppelin/contracts-upgradeable/token/ERC20/utils/SafeERC20Upgradeable.sol\":2316:2335  _callOptionalReturn */\n      tag_49\n        /* \"@openzeppelin/contracts-upgradeable/token/ERC20/utils/SafeERC20Upgradeable.sol\":2316:2413  _callOptionalReturn(token, abi.encodeWithSelector(token.approve.selector, spender, newAllowance)) */\n      jump\t// in\n    tag_115:\n        /* \"@openzeppelin/contracts-upgradeable/token/ERC20/utils/SafeERC20Upgradeable.sol\":2226:2420  {... */\n      pop\n        /* \"@openzeppelin/contracts-upgradeable/token/ERC20/utils/SafeERC20Upgradeable.sol\":2099:2420  function safeIncreaseAllowance(... */\n      pop\n      pop\n      pop\n      jump\t// out\n        /* \"SuperDepositor.sol\":2759:3049  function _approveIfNeeded(address spender, address token) internal {... */\n    tag_87:\n        /* \"SuperDepositor.sol\":2837:2861  IERC20Upgradeable token_ */\n      0x00\n        /* \"SuperDepositor.sol\":2882:2887  token */\n      dup2\n        /* \"SuperDepositor.sol\":2837:2888  IERC20Upgradeable token_ = IERC20Upgradeable(token) */\n      swap1\n      pop\n        /* \"SuperDepositor.sol\":2955:2956  0 */\n      0x00\n        /* \"SuperDepositor.sol\":2903:2909  token_ */\n      dup2\n        /* \"SuperDepositor.sol\":2903:2919  token_.allowance */\n      0xffffffffffffffffffffffffffffffffffffffff\n      and\n      0xdd62ed3e\n        /* \"SuperDepositor.sol\":2928:2932  this */\n      address\n        /* \"SuperDepositor.sol\":2935:2942  spender */\n      dup7\n        /* \"SuperDepositor.sol\":2903:2943  token_.allowance(address(this), spender) */\n      mload(0x40)\n      dup4\n      0xffffffff\n      and\n      0xe0\n      shl\n      dup2\n      mstore\n      0x04\n      add\n      tag_119\n      swap3\n      swap2\n      swap1\n      tag_109\n      jump\t// in\n    tag_119:\n      0x20\n      mload(0x40)\n      dup1\n      dup4\n      sub\n      dup2\n      dup7\n      gas\n      staticcall\n      iszero\n      dup1\n      iszero\n      tag_121\n      jumpi\n      returndatasize\n      0x00\n      dup1\n      returndatacopy\n      revert(0x00, returndatasize)\n    tag_121:\n      pop\n      pop\n      pop\n      pop\n      mload(0x40)\n      returndatasize\n      not(0x1f)\n      0x1f\n      dup3\n      add\n      and\n      dup3\n      add\n      dup1\n      0x40\n      mstore\n      pop\n      dup2\n      add\n      swap1\n      tag_122\n      swap2\n      swap1\n      tag_96\n      jump\t// in\n    tag_122:\n        /* \"SuperDepositor.sol\":2903:2957  token_.allowance(address(this), spender) == uint256(0) */\n      sub\n        /* \"SuperDepositor.sol\":2899:3042  if (token_.allowance(address(this), spender) == uint256(0)) {... */\n      tag_123\n      jumpi\n        /* \"SuperDepositor.sol\":2974:3030  token_.safeIncreaseAllowance(spender, type(uint256).max) */\n      tag_124\n        /* \"SuperDepositor.sol\":3003:3010  spender */\n      dup4\n        /* \"SuperDepositor.sol\":3012:3029  type(uint256).max */\n      0xffffffffffffffffffffffffffffffffffffffffffffffffffffffffffffffff\n        /* \"SuperDepositor.sol\":2974:2980  token_ */\n      dup4\n        /* \"SuperDepositor.sol\":2974:3002  token_.safeIncreaseAllowance */\n      0xffffffffffffffffffffffffffffffffffffffff\n      and\n      tag_79\n      swap1\n        /* \"SuperDepositor.sol\":2974:3030  token_.safeIncreaseAllowance(spender, type(uint256).max) */\n      swap3\n      swap2\n      swap1\n      0xffffffff\n      and\n      jump\t// in\n    tag_124:\n        /* \"SuperDepositor.sol\":2899:3042  if (token_.allowance(address(this), spender) == uint256(0)) {... */\n    tag_123:\n        /* \"SuperDepositor.sol\":2826:3049  {... */\n      pop\n        /* \"SuperDepositor.sol\":2759:3049  function _approveIfNeeded(address spender, address token) internal {... */\n      pop\n      pop\n      jump\t// out\n        /* \"@openzeppelin/contracts-upgradeable/token/ERC20/utils/SafeERC20Upgradeable.sol\":745:961  function safeTransfer(... */\n    tag_97:\n        /* \"@openzeppelin/contracts-upgradeable/token/ERC20/utils/SafeERC20Upgradeable.sol\":868:954  _callOptionalReturn(token, abi.encodeWithSelector(token.transfer.selector, to, value)) */\n      tag_126\n        /* \"@openzeppelin/contracts-upgradeable/token/ERC20/utils/SafeERC20Upgradeable.sol\":888:893  token */\n      dup4\n        /* \"@openzeppelin/contracts-upgradeable/token/ERC20/utils/SafeERC20Upgradeable.sol\":918:941  token.transfer.selector */\n      shl(0xe0, 0xa9059cbb)\n        /* \"@openzeppelin/contracts-upgradeable/token/ERC20/utils/SafeERC20Upgradeable.sol\":943:945  to */\n      dup5\n        /* \"@openzeppelin/contracts-upgradeable/token/ERC20/utils/SafeERC20Upgradeable.sol\":947:952  value */\n      dup5\n        /* \"@openzeppelin/contracts-upgradeable/token/ERC20/utils/SafeERC20Upgradeable.sol\":895:953  abi.encodeWithSelector(token.transfer.selector, to, value) */\n      add(0x24, mload(0x40))\n      tag_127\n      swap3\n      swap2\n      swap1\n      tag_117\n      jump\t// in\n    tag_127:\n      mload(0x40)\n      0x20\n      dup2\n      dup4\n      sub\n      sub\n      dup2\n      mstore\n      swap1\n      0x40\n      mstore\n      swap1\n      not(0xffffffffffffffffffffffffffffffffffffffffffffffffffffffff)\n      and\n      0x20\n      dup3\n      add\n      dup1\n      mload\n      0xffffffffffffffffffffffffffffffffffffffffffffffffffffffff\n      dup4\n      dup2\n      dup4\n      and\n      or\n      dup4\n      mstore\n      pop\n      pop\n      pop\n      pop\n        /* \"@openzeppelin/contracts-upgradeable/token/ERC20/utils/SafeERC20Upgradeable.sol\":868:887  _callOptionalReturn */\n      tag_49\n        /* \"@openzeppelin/contracts-upgradeable/token/ERC20/utils/SafeERC20Upgradeable.sol\":868:954  _callOptionalReturn(token, abi.encodeWithSelector(token.transfer.selector, to, value)) */\n      jump\t// in\n    tag_126:\n        /* \"@openzeppelin/contracts-upgradeable/token/ERC20/utils/SafeERC20Upgradeable.sol\":745:961  function safeTransfer(... */\n      pop\n      pop\n      pop\n      jump\t// out\n        /* \"@openzeppelin/contracts-upgradeable/utils/AddressUpgradeable.sol\":3872:4095  function functionCall(... */\n    tag_100:\n        /* \"@openzeppelin/contracts-upgradeable/utils/AddressUpgradeable.sol\":4005:4017  bytes memory */\n      0x60\n        /* \"@openzeppelin/contracts-upgradeable/utils/AddressUpgradeable.sol\":4036:4088  functionCallWithValue(target, data, 0, errorMessage) */\n      tag_129\n        /* \"@openzeppelin/contracts-upgradeable/utils/AddressUpgradeable.sol\":4058:4064  target */\n      dup5\n        /* \"@openzeppelin/contracts-upgradeable/utils/AddressUpgradeable.sol\":4066:4070  data */\n      dup5\n        /* \"@openzeppelin/contracts-upgradeable/utils/AddressUpgradeable.sol\":4072:4073  0 */\n      0x00\n        /* \"@openzeppelin/contracts-upgradeable/utils/AddressUpgradeable.sol\":4075:4087  errorMessage */\n      dup6\n        /* \"@openzeppelin/contracts-upgradeable/utils/AddressUpgradeable.sol\":4036:4057  functionCallWithValue */\n      tag_130\n        /* \"@openzeppelin/contracts-upgradeable/utils/AddressUpgradeable.sol\":4036:4088  functionCallWithValue(target, data, 0, errorMessage) */\n      jump\t// in\n    tag_129:\n        /* \"@openzeppelin/contracts-upgradeable/utils/AddressUpgradeable.sol\":4029:4088  return functionCallWithValue(target, data, 0, errorMessage) */\n      swap1\n      pop\n        /* \"@openzeppelin/contracts-upgradeable/utils/AddressUpgradeable.sol\":3872:4095  function functionCall(... */\n      swap4\n      swap3\n      pop\n      pop\n      pop\n      jump\t// out\n        /* \"@openzeppelin/contracts-upgradeable/utils/AddressUpgradeable.sol\":4959:5458  function functionCallWithValue(... */\n    tag_130:\n        /* \"@openzeppelin/contracts-upgradeable/utils/AddressUpgradeable.sol\":5124:5136  bytes memory */\n      0x60\n        /* \"@openzeppelin/contracts-upgradeable/utils/AddressUpgradeable.sol\":5181:5186  value */\n      dup3\n        /* \"@openzeppelin/contracts-upgradeable/utils/AddressUpgradeable.sol\":5156:5177  address(this).balance */\n      selfbalance\n        /* \"@openzeppelin/contracts-upgradeable/utils/AddressUpgradeable.sol\":5156:5186  address(this).balance >= value */\n      lt\n      iszero\n        /* \"@openzeppelin/contracts-upgradeable/utils/AddressUpgradeable.sol\":5148:5229  require(address(this).balance >= value, \"Address: insufficient balance for call\") */\n      tag_132\n      jumpi\n      mload(0x40)\n      0x08c379a000000000000000000000000000000000000000000000000000000000\n      dup2\n      mstore\n      0x04\n      add\n      tag_133\n      swap1\n      tag_134\n      jump\t// in\n    tag_133:\n      mload(0x40)\n      dup1\n      swap2\n      sub\n      swap1\n      revert\n    tag_132:\n        /* \"@openzeppelin/contracts-upgradeable/utils/AddressUpgradeable.sol\":5247:5265  isContract(target) */\n      tag_135\n        /* \"@openzeppelin/contracts-upgradeable/utils/AddressUpgradeable.sol\":5258:5264  target */\n      dup6\n        /* \"@openzeppelin/contracts-upgradeable/utils/AddressUpgradeable.sol\":5247:5257  isContract */\n      tag_136\n        /* \"@openzeppelin/contracts-upgradeable/utils/AddressUpgradeable.sol\":5247:5265  isContract(target) */\n      jump\t// in\n    tag_135:\n        /* \"@openzeppelin/contracts-upgradeable/utils/AddressUpgradeable.sol\":5239:5299  require(isContract(target), \"Address: call to non-contract\") */\n      tag_137\n      jumpi\n      mload(0x40)\n      0x08c379a000000000000000000000000000000000000000000000000000000000\n      dup2\n      mstore\n      0x04\n      add\n      tag_138\n      swap1\n      tag_139\n      jump\t// in\n    tag_138:\n      mload(0x40)\n      dup1\n      swap2\n      sub\n      swap1\n      revert\n    tag_137:\n        /* \"@openzeppelin/contracts-upgradeable/utils/AddressUpgradeable.sol\":5311:5323  bool success */\n      0x00\n        /* \"@openzeppelin/contracts-upgradeable/utils/AddressUpgradeable.sol\":5325:5348  bytes memory returndata */\n      dup1\n        /* \"@openzeppelin/contracts-upgradeable/utils/AddressUpgradeable.sol\":5352:5358  target */\n      dup7\n        /* \"@openzeppelin/contracts-upgradeable/utils/AddressUpgradeable.sol\":5352:5363  target.call */\n      0xffffffffffffffffffffffffffffffffffffffff\n      and\n        /* \"@openzeppelin/contracts-upgradeable/utils/AddressUpgradeable.sol\":5371:5376  value */\n      dup6\n        /* \"@openzeppelin/contracts-upgradeable/utils/AddressUpgradeable.sol\":5378:5382  data */\n      dup8\n        /* \"@openzeppelin/contracts-upgradeable/utils/AddressUpgradeable.sol\":5352:5383  target.call{value: value}(data) */\n      mload(0x40)\n      tag_140\n      swap2\n      swap1\n      tag_141\n      jump\t// in\n    tag_140:\n      0x00\n      mload(0x40)\n      dup1\n      dup4\n      sub\n      dup2\n      dup6\n      dup8\n      gas\n      call\n      swap3\n      pop\n      pop\n      pop\n      returndatasize\n      dup1\n      0x00\n      dup2\n      eq\n      tag_144\n      jumpi\n      mload(0x40)\n      swap2\n      pop\n      and(add(returndatasize, 0x3f), not(0x1f))\n      dup3\n      add\n      0x40\n      mstore\n      returndatasize\n      dup3\n      mstore\n      returndatasize\n      0x00\n      0x20\n      dup5\n      add\n      returndatacopy\n      jump(tag_143)\n    tag_144:\n      0x60\n      swap2\n      pop\n    tag_143:\n      pop\n        /* \"@openzeppelin/contracts-upgradeable/utils/AddressUpgradeable.sol\":5310:5383  (bool success, bytes memory returndata) = target.call{value: value}(data) */\n      swap2\n      pop\n      swap2\n      pop\n        /* \"@openzeppelin/contracts-upgradeable/utils/AddressUpgradeable.sol\":5400:5451  verifyCallResult(success, returndata, errorMessage) */\n      tag_145\n        /* \"@openzeppelin/contracts-upgradeable/utils/AddressUpgradeable.sol\":5417:5424  success */\n      dup3\n        /* \"@openzeppelin/contracts-upgradeable/utils/AddressUpgradeable.sol\":5426:5436  returndata */\n      dup3\n        /* \"@openzeppelin/contracts-upgradeable/utils/AddressUpgradeable.sol\":5438:5450  errorMessage */\n      dup7\n        /* \"@openzeppelin/contracts-upgradeable/utils/AddressUpgradeable.sol\":5400:5416  verifyCallResult */\n      tag_146\n        /* \"@openzeppelin/contracts-upgradeable/utils/AddressUpgradeable.sol\":5400:5451  verifyCallResult(success, returndata, errorMessage) */\n      jump\t// in\n    tag_145:\n        /* \"@openzeppelin/contracts-upgradeable/utils/AddressUpgradeable.sol\":5393:5451  return verifyCallResult(success, returndata, errorMessage) */\n      swap3\n      pop\n      pop\n      pop\n        /* \"@openzeppelin/contracts-upgradeable/utils/AddressUpgradeable.sol\":4959:5458  function functionCallWithValue(... */\n      swap5\n      swap4\n      pop\n      pop\n      pop\n      pop\n      jump\t// out\n        /* \"@openzeppelin/contracts-upgradeable/utils/AddressUpgradeable.sol\":1186:1506  function isContract(address account) internal view returns (bool) {... */\n    tag_136:\n        /* \"@openzeppelin/contracts-upgradeable/utils/AddressUpgradeable.sol\":1246:1250  bool */\n      0x00\n        /* \"@openzeppelin/contracts-upgradeable/utils/AddressUpgradeable.sol\":1498:1499  0 */\n      dup1\n        /* \"@openzeppelin/contracts-upgradeable/utils/AddressUpgradeable.sol\":1476:1483  account */\n      dup3\n        /* \"@openzeppelin/contracts-upgradeable/utils/AddressUpgradeable.sol\":1476:1495  account.code.length */\n      0xffffffffffffffffffffffffffffffffffffffff\n      and\n      extcodesize\n        /* \"@openzeppelin/contracts-upgradeable/utils/AddressUpgradeable.sol\":1476:1499  account.code.length > 0 */\n      gt\n        /* \"@openzeppelin/contracts-upgradeable/utils/AddressUpgradeable.sol\":1469:1499  return account.code.length > 0 */\n      swap1\n      pop\n        /* \"@openzeppelin/contracts-upgradeable/utils/AddressUpgradeable.sol\":1186:1506  function isContract(address account) internal view returns (bool) {... */\n      swap2\n      swap1\n      pop\n      jump\t// out\n        /* \"@openzeppelin/contracts-upgradeable/utils/AddressUpgradeable.sol\":6622:7314  function verifyCallResult(... */\n    tag_146:\n        /* \"@openzeppelin/contracts-upgradeable/utils/AddressUpgradeable.sol\":6768:6780  bytes memory */\n      0x60\n        /* \"@openzeppelin/contracts-upgradeable/utils/AddressUpgradeable.sol\":6796:6803  success */\n      dup4\n        /* \"@openzeppelin/contracts-upgradeable/utils/AddressUpgradeable.sol\":6792:7308  if (success) {... */\n      iszero\n      tag_149\n      jumpi\n        /* \"@openzeppelin/contracts-upgradeable/utils/AddressUpgradeable.sol\":6826:6836  returndata */\n      dup3\n        /* \"@openzeppelin/contracts-upgradeable/utils/AddressUpgradeable.sol\":6819:6836  return returndata */\n      swap1\n      pop\n      jump(tag_148)\n        /* \"@openzeppelin/contracts-upgradeable/utils/AddressUpgradeable.sol\":6792:7308  if (success) {... */\n    tag_149:\n        /* \"@openzeppelin/contracts-upgradeable/utils/AddressUpgradeable.sol\":6957:6958  0 */\n      0x00\n        /* \"@openzeppelin/contracts-upgradeable/utils/AddressUpgradeable.sol\":6937:6947  returndata */\n      dup4\n        /* \"@openzeppelin/contracts-upgradeable/utils/AddressUpgradeable.sol\":6937:6954  returndata.length */\n      mload\n        /* \"@openzeppelin/contracts-upgradeable/utils/AddressUpgradeable.sol\":6937:6958  returndata.length > 0 */\n      gt\n        /* \"@openzeppelin/contracts-upgradeable/utils/AddressUpgradeable.sol\":6933:7298  if (returndata.length > 0) {... */\n      iszero\n      tag_151\n      jumpi\n        /* \"@openzeppelin/contracts-upgradeable/utils/AddressUpgradeable.sol\":7131:7141  returndata */\n      dup3\n        /* \"@openzeppelin/contracts-upgradeable/utils/AddressUpgradeable.sol\":7125:7142  mload(returndata) */\n      mload\n        /* \"@openzeppelin/contracts-upgradeable/utils/AddressUpgradeable.sol\":7191:7206  returndata_size */\n      dup1\n        /* \"@openzeppelin/contracts-upgradeable/utils/AddressUpgradeable.sol\":7178:7188  returndata */\n      dup5\n        /* \"@openzeppelin/contracts-upgradeable/utils/AddressUpgradeable.sol\":7174:7176  32 */\n      0x20\n        /* \"@openzeppelin/contracts-upgradeable/utils/AddressUpgradeable.sol\":7170:7189  add(32, returndata) */\n      add\n        /* \"@openzeppelin/contracts-upgradeable/utils/AddressUpgradeable.sol\":7163:7207  revert(add(32, returndata), returndata_size) */\n      revert\n        /* \"@openzeppelin/contracts-upgradeable/utils/AddressUpgradeable.sol\":6933:7298  if (returndata.length > 0) {... */\n    tag_151:\n        /* \"@openzeppelin/contracts-upgradeable/utils/AddressUpgradeable.sol\":7270:7282  errorMessage */\n      dup2\n        /* \"@openzeppelin/contracts-upgradeable/utils/AddressUpgradeable.sol\":7263:7283  revert(errorMessage) */\n      mload(0x40)\n      0x08c379a000000000000000000000000000000000000000000000000000000000\n      dup2\n      mstore\n      0x04\n      add\n      tag_153\n      swap2\n      swap1\n      tag_154\n      jump\t// in\n    tag_153:\n      mload(0x40)\n      dup1\n      swap2\n      sub\n      swap1\n      revert\n        /* \"@openzeppelin/contracts-upgradeable/utils/AddressUpgradeable.sol\":6622:7314  function verifyCallResult(... */\n    tag_148:\n      swap4\n      swap3\n      pop\n      pop\n      pop\n      jump\t// out\n    tag_60:\n      mload(0x40)\n      dup1\n      0x80\n      add\n      0x40\n      mstore\n      dup1\n      0x60\n      dup2\n      mstore\n      0x20\n      add\n      0x60\n      dup2\n      mstore\n      0x20\n      add\n      0x60\n      dup2\n      mstore\n      0x20\n      add\n      iszero(iszero(0x00))\n      dup2\n      mstore\n      pop\n      swap1\n      jump\t// out\n    tag_75:\n      mload(0x40)\n      dup1\n      0x80\n      add\n      0x40\n      mstore\n      dup1\n      0x60\n      dup2\n      mstore\n      0x20\n      add\n      0x60\n      dup2\n      mstore\n      0x20\n      add\n      0x60\n      dup2\n      mstore\n      0x20\n      add\n      iszero(iszero(0x00))\n      dup2\n      mstore\n      pop\n      swap1\n      jump\t// out\n        /* \"#utility.yul\":7:82   */\n    tag_155:\n        /* \"#utility.yul\":40:46   */\n      0x00\n        /* \"#utility.yul\":73:75   */\n      0x40\n        /* \"#utility.yul\":67:76   */\n      mload\n        /* \"#utility.yul\":57:76   */\n      swap1\n      pop\n        /* \"#utility.yul\":7:82   */\n      swap1\n      jump\t// out\n        /* \"#utility.yul\":88:205   */\n    tag_156:\n        /* \"#utility.yul\":197:198   */\n      0x00\n        /* \"#utility.yul\":194:195   */\n      dup1\n        /* \"#utility.yul\":187:199   */\n      revert\n        /* \"#utility.yul\":211:328   */\n    tag_157:\n        /* \"#utility.yul\":320:321   */\n      0x00\n        /* \"#utility.yul\":317:318   */\n      dup1\n        /* \"#utility.yul\":310:322   */\n      revert\n        /* \"#utility.yul\":334:451   */\n    tag_158:\n        /* \"#utility.yul\":443:444   */\n      0x00\n        /* \"#utility.yul\":440:441   */\n      dup1\n        /* \"#utility.yul\":433:445   */\n      revert\n        /* \"#utility.yul\":457:559   */\n    tag_159:\n        /* \"#utility.yul\":498:504   */\n      0x00\n        /* \"#utility.yul\":549:551   */\n      0x1f\n        /* \"#utility.yul\":545:552   */\n      not\n        /* \"#utility.yul\":540:542   */\n      0x1f\n        /* \"#utility.yul\":533:538   */\n      dup4\n        /* \"#utility.yul\":529:543   */\n      add\n        /* \"#utility.yul\":525:553   */\n      and\n        /* \"#utility.yul\":515:553   */\n      swap1\n      pop\n        /* \"#utility.yul\":457:559   */\n      swap2\n      swap1\n      pop\n      jump\t// out\n        /* \"#utility.yul\":565:745   */\n    tag_53:\n        /* \"#utility.yul\":613:690   */\n      0x4e487b7100000000000000000000000000000000000000000000000000000000\n        /* \"#utility.yul\":610:611   */\n      0x00\n        /* \"#utility.yul\":603:691   */\n      mstore\n        /* \"#utility.yul\":710:714   */\n      0x41\n        /* \"#utility.yul\":707:708   */\n      0x04\n        /* \"#utility.yul\":700:715   */\n      mstore\n        /* \"#utility.yul\":734:738   */\n      0x24\n        /* \"#utility.yul\":731:732   */\n      0x00\n        /* \"#utility.yul\":724:739   */\n      revert\n        /* \"#utility.yul\":751:1032   */\n    tag_160:\n        /* \"#utility.yul\":834:861   */\n      tag_243\n        /* \"#utility.yul\":856:860   */\n      dup3\n        /* \"#utility.yul\":834:861   */\n      tag_159\n      jump\t// in\n    tag_243:\n        /* \"#utility.yul\":826:832   */\n      dup2\n        /* \"#utility.yul\":822:862   */\n      add\n        /* \"#utility.yul\":964:970   */\n      dup2\n        /* \"#utility.yul\":952:962   */\n      dup2\n        /* \"#utility.yul\":949:971   */\n      lt\n        /* \"#utility.yul\":928:946   */\n      0xffffffffffffffff\n        /* \"#utility.yul\":916:926   */\n      dup3\n        /* \"#utility.yul\":913:947   */\n      gt\n        /* \"#utility.yul\":910:972   */\n      or\n        /* \"#utility.yul\":907:995   */\n      iszero\n      tag_244\n      jumpi\n        /* \"#utility.yul\":975:993   */\n      tag_245\n      tag_53\n      jump\t// in\n    tag_245:\n        /* \"#utility.yul\":907:995   */\n    tag_244:\n        /* \"#utility.yul\":1015:1025   */\n      dup1\n        /* \"#utility.yul\":1011:1013   */\n      0x40\n        /* \"#utility.yul\":1004:1026   */\n      mstore\n        /* \"#utility.yul\":794:1032   */\n      pop\n        /* \"#utility.yul\":751:1032   */\n      pop\n      pop\n      jump\t// out\n        /* \"#utility.yul\":1038:1167   */\n    tag_161:\n        /* \"#utility.yul\":1072:1078   */\n      0x00\n        /* \"#utility.yul\":1099:1119   */\n      tag_247\n      tag_155\n      jump\t// in\n    tag_247:\n        /* \"#utility.yul\":1089:1119   */\n      swap1\n      pop\n        /* \"#utility.yul\":1128:1161   */\n      tag_248\n        /* \"#utility.yul\":1156:1160   */\n      dup3\n        /* \"#utility.yul\":1148:1154   */\n      dup3\n        /* \"#utility.yul\":1128:1161   */\n      tag_160\n      jump\t// in\n    tag_248:\n        /* \"#utility.yul\":1038:1167   */\n      swap2\n      swap1\n      pop\n      jump\t// out\n        /* \"#utility.yul\":1173:1290   */\n    tag_162:\n        /* \"#utility.yul\":1282:1283   */\n      0x00\n        /* \"#utility.yul\":1279:1280   */\n      dup1\n        /* \"#utility.yul\":1272:1284   */\n      revert\n        /* \"#utility.yul\":1296:1413   */\n    tag_163:\n        /* \"#utility.yul\":1405:1406   */\n      0x00\n        /* \"#utility.yul\":1402:1403   */\n      dup1\n        /* \"#utility.yul\":1395:1407   */\n      revert\n        /* \"#utility.yul\":1419:1745   */\n    tag_164:\n        /* \"#utility.yul\":1511:1515   */\n      0x00\n        /* \"#utility.yul\":1601:1619   */\n      0xffffffffffffffff\n        /* \"#utility.yul\":1593:1599   */\n      dup3\n        /* \"#utility.yul\":1590:1620   */\n      gt\n        /* \"#utility.yul\":1587:1643   */\n      iszero\n      tag_252\n      jumpi\n        /* \"#utility.yul\":1623:1641   */\n      tag_253\n      tag_53\n      jump\t// in\n    tag_253:\n        /* \"#utility.yul\":1587:1643   */\n    tag_252:\n        /* \"#utility.yul\":1673:1677   */\n      0x20\n        /* \"#utility.yul\":1665:1671   */\n      dup3\n        /* \"#utility.yul\":1661:1678   */\n      mul\n        /* \"#utility.yul\":1653:1678   */\n      swap1\n      pop\n        /* \"#utility.yul\":1733:1737   */\n      0x20\n        /* \"#utility.yul\":1727:1731   */\n      dup2\n        /* \"#utility.yul\":1723:1738   */\n      add\n        /* \"#utility.yul\":1715:1738   */\n      swap1\n      pop\n        /* \"#utility.yul\":1419:1745   */\n      swap2\n      swap1\n      pop\n      jump\t// out\n        /* \"#utility.yul\":1751:1868   */\n    tag_165:\n        /* \"#utility.yul\":1860:1861   */\n      0x00\n        /* \"#utility.yul\":1857:1858   */\n      dup1\n        /* \"#utility.yul\":1850:1862   */\n      revert\n        /* \"#utility.yul\":1874:2000   */\n    tag_166:\n        /* \"#utility.yul\":1911:1918   */\n      0x00\n        /* \"#utility.yul\":1951:1993   */\n      0xffffffffffffffffffffffffffffffffffffffff\n        /* \"#utility.yul\":1944:1949   */\n      dup3\n        /* \"#utility.yul\":1940:1994   */\n      and\n        /* \"#utility.yul\":1929:1994   */\n      swap1\n      pop\n        /* \"#utility.yul\":1874:2000   */\n      swap2\n      swap1\n      pop\n      jump\t// out\n        /* \"#utility.yul\":2006:2102   */\n    tag_167:\n        /* \"#utility.yul\":2043:2050   */\n      0x00\n        /* \"#utility.yul\":2072:2096   */\n      tag_257\n        /* \"#utility.yul\":2090:2095   */\n      dup3\n        /* \"#utility.yul\":2072:2096   */\n      tag_166\n      jump\t// in\n    tag_257:\n        /* \"#utility.yul\":2061:2096   */\n      swap1\n      pop\n        /* \"#utility.yul\":2006:2102   */\n      swap2\n      swap1\n      pop\n      jump\t// out\n        /* \"#utility.yul\":2108:2219   */\n    tag_168:\n        /* \"#utility.yul\":2160:2167   */\n      0x00\n        /* \"#utility.yul\":2189:2213   */\n      tag_259\n        /* \"#utility.yul\":2207:2212   */\n      dup3\n        /* \"#utility.yul\":2189:2213   */\n      tag_167\n      jump\t// in\n    tag_259:\n        /* \"#utility.yul\":2178:2213   */\n      swap1\n      pop\n        /* \"#utility.yul\":2108:2219   */\n      swap2\n      swap1\n      pop\n      jump\t// out\n        /* \"#utility.yul\":2225:2377   */\n    tag_169:\n        /* \"#utility.yul\":2313:2352   */\n      tag_261\n        /* \"#utility.yul\":2346:2351   */\n      dup2\n        /* \"#utility.yul\":2313:2352   */\n      tag_168\n      jump\t// in\n    tag_261:\n        /* \"#utility.yul\":2306:2311   */\n      dup2\n        /* \"#utility.yul\":2303:2353   */\n      eq\n        /* \"#utility.yul\":2293:2371   */\n      tag_262\n      jumpi\n        /* \"#utility.yul\":2367:2368   */\n      0x00\n        /* \"#utility.yul\":2364:2365   */\n      dup1\n        /* \"#utility.yul\":2357:2369   */\n      revert\n        /* \"#utility.yul\":2293:2371   */\n    tag_262:\n        /* \"#utility.yul\":2225:2377   */\n      pop\n      jump\t// out\n        /* \"#utility.yul\":2383:2552   */\n    tag_170:\n        /* \"#utility.yul\":2444:2449   */\n      0x00\n        /* \"#utility.yul\":2482:2488   */\n      dup2\n        /* \"#utility.yul\":2469:2489   */\n      calldataload\n        /* \"#utility.yul\":2460:2489   */\n      swap1\n      pop\n        /* \"#utility.yul\":2498:2546   */\n      tag_264\n        /* \"#utility.yul\":2540:2545   */\n      dup2\n        /* \"#utility.yul\":2498:2546   */\n      tag_169\n      jump\t// in\n    tag_264:\n        /* \"#utility.yul\":2383:2552   */\n      swap3\n      swap2\n      pop\n      pop\n      jump\t// out\n        /* \"#utility.yul\":2583:3338   */\n    tag_171:\n        /* \"#utility.yul\":2694:2699   */\n      0x00\n        /* \"#utility.yul\":2719:2815   */\n      tag_266\n        /* \"#utility.yul\":2735:2814   */\n      tag_267\n        /* \"#utility.yul\":2807:2813   */\n      dup5\n        /* \"#utility.yul\":2735:2814   */\n      tag_164\n      jump\t// in\n    tag_267:\n        /* \"#utility.yul\":2719:2815   */\n      tag_161\n      jump\t// in\n    tag_266:\n        /* \"#utility.yul\":2710:2815   */\n      swap1\n      pop\n        /* \"#utility.yul\":2835:2840   */\n      dup1\n        /* \"#utility.yul\":2864:2870   */\n      dup4\n        /* \"#utility.yul\":2857:2862   */\n      dup3\n        /* \"#utility.yul\":2850:2871   */\n      mstore\n        /* \"#utility.yul\":2898:2902   */\n      0x20\n        /* \"#utility.yul\":2891:2896   */\n      dup3\n        /* \"#utility.yul\":2887:2903   */\n      add\n        /* \"#utility.yul\":2880:2903   */\n      swap1\n      pop\n        /* \"#utility.yul\":2951:2955   */\n      0x20\n        /* \"#utility.yul\":2943:2949   */\n      dup5\n        /* \"#utility.yul\":2939:2956   */\n      mul\n        /* \"#utility.yul\":2931:2937   */\n      dup4\n        /* \"#utility.yul\":2927:2957   */\n      add\n        /* \"#utility.yul\":2980:2983   */\n      dup6\n        /* \"#utility.yul\":2972:2978   */\n      dup2\n        /* \"#utility.yul\":2969:2984   */\n      gt\n        /* \"#utility.yul\":2966:3088   */\n      iszero\n      tag_268\n      jumpi\n        /* \"#utility.yul\":2999:3078   */\n      tag_269\n      tag_165\n      jump\t// in\n    tag_269:\n        /* \"#utility.yul\":2966:3088   */\n    tag_268:\n        /* \"#utility.yul\":3114:3120   */\n      dup4\n        /* \"#utility.yul\":3097:3332   */\n    tag_270:\n        /* \"#utility.yul\":3131:3137   */\n      dup2\n        /* \"#utility.yul\":3126:3129   */\n      dup2\n        /* \"#utility.yul\":3123:3138   */\n      lt\n        /* \"#utility.yul\":3097:3332   */\n      iszero\n      tag_272\n      jumpi\n        /* \"#utility.yul\":3206:3209   */\n      dup1\n        /* \"#utility.yul\":3235:3287   */\n      tag_273\n        /* \"#utility.yul\":3283:3286   */\n      dup9\n        /* \"#utility.yul\":3271:3281   */\n      dup3\n        /* \"#utility.yul\":3235:3287   */\n      tag_170\n      jump\t// in\n    tag_273:\n        /* \"#utility.yul\":3230:3233   */\n      dup5\n        /* \"#utility.yul\":3223:3288   */\n      mstore\n        /* \"#utility.yul\":3317:3321   */\n      0x20\n        /* \"#utility.yul\":3312:3315   */\n      dup5\n        /* \"#utility.yul\":3308:3322   */\n      add\n        /* \"#utility.yul\":3301:3322   */\n      swap4\n      pop\n        /* \"#utility.yul\":3173:3332   */\n      pop\n        /* \"#utility.yul\":3157:3161   */\n      0x20\n        /* \"#utility.yul\":3152:3155   */\n      dup2\n        /* \"#utility.yul\":3148:3162   */\n      add\n        /* \"#utility.yul\":3141:3162   */\n      swap1\n      pop\n        /* \"#utility.yul\":3097:3332   */\n      jump(tag_270)\n    tag_272:\n        /* \"#utility.yul\":3101:3122   */\n      pop\n        /* \"#utility.yul\":2700:3338   */\n      pop\n      pop\n        /* \"#utility.yul\":2583:3338   */\n      swap4\n      swap3\n      pop\n      pop\n      pop\n      jump\t// out\n        /* \"#utility.yul\":3369:3769   */\n    tag_172:\n        /* \"#utility.yul\":3455:3460   */\n      0x00\n        /* \"#utility.yul\":3504:3507   */\n      dup3\n        /* \"#utility.yul\":3497:3501   */\n      0x1f\n        /* \"#utility.yul\":3489:3495   */\n      dup4\n        /* \"#utility.yul\":3485:3502   */\n      add\n        /* \"#utility.yul\":3481:3508   */\n      slt\n        /* \"#utility.yul\":3471:3593   */\n      tag_275\n      jumpi\n        /* \"#utility.yul\":3512:3591   */\n      tag_276\n      tag_163\n      jump\t// in\n    tag_276:\n        /* \"#utility.yul\":3471:3593   */\n    tag_275:\n        /* \"#utility.yul\":3629:3635   */\n      dup2\n        /* \"#utility.yul\":3616:3636   */\n      calldataload\n        /* \"#utility.yul\":3654:3763   */\n      tag_277\n        /* \"#utility.yul\":3759:3762   */\n      dup5\n        /* \"#utility.yul\":3751:3757   */\n      dup3\n        /* \"#utility.yul\":3744:3748   */\n      0x20\n        /* \"#utility.yul\":3736:3742   */\n      dup7\n        /* \"#utility.yul\":3732:3749   */\n      add\n        /* \"#utility.yul\":3654:3763   */\n      tag_171\n      jump\t// in\n    tag_277:\n        /* \"#utility.yul\":3645:3763   */\n      swap2\n      pop\n        /* \"#utility.yul\":3461:3769   */\n      pop\n        /* \"#utility.yul\":3369:3769   */\n      swap3\n      swap2\n      pop\n      pop\n      jump\t// out\n        /* \"#utility.yul\":3775:3852   */\n    tag_173:\n        /* \"#utility.yul\":3812:3819   */\n      0x00\n        /* \"#utility.yul\":3841:3846   */\n      dup2\n        /* \"#utility.yul\":3830:3846   */\n      swap1\n      pop\n        /* \"#utility.yul\":3775:3852   */\n      swap2\n      swap1\n      pop\n      jump\t// out\n        /* \"#utility.yul\":3858:3980   */\n    tag_174:\n        /* \"#utility.yul\":3931:3955   */\n      tag_280\n        /* \"#utility.yul\":3949:3954   */\n      dup2\n        /* \"#utility.yul\":3931:3955   */\n      tag_173\n      jump\t// in\n    tag_280:\n        /* \"#utility.yul\":3924:3929   */\n      dup2\n        /* \"#utility.yul\":3921:3956   */\n      eq\n        /* \"#utility.yul\":3911:3974   */\n      tag_281\n      jumpi\n        /* \"#utility.yul\":3970:3971   */\n      0x00\n        /* \"#utility.yul\":3967:3968   */\n      dup1\n        /* \"#utility.yul\":3960:3972   */\n      revert\n        /* \"#utility.yul\":3911:3974   */\n    tag_281:\n        /* \"#utility.yul\":3858:3980   */\n      pop\n      jump\t// out\n        /* \"#utility.yul\":3986:4125   */\n    tag_175:\n        /* \"#utility.yul\":4032:4037   */\n      0x00\n        /* \"#utility.yul\":4070:4076   */\n      dup2\n        /* \"#utility.yul\":4057:4077   */\n      calldataload\n        /* \"#utility.yul\":4048:4077   */\n      swap1\n      pop\n        /* \"#utility.yul\":4086:4119   */\n      tag_283\n        /* \"#utility.yul\":4113:4118   */\n      dup2\n        /* \"#utility.yul\":4086:4119   */\n      tag_174\n      jump\t// in\n    tag_283:\n        /* \"#utility.yul\":3986:4125   */\n      swap3\n      swap2\n      pop\n      pop\n      jump\t// out\n        /* \"#utility.yul\":4131:4208   */\n    tag_176:\n        /* \"#utility.yul\":4168:4175   */\n      0x00\n        /* \"#utility.yul\":4197:4202   */\n      dup2\n        /* \"#utility.yul\":4186:4202   */\n      swap1\n      pop\n        /* \"#utility.yul\":4131:4208   */\n      swap2\n      swap1\n      pop\n      jump\t// out\n        /* \"#utility.yul\":4214:4336   */\n    tag_177:\n        /* \"#utility.yul\":4287:4311   */\n      tag_286\n        /* \"#utility.yul\":4305:4310   */\n      dup2\n        /* \"#utility.yul\":4287:4311   */\n      tag_176\n      jump\t// in\n    tag_286:\n        /* \"#utility.yul\":4280:4285   */\n      dup2\n        /* \"#utility.yul\":4277:4312   */\n      eq\n        /* \"#utility.yul\":4267:4330   */\n      tag_287\n      jumpi\n        /* \"#utility.yul\":4326:4327   */\n      0x00\n        /* \"#utility.yul\":4323:4324   */\n      dup1\n        /* \"#utility.yul\":4316:4328   */\n      revert\n        /* \"#utility.yul\":4267:4330   */\n    tag_287:\n        /* \"#utility.yul\":4214:4336   */\n      pop\n      jump\t// out\n        /* \"#utility.yul\":4342:4481   */\n    tag_178:\n        /* \"#utility.yul\":4388:4393   */\n      0x00\n        /* \"#utility.yul\":4426:4432   */\n      dup2\n        /* \"#utility.yul\":4413:4433   */\n      calldataload\n        /* \"#utility.yul\":4404:4433   */\n      swap1\n      pop\n        /* \"#utility.yul\":4442:4475   */\n      tag_289\n        /* \"#utility.yul\":4469:4474   */\n      dup2\n        /* \"#utility.yul\":4442:4475   */\n      tag_177\n      jump\t// in\n    tag_289:\n        /* \"#utility.yul\":4342:4481   */\n      swap3\n      swap2\n      pop\n      pop\n      jump\t// out\n        /* \"#utility.yul\":4487:4609   */\n    tag_179:\n        /* \"#utility.yul\":4560:4584   */\n      tag_291\n        /* \"#utility.yul\":4578:4583   */\n      dup2\n        /* \"#utility.yul\":4560:4584   */\n      tag_167\n      jump\t// in\n    tag_291:\n        /* \"#utility.yul\":4553:4558   */\n      dup2\n        /* \"#utility.yul\":4550:4585   */\n      eq\n        /* \"#utility.yul\":4540:4603   */\n      tag_292\n      jumpi\n        /* \"#utility.yul\":4599:4600   */\n      0x00\n        /* \"#utility.yul\":4596:4597   */\n      dup1\n        /* \"#utility.yul\":4589:4601   */\n      revert\n        /* \"#utility.yul\":4540:4603   */\n    tag_292:\n        /* \"#utility.yul\":4487:4609   */\n      pop\n      jump\t// out\n        /* \"#utility.yul\":4615:4754   */\n    tag_180:\n        /* \"#utility.yul\":4661:4666   */\n      0x00\n        /* \"#utility.yul\":4699:4705   */\n      dup2\n        /* \"#utility.yul\":4686:4706   */\n      calldataload\n        /* \"#utility.yul\":4677:4706   */\n      swap1\n      pop\n        /* \"#utility.yul\":4715:4748   */\n      tag_294\n        /* \"#utility.yul\":4742:4747   */\n      dup2\n        /* \"#utility.yul\":4715:4748   */\n      tag_179\n      jump\t// in\n    tag_294:\n        /* \"#utility.yul\":4615:4754   */\n      swap3\n      swap2\n      pop\n      pop\n      jump\t// out\n        /* \"#utility.yul\":4798:6251   */\n    tag_181:\n        /* \"#utility.yul\":4876:4881   */\n      0x00\n        /* \"#utility.yul\":4920:4924   */\n      0xc0\n        /* \"#utility.yul\":4908:4917   */\n      dup3\n        /* \"#utility.yul\":4903:4906   */\n      dup5\n        /* \"#utility.yul\":4899:4918   */\n      sub\n        /* \"#utility.yul\":4895:4925   */\n      slt\n        /* \"#utility.yul\":4892:5009   */\n      iszero\n      tag_296\n      jumpi\n        /* \"#utility.yul\":4928:5007   */\n      tag_297\n      tag_158\n      jump\t// in\n    tag_297:\n        /* \"#utility.yul\":4892:5009   */\n    tag_296:\n        /* \"#utility.yul\":5027:5048   */\n      tag_298\n        /* \"#utility.yul\":5043:5047   */\n      0xc0\n        /* \"#utility.yul\":5027:5048   */\n      tag_161\n      jump\t// in\n    tag_298:\n        /* \"#utility.yul\":5018:5048   */\n      swap1\n      pop\n        /* \"#utility.yul\":5142:5143   */\n      0x00\n        /* \"#utility.yul\":5131:5140   */\n      dup3\n        /* \"#utility.yul\":5127:5144   */\n      add\n        /* \"#utility.yul\":5114:5145   */\n      calldataload\n        /* \"#utility.yul\":5172:5190   */\n      0xffffffffffffffff\n        /* \"#utility.yul\":5164:5170   */\n      dup2\n        /* \"#utility.yul\":5161:5191   */\n      gt\n        /* \"#utility.yul\":5158:5275   */\n      iszero\n      tag_299\n      jumpi\n        /* \"#utility.yul\":5194:5273   */\n      tag_300\n      tag_162\n      jump\t// in\n    tag_300:\n        /* \"#utility.yul\":5158:5275   */\n    tag_299:\n        /* \"#utility.yul\":5314:5403   */\n      tag_301\n        /* \"#utility.yul\":5399:5402   */\n      dup5\n        /* \"#utility.yul\":5390:5396   */\n      dup3\n        /* \"#utility.yul\":5379:5388   */\n      dup6\n        /* \"#utility.yul\":5375:5397   */\n      add\n        /* \"#utility.yul\":5314:5403   */\n      tag_172\n      jump\t// in\n    tag_301:\n        /* \"#utility.yul\":5307:5311   */\n      0x00\n        /* \"#utility.yul\":5300:5305   */\n      dup4\n        /* \"#utility.yul\":5296:5312   */\n      add\n        /* \"#utility.yul\":5289:5404   */\n      mstore\n        /* \"#utility.yul\":5058:5415   */\n      pop\n        /* \"#utility.yul\":5480:5482   */\n      0x20\n        /* \"#utility.yul\":5521:5570   */\n      tag_302\n        /* \"#utility.yul\":5566:5569   */\n      dup5\n        /* \"#utility.yul\":5557:5563   */\n      dup3\n        /* \"#utility.yul\":5546:5555   */\n      dup6\n        /* \"#utility.yul\":5542:5564   */\n      add\n        /* \"#utility.yul\":5521:5570   */\n      tag_175\n      jump\t// in\n    tag_302:\n        /* \"#utility.yul\":5514:5518   */\n      0x20\n        /* \"#utility.yul\":5507:5512   */\n      dup4\n        /* \"#utility.yul\":5503:5519   */\n      add\n        /* \"#utility.yul\":5496:5571   */\n      mstore\n        /* \"#utility.yul\":5425:5582   */\n      pop\n        /* \"#utility.yul\":5648:5650   */\n      0x40\n        /* \"#utility.yul\":5689:5738   */\n      tag_303\n        /* \"#utility.yul\":5734:5737   */\n      dup5\n        /* \"#utility.yul\":5725:5731   */\n      dup3\n        /* \"#utility.yul\":5714:5723   */\n      dup6\n        /* \"#utility.yul\":5710:5732   */\n      add\n        /* \"#utility.yul\":5689:5738   */\n      tag_178\n      jump\t// in\n    tag_303:\n        /* \"#utility.yul\":5682:5686   */\n      0x40\n        /* \"#utility.yul\":5675:5680   */\n      dup4\n        /* \"#utility.yul\":5671:5687   */\n      add\n        /* \"#utility.yul\":5664:5739   */\n      mstore\n        /* \"#utility.yul\":5592:5750   */\n      pop\n        /* \"#utility.yul\":5812:5814   */\n      0x60\n        /* \"#utility.yul\":5853:5902   */\n      tag_304\n        /* \"#utility.yul\":5898:5901   */\n      dup5\n        /* \"#utility.yul\":5889:5895   */\n      dup3\n        /* \"#utility.yul\":5878:5887   */\n      dup6\n        /* \"#utility.yul\":5874:5896   */\n      add\n        /* \"#utility.yul\":5853:5902   */\n      tag_180\n      jump\t// in\n    tag_304:\n        /* \"#utility.yul\":5846:5850   */\n      0x60\n        /* \"#utility.yul\":5839:5844   */\n      dup4\n        /* \"#utility.yul\":5835:5851   */\n      add\n        /* \"#utility.yul\":5828:5903   */\n      mstore\n        /* \"#utility.yul\":5760:5914   */\n      pop\n        /* \"#utility.yul\":5974:5977   */\n      0x80\n        /* \"#utility.yul\":6016:6065   */\n      tag_305\n        /* \"#utility.yul\":6061:6064   */\n      dup5\n        /* \"#utility.yul\":6052:6058   */\n      dup3\n        /* \"#utility.yul\":6041:6050   */\n      dup6\n        /* \"#utility.yul\":6037:6059   */\n      add\n        /* \"#utility.yul\":6016:6065   */\n      tag_180\n      jump\t// in\n    tag_305:\n        /* \"#utility.yul\":6009:6013   */\n      0x80\n        /* \"#utility.yul\":6002:6007   */\n      dup4\n        /* \"#utility.yul\":5998:6014   */\n      add\n        /* \"#utility.yul\":5991:6066   */\n      mstore\n        /* \"#utility.yul\":5924:6077   */\n      pop\n        /* \"#utility.yul\":6141:6144   */\n      0xa0\n        /* \"#utility.yul\":6183:6232   */\n      tag_306\n        /* \"#utility.yul\":6228:6231   */\n      dup5\n        /* \"#utility.yul\":6219:6225   */\n      dup3\n        /* \"#utility.yul\":6208:6217   */\n      dup6\n        /* \"#utility.yul\":6204:6226   */\n      add\n        /* \"#utility.yul\":6183:6232   */\n      tag_180\n      jump\t// in\n    tag_306:\n        /* \"#utility.yul\":6176:6180   */\n      0xa0\n        /* \"#utility.yul\":6169:6174   */\n      dup4\n        /* \"#utility.yul\":6165:6181   */\n      add\n        /* \"#utility.yul\":6158:6233   */\n      mstore\n        /* \"#utility.yul\":6087:6244   */\n      pop\n        /* \"#utility.yul\":4798:6251   */\n      swap3\n      swap2\n      pop\n      pop\n      jump\t// out\n        /* \"#utility.yul\":6257:6949   */\n    tag_9:\n        /* \"#utility.yul\":6354:6360   */\n      0x00\n        /* \"#utility.yul\":6362:6368   */\n      dup1\n        /* \"#utility.yul\":6411:6413   */\n      0x40\n        /* \"#utility.yul\":6399:6408   */\n      dup4\n        /* \"#utility.yul\":6390:6397   */\n      dup6\n        /* \"#utility.yul\":6386:6409   */\n      sub\n        /* \"#utility.yul\":6382:6414   */\n      slt\n        /* \"#utility.yul\":6379:6498   */\n      iszero\n      tag_308\n      jumpi\n        /* \"#utility.yul\":6417:6496   */\n      tag_309\n      tag_156\n      jump\t// in\n    tag_309:\n        /* \"#utility.yul\":6379:6498   */\n    tag_308:\n        /* \"#utility.yul\":6565:6566   */\n      0x00\n        /* \"#utility.yul\":6554:6563   */\n      dup4\n        /* \"#utility.yul\":6550:6567   */\n      add\n        /* \"#utility.yul\":6537:6568   */\n      calldataload\n        /* \"#utility.yul\":6595:6613   */\n      0xffffffffffffffff\n        /* \"#utility.yul\":6587:6593   */\n      dup2\n        /* \"#utility.yul\":6584:6614   */\n      gt\n        /* \"#utility.yul\":6581:6698   */\n      iszero\n      tag_310\n      jumpi\n        /* \"#utility.yul\":6617:6696   */\n      tag_311\n      tag_157\n      jump\t// in\n    tag_311:\n        /* \"#utility.yul\":6581:6698   */\n    tag_310:\n        /* \"#utility.yul\":6722:6804   */\n      tag_312\n        /* \"#utility.yul\":6796:6803   */\n      dup6\n        /* \"#utility.yul\":6787:6793   */\n      dup3\n        /* \"#utility.yul\":6776:6785   */\n      dup7\n        /* \"#utility.yul\":6772:6794   */\n      add\n        /* \"#utility.yul\":6722:6804   */\n      tag_181\n      jump\t// in\n    tag_312:\n        /* \"#utility.yul\":6712:6804   */\n      swap3\n      pop\n        /* \"#utility.yul\":6508:6814   */\n      pop\n        /* \"#utility.yul\":6853:6855   */\n      0x20\n        /* \"#utility.yul\":6879:6932   */\n      tag_313\n        /* \"#utility.yul\":6924:6931   */\n      dup6\n        /* \"#utility.yul\":6915:6921   */\n      dup3\n        /* \"#utility.yul\":6904:6913   */\n      dup7\n        /* \"#utility.yul\":6900:6922   */\n      add\n        /* \"#utility.yul\":6879:6932   */\n      tag_175\n      jump\t// in\n    tag_313:\n        /* \"#utility.yul\":6869:6932   */\n      swap2\n      pop\n        /* \"#utility.yul\":6824:6942   */\n      pop\n        /* \"#utility.yul\":6257:6949   */\n      swap3\n      pop\n      swap3\n      swap1\n      pop\n      jump\t// out\n        /* \"#utility.yul\":6955:7073   */\n    tag_182:\n        /* \"#utility.yul\":7042:7066   */\n      tag_315\n        /* \"#utility.yul\":7060:7065   */\n      dup2\n        /* \"#utility.yul\":7042:7066   */\n      tag_167\n      jump\t// in\n    tag_315:\n        /* \"#utility.yul\":7037:7040   */\n      dup3\n        /* \"#utility.yul\":7030:7067   */\n      mstore\n        /* \"#utility.yul\":6955:7073   */\n      pop\n      pop\n      jump\t// out\n        /* \"#utility.yul\":7079:7301   */\n    tag_14:\n        /* \"#utility.yul\":7172:7176   */\n      0x00\n        /* \"#utility.yul\":7210:7212   */\n      0x20\n        /* \"#utility.yul\":7199:7208   */\n      dup3\n        /* \"#utility.yul\":7195:7213   */\n      add\n        /* \"#utility.yul\":7187:7213   */\n      swap1\n      pop\n        /* \"#utility.yul\":7223:7294   */\n      tag_317\n        /* \"#utility.yul\":7291:7292   */\n      0x00\n        /* \"#utility.yul\":7280:7289   */\n      dup4\n        /* \"#utility.yul\":7276:7293   */\n      add\n        /* \"#utility.yul\":7267:7273   */\n      dup5\n        /* \"#utility.yul\":7223:7294   */\n      tag_182\n      jump\t// in\n    tag_317:\n        /* \"#utility.yul\":7079:7301   */\n      swap3\n      swap2\n      pop\n      pop\n      jump\t// out\n        /* \"#utility.yul\":7307:8144   */\n    tag_17:\n        /* \"#utility.yul\":7413:7419   */\n      0x00\n        /* \"#utility.yul\":7421:7427   */\n      dup1\n        /* \"#utility.yul\":7429:7435   */\n      0x00\n        /* \"#utility.yul\":7478:7480   */\n      0x60\n        /* \"#utility.yul\":7466:7475   */\n      dup5\n        /* \"#utility.yul\":7457:7464   */\n      dup7\n        /* \"#utility.yul\":7453:7476   */\n      sub\n        /* \"#utility.yul\":7449:7481   */\n      slt\n        /* \"#utility.yul\":7446:7565   */\n      iszero\n      tag_319\n      jumpi\n        /* \"#utility.yul\":7484:7563   */\n      tag_320\n      tag_156\n      jump\t// in\n    tag_320:\n        /* \"#utility.yul\":7446:7565   */\n    tag_319:\n        /* \"#utility.yul\":7604:7605   */\n      0x00\n        /* \"#utility.yul\":7629:7682   */\n      tag_321\n        /* \"#utility.yul\":7674:7681   */\n      dup7\n        /* \"#utility.yul\":7665:7671   */\n      dup3\n        /* \"#utility.yul\":7654:7663   */\n      dup8\n        /* \"#utility.yul\":7650:7672   */\n      add\n        /* \"#utility.yul\":7629:7682   */\n      tag_180\n      jump\t// in\n    tag_321:\n        /* \"#utility.yul\":7619:7682   */\n      swap4\n      pop\n        /* \"#utility.yul\":7575:7692   */\n      pop\n        /* \"#utility.yul\":7759:7761   */\n      0x20\n        /* \"#utility.yul\":7748:7757   */\n      dup5\n        /* \"#utility.yul\":7744:7762   */\n      add\n        /* \"#utility.yul\":7731:7763   */\n      calldataload\n        /* \"#utility.yul\":7790:7808   */\n      0xffffffffffffffff\n        /* \"#utility.yul\":7782:7788   */\n      dup2\n        /* \"#utility.yul\":7779:7809   */\n      gt\n        /* \"#utility.yul\":7776:7893   */\n      iszero\n      tag_322\n      jumpi\n        /* \"#utility.yul\":7812:7891   */\n      tag_323\n      tag_157\n      jump\t// in\n    tag_323:\n        /* \"#utility.yul\":7776:7893   */\n    tag_322:\n        /* \"#utility.yul\":7917:7999   */\n      tag_324\n        /* \"#utility.yul\":7991:7998   */\n      dup7\n        /* \"#utility.yul\":7982:7988   */\n      dup3\n        /* \"#utility.yul\":7971:7980   */\n      dup8\n        /* \"#utility.yul\":7967:7989   */\n      add\n        /* \"#utility.yul\":7917:7999   */\n      tag_181\n      jump\t// in\n    tag_324:\n        /* \"#utility.yul\":7907:7999   */\n      swap3\n      pop\n        /* \"#utility.yul\":7702:8009   */\n      pop\n        /* \"#utility.yul\":8048:8050   */\n      0x40\n        /* \"#utility.yul\":8074:8127   */\n      tag_325\n        /* \"#utility.yul\":8119:8126   */\n      dup7\n        /* \"#utility.yul\":8110:8116   */\n      dup3\n        /* \"#utility.yul\":8099:8108   */\n      dup8\n        /* \"#utility.yul\":8095:8117   */\n      add\n        /* \"#utility.yul\":8074:8127   */\n      tag_175\n      jump\t// in\n    tag_325:\n        /* \"#utility.yul\":8064:8127   */\n      swap2\n      pop\n        /* \"#utility.yul\":8019:8137   */\n      pop\n        /* \"#utility.yul\":7307:8144   */\n      swap3\n      pop\n      swap3\n      pop\n      swap3\n      jump\t// out\n        /* \"#utility.yul\":8150:8330   */\n    tag_33:\n        /* \"#utility.yul\":8198:8275   */\n      0x4e487b7100000000000000000000000000000000000000000000000000000000\n        /* \"#utility.yul\":8195:8196   */\n      0x00\n        /* \"#utility.yul\":8188:8276   */\n      mstore\n        /* \"#utility.yul\":8295:8299   */\n      0x32\n        /* \"#utility.yul\":8292:8293   */\n      0x04\n        /* \"#utility.yul\":8285:8300   */\n      mstore\n        /* \"#utility.yul\":8319:8323   */\n      0x24\n        /* \"#utility.yul\":8316:8317   */\n      0x00\n        /* \"#utility.yul\":8309:8324   */\n      revert\n        /* \"#utility.yul\":8336:8454   */\n    tag_183:\n        /* \"#utility.yul\":8423:8447   */\n      tag_328\n        /* \"#utility.yul\":8441:8446   */\n      dup2\n        /* \"#utility.yul\":8423:8447   */\n      tag_173\n      jump\t// in\n    tag_328:\n        /* \"#utility.yul\":8418:8421   */\n      dup3\n        /* \"#utility.yul\":8411:8448   */\n      mstore\n        /* \"#utility.yul\":8336:8454   */\n      pop\n      pop\n      jump\t// out\n        /* \"#utility.yul\":8460:8902   */\n    tag_48:\n        /* \"#utility.yul\":8609:8613   */\n      0x00\n        /* \"#utility.yul\":8647:8649   */\n      0x60\n        /* \"#utility.yul\":8636:8645   */\n      dup3\n        /* \"#utility.yul\":8632:8650   */\n      add\n        /* \"#utility.yul\":8624:8650   */\n      swap1\n      pop\n        /* \"#utility.yul\":8660:8731   */\n      tag_330\n        /* \"#utility.yul\":8728:8729   */\n      0x00\n        /* \"#utility.yul\":8717:8726   */\n      dup4\n        /* \"#utility.yul\":8713:8730   */\n      add\n        /* \"#utility.yul\":8704:8710   */\n      dup7\n        /* \"#utility.yul\":8660:8731   */\n      tag_182\n      jump\t// in\n    tag_330:\n        /* \"#utility.yul\":8741:8813   */\n      tag_331\n        /* \"#utility.yul\":8809:8811   */\n      0x20\n        /* \"#utility.yul\":8798:8807   */\n      dup4\n        /* \"#utility.yul\":8794:8812   */\n      add\n        /* \"#utility.yul\":8785:8791   */\n      dup6\n        /* \"#utility.yul\":8741:8813   */\n      tag_182\n      jump\t// in\n    tag_331:\n        /* \"#utility.yul\":8823:8895   */\n      tag_332\n        /* \"#utility.yul\":8891:8893   */\n      0x40\n        /* \"#utility.yul\":8880:8889   */\n      dup4\n        /* \"#utility.yul\":8876:8894   */\n      add\n        /* \"#utility.yul\":8867:8873   */\n      dup5\n        /* \"#utility.yul\":8823:8895   */\n      tag_183\n      jump\t// in\n    tag_332:\n        /* \"#utility.yul\":8460:8902   */\n      swap5\n      swap4\n      pop\n      pop\n      pop\n      pop\n      jump\t// out\n        /* \"#utility.yul\":8908:8993   */\n    tag_184:\n        /* \"#utility.yul\":8953:8960   */\n      0x00\n        /* \"#utility.yul\":8982:8987   */\n      dup2\n        /* \"#utility.yul\":8971:8987   */\n      swap1\n      pop\n        /* \"#utility.yul\":8908:8993   */\n      swap2\n      swap1\n      pop\n      jump\t// out\n        /* \"#utility.yul\":8999:9085   */\n    tag_185:\n        /* \"#utility.yul\":9034:9041   */\n      0x00\n        /* \"#utility.yul\":9074:9078   */\n      0xff\n        /* \"#utility.yul\":9067:9072   */\n      dup3\n        /* \"#utility.yul\":9063:9079   */\n      and\n        /* \"#utility.yul\":9052:9079   */\n      swap1\n      pop\n        /* \"#utility.yul\":8999:9085   */\n      swap2\n      swap1\n      pop\n      jump\t// out\n        /* \"#utility.yul\":9091:9151   */\n    tag_186:\n        /* \"#utility.yul\":9119:9122   */\n      0x00\n        /* \"#utility.yul\":9140:9145   */\n      dup2\n        /* \"#utility.yul\":9133:9145   */\n      swap1\n      pop\n        /* \"#utility.yul\":9091:9151   */\n      swap2\n      swap1\n      pop\n      jump\t// out\n        /* \"#utility.yul\":9157:9311   */\n    tag_187:\n        /* \"#utility.yul\":9213:9222   */\n      0x00\n        /* \"#utility.yul\":9246:9305   */\n      tag_337\n        /* \"#utility.yul\":9262:9304   */\n      tag_338\n        /* \"#utility.yul\":9271:9303   */\n      tag_339\n        /* \"#utility.yul\":9297:9302   */\n      dup5\n        /* \"#utility.yul\":9271:9303   */\n      tag_184\n      jump\t// in\n    tag_339:\n        /* \"#utility.yul\":9262:9304   */\n      tag_186\n      jump\t// in\n    tag_338:\n        /* \"#utility.yul\":9246:9305   */\n      tag_185\n      jump\t// in\n    tag_337:\n        /* \"#utility.yul\":9233:9305   */\n      swap1\n      pop\n        /* \"#utility.yul\":9157:9311   */\n      swap2\n      swap1\n      pop\n      jump\t// out\n        /* \"#utility.yul\":9317:9460   */\n    tag_188:\n        /* \"#utility.yul\":9410:9453   */\n      tag_341\n        /* \"#utility.yul\":9447:9452   */\n      dup2\n        /* \"#utility.yul\":9410:9453   */\n      tag_187\n      jump\t// in\n    tag_341:\n        /* \"#utility.yul\":9405:9408   */\n      dup3\n        /* \"#utility.yul\":9398:9454   */\n      mstore\n        /* \"#utility.yul\":9317:9460   */\n      pop\n      pop\n      jump\t// out\n        /* \"#utility.yul\":9466:9920   */\n    tag_58:\n        /* \"#utility.yul\":9621:9625   */\n      0x00\n        /* \"#utility.yul\":9659:9661   */\n      0x60\n        /* \"#utility.yul\":9648:9657   */\n      dup3\n        /* \"#utility.yul\":9644:9662   */\n      add\n        /* \"#utility.yul\":9636:9662   */\n      swap1\n      pop\n        /* \"#utility.yul\":9672:9749   */\n      tag_343\n        /* \"#utility.yul\":9746:9747   */\n      0x00\n        /* \"#utility.yul\":9735:9744   */\n      dup4\n        /* \"#utility.yul\":9731:9748   */\n      add\n        /* \"#utility.yul\":9722:9728   */\n      dup7\n        /* \"#utility.yul\":9672:9749   */\n      tag_188\n      jump\t// in\n    tag_343:\n        /* \"#utility.yul\":9759:9831   */\n      tag_344\n        /* \"#utility.yul\":9827:9829   */\n      0x20\n        /* \"#utility.yul\":9816:9825   */\n      dup4\n        /* \"#utility.yul\":9812:9830   */\n      add\n        /* \"#utility.yul\":9803:9809   */\n      dup6\n        /* \"#utility.yul\":9759:9831   */\n      tag_183\n      jump\t// in\n    tag_344:\n        /* \"#utility.yul\":9841:9913   */\n      tag_345\n        /* \"#utility.yul\":9909:9911   */\n      0x40\n        /* \"#utility.yul\":9898:9907   */\n      dup4\n        /* \"#utility.yul\":9894:9912   */\n      add\n        /* \"#utility.yul\":9885:9891   */\n      dup5\n        /* \"#utility.yul\":9841:9913   */\n      tag_183\n      jump\t// in\n    tag_345:\n        /* \"#utility.yul\":9466:9920   */\n      swap5\n      swap4\n      pop\n      pop\n      pop\n      pop\n      jump\t// out\n        /* \"#utility.yul\":9926:10044   */\n    tag_189:\n        /* \"#utility.yul\":10013:10037   */\n      tag_347\n        /* \"#utility.yul\":10031:10036   */\n      dup2\n        /* \"#utility.yul\":10013:10037   */\n      tag_176\n      jump\t// in\n    tag_347:\n        /* \"#utility.yul\":10008:10011   */\n      dup3\n        /* \"#utility.yul\":10001:10038   */\n      mstore\n        /* \"#utility.yul\":9926:10044   */\n      pop\n      pop\n      jump\t// out\n        /* \"#utility.yul\":10050:10154   */\n    tag_190:\n        /* \"#utility.yul\":10095:10102   */\n      0x00\n        /* \"#utility.yul\":10124:10148   */\n      tag_349\n        /* \"#utility.yul\":10142:10147   */\n      dup3\n        /* \"#utility.yul\":10124:10148   */\n      tag_166\n      jump\t// in\n    tag_349:\n        /* \"#utility.yul\":10113:10148   */\n      swap1\n      pop\n        /* \"#utility.yul\":10050:10154   */\n      swap2\n      swap1\n      pop\n      jump\t// out\n        /* \"#utility.yul\":10160:10302   */\n    tag_191:\n        /* \"#utility.yul\":10263:10295   */\n      tag_351\n        /* \"#utility.yul\":10289:10294   */\n      dup2\n        /* \"#utility.yul\":10263:10295   */\n      tag_190\n      jump\t// in\n    tag_351:\n        /* \"#utility.yul\":10258:10261   */\n      dup3\n        /* \"#utility.yul\":10251:10296   */\n      mstore\n        /* \"#utility.yul\":10160:10302   */\n      pop\n      pop\n      jump\t// out\n        /* \"#utility.yul\":10308:10437   */\n    tag_192:\n        /* \"#utility.yul\":10390:10396   */\n      0x00\n        /* \"#utility.yul\":10424:10429   */\n      dup2\n        /* \"#utility.yul\":10418:10430   */\n      mload\n        /* \"#utility.yul\":10408:10430   */\n      swap1\n      pop\n        /* \"#utility.yul\":10308:10437   */\n      swap2\n      swap1\n      pop\n      jump\t// out\n        /* \"#utility.yul\":10443:10617   */\n    tag_193:\n        /* \"#utility.yul\":10532:10543   */\n      0x00\n        /* \"#utility.yul\":10566:10572   */\n      dup3\n        /* \"#utility.yul\":10561:10564   */\n      dup3\n        /* \"#utility.yul\":10554:10573   */\n      mstore\n        /* \"#utility.yul\":10606:10610   */\n      0x20\n        /* \"#utility.yul\":10601:10604   */\n      dup3\n        /* \"#utility.yul\":10597:10611   */\n      add\n        /* \"#utility.yul\":10582:10611   */\n      swap1\n      pop\n        /* \"#utility.yul\":10443:10617   */\n      swap3\n      swap2\n      pop\n      pop\n      jump\t// out\n        /* \"#utility.yul\":10623:10770   */\n    tag_194:\n        /* \"#utility.yul\":10705:10709   */\n      0x00\n        /* \"#utility.yul\":10728:10731   */\n      dup2\n        /* \"#utility.yul\":10720:10731   */\n      swap1\n      pop\n        /* \"#utility.yul\":10758:10762   */\n      0x20\n        /* \"#utility.yul\":10753:10756   */\n      dup3\n        /* \"#utility.yul\":10749:10763   */\n      add\n        /* \"#utility.yul\":10741:10763   */\n      swap1\n      pop\n        /* \"#utility.yul\":10623:10770   */\n      swap2\n      swap1\n      pop\n      jump\t// out\n        /* \"#utility.yul\":10776:10918   */\n    tag_195:\n        /* \"#utility.yul\":10826:10835   */\n      0x00\n        /* \"#utility.yul\":10859:10912   */\n      tag_356\n        /* \"#utility.yul\":10877:10911   */\n      tag_357\n        /* \"#utility.yul\":10886:10910   */\n      tag_358\n        /* \"#utility.yul\":10904:10909   */\n      dup5\n        /* \"#utility.yul\":10886:10910   */\n      tag_166\n      jump\t// in\n    tag_358:\n        /* \"#utility.yul\":10877:10911   */\n      tag_186\n      jump\t// in\n    tag_357:\n        /* \"#utility.yul\":10859:10912   */\n      tag_166\n      jump\t// in\n    tag_356:\n        /* \"#utility.yul\":10846:10912   */\n      swap1\n      pop\n        /* \"#utility.yul\":10776:10918   */\n      swap2\n      swap1\n      pop\n      jump\t// out\n        /* \"#utility.yul\":10924:11050   */\n    tag_196:\n        /* \"#utility.yul\":10974:10983   */\n      0x00\n        /* \"#utility.yul\":11007:11044   */\n      tag_360\n        /* \"#utility.yul\":11038:11043   */\n      dup3\n        /* \"#utility.yul\":11007:11044   */\n      tag_195\n      jump\t// in\n    tag_360:\n        /* \"#utility.yul\":10994:11044   */\n      swap1\n      pop\n        /* \"#utility.yul\":10924:11050   */\n      swap2\n      swap1\n      pop\n      jump\t// out\n        /* \"#utility.yul\":11056:11197   */\n    tag_197:\n        /* \"#utility.yul\":11121:11130   */\n      0x00\n        /* \"#utility.yul\":11154:11191   */\n      tag_362\n        /* \"#utility.yul\":11185:11190   */\n      dup3\n        /* \"#utility.yul\":11154:11191   */\n      tag_196\n      jump\t// in\n    tag_362:\n        /* \"#utility.yul\":11141:11191   */\n      swap1\n      pop\n        /* \"#utility.yul\":11056:11197   */\n      swap2\n      swap1\n      pop\n      jump\t// out\n        /* \"#utility.yul\":11203:11354   */\n    tag_198:\n        /* \"#utility.yul\":11295:11347   */\n      tag_364\n        /* \"#utility.yul\":11341:11346   */\n      dup2\n        /* \"#utility.yul\":11295:11347   */\n      tag_197\n      jump\t// in\n    tag_364:\n        /* \"#utility.yul\":11290:11293   */\n      dup3\n        /* \"#utility.yul\":11283:11348   */\n      mstore\n        /* \"#utility.yul\":11203:11354   */\n      pop\n      pop\n      jump\t// out\n        /* \"#utility.yul\":11360:11569   */\n    tag_199:\n        /* \"#utility.yul\":11444:11454   */\n      0x00\n        /* \"#utility.yul\":11465:11526   */\n      tag_366\n        /* \"#utility.yul\":11522:11525   */\n      dup4\n        /* \"#utility.yul\":11514:11520   */\n      dup4\n        /* \"#utility.yul\":11465:11526   */\n      tag_198\n      jump\t// in\n    tag_366:\n        /* \"#utility.yul\":11558:11562   */\n      0x20\n        /* \"#utility.yul\":11553:11556   */\n      dup4\n        /* \"#utility.yul\":11549:11563   */\n      add\n        /* \"#utility.yul\":11535:11563   */\n      swap1\n      pop\n        /* \"#utility.yul\":11360:11569   */\n      swap3\n      swap2\n      pop\n      pop\n      jump\t// out\n        /* \"#utility.yul\":11575:11703   */\n    tag_200:\n        /* \"#utility.yul\":11660:11664   */\n      0x00\n        /* \"#utility.yul\":11692:11696   */\n      0x20\n        /* \"#utility.yul\":11687:11690   */\n      dup3\n        /* \"#utility.yul\":11683:11697   */\n      add\n        /* \"#utility.yul\":11675:11697   */\n      swap1\n      pop\n        /* \"#utility.yul\":11575:11703   */\n      swap2\n      swap1\n      pop\n      jump\t// out\n        /* \"#utility.yul\":11747:12534   */\n    tag_201:\n        /* \"#utility.yul\":11871:11874   */\n      0x00\n        /* \"#utility.yul\":11900:11969   */\n      tag_369\n        /* \"#utility.yul\":11963:11968   */\n      dup3\n        /* \"#utility.yul\":11900:11969   */\n      tag_192\n      jump\t// in\n    tag_369:\n        /* \"#utility.yul\":11985:12061   */\n      tag_370\n        /* \"#utility.yul\":12054:12060   */\n      dup2\n        /* \"#utility.yul\":12049:12052   */\n      dup6\n        /* \"#utility.yul\":11985:12061   */\n      tag_193\n      jump\t// in\n    tag_370:\n        /* \"#utility.yul\":11978:12061   */\n      swap4\n      pop\n        /* \"#utility.yul\":12085:12156   */\n      tag_371\n        /* \"#utility.yul\":12150:12155   */\n      dup4\n        /* \"#utility.yul\":12085:12156   */\n      tag_194\n      jump\t// in\n    tag_371:\n        /* \"#utility.yul\":12179:12186   */\n      dup1\n        /* \"#utility.yul\":12210:12211   */\n      0x00\n        /* \"#utility.yul\":12195:12509   */\n    tag_372:\n        /* \"#utility.yul\":12220:12226   */\n      dup4\n        /* \"#utility.yul\":12217:12218   */\n      dup2\n        /* \"#utility.yul\":12214:12227   */\n      lt\n        /* \"#utility.yul\":12195:12509   */\n      iszero\n      tag_374\n      jumpi\n        /* \"#utility.yul\":12296:12302   */\n      dup2\n        /* \"#utility.yul\":12290:12303   */\n      mload\n        /* \"#utility.yul\":12323:12401   */\n      tag_375\n        /* \"#utility.yul\":12397:12400   */\n      dup9\n        /* \"#utility.yul\":12382:12395   */\n      dup3\n        /* \"#utility.yul\":12323:12401   */\n      tag_199\n      jump\t// in\n    tag_375:\n        /* \"#utility.yul\":12316:12401   */\n      swap8\n      pop\n        /* \"#utility.yul\":12424:12499   */\n      tag_376\n        /* \"#utility.yul\":12492:12498   */\n      dup4\n        /* \"#utility.yul\":12424:12499   */\n      tag_200\n      jump\t// in\n    tag_376:\n        /* \"#utility.yul\":12414:12499   */\n      swap3\n      pop\n        /* \"#utility.yul\":12255:12509   */\n      pop\n        /* \"#utility.yul\":12242:12243   */\n      0x01\n        /* \"#utility.yul\":12239:12240   */\n      dup2\n        /* \"#utility.yul\":12235:12244   */\n      add\n        /* \"#utility.yul\":12230:12244   */\n      swap1\n      pop\n        /* \"#utility.yul\":12195:12509   */\n      jump(tag_372)\n    tag_374:\n        /* \"#utility.yul\":12199:12213   */\n      pop\n        /* \"#utility.yul\":12525:12528   */\n      dup6\n        /* \"#utility.yul\":12518:12528   */\n      swap4\n      pop\n        /* \"#utility.yul\":11876:12534   */\n      pop\n      pop\n      pop\n        /* \"#utility.yul\":11747:12534   */\n      swap3\n      swap2\n      pop\n      pop\n      jump\t// out\n        /* \"#utility.yul\":12540:12654   */\n    tag_202:\n        /* \"#utility.yul\":12607:12613   */\n      0x00\n        /* \"#utility.yul\":12641:12646   */\n      dup2\n        /* \"#utility.yul\":12635:12647   */\n      mload\n        /* \"#utility.yul\":12625:12647   */\n      swap1\n      pop\n        /* \"#utility.yul\":12540:12654   */\n      swap2\n      swap1\n      pop\n      jump\t// out\n        /* \"#utility.yul\":12660:12834   */\n    tag_203:\n        /* \"#utility.yul\":12749:12760   */\n      0x00\n        /* \"#utility.yul\":12783:12789   */\n      dup3\n        /* \"#utility.yul\":12778:12781   */\n      dup3\n        /* \"#utility.yul\":12771:12790   */\n      mstore\n        /* \"#utility.yul\":12823:12827   */\n      0x20\n        /* \"#utility.yul\":12818:12821   */\n      dup3\n        /* \"#utility.yul\":12814:12828   */\n      add\n        /* \"#utility.yul\":12799:12828   */\n      swap1\n      pop\n        /* \"#utility.yul\":12660:12834   */\n      swap3\n      swap2\n      pop\n      pop\n      jump\t// out\n        /* \"#utility.yul\":12840:12972   */\n    tag_204:\n        /* \"#utility.yul\":12907:12911   */\n      0x00\n        /* \"#utility.yul\":12930:12933   */\n      dup2\n        /* \"#utility.yul\":12922:12933   */\n      swap1\n      pop\n        /* \"#utility.yul\":12960:12964   */\n      0x20\n        /* \"#utility.yul\":12955:12958   */\n      dup3\n        /* \"#utility.yul\":12951:12965   */\n      add\n        /* \"#utility.yul\":12943:12965   */\n      swap1\n      pop\n        /* \"#utility.yul\":12840:12972   */\n      swap2\n      swap1\n      pop\n      jump\t// out\n        /* \"#utility.yul\":12978:13086   */\n    tag_205:\n        /* \"#utility.yul\":13055:13079   */\n      tag_381\n        /* \"#utility.yul\":13073:13078   */\n      dup2\n        /* \"#utility.yul\":13055:13079   */\n      tag_173\n      jump\t// in\n    tag_381:\n        /* \"#utility.yul\":13050:13053   */\n      dup3\n        /* \"#utility.yul\":13043:13080   */\n      mstore\n        /* \"#utility.yul\":12978:13086   */\n      pop\n      pop\n      jump\t// out\n        /* \"#utility.yul\":13092:13271   */\n    tag_206:\n        /* \"#utility.yul\":13161:13171   */\n      0x00\n        /* \"#utility.yul\":13182:13228   */\n      tag_383\n        /* \"#utility.yul\":13224:13227   */\n      dup4\n        /* \"#utility.yul\":13216:13222   */\n      dup4\n        /* \"#utility.yul\":13182:13228   */\n      tag_205\n      jump\t// in\n    tag_383:\n        /* \"#utility.yul\":13260:13264   */\n      0x20\n        /* \"#utility.yul\":13255:13258   */\n      dup4\n        /* \"#utility.yul\":13251:13265   */\n      add\n        /* \"#utility.yul\":13237:13265   */\n      swap1\n      pop\n        /* \"#utility.yul\":13092:13271   */\n      swap3\n      swap2\n      pop\n      pop\n      jump\t// out\n        /* \"#utility.yul\":13277:13390   */\n    tag_207:\n        /* \"#utility.yul\":13347:13351   */\n      0x00\n        /* \"#utility.yul\":13379:13383   */\n      0x20\n        /* \"#utility.yul\":13374:13377   */\n      dup3\n        /* \"#utility.yul\":13370:13384   */\n      add\n        /* \"#utility.yul\":13362:13384   */\n      swap1\n      pop\n        /* \"#utility.yul\":13277:13390   */\n      swap2\n      swap1\n      pop\n      jump\t// out\n        /* \"#utility.yul\":13426:14138   */\n    tag_208:\n        /* \"#utility.yul\":13535:13538   */\n      0x00\n        /* \"#utility.yul\":13564:13618   */\n      tag_386\n        /* \"#utility.yul\":13612:13617   */\n      dup3\n        /* \"#utility.yul\":13564:13618   */\n      tag_202\n      jump\t// in\n    tag_386:\n        /* \"#utility.yul\":13634:13710   */\n      tag_387\n        /* \"#utility.yul\":13703:13709   */\n      dup2\n        /* \"#utility.yul\":13698:13701   */\n      dup6\n        /* \"#utility.yul\":13634:13710   */\n      tag_203\n      jump\t// in\n    tag_387:\n        /* \"#utility.yul\":13627:13710   */\n      swap4\n      pop\n        /* \"#utility.yul\":13734:13790   */\n      tag_388\n        /* \"#utility.yul\":13784:13789   */\n      dup4\n        /* \"#utility.yul\":13734:13790   */\n      tag_204\n      jump\t// in\n    tag_388:\n        /* \"#utility.yul\":13813:13820   */\n      dup1\n        /* \"#utility.yul\":13844:13845   */\n      0x00\n        /* \"#utility.yul\":13829:14113   */\n    tag_389:\n        /* \"#utility.yul\":13854:13860   */\n      dup4\n        /* \"#utility.yul\":13851:13852   */\n      dup2\n        /* \"#utility.yul\":13848:13861   */\n      lt\n        /* \"#utility.yul\":13829:14113   */\n      iszero\n      tag_391\n      jumpi\n        /* \"#utility.yul\":13930:13936   */\n      dup2\n        /* \"#utility.yul\":13924:13937   */\n      mload\n        /* \"#utility.yul\":13957:14020   */\n      tag_392\n        /* \"#utility.yul\":14016:14019   */\n      dup9\n        /* \"#utility.yul\":14001:14014   */\n      dup3\n        /* \"#utility.yul\":13957:14020   */\n      tag_206\n      jump\t// in\n    tag_392:\n        /* \"#utility.yul\":13950:14020   */\n      swap8\n      pop\n        /* \"#utility.yul\":14043:14103   */\n      tag_393\n        /* \"#utility.yul\":14096:14102   */\n      dup4\n        /* \"#utility.yul\":14043:14103   */\n      tag_207\n      jump\t// in\n    tag_393:\n        /* \"#utility.yul\":14033:14103   */\n      swap3\n      pop\n        /* \"#utility.yul\":13889:14113   */\n      pop\n        /* \"#utility.yul\":13876:13877   */\n      0x01\n        /* \"#utility.yul\":13873:13874   */\n      dup2\n        /* \"#utility.yul\":13869:13878   */\n      add\n        /* \"#utility.yul\":13864:13878   */\n      swap1\n      pop\n        /* \"#utility.yul\":13829:14113   */\n      jump(tag_389)\n    tag_391:\n        /* \"#utility.yul\":13833:13847   */\n      pop\n        /* \"#utility.yul\":14129:14132   */\n      dup6\n        /* \"#utility.yul\":14122:14132   */\n      swap4\n      pop\n        /* \"#utility.yul\":13540:14138   */\n      pop\n      pop\n      pop\n        /* \"#utility.yul\":13426:14138   */\n      swap3\n      swap2\n      pop\n      pop\n      jump\t// out\n        /* \"#utility.yul\":14144:14242   */\n    tag_209:\n        /* \"#utility.yul\":14195:14201   */\n      0x00\n        /* \"#utility.yul\":14229:14234   */\n      dup2\n        /* \"#utility.yul\":14223:14235   */\n      mload\n        /* \"#utility.yul\":14213:14235   */\n      swap1\n      pop\n        /* \"#utility.yul\":14144:14242   */\n      swap2\n      swap1\n      pop\n      jump\t// out\n        /* \"#utility.yul\":14248:14406   */\n    tag_210:\n        /* \"#utility.yul\":14321:14332   */\n      0x00\n        /* \"#utility.yul\":14355:14361   */\n      dup3\n        /* \"#utility.yul\":14350:14353   */\n      dup3\n        /* \"#utility.yul\":14343:14362   */\n      mstore\n        /* \"#utility.yul\":14395:14399   */\n      0x20\n        /* \"#utility.yul\":14390:14393   */\n      dup3\n        /* \"#utility.yul\":14386:14400   */\n      add\n        /* \"#utility.yul\":14371:14400   */\n      swap1\n      pop\n        /* \"#utility.yul\":14248:14406   */\n      swap3\n      swap2\n      pop\n      pop\n      jump\t// out\n        /* \"#utility.yul\":14412:14719   */\n    tag_211:\n        /* \"#utility.yul\":14480:14481   */\n      0x00\n        /* \"#utility.yul\":14490:14603   */\n    tag_397:\n        /* \"#utility.yul\":14504:14510   */\n      dup4\n        /* \"#utility.yul\":14501:14502   */\n      dup2\n        /* \"#utility.yul\":14498:14511   */\n      lt\n        /* \"#utility.yul\":14490:14603   */\n      iszero\n      tag_399\n      jumpi\n        /* \"#utility.yul\":14589:14590   */\n      dup1\n        /* \"#utility.yul\":14584:14587   */\n      dup3\n        /* \"#utility.yul\":14580:14591   */\n      add\n        /* \"#utility.yul\":14574:14592   */\n      mload\n        /* \"#utility.yul\":14570:14571   */\n      dup2\n        /* \"#utility.yul\":14565:14568   */\n      dup5\n        /* \"#utility.yul\":14561:14572   */\n      add\n        /* \"#utility.yul\":14554:14593   */\n      mstore\n        /* \"#utility.yul\":14526:14528   */\n      0x20\n        /* \"#utility.yul\":14523:14524   */\n      dup2\n        /* \"#utility.yul\":14519:14529   */\n      add\n        /* \"#utility.yul\":14514:14529   */\n      swap1\n      pop\n        /* \"#utility.yul\":14490:14603   */\n      jump(tag_397)\n    tag_399:\n        /* \"#utility.yul\":14621:14627   */\n      dup4\n        /* \"#utility.yul\":14618:14619   */\n      dup2\n        /* \"#utility.yul\":14615:14628   */\n      gt\n        /* \"#utility.yul\":14612:14713   */\n      iszero\n      tag_400\n      jumpi\n        /* \"#utility.yul\":14701:14702   */\n      0x00\n        /* \"#utility.yul\":14692:14698   */\n      dup5\n        /* \"#utility.yul\":14687:14690   */\n      dup5\n        /* \"#utility.yul\":14683:14699   */\n      add\n        /* \"#utility.yul\":14676:14703   */\n      mstore\n        /* \"#utility.yul\":14612:14713   */\n    tag_400:\n        /* \"#utility.yul\":14461:14719   */\n      pop\n        /* \"#utility.yul\":14412:14719   */\n      pop\n      pop\n      pop\n      jump\t// out\n        /* \"#utility.yul\":14725:15065   */\n    tag_212:\n        /* \"#utility.yul\":14801:14804   */\n      0x00\n        /* \"#utility.yul\":14829:14867   */\n      tag_402\n        /* \"#utility.yul\":14861:14866   */\n      dup3\n        /* \"#utility.yul\":14829:14867   */\n      tag_209\n      jump\t// in\n    tag_402:\n        /* \"#utility.yul\":14883:14943   */\n      tag_403\n        /* \"#utility.yul\":14936:14942   */\n      dup2\n        /* \"#utility.yul\":14931:14934   */\n      dup6\n        /* \"#utility.yul\":14883:14943   */\n      tag_210\n      jump\t// in\n    tag_403:\n        /* \"#utility.yul\":14876:14943   */\n      swap4\n      pop\n        /* \"#utility.yul\":14952:15004   */\n      tag_404\n        /* \"#utility.yul\":14997:15003   */\n      dup2\n        /* \"#utility.yul\":14992:14995   */\n      dup6\n        /* \"#utility.yul\":14985:14989   */\n      0x20\n        /* \"#utility.yul\":14978:14983   */\n      dup7\n        /* \"#utility.yul\":14974:14990   */\n      add\n        /* \"#utility.yul\":14952:15004   */\n      tag_211\n      jump\t// in\n    tag_404:\n        /* \"#utility.yul\":15029:15058   */\n      tag_405\n        /* \"#utility.yul\":15051:15057   */\n      dup2\n        /* \"#utility.yul\":15029:15058   */\n      tag_159\n      jump\t// in\n    tag_405:\n        /* \"#utility.yul\":15024:15027   */\n      dup5\n        /* \"#utility.yul\":15020:15059   */\n      add\n        /* \"#utility.yul\":15013:15059   */\n      swap2\n      pop\n        /* \"#utility.yul\":14805:15065   */\n      pop\n        /* \"#utility.yul\":14725:15065   */\n      swap3\n      swap2\n      pop\n      pop\n      jump\t// out\n        /* \"#utility.yul\":15071:15161   */\n    tag_213:\n        /* \"#utility.yul\":15105:15112   */\n      0x00\n        /* \"#utility.yul\":15148:15153   */\n      dup2\n        /* \"#utility.yul\":15141:15154   */\n      iszero\n        /* \"#utility.yul\":15134:15155   */\n      iszero\n        /* \"#utility.yul\":15123:15155   */\n      swap1\n      pop\n        /* \"#utility.yul\":15071:15161   */\n      swap2\n      swap1\n      pop\n      jump\t// out\n        /* \"#utility.yul\":15167:15266   */\n    tag_214:\n        /* \"#utility.yul\":15238:15259   */\n      tag_408\n        /* \"#utility.yul\":15253:15258   */\n      dup2\n        /* \"#utility.yul\":15238:15259   */\n      tag_213\n      jump\t// in\n    tag_408:\n        /* \"#utility.yul\":15233:15236   */\n      dup3\n        /* \"#utility.yul\":15226:15260   */\n      mstore\n        /* \"#utility.yul\":15167:15266   */\n      pop\n      pop\n      jump\t// out\n        /* \"#utility.yul\":15350:16557   */\n    tag_215:\n        /* \"#utility.yul\":15485:15488   */\n      0x00\n        /* \"#utility.yul\":15521:15525   */\n      0x80\n        /* \"#utility.yul\":15516:15519   */\n      dup4\n        /* \"#utility.yul\":15512:15526   */\n      add\n        /* \"#utility.yul\":15610:15614   */\n      0x00\n        /* \"#utility.yul\":15603:15608   */\n      dup4\n        /* \"#utility.yul\":15599:15615   */\n      add\n        /* \"#utility.yul\":15593:15616   */\n      mload\n        /* \"#utility.yul\":15663:15666   */\n      dup5\n        /* \"#utility.yul\":15657:15661   */\n      dup3\n        /* \"#utility.yul\":15653:15667   */\n      sub\n        /* \"#utility.yul\":15646:15650   */\n      0x00\n        /* \"#utility.yul\":15641:15644   */\n      dup7\n        /* \"#utility.yul\":15637:15651   */\n      add\n        /* \"#utility.yul\":15630:15668   */\n      mstore\n        /* \"#utility.yul\":15689:15807   */\n      tag_410\n        /* \"#utility.yul\":15802:15806   */\n      dup3\n        /* \"#utility.yul\":15788:15800   */\n      dup3\n        /* \"#utility.yul\":15689:15807   */\n      tag_201\n      jump\t// in\n    tag_410:\n        /* \"#utility.yul\":15681:15807   */\n      swap2\n      pop\n        /* \"#utility.yul\":15536:15818   */\n      pop\n        /* \"#utility.yul\":15909:15913   */\n      0x20\n        /* \"#utility.yul\":15902:15907   */\n      dup4\n        /* \"#utility.yul\":15898:15914   */\n      add\n        /* \"#utility.yul\":15892:15915   */\n      mload\n        /* \"#utility.yul\":15962:15965   */\n      dup5\n        /* \"#utility.yul\":15956:15960   */\n      dup3\n        /* \"#utility.yul\":15952:15966   */\n      sub\n        /* \"#utility.yul\":15945:15949   */\n      0x20\n        /* \"#utility.yul\":15940:15943   */\n      dup7\n        /* \"#utility.yul\":15936:15950   */\n      add\n        /* \"#utility.yul\":15929:15967   */\n      mstore\n        /* \"#utility.yul\":15988:16091   */\n      tag_411\n        /* \"#utility.yul\":16086:16090   */\n      dup3\n        /* \"#utility.yul\":16072:16084   */\n      dup3\n        /* \"#utility.yul\":15988:16091   */\n      tag_208\n      jump\t// in\n    tag_411:\n        /* \"#utility.yul\":15980:16091   */\n      swap2\n      pop\n        /* \"#utility.yul\":15828:16102   */\n      pop\n        /* \"#utility.yul\":16188:16192   */\n      0x40\n        /* \"#utility.yul\":16181:16186   */\n      dup4\n        /* \"#utility.yul\":16177:16193   */\n      add\n        /* \"#utility.yul\":16171:16194   */\n      mload\n        /* \"#utility.yul\":16241:16244   */\n      dup5\n        /* \"#utility.yul\":16235:16239   */\n      dup3\n        /* \"#utility.yul\":16231:16245   */\n      sub\n        /* \"#utility.yul\":16224:16228   */\n      0x40\n        /* \"#utility.yul\":16219:16222   */\n      dup7\n        /* \"#utility.yul\":16215:16229   */\n      add\n        /* \"#utility.yul\":16208:16246   */\n      mstore\n        /* \"#utility.yul\":16267:16338   */\n      tag_412\n        /* \"#utility.yul\":16333:16337   */\n      dup3\n        /* \"#utility.yul\":16319:16331   */\n      dup3\n        /* \"#utility.yul\":16267:16338   */\n      tag_212\n      jump\t// in\n    tag_412:\n        /* \"#utility.yul\":16259:16338   */\n      swap2\n      pop\n        /* \"#utility.yul\":16112:16349   */\n      pop\n        /* \"#utility.yul\":16444:16448   */\n      0x60\n        /* \"#utility.yul\":16437:16442   */\n      dup4\n        /* \"#utility.yul\":16433:16449   */\n      add\n        /* \"#utility.yul\":16427:16450   */\n      mload\n        /* \"#utility.yul\":16463:16520   */\n      tag_413\n        /* \"#utility.yul\":16514:16518   */\n      0x60\n        /* \"#utility.yul\":16509:16512   */\n      dup7\n        /* \"#utility.yul\":16505:16519   */\n      add\n        /* \"#utility.yul\":16491:16503   */\n      dup3\n        /* \"#utility.yul\":16463:16520   */\n      tag_214\n      jump\t// in\n    tag_413:\n        /* \"#utility.yul\":16359:16530   */\n      pop\n        /* \"#utility.yul\":16547:16551   */\n      dup1\n        /* \"#utility.yul\":16540:16551   */\n      swap2\n      pop\n        /* \"#utility.yul\":15490:16557   */\n      pop\n        /* \"#utility.yul\":15350:16557   */\n      swap3\n      swap2\n      pop\n      pop\n      jump\t// out\n        /* \"#utility.yul\":16563:17331   */\n    tag_62:\n        /* \"#utility.yul\":16822:16826   */\n      0x00\n        /* \"#utility.yul\":16860:16863   */\n      0x80\n        /* \"#utility.yul\":16849:16858   */\n      dup3\n        /* \"#utility.yul\":16845:16864   */\n      add\n        /* \"#utility.yul\":16837:16864   */\n      swap1\n      pop\n        /* \"#utility.yul\":16874:16945   */\n      tag_415\n        /* \"#utility.yul\":16942:16943   */\n      0x00\n        /* \"#utility.yul\":16931:16940   */\n      dup4\n        /* \"#utility.yul\":16927:16944   */\n      add\n        /* \"#utility.yul\":16918:16924   */\n      dup8\n        /* \"#utility.yul\":16874:16945   */\n      tag_189\n      jump\t// in\n    tag_415:\n        /* \"#utility.yul\":16955:17027   */\n      tag_416\n        /* \"#utility.yul\":17023:17025   */\n      0x20\n        /* \"#utility.yul\":17012:17021   */\n      dup4\n        /* \"#utility.yul\":17008:17026   */\n      add\n        /* \"#utility.yul\":16999:17005   */\n      dup7\n        /* \"#utility.yul\":16955:17027   */\n      tag_182\n      jump\t// in\n    tag_416:\n        /* \"#utility.yul\":17037:17125   */\n      tag_417\n        /* \"#utility.yul\":17121:17123   */\n      0x40\n        /* \"#utility.yul\":17110:17119   */\n      dup4\n        /* \"#utility.yul\":17106:17124   */\n      add\n        /* \"#utility.yul\":17097:17103   */\n      dup6\n        /* \"#utility.yul\":17037:17125   */\n      tag_191\n      jump\t// in\n    tag_417:\n        /* \"#utility.yul\":17172:17181   */\n      dup2\n        /* \"#utility.yul\":17166:17170   */\n      dup2\n        /* \"#utility.yul\":17162:17182   */\n      sub\n        /* \"#utility.yul\":17157:17159   */\n      0x60\n        /* \"#utility.yul\":17146:17155   */\n      dup4\n        /* \"#utility.yul\":17142:17160   */\n      add\n        /* \"#utility.yul\":17135:17183   */\n      mstore\n        /* \"#utility.yul\":17200:17324   */\n      tag_418\n        /* \"#utility.yul\":17319:17323   */\n      dup2\n        /* \"#utility.yul\":17310:17316   */\n      dup5\n        /* \"#utility.yul\":17200:17324   */\n      tag_215\n      jump\t// in\n    tag_418:\n        /* \"#utility.yul\":17192:17324   */\n      swap1\n      pop\n        /* \"#utility.yul\":16563:17331   */\n      swap6\n      swap5\n      pop\n      pop\n      pop\n      pop\n      pop\n      jump\t// out\n        /* \"#utility.yul\":17337:17449   */\n    tag_216:\n        /* \"#utility.yul\":17420:17442   */\n      tag_420\n        /* \"#utility.yul\":17436:17441   */\n      dup2\n        /* \"#utility.yul\":17420:17442   */\n      tag_185\n      jump\t// in\n    tag_420:\n        /* \"#utility.yul\":17415:17418   */\n      dup3\n        /* \"#utility.yul\":17408:17443   */\n      mstore\n        /* \"#utility.yul\":17337:17449   */\n      pop\n      pop\n      jump\t// out\n        /* \"#utility.yul\":17455:17639   */\n    tag_217:\n        /* \"#utility.yul\":17554:17565   */\n      0x00\n        /* \"#utility.yul\":17588:17594   */\n      dup3\n        /* \"#utility.yul\":17583:17586   */\n      dup3\n        /* \"#utility.yul\":17576:17595   */\n      mstore\n        /* \"#utility.yul\":17628:17632   */\n      0x20\n        /* \"#utility.yul\":17623:17626   */\n      dup3\n        /* \"#utility.yul\":17619:17633   */\n      add\n        /* \"#utility.yul\":17604:17633   */\n      swap1\n      pop\n        /* \"#utility.yul\":17455:17639   */\n      swap3\n      swap2\n      pop\n      pop\n      jump\t// out\n        /* \"#utility.yul\":17675:18407   */\n    tag_218:\n        /* \"#utility.yul\":17794:17797   */\n      0x00\n        /* \"#utility.yul\":17823:17877   */\n      tag_423\n        /* \"#utility.yul\":17871:17876   */\n      dup3\n        /* \"#utility.yul\":17823:17877   */\n      tag_202\n      jump\t// in\n    tag_423:\n        /* \"#utility.yul\":17893:17979   */\n      tag_424\n        /* \"#utility.yul\":17972:17978   */\n      dup2\n        /* \"#utility.yul\":17967:17970   */\n      dup6\n        /* \"#utility.yul\":17893:17979   */\n      tag_217\n      jump\t// in\n    tag_424:\n        /* \"#utility.yul\":17886:17979   */\n      swap4\n      pop\n        /* \"#utility.yul\":18003:18059   */\n      tag_425\n        /* \"#utility.yul\":18053:18058   */\n      dup4\n        /* \"#utility.yul\":18003:18059   */\n      tag_204\n      jump\t// in\n    tag_425:\n        /* \"#utility.yul\":18082:18089   */\n      dup1\n        /* \"#utility.yul\":18113:18114   */\n      0x00\n        /* \"#utility.yul\":18098:18382   */\n    tag_426:\n        /* \"#utility.yul\":18123:18129   */\n      dup4\n        /* \"#utility.yul\":18120:18121   */\n      dup2\n        /* \"#utility.yul\":18117:18130   */\n      lt\n        /* \"#utility.yul\":18098:18382   */\n      iszero\n      tag_428\n      jumpi\n        /* \"#utility.yul\":18199:18205   */\n      dup2\n        /* \"#utility.yul\":18193:18206   */\n      mload\n        /* \"#utility.yul\":18226:18289   */\n      tag_429\n        /* \"#utility.yul\":18285:18288   */\n      dup9\n        /* \"#utility.yul\":18270:18283   */\n      dup3\n        /* \"#utility.yul\":18226:18289   */\n      tag_206\n      jump\t// in\n    tag_429:\n        /* \"#utility.yul\":18219:18289   */\n      swap8\n      pop\n        /* \"#utility.yul\":18312:18372   */\n      tag_430\n        /* \"#utility.yul\":18365:18371   */\n      dup4\n        /* \"#utility.yul\":18312:18372   */\n      tag_207\n      jump\t// in\n    tag_430:\n        /* \"#utility.yul\":18302:18372   */\n      swap3\n      pop\n        /* \"#utility.yul\":18158:18382   */\n      pop\n        /* \"#utility.yul\":18145:18146   */\n      0x01\n        /* \"#utility.yul\":18142:18143   */\n      dup2\n        /* \"#utility.yul\":18138:18147   */\n      add\n        /* \"#utility.yul\":18133:18147   */\n      swap1\n      pop\n        /* \"#utility.yul\":18098:18382   */\n      jump(tag_426)\n    tag_428:\n        /* \"#utility.yul\":18102:18116   */\n      pop\n        /* \"#utility.yul\":18398:18401   */\n      dup6\n        /* \"#utility.yul\":18391:18401   */\n      swap4\n      pop\n        /* \"#utility.yul\":17799:18407   */\n      pop\n      pop\n      pop\n        /* \"#utility.yul\":17675:18407   */\n      swap3\n      swap2\n      pop\n      pop\n      jump\t// out\n        /* \"#utility.yul\":18413:18998   */\n    tag_73:\n        /* \"#utility.yul\":18608:18612   */\n      0x00\n        /* \"#utility.yul\":18646:18648   */\n      0x60\n        /* \"#utility.yul\":18635:18644   */\n      dup3\n        /* \"#utility.yul\":18631:18649   */\n      add\n        /* \"#utility.yul\":18623:18649   */\n      swap1\n      pop\n        /* \"#utility.yul\":18659:18726   */\n      tag_432\n        /* \"#utility.yul\":18723:18724   */\n      0x00\n        /* \"#utility.yul\":18712:18721   */\n      dup4\n        /* \"#utility.yul\":18708:18725   */\n      add\n        /* \"#utility.yul\":18699:18705   */\n      dup7\n        /* \"#utility.yul\":18659:18726   */\n      tag_216\n      jump\t// in\n    tag_432:\n        /* \"#utility.yul\":18773:18782   */\n      dup2\n        /* \"#utility.yul\":18767:18771   */\n      dup2\n        /* \"#utility.yul\":18763:18783   */\n      sub\n        /* \"#utility.yul\":18758:18760   */\n      0x20\n        /* \"#utility.yul\":18747:18756   */\n      dup4\n        /* \"#utility.yul\":18743:18761   */\n      add\n        /* \"#utility.yul\":18736:18784   */\n      mstore\n        /* \"#utility.yul\":18801:18909   */\n      tag_433\n        /* \"#utility.yul\":18904:18908   */\n      dup2\n        /* \"#utility.yul\":18895:18901   */\n      dup6\n        /* \"#utility.yul\":18801:18909   */\n      tag_218\n      jump\t// in\n    tag_433:\n        /* \"#utility.yul\":18793:18909   */\n      swap1\n      pop\n        /* \"#utility.yul\":18919:18991   */\n      tag_434\n        /* \"#utility.yul\":18987:18989   */\n      0x40\n        /* \"#utility.yul\":18976:18985   */\n      dup4\n        /* \"#utility.yul\":18972:18990   */\n      add\n        /* \"#utility.yul\":18963:18969   */\n      dup5\n        /* \"#utility.yul\":18919:18991   */\n      tag_183\n      jump\t// in\n    tag_434:\n        /* \"#utility.yul\":18413:18998   */\n      swap5\n      swap4\n      pop\n      pop\n      pop\n      pop\n      jump\t// out\n        /* \"#utility.yul\":19082:20290   */\n    tag_219:\n        /* \"#utility.yul\":19217:19220   */\n      0x00\n        /* \"#utility.yul\":19253:19257   */\n      0x80\n        /* \"#utility.yul\":19248:19251   */\n      dup4\n        /* \"#utility.yul\":19244:19258   */\n      add\n        /* \"#utility.yul\":19342:19346   */\n      0x00\n        /* \"#utility.yul\":19335:19340   */\n      dup4\n        /* \"#utility.yul\":19331:19347   */\n      add\n        /* \"#utility.yul\":19325:19348   */\n      mload\n        /* \"#utility.yul\":19395:19398   */\n      dup5\n        /* \"#utility.yul\":19389:19393   */\n      dup3\n        /* \"#utility.yul\":19385:19399   */\n      sub\n        /* \"#utility.yul\":19378:19382   */\n      0x00\n        /* \"#utility.yul\":19373:19376   */\n      dup7\n        /* \"#utility.yul\":19369:19383   */\n      add\n        /* \"#utility.yul\":19362:19400   */\n      mstore\n        /* \"#utility.yul\":19421:19539   */\n      tag_436\n        /* \"#utility.yul\":19534:19538   */\n      dup3\n        /* \"#utility.yul\":19520:19532   */\n      dup3\n        /* \"#utility.yul\":19421:19539   */\n      tag_201\n      jump\t// in\n    tag_436:\n        /* \"#utility.yul\":19413:19539   */\n      swap2\n      pop\n        /* \"#utility.yul\":19268:19550   */\n      pop\n        /* \"#utility.yul\":19640:19644   */\n      0x20\n        /* \"#utility.yul\":19633:19638   */\n      dup4\n        /* \"#utility.yul\":19629:19645   */\n      add\n        /* \"#utility.yul\":19623:19646   */\n      mload\n        /* \"#utility.yul\":19693:19696   */\n      dup5\n        /* \"#utility.yul\":19687:19691   */\n      dup3\n        /* \"#utility.yul\":19683:19697   */\n      sub\n        /* \"#utility.yul\":19676:19680   */\n      0x20\n        /* \"#utility.yul\":19671:19674   */\n      dup7\n        /* \"#utility.yul\":19667:19681   */\n      add\n        /* \"#utility.yul\":19660:19698   */\n      mstore\n        /* \"#utility.yul\":19719:19822   */\n      tag_437\n        /* \"#utility.yul\":19817:19821   */\n      dup3\n        /* \"#utility.yul\":19803:19815   */\n      dup3\n        /* \"#utility.yul\":19719:19822   */\n      tag_208\n      jump\t// in\n    tag_437:\n        /* \"#utility.yul\":19711:19822   */\n      swap2\n      pop\n        /* \"#utility.yul\":19560:19833   */\n      pop\n        /* \"#utility.yul\":19919:19923   */\n      0x40\n        /* \"#utility.yul\":19912:19917   */\n      dup4\n        /* \"#utility.yul\":19908:19924   */\n      add\n        /* \"#utility.yul\":19902:19925   */\n      mload\n        /* \"#utility.yul\":19972:19975   */\n      dup5\n        /* \"#utility.yul\":19966:19970   */\n      dup3\n        /* \"#utility.yul\":19962:19976   */\n      sub\n        /* \"#utility.yul\":19955:19959   */\n      0x40\n        /* \"#utility.yul\":19950:19953   */\n      dup7\n        /* \"#utility.yul\":19946:19960   */\n      add\n        /* \"#utility.yul\":19939:19977   */\n      mstore\n        /* \"#utility.yul\":19998:20069   */\n      tag_438\n        /* \"#utility.yul\":20064:20068   */\n      dup3\n        /* \"#utility.yul\":20050:20062   */\n      dup3\n        /* \"#utility.yul\":19998:20069   */\n      tag_212\n      jump\t// in\n    tag_438:\n        /* \"#utility.yul\":19990:20069   */\n      swap2\n      pop\n        /* \"#utility.yul\":19843:20080   */\n      pop\n        /* \"#utility.yul\":20177:20181   */\n      0x60\n        /* \"#utility.yul\":20170:20175   */\n      dup4\n        /* \"#utility.yul\":20166:20182   */\n      add\n        /* \"#utility.yul\":20160:20183   */\n      mload\n        /* \"#utility.yul\":20196:20253   */\n      tag_439\n        /* \"#utility.yul\":20247:20251   */\n      0x60\n        /* \"#utility.yul\":20242:20245   */\n      dup7\n        /* \"#utility.yul\":20238:20252   */\n      add\n        /* \"#utility.yul\":20224:20236   */\n      dup3\n        /* \"#utility.yul\":20196:20253   */\n      tag_214\n      jump\t// in\n    tag_439:\n        /* \"#utility.yul\":20090:20263   */\n      pop\n        /* \"#utility.yul\":20280:20284   */\n      dup1\n        /* \"#utility.yul\":20273:20284   */\n      swap2\n      pop\n        /* \"#utility.yul\":19222:20290   */\n      pop\n        /* \"#utility.yul\":19082:20290   */\n      swap3\n      swap2\n      pop\n      pop\n      jump\t// out\n        /* \"#utility.yul\":20296:21032   */\n    tag_81:\n        /* \"#utility.yul\":20539:20543   */\n      0x00\n        /* \"#utility.yul\":20577:20580   */\n      0x80\n        /* \"#utility.yul\":20566:20575   */\n      dup3\n        /* \"#utility.yul\":20562:20581   */\n      add\n        /* \"#utility.yul\":20554:20581   */\n      swap1\n      pop\n        /* \"#utility.yul\":20591:20662   */\n      tag_441\n        /* \"#utility.yul\":20659:20660   */\n      0x00\n        /* \"#utility.yul\":20648:20657   */\n      dup4\n        /* \"#utility.yul\":20644:20661   */\n      add\n        /* \"#utility.yul\":20635:20641   */\n      dup8\n        /* \"#utility.yul\":20591:20662   */\n      tag_189\n      jump\t// in\n    tag_441:\n        /* \"#utility.yul\":20672:20744   */\n      tag_442\n        /* \"#utility.yul\":20740:20742   */\n      0x20\n        /* \"#utility.yul\":20729:20738   */\n      dup4\n        /* \"#utility.yul\":20725:20743   */\n      add\n        /* \"#utility.yul\":20716:20722   */\n      dup7\n        /* \"#utility.yul\":20672:20744   */\n      tag_182\n      jump\t// in\n    tag_442:\n        /* \"#utility.yul\":20754:20826   */\n      tag_443\n        /* \"#utility.yul\":20822:20824   */\n      0x40\n        /* \"#utility.yul\":20811:20820   */\n      dup4\n        /* \"#utility.yul\":20807:20825   */\n      add\n        /* \"#utility.yul\":20798:20804   */\n      dup6\n        /* \"#utility.yul\":20754:20826   */\n      tag_182\n      jump\t// in\n    tag_443:\n        /* \"#utility.yul\":20873:20882   */\n      dup2\n        /* \"#utility.yul\":20867:20871   */\n      dup2\n        /* \"#utility.yul\":20863:20883   */\n      sub\n        /* \"#utility.yul\":20858:20860   */\n      0x60\n        /* \"#utility.yul\":20847:20856   */\n      dup4\n        /* \"#utility.yul\":20843:20861   */\n      add\n        /* \"#utility.yul\":20836:20884   */\n      mstore\n        /* \"#utility.yul\":20901:21025   */\n      tag_444\n        /* \"#utility.yul\":21020:21024   */\n      dup2\n        /* \"#utility.yul\":21011:21017   */\n      dup5\n        /* \"#utility.yul\":20901:21025   */\n      tag_219\n      jump\t// in\n    tag_444:\n        /* \"#utility.yul\":20893:21025   */\n      swap1\n      pop\n        /* \"#utility.yul\":20296:21032   */\n      swap6\n      swap5\n      pop\n      pop\n      pop\n      pop\n      pop\n      jump\t// out\n        /* \"#utility.yul\":21038:21181   */\n    tag_220:\n        /* \"#utility.yul\":21095:21100   */\n      0x00\n        /* \"#utility.yul\":21126:21132   */\n      dup2\n        /* \"#utility.yul\":21120:21133   */\n      mload\n        /* \"#utility.yul\":21111:21133   */\n      swap1\n      pop\n        /* \"#utility.yul\":21142:21175   */\n      tag_446\n        /* \"#utility.yul\":21169:21174   */\n      dup2\n        /* \"#utility.yul\":21142:21175   */\n      tag_174\n      jump\t// in\n    tag_446:\n        /* \"#utility.yul\":21038:21181   */\n      swap3\n      swap2\n      pop\n      pop\n      jump\t// out\n        /* \"#utility.yul\":21187:21538   */\n    tag_96:\n        /* \"#utility.yul\":21257:21263   */\n      0x00\n        /* \"#utility.yul\":21306:21308   */\n      0x20\n        /* \"#utility.yul\":21294:21303   */\n      dup3\n        /* \"#utility.yul\":21285:21292   */\n      dup5\n        /* \"#utility.yul\":21281:21304   */\n      sub\n        /* \"#utility.yul\":21277:21309   */\n      slt\n        /* \"#utility.yul\":21274:21393   */\n      iszero\n      tag_448\n      jumpi\n        /* \"#utility.yul\":21312:21391   */\n      tag_449\n      tag_156\n      jump\t// in\n    tag_449:\n        /* \"#utility.yul\":21274:21393   */\n    tag_448:\n        /* \"#utility.yul\":21432:21433   */\n      0x00\n        /* \"#utility.yul\":21457:21521   */\n      tag_450\n        /* \"#utility.yul\":21513:21520   */\n      dup5\n        /* \"#utility.yul\":21504:21510   */\n      dup3\n        /* \"#utility.yul\":21493:21502   */\n      dup6\n        /* \"#utility.yul\":21489:21511   */\n      add\n        /* \"#utility.yul\":21457:21521   */\n      tag_220\n      jump\t// in\n    tag_450:\n        /* \"#utility.yul\":21447:21521   */\n      swap2\n      pop\n        /* \"#utility.yul\":21403:21531   */\n      pop\n        /* \"#utility.yul\":21187:21538   */\n      swap3\n      swap2\n      pop\n      pop\n      jump\t// out\n        /* \"#utility.yul\":21544:21660   */\n    tag_221:\n        /* \"#utility.yul\":21614:21635   */\n      tag_452\n        /* \"#utility.yul\":21629:21634   */\n      dup2\n        /* \"#utility.yul\":21614:21635   */\n      tag_213\n      jump\t// in\n    tag_452:\n        /* \"#utility.yul\":21607:21612   */\n      dup2\n        /* \"#utility.yul\":21604:21636   */\n      eq\n        /* \"#utility.yul\":21594:21654   */\n      tag_453\n      jumpi\n        /* \"#utility.yul\":21650:21651   */\n      0x00\n        /* \"#utility.yul\":21647:21648   */\n      dup1\n        /* \"#utility.yul\":21640:21652   */\n      revert\n        /* \"#utility.yul\":21594:21654   */\n    tag_453:\n        /* \"#utility.yul\":21544:21660   */\n      pop\n      jump\t// out\n        /* \"#utility.yul\":21666:21803   */\n    tag_222:\n        /* \"#utility.yul\":21720:21725   */\n      0x00\n        /* \"#utility.yul\":21751:21757   */\n      dup2\n        /* \"#utility.yul\":21745:21758   */\n      mload\n        /* \"#utility.yul\":21736:21758   */\n      swap1\n      pop\n        /* \"#utility.yul\":21767:21797   */\n      tag_455\n        /* \"#utility.yul\":21791:21796   */\n      dup2\n        /* \"#utility.yul\":21767:21797   */\n      tag_221\n      jump\t// in\n    tag_455:\n        /* \"#utility.yul\":21666:21803   */\n      swap3\n      swap2\n      pop\n      pop\n      jump\t// out\n        /* \"#utility.yul\":21809:22154   */\n    tag_103:\n        /* \"#utility.yul\":21876:21882   */\n      0x00\n        /* \"#utility.yul\":21925:21927   */\n      0x20\n        /* \"#utility.yul\":21913:21922   */\n      dup3\n        /* \"#utility.yul\":21904:21911   */\n      dup5\n        /* \"#utility.yul\":21900:21923   */\n      sub\n        /* \"#utility.yul\":21896:21928   */\n      slt\n        /* \"#utility.yul\":21893:22012   */\n      iszero\n      tag_457\n      jumpi\n        /* \"#utility.yul\":21931:22010   */\n      tag_458\n      tag_156\n      jump\t// in\n    tag_458:\n        /* \"#utility.yul\":21893:22012   */\n    tag_457:\n        /* \"#utility.yul\":22051:22052   */\n      0x00\n        /* \"#utility.yul\":22076:22137   */\n      tag_459\n        /* \"#utility.yul\":22129:22136   */\n      dup5\n        /* \"#utility.yul\":22120:22126   */\n      dup3\n        /* \"#utility.yul\":22109:22118   */\n      dup6\n        /* \"#utility.yul\":22105:22127   */\n      add\n        /* \"#utility.yul\":22076:22137   */\n      tag_222\n      jump\t// in\n    tag_459:\n        /* \"#utility.yul\":22066:22137   */\n      swap2\n      pop\n        /* \"#utility.yul\":22022:22147   */\n      pop\n        /* \"#utility.yul\":21809:22154   */\n      swap3\n      swap2\n      pop\n      pop\n      jump\t// out\n        /* \"#utility.yul\":22160:22329   */\n    tag_223:\n        /* \"#utility.yul\":22244:22255   */\n      0x00\n        /* \"#utility.yul\":22278:22284   */\n      dup3\n        /* \"#utility.yul\":22273:22276   */\n      dup3\n        /* \"#utility.yul\":22266:22285   */\n      mstore\n        /* \"#utility.yul\":22318:22322   */\n      0x20\n        /* \"#utility.yul\":22313:22316   */\n      dup3\n        /* \"#utility.yul\":22309:22323   */\n      add\n        /* \"#utility.yul\":22294:22323   */\n      swap1\n      pop\n        /* \"#utility.yul\":22160:22329   */\n      swap3\n      swap2\n      pop\n      pop\n      jump\t// out\n        /* \"#utility.yul\":22335:22564   */\n    tag_224:\n        /* \"#utility.yul\":22475:22509   */\n      0x5361666545524332303a204552433230206f7065726174696f6e20646964206e\n        /* \"#utility.yul\":22471:22472   */\n      0x00\n        /* \"#utility.yul\":22463:22469   */\n      dup3\n        /* \"#utility.yul\":22459:22473   */\n      add\n        /* \"#utility.yul\":22452:22510   */\n      mstore\n        /* \"#utility.yul\":22544:22556   */\n      0x6f74207375636365656400000000000000000000000000000000000000000000\n        /* \"#utility.yul\":22539:22541   */\n      0x20\n        /* \"#utility.yul\":22531:22537   */\n      dup3\n        /* \"#utility.yul\":22527:22542   */\n      add\n        /* \"#utility.yul\":22520:22557   */\n      mstore\n        /* \"#utility.yul\":22335:22564   */\n      pop\n      jump\t// out\n        /* \"#utility.yul\":22570:22936   */\n    tag_225:\n        /* \"#utility.yul\":22712:22715   */\n      0x00\n        /* \"#utility.yul\":22733:22800   */\n      tag_463\n        /* \"#utility.yul\":22797:22799   */\n      0x2a\n        /* \"#utility.yul\":22792:22795   */\n      dup4\n        /* \"#utility.yul\":22733:22800   */\n      tag_223\n      jump\t// in\n    tag_463:\n        /* \"#utility.yul\":22726:22800   */\n      swap2\n      pop\n        /* \"#utility.yul\":22809:22902   */\n      tag_464\n        /* \"#utility.yul\":22898:22901   */\n      dup3\n        /* \"#utility.yul\":22809:22902   */\n      tag_224\n      jump\t// in\n    tag_464:\n        /* \"#utility.yul\":22927:22929   */\n      0x40\n        /* \"#utility.yul\":22922:22925   */\n      dup3\n        /* \"#utility.yul\":22918:22930   */\n      add\n        /* \"#utility.yul\":22911:22930   */\n      swap1\n      pop\n        /* \"#utility.yul\":22570:22936   */\n      swap2\n      swap1\n      pop\n      jump\t// out\n        /* \"#utility.yul\":22942:23361   */\n    tag_106:\n        /* \"#utility.yul\":23108:23112   */\n      0x00\n        /* \"#utility.yul\":23146:23148   */\n      0x20\n        /* \"#utility.yul\":23135:23144   */\n      dup3\n        /* \"#utility.yul\":23131:23149   */\n      add\n        /* \"#utility.yul\":23123:23149   */\n      swap1\n      pop\n        /* \"#utility.yul\":23195:23204   */\n      dup2\n        /* \"#utility.yul\":23189:23193   */\n      dup2\n        /* \"#utility.yul\":23185:23205   */\n      sub\n        /* \"#utility.yul\":23181:23182   */\n      0x00\n        /* \"#utility.yul\":23170:23179   */\n      dup4\n        /* \"#utility.yul\":23166:23183   */\n      add\n        /* \"#utility.yul\":23159:23206   */\n      mstore\n        /* \"#utility.yul\":23223:23354   */\n      tag_466\n        /* \"#utility.yul\":23349:23353   */\n      dup2\n        /* \"#utility.yul\":23223:23354   */\n      tag_225\n      jump\t// in\n    tag_466:\n        /* \"#utility.yul\":23215:23354   */\n      swap1\n      pop\n        /* \"#utility.yul\":22942:23361   */\n      swap2\n      swap1\n      pop\n      jump\t// out\n        /* \"#utility.yul\":23367:23699   */\n    tag_109:\n        /* \"#utility.yul\":23488:23492   */\n      0x00\n        /* \"#utility.yul\":23526:23528   */\n      0x40\n        /* \"#utility.yul\":23515:23524   */\n      dup3\n        /* \"#utility.yul\":23511:23529   */\n      add\n        /* \"#utility.yul\":23503:23529   */\n      swap1\n      pop\n        /* \"#utility.yul\":23539:23610   */\n      tag_468\n        /* \"#utility.yul\":23607:23608   */\n      0x00\n        /* \"#utility.yul\":23596:23605   */\n      dup4\n        /* \"#utility.yul\":23592:23609   */\n      add\n        /* \"#utility.yul\":23583:23589   */\n      dup6\n        /* \"#utility.yul\":23539:23610   */\n      tag_182\n      jump\t// in\n    tag_468:\n        /* \"#utility.yul\":23620:23692   */\n      tag_469\n        /* \"#utility.yul\":23688:23690   */\n      0x20\n        /* \"#utility.yul\":23677:23686   */\n      dup4\n        /* \"#utility.yul\":23673:23691   */\n      add\n        /* \"#utility.yul\":23664:23670   */\n      dup5\n        /* \"#utility.yul\":23620:23692   */\n      tag_182\n      jump\t// in\n    tag_469:\n        /* \"#utility.yul\":23367:23699   */\n      swap4\n      swap3\n      pop\n      pop\n      pop\n      jump\t// out\n        /* \"#utility.yul\":23705:23885   */\n    tag_226:\n        /* \"#utility.yul\":23753:23830   */\n      0x4e487b7100000000000000000000000000000000000000000000000000000000\n        /* \"#utility.yul\":23750:23751   */\n      0x00\n        /* \"#utility.yul\":23743:23831   */\n      mstore\n        /* \"#utility.yul\":23850:23854   */\n      0x11\n        /* \"#utility.yul\":23847:23848   */\n      0x04\n        /* \"#utility.yul\":23840:23855   */\n      mstore\n        /* \"#utility.yul\":23874:23878   */\n      0x24\n        /* \"#utility.yul\":23871:23872   */\n      0x00\n        /* \"#utility.yul\":23864:23879   */\n      revert\n        /* \"#utility.yul\":23891:24196   */\n    tag_114:\n        /* \"#utility.yul\":23931:23934   */\n      0x00\n        /* \"#utility.yul\":23950:23970   */\n      tag_472\n        /* \"#utility.yul\":23968:23969   */\n      dup3\n        /* \"#utility.yul\":23950:23970   */\n      tag_173\n      jump\t// in\n    tag_472:\n        /* \"#utility.yul\":23945:23970   */\n      swap2\n      pop\n        /* \"#utility.yul\":23984:24004   */\n      tag_473\n        /* \"#utility.yul\":24002:24003   */\n      dup4\n        /* \"#utility.yul\":23984:24004   */\n      tag_173\n      jump\t// in\n    tag_473:\n        /* \"#utility.yul\":23979:24004   */\n      swap3\n      pop\n        /* \"#utility.yul\":24138:24139   */\n      dup3\n        /* \"#utility.yul\":24070:24136   */\n      0xffffffffffffffffffffffffffffffffffffffffffffffffffffffffffffffff\n        /* \"#utility.yul\":24066:24140   */\n      sub\n        /* \"#utility.yul\":24063:24064   */\n      dup3\n        /* \"#utility.yul\":24060:24141   */\n      gt\n        /* \"#utility.yul\":24057:24164   */\n      iszero\n      tag_474\n      jumpi\n        /* \"#utility.yul\":24144:24162   */\n      tag_475\n      tag_226\n      jump\t// in\n    tag_475:\n        /* \"#utility.yul\":24057:24164   */\n    tag_474:\n        /* \"#utility.yul\":24188:24189   */\n      dup3\n        /* \"#utility.yul\":24185:24186   */\n      dup3\n        /* \"#utility.yul\":24181:24190   */\n      add\n        /* \"#utility.yul\":24174:24190   */\n      swap1\n      pop\n        /* \"#utility.yul\":23891:24196   */\n      swap3\n      swap2\n      pop\n      pop\n      jump\t// out\n        /* \"#utility.yul\":24202:24534   */\n    tag_117:\n        /* \"#utility.yul\":24323:24327   */\n      0x00\n        /* \"#utility.yul\":24361:24363   */\n      0x40\n        /* \"#utility.yul\":24350:24359   */\n      dup3\n        /* \"#utility.yul\":24346:24364   */\n      add\n        /* \"#utility.yul\":24338:24364   */\n      swap1\n      pop\n        /* \"#utility.yul\":24374:24445   */\n      tag_477\n        /* \"#utility.yul\":24442:24443   */\n      0x00\n        /* \"#utility.yul\":24431:24440   */\n      dup4\n        /* \"#utility.yul\":24427:24444   */\n      add\n        /* \"#utility.yul\":24418:24424   */\n      dup6\n        /* \"#utility.yul\":24374:24445   */\n      tag_182\n      jump\t// in\n    tag_477:\n        /* \"#utility.yul\":24455:24527   */\n      tag_478\n        /* \"#utility.yul\":24523:24525   */\n      0x20\n        /* \"#utility.yul\":24512:24521   */\n      dup4\n        /* \"#utility.yul\":24508:24526   */\n      add\n        /* \"#utility.yul\":24499:24505   */\n      dup5\n        /* \"#utility.yul\":24455:24527   */\n      tag_183\n      jump\t// in\n    tag_478:\n        /* \"#utility.yul\":24202:24534   */\n      swap4\n      swap3\n      pop\n      pop\n      pop\n      jump\t// out\n        /* \"#utility.yul\":24540:24765   */\n    tag_227:\n        /* \"#utility.yul\":24680:24714   */\n      0x416464726573733a20696e73756666696369656e742062616c616e636520666f\n        /* \"#utility.yul\":24676:24677   */\n      0x00\n        /* \"#utility.yul\":24668:24674   */\n      dup3\n        /* \"#utility.yul\":24664:24678   */\n      add\n        /* \"#utility.yul\":24657:24715   */\n      mstore\n        /* \"#utility.yul\":24749:24757   */\n      0x722063616c6c0000000000000000000000000000000000000000000000000000\n        /* \"#utility.yul\":24744:24746   */\n      0x20\n        /* \"#utility.yul\":24736:24742   */\n      dup3\n        /* \"#utility.yul\":24732:24747   */\n      add\n        /* \"#utility.yul\":24725:24758   */\n      mstore\n        /* \"#utility.yul\":24540:24765   */\n      pop\n      jump\t// out\n        /* \"#utility.yul\":24771:25137   */\n    tag_228:\n        /* \"#utility.yul\":24913:24916   */\n      0x00\n        /* \"#utility.yul\":24934:25001   */\n      tag_481\n        /* \"#utility.yul\":24998:25000   */\n      0x26\n        /* \"#utility.yul\":24993:24996   */\n      dup4\n        /* \"#utility.yul\":24934:25001   */\n      tag_223\n      jump\t// in\n    tag_481:\n        /* \"#utility.yul\":24927:25001   */\n      swap2\n      pop\n        /* \"#utility.yul\":25010:25103   */\n      tag_482\n        /* \"#utility.yul\":25099:25102   */\n      dup3\n        /* \"#utility.yul\":25010:25103   */\n      tag_227\n      jump\t// in\n    tag_482:\n        /* \"#utility.yul\":25128:25130   */\n      0x40\n        /* \"#utility.yul\":25123:25126   */\n      dup3\n        /* \"#utility.yul\":25119:25131   */\n      add\n        /* \"#utility.yul\":25112:25131   */\n      swap1\n      pop\n        /* \"#utility.yul\":24771:25137   */\n      swap2\n      swap1\n      pop\n      jump\t// out\n        /* \"#utility.yul\":25143:25562   */\n    tag_134:\n        /* \"#utility.yul\":25309:25313   */\n      0x00\n        /* \"#utility.yul\":25347:25349   */\n      0x20\n        /* \"#utility.yul\":25336:25345   */\n      dup3\n        /* \"#utility.yul\":25332:25350   */\n      add\n        /* \"#utility.yul\":25324:25350   */\n      swap1\n      pop\n        /* \"#utility.yul\":25396:25405   */\n      dup2\n        /* \"#utility.yul\":25390:25394   */\n      dup2\n        /* \"#utility.yul\":25386:25406   */\n      sub\n        /* \"#utility.yul\":25382:25383   */\n      0x00\n        /* \"#utility.yul\":25371:25380   */\n      dup4\n        /* \"#utility.yul\":25367:25384   */\n      add\n        /* \"#utility.yul\":25360:25407   */\n      mstore\n        /* \"#utility.yul\":25424:25555   */\n      tag_484\n        /* \"#utility.yul\":25550:25554   */\n      dup2\n        /* \"#utility.yul\":25424:25555   */\n      tag_228\n      jump\t// in\n    tag_484:\n        /* \"#utility.yul\":25416:25555   */\n      swap1\n      pop\n        /* \"#utility.yul\":25143:25562   */\n      swap2\n      swap1\n      pop\n      jump\t// out\n        /* \"#utility.yul\":25568:25747   */\n    tag_229:\n        /* \"#utility.yul\":25708:25739   */\n      0x416464726573733a2063616c6c20746f206e6f6e2d636f6e7472616374000000\n        /* \"#utility.yul\":25704:25705   */\n      0x00\n        /* \"#utility.yul\":25696:25702   */\n      dup3\n        /* \"#utility.yul\":25692:25706   */\n      add\n        /* \"#utility.yul\":25685:25740   */\n      mstore\n        /* \"#utility.yul\":25568:25747   */\n      pop\n      jump\t// out\n        /* \"#utility.yul\":25753:26119   */\n    tag_230:\n        /* \"#utility.yul\":25895:25898   */\n      0x00\n        /* \"#utility.yul\":25916:25983   */\n      tag_487\n        /* \"#utility.yul\":25980:25982   */\n      0x1d\n        /* \"#utility.yul\":25975:25978   */\n      dup4\n        /* \"#utility.yul\":25916:25983   */\n      tag_223\n      jump\t// in\n    tag_487:\n        /* \"#utility.yul\":25909:25983   */\n      swap2\n      pop\n        /* \"#utility.yul\":25992:26085   */\n      tag_488\n        /* \"#utility.yul\":26081:26084   */\n      dup3\n        /* \"#utility.yul\":25992:26085   */\n      tag_229\n      jump\t// in\n    tag_488:\n        /* \"#utility.yul\":26110:26112   */\n      0x20\n        /* \"#utility.yul\":26105:26108   */\n      dup3\n        /* \"#utility.yul\":26101:26113   */\n      add\n        /* \"#utility.yul\":26094:26113   */\n      swap1\n      pop\n        /* \"#utility.yul\":25753:26119   */\n      swap2\n      swap1\n      pop\n      jump\t// out\n        /* \"#utility.yul\":26125:26544   */\n    tag_139:\n        /* \"#utility.yul\":26291:26295   */\n      0x00\n        /* \"#utility.yul\":26329:26331   */\n      0x20\n        /* \"#utility.yul\":26318:26327   */\n      dup3\n        /* \"#utility.yul\":26314:26332   */\n      add\n        /* \"#utility.yul\":26306:26332   */\n      swap1\n      pop\n        /* \"#utility.yul\":26378:26387   */\n      dup2\n        /* \"#utility.yul\":26372:26376   */\n      dup2\n        /* \"#utility.yul\":26368:26388   */\n      sub\n        /* \"#utility.yul\":26364:26365   */\n      0x00\n        /* \"#utility.yul\":26353:26362   */\n      dup4\n        /* \"#utility.yul\":26349:26366   */\n      add\n        /* \"#utility.yul\":26342:26389   */\n      mstore\n        /* \"#utility.yul\":26406:26537   */\n      tag_490\n        /* \"#utility.yul\":26532:26536   */\n      dup2\n        /* \"#utility.yul\":26406:26537   */\n      tag_230\n      jump\t// in\n    tag_490:\n        /* \"#utility.yul\":26398:26537   */\n      swap1\n      pop\n        /* \"#utility.yul\":26125:26544   */\n      swap2\n      swap1\n      pop\n      jump\t// out\n        /* \"#utility.yul\":26550:26697   */\n    tag_231:\n        /* \"#utility.yul\":26651:26662   */\n      0x00\n        /* \"#utility.yul\":26688:26691   */\n      dup2\n        /* \"#utility.yul\":26673:26691   */\n      swap1\n      pop\n        /* \"#utility.yul\":26550:26697   */\n      swap3\n      swap2\n      pop\n      pop\n      jump\t// out\n        /* \"#utility.yul\":26703:27076   */\n    tag_232:\n        /* \"#utility.yul\":26807:26810   */\n      0x00\n        /* \"#utility.yul\":26835:26873   */\n      tag_493\n        /* \"#utility.yul\":26867:26872   */\n      dup3\n        /* \"#utility.yul\":26835:26873   */\n      tag_209\n      jump\t// in\n    tag_493:\n        /* \"#utility.yul\":26889:26977   */\n      tag_494\n        /* \"#utility.yul\":26970:26976   */\n      dup2\n        /* \"#utility.yul\":26965:26968   */\n      dup6\n        /* \"#utility.yul\":26889:26977   */\n      tag_231\n      jump\t// in\n    tag_494:\n        /* \"#utility.yul\":26882:26977   */\n      swap4\n      pop\n        /* \"#utility.yul\":26986:27038   */\n      tag_495\n        /* \"#utility.yul\":27031:27037   */\n      dup2\n        /* \"#utility.yul\":27026:27029   */\n      dup6\n        /* \"#utility.yul\":27019:27023   */\n      0x20\n        /* \"#utility.yul\":27012:27017   */\n      dup7\n        /* \"#utility.yul\":27008:27024   */\n      add\n        /* \"#utility.yul\":26986:27038   */\n      tag_211\n      jump\t// in\n    tag_495:\n        /* \"#utility.yul\":27063:27069   */\n      dup1\n        /* \"#utility.yul\":27058:27061   */\n      dup5\n        /* \"#utility.yul\":27054:27070   */\n      add\n        /* \"#utility.yul\":27047:27070   */\n      swap2\n      pop\n        /* \"#utility.yul\":26811:27076   */\n      pop\n        /* \"#utility.yul\":26703:27076   */\n      swap3\n      swap2\n      pop\n      pop\n      jump\t// out\n        /* \"#utility.yul\":27082:27353   */\n    tag_141:\n        /* \"#utility.yul\":27212:27215   */\n      0x00\n        /* \"#utility.yul\":27234:27327   */\n      tag_497\n        /* \"#utility.yul\":27323:27326   */\n      dup3\n        /* \"#utility.yul\":27314:27320   */\n      dup5\n        /* \"#utility.yul\":27234:27327   */\n      tag_232\n      jump\t// in\n    tag_497:\n        /* \"#utility.yul\":27227:27327   */\n      swap2\n      pop\n        /* \"#utility.yul\":27344:27347   */\n      dup2\n        /* \"#utility.yul\":27337:27347   */\n      swap1\n      pop\n        /* \"#utility.yul\":27082:27353   */\n      swap3\n      swap2\n      pop\n      pop\n      jump\t// out\n        /* \"#utility.yul\":27359:27458   */\n    tag_233:\n        /* \"#utility.yul\":27411:27417   */\n      0x00\n        /* \"#utility.yul\":27445:27450   */\n      dup2\n        /* \"#utility.yul\":27439:27451   */\n      mload\n        /* \"#utility.yul\":27429:27451   */\n      swap1\n      pop\n        /* \"#utility.yul\":27359:27458   */\n      swap2\n      swap1\n      pop\n      jump\t// out\n        /* \"#utility.yul\":27464:27828   */\n    tag_234:\n        /* \"#utility.yul\":27552:27555   */\n      0x00\n        /* \"#utility.yul\":27580:27619   */\n      tag_500\n        /* \"#utility.yul\":27613:27618   */\n      dup3\n        /* \"#utility.yul\":27580:27619   */\n      tag_233\n      jump\t// in\n    tag_500:\n        /* \"#utility.yul\":27635:27706   */\n      tag_501\n        /* \"#utility.yul\":27699:27705   */\n      dup2\n        /* \"#utility.yul\":27694:27697   */\n      dup6\n        /* \"#utility.yul\":27635:27706   */\n      tag_223\n      jump\t// in\n    tag_501:\n        /* \"#utility.yul\":27628:27706   */\n      swap4\n      pop\n        /* \"#utility.yul\":27715:27767   */\n      tag_502\n        /* \"#utility.yul\":27760:27766   */\n      dup2\n        /* \"#utility.yul\":27755:27758   */\n      dup6\n        /* \"#utility.yul\":27748:27752   */\n      0x20\n        /* \"#utility.yul\":27741:27746   */\n      dup7\n        /* \"#utility.yul\":27737:27753   */\n      add\n        /* \"#utility.yul\":27715:27767   */\n      tag_211\n      jump\t// in\n    tag_502:\n        /* \"#utility.yul\":27792:27821   */\n      tag_503\n        /* \"#utility.yul\":27814:27820   */\n      dup2\n        /* \"#utility.yul\":27792:27821   */\n      tag_159\n      jump\t// in\n    tag_503:\n        /* \"#utility.yul\":27787:27790   */\n      dup5\n        /* \"#utility.yul\":27783:27822   */\n      add\n        /* \"#utility.yul\":27776:27822   */\n      swap2\n      pop\n        /* \"#utility.yul\":27556:27828   */\n      pop\n        /* \"#utility.yul\":27464:27828   */\n      swap3\n      swap2\n      pop\n      pop\n      jump\t// out\n        /* \"#utility.yul\":27834:28147   */\n    tag_154:\n        /* \"#utility.yul\":27947:27951   */\n      0x00\n        /* \"#utility.yul\":27985:27987   */\n      0x20\n        /* \"#utility.yul\":27974:27983   */\n      dup3\n        /* \"#utility.yul\":27970:27988   */\n      add\n        /* \"#utility.yul\":27962:27988   */\n      swap1\n      pop\n        /* \"#utility.yul\":28034:28043   */\n      dup2\n        /* \"#utility.yul\":28028:28032   */\n      dup2\n        /* \"#utility.yul\":28024:28044   */\n      sub\n        /* \"#utility.yul\":28020:28021   */\n      0x00\n        /* \"#utility.yul\":28009:28018   */\n      dup4\n        /* \"#utility.yul\":28005:28022   */\n      add\n        /* \"#utility.yul\":27998:28045   */\n      mstore\n        /* \"#utility.yul\":28062:28140   */\n      tag_505\n        /* \"#utility.yul\":28135:28139   */\n      dup2\n        /* \"#utility.yul\":28126:28132   */\n      dup5\n        /* \"#utility.yul\":28062:28140   */\n      tag_234\n      jump\t// in\n    tag_505:\n        /* \"#utility.yul\":28054:28140   */\n      swap1\n      pop\n        /* \"#utility.yul\":27834:28147   */\n      swap3\n      swap2\n      pop\n      pop\n      jump\t// out\n\n    auxdata: 0xa264697066735822122020754aeba9978991084b23aea67a53ec7f63c7c50cc8d1837a877dcf3b49d1eb64736f6c634300080d0033\n}\n",
				"bytecode": {
					"linkReferences": {},
					"object": "60a06040523480156200001157600080fd5b5060405162001bf638038062001bf68339818101604052810190620000379190620000dc565b8073ffffffffffffffffffffffffffffffffffffffff1660808173ffffffffffffffffffffffffffffffffffffffff1681525050506200010e565b600080fd5b600073ffffffffffffffffffffffffffffffffffffffff82169050919050565b6000620000a48262000077565b9050919050565b620000b68162000097565b8114620000c257600080fd5b50565b600081519050620000d681620000ab565b92915050565b600060208284031215620000f557620000f462000072565b5b60006200010584828501620000c5565b91505092915050565b608051611ab76200013f6000396000818161017c015281816103f10152818161056501526105c70152611ab76000f3fe608060405234801561001057600080fd5b506004361061004c5760003560e01c80630e6335e61461005157806377aba2131461006d5780639cbcf4c71461008b578063bfbd3808146100a7575b600080fd5b61006b60048036038101906100669190610ff7565b6100c3565b005b61007561017a565b6040516100829190611062565b60405180910390f35b6100a560048036038101906100a0919061107d565b61019e565b005b6100c160048036038101906100bc9190610ff7565b61020e565b005b6000826080015190506100f93330848473ffffffffffffffffffffffffffffffffffffffff16610296909392919063ffffffff16565b826080015173ffffffffffffffffffffffffffffffffffffffff1663853828b66040518163ffffffff1660e01b8152600401600060405180830381600087803b15801561014557600080fd5b505af1158015610159573d6000803e3d6000fd5b505050506101758360000151838560200151866040015161031f565b505050565b7f000000000000000000000000000000000000000000000000000000000000000081565b600082600001518360200151815181106101bb576101ba6110ec565b5b602002602001015190508073ffffffffffffffffffffffffffffffffffffffff168473ffffffffffffffffffffffffffffffffffffffff160361020757610202838361020e565b610208565b5b50505050565b6000826000015183602001518151811061022b5761022a6110ec565b5b602002602001015190506102623330848473ffffffffffffffffffffffffffffffffffffffff16610296909392919063ffffffff16565b61027a8360000151838560200151866040015161048a565b610291836060015184608001518560a00151610661565b505050565b610319846323b872dd60e01b8585856040516024016102b79392919061112a565b604051602081830303815290604052907bffffffffffffffffffffffffffffffffffffffffffffffffffffffff19166020820180517bffffffffffffffffffffffffffffffffffffffffffffffffffffffff838183161783525050505061077a565b50505050565b6000845167ffffffffffffffff81111561033c5761033b610ce6565b5b60405190808252806020026020018201604052801561036a5781602001602082028036833780820191505090505b50905083818481518110610381576103806110ec565b5b60200260200101818152505060006001905060008086866040516020016103aa939291906111b3565b60405160208183030381529060405290506103c3610c68565b87816000018190525083816020018190525081816040018190525060008160600190151590811515815250507f000000000000000000000000000000000000000000000000000000000000000073ffffffffffffffffffffffffffffffffffffffff16638bdb3913863030856040518563ffffffff1660e01b815260040161044e94939291906114f0565b600060405180830381600087803b15801561046857600080fd5b505af115801561047c573d6000803e3d6000fd5b505050505050505050505050565b6000600190506000855167ffffffffffffffff8111156104ad576104ac610ce6565b5b6040519080825280602002602001820160405280156104db5781602001602082028036833780820191505090505b509050848185815181106104f2576104f16110ec565b5b602002602001018181525050600060019050600083838360405160200161051b939291906115ba565b6040516020818303038152906040529050610534610c92565b88816000018190525083816020018190525081816040018190525060008160600190151590811515815250506105c57f0000000000000000000000000000000000000000000000000000000000000000898b8a81518110610598576105976110ec565b5b602002602001015173ffffffffffffffffffffffffffffffffffffffff166108419092919063ffffffff16565b7f000000000000000000000000000000000000000000000000000000000000000073ffffffffffffffffffffffffffffffffffffffff1663b95cac28873030856040518563ffffffff1660e01b81526004016106249493929190611669565b600060405180830381600087803b15801561063e57600080fd5b505af1158015610652573d6000803e3d6000fd5b50505050505050505050505050565b61066b8284610953565b8173ffffffffffffffffffffffffffffffffffffffff1663de5f62686040518163ffffffff1660e01b8152600401600060405180830381600087803b1580156106b357600080fd5b505af11580156106c7573d6000803e3d6000fd5b505050506000829050610774828273ffffffffffffffffffffffffffffffffffffffff166370a08231306040518263ffffffff1660e01b815260040161070d9190611062565b602060405180830381865afa15801561072a573d6000803e3d6000fd5b505050506040513d601f19601f8201168201806040525081019061074e91906116ca565b8373ffffffffffffffffffffffffffffffffffffffff16610a2c9092919063ffffffff16565b50505050565b60006107dc826040518060400160405280602081526020017f5361666545524332303a206c6f772d6c6576656c2063616c6c206661696c65648152508573ffffffffffffffffffffffffffffffffffffffff16610ab29092919063ffffffff16565b905060008151111561083c57808060200190518101906107fc9190611723565b61083b576040517f08c379a0000000000000000000000000000000000000000000000000000000008152600401610832906117d3565b60405180910390fd5b5b505050565b6000818473ffffffffffffffffffffffffffffffffffffffff1663dd62ed3e30866040518363ffffffff1660e01b815260040161087f9291906117f3565b602060405180830381865afa15801561089c573d6000803e3d6000fd5b505050506040513d601f19601f820116820180604052508101906108c091906116ca565b6108ca919061184b565b905061094d8463095ea7b360e01b85846040516024016108eb9291906118a1565b604051602081830303815290604052907bffffffffffffffffffffffffffffffffffffffffffffffffffffffff19166020820180517bffffffffffffffffffffffffffffffffffffffffffffffffffffffff838183161783525050505061077a565b50505050565b600081905060008173ffffffffffffffffffffffffffffffffffffffff1663dd62ed3e30866040518363ffffffff1660e01b81526004016109959291906117f3565b602060405180830381865afa1580156109b2573d6000803e3d6000fd5b505050506040513d601f19601f820116820180604052508101906109d691906116ca565b03610a2757610a26837fffffffffffffffffffffffffffffffffffffffffffffffffffffffffffffffff8373ffffffffffffffffffffffffffffffffffffffff166108419092919063ffffffff16565b5b505050565b610aad8363a9059cbb60e01b8484604051602401610a4b9291906118a1565b604051602081830303815290604052907bffffffffffffffffffffffffffffffffffffffffffffffffffffffff19166020820180517bffffffffffffffffffffffffffffffffffffffffffffffffffffffff838183161783525050505061077a565b505050565b6060610ac18484600085610aca565b90509392505050565b606082471015610b0f576040517f08c379a0000000000000000000000000000000000000000000000000000000008152600401610b069061193c565b60405180910390fd5b610b1885610bde565b610b57576040517f08c379a0000000000000000000000000000000000000000000000000000000008152600401610b4e906119a8565b60405180910390fd5b6000808673ffffffffffffffffffffffffffffffffffffffff168587604051610b809190611a04565b60006040518083038185875af1925050503d8060008114610bbd576040519150601f19603f3d011682016040523d82523d6000602084013e610bc2565b606091505b5091509150610bd2828286610c01565b92505050949350505050565b6000808273ffffffffffffffffffffffffffffffffffffffff163b119050919050565b60608315610c1157829050610c61565b600083511115610c245782518084602001fd5b816040517f08c379a0000000000000000000000000000000000000000000000000000000008152600401610c589190611a5f565b60405180910390fd5b9392505050565b60405180608001604052806060815260200160608152602001606081526020016000151581525090565b60405180608001604052806060815260200160608152602001606081526020016000151581525090565b6000604051905090565b600080fd5b600080fd5b600080fd5b6000601f19601f8301169050919050565b7f4e487b7100000000000000000000000000000000000000000000000000000000600052604160045260246000fd5b610d1e82610cd5565b810181811067ffffffffffffffff82111715610d3d57610d3c610ce6565b5b80604052505050565b6000610d50610cbc565b9050610d5c8282610d15565b919050565b600080fd5b600080fd5b600067ffffffffffffffff821115610d8657610d85610ce6565b5b602082029050602081019050919050565b600080fd5b600073ffffffffffffffffffffffffffffffffffffffff82169050919050565b6000610dc782610d9c565b9050919050565b6000610dd982610dbc565b9050919050565b610de981610dce565b8114610df457600080fd5b50565b600081359050610e0681610de0565b92915050565b6000610e1f610e1a84610d6b565b610d46565b90508083825260208201905060208402830185811115610e4257610e41610d97565b5b835b81811015610e6b5780610e578882610df7565b845260208401935050602081019050610e44565b5050509392505050565b600082601f830112610e8a57610e89610d66565b5b8135610e9a848260208601610e0c565b91505092915050565b6000819050919050565b610eb681610ea3565b8114610ec157600080fd5b50565b600081359050610ed381610ead565b92915050565b6000819050919050565b610eec81610ed9565b8114610ef757600080fd5b50565b600081359050610f0981610ee3565b92915050565b610f1881610dbc565b8114610f2357600080fd5b50565b600081359050610f3581610f0f565b92915050565b600060c08284031215610f5157610f50610cd0565b5b610f5b60c0610d46565b9050600082013567ffffffffffffffff811115610f7b57610f7a610d61565b5b610f8784828501610e75565b6000830152506020610f9b84828501610ec4565b6020830152506040610faf84828501610efa565b6040830152506060610fc384828501610f26565b6060830152506080610fd784828501610f26565b60808301525060a0610feb84828501610f26565b60a08301525092915050565b6000806040838503121561100e5761100d610cc6565b5b600083013567ffffffffffffffff81111561102c5761102b610ccb565b5b61103885828601610f3b565b925050602061104985828601610ec4565b9150509250929050565b61105c81610dbc565b82525050565b60006020820190506110776000830184611053565b92915050565b60008060006060848603121561109657611095610cc6565b5b60006110a486828701610f26565b935050602084013567ffffffffffffffff8111156110c5576110c4610ccb565b5b6110d186828701610f3b565b92505060406110e286828701610ec4565b9150509250925092565b7f4e487b7100000000000000000000000000000000000000000000000000000000600052603260045260246000fd5b61112481610ea3565b82525050565b600060608201905061113f6000830186611053565b61114c6020830185611053565b611159604083018461111b565b949350505050565b6000819050919050565b600060ff82169050919050565b6000819050919050565b600061119d61119861119384611161565b611178565b61116b565b9050919050565b6111ad81611182565b82525050565b60006060820190506111c860008301866111a4565b6111d5602083018561111b565b6111e2604083018461111b565b949350505050565b6111f381610ed9565b82525050565b600061120482610d9c565b9050919050565b611214816111f9565b82525050565b600081519050919050565b600082825260208201905092915050565b6000819050602082019050919050565b600061126161125c61125784610d9c565b611178565b610d9c565b9050919050565b600061127382611246565b9050919050565b600061128582611268565b9050919050565b6112958161127a565b82525050565b60006112a7838361128c565b60208301905092915050565b6000602082019050919050565b60006112cb8261121a565b6112d58185611225565b93506112e083611236565b8060005b838110156113115781516112f8888261129b565b9750611303836112b3565b9250506001810190506112e4565b5085935050505092915050565b600081519050919050565b600082825260208201905092915050565b6000819050602082019050919050565b61135381610ea3565b82525050565b6000611365838361134a565b60208301905092915050565b6000602082019050919050565b60006113898261131e565b6113938185611329565b935061139e8361133a565b8060005b838110156113cf5781516113b68882611359565b97506113c183611371565b9250506001810190506113a2565b5085935050505092915050565b600081519050919050565b600082825260208201905092915050565b60005b838110156114165780820151818401526020810190506113fb565b83811115611425576000848401525b50505050565b6000611436826113dc565b61144081856113e7565b93506114508185602086016113f8565b61145981610cd5565b840191505092915050565b60008115159050919050565b61147981611464565b82525050565b6000608083016000830151848203600086015261149c82826112c0565b915050602083015184820360208601526114b6828261137e565b915050604083015184820360408601526114d0828261142b565b91505060608301516114e56060860182611470565b508091505092915050565b600060808201905061150560008301876111ea565b6115126020830186611053565b61151f604083018561120b565b8181036060830152611531818461147f565b905095945050505050565b6115458161116b565b82525050565b600082825260208201905092915050565b60006115678261131e565b611571818561154b565b935061157c8361133a565b8060005b838110156115ad5781516115948882611359565b975061159f83611371565b925050600181019050611580565b5085935050505092915050565b60006060820190506115cf600083018661153c565b81810360208301526115e1818561155c565b90506115f0604083018461111b565b949350505050565b6000608083016000830151848203600086015261161582826112c0565b9150506020830151848203602086015261162f828261137e565b91505060408301518482036040860152611649828261142b565b915050606083015161165e6060860182611470565b508091505092915050565b600060808201905061167e60008301876111ea565b61168b6020830186611053565b6116986040830185611053565b81810360608301526116aa81846115f8565b905095945050505050565b6000815190506116c481610ead565b92915050565b6000602082840312156116e0576116df610cc6565b5b60006116ee848285016116b5565b91505092915050565b61170081611464565b811461170b57600080fd5b50565b60008151905061171d816116f7565b92915050565b60006020828403121561173957611738610cc6565b5b60006117478482850161170e565b91505092915050565b600082825260208201905092915050565b7f5361666545524332303a204552433230206f7065726174696f6e20646964206e60008201527f6f74207375636365656400000000000000000000000000000000000000000000602082015250565b60006117bd602a83611750565b91506117c882611761565b604082019050919050565b600060208201905081810360008301526117ec816117b0565b9050919050565b60006040820190506118086000830185611053565b6118156020830184611053565b9392505050565b7f4e487b7100000000000000000000000000000000000000000000000000000000600052601160045260246000fd5b600061185682610ea3565b915061186183610ea3565b9250827fffffffffffffffffffffffffffffffffffffffffffffffffffffffffffffffff038211156118965761189561181c565b5b828201905092915050565b60006040820190506118b66000830185611053565b6118c3602083018461111b565b9392505050565b7f416464726573733a20696e73756666696369656e742062616c616e636520666f60008201527f722063616c6c0000000000000000000000000000000000000000000000000000602082015250565b6000611926602683611750565b9150611931826118ca565b604082019050919050565b6000602082019050818103600083015261195581611919565b9050919050565b7f416464726573733a2063616c6c20746f206e6f6e2d636f6e7472616374000000600082015250565b6000611992601d83611750565b915061199d8261195c565b602082019050919050565b600060208201905081810360008301526119c181611985565b9050919050565b600081905092915050565b60006119de826113dc565b6119e881856119c8565b93506119f88185602086016113f8565b80840191505092915050565b6000611a1082846119d3565b915081905092915050565b600081519050919050565b6000611a3182611a1b565b611a3b8185611750565b9350611a4b8185602086016113f8565b611a5481610cd5565b840191505092915050565b60006020820190508181036000830152611a798184611a26565b90509291505056fea264697066735822122020754aeba9978991084b23aea67a53ec7f63c7c50cc8d1837a877dcf3b49d1eb64736f6c634300080d0033",
					"opcodes": "PUSH1 0xA0 PUSH1 0x40 MSTORE CALLVALUE DUP1 ISZERO PUSH3 0x11 JUMPI PUSH1 0x0 DUP1 REVERT JUMPDEST POP PUSH1 0x40 MLOAD PUSH3 0x1BF6 CODESIZE SUB DUP1 PUSH3 0x1BF6 DUP4 CODECOPY DUP2 DUP2 ADD PUSH1 0x40 MSTORE DUP2 ADD SWAP1 PUSH3 0x37 SWAP2 SWAP1 PUSH3 0xDC JUMP JUMPDEST DUP1 PUSH20 0xFFFFFFFFFFFFFFFFFFFFFFFFFFFFFFFFFFFFFFFF AND PUSH1 0x80 DUP2 PUSH20 0xFFFFFFFFFFFFFFFFFFFFFFFFFFFFFFFFFFFFFFFF AND DUP2 MSTORE POP POP POP PUSH3 0x10E JUMP JUMPDEST PUSH1 0x0 DUP1 REVERT JUMPDEST PUSH1 0x0 PUSH20 0xFFFFFFFFFFFFFFFFFFFFFFFFFFFFFFFFFFFFFFFF DUP3 AND SWAP1 POP SWAP2 SWAP1 POP JUMP JUMPDEST PUSH1 0x0 PUSH3 0xA4 DUP3 PUSH3 0x77 JUMP JUMPDEST SWAP1 POP SWAP2 SWAP1 POP JUMP JUMPDEST PUSH3 0xB6 DUP2 PUSH3 0x97 JUMP JUMPDEST DUP2 EQ PUSH3 0xC2 JUMPI PUSH1 0x0 DUP1 REVERT JUMPDEST POP JUMP JUMPDEST PUSH1 0x0 DUP2 MLOAD SWAP1 POP PUSH3 0xD6 DUP2 PUSH3 0xAB JUMP JUMPDEST SWAP3 SWAP2 POP POP JUMP JUMPDEST PUSH1 0x0 PUSH1 0x20 DUP3 DUP5 SUB SLT ISZERO PUSH3 0xF5 JUMPI PUSH3 0xF4 PUSH3 0x72 JUMP JUMPDEST JUMPDEST PUSH1 0x0 PUSH3 0x105 DUP5 DUP3 DUP6 ADD PUSH3 0xC5 JUMP JUMPDEST SWAP2 POP POP SWAP3 SWAP2 POP POP JUMP JUMPDEST PUSH1 0x80 MLOAD PUSH2 0x1AB7 PUSH3 0x13F PUSH1 0x0 CODECOPY PUSH1 0x0 DUP2 DUP2 PUSH2 0x17C ADD MSTORE DUP2 DUP2 PUSH2 0x3F1 ADD MSTORE DUP2 DUP2 PUSH2 0x565 ADD MSTORE PUSH2 0x5C7 ADD MSTORE PUSH2 0x1AB7 PUSH1 0x0 RETURN INVALID PUSH1 0x80 PUSH1 0x40 MSTORE CALLVALUE DUP1 ISZERO PUSH2 0x10 JUMPI PUSH1 0x0 DUP1 REVERT JUMPDEST POP PUSH1 0x4 CALLDATASIZE LT PUSH2 0x4C JUMPI PUSH1 0x0 CALLDATALOAD PUSH1 0xE0 SHR DUP1 PUSH4 0xE6335E6 EQ PUSH2 0x51 JUMPI DUP1 PUSH4 0x77ABA213 EQ PUSH2 0x6D JUMPI DUP1 PUSH4 0x9CBCF4C7 EQ PUSH2 0x8B JUMPI DUP1 PUSH4 0xBFBD3808 EQ PUSH2 0xA7 JUMPI JUMPDEST PUSH1 0x0 DUP1 REVERT JUMPDEST PUSH2 0x6B PUSH1 0x4 DUP1 CALLDATASIZE SUB DUP2 ADD SWAP1 PUSH2 0x66 SWAP2 SWAP1 PUSH2 0xFF7 JUMP JUMPDEST PUSH2 0xC3 JUMP JUMPDEST STOP JUMPDEST PUSH2 0x75 PUSH2 0x17A JUMP JUMPDEST PUSH1 0x40 MLOAD PUSH2 0x82 SWAP2 SWAP1 PUSH2 0x1062 JUMP JUMPDEST PUSH1 0x40 MLOAD DUP1 SWAP2 SUB SWAP1 RETURN JUMPDEST PUSH2 0xA5 PUSH1 0x4 DUP1 CALLDATASIZE SUB DUP2 ADD SWAP1 PUSH2 0xA0 SWAP2 SWAP1 PUSH2 0x107D JUMP JUMPDEST PUSH2 0x19E JUMP JUMPDEST STOP JUMPDEST PUSH2 0xC1 PUSH1 0x4 DUP1 CALLDATASIZE SUB DUP2 ADD SWAP1 PUSH2 0xBC SWAP2 SWAP1 PUSH2 0xFF7 JUMP JUMPDEST PUSH2 0x20E JUMP JUMPDEST STOP JUMPDEST PUSH1 0x0 DUP3 PUSH1 0x80 ADD MLOAD SWAP1 POP PUSH2 0xF9 CALLER ADDRESS DUP5 DUP5 PUSH20 0xFFFFFFFFFFFFFFFFFFFFFFFFFFFFFFFFFFFFFFFF AND PUSH2 0x296 SWAP1 SWAP4 SWAP3 SWAP2 SWAP1 PUSH4 0xFFFFFFFF AND JUMP JUMPDEST DUP3 PUSH1 0x80 ADD MLOAD PUSH20 0xFFFFFFFFFFFFFFFFFFFFFFFFFFFFFFFFFFFFFFFF AND PUSH4 0x853828B6 PUSH1 0x40 MLOAD DUP2 PUSH4 0xFFFFFFFF AND PUSH1 0xE0 SHL DUP2 MSTORE PUSH1 0x4 ADD PUSH1 0x0 PUSH1 0x40 MLOAD DUP1 DUP4 SUB DUP2 PUSH1 0x0 DUP8 DUP1 EXTCODESIZE ISZERO DUP1 ISZERO PUSH2 0x145 JUMPI PUSH1 0x0 DUP1 REVERT JUMPDEST POP GAS CALL ISZERO DUP1 ISZERO PUSH2 0x159 JUMPI RETURNDATASIZE PUSH1 0x0 DUP1 RETURNDATACOPY RETURNDATASIZE PUSH1 0x0 REVERT JUMPDEST POP POP POP POP PUSH2 0x175 DUP4 PUSH1 0x0 ADD MLOAD DUP4 DUP6 PUSH1 0x20 ADD MLOAD DUP7 PUSH1 0x40 ADD MLOAD PUSH2 0x31F JUMP JUMPDEST POP POP POP JUMP JUMPDEST PUSH32 0x0 DUP2 JUMP JUMPDEST PUSH1 0x0 DUP3 PUSH1 0x0 ADD MLOAD DUP4 PUSH1 0x20 ADD MLOAD DUP2 MLOAD DUP2 LT PUSH2 0x1BB JUMPI PUSH2 0x1BA PUSH2 0x10EC JUMP JUMPDEST JUMPDEST PUSH1 0x20 MUL PUSH1 0x20 ADD ADD MLOAD SWAP1 POP DUP1 PUSH20 0xFFFFFFFFFFFFFFFFFFFFFFFFFFFFFFFFFFFFFFFF AND DUP5 PUSH20 0xFFFFFFFFFFFFFFFFFFFFFFFFFFFFFFFFFFFFFFFF AND SUB PUSH2 0x207 JUMPI PUSH2 0x202 DUP4 DUP4 PUSH2 0x20E JUMP JUMPDEST PUSH2 0x208 JUMP JUMPDEST JUMPDEST POP POP POP POP JUMP JUMPDEST PUSH1 0x0 DUP3 PUSH1 0x0 ADD MLOAD DUP4 PUSH1 0x20 ADD MLOAD DUP2 MLOAD DUP2 LT PUSH2 0x22B JUMPI PUSH2 0x22A PUSH2 0x10EC JUMP JUMPDEST JUMPDEST PUSH1 0x20 MUL PUSH1 0x20 ADD ADD MLOAD SWAP1 POP PUSH2 0x262 CALLER ADDRESS DUP5 DUP5 PUSH20 0xFFFFFFFFFFFFFFFFFFFFFFFFFFFFFFFFFFFFFFFF AND PUSH2 0x296 SWAP1 SWAP4 SWAP3 SWAP2 SWAP1 PUSH4 0xFFFFFFFF AND JUMP JUMPDEST PUSH2 0x27A DUP4 PUSH1 0x0 ADD MLOAD DUP4 DUP6 PUSH1 0x20 ADD MLOAD DUP7 PUSH1 0x40 ADD MLOAD PUSH2 0x48A JUMP JUMPDEST PUSH2 0x291 DUP4 PUSH1 0x60 ADD MLOAD DUP5 PUSH1 0x80 ADD MLOAD DUP6 PUSH1 0xA0 ADD MLOAD PUSH2 0x661 JUMP JUMPDEST POP POP POP JUMP JUMPDEST PUSH2 0x319 DUP5 PUSH4 0x23B872DD PUSH1 0xE0 SHL DUP6 DUP6 DUP6 PUSH1 0x40 MLOAD PUSH1 0x24 ADD PUSH2 0x2B7 SWAP4 SWAP3 SWAP2 SWAP1 PUSH2 0x112A JUMP JUMPDEST PUSH1 0x40 MLOAD PUSH1 0x20 DUP2 DUP4 SUB SUB DUP2 MSTORE SWAP1 PUSH1 0x40 MSTORE SWAP1 PUSH28 0xFFFFFFFFFFFFFFFFFFFFFFFFFFFFFFFFFFFFFFFFFFFFFFFFFFFFFFFF NOT AND PUSH1 0x20 DUP3 ADD DUP1 MLOAD PUSH28 0xFFFFFFFFFFFFFFFFFFFFFFFFFFFFFFFFFFFFFFFFFFFFFFFFFFFFFFFF DUP4 DUP2 DUP4 AND OR DUP4 MSTORE POP POP POP POP PUSH2 0x77A JUMP JUMPDEST POP POP POP POP JUMP JUMPDEST PUSH1 0x0 DUP5 MLOAD PUSH8 0xFFFFFFFFFFFFFFFF DUP2 GT ISZERO PUSH2 0x33C JUMPI PUSH2 0x33B PUSH2 0xCE6 JUMP JUMPDEST JUMPDEST PUSH1 0x40 MLOAD SWAP1 DUP1 DUP3 MSTORE DUP1 PUSH1 0x20 MUL PUSH1 0x20 ADD DUP3 ADD PUSH1 0x40 MSTORE DUP1 ISZERO PUSH2 0x36A JUMPI DUP2 PUSH1 0x20 ADD PUSH1 0x20 DUP3 MUL DUP1 CALLDATASIZE DUP4 CALLDATACOPY DUP1 DUP3 ADD SWAP2 POP POP SWAP1 POP JUMPDEST POP SWAP1 POP DUP4 DUP2 DUP5 DUP2 MLOAD DUP2 LT PUSH2 0x381 JUMPI PUSH2 0x380 PUSH2 0x10EC JUMP JUMPDEST JUMPDEST PUSH1 0x20 MUL PUSH1 0x20 ADD ADD DUP2 DUP2 MSTORE POP POP PUSH1 0x0 PUSH1 0x1 SWAP1 POP PUSH1 0x0 DUP1 DUP7 DUP7 PUSH1 0x40 MLOAD PUSH1 0x20 ADD PUSH2 0x3AA SWAP4 SWAP3 SWAP2 SWAP1 PUSH2 0x11B3 JUMP JUMPDEST PUSH1 0x40 MLOAD PUSH1 0x20 DUP2 DUP4 SUB SUB DUP2 MSTORE SWAP1 PUSH1 0x40 MSTORE SWAP1 POP PUSH2 0x3C3 PUSH2 0xC68 JUMP JUMPDEST DUP8 DUP2 PUSH1 0x0 ADD DUP2 SWAP1 MSTORE POP DUP4 DUP2 PUSH1 0x20 ADD DUP2 SWAP1 MSTORE POP DUP2 DUP2 PUSH1 0x40 ADD DUP2 SWAP1 MSTORE POP PUSH1 0x0 DUP2 PUSH1 0x60 ADD SWAP1 ISZERO ISZERO SWAP1 DUP2 ISZERO ISZERO DUP2 MSTORE POP POP PUSH32 0x0 PUSH20 0xFFFFFFFFFFFFFFFFFFFFFFFFFFFFFFFFFFFFFFFF AND PUSH4 0x8BDB3913 DUP7 ADDRESS ADDRESS DUP6 PUSH1 0x40 MLOAD DUP6 PUSH4 0xFFFFFFFF AND PUSH1 0xE0 SHL DUP2 MSTORE PUSH1 0x4 ADD PUSH2 0x44E SWAP5 SWAP4 SWAP3 SWAP2 SWAP1 PUSH2 0x14F0 JUMP JUMPDEST PUSH1 0x0 PUSH1 0x40 MLOAD DUP1 DUP4 SUB DUP2 PUSH1 0x0 DUP8 DUP1 EXTCODESIZE ISZERO DUP1 ISZERO PUSH2 0x468 JUMPI PUSH1 0x0 DUP1 REVERT JUMPDEST POP GAS CALL ISZERO DUP1 ISZERO PUSH2 0x47C JUMPI RETURNDATASIZE PUSH1 0x0 DUP1 RETURNDATACOPY RETURNDATASIZE PUSH1 0x0 REVERT JUMPDEST POP POP POP POP POP POP POP POP POP POP POP POP JUMP JUMPDEST PUSH1 0x0 PUSH1 0x1 SWAP1 POP PUSH1 0x0 DUP6 MLOAD PUSH8 0xFFFFFFFFFFFFFFFF DUP2 GT ISZERO PUSH2 0x4AD JUMPI PUSH2 0x4AC PUSH2 0xCE6 JUMP JUMPDEST JUMPDEST PUSH1 0x40 MLOAD SWAP1 DUP1 DUP3 MSTORE DUP1 PUSH1 0x20 MUL PUSH1 0x20 ADD DUP3 ADD PUSH1 0x40 MSTORE DUP1 ISZERO PUSH2 0x4DB JUMPI DUP2 PUSH1 0x20 ADD PUSH1 0x20 DUP3 MUL DUP1 CALLDATASIZE DUP4 CALLDATACOPY DUP1 DUP3 ADD SWAP2 POP POP SWAP1 POP JUMPDEST POP SWAP1 POP DUP5 DUP2 DUP6 DUP2 MLOAD DUP2 LT PUSH2 0x4F2 JUMPI PUSH2 0x4F1 PUSH2 0x10EC JUMP JUMPDEST JUMPDEST PUSH1 0x20 MUL PUSH1 0x20 ADD ADD DUP2 DUP2 MSTORE POP POP PUSH1 0x0 PUSH1 0x1 SWAP1 POP PUSH1 0x0 DUP4 DUP4 DUP4 PUSH1 0x40 MLOAD PUSH1 0x20 ADD PUSH2 0x51B SWAP4 SWAP3 SWAP2 SWAP1 PUSH2 0x15BA JUMP JUMPDEST PUSH1 0x40 MLOAD PUSH1 0x20 DUP2 DUP4 SUB SUB DUP2 MSTORE SWAP1 PUSH1 0x40 MSTORE SWAP1 POP PUSH2 0x534 PUSH2 0xC92 JUMP JUMPDEST DUP9 DUP2 PUSH1 0x0 ADD DUP2 SWAP1 MSTORE POP DUP4 DUP2 PUSH1 0x20 ADD DUP2 SWAP1 MSTORE POP DUP2 DUP2 PUSH1 0x40 ADD DUP2 SWAP1 MSTORE POP PUSH1 0x0 DUP2 PUSH1 0x60 ADD SWAP1 ISZERO ISZERO SWAP1 DUP2 ISZERO ISZERO DUP2 MSTORE POP POP PUSH2 0x5C5 PUSH32 0x0 DUP10 DUP12 DUP11 DUP2 MLOAD DUP2 LT PUSH2 0x598 JUMPI PUSH2 0x597 PUSH2 0x10EC JUMP JUMPDEST JUMPDEST PUSH1 0x20 MUL PUSH1 0x20 ADD ADD MLOAD PUSH20 0xFFFFFFFFFFFFFFFFFFFFFFFFFFFFFFFFFFFFFFFF AND PUSH2 0x841 SWAP1 SWAP3 SWAP2 SWAP1 PUSH4 0xFFFFFFFF AND JUMP JUMPDEST PUSH32 0x0 PUSH20 0xFFFFFFFFFFFFFFFFFFFFFFFFFFFFFFFFFFFFFFFF AND PUSH4 0xB95CAC28 DUP8 ADDRESS ADDRESS DUP6 PUSH1 0x40 MLOAD DUP6 PUSH4 0xFFFFFFFF AND PUSH1 0xE0 SHL DUP2 MSTORE PUSH1 0x4 ADD PUSH2 0x624 SWAP5 SWAP4 SWAP3 SWAP2 SWAP1 PUSH2 0x1669 JUMP JUMPDEST PUSH1 0x0 PUSH1 0x40 MLOAD DUP1 DUP4 SUB DUP2 PUSH1 0x0 DUP8 DUP1 EXTCODESIZE ISZERO DUP1 ISZERO PUSH2 0x63E JUMPI PUSH1 0x0 DUP1 REVERT JUMPDEST POP GAS CALL ISZERO DUP1 ISZERO PUSH2 0x652 JUMPI RETURNDATASIZE PUSH1 0x0 DUP1 RETURNDATACOPY RETURNDATASIZE PUSH1 0x0 REVERT JUMPDEST POP POP POP POP POP POP POP POP POP POP POP POP POP JUMP JUMPDEST PUSH2 0x66B DUP3 DUP5 PUSH2 0x953 JUMP JUMPDEST DUP2 PUSH20 0xFFFFFFFFFFFFFFFFFFFFFFFFFFFFFFFFFFFFFFFF AND PUSH4 0xDE5F6268 PUSH1 0x40 MLOAD DUP2 PUSH4 0xFFFFFFFF AND PUSH1 0xE0 SHL DUP2 MSTORE PUSH1 0x4 ADD PUSH1 0x0 PUSH1 0x40 MLOAD DUP1 DUP4 SUB DUP2 PUSH1 0x0 DUP8 DUP1 EXTCODESIZE ISZERO DUP1 ISZERO PUSH2 0x6B3 JUMPI PUSH1 0x0 DUP1 REVERT JUMPDEST POP GAS CALL ISZERO DUP1 ISZERO PUSH2 0x6C7 JUMPI RETURNDATASIZE PUSH1 0x0 DUP1 RETURNDATACOPY RETURNDATASIZE PUSH1 0x0 REVERT JUMPDEST POP POP POP POP PUSH1 0x0 DUP3 SWAP1 POP PUSH2 0x774 DUP3 DUP3 PUSH20 0xFFFFFFFFFFFFFFFFFFFFFFFFFFFFFFFFFFFFFFFF AND PUSH4 0x70A08231 ADDRESS PUSH1 0x40 MLOAD DUP3 PUSH4 0xFFFFFFFF AND PUSH1 0xE0 SHL DUP2 MSTORE PUSH1 0x4 ADD PUSH2 0x70D SWAP2 SWAP1 PUSH2 0x1062 JUMP JUMPDEST PUSH1 0x20 PUSH1 0x40 MLOAD DUP1 DUP4 SUB DUP2 DUP7 GAS STATICCALL ISZERO DUP1 ISZERO PUSH2 0x72A JUMPI RETURNDATASIZE PUSH1 0x0 DUP1 RETURNDATACOPY RETURNDATASIZE PUSH1 0x0 REVERT JUMPDEST POP POP POP POP PUSH1 0x40 MLOAD RETURNDATASIZE PUSH1 0x1F NOT PUSH1 0x1F DUP3 ADD AND DUP3 ADD DUP1 PUSH1 0x40 MSTORE POP DUP2 ADD SWAP1 PUSH2 0x74E SWAP2 SWAP1 PUSH2 0x16CA JUMP JUMPDEST DUP4 PUSH20 0xFFFFFFFFFFFFFFFFFFFFFFFFFFFFFFFFFFFFFFFF AND PUSH2 0xA2C SWAP1 SWAP3 SWAP2 SWAP1 PUSH4 0xFFFFFFFF AND JUMP JUMPDEST POP POP POP POP JUMP JUMPDEST PUSH1 0x0 PUSH2 0x7DC DUP3 PUSH1 0x40 MLOAD DUP1 PUSH1 0x40 ADD PUSH1 0x40 MSTORE DUP1 PUSH1 0x20 DUP2 MSTORE PUSH1 0x20 ADD PUSH32 0x5361666545524332303A206C6F772D6C6576656C2063616C6C206661696C6564 DUP2 MSTORE POP DUP6 PUSH20 0xFFFFFFFFFFFFFFFFFFFFFFFFFFFFFFFFFFFFFFFF AND PUSH2 0xAB2 SWAP1 SWAP3 SWAP2 SWAP1 PUSH4 0xFFFFFFFF AND JUMP JUMPDEST SWAP1 POP PUSH1 0x0 DUP2 MLOAD GT ISZERO PUSH2 0x83C JUMPI DUP1 DUP1 PUSH1 0x20 ADD SWAP1 MLOAD DUP2 ADD SWAP1 PUSH2 0x7FC SWAP2 SWAP1 PUSH2 0x1723 JUMP JUMPDEST PUSH2 0x83B JUMPI PUSH1 0x40 MLOAD PUSH32 0x8C379A000000000000000000000000000000000000000000000000000000000 DUP2 MSTORE PUSH1 0x4 ADD PUSH2 0x832 SWAP1 PUSH2 0x17D3 JUMP JUMPDEST PUSH1 0x40 MLOAD DUP1 SWAP2 SUB SWAP1 REVERT JUMPDEST JUMPDEST POP POP POP JUMP JUMPDEST PUSH1 0x0 DUP2 DUP5 PUSH20 0xFFFFFFFFFFFFFFFFFFFFFFFFFFFFFFFFFFFFFFFF AND PUSH4 0xDD62ED3E ADDRESS DUP7 PUSH1 0x40 MLOAD DUP4 PUSH4 0xFFFFFFFF AND PUSH1 0xE0 SHL DUP2 MSTORE PUSH1 0x4 ADD PUSH2 0x87F SWAP3 SWAP2 SWAP1 PUSH2 0x17F3 JUMP JUMPDEST PUSH1 0x20 PUSH1 0x40 MLOAD DUP1 DUP4 SUB DUP2 DUP7 GAS STATICCALL ISZERO DUP1 ISZERO PUSH2 0x89C JUMPI RETURNDATASIZE PUSH1 0x0 DUP1 RETURNDATACOPY RETURNDATASIZE PUSH1 0x0 REVERT JUMPDEST POP POP POP POP PUSH1 0x40 MLOAD RETURNDATASIZE PUSH1 0x1F NOT PUSH1 0x1F DUP3 ADD AND DUP3 ADD DUP1 PUSH1 0x40 MSTORE POP DUP2 ADD SWAP1 PUSH2 0x8C0 SWAP2 SWAP1 PUSH2 0x16CA JUMP JUMPDEST PUSH2 0x8CA SWAP2 SWAP1 PUSH2 0x184B JUMP JUMPDEST SWAP1 POP PUSH2 0x94D DUP5 PUSH4 0x95EA7B3 PUSH1 0xE0 SHL DUP6 DUP5 PUSH1 0x40 MLOAD PUSH1 0x24 ADD PUSH2 0x8EB SWAP3 SWAP2 SWAP1 PUSH2 0x18A1 JUMP JUMPDEST PUSH1 0x40 MLOAD PUSH1 0x20 DUP2 DUP4 SUB SUB DUP2 MSTORE SWAP1 PUSH1 0x40 MSTORE SWAP1 PUSH28 0xFFFFFFFFFFFFFFFFFFFFFFFFFFFFFFFFFFFFFFFFFFFFFFFFFFFFFFFF NOT AND PUSH1 0x20 DUP3 ADD DUP1 MLOAD PUSH28 0xFFFFFFFFFFFFFFFFFFFFFFFFFFFFFFFFFFFFFFFFFFFFFFFFFFFFFFFF DUP4 DUP2 DUP4 AND OR DUP4 MSTORE POP POP POP POP PUSH2 0x77A JUMP JUMPDEST POP POP POP POP JUMP JUMPDEST PUSH1 0x0 DUP2 SWAP1 POP PUSH1 0x0 DUP2 PUSH20 0xFFFFFFFFFFFFFFFFFFFFFFFFFFFFFFFFFFFFFFFF AND PUSH4 0xDD62ED3E ADDRESS DUP7 PUSH1 0x40 MLOAD DUP4 PUSH4 0xFFFFFFFF AND PUSH1 0xE0 SHL DUP2 MSTORE PUSH1 0x4 ADD PUSH2 0x995 SWAP3 SWAP2 SWAP1 PUSH2 0x17F3 JUMP JUMPDEST PUSH1 0x20 PUSH1 0x40 MLOAD DUP1 DUP4 SUB DUP2 DUP7 GAS STATICCALL ISZERO DUP1 ISZERO PUSH2 0x9B2 JUMPI RETURNDATASIZE PUSH1 0x0 DUP1 RETURNDATACOPY RETURNDATASIZE PUSH1 0x0 REVERT JUMPDEST POP POP POP POP PUSH1 0x40 MLOAD RETURNDATASIZE PUSH1 0x1F NOT PUSH1 0x1F DUP3 ADD AND DUP3 ADD DUP1 PUSH1 0x40 MSTORE POP DUP2 ADD SWAP1 PUSH2 0x9D6 SWAP2 SWAP1 PUSH2 0x16CA JUMP JUMPDEST SUB PUSH2 0xA27 JUMPI PUSH2 0xA26 DUP4 PUSH32 0xFFFFFFFFFFFFFFFFFFFFFFFFFFFFFFFFFFFFFFFFFFFFFFFFFFFFFFFFFFFFFFFF DUP4 PUSH20 0xFFFFFFFFFFFFFFFFFFFFFFFFFFFFFFFFFFFFFFFF AND PUSH2 0x841 SWAP1 SWAP3 SWAP2 SWAP1 PUSH4 0xFFFFFFFF AND JUMP JUMPDEST JUMPDEST POP POP POP JUMP JUMPDEST PUSH2 0xAAD DUP4 PUSH4 0xA9059CBB PUSH1 0xE0 SHL DUP5 DUP5 PUSH1 0x40 MLOAD PUSH1 0x24 ADD PUSH2 0xA4B SWAP3 SWAP2 SWAP1 PUSH2 0x18A1 JUMP JUMPDEST PUSH1 0x40 MLOAD PUSH1 0x20 DUP2 DUP4 SUB SUB DUP2 MSTORE SWAP1 PUSH1 0x40 MSTORE SWAP1 PUSH28 0xFFFFFFFFFFFFFFFFFFFFFFFFFFFFFFFFFFFFFFFFFFFFFFFFFFFFFFFF NOT AND PUSH1 0x20 DUP3 ADD DUP1 MLOAD PUSH28 0xFFFFFFFFFFFFFFFFFFFFFFFFFFFFFFFFFFFFFFFFFFFFFFFFFFFFFFFF DUP4 DUP2 DUP4 AND OR DUP4 MSTORE POP POP POP POP PUSH2 0x77A JUMP JUMPDEST POP POP POP JUMP JUMPDEST PUSH1 0x60 PUSH2 0xAC1 DUP5 DUP5 PUSH1 0x0 DUP6 PUSH2 0xACA JUMP JUMPDEST SWAP1 POP SWAP4 SWAP3 POP POP POP JUMP JUMPDEST PUSH1 0x60 DUP3 SELFBALANCE LT ISZERO PUSH2 0xB0F JUMPI PUSH1 0x40 MLOAD PUSH32 0x8C379A000000000000000000000000000000000000000000000000000000000 DUP2 MSTORE PUSH1 0x4 ADD PUSH2 0xB06 SWAP1 PUSH2 0x193C JUMP JUMPDEST PUSH1 0x40 MLOAD DUP1 SWAP2 SUB SWAP1 REVERT JUMPDEST PUSH2 0xB18 DUP6 PUSH2 0xBDE JUMP JUMPDEST PUSH2 0xB57 JUMPI PUSH1 0x40 MLOAD PUSH32 0x8C379A000000000000000000000000000000000000000000000000000000000 DUP2 MSTORE PUSH1 0x4 ADD PUSH2 0xB4E SWAP1 PUSH2 0x19A8 JUMP JUMPDEST PUSH1 0x40 MLOAD DUP1 SWAP2 SUB SWAP1 REVERT JUMPDEST PUSH1 0x0 DUP1 DUP7 PUSH20 0xFFFFFFFFFFFFFFFFFFFFFFFFFFFFFFFFFFFFFFFF AND DUP6 DUP8 PUSH1 0x40 MLOAD PUSH2 0xB80 SWAP2 SWAP1 PUSH2 0x1A04 JUMP JUMPDEST PUSH1 0x0 PUSH1 0x40 MLOAD DUP1 DUP4 SUB DUP2 DUP6 DUP8 GAS CALL SWAP3 POP POP POP RETURNDATASIZE DUP1 PUSH1 0x0 DUP2 EQ PUSH2 0xBBD JUMPI PUSH1 0x40 MLOAD SWAP2 POP PUSH1 0x1F NOT PUSH1 0x3F RETURNDATASIZE ADD AND DUP3 ADD PUSH1 0x40 MSTORE RETURNDATASIZE DUP3 MSTORE RETURNDATASIZE PUSH1 0x0 PUSH1 0x20 DUP5 ADD RETURNDATACOPY PUSH2 0xBC2 JUMP JUMPDEST PUSH1 0x60 SWAP2 POP JUMPDEST POP SWAP2 POP SWAP2 POP PUSH2 0xBD2 DUP3 DUP3 DUP7 PUSH2 0xC01 JUMP JUMPDEST SWAP3 POP POP POP SWAP5 SWAP4 POP POP POP POP JUMP JUMPDEST PUSH1 0x0 DUP1 DUP3 PUSH20 0xFFFFFFFFFFFFFFFFFFFFFFFFFFFFFFFFFFFFFFFF AND EXTCODESIZE GT SWAP1 POP SWAP2 SWAP1 POP JUMP JUMPDEST PUSH1 0x60 DUP4 ISZERO PUSH2 0xC11 JUMPI DUP3 SWAP1 POP PUSH2 0xC61 JUMP JUMPDEST PUSH1 0x0 DUP4 MLOAD GT ISZERO PUSH2 0xC24 JUMPI DUP3 MLOAD DUP1 DUP5 PUSH1 0x20 ADD REVERT JUMPDEST DUP2 PUSH1 0x40 MLOAD PUSH32 0x8C379A000000000000000000000000000000000000000000000000000000000 DUP2 MSTORE PUSH1 0x4 ADD PUSH2 0xC58 SWAP2 SWAP1 PUSH2 0x1A5F JUMP JUMPDEST PUSH1 0x40 MLOAD DUP1 SWAP2 SUB SWAP1 REVERT JUMPDEST SWAP4 SWAP3 POP POP POP JUMP JUMPDEST PUSH1 0x40 MLOAD DUP1 PUSH1 0x80 ADD PUSH1 0x40 MSTORE DUP1 PUSH1 0x60 DUP2 MSTORE PUSH1 0x20 ADD PUSH1 0x60 DUP2 MSTORE PUSH1 0x20 ADD PUSH1 0x60 DUP2 MSTORE PUSH1 0x20 ADD PUSH1 0x0 ISZERO ISZERO DUP2 MSTORE POP SWAP1 JUMP JUMPDEST PUSH1 0x40 MLOAD DUP1 PUSH1 0x80 ADD PUSH1 0x40 MSTORE DUP1 PUSH1 0x60 DUP2 MSTORE PUSH1 0x20 ADD PUSH1 0x60 DUP2 MSTORE PUSH1 0x20 ADD PUSH1 0x60 DUP2 MSTORE PUSH1 0x20 ADD PUSH1 0x0 ISZERO ISZERO DUP2 MSTORE POP SWAP1 JUMP JUMPDEST PUSH1 0x0 PUSH1 0x40 MLOAD SWAP1 POP SWAP1 JUMP JUMPDEST PUSH1 0x0 DUP1 REVERT JUMPDEST PUSH1 0x0 DUP1 REVERT JUMPDEST PUSH1 0x0 DUP1 REVERT JUMPDEST PUSH1 0x0 PUSH1 0x1F NOT PUSH1 0x1F DUP4 ADD AND SWAP1 POP SWAP2 SWAP1 POP JUMP JUMPDEST PUSH32 0x4E487B7100000000000000000000000000000000000000000000000000000000 PUSH1 0x0 MSTORE PUSH1 0x41 PUSH1 0x4 MSTORE PUSH1 0x24 PUSH1 0x0 REVERT JUMPDEST PUSH2 0xD1E DUP3 PUSH2 0xCD5 JUMP JUMPDEST DUP2 ADD DUP2 DUP2 LT PUSH8 0xFFFFFFFFFFFFFFFF DUP3 GT OR ISZERO PUSH2 0xD3D JUMPI PUSH2 0xD3C PUSH2 0xCE6 JUMP JUMPDEST JUMPDEST DUP1 PUSH1 0x40 MSTORE POP POP POP JUMP JUMPDEST PUSH1 0x0 PUSH2 0xD50 PUSH2 0xCBC JUMP JUMPDEST SWAP1 POP PUSH2 0xD5C DUP3 DUP3 PUSH2 0xD15 JUMP JUMPDEST SWAP2 SWAP1 POP JUMP JUMPDEST PUSH1 0x0 DUP1 REVERT JUMPDEST PUSH1 0x0 DUP1 REVERT JUMPDEST PUSH1 0x0 PUSH8 0xFFFFFFFFFFFFFFFF DUP3 GT ISZERO PUSH2 0xD86 JUMPI PUSH2 0xD85 PUSH2 0xCE6 JUMP JUMPDEST JUMPDEST PUSH1 0x20 DUP3 MUL SWAP1 POP PUSH1 0x20 DUP2 ADD SWAP1 POP SWAP2 SWAP1 POP JUMP JUMPDEST PUSH1 0x0 DUP1 REVERT JUMPDEST PUSH1 0x0 PUSH20 0xFFFFFFFFFFFFFFFFFFFFFFFFFFFFFFFFFFFFFFFF DUP3 AND SWAP1 POP SWAP2 SWAP1 POP JUMP JUMPDEST PUSH1 0x0 PUSH2 0xDC7 DUP3 PUSH2 0xD9C JUMP JUMPDEST SWAP1 POP SWAP2 SWAP1 POP JUMP JUMPDEST PUSH1 0x0 PUSH2 0xDD9 DUP3 PUSH2 0xDBC JUMP JUMPDEST SWAP1 POP SWAP2 SWAP1 POP JUMP JUMPDEST PUSH2 0xDE9 DUP2 PUSH2 0xDCE JUMP JUMPDEST DUP2 EQ PUSH2 0xDF4 JUMPI PUSH1 0x0 DUP1 REVERT JUMPDEST POP JUMP JUMPDEST PUSH1 0x0 DUP2 CALLDATALOAD SWAP1 POP PUSH2 0xE06 DUP2 PUSH2 0xDE0 JUMP JUMPDEST SWAP3 SWAP2 POP POP JUMP JUMPDEST PUSH1 0x0 PUSH2 0xE1F PUSH2 0xE1A DUP5 PUSH2 0xD6B JUMP JUMPDEST PUSH2 0xD46 JUMP JUMPDEST SWAP1 POP DUP1 DUP4 DUP3 MSTORE PUSH1 0x20 DUP3 ADD SWAP1 POP PUSH1 0x20 DUP5 MUL DUP4 ADD DUP6 DUP2 GT ISZERO PUSH2 0xE42 JUMPI PUSH2 0xE41 PUSH2 0xD97 JUMP JUMPDEST JUMPDEST DUP4 JUMPDEST DUP2 DUP2 LT ISZERO PUSH2 0xE6B JUMPI DUP1 PUSH2 0xE57 DUP9 DUP3 PUSH2 0xDF7 JUMP JUMPDEST DUP5 MSTORE PUSH1 0x20 DUP5 ADD SWAP4 POP POP PUSH1 0x20 DUP2 ADD SWAP1 POP PUSH2 0xE44 JUMP JUMPDEST POP POP POP SWAP4 SWAP3 POP POP POP JUMP JUMPDEST PUSH1 0x0 DUP3 PUSH1 0x1F DUP4 ADD SLT PUSH2 0xE8A JUMPI PUSH2 0xE89 PUSH2 0xD66 JUMP JUMPDEST JUMPDEST DUP2 CALLDATALOAD PUSH2 0xE9A DUP5 DUP3 PUSH1 0x20 DUP7 ADD PUSH2 0xE0C JUMP JUMPDEST SWAP2 POP POP SWAP3 SWAP2 POP POP JUMP JUMPDEST PUSH1 0x0 DUP2 SWAP1 POP SWAP2 SWAP1 POP JUMP JUMPDEST PUSH2 0xEB6 DUP2 PUSH2 0xEA3 JUMP JUMPDEST DUP2 EQ PUSH2 0xEC1 JUMPI PUSH1 0x0 DUP1 REVERT JUMPDEST POP JUMP JUMPDEST PUSH1 0x0 DUP2 CALLDATALOAD SWAP1 POP PUSH2 0xED3 DUP2 PUSH2 0xEAD JUMP JUMPDEST SWAP3 SWAP2 POP POP JUMP JUMPDEST PUSH1 0x0 DUP2 SWAP1 POP SWAP2 SWAP1 POP JUMP JUMPDEST PUSH2 0xEEC DUP2 PUSH2 0xED9 JUMP JUMPDEST DUP2 EQ PUSH2 0xEF7 JUMPI PUSH1 0x0 DUP1 REVERT JUMPDEST POP JUMP JUMPDEST PUSH1 0x0 DUP2 CALLDATALOAD SWAP1 POP PUSH2 0xF09 DUP2 PUSH2 0xEE3 JUMP JUMPDEST SWAP3 SWAP2 POP POP JUMP JUMPDEST PUSH2 0xF18 DUP2 PUSH2 0xDBC JUMP JUMPDEST DUP2 EQ PUSH2 0xF23 JUMPI PUSH1 0x0 DUP1 REVERT JUMPDEST POP JUMP JUMPDEST PUSH1 0x0 DUP2 CALLDATALOAD SWAP1 POP PUSH2 0xF35 DUP2 PUSH2 0xF0F JUMP JUMPDEST SWAP3 SWAP2 POP POP JUMP JUMPDEST PUSH1 0x0 PUSH1 0xC0 DUP3 DUP5 SUB SLT ISZERO PUSH2 0xF51 JUMPI PUSH2 0xF50 PUSH2 0xCD0 JUMP JUMPDEST JUMPDEST PUSH2 0xF5B PUSH1 0xC0 PUSH2 0xD46 JUMP JUMPDEST SWAP1 POP PUSH1 0x0 DUP3 ADD CALLDATALOAD PUSH8 0xFFFFFFFFFFFFFFFF DUP2 GT ISZERO PUSH2 0xF7B JUMPI PUSH2 0xF7A PUSH2 0xD61 JUMP JUMPDEST JUMPDEST PUSH2 0xF87 DUP5 DUP3 DUP6 ADD PUSH2 0xE75 JUMP JUMPDEST PUSH1 0x0 DUP4 ADD MSTORE POP PUSH1 0x20 PUSH2 0xF9B DUP5 DUP3 DUP6 ADD PUSH2 0xEC4 JUMP JUMPDEST PUSH1 0x20 DUP4 ADD MSTORE POP PUSH1 0x40 PUSH2 0xFAF DUP5 DUP3 DUP6 ADD PUSH2 0xEFA JUMP JUMPDEST PUSH1 0x40 DUP4 ADD MSTORE POP PUSH1 0x60 PUSH2 0xFC3 DUP5 DUP3 DUP6 ADD PUSH2 0xF26 JUMP JUMPDEST PUSH1 0x60 DUP4 ADD MSTORE POP PUSH1 0x80 PUSH2 0xFD7 DUP5 DUP3 DUP6 ADD PUSH2 0xF26 JUMP JUMPDEST PUSH1 0x80 DUP4 ADD MSTORE POP PUSH1 0xA0 PUSH2 0xFEB DUP5 DUP3 DUP6 ADD PUSH2 0xF26 JUMP JUMPDEST PUSH1 0xA0 DUP4 ADD MSTORE POP SWAP3 SWAP2 POP POP JUMP JUMPDEST PUSH1 0x0 DUP1 PUSH1 0x40 DUP4 DUP6 SUB SLT ISZERO PUSH2 0x100E JUMPI PUSH2 0x100D PUSH2 0xCC6 JUMP JUMPDEST JUMPDEST PUSH1 0x0 DUP4 ADD CALLDATALOAD PUSH8 0xFFFFFFFFFFFFFFFF DUP2 GT ISZERO PUSH2 0x102C JUMPI PUSH2 0x102B PUSH2 0xCCB JUMP JUMPDEST JUMPDEST PUSH2 0x1038 DUP6 DUP3 DUP7 ADD PUSH2 0xF3B JUMP JUMPDEST SWAP3 POP POP PUSH1 0x20 PUSH2 0x1049 DUP6 DUP3 DUP7 ADD PUSH2 0xEC4 JUMP JUMPDEST SWAP2 POP POP SWAP3 POP SWAP3 SWAP1 POP JUMP JUMPDEST PUSH2 0x105C DUP2 PUSH2 0xDBC JUMP JUMPDEST DUP3 MSTORE POP POP JUMP JUMPDEST PUSH1 0x0 PUSH1 0x20 DUP3 ADD SWAP1 POP PUSH2 0x1077 PUSH1 0x0 DUP4 ADD DUP5 PUSH2 0x1053 JUMP JUMPDEST SWAP3 SWAP2 POP POP JUMP JUMPDEST PUSH1 0x0 DUP1 PUSH1 0x0 PUSH1 0x60 DUP5 DUP7 SUB SLT ISZERO PUSH2 0x1096 JUMPI PUSH2 0x1095 PUSH2 0xCC6 JUMP JUMPDEST JUMPDEST PUSH1 0x0 PUSH2 0x10A4 DUP7 DUP3 DUP8 ADD PUSH2 0xF26 JUMP JUMPDEST SWAP4 POP POP PUSH1 0x20 DUP5 ADD CALLDATALOAD PUSH8 0xFFFFFFFFFFFFFFFF DUP2 GT ISZERO PUSH2 0x10C5 JUMPI PUSH2 0x10C4 PUSH2 0xCCB JUMP JUMPDEST JUMPDEST PUSH2 0x10D1 DUP7 DUP3 DUP8 ADD PUSH2 0xF3B JUMP JUMPDEST SWAP3 POP POP PUSH1 0x40 PUSH2 0x10E2 DUP7 DUP3 DUP8 ADD PUSH2 0xEC4 JUMP JUMPDEST SWAP2 POP POP SWAP3 POP SWAP3 POP SWAP3 JUMP JUMPDEST PUSH32 0x4E487B7100000000000000000000000000000000000000000000000000000000 PUSH1 0x0 MSTORE PUSH1 0x32 PUSH1 0x4 MSTORE PUSH1 0x24 PUSH1 0x0 REVERT JUMPDEST PUSH2 0x1124 DUP2 PUSH2 0xEA3 JUMP JUMPDEST DUP3 MSTORE POP POP JUMP JUMPDEST PUSH1 0x0 PUSH1 0x60 DUP3 ADD SWAP1 POP PUSH2 0x113F PUSH1 0x0 DUP4 ADD DUP7 PUSH2 0x1053 JUMP JUMPDEST PUSH2 0x114C PUSH1 0x20 DUP4 ADD DUP6 PUSH2 0x1053 JUMP JUMPDEST PUSH2 0x1159 PUSH1 0x40 DUP4 ADD DUP5 PUSH2 0x111B JUMP JUMPDEST SWAP5 SWAP4 POP POP POP POP JUMP JUMPDEST PUSH1 0x0 DUP2 SWAP1 POP SWAP2 SWAP1 POP JUMP JUMPDEST PUSH1 0x0 PUSH1 0xFF DUP3 AND SWAP1 POP SWAP2 SWAP1 POP JUMP JUMPDEST PUSH1 0x0 DUP2 SWAP1 POP SWAP2 SWAP1 POP JUMP JUMPDEST PUSH1 0x0 PUSH2 0x119D PUSH2 0x1198 PUSH2 0x1193 DUP5 PUSH2 0x1161 JUMP JUMPDEST PUSH2 0x1178 JUMP JUMPDEST PUSH2 0x116B JUMP JUMPDEST SWAP1 POP SWAP2 SWAP1 POP JUMP JUMPDEST PUSH2 0x11AD DUP2 PUSH2 0x1182 JUMP JUMPDEST DUP3 MSTORE POP POP JUMP JUMPDEST PUSH1 0x0 PUSH1 0x60 DUP3 ADD SWAP1 POP PUSH2 0x11C8 PUSH1 0x0 DUP4 ADD DUP7 PUSH2 0x11A4 JUMP JUMPDEST PUSH2 0x11D5 PUSH1 0x20 DUP4 ADD DUP6 PUSH2 0x111B JUMP JUMPDEST PUSH2 0x11E2 PUSH1 0x40 DUP4 ADD DUP5 PUSH2 0x111B JUMP JUMPDEST SWAP5 SWAP4 POP POP POP POP JUMP JUMPDEST PUSH2 0x11F3 DUP2 PUSH2 0xED9 JUMP JUMPDEST DUP3 MSTORE POP POP JUMP JUMPDEST PUSH1 0x0 PUSH2 0x1204 DUP3 PUSH2 0xD9C JUMP JUMPDEST SWAP1 POP SWAP2 SWAP1 POP JUMP JUMPDEST PUSH2 0x1214 DUP2 PUSH2 0x11F9 JUMP JUMPDEST DUP3 MSTORE POP POP JUMP JUMPDEST PUSH1 0x0 DUP2 MLOAD SWAP1 POP SWAP2 SWAP1 POP JUMP JUMPDEST PUSH1 0x0 DUP3 DUP3 MSTORE PUSH1 0x20 DUP3 ADD SWAP1 POP SWAP3 SWAP2 POP POP JUMP JUMPDEST PUSH1 0x0 DUP2 SWAP1 POP PUSH1 0x20 DUP3 ADD SWAP1 POP SWAP2 SWAP1 POP JUMP JUMPDEST PUSH1 0x0 PUSH2 0x1261 PUSH2 0x125C PUSH2 0x1257 DUP5 PUSH2 0xD9C JUMP JUMPDEST PUSH2 0x1178 JUMP JUMPDEST PUSH2 0xD9C JUMP JUMPDEST SWAP1 POP SWAP2 SWAP1 POP JUMP JUMPDEST PUSH1 0x0 PUSH2 0x1273 DUP3 PUSH2 0x1246 JUMP JUMPDEST SWAP1 POP SWAP2 SWAP1 POP JUMP JUMPDEST PUSH1 0x0 PUSH2 0x1285 DUP3 PUSH2 0x1268 JUMP JUMPDEST SWAP1 POP SWAP2 SWAP1 POP JUMP JUMPDEST PUSH2 0x1295 DUP2 PUSH2 0x127A JUMP JUMPDEST DUP3 MSTORE POP POP JUMP JUMPDEST PUSH1 0x0 PUSH2 0x12A7 DUP4 DUP4 PUSH2 0x128C JUMP JUMPDEST PUSH1 0x20 DUP4 ADD SWAP1 POP SWAP3 SWAP2 POP POP JUMP JUMPDEST PUSH1 0x0 PUSH1 0x20 DUP3 ADD SWAP1 POP SWAP2 SWAP1 POP JUMP JUMPDEST PUSH1 0x0 PUSH2 0x12CB DUP3 PUSH2 0x121A JUMP JUMPDEST PUSH2 0x12D5 DUP2 DUP6 PUSH2 0x1225 JUMP JUMPDEST SWAP4 POP PUSH2 0x12E0 DUP4 PUSH2 0x1236 JUMP JUMPDEST DUP1 PUSH1 0x0 JUMPDEST DUP4 DUP2 LT ISZERO PUSH2 0x1311 JUMPI DUP2 MLOAD PUSH2 0x12F8 DUP9 DUP3 PUSH2 0x129B JUMP JUMPDEST SWAP8 POP PUSH2 0x1303 DUP4 PUSH2 0x12B3 JUMP JUMPDEST SWAP3 POP POP PUSH1 0x1 DUP2 ADD SWAP1 POP PUSH2 0x12E4 JUMP JUMPDEST POP DUP6 SWAP4 POP POP POP POP SWAP3 SWAP2 POP POP JUMP JUMPDEST PUSH1 0x0 DUP2 MLOAD SWAP1 POP SWAP2 SWAP1 POP JUMP JUMPDEST PUSH1 0x0 DUP3 DUP3 MSTORE PUSH1 0x20 DUP3 ADD SWAP1 POP SWAP3 SWAP2 POP POP JUMP JUMPDEST PUSH1 0x0 DUP2 SWAP1 POP PUSH1 0x20 DUP3 ADD SWAP1 POP SWAP2 SWAP1 POP JUMP JUMPDEST PUSH2 0x1353 DUP2 PUSH2 0xEA3 JUMP JUMPDEST DUP3 MSTORE POP POP JUMP JUMPDEST PUSH1 0x0 PUSH2 0x1365 DUP4 DUP4 PUSH2 0x134A JUMP JUMPDEST PUSH1 0x20 DUP4 ADD SWAP1 POP SWAP3 SWAP2 POP POP JUMP JUMPDEST PUSH1 0x0 PUSH1 0x20 DUP3 ADD SWAP1 POP SWAP2 SWAP1 POP JUMP JUMPDEST PUSH1 0x0 PUSH2 0x1389 DUP3 PUSH2 0x131E JUMP JUMPDEST PUSH2 0x1393 DUP2 DUP6 PUSH2 0x1329 JUMP JUMPDEST SWAP4 POP PUSH2 0x139E DUP4 PUSH2 0x133A JUMP JUMPDEST DUP1 PUSH1 0x0 JUMPDEST DUP4 DUP2 LT ISZERO PUSH2 0x13CF JUMPI DUP2 MLOAD PUSH2 0x13B6 DUP9 DUP3 PUSH2 0x1359 JUMP JUMPDEST SWAP8 POP PUSH2 0x13C1 DUP4 PUSH2 0x1371 JUMP JUMPDEST SWAP3 POP POP PUSH1 0x1 DUP2 ADD SWAP1 POP PUSH2 0x13A2 JUMP JUMPDEST POP DUP6 SWAP4 POP POP POP POP SWAP3 SWAP2 POP POP JUMP JUMPDEST PUSH1 0x0 DUP2 MLOAD SWAP1 POP SWAP2 SWAP1 POP JUMP JUMPDEST PUSH1 0x0 DUP3 DUP3 MSTORE PUSH1 0x20 DUP3 ADD SWAP1 POP SWAP3 SWAP2 POP POP JUMP JUMPDEST PUSH1 0x0 JUMPDEST DUP4 DUP2 LT ISZERO PUSH2 0x1416 JUMPI DUP1 DUP3 ADD MLOAD DUP2 DUP5 ADD MSTORE PUSH1 0x20 DUP2 ADD SWAP1 POP PUSH2 0x13FB JUMP JUMPDEST DUP4 DUP2 GT ISZERO PUSH2 0x1425 JUMPI PUSH1 0x0 DUP5 DUP5 ADD MSTORE JUMPDEST POP POP POP POP JUMP JUMPDEST PUSH1 0x0 PUSH2 0x1436 DUP3 PUSH2 0x13DC JUMP JUMPDEST PUSH2 0x1440 DUP2 DUP6 PUSH2 0x13E7 JUMP JUMPDEST SWAP4 POP PUSH2 0x1450 DUP2 DUP6 PUSH1 0x20 DUP7 ADD PUSH2 0x13F8 JUMP JUMPDEST PUSH2 0x1459 DUP2 PUSH2 0xCD5 JUMP JUMPDEST DUP5 ADD SWAP2 POP POP SWAP3 SWAP2 POP POP JUMP JUMPDEST PUSH1 0x0 DUP2 ISZERO ISZERO SWAP1 POP SWAP2 SWAP1 POP JUMP JUMPDEST PUSH2 0x1479 DUP2 PUSH2 0x1464 JUMP JUMPDEST DUP3 MSTORE POP POP JUMP JUMPDEST PUSH1 0x0 PUSH1 0x80 DUP4 ADD PUSH1 0x0 DUP4 ADD MLOAD DUP5 DUP3 SUB PUSH1 0x0 DUP7 ADD MSTORE PUSH2 0x149C DUP3 DUP3 PUSH2 0x12C0 JUMP JUMPDEST SWAP2 POP POP PUSH1 0x20 DUP4 ADD MLOAD DUP5 DUP3 SUB PUSH1 0x20 DUP7 ADD MSTORE PUSH2 0x14B6 DUP3 DUP3 PUSH2 0x137E JUMP JUMPDEST SWAP2 POP POP PUSH1 0x40 DUP4 ADD MLOAD DUP5 DUP3 SUB PUSH1 0x40 DUP7 ADD MSTORE PUSH2 0x14D0 DUP3 DUP3 PUSH2 0x142B JUMP JUMPDEST SWAP2 POP POP PUSH1 0x60 DUP4 ADD MLOAD PUSH2 0x14E5 PUSH1 0x60 DUP7 ADD DUP3 PUSH2 0x1470 JUMP JUMPDEST POP DUP1 SWAP2 POP POP SWAP3 SWAP2 POP POP JUMP JUMPDEST PUSH1 0x0 PUSH1 0x80 DUP3 ADD SWAP1 POP PUSH2 0x1505 PUSH1 0x0 DUP4 ADD DUP8 PUSH2 0x11EA JUMP JUMPDEST PUSH2 0x1512 PUSH1 0x20 DUP4 ADD DUP7 PUSH2 0x1053 JUMP JUMPDEST PUSH2 0x151F PUSH1 0x40 DUP4 ADD DUP6 PUSH2 0x120B JUMP JUMPDEST DUP2 DUP2 SUB PUSH1 0x60 DUP4 ADD MSTORE PUSH2 0x1531 DUP2 DUP5 PUSH2 0x147F JUMP JUMPDEST SWAP1 POP SWAP6 SWAP5 POP POP POP POP POP JUMP JUMPDEST PUSH2 0x1545 DUP2 PUSH2 0x116B JUMP JUMPDEST DUP3 MSTORE POP POP JUMP JUMPDEST PUSH1 0x0 DUP3 DUP3 MSTORE PUSH1 0x20 DUP3 ADD SWAP1 POP SWAP3 SWAP2 POP POP JUMP JUMPDEST PUSH1 0x0 PUSH2 0x1567 DUP3 PUSH2 0x131E JUMP JUMPDEST PUSH2 0x1571 DUP2 DUP6 PUSH2 0x154B JUMP JUMPDEST SWAP4 POP PUSH2 0x157C DUP4 PUSH2 0x133A JUMP JUMPDEST DUP1 PUSH1 0x0 JUMPDEST DUP4 DUP2 LT ISZERO PUSH2 0x15AD JUMPI DUP2 MLOAD PUSH2 0x1594 DUP9 DUP3 PUSH2 0x1359 JUMP JUMPDEST SWAP8 POP PUSH2 0x159F DUP4 PUSH2 0x1371 JUMP JUMPDEST SWAP3 POP POP PUSH1 0x1 DUP2 ADD SWAP1 POP PUSH2 0x1580 JUMP JUMPDEST POP DUP6 SWAP4 POP POP POP POP SWAP3 SWAP2 POP POP JUMP JUMPDEST PUSH1 0x0 PUSH1 0x60 DUP3 ADD SWAP1 POP PUSH2 0x15CF PUSH1 0x0 DUP4 ADD DUP7 PUSH2 0x153C JUMP JUMPDEST DUP2 DUP2 SUB PUSH1 0x20 DUP4 ADD MSTORE PUSH2 0x15E1 DUP2 DUP6 PUSH2 0x155C JUMP JUMPDEST SWAP1 POP PUSH2 0x15F0 PUSH1 0x40 DUP4 ADD DUP5 PUSH2 0x111B JUMP JUMPDEST SWAP5 SWAP4 POP POP POP POP JUMP JUMPDEST PUSH1 0x0 PUSH1 0x80 DUP4 ADD PUSH1 0x0 DUP4 ADD MLOAD DUP5 DUP3 SUB PUSH1 0x0 DUP7 ADD MSTORE PUSH2 0x1615 DUP3 DUP3 PUSH2 0x12C0 JUMP JUMPDEST SWAP2 POP POP PUSH1 0x20 DUP4 ADD MLOAD DUP5 DUP3 SUB PUSH1 0x20 DUP7 ADD MSTORE PUSH2 0x162F DUP3 DUP3 PUSH2 0x137E JUMP JUMPDEST SWAP2 POP POP PUSH1 0x40 DUP4 ADD MLOAD DUP5 DUP3 SUB PUSH1 0x40 DUP7 ADD MSTORE PUSH2 0x1649 DUP3 DUP3 PUSH2 0x142B JUMP JUMPDEST SWAP2 POP POP PUSH1 0x60 DUP4 ADD MLOAD PUSH2 0x165E PUSH1 0x60 DUP7 ADD DUP3 PUSH2 0x1470 JUMP JUMPDEST POP DUP1 SWAP2 POP POP SWAP3 SWAP2 POP POP JUMP JUMPDEST PUSH1 0x0 PUSH1 0x80 DUP3 ADD SWAP1 POP PUSH2 0x167E PUSH1 0x0 DUP4 ADD DUP8 PUSH2 0x11EA JUMP JUMPDEST PUSH2 0x168B PUSH1 0x20 DUP4 ADD DUP7 PUSH2 0x1053 JUMP JUMPDEST PUSH2 0x1698 PUSH1 0x40 DUP4 ADD DUP6 PUSH2 0x1053 JUMP JUMPDEST DUP2 DUP2 SUB PUSH1 0x60 DUP4 ADD MSTORE PUSH2 0x16AA DUP2 DUP5 PUSH2 0x15F8 JUMP JUMPDEST SWAP1 POP SWAP6 SWAP5 POP POP POP POP POP JUMP JUMPDEST PUSH1 0x0 DUP2 MLOAD SWAP1 POP PUSH2 0x16C4 DUP2 PUSH2 0xEAD JUMP JUMPDEST SWAP3 SWAP2 POP POP JUMP JUMPDEST PUSH1 0x0 PUSH1 0x20 DUP3 DUP5 SUB SLT ISZERO PUSH2 0x16E0 JUMPI PUSH2 0x16DF PUSH2 0xCC6 JUMP JUMPDEST JUMPDEST PUSH1 0x0 PUSH2 0x16EE DUP5 DUP3 DUP6 ADD PUSH2 0x16B5 JUMP JUMPDEST SWAP2 POP POP SWAP3 SWAP2 POP POP JUMP JUMPDEST PUSH2 0x1700 DUP2 PUSH2 0x1464 JUMP JUMPDEST DUP2 EQ PUSH2 0x170B JUMPI PUSH1 0x0 DUP1 REVERT JUMPDEST POP JUMP JUMPDEST PUSH1 0x0 DUP2 MLOAD SWAP1 POP PUSH2 0x171D DUP2 PUSH2 0x16F7 JUMP JUMPDEST SWAP3 SWAP2 POP POP JUMP JUMPDEST PUSH1 0x0 PUSH1 0x20 DUP3 DUP5 SUB SLT ISZERO PUSH2 0x1739 JUMPI PUSH2 0x1738 PUSH2 0xCC6 JUMP JUMPDEST JUMPDEST PUSH1 0x0 PUSH2 0x1747 DUP5 DUP3 DUP6 ADD PUSH2 0x170E JUMP JUMPDEST SWAP2 POP POP SWAP3 SWAP2 POP POP JUMP JUMPDEST PUSH1 0x0 DUP3 DUP3 MSTORE PUSH1 0x20 DUP3 ADD SWAP1 POP SWAP3 SWAP2 POP POP JUMP JUMPDEST PUSH32 0x5361666545524332303A204552433230206F7065726174696F6E20646964206E PUSH1 0x0 DUP3 ADD MSTORE PUSH32 0x6F74207375636365656400000000000000000000000000000000000000000000 PUSH1 0x20 DUP3 ADD MSTORE POP JUMP JUMPDEST PUSH1 0x0 PUSH2 0x17BD PUSH1 0x2A DUP4 PUSH2 0x1750 JUMP JUMPDEST SWAP2 POP PUSH2 0x17C8 DUP3 PUSH2 0x1761 JUMP JUMPDEST PUSH1 0x40 DUP3 ADD SWAP1 POP SWAP2 SWAP1 POP JUMP JUMPDEST PUSH1 0x0 PUSH1 0x20 DUP3 ADD SWAP1 POP DUP2 DUP2 SUB PUSH1 0x0 DUP4 ADD MSTORE PUSH2 0x17EC DUP2 PUSH2 0x17B0 JUMP JUMPDEST SWAP1 POP SWAP2 SWAP1 POP JUMP JUMPDEST PUSH1 0x0 PUSH1 0x40 DUP3 ADD SWAP1 POP PUSH2 0x1808 PUSH1 0x0 DUP4 ADD DUP6 PUSH2 0x1053 JUMP JUMPDEST PUSH2 0x1815 PUSH1 0x20 DUP4 ADD DUP5 PUSH2 0x1053 JUMP JUMPDEST SWAP4 SWAP3 POP POP POP JUMP JUMPDEST PUSH32 0x4E487B7100000000000000000000000000000000000000000000000000000000 PUSH1 0x0 MSTORE PUSH1 0x11 PUSH1 0x4 MSTORE PUSH1 0x24 PUSH1 0x0 REVERT JUMPDEST PUSH1 0x0 PUSH2 0x1856 DUP3 PUSH2 0xEA3 JUMP JUMPDEST SWAP2 POP PUSH2 0x1861 DUP4 PUSH2 0xEA3 JUMP JUMPDEST SWAP3 POP DUP3 PUSH32 0xFFFFFFFFFFFFFFFFFFFFFFFFFFFFFFFFFFFFFFFFFFFFFFFFFFFFFFFFFFFFFFFF SUB DUP3 GT ISZERO PUSH2 0x1896 JUMPI PUSH2 0x1895 PUSH2 0x181C JUMP JUMPDEST JUMPDEST DUP3 DUP3 ADD SWAP1 POP SWAP3 SWAP2 POP POP JUMP JUMPDEST PUSH1 0x0 PUSH1 0x40 DUP3 ADD SWAP1 POP PUSH2 0x18B6 PUSH1 0x0 DUP4 ADD DUP6 PUSH2 0x1053 JUMP JUMPDEST PUSH2 0x18C3 PUSH1 0x20 DUP4 ADD DUP5 PUSH2 0x111B JUMP JUMPDEST SWAP4 SWAP3 POP POP POP JUMP JUMPDEST PUSH32 0x416464726573733A20696E73756666696369656E742062616C616E636520666F PUSH1 0x0 DUP3 ADD MSTORE PUSH32 0x722063616C6C0000000000000000000000000000000000000000000000000000 PUSH1 0x20 DUP3 ADD MSTORE POP JUMP JUMPDEST PUSH1 0x0 PUSH2 0x1926 PUSH1 0x26 DUP4 PUSH2 0x1750 JUMP JUMPDEST SWAP2 POP PUSH2 0x1931 DUP3 PUSH2 0x18CA JUMP JUMPDEST PUSH1 0x40 DUP3 ADD SWAP1 POP SWAP2 SWAP1 POP JUMP JUMPDEST PUSH1 0x0 PUSH1 0x20 DUP3 ADD SWAP1 POP DUP2 DUP2 SUB PUSH1 0x0 DUP4 ADD MSTORE PUSH2 0x1955 DUP2 PUSH2 0x1919 JUMP JUMPDEST SWAP1 POP SWAP2 SWAP1 POP JUMP JUMPDEST PUSH32 0x416464726573733A2063616C6C20746F206E6F6E2D636F6E7472616374000000 PUSH1 0x0 DUP3 ADD MSTORE POP JUMP JUMPDEST PUSH1 0x0 PUSH2 0x1992 PUSH1 0x1D DUP4 PUSH2 0x1750 JUMP JUMPDEST SWAP2 POP PUSH2 0x199D DUP3 PUSH2 0x195C JUMP JUMPDEST PUSH1 0x20 DUP3 ADD SWAP1 POP SWAP2 SWAP1 POP JUMP JUMPDEST PUSH1 0x0 PUSH1 0x20 DUP3 ADD SWAP1 POP DUP2 DUP2 SUB PUSH1 0x0 DUP4 ADD MSTORE PUSH2 0x19C1 DUP2 PUSH2 0x1985 JUMP JUMPDEST SWAP1 POP SWAP2 SWAP1 POP JUMP JUMPDEST PUSH1 0x0 DUP2 SWAP1 POP SWAP3 SWAP2 POP POP JUMP JUMPDEST PUSH1 0x0 PUSH2 0x19DE DUP3 PUSH2 0x13DC JUMP JUMPDEST PUSH2 0x19E8 DUP2 DUP6 PUSH2 0x19C8 JUMP JUMPDEST SWAP4 POP PUSH2 0x19F8 DUP2 DUP6 PUSH1 0x20 DUP7 ADD PUSH2 0x13F8 JUMP JUMPDEST DUP1 DUP5 ADD SWAP2 POP POP SWAP3 SWAP2 POP POP JUMP JUMPDEST PUSH1 0x0 PUSH2 0x1A10 DUP3 DUP5 PUSH2 0x19D3 JUMP JUMPDEST SWAP2 POP DUP2 SWAP1 POP SWAP3 SWAP2 POP POP JUMP JUMPDEST PUSH1 0x0 DUP2 MLOAD SWAP1 POP SWAP2 SWAP1 POP JUMP JUMPDEST PUSH1 0x0 PUSH2 0x1A31 DUP3 PUSH2 0x1A1B JUMP JUMPDEST PUSH2 0x1A3B DUP2 DUP6 PUSH2 0x1750 JUMP JUMPDEST SWAP4 POP PUSH2 0x1A4B DUP2 DUP6 PUSH1 0x20 DUP7 ADD PUSH2 0x13F8 JUMP JUMPDEST PUSH2 0x1A54 DUP2 PUSH2 0xCD5 JUMP JUMPDEST DUP5 ADD SWAP2 POP POP SWAP3 SWAP2 POP POP JUMP JUMPDEST PUSH1 0x0 PUSH1 0x20 DUP3 ADD SWAP1 POP DUP2 DUP2 SUB PUSH1 0x0 DUP4 ADD MSTORE PUSH2 0x1A79 DUP2 DUP5 PUSH2 0x1A26 JUMP JUMPDEST SWAP1 POP SWAP3 SWAP2 POP POP JUMP INVALID LOG2 PUSH5 0x6970667358 0x22 SLT KECCAK256 KECCAK256 PUSH22 0x4AEBA9978991084B23AEA67A53EC7F63C7C50CC8D183 PUSH27 0x877DCF3B49D1EB64736F6C634300080D0033000000000000000000 "
				},
				"gasEstimates": {
					"creation": {
						"codeDepositCost": "1367800",
						"executionCost": "infinite",
						"totalCost": "infinite"
					},
					"external": {
						"_singleSideDeposit((address[],uint256,bytes32,address,address,address),uint256)": "infinite",
						"_singleSideWithdraw((address[],uint256,bytes32,address,address,address),uint256)": "infinite",
						"balVault()": "infinite",
						"routeDeposit(address,(address[],uint256,bytes32,address,address,address),uint256)": "infinite"
					},
					"internal": {
						"_approveIfNeeded(address,address)": "infinite",
						"_depositLPToVault(address,address,address)": "infinite",
						"_exitPool(contract IAsset[] memory,uint256,uint256,bytes32)": "infinite",
						"_joinPool(contract IAsset[] memory,uint256,uint256,bytes32)": "infinite"
					}
				},
				"methodIdentifiers": {
					"_singleSideDeposit((address[],uint256,bytes32,address,address,address),uint256)": "bfbd3808",
					"_singleSideWithdraw((address[],uint256,bytes32,address,address,address),uint256)": "0e6335e6",
					"balVault()": "77aba213",
					"routeDeposit(address,(address[],uint256,bytes32,address,address,address),uint256)": "9cbcf4c7"
				}
			},
			"storageLayout": {
				"storage": [],
				"types": null
			},
			"userdoc": {
				"kind": "user",
				"methods": {},
				"version": 1
			}
		}
	}
}