{
	"SuperDepositor.sol": {
		"BeetsHelper": {
			"abi": [
				{
					"inputs": [
						{
							"internalType": "address",
							"name": "_balVault",
							"type": "address"
						}
					],
					"stateMutability": "nonpayable",
					"type": "constructor"
				},
				{
					"inputs": [
						{
							"components": [
								{
									"internalType": "contract IAsset[]",
									"name": "underlyings",
									"type": "address[]"
								},
								{
									"internalType": "uint256",
									"name": "tokenIndex",
									"type": "uint256"
								},
								{
									"internalType": "bytes32",
									"name": "beetsPoolId",
									"type": "bytes32"
								},
								{
									"internalType": "address",
									"name": "lpToken",
									"type": "address"
								},
								{
									"internalType": "address",
									"name": "vault",
									"type": "address"
								},
								{
									"internalType": "address",
									"name": "recipient",
									"type": "address"
								}
							],
							"internalType": "struct BeetsHelper.VaultParams",
							"name": "details",
							"type": "tuple"
						},
						{
							"internalType": "uint256",
							"name": "amount",
							"type": "uint256"
						}
					],
					"name": "_singleSideDeposit",
					"outputs": [],
					"stateMutability": "nonpayable",
					"type": "function"
				},
				{
					"inputs": [
						{
							"components": [
								{
									"internalType": "contract IAsset[]",
									"name": "underlyings",
									"type": "address[]"
								},
								{
									"internalType": "uint256",
									"name": "tokenIndex",
									"type": "uint256"
								},
								{
									"internalType": "bytes32",
									"name": "beetsPoolId",
									"type": "bytes32"
								},
								{
									"internalType": "address",
									"name": "lpToken",
									"type": "address"
								},
								{
									"internalType": "address",
									"name": "vault",
									"type": "address"
								},
								{
									"internalType": "address",
									"name": "recipient",
									"type": "address"
								}
							],
							"internalType": "struct BeetsHelper.VaultParams",
							"name": "details",
							"type": "tuple"
						},
						{
							"internalType": "uint256",
							"name": "amountVault",
							"type": "uint256"
						},
						{
							"internalType": "uint256",
							"name": "amountOutput",
							"type": "uint256"
						}
					],
					"name": "_singleSideWithdraw",
					"outputs": [],
					"stateMutability": "nonpayable",
					"type": "function"
				},
				{
					"inputs": [],
					"name": "balVault",
					"outputs": [
						{
							"internalType": "address",
							"name": "",
							"type": "address"
						}
					],
					"stateMutability": "view",
					"type": "function"
				},
				{
					"inputs": [
						{
							"internalType": "address",
							"name": "tokenIn",
							"type": "address"
						},
						{
							"components": [
								{
									"internalType": "contract IAsset[]",
									"name": "underlyings",
									"type": "address[]"
								},
								{
									"internalType": "uint256",
									"name": "tokenIndex",
									"type": "uint256"
								},
								{
									"internalType": "bytes32",
									"name": "beetsPoolId",
									"type": "bytes32"
								},
								{
									"internalType": "address",
									"name": "lpToken",
									"type": "address"
								},
								{
									"internalType": "address",
									"name": "vault",
									"type": "address"
								},
								{
									"internalType": "address",
									"name": "recipient",
									"type": "address"
								}
							],
							"internalType": "struct BeetsHelper.VaultParams",
							"name": "details",
							"type": "tuple"
						},
						{
							"internalType": "uint256",
							"name": "amount",
							"type": "uint256"
						}
					],
					"name": "routeDeposit",
					"outputs": [],
					"stateMutability": "nonpayable",
					"type": "function"
				}
			],
			"devdoc": {
				"author": "z80 and Eidolon",
				"kind": "dev",
				"methods": {},
				"title": "BeetsHelper",
				"version": 1
			},
			"evm": {
				"assembly": "    /* \"SuperDepositor.sol\":289:4986  contract BeetsHelper {... */\n  mstore(0x40, 0xa0)\n    /* \"SuperDepositor.sol\":910:980  constructor(address _balVault) {... */\n  callvalue\n  dup1\n  iszero\n  tag_1\n  jumpi\n  0x00\n  dup1\n  revert\ntag_1:\n  pop\n  mload(0x40)\n  sub(codesize, bytecodeSize)\n  dup1\n  bytecodeSize\n  dup4\n  codecopy\n  dup2\n  dup2\n  add\n  0x40\n  mstore\n  dup2\n  add\n  swap1\n  tag_2\n  swap2\n  swap1\n  tag_3\n  jump\t// in\ntag_2:\n    /* \"SuperDepositor.sol\":963:972  _balVault */\n  dup1\n    /* \"SuperDepositor.sol\":952:972  balVault = _balVault */\n  0xffffffffffffffffffffffffffffffffffffffff\n  and\n  0x80\n  dup2\n  0xffffffffffffffffffffffffffffffffffffffff\n  and\n  dup2\n  mstore\n  pop\n  pop\n    /* \"SuperDepositor.sol\":910:980  constructor(address _balVault) {... */\n  pop\n    /* \"SuperDepositor.sol\":289:4986  contract BeetsHelper {... */\n  jump(tag_6)\n    /* \"#utility.yul\":88:205   */\ntag_8:\n    /* \"#utility.yul\":197:198   */\n  0x00\n    /* \"#utility.yul\":194:195   */\n  dup1\n    /* \"#utility.yul\":187:199   */\n  revert\n    /* \"#utility.yul\":334:460   */\ntag_10:\n    /* \"#utility.yul\":371:378   */\n  0x00\n    /* \"#utility.yul\":411:453   */\n  0xffffffffffffffffffffffffffffffffffffffff\n    /* \"#utility.yul\":404:409   */\n  dup3\n    /* \"#utility.yul\":400:454   */\n  and\n    /* \"#utility.yul\":389:454   */\n  swap1\n  pop\n    /* \"#utility.yul\":334:460   */\n  swap2\n  swap1\n  pop\n  jump\t// out\n    /* \"#utility.yul\":466:562   */\ntag_11:\n    /* \"#utility.yul\":503:510   */\n  0x00\n    /* \"#utility.yul\":532:556   */\n  tag_20\n    /* \"#utility.yul\":550:555   */\n  dup3\n    /* \"#utility.yul\":532:556   */\n  tag_10\n  jump\t// in\ntag_20:\n    /* \"#utility.yul\":521:556   */\n  swap1\n  pop\n    /* \"#utility.yul\":466:562   */\n  swap2\n  swap1\n  pop\n  jump\t// out\n    /* \"#utility.yul\":568:690   */\ntag_12:\n    /* \"#utility.yul\":641:665   */\n  tag_22\n    /* \"#utility.yul\":659:664   */\n  dup2\n    /* \"#utility.yul\":641:665   */\n  tag_11\n  jump\t// in\ntag_22:\n    /* \"#utility.yul\":634:639   */\n  dup2\n    /* \"#utility.yul\":631:666   */\n  eq\n    /* \"#utility.yul\":621:684   */\n  tag_23\n  jumpi\n    /* \"#utility.yul\":680:681   */\n  0x00\n    /* \"#utility.yul\":677:678   */\n  dup1\n    /* \"#utility.yul\":670:682   */\n  revert\n    /* \"#utility.yul\":621:684   */\ntag_23:\n    /* \"#utility.yul\":568:690   */\n  pop\n  jump\t// out\n    /* \"#utility.yul\":696:839   */\ntag_13:\n    /* \"#utility.yul\":753:758   */\n  0x00\n    /* \"#utility.yul\":784:790   */\n  dup2\n    /* \"#utility.yul\":778:791   */\n  mload\n    /* \"#utility.yul\":769:791   */\n  swap1\n  pop\n    /* \"#utility.yul\":800:833   */\n  tag_25\n    /* \"#utility.yul\":827:832   */\n  dup2\n    /* \"#utility.yul\":800:833   */\n  tag_12\n  jump\t// in\ntag_25:\n    /* \"#utility.yul\":696:839   */\n  swap3\n  swap2\n  pop\n  pop\n  jump\t// out\n    /* \"#utility.yul\":845:1196   */\ntag_3:\n    /* \"#utility.yul\":915:921   */\n  0x00\n    /* \"#utility.yul\":964:966   */\n  0x20\n    /* \"#utility.yul\":952:961   */\n  dup3\n    /* \"#utility.yul\":943:950   */\n  dup5\n    /* \"#utility.yul\":939:962   */\n  sub\n    /* \"#utility.yul\":935:967   */\n  slt\n    /* \"#utility.yul\":932:1051   */\n  iszero\n  tag_27\n  jumpi\n    /* \"#utility.yul\":970:1049   */\n  tag_28\n  tag_8\n  jump\t// in\ntag_28:\n    /* \"#utility.yul\":932:1051   */\ntag_27:\n    /* \"#utility.yul\":1090:1091   */\n  0x00\n    /* \"#utility.yul\":1115:1179   */\n  tag_29\n    /* \"#utility.yul\":1171:1178   */\n  dup5\n    /* \"#utility.yul\":1162:1168   */\n  dup3\n    /* \"#utility.yul\":1151:1160   */\n  dup6\n    /* \"#utility.yul\":1147:1169   */\n  add\n    /* \"#utility.yul\":1115:1179   */\n  tag_13\n  jump\t// in\ntag_29:\n    /* \"#utility.yul\":1105:1179   */\n  swap2\n  pop\n    /* \"#utility.yul\":1061:1189   */\n  pop\n    /* \"#utility.yul\":845:1196   */\n  swap3\n  swap2\n  pop\n  pop\n  jump\t// out\n    /* \"SuperDepositor.sol\":289:4986  contract BeetsHelper {... */\ntag_6:\n  mload(0x80)\n  codecopy(0x00, dataOffset(sub_0), dataSize(sub_0))\n  0x00\n  assignImmutable(\"0xf3c94672c9097e8255317de36dd0d00a9f72d57eeb896861f583a1140be6889a\")\n  return(0x00, dataSize(sub_0))\nstop\n\nsub_0: assembly {\n        /* \"SuperDepositor.sol\":289:4986  contract BeetsHelper {... */\n      mstore(0x40, 0x80)\n      callvalue\n      dup1\n      iszero\n      tag_1\n      jumpi\n      0x00\n      dup1\n      revert\n    tag_1:\n      pop\n      jumpi(tag_2, lt(calldatasize, 0x04))\n      shr(0xe0, calldataload(0x00))\n      dup1\n      0x77aba213\n      eq\n      tag_3\n      jumpi\n      dup1\n      0x9cbcf4c7\n      eq\n      tag_4\n      jumpi\n      dup1\n      0xbfbd3808\n      eq\n      tag_5\n      jumpi\n      dup1\n      0xd62d2fbc\n      eq\n      tag_6\n      jumpi\n    tag_2:\n      0x00\n      dup1\n      revert\n        /* \"SuperDepositor.sol\":376:409  address public immutable balVault */\n    tag_3:\n      tag_7\n      tag_8\n      jump\t// in\n    tag_7:\n      mload(0x40)\n      tag_9\n      swap2\n      swap1\n      tag_10\n      jump\t// in\n    tag_9:\n      mload(0x40)\n      dup1\n      swap2\n      sub\n      swap1\n      return\n        /* \"SuperDepositor.sol\":988:1481  function routeDeposit(address tokenIn, VaultParams memory details, uint256 amount) public {... */\n    tag_4:\n      tag_11\n      0x04\n      dup1\n      calldatasize\n      sub\n      dup2\n      add\n      swap1\n      tag_12\n      swap2\n      swap1\n      tag_13\n      jump\t// in\n    tag_12:\n      tag_14\n      jump\t// in\n    tag_11:\n      stop\n        /* \"SuperDepositor.sol\":1489:1953  function _singleSideDeposit(VaultParams memory details, uint256 amount) public {... */\n    tag_5:\n      tag_15\n      0x04\n      dup1\n      calldatasize\n      sub\n      dup2\n      add\n      swap1\n      tag_16\n      swap2\n      swap1\n      tag_17\n      jump\t// in\n    tag_16:\n      tag_18\n      jump\t// in\n    tag_15:\n      stop\n        /* \"SuperDepositor.sol\":1961:2380  function _singleSideWithdraw(VaultParams memory details, uint256 amountVault, uint256 amountOutput) public {... */\n    tag_6:\n      tag_19\n      0x04\n      dup1\n      calldatasize\n      sub\n      dup2\n      add\n      swap1\n      tag_20\n      swap2\n      swap1\n      tag_21\n      jump\t// in\n    tag_20:\n      tag_22\n      jump\t// in\n    tag_19:\n      stop\n        /* \"SuperDepositor.sol\":376:409  address public immutable balVault */\n    tag_8:\n      immutable(\"0xf3c94672c9097e8255317de36dd0d00a9f72d57eeb896861f583a1140be6889a\")\n      dup2\n      jump\t// out\n        /* \"SuperDepositor.sol\":988:1481  function routeDeposit(address tokenIn, VaultParams memory details, uint256 amount) public {... */\n    tag_14:\n        /* \"SuperDepositor.sol\":1216:1236  address depositToken */\n      0x00\n        /* \"SuperDepositor.sol\":1247:1254  details */\n      dup3\n        /* \"SuperDepositor.sol\":1247:1266  details.underlyings */\n      0x00\n      add\n      mload\n        /* \"SuperDepositor.sol\":1267:1274  details */\n      dup4\n        /* \"SuperDepositor.sol\":1267:1285  details.tokenIndex */\n      0x20\n      add\n      mload\n        /* \"SuperDepositor.sol\":1247:1286  details.underlyings[details.tokenIndex] */\n      dup2\n      mload\n      dup2\n      lt\n      tag_24\n      jumpi\n      tag_25\n      tag_26\n      jump\t// in\n    tag_25:\n    tag_24:\n      0x20\n      mul\n      0x20\n      add\n      add\n      mload\n        /* \"SuperDepositor.sol\":1216:1287  address depositToken = address(details.underlyings[details.tokenIndex]) */\n      swap1\n      pop\n        /* \"SuperDepositor.sol\":1312:1324  depositToken */\n      dup1\n        /* \"SuperDepositor.sol\":1301:1324  tokenIn == depositToken */\n      0xffffffffffffffffffffffffffffffffffffffff\n      and\n        /* \"SuperDepositor.sol\":1301:1308  tokenIn */\n      dup5\n        /* \"SuperDepositor.sol\":1301:1324  tokenIn == depositToken */\n      0xffffffffffffffffffffffffffffffffffffffff\n      and\n      sub\n        /* \"SuperDepositor.sol\":1298:1464  if(tokenIn == depositToken){... */\n      tag_27\n      jumpi\n        /* \"SuperDepositor.sol\":1340:1375  _singleSideDeposit(details, amount) */\n      tag_28\n        /* \"SuperDepositor.sol\":1359:1366  details */\n      dup4\n        /* \"SuperDepositor.sol\":1368:1374  amount */\n      dup4\n        /* \"SuperDepositor.sol\":1340:1358  _singleSideDeposit */\n      tag_18\n        /* \"SuperDepositor.sol\":1340:1375  _singleSideDeposit(details, amount) */\n      jump\t// in\n    tag_28:\n        /* \"SuperDepositor.sol\":1298:1464  if(tokenIn == depositToken){... */\n      jump(tag_29)\n    tag_27:\n    tag_29:\n        /* \"SuperDepositor.sol\":1078:1481  {... */\n      pop\n        /* \"SuperDepositor.sol\":988:1481  function routeDeposit(address tokenIn, VaultParams memory details, uint256 amount) public {... */\n      pop\n      pop\n      pop\n      jump\t// out\n        /* \"SuperDepositor.sol\":1489:1953  function _singleSideDeposit(VaultParams memory details, uint256 amount) public {... */\n    tag_18:\n        /* \"SuperDepositor.sol\":1579:1607  IERC20Upgradeable inputToken */\n      0x00\n        /* \"SuperDepositor.sol\":1636:1643  details */\n      dup3\n        /* \"SuperDepositor.sol\":1636:1655  details.underlyings */\n      0x00\n      add\n      mload\n        /* \"SuperDepositor.sol\":1656:1663  details */\n      dup4\n        /* \"SuperDepositor.sol\":1656:1674  details.tokenIndex */\n      0x20\n      add\n      mload\n        /* \"SuperDepositor.sol\":1636:1675  details.underlyings[details.tokenIndex] */\n      dup2\n      mload\n      dup2\n      lt\n      tag_31\n      jumpi\n      tag_32\n      tag_26\n      jump\t// in\n    tag_32:\n    tag_31:\n      0x20\n      mul\n      0x20\n      add\n      add\n      mload\n        /* \"SuperDepositor.sol\":1579:1677  IERC20Upgradeable inputToken = IERC20Upgradeable(address(details.underlyings[details.tokenIndex])) */\n      swap1\n      pop\n        /* \"SuperDepositor.sol\":1688:1750  inputToken.safeTransferFrom(msg.sender, address(this), amount) */\n      tag_33\n        /* \"SuperDepositor.sol\":1716:1726  msg.sender */\n      caller\n        /* \"SuperDepositor.sol\":1736:1740  this */\n      address\n        /* \"SuperDepositor.sol\":1743:1749  amount */\n      dup5\n        /* \"SuperDepositor.sol\":1688:1698  inputToken */\n      dup5\n        /* \"SuperDepositor.sol\":1688:1715  inputToken.safeTransferFrom */\n      0xffffffffffffffffffffffffffffffffffffffff\n      and\n      tag_34\n      swap1\n        /* \"SuperDepositor.sol\":1688:1750  inputToken.safeTransferFrom(msg.sender, address(this), amount) */\n      swap4\n      swap3\n      swap2\n      swap1\n      0xffffffff\n      and\n      jump\t// in\n    tag_33:\n        /* \"SuperDepositor.sol\":1761:1840  _joinPool(details.underlyings, amount, details.tokenIndex, details.beetsPoolId) */\n      tag_35\n        /* \"SuperDepositor.sol\":1771:1778  details */\n      dup4\n        /* \"SuperDepositor.sol\":1771:1790  details.underlyings */\n      0x00\n      add\n      mload\n        /* \"SuperDepositor.sol\":1792:1798  amount */\n      dup4\n        /* \"SuperDepositor.sol\":1800:1807  details */\n      dup6\n        /* \"SuperDepositor.sol\":1800:1818  details.tokenIndex */\n      0x20\n      add\n      mload\n        /* \"SuperDepositor.sol\":1820:1827  details */\n      dup7\n        /* \"SuperDepositor.sol\":1820:1839  details.beetsPoolId */\n      0x40\n      add\n      mload\n        /* \"SuperDepositor.sol\":1761:1770  _joinPool */\n      tag_36\n        /* \"SuperDepositor.sol\":1761:1840  _joinPool(details.underlyings, amount, details.tokenIndex, details.beetsPoolId) */\n      jump\t// in\n    tag_35:\n        /* \"SuperDepositor.sol\":1877:1945  _depositLPToVault(details.lpToken, details.vault, details.recipient) */\n      tag_37\n        /* \"SuperDepositor.sol\":1895:1902  details */\n      dup4\n        /* \"SuperDepositor.sol\":1895:1910  details.lpToken */\n      0x60\n      add\n      mload\n        /* \"SuperDepositor.sol\":1912:1919  details */\n      dup5\n        /* \"SuperDepositor.sol\":1912:1925  details.vault */\n      0x80\n      add\n      mload\n        /* \"SuperDepositor.sol\":1927:1934  details */\n      dup6\n        /* \"SuperDepositor.sol\":1927:1944  details.recipient */\n      0xa0\n      add\n      mload\n        /* \"SuperDepositor.sol\":1877:1894  _depositLPToVault */\n      tag_38\n        /* \"SuperDepositor.sol\":1877:1945  _depositLPToVault(details.lpToken, details.vault, details.recipient) */\n      jump\t// in\n    tag_37:\n        /* \"SuperDepositor.sol\":1568:1953  {... */\n      pop\n        /* \"SuperDepositor.sol\":1489:1953  function _singleSideDeposit(VaultParams memory details, uint256 amount) public {... */\n      pop\n      pop\n      jump\t// out\n        /* \"SuperDepositor.sol\":1961:2380  function _singleSideWithdraw(VaultParams memory details, uint256 amountVault, uint256 amountOutput) public {... */\n    tag_22:\n        /* \"SuperDepositor.sol\":2079:2107  IERC20Upgradeable inputToken */\n      0x00\n        /* \"SuperDepositor.sol\":2128:2135  details */\n      dup4\n        /* \"SuperDepositor.sol\":2128:2141  details.vault */\n      0x80\n      add\n      mload\n        /* \"SuperDepositor.sol\":2079:2142  IERC20Upgradeable inputToken = IERC20Upgradeable(details.vault) */\n      swap1\n      pop\n        /* \"SuperDepositor.sol\":2153:2220  inputToken.safeTransferFrom(msg.sender, address(this), amountVault) */\n      tag_40\n        /* \"SuperDepositor.sol\":2181:2191  msg.sender */\n      caller\n        /* \"SuperDepositor.sol\":2201:2205  this */\n      address\n        /* \"SuperDepositor.sol\":2208:2219  amountVault */\n      dup6\n        /* \"SuperDepositor.sol\":2153:2163  inputToken */\n      dup5\n        /* \"SuperDepositor.sol\":2153:2180  inputToken.safeTransferFrom */\n      0xffffffffffffffffffffffffffffffffffffffff\n      and\n      tag_34\n      swap1\n        /* \"SuperDepositor.sol\":2153:2220  inputToken.safeTransferFrom(msg.sender, address(this), amountVault) */\n      swap4\n      swap3\n      swap2\n      swap1\n      0xffffffff\n      and\n      jump\t// in\n    tag_40:\n        /* \"SuperDepositor.sol\":2238:2245  details */\n      dup4\n        /* \"SuperDepositor.sol\":2238:2251  details.vault */\n      0x80\n      add\n      mload\n        /* \"SuperDepositor.sol\":2231:2264  IVault(details.vault).withdrawAll */\n      0xffffffffffffffffffffffffffffffffffffffff\n      and\n      0x853828b6\n        /* \"SuperDepositor.sol\":2231:2266  IVault(details.vault).withdrawAll() */\n      mload(0x40)\n      dup2\n      0xffffffff\n      and\n      0xe0\n      shl\n      dup2\n      mstore\n      0x04\n      add\n      0x00\n      mload(0x40)\n      dup1\n      dup4\n      sub\n      dup2\n      0x00\n      dup8\n      dup1\n      extcodesize\n      iszero\n      dup1\n      iszero\n      tag_41\n      jumpi\n      0x00\n      dup1\n      revert\n    tag_41:\n      pop\n      gas\n      call\n      iszero\n      dup1\n      iszero\n      tag_43\n      jumpi\n      returndatasize\n      0x00\n      dup1\n      returndatacopy\n      revert(0x00, returndatasize)\n    tag_43:\n      pop\n      pop\n      pop\n      pop\n        /* \"SuperDepositor.sol\":2277:2362  _exitPool(details.underlyings, amountOutput, details.tokenIndex, details.beetsPoolId) */\n      tag_44\n        /* \"SuperDepositor.sol\":2287:2294  details */\n      dup5\n        /* \"SuperDepositor.sol\":2287:2306  details.underlyings */\n      0x00\n      add\n      mload\n        /* \"SuperDepositor.sol\":2308:2320  amountOutput */\n      dup4\n        /* \"SuperDepositor.sol\":2322:2329  details */\n      dup7\n        /* \"SuperDepositor.sol\":2322:2340  details.tokenIndex */\n      0x20\n      add\n      mload\n        /* \"SuperDepositor.sol\":2342:2349  details */\n      dup8\n        /* \"SuperDepositor.sol\":2342:2361  details.beetsPoolId */\n      0x40\n      add\n      mload\n        /* \"SuperDepositor.sol\":2277:2286  _exitPool */\n      tag_45\n        /* \"SuperDepositor.sol\":2277:2362  _exitPool(details.underlyings, amountOutput, details.tokenIndex, details.beetsPoolId) */\n      jump\t// in\n    tag_44:\n        /* \"SuperDepositor.sol\":2068:2380  {... */\n      pop\n        /* \"SuperDepositor.sol\":1961:2380  function _singleSideWithdraw(VaultParams memory details, uint256 amountVault, uint256 amountOutput) public {... */\n      pop\n      pop\n      pop\n      jump\t// out\n        /* \"@openzeppelin/contracts-upgradeable/token/ERC20/utils/SafeERC20Upgradeable.sol\":967:1219  function safeTransferFrom(... */\n    tag_34:\n        /* \"@openzeppelin/contracts-upgradeable/token/ERC20/utils/SafeERC20Upgradeable.sol\":1116:1212  _callOptionalReturn(token, abi.encodeWithSelector(token.transferFrom.selector, from, to, value)) */\n      tag_47\n        /* \"@openzeppelin/contracts-upgradeable/token/ERC20/utils/SafeERC20Upgradeable.sol\":1136:1141  token */\n      dup5\n        /* \"@openzeppelin/contracts-upgradeable/token/ERC20/utils/SafeERC20Upgradeable.sol\":1166:1193  token.transferFrom.selector */\n      shl(0xe0, 0x23b872dd)\n        /* \"@openzeppelin/contracts-upgradeable/token/ERC20/utils/SafeERC20Upgradeable.sol\":1195:1199  from */\n      dup6\n        /* \"@openzeppelin/contracts-upgradeable/token/ERC20/utils/SafeERC20Upgradeable.sol\":1201:1203  to */\n      dup6\n        /* \"@openzeppelin/contracts-upgradeable/token/ERC20/utils/SafeERC20Upgradeable.sol\":1205:1210  value */\n      dup6\n        /* \"@openzeppelin/contracts-upgradeable/token/ERC20/utils/SafeERC20Upgradeable.sol\":1143:1211  abi.encodeWithSelector(token.transferFrom.selector, from, to, value) */\n      add(0x24, mload(0x40))\n      tag_48\n      swap4\n      swap3\n      swap2\n      swap1\n      tag_49\n      jump\t// in\n    tag_48:\n      mload(0x40)\n      0x20\n      dup2\n      dup4\n      sub\n      sub\n      dup2\n      mstore\n      swap1\n      0x40\n      mstore\n      swap1\n      not(0xffffffffffffffffffffffffffffffffffffffffffffffffffffffff)\n      and\n      0x20\n      dup3\n      add\n      dup1\n      mload\n      0xffffffffffffffffffffffffffffffffffffffffffffffffffffffff\n      dup4\n      dup2\n      dup4\n      and\n      or\n      dup4\n      mstore\n      pop\n      pop\n      pop\n      pop\n        /* \"@openzeppelin/contracts-upgradeable/token/ERC20/utils/SafeERC20Upgradeable.sol\":1116:1135  _callOptionalReturn */\n      tag_50\n        /* \"@openzeppelin/contracts-upgradeable/token/ERC20/utils/SafeERC20Upgradeable.sol\":1116:1212  _callOptionalReturn(token, abi.encodeWithSelector(token.transferFrom.selector, from, to, value)) */\n      jump\t// in\n    tag_47:\n        /* \"@openzeppelin/contracts-upgradeable/token/ERC20/utils/SafeERC20Upgradeable.sol\":967:1219  function safeTransferFrom(... */\n      pop\n      pop\n      pop\n      pop\n      jump\t// out\n        /* \"SuperDepositor.sol\":3197:4115  function _joinPool(IAsset[] memory underlyings, uint256 amtIn, uint256 tokenIndex, bytes32 beetsPoolId) internal {... */\n    tag_36:\n        /* \"SuperDepositor.sol\":3321:3335  uint8 joinKind */\n      0x00\n        /* \"SuperDepositor.sol\":3338:3339  1 */\n      0x01\n        /* \"SuperDepositor.sol\":3321:3339  uint8 joinKind = 1 */\n      swap1\n      pop\n        /* \"SuperDepositor.sol\":3432:3458  uint256[] memory amountsIn */\n      0x00\n        /* \"SuperDepositor.sol\":3475:3486  underlyings */\n      dup6\n        /* \"SuperDepositor.sol\":3475:3493  underlyings.length */\n      mload\n        /* \"SuperDepositor.sol\":3461:3494  new uint256[](underlyings.length) */\n      0xffffffffffffffff\n      dup2\n      gt\n      iszero\n      tag_52\n      jumpi\n      tag_53\n      tag_54\n      jump\t// in\n    tag_53:\n    tag_52:\n      mload(0x40)\n      swap1\n      dup1\n      dup3\n      mstore\n      dup1\n      0x20\n      mul\n      0x20\n      add\n      dup3\n      add\n      0x40\n      mstore\n      dup1\n      iszero\n      tag_55\n      jumpi\n      dup2\n      0x20\n      add\n      0x20\n      dup3\n      mul\n      dup1\n      calldatasize\n      dup4\n      calldatacopy\n      dup1\n      dup3\n      add\n      swap2\n      pop\n      pop\n      swap1\n      pop\n    tag_55:\n      pop\n        /* \"SuperDepositor.sol\":3432:3494  uint256[] memory amountsIn = new uint256[](underlyings.length) */\n      swap1\n      pop\n        /* \"SuperDepositor.sol\":3529:3534  amtIn */\n      dup5\n        /* \"SuperDepositor.sol\":3505:3514  amountsIn */\n      dup2\n        /* \"SuperDepositor.sol\":3515:3525  tokenIndex */\n      dup6\n        /* \"SuperDepositor.sol\":3505:3526  amountsIn[tokenIndex] */\n      dup2\n      mload\n      dup2\n      lt\n      tag_56\n      jumpi\n      tag_57\n      tag_26\n      jump\t// in\n    tag_57:\n    tag_56:\n      0x20\n      mul\n      0x20\n      add\n      add\n        /* \"SuperDepositor.sol\":3505:3534  amountsIn[tokenIndex] = amtIn */\n      dup2\n      dup2\n      mstore\n      pop\n      pop\n        /* \"SuperDepositor.sol\":3547:3567  uint256 minAmountOut */\n      0x00\n        /* \"SuperDepositor.sol\":3570:3571  1 */\n      0x01\n        /* \"SuperDepositor.sol\":3547:3571  uint256 minAmountOut = 1 */\n      swap1\n      pop\n        /* \"SuperDepositor.sol\":3623:3644  bytes memory userData */\n      0x00\n        /* \"SuperDepositor.sol\":3658:3666  joinKind */\n      dup4\n        /* \"SuperDepositor.sol\":3668:3677  amountsIn */\n      dup4\n        /* \"SuperDepositor.sol\":3679:3691  minAmountOut */\n      dup4\n        /* \"SuperDepositor.sol\":3647:3692  abi.encode(joinKind, amountsIn, minAmountOut) */\n      add(0x20, mload(0x40))\n      tag_58\n      swap4\n      swap3\n      swap2\n      swap1\n      tag_59\n      jump\t// in\n    tag_58:\n      mload(0x40)\n      0x20\n      dup2\n      dup4\n      sub\n      sub\n      dup2\n      mstore\n      swap1\n      0x40\n      mstore\n        /* \"SuperDepositor.sol\":3623:3692  bytes memory userData = abi.encode(joinKind, amountsIn, minAmountOut) */\n      swap1\n      pop\n        /* \"SuperDepositor.sol\":3705:3746  IBeetVault.JoinPoolRequest memory request */\n      tag_60\n      tag_61\n      jump\t// in\n    tag_60:\n        /* \"SuperDepositor.sol\":3774:3785  underlyings */\n      dup9\n        /* \"SuperDepositor.sol\":3757:3764  request */\n      dup2\n        /* \"SuperDepositor.sol\":3757:3771  request.assets */\n      0x00\n      add\n        /* \"SuperDepositor.sol\":3757:3785  request.assets = underlyings */\n      dup2\n      swap1\n      mstore\n      pop\n        /* \"SuperDepositor.sol\":3819:3828  amountsIn */\n      dup4\n        /* \"SuperDepositor.sol\":3796:3803  request */\n      dup2\n        /* \"SuperDepositor.sol\":3796:3816  request.maxAmountsIn */\n      0x20\n      add\n        /* \"SuperDepositor.sol\":3796:3828  request.maxAmountsIn = amountsIn */\n      dup2\n      swap1\n      mstore\n      pop\n        /* \"SuperDepositor.sol\":3858:3866  userData */\n      dup2\n        /* \"SuperDepositor.sol\":3839:3846  request */\n      dup2\n        /* \"SuperDepositor.sol\":3839:3855  request.userData */\n      0x40\n      add\n        /* \"SuperDepositor.sol\":3839:3866  request.userData = userData */\n      dup2\n      swap1\n      mstore\n      pop\n        /* \"SuperDepositor.sol\":3907:3912  false */\n      0x00\n        /* \"SuperDepositor.sol\":3877:3884  request */\n      dup2\n        /* \"SuperDepositor.sol\":3877:3904  request.fromInternalBalance */\n      0x60\n      add\n        /* \"SuperDepositor.sol\":3877:3912  request.fromInternalBalance = false */\n      swap1\n      iszero\n      iszero\n      swap1\n      dup2\n      iszero\n      iszero\n      dup2\n      mstore\n      pop\n      pop\n        /* \"SuperDepositor.sol\":3925:4015  IERC20Upgradeable(address(underlyings[tokenIndex])).safeIncreaseAllowance(balVault, amtIn) */\n      tag_62\n        /* \"SuperDepositor.sol\":3999:4007  balVault */\n      immutable(\"0xf3c94672c9097e8255317de36dd0d00a9f72d57eeb896861f583a1140be6889a\")\n        /* \"SuperDepositor.sol\":4009:4014  amtIn */\n      dup10\n        /* \"SuperDepositor.sol\":3951:3962  underlyings */\n      dup12\n        /* \"SuperDepositor.sol\":3963:3973  tokenIndex */\n      dup11\n        /* \"SuperDepositor.sol\":3951:3974  underlyings[tokenIndex] */\n      dup2\n      mload\n      dup2\n      lt\n      tag_63\n      jumpi\n      tag_64\n      tag_26\n      jump\t// in\n    tag_64:\n    tag_63:\n      0x20\n      mul\n      0x20\n      add\n      add\n      mload\n        /* \"SuperDepositor.sol\":3925:3998  IERC20Upgradeable(address(underlyings[tokenIndex])).safeIncreaseAllowance */\n      0xffffffffffffffffffffffffffffffffffffffff\n      and\n      tag_65\n      swap1\n        /* \"SuperDepositor.sol\":3925:4015  IERC20Upgradeable(address(underlyings[tokenIndex])).safeIncreaseAllowance(balVault, amtIn) */\n      swap3\n      swap2\n      swap1\n      0xffffffff\n      and\n      jump\t// in\n    tag_62:\n        /* \"SuperDepositor.sol\":4037:4045  balVault */\n      immutable(\"0xf3c94672c9097e8255317de36dd0d00a9f72d57eeb896861f583a1140be6889a\")\n        /* \"SuperDepositor.sol\":4026:4055  IBeetVault(balVault).joinPool */\n      0xffffffffffffffffffffffffffffffffffffffff\n      and\n      0xb95cac28\n        /* \"SuperDepositor.sol\":4056:4067  beetsPoolId */\n      dup8\n        /* \"SuperDepositor.sol\":4077:4081  this */\n      address\n        /* \"SuperDepositor.sol\":4092:4096  this */\n      address\n        /* \"SuperDepositor.sol\":4099:4106  request */\n      dup6\n        /* \"SuperDepositor.sol\":4026:4107  IBeetVault(balVault).joinPool(beetsPoolId, address(this), address(this), request) */\n      mload(0x40)\n      dup6\n      0xffffffff\n      and\n      0xe0\n      shl\n      dup2\n      mstore\n      0x04\n      add\n      tag_66\n      swap5\n      swap4\n      swap3\n      swap2\n      swap1\n      tag_67\n      jump\t// in\n    tag_66:\n      0x00\n      mload(0x40)\n      dup1\n      dup4\n      sub\n      dup2\n      0x00\n      dup8\n      dup1\n      extcodesize\n      iszero\n      dup1\n      iszero\n      tag_68\n      jumpi\n      0x00\n      dup1\n      revert\n    tag_68:\n      pop\n      gas\n      call\n      iszero\n      dup1\n      iszero\n      tag_70\n      jumpi\n      returndatasize\n      0x00\n      dup1\n      returndatacopy\n      revert(0x00, returndatasize)\n    tag_70:\n      pop\n      pop\n      pop\n      pop\n        /* \"SuperDepositor.sol\":3310:4115  {... */\n      pop\n      pop\n      pop\n      pop\n      pop\n        /* \"SuperDepositor.sol\":3197:4115  function _joinPool(IAsset[] memory underlyings, uint256 amtIn, uint256 tokenIndex, bytes32 beetsPoolId) internal {... */\n      pop\n      pop\n      pop\n      pop\n      jump\t// out\n        /* \"SuperDepositor.sol\":2392:2799  function _depositLPToVault(address lp, address vault, address recipient) internal {... */\n    tag_38:\n        /* \"SuperDepositor.sol\":2510:2537  _approveIfNeeded(vault, lp) */\n      tag_72\n        /* \"SuperDepositor.sol\":2527:2532  vault */\n      dup3\n        /* \"SuperDepositor.sol\":2534:2536  lp */\n      dup5\n        /* \"SuperDepositor.sol\":2510:2526  _approveIfNeeded */\n      tag_73\n        /* \"SuperDepositor.sol\":2510:2537  _approveIfNeeded(vault, lp) */\n      jump\t// in\n    tag_72:\n        /* \"SuperDepositor.sol\":2605:2610  vault */\n      dup2\n        /* \"SuperDepositor.sol\":2598:2622  IVault(vault).depositAll */\n      0xffffffffffffffffffffffffffffffffffffffff\n      and\n      0xde5f6268\n        /* \"SuperDepositor.sol\":2598:2624  IVault(vault).depositAll() */\n      mload(0x40)\n      dup2\n      0xffffffff\n      and\n      0xe0\n      shl\n      dup2\n      mstore\n      0x04\n      add\n      0x00\n      mload(0x40)\n      dup1\n      dup4\n      sub\n      dup2\n      0x00\n      dup8\n      dup1\n      extcodesize\n      iszero\n      dup1\n      iszero\n      tag_74\n      jumpi\n      0x00\n      dup1\n      revert\n    tag_74:\n      pop\n      gas\n      call\n      iszero\n      dup1\n      iszero\n      tag_76\n      jumpi\n      returndatasize\n      0x00\n      dup1\n      returndatacopy\n      revert(0x00, returndatasize)\n    tag_76:\n      pop\n      pop\n      pop\n      pop\n        /* \"SuperDepositor.sol\":2666:2690  IERC20Upgradeable shares */\n      0x00\n        /* \"SuperDepositor.sol\":2711:2716  vault */\n      dup3\n        /* \"SuperDepositor.sol\":2666:2717  IERC20Upgradeable shares = IERC20Upgradeable(vault) */\n      swap1\n      pop\n        /* \"SuperDepositor.sol\":2728:2791  shares.safeTransfer(recipient, shares.balanceOf(address(this))) */\n      tag_77\n        /* \"SuperDepositor.sol\":2748:2757  recipient */\n      dup3\n        /* \"SuperDepositor.sol\":2759:2765  shares */\n      dup3\n        /* \"SuperDepositor.sol\":2759:2775  shares.balanceOf */\n      0xffffffffffffffffffffffffffffffffffffffff\n      and\n      0x70a08231\n        /* \"SuperDepositor.sol\":2784:2788  this */\n      address\n        /* \"SuperDepositor.sol\":2759:2790  shares.balanceOf(address(this)) */\n      mload(0x40)\n      dup3\n      0xffffffff\n      and\n      0xe0\n      shl\n      dup2\n      mstore\n      0x04\n      add\n      tag_78\n      swap2\n      swap1\n      tag_10\n      jump\t// in\n    tag_78:\n      0x20\n      mload(0x40)\n      dup1\n      dup4\n      sub\n      dup2\n      dup7\n      gas\n      staticcall\n      iszero\n      dup1\n      iszero\n      tag_80\n      jumpi\n      returndatasize\n      0x00\n      dup1\n      returndatacopy\n      revert(0x00, returndatasize)\n    tag_80:\n      pop\n      pop\n      pop\n      pop\n      mload(0x40)\n      returndatasize\n      not(0x1f)\n      0x1f\n      dup3\n      add\n      and\n      dup3\n      add\n      dup1\n      0x40\n      mstore\n      pop\n      dup2\n      add\n      swap1\n      tag_81\n      swap2\n      swap1\n      tag_82\n      jump\t// in\n    tag_81:\n        /* \"SuperDepositor.sol\":2728:2734  shares */\n      dup4\n        /* \"SuperDepositor.sol\":2728:2747  shares.safeTransfer */\n      0xffffffffffffffffffffffffffffffffffffffff\n      and\n      tag_83\n      swap1\n        /* \"SuperDepositor.sol\":2728:2791  shares.safeTransfer(recipient, shares.balanceOf(address(this))) */\n      swap3\n      swap2\n      swap1\n      0xffffffff\n      and\n      jump\t// in\n    tag_77:\n        /* \"SuperDepositor.sol\":2474:2799  {... */\n      pop\n        /* \"SuperDepositor.sol\":2392:2799  function _depositLPToVault(address lp, address vault, address recipient) internal {... */\n      pop\n      pop\n      pop\n      jump\t// out\n        /* \"SuperDepositor.sol\":4123:4981  function _exitPool(IAsset[] memory underlyings, uint256 amtOut, uint256 tokenIndex, bytes32 beetsPoolId) internal {... */\n    tag_45:\n        /* \"SuperDepositor.sol\":4329:4359  uint256[] memory minAmountsOut */\n      0x00\n        /* \"SuperDepositor.sol\":4376:4387  underlyings */\n      dup5\n        /* \"SuperDepositor.sol\":4376:4394  underlyings.length */\n      mload\n        /* \"SuperDepositor.sol\":4362:4395  new uint256[](underlyings.length) */\n      0xffffffffffffffff\n      dup2\n      gt\n      iszero\n      tag_85\n      jumpi\n      tag_86\n      tag_54\n      jump\t// in\n    tag_86:\n    tag_85:\n      mload(0x40)\n      swap1\n      dup1\n      dup3\n      mstore\n      dup1\n      0x20\n      mul\n      0x20\n      add\n      dup3\n      add\n      0x40\n      mstore\n      dup1\n      iszero\n      tag_87\n      jumpi\n      dup2\n      0x20\n      add\n      0x20\n      dup3\n      mul\n      dup1\n      calldatasize\n      dup4\n      calldatacopy\n      dup1\n      dup3\n      add\n      swap2\n      pop\n      pop\n      swap1\n      pop\n    tag_87:\n      pop\n        /* \"SuperDepositor.sol\":4329:4395  uint256[] memory minAmountsOut = new uint256[](underlyings.length) */\n      swap1\n      pop\n        /* \"SuperDepositor.sol\":4434:4440  amtOut */\n      dup4\n        /* \"SuperDepositor.sol\":4406:4419  minAmountsOut */\n      dup2\n        /* \"SuperDepositor.sol\":4420:4430  tokenIndex */\n      dup5\n        /* \"SuperDepositor.sol\":4406:4431  minAmountsOut[tokenIndex] */\n      dup2\n      mload\n      dup2\n      lt\n      tag_88\n      jumpi\n      tag_89\n      tag_26\n      jump\t// in\n    tag_89:\n    tag_88:\n      0x20\n      mul\n      0x20\n      add\n      add\n        /* \"SuperDepositor.sol\":4406:4440  minAmountsOut[tokenIndex] = amtOut */\n      dup2\n      dup2\n      mstore\n      pop\n      pop\n        /* \"SuperDepositor.sol\":4453:4474  bytes memory userData */\n      0x00\n        /* \"SuperDepositor.sol\":4488:4489  0 */\n      dup1\n        /* \"SuperDepositor.sol\":4490:4496  amtOut */\n      dup6\n        /* \"SuperDepositor.sol\":4498:4508  tokenIndex */\n      dup6\n        /* \"SuperDepositor.sol\":4477:4509  abi.encode(0,amtOut, tokenIndex) */\n      add(0x20, mload(0x40))\n      tag_90\n      swap4\n      swap3\n      swap2\n      swap1\n      tag_91\n      jump\t// in\n    tag_90:\n      mload(0x40)\n      0x20\n      dup2\n      dup4\n      sub\n      sub\n      dup2\n      mstore\n      swap1\n      0x40\n      mstore\n        /* \"SuperDepositor.sol\":4453:4509  bytes memory userData = abi.encode(0,amtOut, tokenIndex) */\n      swap1\n      pop\n        /* \"SuperDepositor.sol\":4522:4563  IBeetVault.ExitPoolRequest memory request */\n      tag_92\n      tag_93\n      jump\t// in\n    tag_92:\n        /* \"SuperDepositor.sol\":4591:4602  underlyings */\n      dup7\n        /* \"SuperDepositor.sol\":4574:4581  request */\n      dup2\n        /* \"SuperDepositor.sol\":4574:4588  request.assets */\n      0x00\n      add\n        /* \"SuperDepositor.sol\":4574:4602  request.assets = underlyings */\n      dup2\n      swap1\n      mstore\n      pop\n        /* \"SuperDepositor.sol\":4637:4650  minAmountsOut */\n      dup3\n        /* \"SuperDepositor.sol\":4613:4620  request */\n      dup2\n        /* \"SuperDepositor.sol\":4613:4634  request.minAmountsOut */\n      0x20\n      add\n        /* \"SuperDepositor.sol\":4613:4650  request.minAmountsOut = minAmountsOut */\n      dup2\n      swap1\n      mstore\n      pop\n        /* \"SuperDepositor.sol\":4680:4688  userData */\n      dup2\n        /* \"SuperDepositor.sol\":4661:4668  request */\n      dup2\n        /* \"SuperDepositor.sol\":4661:4677  request.userData */\n      0x40\n      add\n        /* \"SuperDepositor.sol\":4661:4688  request.userData = userData */\n      dup2\n      swap1\n      mstore\n      pop\n        /* \"SuperDepositor.sol\":4727:4732  false */\n      0x00\n        /* \"SuperDepositor.sol\":4699:4706  request */\n      dup2\n        /* \"SuperDepositor.sol\":4699:4724  request.toInternalBalance */\n      0x60\n      add\n        /* \"SuperDepositor.sol\":4699:4732  request.toInternalBalance = false */\n      swap1\n      iszero\n      iszero\n      swap1\n      dup2\n      iszero\n      iszero\n      dup2\n      mstore\n      pop\n      pop\n        /* \"SuperDepositor.sol\":4859:4867  balVault */\n      immutable(\"0xf3c94672c9097e8255317de36dd0d00a9f72d57eeb896861f583a1140be6889a\")\n        /* \"SuperDepositor.sol\":4848:4877  IBeetVault(balVault).exitPool */\n      0xffffffffffffffffffffffffffffffffffffffff\n      and\n      0x8bdb3913\n        /* \"SuperDepositor.sol\":4878:4889  beetsPoolId */\n      dup6\n        /* \"SuperDepositor.sol\":4899:4903  this */\n      address\n        /* \"SuperDepositor.sol\":4922:4926  this */\n      address\n        /* \"SuperDepositor.sol\":4930:4937  request */\n      dup6\n        /* \"SuperDepositor.sol\":4848:4938  IBeetVault(balVault).exitPool(beetsPoolId, address(this), payable(address(this)), request) */\n      mload(0x40)\n      dup6\n      0xffffffff\n      and\n      0xe0\n      shl\n      dup2\n      mstore\n      0x04\n      add\n      tag_94\n      swap5\n      swap4\n      swap3\n      swap2\n      swap1\n      tag_95\n      jump\t// in\n    tag_94:\n      0x00\n      mload(0x40)\n      dup1\n      dup4\n      sub\n      dup2\n      0x00\n      dup8\n      dup1\n      extcodesize\n      iszero\n      dup1\n      iszero\n      tag_96\n      jumpi\n      0x00\n      dup1\n      revert\n    tag_96:\n      pop\n      gas\n      call\n      iszero\n      dup1\n      iszero\n      tag_98\n      jumpi\n      returndatasize\n      0x00\n      dup1\n      returndatacopy\n      revert(0x00, returndatasize)\n    tag_98:\n      pop\n      pop\n      pop\n      pop\n        /* \"SuperDepositor.sol\":4237:4981  {... */\n      pop\n      pop\n      pop\n        /* \"SuperDepositor.sol\":4123:4981  function _exitPool(IAsset[] memory underlyings, uint256 amtOut, uint256 tokenIndex, bytes32 beetsPoolId) internal {... */\n      pop\n      pop\n      pop\n      pop\n      jump\t// out\n        /* \"@openzeppelin/contracts-upgradeable/token/ERC20/utils/SafeERC20Upgradeable.sol\":3306:4023  function _callOptionalReturn(IERC20Upgradeable token, bytes memory data) private {... */\n    tag_50:\n        /* \"@openzeppelin/contracts-upgradeable/token/ERC20/utils/SafeERC20Upgradeable.sol\":3736:3759  bytes memory returndata */\n      0x00\n        /* \"@openzeppelin/contracts-upgradeable/token/ERC20/utils/SafeERC20Upgradeable.sol\":3762:3831  address(token).functionCall(data, \"SafeERC20: low-level call failed\") */\n      tag_100\n        /* \"@openzeppelin/contracts-upgradeable/token/ERC20/utils/SafeERC20Upgradeable.sol\":3790:3794  data */\n      dup3\n        /* \"@openzeppelin/contracts-upgradeable/token/ERC20/utils/SafeERC20Upgradeable.sol\":3762:3831  address(token).functionCall(data, \"SafeERC20: low-level call failed\") */\n      mload(0x40)\n      dup1\n      0x40\n      add\n      0x40\n      mstore\n      dup1\n      0x20\n      dup2\n      mstore\n      0x20\n      add\n      0x5361666545524332303a206c6f772d6c6576656c2063616c6c206661696c6564\n      dup2\n      mstore\n      pop\n        /* \"@openzeppelin/contracts-upgradeable/token/ERC20/utils/SafeERC20Upgradeable.sol\":3770:3775  token */\n      dup6\n        /* \"@openzeppelin/contracts-upgradeable/token/ERC20/utils/SafeERC20Upgradeable.sol\":3762:3789  address(token).functionCall */\n      0xffffffffffffffffffffffffffffffffffffffff\n      and\n      tag_101\n      swap1\n        /* \"@openzeppelin/contracts-upgradeable/token/ERC20/utils/SafeERC20Upgradeable.sol\":3762:3831  address(token).functionCall(data, \"SafeERC20: low-level call failed\") */\n      swap3\n      swap2\n      swap1\n      0xffffffff\n      and\n      jump\t// in\n    tag_100:\n        /* \"@openzeppelin/contracts-upgradeable/token/ERC20/utils/SafeERC20Upgradeable.sol\":3736:3831  bytes memory returndata = address(token).functionCall(data, \"SafeERC20: low-level call failed\") */\n      swap1\n      pop\n        /* \"@openzeppelin/contracts-upgradeable/token/ERC20/utils/SafeERC20Upgradeable.sol\":3865:3866  0 */\n      0x00\n        /* \"@openzeppelin/contracts-upgradeable/token/ERC20/utils/SafeERC20Upgradeable.sol\":3845:3855  returndata */\n      dup2\n        /* \"@openzeppelin/contracts-upgradeable/token/ERC20/utils/SafeERC20Upgradeable.sol\":3845:3862  returndata.length */\n      mload\n        /* \"@openzeppelin/contracts-upgradeable/token/ERC20/utils/SafeERC20Upgradeable.sol\":3845:3866  returndata.length > 0 */\n      gt\n        /* \"@openzeppelin/contracts-upgradeable/token/ERC20/utils/SafeERC20Upgradeable.sol\":3841:4017  if (returndata.length > 0) {... */\n      iszero\n      tag_102\n      jumpi\n        /* \"@openzeppelin/contracts-upgradeable/token/ERC20/utils/SafeERC20Upgradeable.sol\":3940:3950  returndata */\n      dup1\n        /* \"@openzeppelin/contracts-upgradeable/token/ERC20/utils/SafeERC20Upgradeable.sol\":3929:3959  abi.decode(returndata, (bool)) */\n      dup1\n      0x20\n      add\n      swap1\n      mload\n      dup2\n      add\n      swap1\n      tag_103\n      swap2\n      swap1\n      tag_104\n      jump\t// in\n    tag_103:\n        /* \"@openzeppelin/contracts-upgradeable/token/ERC20/utils/SafeERC20Upgradeable.sol\":3921:4006  require(abi.decode(returndata, (bool)), \"SafeERC20: ERC20 operation did not succeed\") */\n      tag_105\n      jumpi\n      mload(0x40)\n      0x08c379a000000000000000000000000000000000000000000000000000000000\n      dup2\n      mstore\n      0x04\n      add\n      tag_106\n      swap1\n      tag_107\n      jump\t// in\n    tag_106:\n      mload(0x40)\n      dup1\n      swap2\n      sub\n      swap1\n      revert\n    tag_105:\n        /* \"@openzeppelin/contracts-upgradeable/token/ERC20/utils/SafeERC20Upgradeable.sol\":3841:4017  if (returndata.length > 0) {... */\n    tag_102:\n        /* \"@openzeppelin/contracts-upgradeable/token/ERC20/utils/SafeERC20Upgradeable.sol\":3387:4023  {... */\n      pop\n        /* \"@openzeppelin/contracts-upgradeable/token/ERC20/utils/SafeERC20Upgradeable.sol\":3306:4023  function _callOptionalReturn(IERC20Upgradeable token, bytes memory data) private {... */\n      pop\n      pop\n      jump\t// out\n        /* \"@openzeppelin/contracts-upgradeable/token/ERC20/utils/SafeERC20Upgradeable.sol\":2099:2420  function safeIncreaseAllowance(... */\n    tag_65:\n        /* \"@openzeppelin/contracts-upgradeable/token/ERC20/utils/SafeERC20Upgradeable.sol\":2236:2256  uint256 newAllowance */\n      0x00\n        /* \"@openzeppelin/contracts-upgradeable/token/ERC20/utils/SafeERC20Upgradeable.sol\":2301:2306  value */\n      dup2\n        /* \"@openzeppelin/contracts-upgradeable/token/ERC20/utils/SafeERC20Upgradeable.sol\":2259:2264  token */\n      dup5\n        /* \"@openzeppelin/contracts-upgradeable/token/ERC20/utils/SafeERC20Upgradeable.sol\":2259:2274  token.allowance */\n      0xffffffffffffffffffffffffffffffffffffffff\n      and\n      0xdd62ed3e\n        /* \"@openzeppelin/contracts-upgradeable/token/ERC20/utils/SafeERC20Upgradeable.sol\":2283:2287  this */\n      address\n        /* \"@openzeppelin/contracts-upgradeable/token/ERC20/utils/SafeERC20Upgradeable.sol\":2290:2297  spender */\n      dup7\n        /* \"@openzeppelin/contracts-upgradeable/token/ERC20/utils/SafeERC20Upgradeable.sol\":2259:2298  token.allowance(address(this), spender) */\n      mload(0x40)\n      dup4\n      0xffffffff\n      and\n      0xe0\n      shl\n      dup2\n      mstore\n      0x04\n      add\n      tag_109\n      swap3\n      swap2\n      swap1\n      tag_110\n      jump\t// in\n    tag_109:\n      0x20\n      mload(0x40)\n      dup1\n      dup4\n      sub\n      dup2\n      dup7\n      gas\n      staticcall\n      iszero\n      dup1\n      iszero\n      tag_112\n      jumpi\n      returndatasize\n      0x00\n      dup1\n      returndatacopy\n      revert(0x00, returndatasize)\n    tag_112:\n      pop\n      pop\n      pop\n      pop\n      mload(0x40)\n      returndatasize\n      not(0x1f)\n      0x1f\n      dup3\n      add\n      and\n      dup3\n      add\n      dup1\n      0x40\n      mstore\n      pop\n      dup2\n      add\n      swap1\n      tag_113\n      swap2\n      swap1\n      tag_82\n      jump\t// in\n    tag_113:\n        /* \"@openzeppelin/contracts-upgradeable/token/ERC20/utils/SafeERC20Upgradeable.sol\":2259:2306  token.allowance(address(this), spender) + value */\n      tag_114\n      swap2\n      swap1\n      tag_115\n      jump\t// in\n    tag_114:\n        /* \"@openzeppelin/contracts-upgradeable/token/ERC20/utils/SafeERC20Upgradeable.sol\":2236:2306  uint256 newAllowance = token.allowance(address(this), spender) + value */\n      swap1\n      pop\n        /* \"@openzeppelin/contracts-upgradeable/token/ERC20/utils/SafeERC20Upgradeable.sol\":2316:2413  _callOptionalReturn(token, abi.encodeWithSelector(token.approve.selector, spender, newAllowance)) */\n      tag_116\n        /* \"@openzeppelin/contracts-upgradeable/token/ERC20/utils/SafeERC20Upgradeable.sol\":2336:2341  token */\n      dup5\n        /* \"@openzeppelin/contracts-upgradeable/token/ERC20/utils/SafeERC20Upgradeable.sol\":2366:2388  token.approve.selector */\n      shl(0xe0, 0x095ea7b3)\n        /* \"@openzeppelin/contracts-upgradeable/token/ERC20/utils/SafeERC20Upgradeable.sol\":2390:2397  spender */\n      dup6\n        /* \"@openzeppelin/contracts-upgradeable/token/ERC20/utils/SafeERC20Upgradeable.sol\":2399:2411  newAllowance */\n      dup5\n        /* \"@openzeppelin/contracts-upgradeable/token/ERC20/utils/SafeERC20Upgradeable.sol\":2343:2412  abi.encodeWithSelector(token.approve.selector, spender, newAllowance) */\n      add(0x24, mload(0x40))\n      tag_117\n      swap3\n      swap2\n      swap1\n      tag_118\n      jump\t// in\n    tag_117:\n      mload(0x40)\n      0x20\n      dup2\n      dup4\n      sub\n      sub\n      dup2\n      mstore\n      swap1\n      0x40\n      mstore\n      swap1\n      not(0xffffffffffffffffffffffffffffffffffffffffffffffffffffffff)\n      and\n      0x20\n      dup3\n      add\n      dup1\n      mload\n      0xffffffffffffffffffffffffffffffffffffffffffffffffffffffff\n      dup4\n      dup2\n      dup4\n      and\n      or\n      dup4\n      mstore\n      pop\n      pop\n      pop\n      pop\n        /* \"@openzeppelin/contracts-upgradeable/token/ERC20/utils/SafeERC20Upgradeable.sol\":2316:2335  _callOptionalReturn */\n      tag_50\n        /* \"@openzeppelin/contracts-upgradeable/token/ERC20/utils/SafeERC20Upgradeable.sol\":2316:2413  _callOptionalReturn(token, abi.encodeWithSelector(token.approve.selector, spender, newAllowance)) */\n      jump\t// in\n    tag_116:\n        /* \"@openzeppelin/contracts-upgradeable/token/ERC20/utils/SafeERC20Upgradeable.sol\":2226:2420  {... */\n      pop\n        /* \"@openzeppelin/contracts-upgradeable/token/ERC20/utils/SafeERC20Upgradeable.sol\":2099:2420  function safeIncreaseAllowance(... */\n      pop\n      pop\n      pop\n      jump\t// out\n        /* \"SuperDepositor.sol\":2807:3097  function _approveIfNeeded(address spender, address token) internal {... */\n    tag_73:\n        /* \"SuperDepositor.sol\":2885:2909  IERC20Upgradeable token_ */\n      0x00\n        /* \"SuperDepositor.sol\":2930:2935  token */\n      dup2\n        /* \"SuperDepositor.sol\":2885:2936  IERC20Upgradeable token_ = IERC20Upgradeable(token) */\n      swap1\n      pop\n        /* \"SuperDepositor.sol\":3003:3004  0 */\n      0x00\n        /* \"SuperDepositor.sol\":2951:2957  token_ */\n      dup2\n        /* \"SuperDepositor.sol\":2951:2967  token_.allowance */\n      0xffffffffffffffffffffffffffffffffffffffff\n      and\n      0xdd62ed3e\n        /* \"SuperDepositor.sol\":2976:2980  this */\n      address\n        /* \"SuperDepositor.sol\":2983:2990  spender */\n      dup7\n        /* \"SuperDepositor.sol\":2951:2991  token_.allowance(address(this), spender) */\n      mload(0x40)\n      dup4\n      0xffffffff\n      and\n      0xe0\n      shl\n      dup2\n      mstore\n      0x04\n      add\n      tag_120\n      swap3\n      swap2\n      swap1\n      tag_110\n      jump\t// in\n    tag_120:\n      0x20\n      mload(0x40)\n      dup1\n      dup4\n      sub\n      dup2\n      dup7\n      gas\n      staticcall\n      iszero\n      dup1\n      iszero\n      tag_122\n      jumpi\n      returndatasize\n      0x00\n      dup1\n      returndatacopy\n      revert(0x00, returndatasize)\n    tag_122:\n      pop\n      pop\n      pop\n      pop\n      mload(0x40)\n      returndatasize\n      not(0x1f)\n      0x1f\n      dup3\n      add\n      and\n      dup3\n      add\n      dup1\n      0x40\n      mstore\n      pop\n      dup2\n      add\n      swap1\n      tag_123\n      swap2\n      swap1\n      tag_82\n      jump\t// in\n    tag_123:\n        /* \"SuperDepositor.sol\":2951:3005  token_.allowance(address(this), spender) == uint256(0) */\n      sub\n        /* \"SuperDepositor.sol\":2947:3090  if (token_.allowance(address(this), spender) == uint256(0)) {... */\n      tag_124\n      jumpi\n        /* \"SuperDepositor.sol\":3022:3078  token_.safeIncreaseAllowance(spender, type(uint256).max) */\n      tag_125\n        /* \"SuperDepositor.sol\":3051:3058  spender */\n      dup4\n        /* \"SuperDepositor.sol\":3060:3077  type(uint256).max */\n      0xffffffffffffffffffffffffffffffffffffffffffffffffffffffffffffffff\n        /* \"SuperDepositor.sol\":3022:3028  token_ */\n      dup4\n        /* \"SuperDepositor.sol\":3022:3050  token_.safeIncreaseAllowance */\n      0xffffffffffffffffffffffffffffffffffffffff\n      and\n      tag_65\n      swap1\n        /* \"SuperDepositor.sol\":3022:3078  token_.safeIncreaseAllowance(spender, type(uint256).max) */\n      swap3\n      swap2\n      swap1\n      0xffffffff\n      and\n      jump\t// in\n    tag_125:\n        /* \"SuperDepositor.sol\":2947:3090  if (token_.allowance(address(this), spender) == uint256(0)) {... */\n    tag_124:\n        /* \"SuperDepositor.sol\":2874:3097  {... */\n      pop\n        /* \"SuperDepositor.sol\":2807:3097  function _approveIfNeeded(address spender, address token) internal {... */\n      pop\n      pop\n      jump\t// out\n        /* \"@openzeppelin/contracts-upgradeable/token/ERC20/utils/SafeERC20Upgradeable.sol\":745:961  function safeTransfer(... */\n    tag_83:\n        /* \"@openzeppelin/contracts-upgradeable/token/ERC20/utils/SafeERC20Upgradeable.sol\":868:954  _callOptionalReturn(token, abi.encodeWithSelector(token.transfer.selector, to, value)) */\n      tag_127\n        /* \"@openzeppelin/contracts-upgradeable/token/ERC20/utils/SafeERC20Upgradeable.sol\":888:893  token */\n      dup4\n        /* \"@openzeppelin/contracts-upgradeable/token/ERC20/utils/SafeERC20Upgradeable.sol\":918:941  token.transfer.selector */\n      shl(0xe0, 0xa9059cbb)\n        /* \"@openzeppelin/contracts-upgradeable/token/ERC20/utils/SafeERC20Upgradeable.sol\":943:945  to */\n      dup5\n        /* \"@openzeppelin/contracts-upgradeable/token/ERC20/utils/SafeERC20Upgradeable.sol\":947:952  value */\n      dup5\n        /* \"@openzeppelin/contracts-upgradeable/token/ERC20/utils/SafeERC20Upgradeable.sol\":895:953  abi.encodeWithSelector(token.transfer.selector, to, value) */\n      add(0x24, mload(0x40))\n      tag_128\n      swap3\n      swap2\n      swap1\n      tag_118\n      jump\t// in\n    tag_128:\n      mload(0x40)\n      0x20\n      dup2\n      dup4\n      sub\n      sub\n      dup2\n      mstore\n      swap1\n      0x40\n      mstore\n      swap1\n      not(0xffffffffffffffffffffffffffffffffffffffffffffffffffffffff)\n      and\n      0x20\n      dup3\n      add\n      dup1\n      mload\n      0xffffffffffffffffffffffffffffffffffffffffffffffffffffffff\n      dup4\n      dup2\n      dup4\n      and\n      or\n      dup4\n      mstore\n      pop\n      pop\n      pop\n      pop\n        /* \"@openzeppelin/contracts-upgradeable/token/ERC20/utils/SafeERC20Upgradeable.sol\":868:887  _callOptionalReturn */\n      tag_50\n        /* \"@openzeppelin/contracts-upgradeable/token/ERC20/utils/SafeERC20Upgradeable.sol\":868:954  _callOptionalReturn(token, abi.encodeWithSelector(token.transfer.selector, to, value)) */\n      jump\t// in\n    tag_127:\n        /* \"@openzeppelin/contracts-upgradeable/token/ERC20/utils/SafeERC20Upgradeable.sol\":745:961  function safeTransfer(... */\n      pop\n      pop\n      pop\n      jump\t// out\n        /* \"@openzeppelin/contracts-upgradeable/utils/AddressUpgradeable.sol\":3872:4095  function functionCall(... */\n    tag_101:\n        /* \"@openzeppelin/contracts-upgradeable/utils/AddressUpgradeable.sol\":4005:4017  bytes memory */\n      0x60\n        /* \"@openzeppelin/contracts-upgradeable/utils/AddressUpgradeable.sol\":4036:4088  functionCallWithValue(target, data, 0, errorMessage) */\n      tag_130\n        /* \"@openzeppelin/contracts-upgradeable/utils/AddressUpgradeable.sol\":4058:4064  target */\n      dup5\n        /* \"@openzeppelin/contracts-upgradeable/utils/AddressUpgradeable.sol\":4066:4070  data */\n      dup5\n        /* \"@openzeppelin/contracts-upgradeable/utils/AddressUpgradeable.sol\":4072:4073  0 */\n      0x00\n        /* \"@openzeppelin/contracts-upgradeable/utils/AddressUpgradeable.sol\":4075:4087  errorMessage */\n      dup6\n        /* \"@openzeppelin/contracts-upgradeable/utils/AddressUpgradeable.sol\":4036:4057  functionCallWithValue */\n      tag_131\n        /* \"@openzeppelin/contracts-upgradeable/utils/AddressUpgradeable.sol\":4036:4088  functionCallWithValue(target, data, 0, errorMessage) */\n      jump\t// in\n    tag_130:\n        /* \"@openzeppelin/contracts-upgradeable/utils/AddressUpgradeable.sol\":4029:4088  return functionCallWithValue(target, data, 0, errorMessage) */\n      swap1\n      pop\n        /* \"@openzeppelin/contracts-upgradeable/utils/AddressUpgradeable.sol\":3872:4095  function functionCall(... */\n      swap4\n      swap3\n      pop\n      pop\n      pop\n      jump\t// out\n        /* \"@openzeppelin/contracts-upgradeable/utils/AddressUpgradeable.sol\":4959:5458  function functionCallWithValue(... */\n    tag_131:\n        /* \"@openzeppelin/contracts-upgradeable/utils/AddressUpgradeable.sol\":5124:5136  bytes memory */\n      0x60\n        /* \"@openzeppelin/contracts-upgradeable/utils/AddressUpgradeable.sol\":5181:5186  value */\n      dup3\n        /* \"@openzeppelin/contracts-upgradeable/utils/AddressUpgradeable.sol\":5156:5177  address(this).balance */\n      selfbalance\n        /* \"@openzeppelin/contracts-upgradeable/utils/AddressUpgradeable.sol\":5156:5186  address(this).balance >= value */\n      lt\n      iszero\n        /* \"@openzeppelin/contracts-upgradeable/utils/AddressUpgradeable.sol\":5148:5229  require(address(this).balance >= value, \"Address: insufficient balance for call\") */\n      tag_133\n      jumpi\n      mload(0x40)\n      0x08c379a000000000000000000000000000000000000000000000000000000000\n      dup2\n      mstore\n      0x04\n      add\n      tag_134\n      swap1\n      tag_135\n      jump\t// in\n    tag_134:\n      mload(0x40)\n      dup1\n      swap2\n      sub\n      swap1\n      revert\n    tag_133:\n        /* \"@openzeppelin/contracts-upgradeable/utils/AddressUpgradeable.sol\":5247:5265  isContract(target) */\n      tag_136\n        /* \"@openzeppelin/contracts-upgradeable/utils/AddressUpgradeable.sol\":5258:5264  target */\n      dup6\n        /* \"@openzeppelin/contracts-upgradeable/utils/AddressUpgradeable.sol\":5247:5257  isContract */\n      tag_137\n        /* \"@openzeppelin/contracts-upgradeable/utils/AddressUpgradeable.sol\":5247:5265  isContract(target) */\n      jump\t// in\n    tag_136:\n        /* \"@openzeppelin/contracts-upgradeable/utils/AddressUpgradeable.sol\":5239:5299  require(isContract(target), \"Address: call to non-contract\") */\n      tag_138\n      jumpi\n      mload(0x40)\n      0x08c379a000000000000000000000000000000000000000000000000000000000\n      dup2\n      mstore\n      0x04\n      add\n      tag_139\n      swap1\n      tag_140\n      jump\t// in\n    tag_139:\n      mload(0x40)\n      dup1\n      swap2\n      sub\n      swap1\n      revert\n    tag_138:\n        /* \"@openzeppelin/contracts-upgradeable/utils/AddressUpgradeable.sol\":5311:5323  bool success */\n      0x00\n        /* \"@openzeppelin/contracts-upgradeable/utils/AddressUpgradeable.sol\":5325:5348  bytes memory returndata */\n      dup1\n        /* \"@openzeppelin/contracts-upgradeable/utils/AddressUpgradeable.sol\":5352:5358  target */\n      dup7\n        /* \"@openzeppelin/contracts-upgradeable/utils/AddressUpgradeable.sol\":5352:5363  target.call */\n      0xffffffffffffffffffffffffffffffffffffffff\n      and\n        /* \"@openzeppelin/contracts-upgradeable/utils/AddressUpgradeable.sol\":5371:5376  value */\n      dup6\n        /* \"@openzeppelin/contracts-upgradeable/utils/AddressUpgradeable.sol\":5378:5382  data */\n      dup8\n        /* \"@openzeppelin/contracts-upgradeable/utils/AddressUpgradeable.sol\":5352:5383  target.call{value: value}(data) */\n      mload(0x40)\n      tag_141\n      swap2\n      swap1\n      tag_142\n      jump\t// in\n    tag_141:\n      0x00\n      mload(0x40)\n      dup1\n      dup4\n      sub\n      dup2\n      dup6\n      dup8\n      gas\n      call\n      swap3\n      pop\n      pop\n      pop\n      returndatasize\n      dup1\n      0x00\n      dup2\n      eq\n      tag_145\n      jumpi\n      mload(0x40)\n      swap2\n      pop\n      and(add(returndatasize, 0x3f), not(0x1f))\n      dup3\n      add\n      0x40\n      mstore\n      returndatasize\n      dup3\n      mstore\n      returndatasize\n      0x00\n      0x20\n      dup5\n      add\n      returndatacopy\n      jump(tag_144)\n    tag_145:\n      0x60\n      swap2\n      pop\n    tag_144:\n      pop\n        /* \"@openzeppelin/contracts-upgradeable/utils/AddressUpgradeable.sol\":5310:5383  (bool success, bytes memory returndata) = target.call{value: value}(data) */\n      swap2\n      pop\n      swap2\n      pop\n        /* \"@openzeppelin/contracts-upgradeable/utils/AddressUpgradeable.sol\":5400:5451  verifyCallResult(success, returndata, errorMessage) */\n      tag_146\n        /* \"@openzeppelin/contracts-upgradeable/utils/AddressUpgradeable.sol\":5417:5424  success */\n      dup3\n        /* \"@openzeppelin/contracts-upgradeable/utils/AddressUpgradeable.sol\":5426:5436  returndata */\n      dup3\n        /* \"@openzeppelin/contracts-upgradeable/utils/AddressUpgradeable.sol\":5438:5450  errorMessage */\n      dup7\n        /* \"@openzeppelin/contracts-upgradeable/utils/AddressUpgradeable.sol\":5400:5416  verifyCallResult */\n      tag_147\n        /* \"@openzeppelin/contracts-upgradeable/utils/AddressUpgradeable.sol\":5400:5451  verifyCallResult(success, returndata, errorMessage) */\n      jump\t// in\n    tag_146:\n        /* \"@openzeppelin/contracts-upgradeable/utils/AddressUpgradeable.sol\":5393:5451  return verifyCallResult(success, returndata, errorMessage) */\n      swap3\n      pop\n      pop\n      pop\n        /* \"@openzeppelin/contracts-upgradeable/utils/AddressUpgradeable.sol\":4959:5458  function functionCallWithValue(... */\n      swap5\n      swap4\n      pop\n      pop\n      pop\n      pop\n      jump\t// out\n        /* \"@openzeppelin/contracts-upgradeable/utils/AddressUpgradeable.sol\":1186:1506  function isContract(address account) internal view returns (bool) {... */\n    tag_137:\n        /* \"@openzeppelin/contracts-upgradeable/utils/AddressUpgradeable.sol\":1246:1250  bool */\n      0x00\n        /* \"@openzeppelin/contracts-upgradeable/utils/AddressUpgradeable.sol\":1498:1499  0 */\n      dup1\n        /* \"@openzeppelin/contracts-upgradeable/utils/AddressUpgradeable.sol\":1476:1483  account */\n      dup3\n        /* \"@openzeppelin/contracts-upgradeable/utils/AddressUpgradeable.sol\":1476:1495  account.code.length */\n      0xffffffffffffffffffffffffffffffffffffffff\n      and\n      extcodesize\n        /* \"@openzeppelin/contracts-upgradeable/utils/AddressUpgradeable.sol\":1476:1499  account.code.length > 0 */\n      gt\n        /* \"@openzeppelin/contracts-upgradeable/utils/AddressUpgradeable.sol\":1469:1499  return account.code.length > 0 */\n      swap1\n      pop\n        /* \"@openzeppelin/contracts-upgradeable/utils/AddressUpgradeable.sol\":1186:1506  function isContract(address account) internal view returns (bool) {... */\n      swap2\n      swap1\n      pop\n      jump\t// out\n        /* \"@openzeppelin/contracts-upgradeable/utils/AddressUpgradeable.sol\":6622:7314  function verifyCallResult(... */\n    tag_147:\n        /* \"@openzeppelin/contracts-upgradeable/utils/AddressUpgradeable.sol\":6768:6780  bytes memory */\n      0x60\n        /* \"@openzeppelin/contracts-upgradeable/utils/AddressUpgradeable.sol\":6796:6803  success */\n      dup4\n        /* \"@openzeppelin/contracts-upgradeable/utils/AddressUpgradeable.sol\":6792:7308  if (success) {... */\n      iszero\n      tag_150\n      jumpi\n        /* \"@openzeppelin/contracts-upgradeable/utils/AddressUpgradeable.sol\":6826:6836  returndata */\n      dup3\n        /* \"@openzeppelin/contracts-upgradeable/utils/AddressUpgradeable.sol\":6819:6836  return returndata */\n      swap1\n      pop\n      jump(tag_149)\n        /* \"@openzeppelin/contracts-upgradeable/utils/AddressUpgradeable.sol\":6792:7308  if (success) {... */\n    tag_150:\n        /* \"@openzeppelin/contracts-upgradeable/utils/AddressUpgradeable.sol\":6957:6958  0 */\n      0x00\n        /* \"@openzeppelin/contracts-upgradeable/utils/AddressUpgradeable.sol\":6937:6947  returndata */\n      dup4\n        /* \"@openzeppelin/contracts-upgradeable/utils/AddressUpgradeable.sol\":6937:6954  returndata.length */\n      mload\n        /* \"@openzeppelin/contracts-upgradeable/utils/AddressUpgradeable.sol\":6937:6958  returndata.length > 0 */\n      gt\n        /* \"@openzeppelin/contracts-upgradeable/utils/AddressUpgradeable.sol\":6933:7298  if (returndata.length > 0) {... */\n      iszero\n      tag_152\n      jumpi\n        /* \"@openzeppelin/contracts-upgradeable/utils/AddressUpgradeable.sol\":7131:7141  returndata */\n      dup3\n        /* \"@openzeppelin/contracts-upgradeable/utils/AddressUpgradeable.sol\":7125:7142  mload(returndata) */\n      mload\n        /* \"@openzeppelin/contracts-upgradeable/utils/AddressUpgradeable.sol\":7191:7206  returndata_size */\n      dup1\n        /* \"@openzeppelin/contracts-upgradeable/utils/AddressUpgradeable.sol\":7178:7188  returndata */\n      dup5\n        /* \"@openzeppelin/contracts-upgradeable/utils/AddressUpgradeable.sol\":7174:7176  32 */\n      0x20\n        /* \"@openzeppelin/contracts-upgradeable/utils/AddressUpgradeable.sol\":7170:7189  add(32, returndata) */\n      add\n        /* \"@openzeppelin/contracts-upgradeable/utils/AddressUpgradeable.sol\":7163:7207  revert(add(32, returndata), returndata_size) */\n      revert\n        /* \"@openzeppelin/contracts-upgradeable/utils/AddressUpgradeable.sol\":6933:7298  if (returndata.length > 0) {... */\n    tag_152:\n        /* \"@openzeppelin/contracts-upgradeable/utils/AddressUpgradeable.sol\":7270:7282  errorMessage */\n      dup2\n        /* \"@openzeppelin/contracts-upgradeable/utils/AddressUpgradeable.sol\":7263:7283  revert(errorMessage) */\n      mload(0x40)\n      0x08c379a000000000000000000000000000000000000000000000000000000000\n      dup2\n      mstore\n      0x04\n      add\n      tag_154\n      swap2\n      swap1\n      tag_155\n      jump\t// in\n    tag_154:\n      mload(0x40)\n      dup1\n      swap2\n      sub\n      swap1\n      revert\n        /* \"@openzeppelin/contracts-upgradeable/utils/AddressUpgradeable.sol\":6622:7314  function verifyCallResult(... */\n    tag_149:\n      swap4\n      swap3\n      pop\n      pop\n      pop\n      jump\t// out\n    tag_61:\n      mload(0x40)\n      dup1\n      0x80\n      add\n      0x40\n      mstore\n      dup1\n      0x60\n      dup2\n      mstore\n      0x20\n      add\n      0x60\n      dup2\n      mstore\n      0x20\n      add\n      0x60\n      dup2\n      mstore\n      0x20\n      add\n      iszero(iszero(0x00))\n      dup2\n      mstore\n      pop\n      swap1\n      jump\t// out\n    tag_93:\n      mload(0x40)\n      dup1\n      0x80\n      add\n      0x40\n      mstore\n      dup1\n      0x60\n      dup2\n      mstore\n      0x20\n      add\n      0x60\n      dup2\n      mstore\n      0x20\n      add\n      0x60\n      dup2\n      mstore\n      0x20\n      add\n      iszero(iszero(0x00))\n      dup2\n      mstore\n      pop\n      swap1\n      jump\t// out\n        /* \"#utility.yul\":7:133   */\n    tag_156:\n        /* \"#utility.yul\":44:51   */\n      0x00\n        /* \"#utility.yul\":84:126   */\n      0xffffffffffffffffffffffffffffffffffffffff\n        /* \"#utility.yul\":77:82   */\n      dup3\n        /* \"#utility.yul\":73:127   */\n      and\n        /* \"#utility.yul\":62:127   */\n      swap1\n      pop\n        /* \"#utility.yul\":7:133   */\n      swap2\n      swap1\n      pop\n      jump\t// out\n        /* \"#utility.yul\":139:235   */\n    tag_157:\n        /* \"#utility.yul\":176:183   */\n      0x00\n        /* \"#utility.yul\":205:229   */\n      tag_239\n        /* \"#utility.yul\":223:228   */\n      dup3\n        /* \"#utility.yul\":205:229   */\n      tag_156\n      jump\t// in\n    tag_239:\n        /* \"#utility.yul\":194:229   */\n      swap1\n      pop\n        /* \"#utility.yul\":139:235   */\n      swap2\n      swap1\n      pop\n      jump\t// out\n        /* \"#utility.yul\":241:359   */\n    tag_158:\n        /* \"#utility.yul\":328:352   */\n      tag_241\n        /* \"#utility.yul\":346:351   */\n      dup2\n        /* \"#utility.yul\":328:352   */\n      tag_157\n      jump\t// in\n    tag_241:\n        /* \"#utility.yul\":323:326   */\n      dup3\n        /* \"#utility.yul\":316:353   */\n      mstore\n        /* \"#utility.yul\":241:359   */\n      pop\n      pop\n      jump\t// out\n        /* \"#utility.yul\":365:587   */\n    tag_10:\n        /* \"#utility.yul\":458:462   */\n      0x00\n        /* \"#utility.yul\":496:498   */\n      0x20\n        /* \"#utility.yul\":485:494   */\n      dup3\n        /* \"#utility.yul\":481:499   */\n      add\n        /* \"#utility.yul\":473:499   */\n      swap1\n      pop\n        /* \"#utility.yul\":509:580   */\n      tag_243\n        /* \"#utility.yul\":577:578   */\n      0x00\n        /* \"#utility.yul\":566:575   */\n      dup4\n        /* \"#utility.yul\":562:579   */\n      add\n        /* \"#utility.yul\":553:559   */\n      dup5\n        /* \"#utility.yul\":509:580   */\n      tag_158\n      jump\t// in\n    tag_243:\n        /* \"#utility.yul\":365:587   */\n      swap3\n      swap2\n      pop\n      pop\n      jump\t// out\n        /* \"#utility.yul\":593:668   */\n    tag_159:\n        /* \"#utility.yul\":626:632   */\n      0x00\n        /* \"#utility.yul\":659:661   */\n      0x40\n        /* \"#utility.yul\":653:662   */\n      mload\n        /* \"#utility.yul\":643:662   */\n      swap1\n      pop\n        /* \"#utility.yul\":593:668   */\n      swap1\n      jump\t// out\n        /* \"#utility.yul\":674:791   */\n    tag_160:\n        /* \"#utility.yul\":783:784   */\n      0x00\n        /* \"#utility.yul\":780:781   */\n      dup1\n        /* \"#utility.yul\":773:785   */\n      revert\n        /* \"#utility.yul\":797:914   */\n    tag_161:\n        /* \"#utility.yul\":906:907   */\n      0x00\n        /* \"#utility.yul\":903:904   */\n      dup1\n        /* \"#utility.yul\":896:908   */\n      revert\n        /* \"#utility.yul\":920:1042   */\n    tag_162:\n        /* \"#utility.yul\":993:1017   */\n      tag_248\n        /* \"#utility.yul\":1011:1016   */\n      dup2\n        /* \"#utility.yul\":993:1017   */\n      tag_157\n      jump\t// in\n    tag_248:\n        /* \"#utility.yul\":986:991   */\n      dup2\n        /* \"#utility.yul\":983:1018   */\n      eq\n        /* \"#utility.yul\":973:1036   */\n      tag_249\n      jumpi\n        /* \"#utility.yul\":1032:1033   */\n      0x00\n        /* \"#utility.yul\":1029:1030   */\n      dup1\n        /* \"#utility.yul\":1022:1034   */\n      revert\n        /* \"#utility.yul\":973:1036   */\n    tag_249:\n        /* \"#utility.yul\":920:1042   */\n      pop\n      jump\t// out\n        /* \"#utility.yul\":1048:1187   */\n    tag_163:\n        /* \"#utility.yul\":1094:1099   */\n      0x00\n        /* \"#utility.yul\":1132:1138   */\n      dup2\n        /* \"#utility.yul\":1119:1139   */\n      calldataload\n        /* \"#utility.yul\":1110:1139   */\n      swap1\n      pop\n        /* \"#utility.yul\":1148:1181   */\n      tag_251\n        /* \"#utility.yul\":1175:1180   */\n      dup2\n        /* \"#utility.yul\":1148:1181   */\n      tag_162\n      jump\t// in\n    tag_251:\n        /* \"#utility.yul\":1048:1187   */\n      swap3\n      swap2\n      pop\n      pop\n      jump\t// out\n        /* \"#utility.yul\":1193:1310   */\n    tag_164:\n        /* \"#utility.yul\":1302:1303   */\n      0x00\n        /* \"#utility.yul\":1299:1300   */\n      dup1\n        /* \"#utility.yul\":1292:1304   */\n      revert\n        /* \"#utility.yul\":1316:1418   */\n    tag_165:\n        /* \"#utility.yul\":1357:1363   */\n      0x00\n        /* \"#utility.yul\":1408:1410   */\n      0x1f\n        /* \"#utility.yul\":1404:1411   */\n      not\n        /* \"#utility.yul\":1399:1401   */\n      0x1f\n        /* \"#utility.yul\":1392:1397   */\n      dup4\n        /* \"#utility.yul\":1388:1402   */\n      add\n        /* \"#utility.yul\":1384:1412   */\n      and\n        /* \"#utility.yul\":1374:1412   */\n      swap1\n      pop\n        /* \"#utility.yul\":1316:1418   */\n      swap2\n      swap1\n      pop\n      jump\t// out\n        /* \"#utility.yul\":1424:1604   */\n    tag_54:\n        /* \"#utility.yul\":1472:1549   */\n      0x4e487b7100000000000000000000000000000000000000000000000000000000\n        /* \"#utility.yul\":1469:1470   */\n      0x00\n        /* \"#utility.yul\":1462:1550   */\n      mstore\n        /* \"#utility.yul\":1569:1573   */\n      0x41\n        /* \"#utility.yul\":1566:1567   */\n      0x04\n        /* \"#utility.yul\":1559:1574   */\n      mstore\n        /* \"#utility.yul\":1593:1597   */\n      0x24\n        /* \"#utility.yul\":1590:1591   */\n      0x00\n        /* \"#utility.yul\":1583:1598   */\n      revert\n        /* \"#utility.yul\":1610:1891   */\n    tag_166:\n        /* \"#utility.yul\":1693:1720   */\n      tag_256\n        /* \"#utility.yul\":1715:1719   */\n      dup3\n        /* \"#utility.yul\":1693:1720   */\n      tag_165\n      jump\t// in\n    tag_256:\n        /* \"#utility.yul\":1685:1691   */\n      dup2\n        /* \"#utility.yul\":1681:1721   */\n      add\n        /* \"#utility.yul\":1823:1829   */\n      dup2\n        /* \"#utility.yul\":1811:1821   */\n      dup2\n        /* \"#utility.yul\":1808:1830   */\n      lt\n        /* \"#utility.yul\":1787:1805   */\n      0xffffffffffffffff\n        /* \"#utility.yul\":1775:1785   */\n      dup3\n        /* \"#utility.yul\":1772:1806   */\n      gt\n        /* \"#utility.yul\":1769:1831   */\n      or\n        /* \"#utility.yul\":1766:1854   */\n      iszero\n      tag_257\n      jumpi\n        /* \"#utility.yul\":1834:1852   */\n      tag_258\n      tag_54\n      jump\t// in\n    tag_258:\n        /* \"#utility.yul\":1766:1854   */\n    tag_257:\n        /* \"#utility.yul\":1874:1884   */\n      dup1\n        /* \"#utility.yul\":1870:1872   */\n      0x40\n        /* \"#utility.yul\":1863:1885   */\n      mstore\n        /* \"#utility.yul\":1653:1891   */\n      pop\n        /* \"#utility.yul\":1610:1891   */\n      pop\n      pop\n      jump\t// out\n        /* \"#utility.yul\":1897:2026   */\n    tag_167:\n        /* \"#utility.yul\":1931:1937   */\n      0x00\n        /* \"#utility.yul\":1958:1978   */\n      tag_260\n      tag_159\n      jump\t// in\n    tag_260:\n        /* \"#utility.yul\":1948:1978   */\n      swap1\n      pop\n        /* \"#utility.yul\":1987:2020   */\n      tag_261\n        /* \"#utility.yul\":2015:2019   */\n      dup3\n        /* \"#utility.yul\":2007:2013   */\n      dup3\n        /* \"#utility.yul\":1987:2020   */\n      tag_166\n      jump\t// in\n    tag_261:\n        /* \"#utility.yul\":1897:2026   */\n      swap2\n      swap1\n      pop\n      jump\t// out\n        /* \"#utility.yul\":2032:2149   */\n    tag_168:\n        /* \"#utility.yul\":2141:2142   */\n      0x00\n        /* \"#utility.yul\":2138:2139   */\n      dup1\n        /* \"#utility.yul\":2131:2143   */\n      revert\n        /* \"#utility.yul\":2155:2272   */\n    tag_169:\n        /* \"#utility.yul\":2264:2265   */\n      0x00\n        /* \"#utility.yul\":2261:2262   */\n      dup1\n        /* \"#utility.yul\":2254:2266   */\n      revert\n        /* \"#utility.yul\":2278:2604   */\n    tag_170:\n        /* \"#utility.yul\":2370:2374   */\n      0x00\n        /* \"#utility.yul\":2460:2478   */\n      0xffffffffffffffff\n        /* \"#utility.yul\":2452:2458   */\n      dup3\n        /* \"#utility.yul\":2449:2479   */\n      gt\n        /* \"#utility.yul\":2446:2502   */\n      iszero\n      tag_265\n      jumpi\n        /* \"#utility.yul\":2482:2500   */\n      tag_266\n      tag_54\n      jump\t// in\n    tag_266:\n        /* \"#utility.yul\":2446:2502   */\n    tag_265:\n        /* \"#utility.yul\":2532:2536   */\n      0x20\n        /* \"#utility.yul\":2524:2530   */\n      dup3\n        /* \"#utility.yul\":2520:2537   */\n      mul\n        /* \"#utility.yul\":2512:2537   */\n      swap1\n      pop\n        /* \"#utility.yul\":2592:2596   */\n      0x20\n        /* \"#utility.yul\":2586:2590   */\n      dup2\n        /* \"#utility.yul\":2582:2597   */\n      add\n        /* \"#utility.yul\":2574:2597   */\n      swap1\n      pop\n        /* \"#utility.yul\":2278:2604   */\n      swap2\n      swap1\n      pop\n      jump\t// out\n        /* \"#utility.yul\":2610:2727   */\n    tag_171:\n        /* \"#utility.yul\":2719:2720   */\n      0x00\n        /* \"#utility.yul\":2716:2717   */\n      dup1\n        /* \"#utility.yul\":2709:2721   */\n      revert\n        /* \"#utility.yul\":2733:2844   */\n    tag_172:\n        /* \"#utility.yul\":2785:2792   */\n      0x00\n        /* \"#utility.yul\":2814:2838   */\n      tag_269\n        /* \"#utility.yul\":2832:2837   */\n      dup3\n        /* \"#utility.yul\":2814:2838   */\n      tag_157\n      jump\t// in\n    tag_269:\n        /* \"#utility.yul\":2803:2838   */\n      swap1\n      pop\n        /* \"#utility.yul\":2733:2844   */\n      swap2\n      swap1\n      pop\n      jump\t// out\n        /* \"#utility.yul\":2850:3002   */\n    tag_173:\n        /* \"#utility.yul\":2938:2977   */\n      tag_271\n        /* \"#utility.yul\":2971:2976   */\n      dup2\n        /* \"#utility.yul\":2938:2977   */\n      tag_172\n      jump\t// in\n    tag_271:\n        /* \"#utility.yul\":2931:2936   */\n      dup2\n        /* \"#utility.yul\":2928:2978   */\n      eq\n        /* \"#utility.yul\":2918:2996   */\n      tag_272\n      jumpi\n        /* \"#utility.yul\":2992:2993   */\n      0x00\n        /* \"#utility.yul\":2989:2990   */\n      dup1\n        /* \"#utility.yul\":2982:2994   */\n      revert\n        /* \"#utility.yul\":2918:2996   */\n    tag_272:\n        /* \"#utility.yul\":2850:3002   */\n      pop\n      jump\t// out\n        /* \"#utility.yul\":3008:3177   */\n    tag_174:\n        /* \"#utility.yul\":3069:3074   */\n      0x00\n        /* \"#utility.yul\":3107:3113   */\n      dup2\n        /* \"#utility.yul\":3094:3114   */\n      calldataload\n        /* \"#utility.yul\":3085:3114   */\n      swap1\n      pop\n        /* \"#utility.yul\":3123:3171   */\n      tag_274\n        /* \"#utility.yul\":3165:3170   */\n      dup2\n        /* \"#utility.yul\":3123:3171   */\n      tag_173\n      jump\t// in\n    tag_274:\n        /* \"#utility.yul\":3008:3177   */\n      swap3\n      swap2\n      pop\n      pop\n      jump\t// out\n        /* \"#utility.yul\":3208:3963   */\n    tag_175:\n        /* \"#utility.yul\":3319:3324   */\n      0x00\n        /* \"#utility.yul\":3344:3440   */\n      tag_276\n        /* \"#utility.yul\":3360:3439   */\n      tag_277\n        /* \"#utility.yul\":3432:3438   */\n      dup5\n        /* \"#utility.yul\":3360:3439   */\n      tag_170\n      jump\t// in\n    tag_277:\n        /* \"#utility.yul\":3344:3440   */\n      tag_167\n      jump\t// in\n    tag_276:\n        /* \"#utility.yul\":3335:3440   */\n      swap1\n      pop\n        /* \"#utility.yul\":3460:3465   */\n      dup1\n        /* \"#utility.yul\":3489:3495   */\n      dup4\n        /* \"#utility.yul\":3482:3487   */\n      dup3\n        /* \"#utility.yul\":3475:3496   */\n      mstore\n        /* \"#utility.yul\":3523:3527   */\n      0x20\n        /* \"#utility.yul\":3516:3521   */\n      dup3\n        /* \"#utility.yul\":3512:3528   */\n      add\n        /* \"#utility.yul\":3505:3528   */\n      swap1\n      pop\n        /* \"#utility.yul\":3576:3580   */\n      0x20\n        /* \"#utility.yul\":3568:3574   */\n      dup5\n        /* \"#utility.yul\":3564:3581   */\n      mul\n        /* \"#utility.yul\":3556:3562   */\n      dup4\n        /* \"#utility.yul\":3552:3582   */\n      add\n        /* \"#utility.yul\":3605:3608   */\n      dup6\n        /* \"#utility.yul\":3597:3603   */\n      dup2\n        /* \"#utility.yul\":3594:3609   */\n      gt\n        /* \"#utility.yul\":3591:3713   */\n      iszero\n      tag_278\n      jumpi\n        /* \"#utility.yul\":3624:3703   */\n      tag_279\n      tag_171\n      jump\t// in\n    tag_279:\n        /* \"#utility.yul\":3591:3713   */\n    tag_278:\n        /* \"#utility.yul\":3739:3745   */\n      dup4\n        /* \"#utility.yul\":3722:3957   */\n    tag_280:\n        /* \"#utility.yul\":3756:3762   */\n      dup2\n        /* \"#utility.yul\":3751:3754   */\n      dup2\n        /* \"#utility.yul\":3748:3763   */\n      lt\n        /* \"#utility.yul\":3722:3957   */\n      iszero\n      tag_282\n      jumpi\n        /* \"#utility.yul\":3831:3834   */\n      dup1\n        /* \"#utility.yul\":3860:3912   */\n      tag_283\n        /* \"#utility.yul\":3908:3911   */\n      dup9\n        /* \"#utility.yul\":3896:3906   */\n      dup3\n        /* \"#utility.yul\":3860:3912   */\n      tag_174\n      jump\t// in\n    tag_283:\n        /* \"#utility.yul\":3855:3858   */\n      dup5\n        /* \"#utility.yul\":3848:3913   */\n      mstore\n        /* \"#utility.yul\":3942:3946   */\n      0x20\n        /* \"#utility.yul\":3937:3940   */\n      dup5\n        /* \"#utility.yul\":3933:3947   */\n      add\n        /* \"#utility.yul\":3926:3947   */\n      swap4\n      pop\n        /* \"#utility.yul\":3798:3957   */\n      pop\n        /* \"#utility.yul\":3782:3786   */\n      0x20\n        /* \"#utility.yul\":3777:3780   */\n      dup2\n        /* \"#utility.yul\":3773:3787   */\n      add\n        /* \"#utility.yul\":3766:3787   */\n      swap1\n      pop\n        /* \"#utility.yul\":3722:3957   */\n      jump(tag_280)\n    tag_282:\n        /* \"#utility.yul\":3726:3747   */\n      pop\n        /* \"#utility.yul\":3325:3963   */\n      pop\n      pop\n        /* \"#utility.yul\":3208:3963   */\n      swap4\n      swap3\n      pop\n      pop\n      pop\n      jump\t// out\n        /* \"#utility.yul\":3994:4394   */\n    tag_176:\n        /* \"#utility.yul\":4080:4085   */\n      0x00\n        /* \"#utility.yul\":4129:4132   */\n      dup3\n        /* \"#utility.yul\":4122:4126   */\n      0x1f\n        /* \"#utility.yul\":4114:4120   */\n      dup4\n        /* \"#utility.yul\":4110:4127   */\n      add\n        /* \"#utility.yul\":4106:4133   */\n      slt\n        /* \"#utility.yul\":4096:4218   */\n      tag_285\n      jumpi\n        /* \"#utility.yul\":4137:4216   */\n      tag_286\n      tag_169\n      jump\t// in\n    tag_286:\n        /* \"#utility.yul\":4096:4218   */\n    tag_285:\n        /* \"#utility.yul\":4254:4260   */\n      dup2\n        /* \"#utility.yul\":4241:4261   */\n      calldataload\n        /* \"#utility.yul\":4279:4388   */\n      tag_287\n        /* \"#utility.yul\":4384:4387   */\n      dup5\n        /* \"#utility.yul\":4376:4382   */\n      dup3\n        /* \"#utility.yul\":4369:4373   */\n      0x20\n        /* \"#utility.yul\":4361:4367   */\n      dup7\n        /* \"#utility.yul\":4357:4374   */\n      add\n        /* \"#utility.yul\":4279:4388   */\n      tag_175\n      jump\t// in\n    tag_287:\n        /* \"#utility.yul\":4270:4388   */\n      swap2\n      pop\n        /* \"#utility.yul\":4086:4394   */\n      pop\n        /* \"#utility.yul\":3994:4394   */\n      swap3\n      swap2\n      pop\n      pop\n      jump\t// out\n        /* \"#utility.yul\":4400:4477   */\n    tag_177:\n        /* \"#utility.yul\":4437:4444   */\n      0x00\n        /* \"#utility.yul\":4466:4471   */\n      dup2\n        /* \"#utility.yul\":4455:4471   */\n      swap1\n      pop\n        /* \"#utility.yul\":4400:4477   */\n      swap2\n      swap1\n      pop\n      jump\t// out\n        /* \"#utility.yul\":4483:4605   */\n    tag_178:\n        /* \"#utility.yul\":4556:4580   */\n      tag_290\n        /* \"#utility.yul\":4574:4579   */\n      dup2\n        /* \"#utility.yul\":4556:4580   */\n      tag_177\n      jump\t// in\n    tag_290:\n        /* \"#utility.yul\":4549:4554   */\n      dup2\n        /* \"#utility.yul\":4546:4581   */\n      eq\n        /* \"#utility.yul\":4536:4599   */\n      tag_291\n      jumpi\n        /* \"#utility.yul\":4595:4596   */\n      0x00\n        /* \"#utility.yul\":4592:4593   */\n      dup1\n        /* \"#utility.yul\":4585:4597   */\n      revert\n        /* \"#utility.yul\":4536:4599   */\n    tag_291:\n        /* \"#utility.yul\":4483:4605   */\n      pop\n      jump\t// out\n        /* \"#utility.yul\":4611:4750   */\n    tag_179:\n        /* \"#utility.yul\":4657:4662   */\n      0x00\n        /* \"#utility.yul\":4695:4701   */\n      dup2\n        /* \"#utility.yul\":4682:4702   */\n      calldataload\n        /* \"#utility.yul\":4673:4702   */\n      swap1\n      pop\n        /* \"#utility.yul\":4711:4744   */\n      tag_293\n        /* \"#utility.yul\":4738:4743   */\n      dup2\n        /* \"#utility.yul\":4711:4744   */\n      tag_178\n      jump\t// in\n    tag_293:\n        /* \"#utility.yul\":4611:4750   */\n      swap3\n      swap2\n      pop\n      pop\n      jump\t// out\n        /* \"#utility.yul\":4756:4833   */\n    tag_180:\n        /* \"#utility.yul\":4793:4800   */\n      0x00\n        /* \"#utility.yul\":4822:4827   */\n      dup2\n        /* \"#utility.yul\":4811:4827   */\n      swap1\n      pop\n        /* \"#utility.yul\":4756:4833   */\n      swap2\n      swap1\n      pop\n      jump\t// out\n        /* \"#utility.yul\":4839:4961   */\n    tag_181:\n        /* \"#utility.yul\":4912:4936   */\n      tag_296\n        /* \"#utility.yul\":4930:4935   */\n      dup2\n        /* \"#utility.yul\":4912:4936   */\n      tag_180\n      jump\t// in\n    tag_296:\n        /* \"#utility.yul\":4905:4910   */\n      dup2\n        /* \"#utility.yul\":4902:4937   */\n      eq\n        /* \"#utility.yul\":4892:4955   */\n      tag_297\n      jumpi\n        /* \"#utility.yul\":4951:4952   */\n      0x00\n        /* \"#utility.yul\":4948:4949   */\n      dup1\n        /* \"#utility.yul\":4941:4953   */\n      revert\n        /* \"#utility.yul\":4892:4955   */\n    tag_297:\n        /* \"#utility.yul\":4839:4961   */\n      pop\n      jump\t// out\n        /* \"#utility.yul\":4967:5106   */\n    tag_182:\n        /* \"#utility.yul\":5013:5018   */\n      0x00\n        /* \"#utility.yul\":5051:5057   */\n      dup2\n        /* \"#utility.yul\":5038:5058   */\n      calldataload\n        /* \"#utility.yul\":5029:5058   */\n      swap1\n      pop\n        /* \"#utility.yul\":5067:5100   */\n      tag_299\n        /* \"#utility.yul\":5094:5099   */\n      dup2\n        /* \"#utility.yul\":5067:5100   */\n      tag_181\n      jump\t// in\n    tag_299:\n        /* \"#utility.yul\":4967:5106   */\n      swap3\n      swap2\n      pop\n      pop\n      jump\t// out\n        /* \"#utility.yul\":5150:6603   */\n    tag_183:\n        /* \"#utility.yul\":5228:5233   */\n      0x00\n        /* \"#utility.yul\":5272:5276   */\n      0xc0\n        /* \"#utility.yul\":5260:5269   */\n      dup3\n        /* \"#utility.yul\":5255:5258   */\n      dup5\n        /* \"#utility.yul\":5251:5270   */\n      sub\n        /* \"#utility.yul\":5247:5277   */\n      slt\n        /* \"#utility.yul\":5244:5361   */\n      iszero\n      tag_301\n      jumpi\n        /* \"#utility.yul\":5280:5359   */\n      tag_302\n      tag_164\n      jump\t// in\n    tag_302:\n        /* \"#utility.yul\":5244:5361   */\n    tag_301:\n        /* \"#utility.yul\":5379:5400   */\n      tag_303\n        /* \"#utility.yul\":5395:5399   */\n      0xc0\n        /* \"#utility.yul\":5379:5400   */\n      tag_167\n      jump\t// in\n    tag_303:\n        /* \"#utility.yul\":5370:5400   */\n      swap1\n      pop\n        /* \"#utility.yul\":5494:5495   */\n      0x00\n        /* \"#utility.yul\":5483:5492   */\n      dup3\n        /* \"#utility.yul\":5479:5496   */\n      add\n        /* \"#utility.yul\":5466:5497   */\n      calldataload\n        /* \"#utility.yul\":5524:5542   */\n      0xffffffffffffffff\n        /* \"#utility.yul\":5516:5522   */\n      dup2\n        /* \"#utility.yul\":5513:5543   */\n      gt\n        /* \"#utility.yul\":5510:5627   */\n      iszero\n      tag_304\n      jumpi\n        /* \"#utility.yul\":5546:5625   */\n      tag_305\n      tag_168\n      jump\t// in\n    tag_305:\n        /* \"#utility.yul\":5510:5627   */\n    tag_304:\n        /* \"#utility.yul\":5666:5755   */\n      tag_306\n        /* \"#utility.yul\":5751:5754   */\n      dup5\n        /* \"#utility.yul\":5742:5748   */\n      dup3\n        /* \"#utility.yul\":5731:5740   */\n      dup6\n        /* \"#utility.yul\":5727:5749   */\n      add\n        /* \"#utility.yul\":5666:5755   */\n      tag_176\n      jump\t// in\n    tag_306:\n        /* \"#utility.yul\":5659:5663   */\n      0x00\n        /* \"#utility.yul\":5652:5657   */\n      dup4\n        /* \"#utility.yul\":5648:5664   */\n      add\n        /* \"#utility.yul\":5641:5756   */\n      mstore\n        /* \"#utility.yul\":5410:5767   */\n      pop\n        /* \"#utility.yul\":5832:5834   */\n      0x20\n        /* \"#utility.yul\":5873:5922   */\n      tag_307\n        /* \"#utility.yul\":5918:5921   */\n      dup5\n        /* \"#utility.yul\":5909:5915   */\n      dup3\n        /* \"#utility.yul\":5898:5907   */\n      dup6\n        /* \"#utility.yul\":5894:5916   */\n      add\n        /* \"#utility.yul\":5873:5922   */\n      tag_179\n      jump\t// in\n    tag_307:\n        /* \"#utility.yul\":5866:5870   */\n      0x20\n        /* \"#utility.yul\":5859:5864   */\n      dup4\n        /* \"#utility.yul\":5855:5871   */\n      add\n        /* \"#utility.yul\":5848:5923   */\n      mstore\n        /* \"#utility.yul\":5777:5934   */\n      pop\n        /* \"#utility.yul\":6000:6002   */\n      0x40\n        /* \"#utility.yul\":6041:6090   */\n      tag_308\n        /* \"#utility.yul\":6086:6089   */\n      dup5\n        /* \"#utility.yul\":6077:6083   */\n      dup3\n        /* \"#utility.yul\":6066:6075   */\n      dup6\n        /* \"#utility.yul\":6062:6084   */\n      add\n        /* \"#utility.yul\":6041:6090   */\n      tag_182\n      jump\t// in\n    tag_308:\n        /* \"#utility.yul\":6034:6038   */\n      0x40\n        /* \"#utility.yul\":6027:6032   */\n      dup4\n        /* \"#utility.yul\":6023:6039   */\n      add\n        /* \"#utility.yul\":6016:6091   */\n      mstore\n        /* \"#utility.yul\":5944:6102   */\n      pop\n        /* \"#utility.yul\":6164:6166   */\n      0x60\n        /* \"#utility.yul\":6205:6254   */\n      tag_309\n        /* \"#utility.yul\":6250:6253   */\n      dup5\n        /* \"#utility.yul\":6241:6247   */\n      dup3\n        /* \"#utility.yul\":6230:6239   */\n      dup6\n        /* \"#utility.yul\":6226:6248   */\n      add\n        /* \"#utility.yul\":6205:6254   */\n      tag_163\n      jump\t// in\n    tag_309:\n        /* \"#utility.yul\":6198:6202   */\n      0x60\n        /* \"#utility.yul\":6191:6196   */\n      dup4\n        /* \"#utility.yul\":6187:6203   */\n      add\n        /* \"#utility.yul\":6180:6255   */\n      mstore\n        /* \"#utility.yul\":6112:6266   */\n      pop\n        /* \"#utility.yul\":6326:6329   */\n      0x80\n        /* \"#utility.yul\":6368:6417   */\n      tag_310\n        /* \"#utility.yul\":6413:6416   */\n      dup5\n        /* \"#utility.yul\":6404:6410   */\n      dup3\n        /* \"#utility.yul\":6393:6402   */\n      dup6\n        /* \"#utility.yul\":6389:6411   */\n      add\n        /* \"#utility.yul\":6368:6417   */\n      tag_163\n      jump\t// in\n    tag_310:\n        /* \"#utility.yul\":6361:6365   */\n      0x80\n        /* \"#utility.yul\":6354:6359   */\n      dup4\n        /* \"#utility.yul\":6350:6366   */\n      add\n        /* \"#utility.yul\":6343:6418   */\n      mstore\n        /* \"#utility.yul\":6276:6429   */\n      pop\n        /* \"#utility.yul\":6493:6496   */\n      0xa0\n        /* \"#utility.yul\":6535:6584   */\n      tag_311\n        /* \"#utility.yul\":6580:6583   */\n      dup5\n        /* \"#utility.yul\":6571:6577   */\n      dup3\n        /* \"#utility.yul\":6560:6569   */\n      dup6\n        /* \"#utility.yul\":6556:6578   */\n      add\n        /* \"#utility.yul\":6535:6584   */\n      tag_163\n      jump\t// in\n    tag_311:\n        /* \"#utility.yul\":6528:6532   */\n      0xa0\n        /* \"#utility.yul\":6521:6526   */\n      dup4\n        /* \"#utility.yul\":6517:6533   */\n      add\n        /* \"#utility.yul\":6510:6585   */\n      mstore\n        /* \"#utility.yul\":6439:6596   */\n      pop\n        /* \"#utility.yul\":5150:6603   */\n      swap3\n      swap2\n      pop\n      pop\n      jump\t// out\n        /* \"#utility.yul\":6609:7446   */\n    tag_13:\n        /* \"#utility.yul\":6715:6721   */\n      0x00\n        /* \"#utility.yul\":6723:6729   */\n      dup1\n        /* \"#utility.yul\":6731:6737   */\n      0x00\n        /* \"#utility.yul\":6780:6782   */\n      0x60\n        /* \"#utility.yul\":6768:6777   */\n      dup5\n        /* \"#utility.yul\":6759:6766   */\n      dup7\n        /* \"#utility.yul\":6755:6778   */\n      sub\n        /* \"#utility.yul\":6751:6783   */\n      slt\n        /* \"#utility.yul\":6748:6867   */\n      iszero\n      tag_313\n      jumpi\n        /* \"#utility.yul\":6786:6865   */\n      tag_314\n      tag_160\n      jump\t// in\n    tag_314:\n        /* \"#utility.yul\":6748:6867   */\n    tag_313:\n        /* \"#utility.yul\":6906:6907   */\n      0x00\n        /* \"#utility.yul\":6931:6984   */\n      tag_315\n        /* \"#utility.yul\":6976:6983   */\n      dup7\n        /* \"#utility.yul\":6967:6973   */\n      dup3\n        /* \"#utility.yul\":6956:6965   */\n      dup8\n        /* \"#utility.yul\":6952:6974   */\n      add\n        /* \"#utility.yul\":6931:6984   */\n      tag_163\n      jump\t// in\n    tag_315:\n        /* \"#utility.yul\":6921:6984   */\n      swap4\n      pop\n        /* \"#utility.yul\":6877:6994   */\n      pop\n        /* \"#utility.yul\":7061:7063   */\n      0x20\n        /* \"#utility.yul\":7050:7059   */\n      dup5\n        /* \"#utility.yul\":7046:7064   */\n      add\n        /* \"#utility.yul\":7033:7065   */\n      calldataload\n        /* \"#utility.yul\":7092:7110   */\n      0xffffffffffffffff\n        /* \"#utility.yul\":7084:7090   */\n      dup2\n        /* \"#utility.yul\":7081:7111   */\n      gt\n        /* \"#utility.yul\":7078:7195   */\n      iszero\n      tag_316\n      jumpi\n        /* \"#utility.yul\":7114:7193   */\n      tag_317\n      tag_161\n      jump\t// in\n    tag_317:\n        /* \"#utility.yul\":7078:7195   */\n    tag_316:\n        /* \"#utility.yul\":7219:7301   */\n      tag_318\n        /* \"#utility.yul\":7293:7300   */\n      dup7\n        /* \"#utility.yul\":7284:7290   */\n      dup3\n        /* \"#utility.yul\":7273:7282   */\n      dup8\n        /* \"#utility.yul\":7269:7291   */\n      add\n        /* \"#utility.yul\":7219:7301   */\n      tag_183\n      jump\t// in\n    tag_318:\n        /* \"#utility.yul\":7209:7301   */\n      swap3\n      pop\n        /* \"#utility.yul\":7004:7311   */\n      pop\n        /* \"#utility.yul\":7350:7352   */\n      0x40\n        /* \"#utility.yul\":7376:7429   */\n      tag_319\n        /* \"#utility.yul\":7421:7428   */\n      dup7\n        /* \"#utility.yul\":7412:7418   */\n      dup3\n        /* \"#utility.yul\":7401:7410   */\n      dup8\n        /* \"#utility.yul\":7397:7419   */\n      add\n        /* \"#utility.yul\":7376:7429   */\n      tag_179\n      jump\t// in\n    tag_319:\n        /* \"#utility.yul\":7366:7429   */\n      swap2\n      pop\n        /* \"#utility.yul\":7321:7439   */\n      pop\n        /* \"#utility.yul\":6609:7446   */\n      swap3\n      pop\n      swap3\n      pop\n      swap3\n      jump\t// out\n        /* \"#utility.yul\":7452:8144   */\n    tag_17:\n        /* \"#utility.yul\":7549:7555   */\n      0x00\n        /* \"#utility.yul\":7557:7563   */\n      dup1\n        /* \"#utility.yul\":7606:7608   */\n      0x40\n        /* \"#utility.yul\":7594:7603   */\n      dup4\n        /* \"#utility.yul\":7585:7592   */\n      dup6\n        /* \"#utility.yul\":7581:7604   */\n      sub\n        /* \"#utility.yul\":7577:7609   */\n      slt\n        /* \"#utility.yul\":7574:7693   */\n      iszero\n      tag_321\n      jumpi\n        /* \"#utility.yul\":7612:7691   */\n      tag_322\n      tag_160\n      jump\t// in\n    tag_322:\n        /* \"#utility.yul\":7574:7693   */\n    tag_321:\n        /* \"#utility.yul\":7760:7761   */\n      0x00\n        /* \"#utility.yul\":7749:7758   */\n      dup4\n        /* \"#utility.yul\":7745:7762   */\n      add\n        /* \"#utility.yul\":7732:7763   */\n      calldataload\n        /* \"#utility.yul\":7790:7808   */\n      0xffffffffffffffff\n        /* \"#utility.yul\":7782:7788   */\n      dup2\n        /* \"#utility.yul\":7779:7809   */\n      gt\n        /* \"#utility.yul\":7776:7893   */\n      iszero\n      tag_323\n      jumpi\n        /* \"#utility.yul\":7812:7891   */\n      tag_324\n      tag_161\n      jump\t// in\n    tag_324:\n        /* \"#utility.yul\":7776:7893   */\n    tag_323:\n        /* \"#utility.yul\":7917:7999   */\n      tag_325\n        /* \"#utility.yul\":7991:7998   */\n      dup6\n        /* \"#utility.yul\":7982:7988   */\n      dup3\n        /* \"#utility.yul\":7971:7980   */\n      dup7\n        /* \"#utility.yul\":7967:7989   */\n      add\n        /* \"#utility.yul\":7917:7999   */\n      tag_183\n      jump\t// in\n    tag_325:\n        /* \"#utility.yul\":7907:7999   */\n      swap3\n      pop\n        /* \"#utility.yul\":7703:8009   */\n      pop\n        /* \"#utility.yul\":8048:8050   */\n      0x20\n        /* \"#utility.yul\":8074:8127   */\n      tag_326\n        /* \"#utility.yul\":8119:8126   */\n      dup6\n        /* \"#utility.yul\":8110:8116   */\n      dup3\n        /* \"#utility.yul\":8099:8108   */\n      dup7\n        /* \"#utility.yul\":8095:8117   */\n      add\n        /* \"#utility.yul\":8074:8127   */\n      tag_179\n      jump\t// in\n    tag_326:\n        /* \"#utility.yul\":8064:8127   */\n      swap2\n      pop\n        /* \"#utility.yul\":8019:8137   */\n      pop\n        /* \"#utility.yul\":7452:8144   */\n      swap3\n      pop\n      swap3\n      swap1\n      pop\n      jump\t// out\n        /* \"#utility.yul\":8150:8987   */\n    tag_21:\n        /* \"#utility.yul\":8256:8262   */\n      0x00\n        /* \"#utility.yul\":8264:8270   */\n      dup1\n        /* \"#utility.yul\":8272:8278   */\n      0x00\n        /* \"#utility.yul\":8321:8323   */\n      0x60\n        /* \"#utility.yul\":8309:8318   */\n      dup5\n        /* \"#utility.yul\":8300:8307   */\n      dup7\n        /* \"#utility.yul\":8296:8319   */\n      sub\n        /* \"#utility.yul\":8292:8324   */\n      slt\n        /* \"#utility.yul\":8289:8408   */\n      iszero\n      tag_328\n      jumpi\n        /* \"#utility.yul\":8327:8406   */\n      tag_329\n      tag_160\n      jump\t// in\n    tag_329:\n        /* \"#utility.yul\":8289:8408   */\n    tag_328:\n        /* \"#utility.yul\":8475:8476   */\n      0x00\n        /* \"#utility.yul\":8464:8473   */\n      dup5\n        /* \"#utility.yul\":8460:8477   */\n      add\n        /* \"#utility.yul\":8447:8478   */\n      calldataload\n        /* \"#utility.yul\":8505:8523   */\n      0xffffffffffffffff\n        /* \"#utility.yul\":8497:8503   */\n      dup2\n        /* \"#utility.yul\":8494:8524   */\n      gt\n        /* \"#utility.yul\":8491:8608   */\n      iszero\n      tag_330\n      jumpi\n        /* \"#utility.yul\":8527:8606   */\n      tag_331\n      tag_161\n      jump\t// in\n    tag_331:\n        /* \"#utility.yul\":8491:8608   */\n    tag_330:\n        /* \"#utility.yul\":8632:8714   */\n      tag_332\n        /* \"#utility.yul\":8706:8713   */\n      dup7\n        /* \"#utility.yul\":8697:8703   */\n      dup3\n        /* \"#utility.yul\":8686:8695   */\n      dup8\n        /* \"#utility.yul\":8682:8704   */\n      add\n        /* \"#utility.yul\":8632:8714   */\n      tag_183\n      jump\t// in\n    tag_332:\n        /* \"#utility.yul\":8622:8714   */\n      swap4\n      pop\n        /* \"#utility.yul\":8418:8724   */\n      pop\n        /* \"#utility.yul\":8763:8765   */\n      0x20\n        /* \"#utility.yul\":8789:8842   */\n      tag_333\n        /* \"#utility.yul\":8834:8841   */\n      dup7\n        /* \"#utility.yul\":8825:8831   */\n      dup3\n        /* \"#utility.yul\":8814:8823   */\n      dup8\n        /* \"#utility.yul\":8810:8832   */\n      add\n        /* \"#utility.yul\":8789:8842   */\n      tag_179\n      jump\t// in\n    tag_333:\n        /* \"#utility.yul\":8779:8842   */\n      swap3\n      pop\n        /* \"#utility.yul\":8734:8852   */\n      pop\n        /* \"#utility.yul\":8891:8893   */\n      0x40\n        /* \"#utility.yul\":8917:8970   */\n      tag_334\n        /* \"#utility.yul\":8962:8969   */\n      dup7\n        /* \"#utility.yul\":8953:8959   */\n      dup3\n        /* \"#utility.yul\":8942:8951   */\n      dup8\n        /* \"#utility.yul\":8938:8960   */\n      add\n        /* \"#utility.yul\":8917:8970   */\n      tag_179\n      jump\t// in\n    tag_334:\n        /* \"#utility.yul\":8907:8970   */\n      swap2\n      pop\n        /* \"#utility.yul\":8862:8980   */\n      pop\n        /* \"#utility.yul\":8150:8987   */\n      swap3\n      pop\n      swap3\n      pop\n      swap3\n      jump\t// out\n        /* \"#utility.yul\":8993:9173   */\n    tag_26:\n        /* \"#utility.yul\":9041:9118   */\n      0x4e487b7100000000000000000000000000000000000000000000000000000000\n        /* \"#utility.yul\":9038:9039   */\n      0x00\n        /* \"#utility.yul\":9031:9119   */\n      mstore\n        /* \"#utility.yul\":9138:9142   */\n      0x32\n        /* \"#utility.yul\":9135:9136   */\n      0x04\n        /* \"#utility.yul\":9128:9143   */\n      mstore\n        /* \"#utility.yul\":9162:9166   */\n      0x24\n        /* \"#utility.yul\":9159:9160   */\n      0x00\n        /* \"#utility.yul\":9152:9167   */\n      revert\n        /* \"#utility.yul\":9179:9297   */\n    tag_184:\n        /* \"#utility.yul\":9266:9290   */\n      tag_337\n        /* \"#utility.yul\":9284:9289   */\n      dup2\n        /* \"#utility.yul\":9266:9290   */\n      tag_177\n      jump\t// in\n    tag_337:\n        /* \"#utility.yul\":9261:9264   */\n      dup3\n        /* \"#utility.yul\":9254:9291   */\n      mstore\n        /* \"#utility.yul\":9179:9297   */\n      pop\n      pop\n      jump\t// out\n        /* \"#utility.yul\":9303:9745   */\n    tag_49:\n        /* \"#utility.yul\":9452:9456   */\n      0x00\n        /* \"#utility.yul\":9490:9492   */\n      0x60\n        /* \"#utility.yul\":9479:9488   */\n      dup3\n        /* \"#utility.yul\":9475:9493   */\n      add\n        /* \"#utility.yul\":9467:9493   */\n      swap1\n      pop\n        /* \"#utility.yul\":9503:9574   */\n      tag_339\n        /* \"#utility.yul\":9571:9572   */\n      0x00\n        /* \"#utility.yul\":9560:9569   */\n      dup4\n        /* \"#utility.yul\":9556:9573   */\n      add\n        /* \"#utility.yul\":9547:9553   */\n      dup7\n        /* \"#utility.yul\":9503:9574   */\n      tag_158\n      jump\t// in\n    tag_339:\n        /* \"#utility.yul\":9584:9656   */\n      tag_340\n        /* \"#utility.yul\":9652:9654   */\n      0x20\n        /* \"#utility.yul\":9641:9650   */\n      dup4\n        /* \"#utility.yul\":9637:9655   */\n      add\n        /* \"#utility.yul\":9628:9634   */\n      dup6\n        /* \"#utility.yul\":9584:9656   */\n      tag_158\n      jump\t// in\n    tag_340:\n        /* \"#utility.yul\":9666:9738   */\n      tag_341\n        /* \"#utility.yul\":9734:9736   */\n      0x40\n        /* \"#utility.yul\":9723:9732   */\n      dup4\n        /* \"#utility.yul\":9719:9737   */\n      add\n        /* \"#utility.yul\":9710:9716   */\n      dup5\n        /* \"#utility.yul\":9666:9738   */\n      tag_184\n      jump\t// in\n    tag_341:\n        /* \"#utility.yul\":9303:9745   */\n      swap5\n      swap4\n      pop\n      pop\n      pop\n      pop\n      jump\t// out\n        /* \"#utility.yul\":9751:9837   */\n    tag_185:\n        /* \"#utility.yul\":9786:9793   */\n      0x00\n        /* \"#utility.yul\":9826:9830   */\n      0xff\n        /* \"#utility.yul\":9819:9824   */\n      dup3\n        /* \"#utility.yul\":9815:9831   */\n      and\n        /* \"#utility.yul\":9804:9831   */\n      swap1\n      pop\n        /* \"#utility.yul\":9751:9837   */\n      swap2\n      swap1\n      pop\n      jump\t// out\n        /* \"#utility.yul\":9843:9955   */\n    tag_186:\n        /* \"#utility.yul\":9926:9948   */\n      tag_344\n        /* \"#utility.yul\":9942:9947   */\n      dup2\n        /* \"#utility.yul\":9926:9948   */\n      tag_185\n      jump\t// in\n    tag_344:\n        /* \"#utility.yul\":9921:9924   */\n      dup3\n        /* \"#utility.yul\":9914:9949   */\n      mstore\n        /* \"#utility.yul\":9843:9955   */\n      pop\n      pop\n      jump\t// out\n        /* \"#utility.yul\":9961:10075   */\n    tag_187:\n        /* \"#utility.yul\":10028:10034   */\n      0x00\n        /* \"#utility.yul\":10062:10067   */\n      dup2\n        /* \"#utility.yul\":10056:10068   */\n      mload\n        /* \"#utility.yul\":10046:10068   */\n      swap1\n      pop\n        /* \"#utility.yul\":9961:10075   */\n      swap2\n      swap1\n      pop\n      jump\t// out\n        /* \"#utility.yul\":10081:10265   */\n    tag_188:\n        /* \"#utility.yul\":10180:10191   */\n      0x00\n        /* \"#utility.yul\":10214:10220   */\n      dup3\n        /* \"#utility.yul\":10209:10212   */\n      dup3\n        /* \"#utility.yul\":10202:10221   */\n      mstore\n        /* \"#utility.yul\":10254:10258   */\n      0x20\n        /* \"#utility.yul\":10249:10252   */\n      dup3\n        /* \"#utility.yul\":10245:10259   */\n      add\n        /* \"#utility.yul\":10230:10259   */\n      swap1\n      pop\n        /* \"#utility.yul\":10081:10265   */\n      swap3\n      swap2\n      pop\n      pop\n      jump\t// out\n        /* \"#utility.yul\":10271:10403   */\n    tag_189:\n        /* \"#utility.yul\":10338:10342   */\n      0x00\n        /* \"#utility.yul\":10361:10364   */\n      dup2\n        /* \"#utility.yul\":10353:10364   */\n      swap1\n      pop\n        /* \"#utility.yul\":10391:10395   */\n      0x20\n        /* \"#utility.yul\":10386:10389   */\n      dup3\n        /* \"#utility.yul\":10382:10396   */\n      add\n        /* \"#utility.yul\":10374:10396   */\n      swap1\n      pop\n        /* \"#utility.yul\":10271:10403   */\n      swap2\n      swap1\n      pop\n      jump\t// out\n        /* \"#utility.yul\":10409:10517   */\n    tag_190:\n        /* \"#utility.yul\":10486:10510   */\n      tag_349\n        /* \"#utility.yul\":10504:10509   */\n      dup2\n        /* \"#utility.yul\":10486:10510   */\n      tag_177\n      jump\t// in\n    tag_349:\n        /* \"#utility.yul\":10481:10484   */\n      dup3\n        /* \"#utility.yul\":10474:10511   */\n      mstore\n        /* \"#utility.yul\":10409:10517   */\n      pop\n      pop\n      jump\t// out\n        /* \"#utility.yul\":10523:10702   */\n    tag_191:\n        /* \"#utility.yul\":10592:10602   */\n      0x00\n        /* \"#utility.yul\":10613:10659   */\n      tag_351\n        /* \"#utility.yul\":10655:10658   */\n      dup4\n        /* \"#utility.yul\":10647:10653   */\n      dup4\n        /* \"#utility.yul\":10613:10659   */\n      tag_190\n      jump\t// in\n    tag_351:\n        /* \"#utility.yul\":10691:10695   */\n      0x20\n        /* \"#utility.yul\":10686:10689   */\n      dup4\n        /* \"#utility.yul\":10682:10696   */\n      add\n        /* \"#utility.yul\":10668:10696   */\n      swap1\n      pop\n        /* \"#utility.yul\":10523:10702   */\n      swap3\n      swap2\n      pop\n      pop\n      jump\t// out\n        /* \"#utility.yul\":10708:10821   */\n    tag_192:\n        /* \"#utility.yul\":10778:10782   */\n      0x00\n        /* \"#utility.yul\":10810:10814   */\n      0x20\n        /* \"#utility.yul\":10805:10808   */\n      dup3\n        /* \"#utility.yul\":10801:10815   */\n      add\n        /* \"#utility.yul\":10793:10815   */\n      swap1\n      pop\n        /* \"#utility.yul\":10708:10821   */\n      swap2\n      swap1\n      pop\n      jump\t// out\n        /* \"#utility.yul\":10857:11589   */\n    tag_193:\n        /* \"#utility.yul\":10976:10979   */\n      0x00\n        /* \"#utility.yul\":11005:11059   */\n      tag_354\n        /* \"#utility.yul\":11053:11058   */\n      dup3\n        /* \"#utility.yul\":11005:11059   */\n      tag_187\n      jump\t// in\n    tag_354:\n        /* \"#utility.yul\":11075:11161   */\n      tag_355\n        /* \"#utility.yul\":11154:11160   */\n      dup2\n        /* \"#utility.yul\":11149:11152   */\n      dup6\n        /* \"#utility.yul\":11075:11161   */\n      tag_188\n      jump\t// in\n    tag_355:\n        /* \"#utility.yul\":11068:11161   */\n      swap4\n      pop\n        /* \"#utility.yul\":11185:11241   */\n      tag_356\n        /* \"#utility.yul\":11235:11240   */\n      dup4\n        /* \"#utility.yul\":11185:11241   */\n      tag_189\n      jump\t// in\n    tag_356:\n        /* \"#utility.yul\":11264:11271   */\n      dup1\n        /* \"#utility.yul\":11295:11296   */\n      0x00\n        /* \"#utility.yul\":11280:11564   */\n    tag_357:\n        /* \"#utility.yul\":11305:11311   */\n      dup4\n        /* \"#utility.yul\":11302:11303   */\n      dup2\n        /* \"#utility.yul\":11299:11312   */\n      lt\n        /* \"#utility.yul\":11280:11564   */\n      iszero\n      tag_359\n      jumpi\n        /* \"#utility.yul\":11381:11387   */\n      dup2\n        /* \"#utility.yul\":11375:11388   */\n      mload\n        /* \"#utility.yul\":11408:11471   */\n      tag_360\n        /* \"#utility.yul\":11467:11470   */\n      dup9\n        /* \"#utility.yul\":11452:11465   */\n      dup3\n        /* \"#utility.yul\":11408:11471   */\n      tag_191\n      jump\t// in\n    tag_360:\n        /* \"#utility.yul\":11401:11471   */\n      swap8\n      pop\n        /* \"#utility.yul\":11494:11554   */\n      tag_361\n        /* \"#utility.yul\":11547:11553   */\n      dup4\n        /* \"#utility.yul\":11494:11554   */\n      tag_192\n      jump\t// in\n    tag_361:\n        /* \"#utility.yul\":11484:11554   */\n      swap3\n      pop\n        /* \"#utility.yul\":11340:11564   */\n      pop\n        /* \"#utility.yul\":11327:11328   */\n      0x01\n        /* \"#utility.yul\":11324:11325   */\n      dup2\n        /* \"#utility.yul\":11320:11329   */\n      add\n        /* \"#utility.yul\":11315:11329   */\n      swap1\n      pop\n        /* \"#utility.yul\":11280:11564   */\n      jump(tag_357)\n    tag_359:\n        /* \"#utility.yul\":11284:11298   */\n      pop\n        /* \"#utility.yul\":11580:11583   */\n      dup6\n        /* \"#utility.yul\":11573:11583   */\n      swap4\n      pop\n        /* \"#utility.yul\":10981:11589   */\n      pop\n      pop\n      pop\n        /* \"#utility.yul\":10857:11589   */\n      swap3\n      swap2\n      pop\n      pop\n      jump\t// out\n        /* \"#utility.yul\":11595:12180   */\n    tag_59:\n        /* \"#utility.yul\":11790:11794   */\n      0x00\n        /* \"#utility.yul\":11828:11830   */\n      0x60\n        /* \"#utility.yul\":11817:11826   */\n      dup3\n        /* \"#utility.yul\":11813:11831   */\n      add\n        /* \"#utility.yul\":11805:11831   */\n      swap1\n      pop\n        /* \"#utility.yul\":11841:11908   */\n      tag_363\n        /* \"#utility.yul\":11905:11906   */\n      0x00\n        /* \"#utility.yul\":11894:11903   */\n      dup4\n        /* \"#utility.yul\":11890:11907   */\n      add\n        /* \"#utility.yul\":11881:11887   */\n      dup7\n        /* \"#utility.yul\":11841:11908   */\n      tag_186\n      jump\t// in\n    tag_363:\n        /* \"#utility.yul\":11955:11964   */\n      dup2\n        /* \"#utility.yul\":11949:11953   */\n      dup2\n        /* \"#utility.yul\":11945:11965   */\n      sub\n        /* \"#utility.yul\":11940:11942   */\n      0x20\n        /* \"#utility.yul\":11929:11938   */\n      dup4\n        /* \"#utility.yul\":11925:11943   */\n      add\n        /* \"#utility.yul\":11918:11966   */\n      mstore\n        /* \"#utility.yul\":11983:12091   */\n      tag_364\n        /* \"#utility.yul\":12086:12090   */\n      dup2\n        /* \"#utility.yul\":12077:12083   */\n      dup6\n        /* \"#utility.yul\":11983:12091   */\n      tag_193\n      jump\t// in\n    tag_364:\n        /* \"#utility.yul\":11975:12091   */\n      swap1\n      pop\n        /* \"#utility.yul\":12101:12173   */\n      tag_365\n        /* \"#utility.yul\":12169:12171   */\n      0x40\n        /* \"#utility.yul\":12158:12167   */\n      dup4\n        /* \"#utility.yul\":12154:12172   */\n      add\n        /* \"#utility.yul\":12145:12151   */\n      dup5\n        /* \"#utility.yul\":12101:12173   */\n      tag_184\n      jump\t// in\n    tag_365:\n        /* \"#utility.yul\":11595:12180   */\n      swap5\n      swap4\n      pop\n      pop\n      pop\n      pop\n      jump\t// out\n        /* \"#utility.yul\":12186:12304   */\n    tag_194:\n        /* \"#utility.yul\":12273:12297   */\n      tag_367\n        /* \"#utility.yul\":12291:12296   */\n      dup2\n        /* \"#utility.yul\":12273:12297   */\n      tag_180\n      jump\t// in\n    tag_367:\n        /* \"#utility.yul\":12268:12271   */\n      dup3\n        /* \"#utility.yul\":12261:12298   */\n      mstore\n        /* \"#utility.yul\":12186:12304   */\n      pop\n      pop\n      jump\t// out\n        /* \"#utility.yul\":12310:12439   */\n    tag_195:\n        /* \"#utility.yul\":12392:12398   */\n      0x00\n        /* \"#utility.yul\":12426:12431   */\n      dup2\n        /* \"#utility.yul\":12420:12432   */\n      mload\n        /* \"#utility.yul\":12410:12432   */\n      swap1\n      pop\n        /* \"#utility.yul\":12310:12439   */\n      swap2\n      swap1\n      pop\n      jump\t// out\n        /* \"#utility.yul\":12445:12619   */\n    tag_196:\n        /* \"#utility.yul\":12534:12545   */\n      0x00\n        /* \"#utility.yul\":12568:12574   */\n      dup3\n        /* \"#utility.yul\":12563:12566   */\n      dup3\n        /* \"#utility.yul\":12556:12575   */\n      mstore\n        /* \"#utility.yul\":12608:12612   */\n      0x20\n        /* \"#utility.yul\":12603:12606   */\n      dup3\n        /* \"#utility.yul\":12599:12613   */\n      add\n        /* \"#utility.yul\":12584:12613   */\n      swap1\n      pop\n        /* \"#utility.yul\":12445:12619   */\n      swap3\n      swap2\n      pop\n      pop\n      jump\t// out\n        /* \"#utility.yul\":12625:12772   */\n    tag_197:\n        /* \"#utility.yul\":12707:12711   */\n      0x00\n        /* \"#utility.yul\":12730:12733   */\n      dup2\n        /* \"#utility.yul\":12722:12733   */\n      swap1\n      pop\n        /* \"#utility.yul\":12760:12764   */\n      0x20\n        /* \"#utility.yul\":12755:12758   */\n      dup3\n        /* \"#utility.yul\":12751:12765   */\n      add\n        /* \"#utility.yul\":12743:12765   */\n      swap1\n      pop\n        /* \"#utility.yul\":12625:12772   */\n      swap2\n      swap1\n      pop\n      jump\t// out\n        /* \"#utility.yul\":12778:12838   */\n    tag_198:\n        /* \"#utility.yul\":12806:12809   */\n      0x00\n        /* \"#utility.yul\":12827:12832   */\n      dup2\n        /* \"#utility.yul\":12820:12832   */\n      swap1\n      pop\n        /* \"#utility.yul\":12778:12838   */\n      swap2\n      swap1\n      pop\n      jump\t// out\n        /* \"#utility.yul\":12844:12986   */\n    tag_199:\n        /* \"#utility.yul\":12894:12903   */\n      0x00\n        /* \"#utility.yul\":12927:12980   */\n      tag_373\n        /* \"#utility.yul\":12945:12979   */\n      tag_374\n        /* \"#utility.yul\":12954:12978   */\n      tag_375\n        /* \"#utility.yul\":12972:12977   */\n      dup5\n        /* \"#utility.yul\":12954:12978   */\n      tag_156\n      jump\t// in\n    tag_375:\n        /* \"#utility.yul\":12945:12979   */\n      tag_198\n      jump\t// in\n    tag_374:\n        /* \"#utility.yul\":12927:12980   */\n      tag_156\n      jump\t// in\n    tag_373:\n        /* \"#utility.yul\":12914:12980   */\n      swap1\n      pop\n        /* \"#utility.yul\":12844:12986   */\n      swap2\n      swap1\n      pop\n      jump\t// out\n        /* \"#utility.yul\":12992:13118   */\n    tag_200:\n        /* \"#utility.yul\":13042:13051   */\n      0x00\n        /* \"#utility.yul\":13075:13112   */\n      tag_377\n        /* \"#utility.yul\":13106:13111   */\n      dup3\n        /* \"#utility.yul\":13075:13112   */\n      tag_199\n      jump\t// in\n    tag_377:\n        /* \"#utility.yul\":13062:13112   */\n      swap1\n      pop\n        /* \"#utility.yul\":12992:13118   */\n      swap2\n      swap1\n      pop\n      jump\t// out\n        /* \"#utility.yul\":13124:13265   */\n    tag_201:\n        /* \"#utility.yul\":13189:13198   */\n      0x00\n        /* \"#utility.yul\":13222:13259   */\n      tag_379\n        /* \"#utility.yul\":13253:13258   */\n      dup3\n        /* \"#utility.yul\":13222:13259   */\n      tag_200\n      jump\t// in\n    tag_379:\n        /* \"#utility.yul\":13209:13259   */\n      swap1\n      pop\n        /* \"#utility.yul\":13124:13265   */\n      swap2\n      swap1\n      pop\n      jump\t// out\n        /* \"#utility.yul\":13271:13422   */\n    tag_202:\n        /* \"#utility.yul\":13363:13415   */\n      tag_381\n        /* \"#utility.yul\":13409:13414   */\n      dup2\n        /* \"#utility.yul\":13363:13415   */\n      tag_201\n      jump\t// in\n    tag_381:\n        /* \"#utility.yul\":13358:13361   */\n      dup3\n        /* \"#utility.yul\":13351:13416   */\n      mstore\n        /* \"#utility.yul\":13271:13422   */\n      pop\n      pop\n      jump\t// out\n        /* \"#utility.yul\":13428:13637   */\n    tag_203:\n        /* \"#utility.yul\":13512:13522   */\n      0x00\n        /* \"#utility.yul\":13533:13594   */\n      tag_383\n        /* \"#utility.yul\":13590:13593   */\n      dup4\n        /* \"#utility.yul\":13582:13588   */\n      dup4\n        /* \"#utility.yul\":13533:13594   */\n      tag_202\n      jump\t// in\n    tag_383:\n        /* \"#utility.yul\":13626:13630   */\n      0x20\n        /* \"#utility.yul\":13621:13624   */\n      dup4\n        /* \"#utility.yul\":13617:13631   */\n      add\n        /* \"#utility.yul\":13603:13631   */\n      swap1\n      pop\n        /* \"#utility.yul\":13428:13637   */\n      swap3\n      swap2\n      pop\n      pop\n      jump\t// out\n        /* \"#utility.yul\":13643:13771   */\n    tag_204:\n        /* \"#utility.yul\":13728:13732   */\n      0x00\n        /* \"#utility.yul\":13760:13764   */\n      0x20\n        /* \"#utility.yul\":13755:13758   */\n      dup3\n        /* \"#utility.yul\":13751:13765   */\n      add\n        /* \"#utility.yul\":13743:13765   */\n      swap1\n      pop\n        /* \"#utility.yul\":13643:13771   */\n      swap2\n      swap1\n      pop\n      jump\t// out\n        /* \"#utility.yul\":13815:14602   */\n    tag_205:\n        /* \"#utility.yul\":13939:13942   */\n      0x00\n        /* \"#utility.yul\":13968:14037   */\n      tag_386\n        /* \"#utility.yul\":14031:14036   */\n      dup3\n        /* \"#utility.yul\":13968:14037   */\n      tag_195\n      jump\t// in\n    tag_386:\n        /* \"#utility.yul\":14053:14129   */\n      tag_387\n        /* \"#utility.yul\":14122:14128   */\n      dup2\n        /* \"#utility.yul\":14117:14120   */\n      dup6\n        /* \"#utility.yul\":14053:14129   */\n      tag_196\n      jump\t// in\n    tag_387:\n        /* \"#utility.yul\":14046:14129   */\n      swap4\n      pop\n        /* \"#utility.yul\":14153:14224   */\n      tag_388\n        /* \"#utility.yul\":14218:14223   */\n      dup4\n        /* \"#utility.yul\":14153:14224   */\n      tag_197\n      jump\t// in\n    tag_388:\n        /* \"#utility.yul\":14247:14254   */\n      dup1\n        /* \"#utility.yul\":14278:14279   */\n      0x00\n        /* \"#utility.yul\":14263:14577   */\n    tag_389:\n        /* \"#utility.yul\":14288:14294   */\n      dup4\n        /* \"#utility.yul\":14285:14286   */\n      dup2\n        /* \"#utility.yul\":14282:14295   */\n      lt\n        /* \"#utility.yul\":14263:14577   */\n      iszero\n      tag_391\n      jumpi\n        /* \"#utility.yul\":14364:14370   */\n      dup2\n        /* \"#utility.yul\":14358:14371   */\n      mload\n        /* \"#utility.yul\":14391:14469   */\n      tag_392\n        /* \"#utility.yul\":14465:14468   */\n      dup9\n        /* \"#utility.yul\":14450:14463   */\n      dup3\n        /* \"#utility.yul\":14391:14469   */\n      tag_203\n      jump\t// in\n    tag_392:\n        /* \"#utility.yul\":14384:14469   */\n      swap8\n      pop\n        /* \"#utility.yul\":14492:14567   */\n      tag_393\n        /* \"#utility.yul\":14560:14566   */\n      dup4\n        /* \"#utility.yul\":14492:14567   */\n      tag_204\n      jump\t// in\n    tag_393:\n        /* \"#utility.yul\":14482:14567   */\n      swap3\n      pop\n        /* \"#utility.yul\":14323:14577   */\n      pop\n        /* \"#utility.yul\":14310:14311   */\n      0x01\n        /* \"#utility.yul\":14307:14308   */\n      dup2\n        /* \"#utility.yul\":14303:14312   */\n      add\n        /* \"#utility.yul\":14298:14312   */\n      swap1\n      pop\n        /* \"#utility.yul\":14263:14577   */\n      jump(tag_389)\n    tag_391:\n        /* \"#utility.yul\":14267:14281   */\n      pop\n        /* \"#utility.yul\":14593:14596   */\n      dup6\n        /* \"#utility.yul\":14586:14596   */\n      swap4\n      pop\n        /* \"#utility.yul\":13944:14602   */\n      pop\n      pop\n      pop\n        /* \"#utility.yul\":13815:14602   */\n      swap3\n      swap2\n      pop\n      pop\n      jump\t// out\n        /* \"#utility.yul\":14608:14782   */\n    tag_206:\n        /* \"#utility.yul\":14697:14708   */\n      0x00\n        /* \"#utility.yul\":14731:14737   */\n      dup3\n        /* \"#utility.yul\":14726:14729   */\n      dup3\n        /* \"#utility.yul\":14719:14738   */\n      mstore\n        /* \"#utility.yul\":14771:14775   */\n      0x20\n        /* \"#utility.yul\":14766:14769   */\n      dup3\n        /* \"#utility.yul\":14762:14776   */\n      add\n        /* \"#utility.yul\":14747:14776   */\n      swap1\n      pop\n        /* \"#utility.yul\":14608:14782   */\n      swap3\n      swap2\n      pop\n      pop\n      jump\t// out\n        /* \"#utility.yul\":14818:15530   */\n    tag_207:\n        /* \"#utility.yul\":14927:14930   */\n      0x00\n        /* \"#utility.yul\":14956:15010   */\n      tag_396\n        /* \"#utility.yul\":15004:15009   */\n      dup3\n        /* \"#utility.yul\":14956:15010   */\n      tag_187\n      jump\t// in\n    tag_396:\n        /* \"#utility.yul\":15026:15102   */\n      tag_397\n        /* \"#utility.yul\":15095:15101   */\n      dup2\n        /* \"#utility.yul\":15090:15093   */\n      dup6\n        /* \"#utility.yul\":15026:15102   */\n      tag_206\n      jump\t// in\n    tag_397:\n        /* \"#utility.yul\":15019:15102   */\n      swap4\n      pop\n        /* \"#utility.yul\":15126:15182   */\n      tag_398\n        /* \"#utility.yul\":15176:15181   */\n      dup4\n        /* \"#utility.yul\":15126:15182   */\n      tag_189\n      jump\t// in\n    tag_398:\n        /* \"#utility.yul\":15205:15212   */\n      dup1\n        /* \"#utility.yul\":15236:15237   */\n      0x00\n        /* \"#utility.yul\":15221:15505   */\n    tag_399:\n        /* \"#utility.yul\":15246:15252   */\n      dup4\n        /* \"#utility.yul\":15243:15244   */\n      dup2\n        /* \"#utility.yul\":15240:15253   */\n      lt\n        /* \"#utility.yul\":15221:15505   */\n      iszero\n      tag_401\n      jumpi\n        /* \"#utility.yul\":15322:15328   */\n      dup2\n        /* \"#utility.yul\":15316:15329   */\n      mload\n        /* \"#utility.yul\":15349:15412   */\n      tag_402\n        /* \"#utility.yul\":15408:15411   */\n      dup9\n        /* \"#utility.yul\":15393:15406   */\n      dup3\n        /* \"#utility.yul\":15349:15412   */\n      tag_191\n      jump\t// in\n    tag_402:\n        /* \"#utility.yul\":15342:15412   */\n      swap8\n      pop\n        /* \"#utility.yul\":15435:15495   */\n      tag_403\n        /* \"#utility.yul\":15488:15494   */\n      dup4\n        /* \"#utility.yul\":15435:15495   */\n      tag_192\n      jump\t// in\n    tag_403:\n        /* \"#utility.yul\":15425:15495   */\n      swap3\n      pop\n        /* \"#utility.yul\":15281:15505   */\n      pop\n        /* \"#utility.yul\":15268:15269   */\n      0x01\n        /* \"#utility.yul\":15265:15266   */\n      dup2\n        /* \"#utility.yul\":15261:15270   */\n      add\n        /* \"#utility.yul\":15256:15270   */\n      swap1\n      pop\n        /* \"#utility.yul\":15221:15505   */\n      jump(tag_399)\n    tag_401:\n        /* \"#utility.yul\":15225:15239   */\n      pop\n        /* \"#utility.yul\":15521:15524   */\n      dup6\n        /* \"#utility.yul\":15514:15524   */\n      swap4\n      pop\n        /* \"#utility.yul\":14932:15530   */\n      pop\n      pop\n      pop\n        /* \"#utility.yul\":14818:15530   */\n      swap3\n      swap2\n      pop\n      pop\n      jump\t// out\n        /* \"#utility.yul\":15536:15634   */\n    tag_208:\n        /* \"#utility.yul\":15587:15593   */\n      0x00\n        /* \"#utility.yul\":15621:15626   */\n      dup2\n        /* \"#utility.yul\":15615:15627   */\n      mload\n        /* \"#utility.yul\":15605:15627   */\n      swap1\n      pop\n        /* \"#utility.yul\":15536:15634   */\n      swap2\n      swap1\n      pop\n      jump\t// out\n        /* \"#utility.yul\":15640:15798   */\n    tag_209:\n        /* \"#utility.yul\":15713:15724   */\n      0x00\n        /* \"#utility.yul\":15747:15753   */\n      dup3\n        /* \"#utility.yul\":15742:15745   */\n      dup3\n        /* \"#utility.yul\":15735:15754   */\n      mstore\n        /* \"#utility.yul\":15787:15791   */\n      0x20\n        /* \"#utility.yul\":15782:15785   */\n      dup3\n        /* \"#utility.yul\":15778:15792   */\n      add\n        /* \"#utility.yul\":15763:15792   */\n      swap1\n      pop\n        /* \"#utility.yul\":15640:15798   */\n      swap3\n      swap2\n      pop\n      pop\n      jump\t// out\n        /* \"#utility.yul\":15804:16111   */\n    tag_210:\n        /* \"#utility.yul\":15872:15873   */\n      0x00\n        /* \"#utility.yul\":15882:15995   */\n    tag_407:\n        /* \"#utility.yul\":15896:15902   */\n      dup4\n        /* \"#utility.yul\":15893:15894   */\n      dup2\n        /* \"#utility.yul\":15890:15903   */\n      lt\n        /* \"#utility.yul\":15882:15995   */\n      iszero\n      tag_409\n      jumpi\n        /* \"#utility.yul\":15981:15982   */\n      dup1\n        /* \"#utility.yul\":15976:15979   */\n      dup3\n        /* \"#utility.yul\":15972:15983   */\n      add\n        /* \"#utility.yul\":15966:15984   */\n      mload\n        /* \"#utility.yul\":15962:15963   */\n      dup2\n        /* \"#utility.yul\":15957:15960   */\n      dup5\n        /* \"#utility.yul\":15953:15964   */\n      add\n        /* \"#utility.yul\":15946:15985   */\n      mstore\n        /* \"#utility.yul\":15918:15920   */\n      0x20\n        /* \"#utility.yul\":15915:15916   */\n      dup2\n        /* \"#utility.yul\":15911:15921   */\n      add\n        /* \"#utility.yul\":15906:15921   */\n      swap1\n      pop\n        /* \"#utility.yul\":15882:15995   */\n      jump(tag_407)\n    tag_409:\n        /* \"#utility.yul\":16013:16019   */\n      dup4\n        /* \"#utility.yul\":16010:16011   */\n      dup2\n        /* \"#utility.yul\":16007:16020   */\n      gt\n        /* \"#utility.yul\":16004:16105   */\n      iszero\n      tag_410\n      jumpi\n        /* \"#utility.yul\":16093:16094   */\n      0x00\n        /* \"#utility.yul\":16084:16090   */\n      dup5\n        /* \"#utility.yul\":16079:16082   */\n      dup5\n        /* \"#utility.yul\":16075:16091   */\n      add\n        /* \"#utility.yul\":16068:16095   */\n      mstore\n        /* \"#utility.yul\":16004:16105   */\n    tag_410:\n        /* \"#utility.yul\":15853:16111   */\n      pop\n        /* \"#utility.yul\":15804:16111   */\n      pop\n      pop\n      pop\n      jump\t// out\n        /* \"#utility.yul\":16117:16457   */\n    tag_211:\n        /* \"#utility.yul\":16193:16196   */\n      0x00\n        /* \"#utility.yul\":16221:16259   */\n      tag_412\n        /* \"#utility.yul\":16253:16258   */\n      dup3\n        /* \"#utility.yul\":16221:16259   */\n      tag_208\n      jump\t// in\n    tag_412:\n        /* \"#utility.yul\":16275:16335   */\n      tag_413\n        /* \"#utility.yul\":16328:16334   */\n      dup2\n        /* \"#utility.yul\":16323:16326   */\n      dup6\n        /* \"#utility.yul\":16275:16335   */\n      tag_209\n      jump\t// in\n    tag_413:\n        /* \"#utility.yul\":16268:16335   */\n      swap4\n      pop\n        /* \"#utility.yul\":16344:16396   */\n      tag_414\n        /* \"#utility.yul\":16389:16395   */\n      dup2\n        /* \"#utility.yul\":16384:16387   */\n      dup6\n        /* \"#utility.yul\":16377:16381   */\n      0x20\n        /* \"#utility.yul\":16370:16375   */\n      dup7\n        /* \"#utility.yul\":16366:16382   */\n      add\n        /* \"#utility.yul\":16344:16396   */\n      tag_210\n      jump\t// in\n    tag_414:\n        /* \"#utility.yul\":16421:16450   */\n      tag_415\n        /* \"#utility.yul\":16443:16449   */\n      dup2\n        /* \"#utility.yul\":16421:16450   */\n      tag_165\n      jump\t// in\n    tag_415:\n        /* \"#utility.yul\":16416:16419   */\n      dup5\n        /* \"#utility.yul\":16412:16451   */\n      add\n        /* \"#utility.yul\":16405:16451   */\n      swap2\n      pop\n        /* \"#utility.yul\":16197:16457   */\n      pop\n        /* \"#utility.yul\":16117:16457   */\n      swap3\n      swap2\n      pop\n      pop\n      jump\t// out\n        /* \"#utility.yul\":16463:16553   */\n    tag_212:\n        /* \"#utility.yul\":16497:16504   */\n      0x00\n        /* \"#utility.yul\":16540:16545   */\n      dup2\n        /* \"#utility.yul\":16533:16546   */\n      iszero\n        /* \"#utility.yul\":16526:16547   */\n      iszero\n        /* \"#utility.yul\":16515:16547   */\n      swap1\n      pop\n        /* \"#utility.yul\":16463:16553   */\n      swap2\n      swap1\n      pop\n      jump\t// out\n        /* \"#utility.yul\":16559:16658   */\n    tag_213:\n        /* \"#utility.yul\":16630:16651   */\n      tag_418\n        /* \"#utility.yul\":16645:16650   */\n      dup2\n        /* \"#utility.yul\":16630:16651   */\n      tag_212\n      jump\t// in\n    tag_418:\n        /* \"#utility.yul\":16625:16628   */\n      dup3\n        /* \"#utility.yul\":16618:16652   */\n      mstore\n        /* \"#utility.yul\":16559:16658   */\n      pop\n      pop\n      jump\t// out\n        /* \"#utility.yul\":16742:17950   */\n    tag_214:\n        /* \"#utility.yul\":16877:16880   */\n      0x00\n        /* \"#utility.yul\":16913:16917   */\n      0x80\n        /* \"#utility.yul\":16908:16911   */\n      dup4\n        /* \"#utility.yul\":16904:16918   */\n      add\n        /* \"#utility.yul\":17002:17006   */\n      0x00\n        /* \"#utility.yul\":16995:17000   */\n      dup4\n        /* \"#utility.yul\":16991:17007   */\n      add\n        /* \"#utility.yul\":16985:17008   */\n      mload\n        /* \"#utility.yul\":17055:17058   */\n      dup5\n        /* \"#utility.yul\":17049:17053   */\n      dup3\n        /* \"#utility.yul\":17045:17059   */\n      sub\n        /* \"#utility.yul\":17038:17042   */\n      0x00\n        /* \"#utility.yul\":17033:17036   */\n      dup7\n        /* \"#utility.yul\":17029:17043   */\n      add\n        /* \"#utility.yul\":17022:17060   */\n      mstore\n        /* \"#utility.yul\":17081:17199   */\n      tag_420\n        /* \"#utility.yul\":17194:17198   */\n      dup3\n        /* \"#utility.yul\":17180:17192   */\n      dup3\n        /* \"#utility.yul\":17081:17199   */\n      tag_205\n      jump\t// in\n    tag_420:\n        /* \"#utility.yul\":17073:17199   */\n      swap2\n      pop\n        /* \"#utility.yul\":16928:17210   */\n      pop\n        /* \"#utility.yul\":17300:17304   */\n      0x20\n        /* \"#utility.yul\":17293:17298   */\n      dup4\n        /* \"#utility.yul\":17289:17305   */\n      add\n        /* \"#utility.yul\":17283:17306   */\n      mload\n        /* \"#utility.yul\":17353:17356   */\n      dup5\n        /* \"#utility.yul\":17347:17351   */\n      dup3\n        /* \"#utility.yul\":17343:17357   */\n      sub\n        /* \"#utility.yul\":17336:17340   */\n      0x20\n        /* \"#utility.yul\":17331:17334   */\n      dup7\n        /* \"#utility.yul\":17327:17341   */\n      add\n        /* \"#utility.yul\":17320:17358   */\n      mstore\n        /* \"#utility.yul\":17379:17482   */\n      tag_421\n        /* \"#utility.yul\":17477:17481   */\n      dup3\n        /* \"#utility.yul\":17463:17475   */\n      dup3\n        /* \"#utility.yul\":17379:17482   */\n      tag_207\n      jump\t// in\n    tag_421:\n        /* \"#utility.yul\":17371:17482   */\n      swap2\n      pop\n        /* \"#utility.yul\":17220:17493   */\n      pop\n        /* \"#utility.yul\":17579:17583   */\n      0x40\n        /* \"#utility.yul\":17572:17577   */\n      dup4\n        /* \"#utility.yul\":17568:17584   */\n      add\n        /* \"#utility.yul\":17562:17585   */\n      mload\n        /* \"#utility.yul\":17632:17635   */\n      dup5\n        /* \"#utility.yul\":17626:17630   */\n      dup3\n        /* \"#utility.yul\":17622:17636   */\n      sub\n        /* \"#utility.yul\":17615:17619   */\n      0x40\n        /* \"#utility.yul\":17610:17613   */\n      dup7\n        /* \"#utility.yul\":17606:17620   */\n      add\n        /* \"#utility.yul\":17599:17637   */\n      mstore\n        /* \"#utility.yul\":17658:17729   */\n      tag_422\n        /* \"#utility.yul\":17724:17728   */\n      dup3\n        /* \"#utility.yul\":17710:17722   */\n      dup3\n        /* \"#utility.yul\":17658:17729   */\n      tag_211\n      jump\t// in\n    tag_422:\n        /* \"#utility.yul\":17650:17729   */\n      swap2\n      pop\n        /* \"#utility.yul\":17503:17740   */\n      pop\n        /* \"#utility.yul\":17837:17841   */\n      0x60\n        /* \"#utility.yul\":17830:17835   */\n      dup4\n        /* \"#utility.yul\":17826:17842   */\n      add\n        /* \"#utility.yul\":17820:17843   */\n      mload\n        /* \"#utility.yul\":17856:17913   */\n      tag_423\n        /* \"#utility.yul\":17907:17911   */\n      0x60\n        /* \"#utility.yul\":17902:17905   */\n      dup7\n        /* \"#utility.yul\":17898:17912   */\n      add\n        /* \"#utility.yul\":17884:17896   */\n      dup3\n        /* \"#utility.yul\":17856:17913   */\n      tag_213\n      jump\t// in\n    tag_423:\n        /* \"#utility.yul\":17750:17923   */\n      pop\n        /* \"#utility.yul\":17940:17944   */\n      dup1\n        /* \"#utility.yul\":17933:17944   */\n      swap2\n      pop\n        /* \"#utility.yul\":16882:17950   */\n      pop\n        /* \"#utility.yul\":16742:17950   */\n      swap3\n      swap2\n      pop\n      pop\n      jump\t// out\n        /* \"#utility.yul\":17956:18692   */\n    tag_67:\n        /* \"#utility.yul\":18199:18203   */\n      0x00\n        /* \"#utility.yul\":18237:18240   */\n      0x80\n        /* \"#utility.yul\":18226:18235   */\n      dup3\n        /* \"#utility.yul\":18222:18241   */\n      add\n        /* \"#utility.yul\":18214:18241   */\n      swap1\n      pop\n        /* \"#utility.yul\":18251:18322   */\n      tag_425\n        /* \"#utility.yul\":18319:18320   */\n      0x00\n        /* \"#utility.yul\":18308:18317   */\n      dup4\n        /* \"#utility.yul\":18304:18321   */\n      add\n        /* \"#utility.yul\":18295:18301   */\n      dup8\n        /* \"#utility.yul\":18251:18322   */\n      tag_194\n      jump\t// in\n    tag_425:\n        /* \"#utility.yul\":18332:18404   */\n      tag_426\n        /* \"#utility.yul\":18400:18402   */\n      0x20\n        /* \"#utility.yul\":18389:18398   */\n      dup4\n        /* \"#utility.yul\":18385:18403   */\n      add\n        /* \"#utility.yul\":18376:18382   */\n      dup7\n        /* \"#utility.yul\":18332:18404   */\n      tag_158\n      jump\t// in\n    tag_426:\n        /* \"#utility.yul\":18414:18486   */\n      tag_427\n        /* \"#utility.yul\":18482:18484   */\n      0x40\n        /* \"#utility.yul\":18471:18480   */\n      dup4\n        /* \"#utility.yul\":18467:18485   */\n      add\n        /* \"#utility.yul\":18458:18464   */\n      dup6\n        /* \"#utility.yul\":18414:18486   */\n      tag_158\n      jump\t// in\n    tag_427:\n        /* \"#utility.yul\":18533:18542   */\n      dup2\n        /* \"#utility.yul\":18527:18531   */\n      dup2\n        /* \"#utility.yul\":18523:18543   */\n      sub\n        /* \"#utility.yul\":18518:18520   */\n      0x60\n        /* \"#utility.yul\":18507:18516   */\n      dup4\n        /* \"#utility.yul\":18503:18521   */\n      add\n        /* \"#utility.yul\":18496:18544   */\n      mstore\n        /* \"#utility.yul\":18561:18685   */\n      tag_428\n        /* \"#utility.yul\":18680:18684   */\n      dup2\n        /* \"#utility.yul\":18671:18677   */\n      dup5\n        /* \"#utility.yul\":18561:18685   */\n      tag_214\n      jump\t// in\n    tag_428:\n        /* \"#utility.yul\":18553:18685   */\n      swap1\n      pop\n        /* \"#utility.yul\":17956:18692   */\n      swap6\n      swap5\n      pop\n      pop\n      pop\n      pop\n      pop\n      jump\t// out\n        /* \"#utility.yul\":18698:18841   */\n    tag_215:\n        /* \"#utility.yul\":18755:18760   */\n      0x00\n        /* \"#utility.yul\":18786:18792   */\n      dup2\n        /* \"#utility.yul\":18780:18793   */\n      mload\n        /* \"#utility.yul\":18771:18793   */\n      swap1\n      pop\n        /* \"#utility.yul\":18802:18835   */\n      tag_430\n        /* \"#utility.yul\":18829:18834   */\n      dup2\n        /* \"#utility.yul\":18802:18835   */\n      tag_178\n      jump\t// in\n    tag_430:\n        /* \"#utility.yul\":18698:18841   */\n      swap3\n      swap2\n      pop\n      pop\n      jump\t// out\n        /* \"#utility.yul\":18847:19198   */\n    tag_82:\n        /* \"#utility.yul\":18917:18923   */\n      0x00\n        /* \"#utility.yul\":18966:18968   */\n      0x20\n        /* \"#utility.yul\":18954:18963   */\n      dup3\n        /* \"#utility.yul\":18945:18952   */\n      dup5\n        /* \"#utility.yul\":18941:18964   */\n      sub\n        /* \"#utility.yul\":18937:18969   */\n      slt\n        /* \"#utility.yul\":18934:19053   */\n      iszero\n      tag_432\n      jumpi\n        /* \"#utility.yul\":18972:19051   */\n      tag_433\n      tag_160\n      jump\t// in\n    tag_433:\n        /* \"#utility.yul\":18934:19053   */\n    tag_432:\n        /* \"#utility.yul\":19092:19093   */\n      0x00\n        /* \"#utility.yul\":19117:19181   */\n      tag_434\n        /* \"#utility.yul\":19173:19180   */\n      dup5\n        /* \"#utility.yul\":19164:19170   */\n      dup3\n        /* \"#utility.yul\":19153:19162   */\n      dup6\n        /* \"#utility.yul\":19149:19171   */\n      add\n        /* \"#utility.yul\":19117:19181   */\n      tag_215\n      jump\t// in\n    tag_434:\n        /* \"#utility.yul\":19107:19181   */\n      swap2\n      pop\n        /* \"#utility.yul\":19063:19191   */\n      pop\n        /* \"#utility.yul\":18847:19198   */\n      swap3\n      swap2\n      pop\n      pop\n      jump\t// out\n        /* \"#utility.yul\":19204:19289   */\n    tag_216:\n        /* \"#utility.yul\":19249:19256   */\n      0x00\n        /* \"#utility.yul\":19278:19283   */\n      dup2\n        /* \"#utility.yul\":19267:19283   */\n      swap1\n      pop\n        /* \"#utility.yul\":19204:19289   */\n      swap2\n      swap1\n      pop\n      jump\t// out\n        /* \"#utility.yul\":19295:19449   */\n    tag_217:\n        /* \"#utility.yul\":19351:19360   */\n      0x00\n        /* \"#utility.yul\":19384:19443   */\n      tag_437\n        /* \"#utility.yul\":19400:19442   */\n      tag_438\n        /* \"#utility.yul\":19409:19441   */\n      tag_439\n        /* \"#utility.yul\":19435:19440   */\n      dup5\n        /* \"#utility.yul\":19409:19441   */\n      tag_216\n      jump\t// in\n    tag_439:\n        /* \"#utility.yul\":19400:19442   */\n      tag_198\n      jump\t// in\n    tag_438:\n        /* \"#utility.yul\":19384:19443   */\n      tag_185\n      jump\t// in\n    tag_437:\n        /* \"#utility.yul\":19371:19443   */\n      swap1\n      pop\n        /* \"#utility.yul\":19295:19449   */\n      swap2\n      swap1\n      pop\n      jump\t// out\n        /* \"#utility.yul\":19455:19598   */\n    tag_218:\n        /* \"#utility.yul\":19548:19591   */\n      tag_441\n        /* \"#utility.yul\":19585:19590   */\n      dup2\n        /* \"#utility.yul\":19548:19591   */\n      tag_217\n      jump\t// in\n    tag_441:\n        /* \"#utility.yul\":19543:19546   */\n      dup3\n        /* \"#utility.yul\":19536:19592   */\n      mstore\n        /* \"#utility.yul\":19455:19598   */\n      pop\n      pop\n      jump\t// out\n        /* \"#utility.yul\":19604:20058   */\n    tag_91:\n        /* \"#utility.yul\":19759:19763   */\n      0x00\n        /* \"#utility.yul\":19797:19799   */\n      0x60\n        /* \"#utility.yul\":19786:19795   */\n      dup3\n        /* \"#utility.yul\":19782:19800   */\n      add\n        /* \"#utility.yul\":19774:19800   */\n      swap1\n      pop\n        /* \"#utility.yul\":19810:19887   */\n      tag_443\n        /* \"#utility.yul\":19884:19885   */\n      0x00\n        /* \"#utility.yul\":19873:19882   */\n      dup4\n        /* \"#utility.yul\":19869:19886   */\n      add\n        /* \"#utility.yul\":19860:19866   */\n      dup7\n        /* \"#utility.yul\":19810:19887   */\n      tag_218\n      jump\t// in\n    tag_443:\n        /* \"#utility.yul\":19897:19969   */\n      tag_444\n        /* \"#utility.yul\":19965:19967   */\n      0x20\n        /* \"#utility.yul\":19954:19963   */\n      dup4\n        /* \"#utility.yul\":19950:19968   */\n      add\n        /* \"#utility.yul\":19941:19947   */\n      dup6\n        /* \"#utility.yul\":19897:19969   */\n      tag_184\n      jump\t// in\n    tag_444:\n        /* \"#utility.yul\":19979:20051   */\n      tag_445\n        /* \"#utility.yul\":20047:20049   */\n      0x40\n        /* \"#utility.yul\":20036:20045   */\n      dup4\n        /* \"#utility.yul\":20032:20050   */\n      add\n        /* \"#utility.yul\":20023:20029   */\n      dup5\n        /* \"#utility.yul\":19979:20051   */\n      tag_184\n      jump\t// in\n    tag_445:\n        /* \"#utility.yul\":19604:20058   */\n      swap5\n      swap4\n      pop\n      pop\n      pop\n      pop\n      jump\t// out\n        /* \"#utility.yul\":20064:20168   */\n    tag_219:\n        /* \"#utility.yul\":20109:20116   */\n      0x00\n        /* \"#utility.yul\":20138:20162   */\n      tag_447\n        /* \"#utility.yul\":20156:20161   */\n      dup3\n        /* \"#utility.yul\":20138:20162   */\n      tag_156\n      jump\t// in\n    tag_447:\n        /* \"#utility.yul\":20127:20162   */\n      swap1\n      pop\n        /* \"#utility.yul\":20064:20168   */\n      swap2\n      swap1\n      pop\n      jump\t// out\n        /* \"#utility.yul\":20174:20316   */\n    tag_220:\n        /* \"#utility.yul\":20277:20309   */\n      tag_449\n        /* \"#utility.yul\":20303:20308   */\n      dup2\n        /* \"#utility.yul\":20277:20309   */\n      tag_219\n      jump\t// in\n    tag_449:\n        /* \"#utility.yul\":20272:20275   */\n      dup3\n        /* \"#utility.yul\":20265:20310   */\n      mstore\n        /* \"#utility.yul\":20174:20316   */\n      pop\n      pop\n      jump\t// out\n        /* \"#utility.yul\":20400:21607   */\n    tag_221:\n        /* \"#utility.yul\":20535:20538   */\n      0x00\n        /* \"#utility.yul\":20571:20575   */\n      0x80\n        /* \"#utility.yul\":20566:20569   */\n      dup4\n        /* \"#utility.yul\":20562:20576   */\n      add\n        /* \"#utility.yul\":20660:20664   */\n      0x00\n        /* \"#utility.yul\":20653:20658   */\n      dup4\n        /* \"#utility.yul\":20649:20665   */\n      add\n        /* \"#utility.yul\":20643:20666   */\n      mload\n        /* \"#utility.yul\":20713:20716   */\n      dup5\n        /* \"#utility.yul\":20707:20711   */\n      dup3\n        /* \"#utility.yul\":20703:20717   */\n      sub\n        /* \"#utility.yul\":20696:20700   */\n      0x00\n        /* \"#utility.yul\":20691:20694   */\n      dup7\n        /* \"#utility.yul\":20687:20701   */\n      add\n        /* \"#utility.yul\":20680:20718   */\n      mstore\n        /* \"#utility.yul\":20739:20857   */\n      tag_451\n        /* \"#utility.yul\":20852:20856   */\n      dup3\n        /* \"#utility.yul\":20838:20850   */\n      dup3\n        /* \"#utility.yul\":20739:20857   */\n      tag_205\n      jump\t// in\n    tag_451:\n        /* \"#utility.yul\":20731:20857   */\n      swap2\n      pop\n        /* \"#utility.yul\":20586:20868   */\n      pop\n        /* \"#utility.yul\":20959:20963   */\n      0x20\n        /* \"#utility.yul\":20952:20957   */\n      dup4\n        /* \"#utility.yul\":20948:20964   */\n      add\n        /* \"#utility.yul\":20942:20965   */\n      mload\n        /* \"#utility.yul\":21012:21015   */\n      dup5\n        /* \"#utility.yul\":21006:21010   */\n      dup3\n        /* \"#utility.yul\":21002:21016   */\n      sub\n        /* \"#utility.yul\":20995:20999   */\n      0x20\n        /* \"#utility.yul\":20990:20993   */\n      dup7\n        /* \"#utility.yul\":20986:21000   */\n      add\n        /* \"#utility.yul\":20979:21017   */\n      mstore\n        /* \"#utility.yul\":21038:21141   */\n      tag_452\n        /* \"#utility.yul\":21136:21140   */\n      dup3\n        /* \"#utility.yul\":21122:21134   */\n      dup3\n        /* \"#utility.yul\":21038:21141   */\n      tag_207\n      jump\t// in\n    tag_452:\n        /* \"#utility.yul\":21030:21141   */\n      swap2\n      pop\n        /* \"#utility.yul\":20878:21152   */\n      pop\n        /* \"#utility.yul\":21238:21242   */\n      0x40\n        /* \"#utility.yul\":21231:21236   */\n      dup4\n        /* \"#utility.yul\":21227:21243   */\n      add\n        /* \"#utility.yul\":21221:21244   */\n      mload\n        /* \"#utility.yul\":21291:21294   */\n      dup5\n        /* \"#utility.yul\":21285:21289   */\n      dup3\n        /* \"#utility.yul\":21281:21295   */\n      sub\n        /* \"#utility.yul\":21274:21278   */\n      0x40\n        /* \"#utility.yul\":21269:21272   */\n      dup7\n        /* \"#utility.yul\":21265:21279   */\n      add\n        /* \"#utility.yul\":21258:21296   */\n      mstore\n        /* \"#utility.yul\":21317:21388   */\n      tag_453\n        /* \"#utility.yul\":21383:21387   */\n      dup3\n        /* \"#utility.yul\":21369:21381   */\n      dup3\n        /* \"#utility.yul\":21317:21388   */\n      tag_211\n      jump\t// in\n    tag_453:\n        /* \"#utility.yul\":21309:21388   */\n      swap2\n      pop\n        /* \"#utility.yul\":21162:21399   */\n      pop\n        /* \"#utility.yul\":21494:21498   */\n      0x60\n        /* \"#utility.yul\":21487:21492   */\n      dup4\n        /* \"#utility.yul\":21483:21499   */\n      add\n        /* \"#utility.yul\":21477:21500   */\n      mload\n        /* \"#utility.yul\":21513:21570   */\n      tag_454\n        /* \"#utility.yul\":21564:21568   */\n      0x60\n        /* \"#utility.yul\":21559:21562   */\n      dup7\n        /* \"#utility.yul\":21555:21569   */\n      add\n        /* \"#utility.yul\":21541:21553   */\n      dup3\n        /* \"#utility.yul\":21513:21570   */\n      tag_213\n      jump\t// in\n    tag_454:\n        /* \"#utility.yul\":21409:21580   */\n      pop\n        /* \"#utility.yul\":21597:21601   */\n      dup1\n        /* \"#utility.yul\":21590:21601   */\n      swap2\n      pop\n        /* \"#utility.yul\":20540:21607   */\n      pop\n        /* \"#utility.yul\":20400:21607   */\n      swap3\n      swap2\n      pop\n      pop\n      jump\t// out\n        /* \"#utility.yul\":21613:22381   */\n    tag_95:\n        /* \"#utility.yul\":21872:21876   */\n      0x00\n        /* \"#utility.yul\":21910:21913   */\n      0x80\n        /* \"#utility.yul\":21899:21908   */\n      dup3\n        /* \"#utility.yul\":21895:21914   */\n      add\n        /* \"#utility.yul\":21887:21914   */\n      swap1\n      pop\n        /* \"#utility.yul\":21924:21995   */\n      tag_456\n        /* \"#utility.yul\":21992:21993   */\n      0x00\n        /* \"#utility.yul\":21981:21990   */\n      dup4\n        /* \"#utility.yul\":21977:21994   */\n      add\n        /* \"#utility.yul\":21968:21974   */\n      dup8\n        /* \"#utility.yul\":21924:21995   */\n      tag_194\n      jump\t// in\n    tag_456:\n        /* \"#utility.yul\":22005:22077   */\n      tag_457\n        /* \"#utility.yul\":22073:22075   */\n      0x20\n        /* \"#utility.yul\":22062:22071   */\n      dup4\n        /* \"#utility.yul\":22058:22076   */\n      add\n        /* \"#utility.yul\":22049:22055   */\n      dup7\n        /* \"#utility.yul\":22005:22077   */\n      tag_158\n      jump\t// in\n    tag_457:\n        /* \"#utility.yul\":22087:22175   */\n      tag_458\n        /* \"#utility.yul\":22171:22173   */\n      0x40\n        /* \"#utility.yul\":22160:22169   */\n      dup4\n        /* \"#utility.yul\":22156:22174   */\n      add\n        /* \"#utility.yul\":22147:22153   */\n      dup6\n        /* \"#utility.yul\":22087:22175   */\n      tag_220\n      jump\t// in\n    tag_458:\n        /* \"#utility.yul\":22222:22231   */\n      dup2\n        /* \"#utility.yul\":22216:22220   */\n      dup2\n        /* \"#utility.yul\":22212:22232   */\n      sub\n        /* \"#utility.yul\":22207:22209   */\n      0x60\n        /* \"#utility.yul\":22196:22205   */\n      dup4\n        /* \"#utility.yul\":22192:22210   */\n      add\n        /* \"#utility.yul\":22185:22233   */\n      mstore\n        /* \"#utility.yul\":22250:22374   */\n      tag_459\n        /* \"#utility.yul\":22369:22373   */\n      dup2\n        /* \"#utility.yul\":22360:22366   */\n      dup5\n        /* \"#utility.yul\":22250:22374   */\n      tag_221\n      jump\t// in\n    tag_459:\n        /* \"#utility.yul\":22242:22374   */\n      swap1\n      pop\n        /* \"#utility.yul\":21613:22381   */\n      swap6\n      swap5\n      pop\n      pop\n      pop\n      pop\n      pop\n      jump\t// out\n        /* \"#utility.yul\":22387:22503   */\n    tag_222:\n        /* \"#utility.yul\":22457:22478   */\n      tag_461\n        /* \"#utility.yul\":22472:22477   */\n      dup2\n        /* \"#utility.yul\":22457:22478   */\n      tag_212\n      jump\t// in\n    tag_461:\n        /* \"#utility.yul\":22450:22455   */\n      dup2\n        /* \"#utility.yul\":22447:22479   */\n      eq\n        /* \"#utility.yul\":22437:22497   */\n      tag_462\n      jumpi\n        /* \"#utility.yul\":22493:22494   */\n      0x00\n        /* \"#utility.yul\":22490:22491   */\n      dup1\n        /* \"#utility.yul\":22483:22495   */\n      revert\n        /* \"#utility.yul\":22437:22497   */\n    tag_462:\n        /* \"#utility.yul\":22387:22503   */\n      pop\n      jump\t// out\n        /* \"#utility.yul\":22509:22646   */\n    tag_223:\n        /* \"#utility.yul\":22563:22568   */\n      0x00\n        /* \"#utility.yul\":22594:22600   */\n      dup2\n        /* \"#utility.yul\":22588:22601   */\n      mload\n        /* \"#utility.yul\":22579:22601   */\n      swap1\n      pop\n        /* \"#utility.yul\":22610:22640   */\n      tag_464\n        /* \"#utility.yul\":22634:22639   */\n      dup2\n        /* \"#utility.yul\":22610:22640   */\n      tag_222\n      jump\t// in\n    tag_464:\n        /* \"#utility.yul\":22509:22646   */\n      swap3\n      swap2\n      pop\n      pop\n      jump\t// out\n        /* \"#utility.yul\":22652:22997   */\n    tag_104:\n        /* \"#utility.yul\":22719:22725   */\n      0x00\n        /* \"#utility.yul\":22768:22770   */\n      0x20\n        /* \"#utility.yul\":22756:22765   */\n      dup3\n        /* \"#utility.yul\":22747:22754   */\n      dup5\n        /* \"#utility.yul\":22743:22766   */\n      sub\n        /* \"#utility.yul\":22739:22771   */\n      slt\n        /* \"#utility.yul\":22736:22855   */\n      iszero\n      tag_466\n      jumpi\n        /* \"#utility.yul\":22774:22853   */\n      tag_467\n      tag_160\n      jump\t// in\n    tag_467:\n        /* \"#utility.yul\":22736:22855   */\n    tag_466:\n        /* \"#utility.yul\":22894:22895   */\n      0x00\n        /* \"#utility.yul\":22919:22980   */\n      tag_468\n        /* \"#utility.yul\":22972:22979   */\n      dup5\n        /* \"#utility.yul\":22963:22969   */\n      dup3\n        /* \"#utility.yul\":22952:22961   */\n      dup6\n        /* \"#utility.yul\":22948:22970   */\n      add\n        /* \"#utility.yul\":22919:22980   */\n      tag_223\n      jump\t// in\n    tag_468:\n        /* \"#utility.yul\":22909:22980   */\n      swap2\n      pop\n        /* \"#utility.yul\":22865:22990   */\n      pop\n        /* \"#utility.yul\":22652:22997   */\n      swap3\n      swap2\n      pop\n      pop\n      jump\t// out\n        /* \"#utility.yul\":23003:23172   */\n    tag_224:\n        /* \"#utility.yul\":23087:23098   */\n      0x00\n        /* \"#utility.yul\":23121:23127   */\n      dup3\n        /* \"#utility.yul\":23116:23119   */\n      dup3\n        /* \"#utility.yul\":23109:23128   */\n      mstore\n        /* \"#utility.yul\":23161:23165   */\n      0x20\n        /* \"#utility.yul\":23156:23159   */\n      dup3\n        /* \"#utility.yul\":23152:23166   */\n      add\n        /* \"#utility.yul\":23137:23166   */\n      swap1\n      pop\n        /* \"#utility.yul\":23003:23172   */\n      swap3\n      swap2\n      pop\n      pop\n      jump\t// out\n        /* \"#utility.yul\":23178:23407   */\n    tag_225:\n        /* \"#utility.yul\":23318:23352   */\n      0x5361666545524332303a204552433230206f7065726174696f6e20646964206e\n        /* \"#utility.yul\":23314:23315   */\n      0x00\n        /* \"#utility.yul\":23306:23312   */\n      dup3\n        /* \"#utility.yul\":23302:23316   */\n      add\n        /* \"#utility.yul\":23295:23353   */\n      mstore\n        /* \"#utility.yul\":23387:23399   */\n      0x6f74207375636365656400000000000000000000000000000000000000000000\n        /* \"#utility.yul\":23382:23384   */\n      0x20\n        /* \"#utility.yul\":23374:23380   */\n      dup3\n        /* \"#utility.yul\":23370:23385   */\n      add\n        /* \"#utility.yul\":23363:23400   */\n      mstore\n        /* \"#utility.yul\":23178:23407   */\n      pop\n      jump\t// out\n        /* \"#utility.yul\":23413:23779   */\n    tag_226:\n        /* \"#utility.yul\":23555:23558   */\n      0x00\n        /* \"#utility.yul\":23576:23643   */\n      tag_472\n        /* \"#utility.yul\":23640:23642   */\n      0x2a\n        /* \"#utility.yul\":23635:23638   */\n      dup4\n        /* \"#utility.yul\":23576:23643   */\n      tag_224\n      jump\t// in\n    tag_472:\n        /* \"#utility.yul\":23569:23643   */\n      swap2\n      pop\n        /* \"#utility.yul\":23652:23745   */\n      tag_473\n        /* \"#utility.yul\":23741:23744   */\n      dup3\n        /* \"#utility.yul\":23652:23745   */\n      tag_225\n      jump\t// in\n    tag_473:\n        /* \"#utility.yul\":23770:23772   */\n      0x40\n        /* \"#utility.yul\":23765:23768   */\n      dup3\n        /* \"#utility.yul\":23761:23773   */\n      add\n        /* \"#utility.yul\":23754:23773   */\n      swap1\n      pop\n        /* \"#utility.yul\":23413:23779   */\n      swap2\n      swap1\n      pop\n      jump\t// out\n        /* \"#utility.yul\":23785:24204   */\n    tag_107:\n        /* \"#utility.yul\":23951:23955   */\n      0x00\n        /* \"#utility.yul\":23989:23991   */\n      0x20\n        /* \"#utility.yul\":23978:23987   */\n      dup3\n        /* \"#utility.yul\":23974:23992   */\n      add\n        /* \"#utility.yul\":23966:23992   */\n      swap1\n      pop\n        /* \"#utility.yul\":24038:24047   */\n      dup2\n        /* \"#utility.yul\":24032:24036   */\n      dup2\n        /* \"#utility.yul\":24028:24048   */\n      sub\n        /* \"#utility.yul\":24024:24025   */\n      0x00\n        /* \"#utility.yul\":24013:24022   */\n      dup4\n        /* \"#utility.yul\":24009:24026   */\n      add\n        /* \"#utility.yul\":24002:24049   */\n      mstore\n        /* \"#utility.yul\":24066:24197   */\n      tag_475\n        /* \"#utility.yul\":24192:24196   */\n      dup2\n        /* \"#utility.yul\":24066:24197   */\n      tag_226\n      jump\t// in\n    tag_475:\n        /* \"#utility.yul\":24058:24197   */\n      swap1\n      pop\n        /* \"#utility.yul\":23785:24204   */\n      swap2\n      swap1\n      pop\n      jump\t// out\n        /* \"#utility.yul\":24210:24542   */\n    tag_110:\n        /* \"#utility.yul\":24331:24335   */\n      0x00\n        /* \"#utility.yul\":24369:24371   */\n      0x40\n        /* \"#utility.yul\":24358:24367   */\n      dup3\n        /* \"#utility.yul\":24354:24372   */\n      add\n        /* \"#utility.yul\":24346:24372   */\n      swap1\n      pop\n        /* \"#utility.yul\":24382:24453   */\n      tag_477\n        /* \"#utility.yul\":24450:24451   */\n      0x00\n        /* \"#utility.yul\":24439:24448   */\n      dup4\n        /* \"#utility.yul\":24435:24452   */\n      add\n        /* \"#utility.yul\":24426:24432   */\n      dup6\n        /* \"#utility.yul\":24382:24453   */\n      tag_158\n      jump\t// in\n    tag_477:\n        /* \"#utility.yul\":24463:24535   */\n      tag_478\n        /* \"#utility.yul\":24531:24533   */\n      0x20\n        /* \"#utility.yul\":24520:24529   */\n      dup4\n        /* \"#utility.yul\":24516:24534   */\n      add\n        /* \"#utility.yul\":24507:24513   */\n      dup5\n        /* \"#utility.yul\":24463:24535   */\n      tag_158\n      jump\t// in\n    tag_478:\n        /* \"#utility.yul\":24210:24542   */\n      swap4\n      swap3\n      pop\n      pop\n      pop\n      jump\t// out\n        /* \"#utility.yul\":24548:24728   */\n    tag_227:\n        /* \"#utility.yul\":24596:24673   */\n      0x4e487b7100000000000000000000000000000000000000000000000000000000\n        /* \"#utility.yul\":24593:24594   */\n      0x00\n        /* \"#utility.yul\":24586:24674   */\n      mstore\n        /* \"#utility.yul\":24693:24697   */\n      0x11\n        /* \"#utility.yul\":24690:24691   */\n      0x04\n        /* \"#utility.yul\":24683:24698   */\n      mstore\n        /* \"#utility.yul\":24717:24721   */\n      0x24\n        /* \"#utility.yul\":24714:24715   */\n      0x00\n        /* \"#utility.yul\":24707:24722   */\n      revert\n        /* \"#utility.yul\":24734:25039   */\n    tag_115:\n        /* \"#utility.yul\":24774:24777   */\n      0x00\n        /* \"#utility.yul\":24793:24813   */\n      tag_481\n        /* \"#utility.yul\":24811:24812   */\n      dup3\n        /* \"#utility.yul\":24793:24813   */\n      tag_177\n      jump\t// in\n    tag_481:\n        /* \"#utility.yul\":24788:24813   */\n      swap2\n      pop\n        /* \"#utility.yul\":24827:24847   */\n      tag_482\n        /* \"#utility.yul\":24845:24846   */\n      dup4\n        /* \"#utility.yul\":24827:24847   */\n      tag_177\n      jump\t// in\n    tag_482:\n        /* \"#utility.yul\":24822:24847   */\n      swap3\n      pop\n        /* \"#utility.yul\":24981:24982   */\n      dup3\n        /* \"#utility.yul\":24913:24979   */\n      0xffffffffffffffffffffffffffffffffffffffffffffffffffffffffffffffff\n        /* \"#utility.yul\":24909:24983   */\n      sub\n        /* \"#utility.yul\":24906:24907   */\n      dup3\n        /* \"#utility.yul\":24903:24984   */\n      gt\n        /* \"#utility.yul\":24900:25007   */\n      iszero\n      tag_483\n      jumpi\n        /* \"#utility.yul\":24987:25005   */\n      tag_484\n      tag_227\n      jump\t// in\n    tag_484:\n        /* \"#utility.yul\":24900:25007   */\n    tag_483:\n        /* \"#utility.yul\":25031:25032   */\n      dup3\n        /* \"#utility.yul\":25028:25029   */\n      dup3\n        /* \"#utility.yul\":25024:25033   */\n      add\n        /* \"#utility.yul\":25017:25033   */\n      swap1\n      pop\n        /* \"#utility.yul\":24734:25039   */\n      swap3\n      swap2\n      pop\n      pop\n      jump\t// out\n        /* \"#utility.yul\":25045:25377   */\n    tag_118:\n        /* \"#utility.yul\":25166:25170   */\n      0x00\n        /* \"#utility.yul\":25204:25206   */\n      0x40\n        /* \"#utility.yul\":25193:25202   */\n      dup3\n        /* \"#utility.yul\":25189:25207   */\n      add\n        /* \"#utility.yul\":25181:25207   */\n      swap1\n      pop\n        /* \"#utility.yul\":25217:25288   */\n      tag_486\n        /* \"#utility.yul\":25285:25286   */\n      0x00\n        /* \"#utility.yul\":25274:25283   */\n      dup4\n        /* \"#utility.yul\":25270:25287   */\n      add\n        /* \"#utility.yul\":25261:25267   */\n      dup6\n        /* \"#utility.yul\":25217:25288   */\n      tag_158\n      jump\t// in\n    tag_486:\n        /* \"#utility.yul\":25298:25370   */\n      tag_487\n        /* \"#utility.yul\":25366:25368   */\n      0x20\n        /* \"#utility.yul\":25355:25364   */\n      dup4\n        /* \"#utility.yul\":25351:25369   */\n      add\n        /* \"#utility.yul\":25342:25348   */\n      dup5\n        /* \"#utility.yul\":25298:25370   */\n      tag_184\n      jump\t// in\n    tag_487:\n        /* \"#utility.yul\":25045:25377   */\n      swap4\n      swap3\n      pop\n      pop\n      pop\n      jump\t// out\n        /* \"#utility.yul\":25383:25608   */\n    tag_228:\n        /* \"#utility.yul\":25523:25557   */\n      0x416464726573733a20696e73756666696369656e742062616c616e636520666f\n        /* \"#utility.yul\":25519:25520   */\n      0x00\n        /* \"#utility.yul\":25511:25517   */\n      dup3\n        /* \"#utility.yul\":25507:25521   */\n      add\n        /* \"#utility.yul\":25500:25558   */\n      mstore\n        /* \"#utility.yul\":25592:25600   */\n      0x722063616c6c0000000000000000000000000000000000000000000000000000\n        /* \"#utility.yul\":25587:25589   */\n      0x20\n        /* \"#utility.yul\":25579:25585   */\n      dup3\n        /* \"#utility.yul\":25575:25590   */\n      add\n        /* \"#utility.yul\":25568:25601   */\n      mstore\n        /* \"#utility.yul\":25383:25608   */\n      pop\n      jump\t// out\n        /* \"#utility.yul\":25614:25980   */\n    tag_229:\n        /* \"#utility.yul\":25756:25759   */\n      0x00\n        /* \"#utility.yul\":25777:25844   */\n      tag_490\n        /* \"#utility.yul\":25841:25843   */\n      0x26\n        /* \"#utility.yul\":25836:25839   */\n      dup4\n        /* \"#utility.yul\":25777:25844   */\n      tag_224\n      jump\t// in\n    tag_490:\n        /* \"#utility.yul\":25770:25844   */\n      swap2\n      pop\n        /* \"#utility.yul\":25853:25946   */\n      tag_491\n        /* \"#utility.yul\":25942:25945   */\n      dup3\n        /* \"#utility.yul\":25853:25946   */\n      tag_228\n      jump\t// in\n    tag_491:\n        /* \"#utility.yul\":25971:25973   */\n      0x40\n        /* \"#utility.yul\":25966:25969   */\n      dup3\n        /* \"#utility.yul\":25962:25974   */\n      add\n        /* \"#utility.yul\":25955:25974   */\n      swap1\n      pop\n        /* \"#utility.yul\":25614:25980   */\n      swap2\n      swap1\n      pop\n      jump\t// out\n        /* \"#utility.yul\":25986:26405   */\n    tag_135:\n        /* \"#utility.yul\":26152:26156   */\n      0x00\n        /* \"#utility.yul\":26190:26192   */\n      0x20\n        /* \"#utility.yul\":26179:26188   */\n      dup3\n        /* \"#utility.yul\":26175:26193   */\n      add\n        /* \"#utility.yul\":26167:26193   */\n      swap1\n      pop\n        /* \"#utility.yul\":26239:26248   */\n      dup2\n        /* \"#utility.yul\":26233:26237   */\n      dup2\n        /* \"#utility.yul\":26229:26249   */\n      sub\n        /* \"#utility.yul\":26225:26226   */\n      0x00\n        /* \"#utility.yul\":26214:26223   */\n      dup4\n        /* \"#utility.yul\":26210:26227   */\n      add\n        /* \"#utility.yul\":26203:26250   */\n      mstore\n        /* \"#utility.yul\":26267:26398   */\n      tag_493\n        /* \"#utility.yul\":26393:26397   */\n      dup2\n        /* \"#utility.yul\":26267:26398   */\n      tag_229\n      jump\t// in\n    tag_493:\n        /* \"#utility.yul\":26259:26398   */\n      swap1\n      pop\n        /* \"#utility.yul\":25986:26405   */\n      swap2\n      swap1\n      pop\n      jump\t// out\n        /* \"#utility.yul\":26411:26590   */\n    tag_230:\n        /* \"#utility.yul\":26551:26582   */\n      0x416464726573733a2063616c6c20746f206e6f6e2d636f6e7472616374000000\n        /* \"#utility.yul\":26547:26548   */\n      0x00\n        /* \"#utility.yul\":26539:26545   */\n      dup3\n        /* \"#utility.yul\":26535:26549   */\n      add\n        /* \"#utility.yul\":26528:26583   */\n      mstore\n        /* \"#utility.yul\":26411:26590   */\n      pop\n      jump\t// out\n        /* \"#utility.yul\":26596:26962   */\n    tag_231:\n        /* \"#utility.yul\":26738:26741   */\n      0x00\n        /* \"#utility.yul\":26759:26826   */\n      tag_496\n        /* \"#utility.yul\":26823:26825   */\n      0x1d\n        /* \"#utility.yul\":26818:26821   */\n      dup4\n        /* \"#utility.yul\":26759:26826   */\n      tag_224\n      jump\t// in\n    tag_496:\n        /* \"#utility.yul\":26752:26826   */\n      swap2\n      pop\n        /* \"#utility.yul\":26835:26928   */\n      tag_497\n        /* \"#utility.yul\":26924:26927   */\n      dup3\n        /* \"#utility.yul\":26835:26928   */\n      tag_230\n      jump\t// in\n    tag_497:\n        /* \"#utility.yul\":26953:26955   */\n      0x20\n        /* \"#utility.yul\":26948:26951   */\n      dup3\n        /* \"#utility.yul\":26944:26956   */\n      add\n        /* \"#utility.yul\":26937:26956   */\n      swap1\n      pop\n        /* \"#utility.yul\":26596:26962   */\n      swap2\n      swap1\n      pop\n      jump\t// out\n        /* \"#utility.yul\":26968:27387   */\n    tag_140:\n        /* \"#utility.yul\":27134:27138   */\n      0x00\n        /* \"#utility.yul\":27172:27174   */\n      0x20\n        /* \"#utility.yul\":27161:27170   */\n      dup3\n        /* \"#utility.yul\":27157:27175   */\n      add\n        /* \"#utility.yul\":27149:27175   */\n      swap1\n      pop\n        /* \"#utility.yul\":27221:27230   */\n      dup2\n        /* \"#utility.yul\":27215:27219   */\n      dup2\n        /* \"#utility.yul\":27211:27231   */\n      sub\n        /* \"#utility.yul\":27207:27208   */\n      0x00\n        /* \"#utility.yul\":27196:27205   */\n      dup4\n        /* \"#utility.yul\":27192:27209   */\n      add\n        /* \"#utility.yul\":27185:27232   */\n      mstore\n        /* \"#utility.yul\":27249:27380   */\n      tag_499\n        /* \"#utility.yul\":27375:27379   */\n      dup2\n        /* \"#utility.yul\":27249:27380   */\n      tag_231\n      jump\t// in\n    tag_499:\n        /* \"#utility.yul\":27241:27380   */\n      swap1\n      pop\n        /* \"#utility.yul\":26968:27387   */\n      swap2\n      swap1\n      pop\n      jump\t// out\n        /* \"#utility.yul\":27393:27540   */\n    tag_232:\n        /* \"#utility.yul\":27494:27505   */\n      0x00\n        /* \"#utility.yul\":27531:27534   */\n      dup2\n        /* \"#utility.yul\":27516:27534   */\n      swap1\n      pop\n        /* \"#utility.yul\":27393:27540   */\n      swap3\n      swap2\n      pop\n      pop\n      jump\t// out\n        /* \"#utility.yul\":27546:27919   */\n    tag_233:\n        /* \"#utility.yul\":27650:27653   */\n      0x00\n        /* \"#utility.yul\":27678:27716   */\n      tag_502\n        /* \"#utility.yul\":27710:27715   */\n      dup3\n        /* \"#utility.yul\":27678:27716   */\n      tag_208\n      jump\t// in\n    tag_502:\n        /* \"#utility.yul\":27732:27820   */\n      tag_503\n        /* \"#utility.yul\":27813:27819   */\n      dup2\n        /* \"#utility.yul\":27808:27811   */\n      dup6\n        /* \"#utility.yul\":27732:27820   */\n      tag_232\n      jump\t// in\n    tag_503:\n        /* \"#utility.yul\":27725:27820   */\n      swap4\n      pop\n        /* \"#utility.yul\":27829:27881   */\n      tag_504\n        /* \"#utility.yul\":27874:27880   */\n      dup2\n        /* \"#utility.yul\":27869:27872   */\n      dup6\n        /* \"#utility.yul\":27862:27866   */\n      0x20\n        /* \"#utility.yul\":27855:27860   */\n      dup7\n        /* \"#utility.yul\":27851:27867   */\n      add\n        /* \"#utility.yul\":27829:27881   */\n      tag_210\n      jump\t// in\n    tag_504:\n        /* \"#utility.yul\":27906:27912   */\n      dup1\n        /* \"#utility.yul\":27901:27904   */\n      dup5\n        /* \"#utility.yul\":27897:27913   */\n      add\n        /* \"#utility.yul\":27890:27913   */\n      swap2\n      pop\n        /* \"#utility.yul\":27654:27919   */\n      pop\n        /* \"#utility.yul\":27546:27919   */\n      swap3\n      swap2\n      pop\n      pop\n      jump\t// out\n        /* \"#utility.yul\":27925:28196   */\n    tag_142:\n        /* \"#utility.yul\":28055:28058   */\n      0x00\n        /* \"#utility.yul\":28077:28170   */\n      tag_506\n        /* \"#utility.yul\":28166:28169   */\n      dup3\n        /* \"#utility.yul\":28157:28163   */\n      dup5\n        /* \"#utility.yul\":28077:28170   */\n      tag_233\n      jump\t// in\n    tag_506:\n        /* \"#utility.yul\":28070:28170   */\n      swap2\n      pop\n        /* \"#utility.yul\":28187:28190   */\n      dup2\n        /* \"#utility.yul\":28180:28190   */\n      swap1\n      pop\n        /* \"#utility.yul\":27925:28196   */\n      swap3\n      swap2\n      pop\n      pop\n      jump\t// out\n        /* \"#utility.yul\":28202:28301   */\n    tag_234:\n        /* \"#utility.yul\":28254:28260   */\n      0x00\n        /* \"#utility.yul\":28288:28293   */\n      dup2\n        /* \"#utility.yul\":28282:28294   */\n      mload\n        /* \"#utility.yul\":28272:28294   */\n      swap1\n      pop\n        /* \"#utility.yul\":28202:28301   */\n      swap2\n      swap1\n      pop\n      jump\t// out\n        /* \"#utility.yul\":28307:28671   */\n    tag_235:\n        /* \"#utility.yul\":28395:28398   */\n      0x00\n        /* \"#utility.yul\":28423:28462   */\n      tag_509\n        /* \"#utility.yul\":28456:28461   */\n      dup3\n        /* \"#utility.yul\":28423:28462   */\n      tag_234\n      jump\t// in\n    tag_509:\n        /* \"#utility.yul\":28478:28549   */\n      tag_510\n        /* \"#utility.yul\":28542:28548   */\n      dup2\n        /* \"#utility.yul\":28537:28540   */\n      dup6\n        /* \"#utility.yul\":28478:28549   */\n      tag_224\n      jump\t// in\n    tag_510:\n        /* \"#utility.yul\":28471:28549   */\n      swap4\n      pop\n        /* \"#utility.yul\":28558:28610   */\n      tag_511\n        /* \"#utility.yul\":28603:28609   */\n      dup2\n        /* \"#utility.yul\":28598:28601   */\n      dup6\n        /* \"#utility.yul\":28591:28595   */\n      0x20\n        /* \"#utility.yul\":28584:28589   */\n      dup7\n        /* \"#utility.yul\":28580:28596   */\n      add\n        /* \"#utility.yul\":28558:28610   */\n      tag_210\n      jump\t// in\n    tag_511:\n        /* \"#utility.yul\":28635:28664   */\n      tag_512\n        /* \"#utility.yul\":28657:28663   */\n      dup2\n        /* \"#utility.yul\":28635:28664   */\n      tag_165\n      jump\t// in\n    tag_512:\n        /* \"#utility.yul\":28630:28633   */\n      dup5\n        /* \"#utility.yul\":28626:28665   */\n      add\n        /* \"#utility.yul\":28619:28665   */\n      swap2\n      pop\n        /* \"#utility.yul\":28399:28671   */\n      pop\n        /* \"#utility.yul\":28307:28671   */\n      swap3\n      swap2\n      pop\n      pop\n      jump\t// out\n        /* \"#utility.yul\":28677:28990   */\n    tag_155:\n        /* \"#utility.yul\":28790:28794   */\n      0x00\n        /* \"#utility.yul\":28828:28830   */\n      0x20\n        /* \"#utility.yul\":28817:28826   */\n      dup3\n        /* \"#utility.yul\":28813:28831   */\n      add\n        /* \"#utility.yul\":28805:28831   */\n      swap1\n      pop\n        /* \"#utility.yul\":28877:28886   */\n      dup2\n        /* \"#utility.yul\":28871:28875   */\n      dup2\n        /* \"#utility.yul\":28867:28887   */\n      sub\n        /* \"#utility.yul\":28863:28864   */\n      0x00\n        /* \"#utility.yul\":28852:28861   */\n      dup4\n        /* \"#utility.yul\":28848:28865   */\n      add\n        /* \"#utility.yul\":28841:28888   */\n      mstore\n        /* \"#utility.yul\":28905:28983   */\n      tag_514\n        /* \"#utility.yul\":28978:28982   */\n      dup2\n        /* \"#utility.yul\":28969:28975   */\n      dup5\n        /* \"#utility.yul\":28905:28983   */\n      tag_235\n      jump\t// in\n    tag_514:\n        /* \"#utility.yul\":28897:28983   */\n      swap1\n      pop\n        /* \"#utility.yul\":28677:28990   */\n      swap3\n      swap2\n      pop\n      pop\n      jump\t// out\n\n    auxdata: 0xa264697066735822122085911c863baf100c307fac0f10cc0ef94d11b02d43a5b686f6c873e2c150d05d64736f6c634300080d0033\n}\n",
				"bytecode": {
					"linkReferences": {},
					"object": "60a06040523480156200001157600080fd5b5060405162001c5e38038062001c5e8339818101604052810190620000379190620000dc565b8073ffffffffffffffffffffffffffffffffffffffff1660808173ffffffffffffffffffffffffffffffffffffffff1681525050506200010e565b600080fd5b600073ffffffffffffffffffffffffffffffffffffffff82169050919050565b6000620000a48262000077565b9050919050565b620000b68162000097565b8114620000c257600080fd5b50565b600081519050620000d681620000ab565b92915050565b600060208284031215620000f557620000f462000072565b5b60006200010584828501620000c5565b91505092915050565b608051611b206200013e6000396000818160c5015281816103fb0152818161045d01526106dc0152611b206000f3fe608060405234801561001057600080fd5b506004361061004c5760003560e01c806377aba213146100515780639cbcf4c71461006f578063bfbd38081461008b578063d62d2fbc146100a7575b600080fd5b6100596100c3565b6040516100669190610cf7565b60405180910390f35b6100896004803603810190610084919061101b565b6100e7565b005b6100a560048036038101906100a0919061108a565b610157565b005b6100c160048036038101906100bc91906110e6565b6101df565b005b7f000000000000000000000000000000000000000000000000000000000000000081565b6000826000015183602001518151811061010457610103611155565b5b602002602001015190508073ffffffffffffffffffffffffffffffffffffffff168473ffffffffffffffffffffffffffffffffffffffff16036101505761014b8383610157565b610151565b5b50505050565b6000826000015183602001518151811061017457610173611155565b5b602002602001015190506101ab3330848473ffffffffffffffffffffffffffffffffffffffff16610297909392919063ffffffff16565b6101c383600001518385602001518660400151610320565b6101da836060015184608001518560a001516104f7565b505050565b6000836080015190506102153330858473ffffffffffffffffffffffffffffffffffffffff16610297909392919063ffffffff16565b836080015173ffffffffffffffffffffffffffffffffffffffff1663853828b66040518163ffffffff1660e01b8152600401600060405180830381600087803b15801561026157600080fd5b505af1158015610275573d6000803e3d6000fd5b5050505061029184600001518386602001518760400151610610565b50505050565b61031a846323b872dd60e01b8585856040516024016102b893929190611193565b604051602081830303815290604052907bffffffffffffffffffffffffffffffffffffffffffffffffffffffff19166020820180517bffffffffffffffffffffffffffffffffffffffffffffffffffffffff8381831617835250505050610774565b50505050565b6000600190506000855167ffffffffffffffff81111561034357610342610d68565b5b6040519080825280602002602001820160405280156103715781602001602082028036833780820191505090505b5090508481858151811061038857610387611155565b5b60200260200101818152505060006001905060008383836040516020016103b1939291906112a4565b60405160208183030381529060405290506103ca610c62565b888160000181905250838160200181905250818160400181905250600081606001901515908115158152505061045b7f0000000000000000000000000000000000000000000000000000000000000000898b8a8151811061042e5761042d611155565b5b602002602001015173ffffffffffffffffffffffffffffffffffffffff1661083b9092919063ffffffff16565b7f000000000000000000000000000000000000000000000000000000000000000073ffffffffffffffffffffffffffffffffffffffff1663b95cac28873030856040518563ffffffff1660e01b81526004016104ba9493929190611582565b600060405180830381600087803b1580156104d457600080fd5b505af11580156104e8573d6000803e3d6000fd5b50505050505050505050505050565b610501828461094d565b8173ffffffffffffffffffffffffffffffffffffffff1663de5f62686040518163ffffffff1660e01b8152600401600060405180830381600087803b15801561054957600080fd5b505af115801561055d573d6000803e3d6000fd5b50505050600082905061060a828273ffffffffffffffffffffffffffffffffffffffff166370a08231306040518263ffffffff1660e01b81526004016105a39190610cf7565b602060405180830381865afa1580156105c0573d6000803e3d6000fd5b505050506040513d601f19601f820116820180604052508101906105e491906115e3565b8373ffffffffffffffffffffffffffffffffffffffff16610a269092919063ffffffff16565b50505050565b6000845167ffffffffffffffff81111561062d5761062c610d68565b5b60405190808252806020026020018201604052801561065b5781602001602082028036833780820191505090505b5090508381848151811061067257610671611155565b5b60200260200101818152505060008085856040516020016106959392919061164b565b60405160208183030381529060405290506106ae610c8c565b86816000018190525082816020018190525081816040018190525060008160600190151590811515815250507f000000000000000000000000000000000000000000000000000000000000000073ffffffffffffffffffffffffffffffffffffffff16638bdb3913853030856040518563ffffffff1660e01b81526004016107399493929190611714565b600060405180830381600087803b15801561075357600080fd5b505af1158015610767573d6000803e3d6000fd5b5050505050505050505050565b60006107d6826040518060400160405280602081526020017f5361666545524332303a206c6f772d6c6576656c2063616c6c206661696c65648152508573ffffffffffffffffffffffffffffffffffffffff16610aac9092919063ffffffff16565b905060008151111561083657808060200190518101906107f6919061178c565b610835576040517f08c379a000000000000000000000000000000000000000000000000000000000815260040161082c9061183c565b60405180910390fd5b5b505050565b6000818473ffffffffffffffffffffffffffffffffffffffff1663dd62ed3e30866040518363ffffffff1660e01b815260040161087992919061185c565b602060405180830381865afa158015610896573d6000803e3d6000fd5b505050506040513d601f19601f820116820180604052508101906108ba91906115e3565b6108c491906118b4565b90506109478463095ea7b360e01b85846040516024016108e592919061190a565b604051602081830303815290604052907bffffffffffffffffffffffffffffffffffffffffffffffffffffffff19166020820180517bffffffffffffffffffffffffffffffffffffffffffffffffffffffff8381831617835250505050610774565b50505050565b600081905060008173ffffffffffffffffffffffffffffffffffffffff1663dd62ed3e30866040518363ffffffff1660e01b815260040161098f92919061185c565b602060405180830381865afa1580156109ac573d6000803e3d6000fd5b505050506040513d601f19601f820116820180604052508101906109d091906115e3565b03610a2157610a20837fffffffffffffffffffffffffffffffffffffffffffffffffffffffffffffffff8373ffffffffffffffffffffffffffffffffffffffff1661083b9092919063ffffffff16565b5b505050565b610aa78363a9059cbb60e01b8484604051602401610a4592919061190a565b604051602081830303815290604052907bffffffffffffffffffffffffffffffffffffffffffffffffffffffff19166020820180517bffffffffffffffffffffffffffffffffffffffffffffffffffffffff8381831617835250505050610774565b505050565b6060610abb8484600085610ac4565b90509392505050565b606082471015610b09576040517f08c379a0000000000000000000000000000000000000000000000000000000008152600401610b00906119a5565b60405180910390fd5b610b1285610bd8565b610b51576040517f08c379a0000000000000000000000000000000000000000000000000000000008152600401610b4890611a11565b60405180910390fd5b6000808673ffffffffffffffffffffffffffffffffffffffff168587604051610b7a9190611a6d565b60006040518083038185875af1925050503d8060008114610bb7576040519150601f19603f3d011682016040523d82523d6000602084013e610bbc565b606091505b5091509150610bcc828286610bfb565b92505050949350505050565b6000808273ffffffffffffffffffffffffffffffffffffffff163b119050919050565b60608315610c0b57829050610c5b565b600083511115610c1e5782518084602001fd5b816040517f08c379a0000000000000000000000000000000000000000000000000000000008152600401610c529190611ac8565b60405180910390fd5b9392505050565b60405180608001604052806060815260200160608152602001606081526020016000151581525090565b60405180608001604052806060815260200160608152602001606081526020016000151581525090565b600073ffffffffffffffffffffffffffffffffffffffff82169050919050565b6000610ce182610cb6565b9050919050565b610cf181610cd6565b82525050565b6000602082019050610d0c6000830184610ce8565b92915050565b6000604051905090565b600080fd5b600080fd5b610d2f81610cd6565b8114610d3a57600080fd5b50565b600081359050610d4c81610d26565b92915050565b600080fd5b6000601f19601f8301169050919050565b7f4e487b7100000000000000000000000000000000000000000000000000000000600052604160045260246000fd5b610da082610d57565b810181811067ffffffffffffffff82111715610dbf57610dbe610d68565b5b80604052505050565b6000610dd2610d12565b9050610dde8282610d97565b919050565b600080fd5b600080fd5b600067ffffffffffffffff821115610e0857610e07610d68565b5b602082029050602081019050919050565b600080fd5b6000610e2982610cd6565b9050919050565b610e3981610e1e565b8114610e4457600080fd5b50565b600081359050610e5681610e30565b92915050565b6000610e6f610e6a84610ded565b610dc8565b90508083825260208201905060208402830185811115610e9257610e91610e19565b5b835b81811015610ebb5780610ea78882610e47565b845260208401935050602081019050610e94565b5050509392505050565b600082601f830112610eda57610ed9610de8565b5b8135610eea848260208601610e5c565b91505092915050565b6000819050919050565b610f0681610ef3565b8114610f1157600080fd5b50565b600081359050610f2381610efd565b92915050565b6000819050919050565b610f3c81610f29565b8114610f4757600080fd5b50565b600081359050610f5981610f33565b92915050565b600060c08284031215610f7557610f74610d52565b5b610f7f60c0610dc8565b9050600082013567ffffffffffffffff811115610f9f57610f9e610de3565b5b610fab84828501610ec5565b6000830152506020610fbf84828501610f14565b6020830152506040610fd384828501610f4a565b6040830152506060610fe784828501610d3d565b6060830152506080610ffb84828501610d3d565b60808301525060a061100f84828501610d3d565b60a08301525092915050565b60008060006060848603121561103457611033610d1c565b5b600061104286828701610d3d565b935050602084013567ffffffffffffffff81111561106357611062610d21565b5b61106f86828701610f5f565b925050604061108086828701610f14565b9150509250925092565b600080604083850312156110a1576110a0610d1c565b5b600083013567ffffffffffffffff8111156110bf576110be610d21565b5b6110cb85828601610f5f565b92505060206110dc85828601610f14565b9150509250929050565b6000806000606084860312156110ff576110fe610d1c565b5b600084013567ffffffffffffffff81111561111d5761111c610d21565b5b61112986828701610f5f565b935050602061113a86828701610f14565b925050604061114b86828701610f14565b9150509250925092565b7f4e487b7100000000000000000000000000000000000000000000000000000000600052603260045260246000fd5b61118d81610ef3565b82525050565b60006060820190506111a86000830186610ce8565b6111b56020830185610ce8565b6111c26040830184611184565b949350505050565b600060ff82169050919050565b6111e0816111ca565b82525050565b600081519050919050565b600082825260208201905092915050565b6000819050602082019050919050565b61121b81610ef3565b82525050565b600061122d8383611212565b60208301905092915050565b6000602082019050919050565b6000611251826111e6565b61125b81856111f1565b935061126683611202565b8060005b8381101561129757815161127e8882611221565b975061128983611239565b92505060018101905061126a565b5085935050505092915050565b60006060820190506112b960008301866111d7565b81810360208301526112cb8185611246565b90506112da6040830184611184565b949350505050565b6112eb81610f29565b82525050565b600081519050919050565b600082825260208201905092915050565b6000819050602082019050919050565b6000819050919050565b600061134261133d61133884610cb6565b61131d565b610cb6565b9050919050565b600061135482611327565b9050919050565b600061136682611349565b9050919050565b6113768161135b565b82525050565b6000611388838361136d565b60208301905092915050565b6000602082019050919050565b60006113ac826112f1565b6113b681856112fc565b93506113c18361130d565b8060005b838110156113f25781516113d9888261137c565b97506113e483611394565b9250506001810190506113c5565b5085935050505092915050565b600082825260208201905092915050565b600061141b826111e6565b61142581856113ff565b935061143083611202565b8060005b838110156114615781516114488882611221565b975061145383611239565b925050600181019050611434565b5085935050505092915050565b600081519050919050565b600082825260208201905092915050565b60005b838110156114a857808201518184015260208101905061148d565b838111156114b7576000848401525b50505050565b60006114c88261146e565b6114d28185611479565b93506114e281856020860161148a565b6114eb81610d57565b840191505092915050565b60008115159050919050565b61150b816114f6565b82525050565b6000608083016000830151848203600086015261152e82826113a1565b915050602083015184820360208601526115488282611410565b9150506040830151848203604086015261156282826114bd565b91505060608301516115776060860182611502565b508091505092915050565b600060808201905061159760008301876112e2565b6115a46020830186610ce8565b6115b16040830185610ce8565b81810360608301526115c38184611511565b905095945050505050565b6000815190506115dd81610efd565b92915050565b6000602082840312156115f9576115f8610d1c565b5b6000611607848285016115ce565b91505092915050565b6000819050919050565b600061163561163061162b84611610565b61131d565b6111ca565b9050919050565b6116458161161a565b82525050565b6000606082019050611660600083018661163c565b61166d6020830185611184565b61167a6040830184611184565b949350505050565b600061168d82610cb6565b9050919050565b61169d81611682565b82525050565b600060808301600083015184820360008601526116c082826113a1565b915050602083015184820360208601526116da8282611410565b915050604083015184820360408601526116f482826114bd565b91505060608301516117096060860182611502565b508091505092915050565b600060808201905061172960008301876112e2565b6117366020830186610ce8565b6117436040830185611694565b818103606083015261175581846116a3565b905095945050505050565b611769816114f6565b811461177457600080fd5b50565b60008151905061178681611760565b92915050565b6000602082840312156117a2576117a1610d1c565b5b60006117b084828501611777565b91505092915050565b600082825260208201905092915050565b7f5361666545524332303a204552433230206f7065726174696f6e20646964206e60008201527f6f74207375636365656400000000000000000000000000000000000000000000602082015250565b6000611826602a836117b9565b9150611831826117ca565b604082019050919050565b6000602082019050818103600083015261185581611819565b9050919050565b60006040820190506118716000830185610ce8565b61187e6020830184610ce8565b9392505050565b7f4e487b7100000000000000000000000000000000000000000000000000000000600052601160045260246000fd5b60006118bf82610ef3565b91506118ca83610ef3565b9250827fffffffffffffffffffffffffffffffffffffffffffffffffffffffffffffffff038211156118ff576118fe611885565b5b828201905092915050565b600060408201905061191f6000830185610ce8565b61192c6020830184611184565b9392505050565b7f416464726573733a20696e73756666696369656e742062616c616e636520666f60008201527f722063616c6c0000000000000000000000000000000000000000000000000000602082015250565b600061198f6026836117b9565b915061199a82611933565b604082019050919050565b600060208201905081810360008301526119be81611982565b9050919050565b7f416464726573733a2063616c6c20746f206e6f6e2d636f6e7472616374000000600082015250565b60006119fb601d836117b9565b9150611a06826119c5565b602082019050919050565b60006020820190508181036000830152611a2a816119ee565b9050919050565b600081905092915050565b6000611a478261146e565b611a518185611a31565b9350611a6181856020860161148a565b80840191505092915050565b6000611a798284611a3c565b915081905092915050565b600081519050919050565b6000611a9a82611a84565b611aa481856117b9565b9350611ab481856020860161148a565b611abd81610d57565b840191505092915050565b60006020820190508181036000830152611ae28184611a8f565b90509291505056fea264697066735822122085911c863baf100c307fac0f10cc0ef94d11b02d43a5b686f6c873e2c150d05d64736f6c634300080d0033",
					"opcodes": "PUSH1 0xA0 PUSH1 0x40 MSTORE CALLVALUE DUP1 ISZERO PUSH3 0x11 JUMPI PUSH1 0x0 DUP1 REVERT JUMPDEST POP PUSH1 0x40 MLOAD PUSH3 0x1C5E CODESIZE SUB DUP1 PUSH3 0x1C5E DUP4 CODECOPY DUP2 DUP2 ADD PUSH1 0x40 MSTORE DUP2 ADD SWAP1 PUSH3 0x37 SWAP2 SWAP1 PUSH3 0xDC JUMP JUMPDEST DUP1 PUSH20 0xFFFFFFFFFFFFFFFFFFFFFFFFFFFFFFFFFFFFFFFF AND PUSH1 0x80 DUP2 PUSH20 0xFFFFFFFFFFFFFFFFFFFFFFFFFFFFFFFFFFFFFFFF AND DUP2 MSTORE POP POP POP PUSH3 0x10E JUMP JUMPDEST PUSH1 0x0 DUP1 REVERT JUMPDEST PUSH1 0x0 PUSH20 0xFFFFFFFFFFFFFFFFFFFFFFFFFFFFFFFFFFFFFFFF DUP3 AND SWAP1 POP SWAP2 SWAP1 POP JUMP JUMPDEST PUSH1 0x0 PUSH3 0xA4 DUP3 PUSH3 0x77 JUMP JUMPDEST SWAP1 POP SWAP2 SWAP1 POP JUMP JUMPDEST PUSH3 0xB6 DUP2 PUSH3 0x97 JUMP JUMPDEST DUP2 EQ PUSH3 0xC2 JUMPI PUSH1 0x0 DUP1 REVERT JUMPDEST POP JUMP JUMPDEST PUSH1 0x0 DUP2 MLOAD SWAP1 POP PUSH3 0xD6 DUP2 PUSH3 0xAB JUMP JUMPDEST SWAP3 SWAP2 POP POP JUMP JUMPDEST PUSH1 0x0 PUSH1 0x20 DUP3 DUP5 SUB SLT ISZERO PUSH3 0xF5 JUMPI PUSH3 0xF4 PUSH3 0x72 JUMP JUMPDEST JUMPDEST PUSH1 0x0 PUSH3 0x105 DUP5 DUP3 DUP6 ADD PUSH3 0xC5 JUMP JUMPDEST SWAP2 POP POP SWAP3 SWAP2 POP POP JUMP JUMPDEST PUSH1 0x80 MLOAD PUSH2 0x1B20 PUSH3 0x13E PUSH1 0x0 CODECOPY PUSH1 0x0 DUP2 DUP2 PUSH1 0xC5 ADD MSTORE DUP2 DUP2 PUSH2 0x3FB ADD MSTORE DUP2 DUP2 PUSH2 0x45D ADD MSTORE PUSH2 0x6DC ADD MSTORE PUSH2 0x1B20 PUSH1 0x0 RETURN INVALID PUSH1 0x80 PUSH1 0x40 MSTORE CALLVALUE DUP1 ISZERO PUSH2 0x10 JUMPI PUSH1 0x0 DUP1 REVERT JUMPDEST POP PUSH1 0x4 CALLDATASIZE LT PUSH2 0x4C JUMPI PUSH1 0x0 CALLDATALOAD PUSH1 0xE0 SHR DUP1 PUSH4 0x77ABA213 EQ PUSH2 0x51 JUMPI DUP1 PUSH4 0x9CBCF4C7 EQ PUSH2 0x6F JUMPI DUP1 PUSH4 0xBFBD3808 EQ PUSH2 0x8B JUMPI DUP1 PUSH4 0xD62D2FBC EQ PUSH2 0xA7 JUMPI JUMPDEST PUSH1 0x0 DUP1 REVERT JUMPDEST PUSH2 0x59 PUSH2 0xC3 JUMP JUMPDEST PUSH1 0x40 MLOAD PUSH2 0x66 SWAP2 SWAP1 PUSH2 0xCF7 JUMP JUMPDEST PUSH1 0x40 MLOAD DUP1 SWAP2 SUB SWAP1 RETURN JUMPDEST PUSH2 0x89 PUSH1 0x4 DUP1 CALLDATASIZE SUB DUP2 ADD SWAP1 PUSH2 0x84 SWAP2 SWAP1 PUSH2 0x101B JUMP JUMPDEST PUSH2 0xE7 JUMP JUMPDEST STOP JUMPDEST PUSH2 0xA5 PUSH1 0x4 DUP1 CALLDATASIZE SUB DUP2 ADD SWAP1 PUSH2 0xA0 SWAP2 SWAP1 PUSH2 0x108A JUMP JUMPDEST PUSH2 0x157 JUMP JUMPDEST STOP JUMPDEST PUSH2 0xC1 PUSH1 0x4 DUP1 CALLDATASIZE SUB DUP2 ADD SWAP1 PUSH2 0xBC SWAP2 SWAP1 PUSH2 0x10E6 JUMP JUMPDEST PUSH2 0x1DF JUMP JUMPDEST STOP JUMPDEST PUSH32 0x0 DUP2 JUMP JUMPDEST PUSH1 0x0 DUP3 PUSH1 0x0 ADD MLOAD DUP4 PUSH1 0x20 ADD MLOAD DUP2 MLOAD DUP2 LT PUSH2 0x104 JUMPI PUSH2 0x103 PUSH2 0x1155 JUMP JUMPDEST JUMPDEST PUSH1 0x20 MUL PUSH1 0x20 ADD ADD MLOAD SWAP1 POP DUP1 PUSH20 0xFFFFFFFFFFFFFFFFFFFFFFFFFFFFFFFFFFFFFFFF AND DUP5 PUSH20 0xFFFFFFFFFFFFFFFFFFFFFFFFFFFFFFFFFFFFFFFF AND SUB PUSH2 0x150 JUMPI PUSH2 0x14B DUP4 DUP4 PUSH2 0x157 JUMP JUMPDEST PUSH2 0x151 JUMP JUMPDEST JUMPDEST POP POP POP POP JUMP JUMPDEST PUSH1 0x0 DUP3 PUSH1 0x0 ADD MLOAD DUP4 PUSH1 0x20 ADD MLOAD DUP2 MLOAD DUP2 LT PUSH2 0x174 JUMPI PUSH2 0x173 PUSH2 0x1155 JUMP JUMPDEST JUMPDEST PUSH1 0x20 MUL PUSH1 0x20 ADD ADD MLOAD SWAP1 POP PUSH2 0x1AB CALLER ADDRESS DUP5 DUP5 PUSH20 0xFFFFFFFFFFFFFFFFFFFFFFFFFFFFFFFFFFFFFFFF AND PUSH2 0x297 SWAP1 SWAP4 SWAP3 SWAP2 SWAP1 PUSH4 0xFFFFFFFF AND JUMP JUMPDEST PUSH2 0x1C3 DUP4 PUSH1 0x0 ADD MLOAD DUP4 DUP6 PUSH1 0x20 ADD MLOAD DUP7 PUSH1 0x40 ADD MLOAD PUSH2 0x320 JUMP JUMPDEST PUSH2 0x1DA DUP4 PUSH1 0x60 ADD MLOAD DUP5 PUSH1 0x80 ADD MLOAD DUP6 PUSH1 0xA0 ADD MLOAD PUSH2 0x4F7 JUMP JUMPDEST POP POP POP JUMP JUMPDEST PUSH1 0x0 DUP4 PUSH1 0x80 ADD MLOAD SWAP1 POP PUSH2 0x215 CALLER ADDRESS DUP6 DUP5 PUSH20 0xFFFFFFFFFFFFFFFFFFFFFFFFFFFFFFFFFFFFFFFF AND PUSH2 0x297 SWAP1 SWAP4 SWAP3 SWAP2 SWAP1 PUSH4 0xFFFFFFFF AND JUMP JUMPDEST DUP4 PUSH1 0x80 ADD MLOAD PUSH20 0xFFFFFFFFFFFFFFFFFFFFFFFFFFFFFFFFFFFFFFFF AND PUSH4 0x853828B6 PUSH1 0x40 MLOAD DUP2 PUSH4 0xFFFFFFFF AND PUSH1 0xE0 SHL DUP2 MSTORE PUSH1 0x4 ADD PUSH1 0x0 PUSH1 0x40 MLOAD DUP1 DUP4 SUB DUP2 PUSH1 0x0 DUP8 DUP1 EXTCODESIZE ISZERO DUP1 ISZERO PUSH2 0x261 JUMPI PUSH1 0x0 DUP1 REVERT JUMPDEST POP GAS CALL ISZERO DUP1 ISZERO PUSH2 0x275 JUMPI RETURNDATASIZE PUSH1 0x0 DUP1 RETURNDATACOPY RETURNDATASIZE PUSH1 0x0 REVERT JUMPDEST POP POP POP POP PUSH2 0x291 DUP5 PUSH1 0x0 ADD MLOAD DUP4 DUP7 PUSH1 0x20 ADD MLOAD DUP8 PUSH1 0x40 ADD MLOAD PUSH2 0x610 JUMP JUMPDEST POP POP POP POP JUMP JUMPDEST PUSH2 0x31A DUP5 PUSH4 0x23B872DD PUSH1 0xE0 SHL DUP6 DUP6 DUP6 PUSH1 0x40 MLOAD PUSH1 0x24 ADD PUSH2 0x2B8 SWAP4 SWAP3 SWAP2 SWAP1 PUSH2 0x1193 JUMP JUMPDEST PUSH1 0x40 MLOAD PUSH1 0x20 DUP2 DUP4 SUB SUB DUP2 MSTORE SWAP1 PUSH1 0x40 MSTORE SWAP1 PUSH28 0xFFFFFFFFFFFFFFFFFFFFFFFFFFFFFFFFFFFFFFFFFFFFFFFFFFFFFFFF NOT AND PUSH1 0x20 DUP3 ADD DUP1 MLOAD PUSH28 0xFFFFFFFFFFFFFFFFFFFFFFFFFFFFFFFFFFFFFFFFFFFFFFFFFFFFFFFF DUP4 DUP2 DUP4 AND OR DUP4 MSTORE POP POP POP POP PUSH2 0x774 JUMP JUMPDEST POP POP POP POP JUMP JUMPDEST PUSH1 0x0 PUSH1 0x1 SWAP1 POP PUSH1 0x0 DUP6 MLOAD PUSH8 0xFFFFFFFFFFFFFFFF DUP2 GT ISZERO PUSH2 0x343 JUMPI PUSH2 0x342 PUSH2 0xD68 JUMP JUMPDEST JUMPDEST PUSH1 0x40 MLOAD SWAP1 DUP1 DUP3 MSTORE DUP1 PUSH1 0x20 MUL PUSH1 0x20 ADD DUP3 ADD PUSH1 0x40 MSTORE DUP1 ISZERO PUSH2 0x371 JUMPI DUP2 PUSH1 0x20 ADD PUSH1 0x20 DUP3 MUL DUP1 CALLDATASIZE DUP4 CALLDATACOPY DUP1 DUP3 ADD SWAP2 POP POP SWAP1 POP JUMPDEST POP SWAP1 POP DUP5 DUP2 DUP6 DUP2 MLOAD DUP2 LT PUSH2 0x388 JUMPI PUSH2 0x387 PUSH2 0x1155 JUMP JUMPDEST JUMPDEST PUSH1 0x20 MUL PUSH1 0x20 ADD ADD DUP2 DUP2 MSTORE POP POP PUSH1 0x0 PUSH1 0x1 SWAP1 POP PUSH1 0x0 DUP4 DUP4 DUP4 PUSH1 0x40 MLOAD PUSH1 0x20 ADD PUSH2 0x3B1 SWAP4 SWAP3 SWAP2 SWAP1 PUSH2 0x12A4 JUMP JUMPDEST PUSH1 0x40 MLOAD PUSH1 0x20 DUP2 DUP4 SUB SUB DUP2 MSTORE SWAP1 PUSH1 0x40 MSTORE SWAP1 POP PUSH2 0x3CA PUSH2 0xC62 JUMP JUMPDEST DUP9 DUP2 PUSH1 0x0 ADD DUP2 SWAP1 MSTORE POP DUP4 DUP2 PUSH1 0x20 ADD DUP2 SWAP1 MSTORE POP DUP2 DUP2 PUSH1 0x40 ADD DUP2 SWAP1 MSTORE POP PUSH1 0x0 DUP2 PUSH1 0x60 ADD SWAP1 ISZERO ISZERO SWAP1 DUP2 ISZERO ISZERO DUP2 MSTORE POP POP PUSH2 0x45B PUSH32 0x0 DUP10 DUP12 DUP11 DUP2 MLOAD DUP2 LT PUSH2 0x42E JUMPI PUSH2 0x42D PUSH2 0x1155 JUMP JUMPDEST JUMPDEST PUSH1 0x20 MUL PUSH1 0x20 ADD ADD MLOAD PUSH20 0xFFFFFFFFFFFFFFFFFFFFFFFFFFFFFFFFFFFFFFFF AND PUSH2 0x83B SWAP1 SWAP3 SWAP2 SWAP1 PUSH4 0xFFFFFFFF AND JUMP JUMPDEST PUSH32 0x0 PUSH20 0xFFFFFFFFFFFFFFFFFFFFFFFFFFFFFFFFFFFFFFFF AND PUSH4 0xB95CAC28 DUP8 ADDRESS ADDRESS DUP6 PUSH1 0x40 MLOAD DUP6 PUSH4 0xFFFFFFFF AND PUSH1 0xE0 SHL DUP2 MSTORE PUSH1 0x4 ADD PUSH2 0x4BA SWAP5 SWAP4 SWAP3 SWAP2 SWAP1 PUSH2 0x1582 JUMP JUMPDEST PUSH1 0x0 PUSH1 0x40 MLOAD DUP1 DUP4 SUB DUP2 PUSH1 0x0 DUP8 DUP1 EXTCODESIZE ISZERO DUP1 ISZERO PUSH2 0x4D4 JUMPI PUSH1 0x0 DUP1 REVERT JUMPDEST POP GAS CALL ISZERO DUP1 ISZERO PUSH2 0x4E8 JUMPI RETURNDATASIZE PUSH1 0x0 DUP1 RETURNDATACOPY RETURNDATASIZE PUSH1 0x0 REVERT JUMPDEST POP POP POP POP POP POP POP POP POP POP POP POP POP JUMP JUMPDEST PUSH2 0x501 DUP3 DUP5 PUSH2 0x94D JUMP JUMPDEST DUP2 PUSH20 0xFFFFFFFFFFFFFFFFFFFFFFFFFFFFFFFFFFFFFFFF AND PUSH4 0xDE5F6268 PUSH1 0x40 MLOAD DUP2 PUSH4 0xFFFFFFFF AND PUSH1 0xE0 SHL DUP2 MSTORE PUSH1 0x4 ADD PUSH1 0x0 PUSH1 0x40 MLOAD DUP1 DUP4 SUB DUP2 PUSH1 0x0 DUP8 DUP1 EXTCODESIZE ISZERO DUP1 ISZERO PUSH2 0x549 JUMPI PUSH1 0x0 DUP1 REVERT JUMPDEST POP GAS CALL ISZERO DUP1 ISZERO PUSH2 0x55D JUMPI RETURNDATASIZE PUSH1 0x0 DUP1 RETURNDATACOPY RETURNDATASIZE PUSH1 0x0 REVERT JUMPDEST POP POP POP POP PUSH1 0x0 DUP3 SWAP1 POP PUSH2 0x60A DUP3 DUP3 PUSH20 0xFFFFFFFFFFFFFFFFFFFFFFFFFFFFFFFFFFFFFFFF AND PUSH4 0x70A08231 ADDRESS PUSH1 0x40 MLOAD DUP3 PUSH4 0xFFFFFFFF AND PUSH1 0xE0 SHL DUP2 MSTORE PUSH1 0x4 ADD PUSH2 0x5A3 SWAP2 SWAP1 PUSH2 0xCF7 JUMP JUMPDEST PUSH1 0x20 PUSH1 0x40 MLOAD DUP1 DUP4 SUB DUP2 DUP7 GAS STATICCALL ISZERO DUP1 ISZERO PUSH2 0x5C0 JUMPI RETURNDATASIZE PUSH1 0x0 DUP1 RETURNDATACOPY RETURNDATASIZE PUSH1 0x0 REVERT JUMPDEST POP POP POP POP PUSH1 0x40 MLOAD RETURNDATASIZE PUSH1 0x1F NOT PUSH1 0x1F DUP3 ADD AND DUP3 ADD DUP1 PUSH1 0x40 MSTORE POP DUP2 ADD SWAP1 PUSH2 0x5E4 SWAP2 SWAP1 PUSH2 0x15E3 JUMP JUMPDEST DUP4 PUSH20 0xFFFFFFFFFFFFFFFFFFFFFFFFFFFFFFFFFFFFFFFF AND PUSH2 0xA26 SWAP1 SWAP3 SWAP2 SWAP1 PUSH4 0xFFFFFFFF AND JUMP JUMPDEST POP POP POP POP JUMP JUMPDEST PUSH1 0x0 DUP5 MLOAD PUSH8 0xFFFFFFFFFFFFFFFF DUP2 GT ISZERO PUSH2 0x62D JUMPI PUSH2 0x62C PUSH2 0xD68 JUMP JUMPDEST JUMPDEST PUSH1 0x40 MLOAD SWAP1 DUP1 DUP3 MSTORE DUP1 PUSH1 0x20 MUL PUSH1 0x20 ADD DUP3 ADD PUSH1 0x40 MSTORE DUP1 ISZERO PUSH2 0x65B JUMPI DUP2 PUSH1 0x20 ADD PUSH1 0x20 DUP3 MUL DUP1 CALLDATASIZE DUP4 CALLDATACOPY DUP1 DUP3 ADD SWAP2 POP POP SWAP1 POP JUMPDEST POP SWAP1 POP DUP4 DUP2 DUP5 DUP2 MLOAD DUP2 LT PUSH2 0x672 JUMPI PUSH2 0x671 PUSH2 0x1155 JUMP JUMPDEST JUMPDEST PUSH1 0x20 MUL PUSH1 0x20 ADD ADD DUP2 DUP2 MSTORE POP POP PUSH1 0x0 DUP1 DUP6 DUP6 PUSH1 0x40 MLOAD PUSH1 0x20 ADD PUSH2 0x695 SWAP4 SWAP3 SWAP2 SWAP1 PUSH2 0x164B JUMP JUMPDEST PUSH1 0x40 MLOAD PUSH1 0x20 DUP2 DUP4 SUB SUB DUP2 MSTORE SWAP1 PUSH1 0x40 MSTORE SWAP1 POP PUSH2 0x6AE PUSH2 0xC8C JUMP JUMPDEST DUP7 DUP2 PUSH1 0x0 ADD DUP2 SWAP1 MSTORE POP DUP3 DUP2 PUSH1 0x20 ADD DUP2 SWAP1 MSTORE POP DUP2 DUP2 PUSH1 0x40 ADD DUP2 SWAP1 MSTORE POP PUSH1 0x0 DUP2 PUSH1 0x60 ADD SWAP1 ISZERO ISZERO SWAP1 DUP2 ISZERO ISZERO DUP2 MSTORE POP POP PUSH32 0x0 PUSH20 0xFFFFFFFFFFFFFFFFFFFFFFFFFFFFFFFFFFFFFFFF AND PUSH4 0x8BDB3913 DUP6 ADDRESS ADDRESS DUP6 PUSH1 0x40 MLOAD DUP6 PUSH4 0xFFFFFFFF AND PUSH1 0xE0 SHL DUP2 MSTORE PUSH1 0x4 ADD PUSH2 0x739 SWAP5 SWAP4 SWAP3 SWAP2 SWAP1 PUSH2 0x1714 JUMP JUMPDEST PUSH1 0x0 PUSH1 0x40 MLOAD DUP1 DUP4 SUB DUP2 PUSH1 0x0 DUP8 DUP1 EXTCODESIZE ISZERO DUP1 ISZERO PUSH2 0x753 JUMPI PUSH1 0x0 DUP1 REVERT JUMPDEST POP GAS CALL ISZERO DUP1 ISZERO PUSH2 0x767 JUMPI RETURNDATASIZE PUSH1 0x0 DUP1 RETURNDATACOPY RETURNDATASIZE PUSH1 0x0 REVERT JUMPDEST POP POP POP POP POP POP POP POP POP POP POP JUMP JUMPDEST PUSH1 0x0 PUSH2 0x7D6 DUP3 PUSH1 0x40 MLOAD DUP1 PUSH1 0x40 ADD PUSH1 0x40 MSTORE DUP1 PUSH1 0x20 DUP2 MSTORE PUSH1 0x20 ADD PUSH32 0x5361666545524332303A206C6F772D6C6576656C2063616C6C206661696C6564 DUP2 MSTORE POP DUP6 PUSH20 0xFFFFFFFFFFFFFFFFFFFFFFFFFFFFFFFFFFFFFFFF AND PUSH2 0xAAC SWAP1 SWAP3 SWAP2 SWAP1 PUSH4 0xFFFFFFFF AND JUMP JUMPDEST SWAP1 POP PUSH1 0x0 DUP2 MLOAD GT ISZERO PUSH2 0x836 JUMPI DUP1 DUP1 PUSH1 0x20 ADD SWAP1 MLOAD DUP2 ADD SWAP1 PUSH2 0x7F6 SWAP2 SWAP1 PUSH2 0x178C JUMP JUMPDEST PUSH2 0x835 JUMPI PUSH1 0x40 MLOAD PUSH32 0x8C379A000000000000000000000000000000000000000000000000000000000 DUP2 MSTORE PUSH1 0x4 ADD PUSH2 0x82C SWAP1 PUSH2 0x183C JUMP JUMPDEST PUSH1 0x40 MLOAD DUP1 SWAP2 SUB SWAP1 REVERT JUMPDEST JUMPDEST POP POP POP JUMP JUMPDEST PUSH1 0x0 DUP2 DUP5 PUSH20 0xFFFFFFFFFFFFFFFFFFFFFFFFFFFFFFFFFFFFFFFF AND PUSH4 0xDD62ED3E ADDRESS DUP7 PUSH1 0x40 MLOAD DUP4 PUSH4 0xFFFFFFFF AND PUSH1 0xE0 SHL DUP2 MSTORE PUSH1 0x4 ADD PUSH2 0x879 SWAP3 SWAP2 SWAP1 PUSH2 0x185C JUMP JUMPDEST PUSH1 0x20 PUSH1 0x40 MLOAD DUP1 DUP4 SUB DUP2 DUP7 GAS STATICCALL ISZERO DUP1 ISZERO PUSH2 0x896 JUMPI RETURNDATASIZE PUSH1 0x0 DUP1 RETURNDATACOPY RETURNDATASIZE PUSH1 0x0 REVERT JUMPDEST POP POP POP POP PUSH1 0x40 MLOAD RETURNDATASIZE PUSH1 0x1F NOT PUSH1 0x1F DUP3 ADD AND DUP3 ADD DUP1 PUSH1 0x40 MSTORE POP DUP2 ADD SWAP1 PUSH2 0x8BA SWAP2 SWAP1 PUSH2 0x15E3 JUMP JUMPDEST PUSH2 0x8C4 SWAP2 SWAP1 PUSH2 0x18B4 JUMP JUMPDEST SWAP1 POP PUSH2 0x947 DUP5 PUSH4 0x95EA7B3 PUSH1 0xE0 SHL DUP6 DUP5 PUSH1 0x40 MLOAD PUSH1 0x24 ADD PUSH2 0x8E5 SWAP3 SWAP2 SWAP1 PUSH2 0x190A JUMP JUMPDEST PUSH1 0x40 MLOAD PUSH1 0x20 DUP2 DUP4 SUB SUB DUP2 MSTORE SWAP1 PUSH1 0x40 MSTORE SWAP1 PUSH28 0xFFFFFFFFFFFFFFFFFFFFFFFFFFFFFFFFFFFFFFFFFFFFFFFFFFFFFFFF NOT AND PUSH1 0x20 DUP3 ADD DUP1 MLOAD PUSH28 0xFFFFFFFFFFFFFFFFFFFFFFFFFFFFFFFFFFFFFFFFFFFFFFFFFFFFFFFF DUP4 DUP2 DUP4 AND OR DUP4 MSTORE POP POP POP POP PUSH2 0x774 JUMP JUMPDEST POP POP POP POP JUMP JUMPDEST PUSH1 0x0 DUP2 SWAP1 POP PUSH1 0x0 DUP2 PUSH20 0xFFFFFFFFFFFFFFFFFFFFFFFFFFFFFFFFFFFFFFFF AND PUSH4 0xDD62ED3E ADDRESS DUP7 PUSH1 0x40 MLOAD DUP4 PUSH4 0xFFFFFFFF AND PUSH1 0xE0 SHL DUP2 MSTORE PUSH1 0x4 ADD PUSH2 0x98F SWAP3 SWAP2 SWAP1 PUSH2 0x185C JUMP JUMPDEST PUSH1 0x20 PUSH1 0x40 MLOAD DUP1 DUP4 SUB DUP2 DUP7 GAS STATICCALL ISZERO DUP1 ISZERO PUSH2 0x9AC JUMPI RETURNDATASIZE PUSH1 0x0 DUP1 RETURNDATACOPY RETURNDATASIZE PUSH1 0x0 REVERT JUMPDEST POP POP POP POP PUSH1 0x40 MLOAD RETURNDATASIZE PUSH1 0x1F NOT PUSH1 0x1F DUP3 ADD AND DUP3 ADD DUP1 PUSH1 0x40 MSTORE POP DUP2 ADD SWAP1 PUSH2 0x9D0 SWAP2 SWAP1 PUSH2 0x15E3 JUMP JUMPDEST SUB PUSH2 0xA21 JUMPI PUSH2 0xA20 DUP4 PUSH32 0xFFFFFFFFFFFFFFFFFFFFFFFFFFFFFFFFFFFFFFFFFFFFFFFFFFFFFFFFFFFFFFFF DUP4 PUSH20 0xFFFFFFFFFFFFFFFFFFFFFFFFFFFFFFFFFFFFFFFF AND PUSH2 0x83B SWAP1 SWAP3 SWAP2 SWAP1 PUSH4 0xFFFFFFFF AND JUMP JUMPDEST JUMPDEST POP POP POP JUMP JUMPDEST PUSH2 0xAA7 DUP4 PUSH4 0xA9059CBB PUSH1 0xE0 SHL DUP5 DUP5 PUSH1 0x40 MLOAD PUSH1 0x24 ADD PUSH2 0xA45 SWAP3 SWAP2 SWAP1 PUSH2 0x190A JUMP JUMPDEST PUSH1 0x40 MLOAD PUSH1 0x20 DUP2 DUP4 SUB SUB DUP2 MSTORE SWAP1 PUSH1 0x40 MSTORE SWAP1 PUSH28 0xFFFFFFFFFFFFFFFFFFFFFFFFFFFFFFFFFFFFFFFFFFFFFFFFFFFFFFFF NOT AND PUSH1 0x20 DUP3 ADD DUP1 MLOAD PUSH28 0xFFFFFFFFFFFFFFFFFFFFFFFFFFFFFFFFFFFFFFFFFFFFFFFFFFFFFFFF DUP4 DUP2 DUP4 AND OR DUP4 MSTORE POP POP POP POP PUSH2 0x774 JUMP JUMPDEST POP POP POP JUMP JUMPDEST PUSH1 0x60 PUSH2 0xABB DUP5 DUP5 PUSH1 0x0 DUP6 PUSH2 0xAC4 JUMP JUMPDEST SWAP1 POP SWAP4 SWAP3 POP POP POP JUMP JUMPDEST PUSH1 0x60 DUP3 SELFBALANCE LT ISZERO PUSH2 0xB09 JUMPI PUSH1 0x40 MLOAD PUSH32 0x8C379A000000000000000000000000000000000000000000000000000000000 DUP2 MSTORE PUSH1 0x4 ADD PUSH2 0xB00 SWAP1 PUSH2 0x19A5 JUMP JUMPDEST PUSH1 0x40 MLOAD DUP1 SWAP2 SUB SWAP1 REVERT JUMPDEST PUSH2 0xB12 DUP6 PUSH2 0xBD8 JUMP JUMPDEST PUSH2 0xB51 JUMPI PUSH1 0x40 MLOAD PUSH32 0x8C379A000000000000000000000000000000000000000000000000000000000 DUP2 MSTORE PUSH1 0x4 ADD PUSH2 0xB48 SWAP1 PUSH2 0x1A11 JUMP JUMPDEST PUSH1 0x40 MLOAD DUP1 SWAP2 SUB SWAP1 REVERT JUMPDEST PUSH1 0x0 DUP1 DUP7 PUSH20 0xFFFFFFFFFFFFFFFFFFFFFFFFFFFFFFFFFFFFFFFF AND DUP6 DUP8 PUSH1 0x40 MLOAD PUSH2 0xB7A SWAP2 SWAP1 PUSH2 0x1A6D JUMP JUMPDEST PUSH1 0x0 PUSH1 0x40 MLOAD DUP1 DUP4 SUB DUP2 DUP6 DUP8 GAS CALL SWAP3 POP POP POP RETURNDATASIZE DUP1 PUSH1 0x0 DUP2 EQ PUSH2 0xBB7 JUMPI PUSH1 0x40 MLOAD SWAP2 POP PUSH1 0x1F NOT PUSH1 0x3F RETURNDATASIZE ADD AND DUP3 ADD PUSH1 0x40 MSTORE RETURNDATASIZE DUP3 MSTORE RETURNDATASIZE PUSH1 0x0 PUSH1 0x20 DUP5 ADD RETURNDATACOPY PUSH2 0xBBC JUMP JUMPDEST PUSH1 0x60 SWAP2 POP JUMPDEST POP SWAP2 POP SWAP2 POP PUSH2 0xBCC DUP3 DUP3 DUP7 PUSH2 0xBFB JUMP JUMPDEST SWAP3 POP POP POP SWAP5 SWAP4 POP POP POP POP JUMP JUMPDEST PUSH1 0x0 DUP1 DUP3 PUSH20 0xFFFFFFFFFFFFFFFFFFFFFFFFFFFFFFFFFFFFFFFF AND EXTCODESIZE GT SWAP1 POP SWAP2 SWAP1 POP JUMP JUMPDEST PUSH1 0x60 DUP4 ISZERO PUSH2 0xC0B JUMPI DUP3 SWAP1 POP PUSH2 0xC5B JUMP JUMPDEST PUSH1 0x0 DUP4 MLOAD GT ISZERO PUSH2 0xC1E JUMPI DUP3 MLOAD DUP1 DUP5 PUSH1 0x20 ADD REVERT JUMPDEST DUP2 PUSH1 0x40 MLOAD PUSH32 0x8C379A000000000000000000000000000000000000000000000000000000000 DUP2 MSTORE PUSH1 0x4 ADD PUSH2 0xC52 SWAP2 SWAP1 PUSH2 0x1AC8 JUMP JUMPDEST PUSH1 0x40 MLOAD DUP1 SWAP2 SUB SWAP1 REVERT JUMPDEST SWAP4 SWAP3 POP POP POP JUMP JUMPDEST PUSH1 0x40 MLOAD DUP1 PUSH1 0x80 ADD PUSH1 0x40 MSTORE DUP1 PUSH1 0x60 DUP2 MSTORE PUSH1 0x20 ADD PUSH1 0x60 DUP2 MSTORE PUSH1 0x20 ADD PUSH1 0x60 DUP2 MSTORE PUSH1 0x20 ADD PUSH1 0x0 ISZERO ISZERO DUP2 MSTORE POP SWAP1 JUMP JUMPDEST PUSH1 0x40 MLOAD DUP1 PUSH1 0x80 ADD PUSH1 0x40 MSTORE DUP1 PUSH1 0x60 DUP2 MSTORE PUSH1 0x20 ADD PUSH1 0x60 DUP2 MSTORE PUSH1 0x20 ADD PUSH1 0x60 DUP2 MSTORE PUSH1 0x20 ADD PUSH1 0x0 ISZERO ISZERO DUP2 MSTORE POP SWAP1 JUMP JUMPDEST PUSH1 0x0 PUSH20 0xFFFFFFFFFFFFFFFFFFFFFFFFFFFFFFFFFFFFFFFF DUP3 AND SWAP1 POP SWAP2 SWAP1 POP JUMP JUMPDEST PUSH1 0x0 PUSH2 0xCE1 DUP3 PUSH2 0xCB6 JUMP JUMPDEST SWAP1 POP SWAP2 SWAP1 POP JUMP JUMPDEST PUSH2 0xCF1 DUP2 PUSH2 0xCD6 JUMP JUMPDEST DUP3 MSTORE POP POP JUMP JUMPDEST PUSH1 0x0 PUSH1 0x20 DUP3 ADD SWAP1 POP PUSH2 0xD0C PUSH1 0x0 DUP4 ADD DUP5 PUSH2 0xCE8 JUMP JUMPDEST SWAP3 SWAP2 POP POP JUMP JUMPDEST PUSH1 0x0 PUSH1 0x40 MLOAD SWAP1 POP SWAP1 JUMP JUMPDEST PUSH1 0x0 DUP1 REVERT JUMPDEST PUSH1 0x0 DUP1 REVERT JUMPDEST PUSH2 0xD2F DUP2 PUSH2 0xCD6 JUMP JUMPDEST DUP2 EQ PUSH2 0xD3A JUMPI PUSH1 0x0 DUP1 REVERT JUMPDEST POP JUMP JUMPDEST PUSH1 0x0 DUP2 CALLDATALOAD SWAP1 POP PUSH2 0xD4C DUP2 PUSH2 0xD26 JUMP JUMPDEST SWAP3 SWAP2 POP POP JUMP JUMPDEST PUSH1 0x0 DUP1 REVERT JUMPDEST PUSH1 0x0 PUSH1 0x1F NOT PUSH1 0x1F DUP4 ADD AND SWAP1 POP SWAP2 SWAP1 POP JUMP JUMPDEST PUSH32 0x4E487B7100000000000000000000000000000000000000000000000000000000 PUSH1 0x0 MSTORE PUSH1 0x41 PUSH1 0x4 MSTORE PUSH1 0x24 PUSH1 0x0 REVERT JUMPDEST PUSH2 0xDA0 DUP3 PUSH2 0xD57 JUMP JUMPDEST DUP2 ADD DUP2 DUP2 LT PUSH8 0xFFFFFFFFFFFFFFFF DUP3 GT OR ISZERO PUSH2 0xDBF JUMPI PUSH2 0xDBE PUSH2 0xD68 JUMP JUMPDEST JUMPDEST DUP1 PUSH1 0x40 MSTORE POP POP POP JUMP JUMPDEST PUSH1 0x0 PUSH2 0xDD2 PUSH2 0xD12 JUMP JUMPDEST SWAP1 POP PUSH2 0xDDE DUP3 DUP3 PUSH2 0xD97 JUMP JUMPDEST SWAP2 SWAP1 POP JUMP JUMPDEST PUSH1 0x0 DUP1 REVERT JUMPDEST PUSH1 0x0 DUP1 REVERT JUMPDEST PUSH1 0x0 PUSH8 0xFFFFFFFFFFFFFFFF DUP3 GT ISZERO PUSH2 0xE08 JUMPI PUSH2 0xE07 PUSH2 0xD68 JUMP JUMPDEST JUMPDEST PUSH1 0x20 DUP3 MUL SWAP1 POP PUSH1 0x20 DUP2 ADD SWAP1 POP SWAP2 SWAP1 POP JUMP JUMPDEST PUSH1 0x0 DUP1 REVERT JUMPDEST PUSH1 0x0 PUSH2 0xE29 DUP3 PUSH2 0xCD6 JUMP JUMPDEST SWAP1 POP SWAP2 SWAP1 POP JUMP JUMPDEST PUSH2 0xE39 DUP2 PUSH2 0xE1E JUMP JUMPDEST DUP2 EQ PUSH2 0xE44 JUMPI PUSH1 0x0 DUP1 REVERT JUMPDEST POP JUMP JUMPDEST PUSH1 0x0 DUP2 CALLDATALOAD SWAP1 POP PUSH2 0xE56 DUP2 PUSH2 0xE30 JUMP JUMPDEST SWAP3 SWAP2 POP POP JUMP JUMPDEST PUSH1 0x0 PUSH2 0xE6F PUSH2 0xE6A DUP5 PUSH2 0xDED JUMP JUMPDEST PUSH2 0xDC8 JUMP JUMPDEST SWAP1 POP DUP1 DUP4 DUP3 MSTORE PUSH1 0x20 DUP3 ADD SWAP1 POP PUSH1 0x20 DUP5 MUL DUP4 ADD DUP6 DUP2 GT ISZERO PUSH2 0xE92 JUMPI PUSH2 0xE91 PUSH2 0xE19 JUMP JUMPDEST JUMPDEST DUP4 JUMPDEST DUP2 DUP2 LT ISZERO PUSH2 0xEBB JUMPI DUP1 PUSH2 0xEA7 DUP9 DUP3 PUSH2 0xE47 JUMP JUMPDEST DUP5 MSTORE PUSH1 0x20 DUP5 ADD SWAP4 POP POP PUSH1 0x20 DUP2 ADD SWAP1 POP PUSH2 0xE94 JUMP JUMPDEST POP POP POP SWAP4 SWAP3 POP POP POP JUMP JUMPDEST PUSH1 0x0 DUP3 PUSH1 0x1F DUP4 ADD SLT PUSH2 0xEDA JUMPI PUSH2 0xED9 PUSH2 0xDE8 JUMP JUMPDEST JUMPDEST DUP2 CALLDATALOAD PUSH2 0xEEA DUP5 DUP3 PUSH1 0x20 DUP7 ADD PUSH2 0xE5C JUMP JUMPDEST SWAP2 POP POP SWAP3 SWAP2 POP POP JUMP JUMPDEST PUSH1 0x0 DUP2 SWAP1 POP SWAP2 SWAP1 POP JUMP JUMPDEST PUSH2 0xF06 DUP2 PUSH2 0xEF3 JUMP JUMPDEST DUP2 EQ PUSH2 0xF11 JUMPI PUSH1 0x0 DUP1 REVERT JUMPDEST POP JUMP JUMPDEST PUSH1 0x0 DUP2 CALLDATALOAD SWAP1 POP PUSH2 0xF23 DUP2 PUSH2 0xEFD JUMP JUMPDEST SWAP3 SWAP2 POP POP JUMP JUMPDEST PUSH1 0x0 DUP2 SWAP1 POP SWAP2 SWAP1 POP JUMP JUMPDEST PUSH2 0xF3C DUP2 PUSH2 0xF29 JUMP JUMPDEST DUP2 EQ PUSH2 0xF47 JUMPI PUSH1 0x0 DUP1 REVERT JUMPDEST POP JUMP JUMPDEST PUSH1 0x0 DUP2 CALLDATALOAD SWAP1 POP PUSH2 0xF59 DUP2 PUSH2 0xF33 JUMP JUMPDEST SWAP3 SWAP2 POP POP JUMP JUMPDEST PUSH1 0x0 PUSH1 0xC0 DUP3 DUP5 SUB SLT ISZERO PUSH2 0xF75 JUMPI PUSH2 0xF74 PUSH2 0xD52 JUMP JUMPDEST JUMPDEST PUSH2 0xF7F PUSH1 0xC0 PUSH2 0xDC8 JUMP JUMPDEST SWAP1 POP PUSH1 0x0 DUP3 ADD CALLDATALOAD PUSH8 0xFFFFFFFFFFFFFFFF DUP2 GT ISZERO PUSH2 0xF9F JUMPI PUSH2 0xF9E PUSH2 0xDE3 JUMP JUMPDEST JUMPDEST PUSH2 0xFAB DUP5 DUP3 DUP6 ADD PUSH2 0xEC5 JUMP JUMPDEST PUSH1 0x0 DUP4 ADD MSTORE POP PUSH1 0x20 PUSH2 0xFBF DUP5 DUP3 DUP6 ADD PUSH2 0xF14 JUMP JUMPDEST PUSH1 0x20 DUP4 ADD MSTORE POP PUSH1 0x40 PUSH2 0xFD3 DUP5 DUP3 DUP6 ADD PUSH2 0xF4A JUMP JUMPDEST PUSH1 0x40 DUP4 ADD MSTORE POP PUSH1 0x60 PUSH2 0xFE7 DUP5 DUP3 DUP6 ADD PUSH2 0xD3D JUMP JUMPDEST PUSH1 0x60 DUP4 ADD MSTORE POP PUSH1 0x80 PUSH2 0xFFB DUP5 DUP3 DUP6 ADD PUSH2 0xD3D JUMP JUMPDEST PUSH1 0x80 DUP4 ADD MSTORE POP PUSH1 0xA0 PUSH2 0x100F DUP5 DUP3 DUP6 ADD PUSH2 0xD3D JUMP JUMPDEST PUSH1 0xA0 DUP4 ADD MSTORE POP SWAP3 SWAP2 POP POP JUMP JUMPDEST PUSH1 0x0 DUP1 PUSH1 0x0 PUSH1 0x60 DUP5 DUP7 SUB SLT ISZERO PUSH2 0x1034 JUMPI PUSH2 0x1033 PUSH2 0xD1C JUMP JUMPDEST JUMPDEST PUSH1 0x0 PUSH2 0x1042 DUP7 DUP3 DUP8 ADD PUSH2 0xD3D JUMP JUMPDEST SWAP4 POP POP PUSH1 0x20 DUP5 ADD CALLDATALOAD PUSH8 0xFFFFFFFFFFFFFFFF DUP2 GT ISZERO PUSH2 0x1063 JUMPI PUSH2 0x1062 PUSH2 0xD21 JUMP JUMPDEST JUMPDEST PUSH2 0x106F DUP7 DUP3 DUP8 ADD PUSH2 0xF5F JUMP JUMPDEST SWAP3 POP POP PUSH1 0x40 PUSH2 0x1080 DUP7 DUP3 DUP8 ADD PUSH2 0xF14 JUMP JUMPDEST SWAP2 POP POP SWAP3 POP SWAP3 POP SWAP3 JUMP JUMPDEST PUSH1 0x0 DUP1 PUSH1 0x40 DUP4 DUP6 SUB SLT ISZERO PUSH2 0x10A1 JUMPI PUSH2 0x10A0 PUSH2 0xD1C JUMP JUMPDEST JUMPDEST PUSH1 0x0 DUP4 ADD CALLDATALOAD PUSH8 0xFFFFFFFFFFFFFFFF DUP2 GT ISZERO PUSH2 0x10BF JUMPI PUSH2 0x10BE PUSH2 0xD21 JUMP JUMPDEST JUMPDEST PUSH2 0x10CB DUP6 DUP3 DUP7 ADD PUSH2 0xF5F JUMP JUMPDEST SWAP3 POP POP PUSH1 0x20 PUSH2 0x10DC DUP6 DUP3 DUP7 ADD PUSH2 0xF14 JUMP JUMPDEST SWAP2 POP POP SWAP3 POP SWAP3 SWAP1 POP JUMP JUMPDEST PUSH1 0x0 DUP1 PUSH1 0x0 PUSH1 0x60 DUP5 DUP7 SUB SLT ISZERO PUSH2 0x10FF JUMPI PUSH2 0x10FE PUSH2 0xD1C JUMP JUMPDEST JUMPDEST PUSH1 0x0 DUP5 ADD CALLDATALOAD PUSH8 0xFFFFFFFFFFFFFFFF DUP2 GT ISZERO PUSH2 0x111D JUMPI PUSH2 0x111C PUSH2 0xD21 JUMP JUMPDEST JUMPDEST PUSH2 0x1129 DUP7 DUP3 DUP8 ADD PUSH2 0xF5F JUMP JUMPDEST SWAP4 POP POP PUSH1 0x20 PUSH2 0x113A DUP7 DUP3 DUP8 ADD PUSH2 0xF14 JUMP JUMPDEST SWAP3 POP POP PUSH1 0x40 PUSH2 0x114B DUP7 DUP3 DUP8 ADD PUSH2 0xF14 JUMP JUMPDEST SWAP2 POP POP SWAP3 POP SWAP3 POP SWAP3 JUMP JUMPDEST PUSH32 0x4E487B7100000000000000000000000000000000000000000000000000000000 PUSH1 0x0 MSTORE PUSH1 0x32 PUSH1 0x4 MSTORE PUSH1 0x24 PUSH1 0x0 REVERT JUMPDEST PUSH2 0x118D DUP2 PUSH2 0xEF3 JUMP JUMPDEST DUP3 MSTORE POP POP JUMP JUMPDEST PUSH1 0x0 PUSH1 0x60 DUP3 ADD SWAP1 POP PUSH2 0x11A8 PUSH1 0x0 DUP4 ADD DUP7 PUSH2 0xCE8 JUMP JUMPDEST PUSH2 0x11B5 PUSH1 0x20 DUP4 ADD DUP6 PUSH2 0xCE8 JUMP JUMPDEST PUSH2 0x11C2 PUSH1 0x40 DUP4 ADD DUP5 PUSH2 0x1184 JUMP JUMPDEST SWAP5 SWAP4 POP POP POP POP JUMP JUMPDEST PUSH1 0x0 PUSH1 0xFF DUP3 AND SWAP1 POP SWAP2 SWAP1 POP JUMP JUMPDEST PUSH2 0x11E0 DUP2 PUSH2 0x11CA JUMP JUMPDEST DUP3 MSTORE POP POP JUMP JUMPDEST PUSH1 0x0 DUP2 MLOAD SWAP1 POP SWAP2 SWAP1 POP JUMP JUMPDEST PUSH1 0x0 DUP3 DUP3 MSTORE PUSH1 0x20 DUP3 ADD SWAP1 POP SWAP3 SWAP2 POP POP JUMP JUMPDEST PUSH1 0x0 DUP2 SWAP1 POP PUSH1 0x20 DUP3 ADD SWAP1 POP SWAP2 SWAP1 POP JUMP JUMPDEST PUSH2 0x121B DUP2 PUSH2 0xEF3 JUMP JUMPDEST DUP3 MSTORE POP POP JUMP JUMPDEST PUSH1 0x0 PUSH2 0x122D DUP4 DUP4 PUSH2 0x1212 JUMP JUMPDEST PUSH1 0x20 DUP4 ADD SWAP1 POP SWAP3 SWAP2 POP POP JUMP JUMPDEST PUSH1 0x0 PUSH1 0x20 DUP3 ADD SWAP1 POP SWAP2 SWAP1 POP JUMP JUMPDEST PUSH1 0x0 PUSH2 0x1251 DUP3 PUSH2 0x11E6 JUMP JUMPDEST PUSH2 0x125B DUP2 DUP6 PUSH2 0x11F1 JUMP JUMPDEST SWAP4 POP PUSH2 0x1266 DUP4 PUSH2 0x1202 JUMP JUMPDEST DUP1 PUSH1 0x0 JUMPDEST DUP4 DUP2 LT ISZERO PUSH2 0x1297 JUMPI DUP2 MLOAD PUSH2 0x127E DUP9 DUP3 PUSH2 0x1221 JUMP JUMPDEST SWAP8 POP PUSH2 0x1289 DUP4 PUSH2 0x1239 JUMP JUMPDEST SWAP3 POP POP PUSH1 0x1 DUP2 ADD SWAP1 POP PUSH2 0x126A JUMP JUMPDEST POP DUP6 SWAP4 POP POP POP POP SWAP3 SWAP2 POP POP JUMP JUMPDEST PUSH1 0x0 PUSH1 0x60 DUP3 ADD SWAP1 POP PUSH2 0x12B9 PUSH1 0x0 DUP4 ADD DUP7 PUSH2 0x11D7 JUMP JUMPDEST DUP2 DUP2 SUB PUSH1 0x20 DUP4 ADD MSTORE PUSH2 0x12CB DUP2 DUP6 PUSH2 0x1246 JUMP JUMPDEST SWAP1 POP PUSH2 0x12DA PUSH1 0x40 DUP4 ADD DUP5 PUSH2 0x1184 JUMP JUMPDEST SWAP5 SWAP4 POP POP POP POP JUMP JUMPDEST PUSH2 0x12EB DUP2 PUSH2 0xF29 JUMP JUMPDEST DUP3 MSTORE POP POP JUMP JUMPDEST PUSH1 0x0 DUP2 MLOAD SWAP1 POP SWAP2 SWAP1 POP JUMP JUMPDEST PUSH1 0x0 DUP3 DUP3 MSTORE PUSH1 0x20 DUP3 ADD SWAP1 POP SWAP3 SWAP2 POP POP JUMP JUMPDEST PUSH1 0x0 DUP2 SWAP1 POP PUSH1 0x20 DUP3 ADD SWAP1 POP SWAP2 SWAP1 POP JUMP JUMPDEST PUSH1 0x0 DUP2 SWAP1 POP SWAP2 SWAP1 POP JUMP JUMPDEST PUSH1 0x0 PUSH2 0x1342 PUSH2 0x133D PUSH2 0x1338 DUP5 PUSH2 0xCB6 JUMP JUMPDEST PUSH2 0x131D JUMP JUMPDEST PUSH2 0xCB6 JUMP JUMPDEST SWAP1 POP SWAP2 SWAP1 POP JUMP JUMPDEST PUSH1 0x0 PUSH2 0x1354 DUP3 PUSH2 0x1327 JUMP JUMPDEST SWAP1 POP SWAP2 SWAP1 POP JUMP JUMPDEST PUSH1 0x0 PUSH2 0x1366 DUP3 PUSH2 0x1349 JUMP JUMPDEST SWAP1 POP SWAP2 SWAP1 POP JUMP JUMPDEST PUSH2 0x1376 DUP2 PUSH2 0x135B JUMP JUMPDEST DUP3 MSTORE POP POP JUMP JUMPDEST PUSH1 0x0 PUSH2 0x1388 DUP4 DUP4 PUSH2 0x136D JUMP JUMPDEST PUSH1 0x20 DUP4 ADD SWAP1 POP SWAP3 SWAP2 POP POP JUMP JUMPDEST PUSH1 0x0 PUSH1 0x20 DUP3 ADD SWAP1 POP SWAP2 SWAP1 POP JUMP JUMPDEST PUSH1 0x0 PUSH2 0x13AC DUP3 PUSH2 0x12F1 JUMP JUMPDEST PUSH2 0x13B6 DUP2 DUP6 PUSH2 0x12FC JUMP JUMPDEST SWAP4 POP PUSH2 0x13C1 DUP4 PUSH2 0x130D JUMP JUMPDEST DUP1 PUSH1 0x0 JUMPDEST DUP4 DUP2 LT ISZERO PUSH2 0x13F2 JUMPI DUP2 MLOAD PUSH2 0x13D9 DUP9 DUP3 PUSH2 0x137C JUMP JUMPDEST SWAP8 POP PUSH2 0x13E4 DUP4 PUSH2 0x1394 JUMP JUMPDEST SWAP3 POP POP PUSH1 0x1 DUP2 ADD SWAP1 POP PUSH2 0x13C5 JUMP JUMPDEST POP DUP6 SWAP4 POP POP POP POP SWAP3 SWAP2 POP POP JUMP JUMPDEST PUSH1 0x0 DUP3 DUP3 MSTORE PUSH1 0x20 DUP3 ADD SWAP1 POP SWAP3 SWAP2 POP POP JUMP JUMPDEST PUSH1 0x0 PUSH2 0x141B DUP3 PUSH2 0x11E6 JUMP JUMPDEST PUSH2 0x1425 DUP2 DUP6 PUSH2 0x13FF JUMP JUMPDEST SWAP4 POP PUSH2 0x1430 DUP4 PUSH2 0x1202 JUMP JUMPDEST DUP1 PUSH1 0x0 JUMPDEST DUP4 DUP2 LT ISZERO PUSH2 0x1461 JUMPI DUP2 MLOAD PUSH2 0x1448 DUP9 DUP3 PUSH2 0x1221 JUMP JUMPDEST SWAP8 POP PUSH2 0x1453 DUP4 PUSH2 0x1239 JUMP JUMPDEST SWAP3 POP POP PUSH1 0x1 DUP2 ADD SWAP1 POP PUSH2 0x1434 JUMP JUMPDEST POP DUP6 SWAP4 POP POP POP POP SWAP3 SWAP2 POP POP JUMP JUMPDEST PUSH1 0x0 DUP2 MLOAD SWAP1 POP SWAP2 SWAP1 POP JUMP JUMPDEST PUSH1 0x0 DUP3 DUP3 MSTORE PUSH1 0x20 DUP3 ADD SWAP1 POP SWAP3 SWAP2 POP POP JUMP JUMPDEST PUSH1 0x0 JUMPDEST DUP4 DUP2 LT ISZERO PUSH2 0x14A8 JUMPI DUP1 DUP3 ADD MLOAD DUP2 DUP5 ADD MSTORE PUSH1 0x20 DUP2 ADD SWAP1 POP PUSH2 0x148D JUMP JUMPDEST DUP4 DUP2 GT ISZERO PUSH2 0x14B7 JUMPI PUSH1 0x0 DUP5 DUP5 ADD MSTORE JUMPDEST POP POP POP POP JUMP JUMPDEST PUSH1 0x0 PUSH2 0x14C8 DUP3 PUSH2 0x146E JUMP JUMPDEST PUSH2 0x14D2 DUP2 DUP6 PUSH2 0x1479 JUMP JUMPDEST SWAP4 POP PUSH2 0x14E2 DUP2 DUP6 PUSH1 0x20 DUP7 ADD PUSH2 0x148A JUMP JUMPDEST PUSH2 0x14EB DUP2 PUSH2 0xD57 JUMP JUMPDEST DUP5 ADD SWAP2 POP POP SWAP3 SWAP2 POP POP JUMP JUMPDEST PUSH1 0x0 DUP2 ISZERO ISZERO SWAP1 POP SWAP2 SWAP1 POP JUMP JUMPDEST PUSH2 0x150B DUP2 PUSH2 0x14F6 JUMP JUMPDEST DUP3 MSTORE POP POP JUMP JUMPDEST PUSH1 0x0 PUSH1 0x80 DUP4 ADD PUSH1 0x0 DUP4 ADD MLOAD DUP5 DUP3 SUB PUSH1 0x0 DUP7 ADD MSTORE PUSH2 0x152E DUP3 DUP3 PUSH2 0x13A1 JUMP JUMPDEST SWAP2 POP POP PUSH1 0x20 DUP4 ADD MLOAD DUP5 DUP3 SUB PUSH1 0x20 DUP7 ADD MSTORE PUSH2 0x1548 DUP3 DUP3 PUSH2 0x1410 JUMP JUMPDEST SWAP2 POP POP PUSH1 0x40 DUP4 ADD MLOAD DUP5 DUP3 SUB PUSH1 0x40 DUP7 ADD MSTORE PUSH2 0x1562 DUP3 DUP3 PUSH2 0x14BD JUMP JUMPDEST SWAP2 POP POP PUSH1 0x60 DUP4 ADD MLOAD PUSH2 0x1577 PUSH1 0x60 DUP7 ADD DUP3 PUSH2 0x1502 JUMP JUMPDEST POP DUP1 SWAP2 POP POP SWAP3 SWAP2 POP POP JUMP JUMPDEST PUSH1 0x0 PUSH1 0x80 DUP3 ADD SWAP1 POP PUSH2 0x1597 PUSH1 0x0 DUP4 ADD DUP8 PUSH2 0x12E2 JUMP JUMPDEST PUSH2 0x15A4 PUSH1 0x20 DUP4 ADD DUP7 PUSH2 0xCE8 JUMP JUMPDEST PUSH2 0x15B1 PUSH1 0x40 DUP4 ADD DUP6 PUSH2 0xCE8 JUMP JUMPDEST DUP2 DUP2 SUB PUSH1 0x60 DUP4 ADD MSTORE PUSH2 0x15C3 DUP2 DUP5 PUSH2 0x1511 JUMP JUMPDEST SWAP1 POP SWAP6 SWAP5 POP POP POP POP POP JUMP JUMPDEST PUSH1 0x0 DUP2 MLOAD SWAP1 POP PUSH2 0x15DD DUP2 PUSH2 0xEFD JUMP JUMPDEST SWAP3 SWAP2 POP POP JUMP JUMPDEST PUSH1 0x0 PUSH1 0x20 DUP3 DUP5 SUB SLT ISZERO PUSH2 0x15F9 JUMPI PUSH2 0x15F8 PUSH2 0xD1C JUMP JUMPDEST JUMPDEST PUSH1 0x0 PUSH2 0x1607 DUP5 DUP3 DUP6 ADD PUSH2 0x15CE JUMP JUMPDEST SWAP2 POP POP SWAP3 SWAP2 POP POP JUMP JUMPDEST PUSH1 0x0 DUP2 SWAP1 POP SWAP2 SWAP1 POP JUMP JUMPDEST PUSH1 0x0 PUSH2 0x1635 PUSH2 0x1630 PUSH2 0x162B DUP5 PUSH2 0x1610 JUMP JUMPDEST PUSH2 0x131D JUMP JUMPDEST PUSH2 0x11CA JUMP JUMPDEST SWAP1 POP SWAP2 SWAP1 POP JUMP JUMPDEST PUSH2 0x1645 DUP2 PUSH2 0x161A JUMP JUMPDEST DUP3 MSTORE POP POP JUMP JUMPDEST PUSH1 0x0 PUSH1 0x60 DUP3 ADD SWAP1 POP PUSH2 0x1660 PUSH1 0x0 DUP4 ADD DUP7 PUSH2 0x163C JUMP JUMPDEST PUSH2 0x166D PUSH1 0x20 DUP4 ADD DUP6 PUSH2 0x1184 JUMP JUMPDEST PUSH2 0x167A PUSH1 0x40 DUP4 ADD DUP5 PUSH2 0x1184 JUMP JUMPDEST SWAP5 SWAP4 POP POP POP POP JUMP JUMPDEST PUSH1 0x0 PUSH2 0x168D DUP3 PUSH2 0xCB6 JUMP JUMPDEST SWAP1 POP SWAP2 SWAP1 POP JUMP JUMPDEST PUSH2 0x169D DUP2 PUSH2 0x1682 JUMP JUMPDEST DUP3 MSTORE POP POP JUMP JUMPDEST PUSH1 0x0 PUSH1 0x80 DUP4 ADD PUSH1 0x0 DUP4 ADD MLOAD DUP5 DUP3 SUB PUSH1 0x0 DUP7 ADD MSTORE PUSH2 0x16C0 DUP3 DUP3 PUSH2 0x13A1 JUMP JUMPDEST SWAP2 POP POP PUSH1 0x20 DUP4 ADD MLOAD DUP5 DUP3 SUB PUSH1 0x20 DUP7 ADD MSTORE PUSH2 0x16DA DUP3 DUP3 PUSH2 0x1410 JUMP JUMPDEST SWAP2 POP POP PUSH1 0x40 DUP4 ADD MLOAD DUP5 DUP3 SUB PUSH1 0x40 DUP7 ADD MSTORE PUSH2 0x16F4 DUP3 DUP3 PUSH2 0x14BD JUMP JUMPDEST SWAP2 POP POP PUSH1 0x60 DUP4 ADD MLOAD PUSH2 0x1709 PUSH1 0x60 DUP7 ADD DUP3 PUSH2 0x1502 JUMP JUMPDEST POP DUP1 SWAP2 POP POP SWAP3 SWAP2 POP POP JUMP JUMPDEST PUSH1 0x0 PUSH1 0x80 DUP3 ADD SWAP1 POP PUSH2 0x1729 PUSH1 0x0 DUP4 ADD DUP8 PUSH2 0x12E2 JUMP JUMPDEST PUSH2 0x1736 PUSH1 0x20 DUP4 ADD DUP7 PUSH2 0xCE8 JUMP JUMPDEST PUSH2 0x1743 PUSH1 0x40 DUP4 ADD DUP6 PUSH2 0x1694 JUMP JUMPDEST DUP2 DUP2 SUB PUSH1 0x60 DUP4 ADD MSTORE PUSH2 0x1755 DUP2 DUP5 PUSH2 0x16A3 JUMP JUMPDEST SWAP1 POP SWAP6 SWAP5 POP POP POP POP POP JUMP JUMPDEST PUSH2 0x1769 DUP2 PUSH2 0x14F6 JUMP JUMPDEST DUP2 EQ PUSH2 0x1774 JUMPI PUSH1 0x0 DUP1 REVERT JUMPDEST POP JUMP JUMPDEST PUSH1 0x0 DUP2 MLOAD SWAP1 POP PUSH2 0x1786 DUP2 PUSH2 0x1760 JUMP JUMPDEST SWAP3 SWAP2 POP POP JUMP JUMPDEST PUSH1 0x0 PUSH1 0x20 DUP3 DUP5 SUB SLT ISZERO PUSH2 0x17A2 JUMPI PUSH2 0x17A1 PUSH2 0xD1C JUMP JUMPDEST JUMPDEST PUSH1 0x0 PUSH2 0x17B0 DUP5 DUP3 DUP6 ADD PUSH2 0x1777 JUMP JUMPDEST SWAP2 POP POP SWAP3 SWAP2 POP POP JUMP JUMPDEST PUSH1 0x0 DUP3 DUP3 MSTORE PUSH1 0x20 DUP3 ADD SWAP1 POP SWAP3 SWAP2 POP POP JUMP JUMPDEST PUSH32 0x5361666545524332303A204552433230206F7065726174696F6E20646964206E PUSH1 0x0 DUP3 ADD MSTORE PUSH32 0x6F74207375636365656400000000000000000000000000000000000000000000 PUSH1 0x20 DUP3 ADD MSTORE POP JUMP JUMPDEST PUSH1 0x0 PUSH2 0x1826 PUSH1 0x2A DUP4 PUSH2 0x17B9 JUMP JUMPDEST SWAP2 POP PUSH2 0x1831 DUP3 PUSH2 0x17CA JUMP JUMPDEST PUSH1 0x40 DUP3 ADD SWAP1 POP SWAP2 SWAP1 POP JUMP JUMPDEST PUSH1 0x0 PUSH1 0x20 DUP3 ADD SWAP1 POP DUP2 DUP2 SUB PUSH1 0x0 DUP4 ADD MSTORE PUSH2 0x1855 DUP2 PUSH2 0x1819 JUMP JUMPDEST SWAP1 POP SWAP2 SWAP1 POP JUMP JUMPDEST PUSH1 0x0 PUSH1 0x40 DUP3 ADD SWAP1 POP PUSH2 0x1871 PUSH1 0x0 DUP4 ADD DUP6 PUSH2 0xCE8 JUMP JUMPDEST PUSH2 0x187E PUSH1 0x20 DUP4 ADD DUP5 PUSH2 0xCE8 JUMP JUMPDEST SWAP4 SWAP3 POP POP POP JUMP JUMPDEST PUSH32 0x4E487B7100000000000000000000000000000000000000000000000000000000 PUSH1 0x0 MSTORE PUSH1 0x11 PUSH1 0x4 MSTORE PUSH1 0x24 PUSH1 0x0 REVERT JUMPDEST PUSH1 0x0 PUSH2 0x18BF DUP3 PUSH2 0xEF3 JUMP JUMPDEST SWAP2 POP PUSH2 0x18CA DUP4 PUSH2 0xEF3 JUMP JUMPDEST SWAP3 POP DUP3 PUSH32 0xFFFFFFFFFFFFFFFFFFFFFFFFFFFFFFFFFFFFFFFFFFFFFFFFFFFFFFFFFFFFFFFF SUB DUP3 GT ISZERO PUSH2 0x18FF JUMPI PUSH2 0x18FE PUSH2 0x1885 JUMP JUMPDEST JUMPDEST DUP3 DUP3 ADD SWAP1 POP SWAP3 SWAP2 POP POP JUMP JUMPDEST PUSH1 0x0 PUSH1 0x40 DUP3 ADD SWAP1 POP PUSH2 0x191F PUSH1 0x0 DUP4 ADD DUP6 PUSH2 0xCE8 JUMP JUMPDEST PUSH2 0x192C PUSH1 0x20 DUP4 ADD DUP5 PUSH2 0x1184 JUMP JUMPDEST SWAP4 SWAP3 POP POP POP JUMP JUMPDEST PUSH32 0x416464726573733A20696E73756666696369656E742062616C616E636520666F PUSH1 0x0 DUP3 ADD MSTORE PUSH32 0x722063616C6C0000000000000000000000000000000000000000000000000000 PUSH1 0x20 DUP3 ADD MSTORE POP JUMP JUMPDEST PUSH1 0x0 PUSH2 0x198F PUSH1 0x26 DUP4 PUSH2 0x17B9 JUMP JUMPDEST SWAP2 POP PUSH2 0x199A DUP3 PUSH2 0x1933 JUMP JUMPDEST PUSH1 0x40 DUP3 ADD SWAP1 POP SWAP2 SWAP1 POP JUMP JUMPDEST PUSH1 0x0 PUSH1 0x20 DUP3 ADD SWAP1 POP DUP2 DUP2 SUB PUSH1 0x0 DUP4 ADD MSTORE PUSH2 0x19BE DUP2 PUSH2 0x1982 JUMP JUMPDEST SWAP1 POP SWAP2 SWAP1 POP JUMP JUMPDEST PUSH32 0x416464726573733A2063616C6C20746F206E6F6E2D636F6E7472616374000000 PUSH1 0x0 DUP3 ADD MSTORE POP JUMP JUMPDEST PUSH1 0x0 PUSH2 0x19FB PUSH1 0x1D DUP4 PUSH2 0x17B9 JUMP JUMPDEST SWAP2 POP PUSH2 0x1A06 DUP3 PUSH2 0x19C5 JUMP JUMPDEST PUSH1 0x20 DUP3 ADD SWAP1 POP SWAP2 SWAP1 POP JUMP JUMPDEST PUSH1 0x0 PUSH1 0x20 DUP3 ADD SWAP1 POP DUP2 DUP2 SUB PUSH1 0x0 DUP4 ADD MSTORE PUSH2 0x1A2A DUP2 PUSH2 0x19EE JUMP JUMPDEST SWAP1 POP SWAP2 SWAP1 POP JUMP JUMPDEST PUSH1 0x0 DUP2 SWAP1 POP SWAP3 SWAP2 POP POP JUMP JUMPDEST PUSH1 0x0 PUSH2 0x1A47 DUP3 PUSH2 0x146E JUMP JUMPDEST PUSH2 0x1A51 DUP2 DUP6 PUSH2 0x1A31 JUMP JUMPDEST SWAP4 POP PUSH2 0x1A61 DUP2 DUP6 PUSH1 0x20 DUP7 ADD PUSH2 0x148A JUMP JUMPDEST DUP1 DUP5 ADD SWAP2 POP POP SWAP3 SWAP2 POP POP JUMP JUMPDEST PUSH1 0x0 PUSH2 0x1A79 DUP3 DUP5 PUSH2 0x1A3C JUMP JUMPDEST SWAP2 POP DUP2 SWAP1 POP SWAP3 SWAP2 POP POP JUMP JUMPDEST PUSH1 0x0 DUP2 MLOAD SWAP1 POP SWAP2 SWAP1 POP JUMP JUMPDEST PUSH1 0x0 PUSH2 0x1A9A DUP3 PUSH2 0x1A84 JUMP JUMPDEST PUSH2 0x1AA4 DUP2 DUP6 PUSH2 0x17B9 JUMP JUMPDEST SWAP4 POP PUSH2 0x1AB4 DUP2 DUP6 PUSH1 0x20 DUP7 ADD PUSH2 0x148A JUMP JUMPDEST PUSH2 0x1ABD DUP2 PUSH2 0xD57 JUMP JUMPDEST DUP5 ADD SWAP2 POP POP SWAP3 SWAP2 POP POP JUMP JUMPDEST PUSH1 0x0 PUSH1 0x20 DUP3 ADD SWAP1 POP DUP2 DUP2 SUB PUSH1 0x0 DUP4 ADD MSTORE PUSH2 0x1AE2 DUP2 DUP5 PUSH2 0x1A8F JUMP JUMPDEST SWAP1 POP SWAP3 SWAP2 POP POP JUMP INVALID LOG2 PUSH5 0x6970667358 0x22 SLT KECCAK256 DUP6 SWAP2 SHR DUP7 EXTCODESIZE 0xAF LT 0xC ADDRESS PUSH32 0xAC0F10CC0EF94D11B02D43A5B686F6C873E2C150D05D64736F6C634300080D00 CALLER "
				},
				"gasEstimates": {
					"creation": {
						"codeDepositCost": "1388800",
						"executionCost": "infinite",
						"totalCost": "infinite"
					},
					"external": {
						"_singleSideDeposit((address[],uint256,bytes32,address,address,address),uint256)": "infinite",
						"_singleSideWithdraw((address[],uint256,bytes32,address,address,address),uint256,uint256)": "infinite",
						"balVault()": "infinite",
						"routeDeposit(address,(address[],uint256,bytes32,address,address,address),uint256)": "infinite"
					},
					"internal": {
						"_approveIfNeeded(address,address)": "infinite",
						"_depositLPToVault(address,address,address)": "infinite",
						"_exitPool(contract IAsset[] memory,uint256,uint256,bytes32)": "infinite",
						"_joinPool(contract IAsset[] memory,uint256,uint256,bytes32)": "infinite"
					}
				},
				"methodIdentifiers": {
					"_singleSideDeposit((address[],uint256,bytes32,address,address,address),uint256)": "bfbd3808",
					"_singleSideWithdraw((address[],uint256,bytes32,address,address,address),uint256,uint256)": "d62d2fbc",
					"balVault()": "77aba213",
					"routeDeposit(address,(address[],uint256,bytes32,address,address,address),uint256)": "9cbcf4c7"
				}
			},
			"storageLayout": {
				"storage": [],
				"types": null
			},
			"userdoc": {
				"kind": "user",
				"methods": {},
				"version": 1
			}
		}
	}
}