{
	"data": {
		"bytecode": {
			"linkReferences": {},
			"object": "60a06040523480156200001157600080fd5b506040516200182b3803806200182b8339818101604052810190620000379190620000dc565b8073ffffffffffffffffffffffffffffffffffffffff1660808173ffffffffffffffffffffffffffffffffffffffff1681525050506200010e565b600080fd5b600073ffffffffffffffffffffffffffffffffffffffff82169050919050565b6000620000a48262000077565b9050919050565b620000b68162000097565b8114620000c257600080fd5b50565b600081519050620000d681620000ab565b92915050565b600060208284031215620000f557620000f462000072565b5b60006200010584828501620000c5565b91505092915050565b6080516116f46200013760003960008181609e0152818161031c015261037e01526116f46000f3fe608060405234801561001057600080fd5b50600436106100415760003560e01c806377aba213146100465780639cbcf4c714610064578063bfbd380814610080575b600080fd5b61004e61009c565b60405161005b9190610a8a565b60405180910390f35b61007e60048036038101906100799190610dae565b6100c0565b005b61009a60048036038101906100959190610e1d565b610130565b005b7f000000000000000000000000000000000000000000000000000000000000000081565b600082600001518360200151815181106100dd576100dc610e79565b5b602002602001015190508073ffffffffffffffffffffffffffffffffffffffff168473ffffffffffffffffffffffffffffffffffffffff1603610129576101248383610130565b61012a565b5b50505050565b6000826000015183602001518151811061014d5761014c610e79565b5b602002602001015190506101843330848473ffffffffffffffffffffffffffffffffffffffff166101b8909392919063ffffffff16565b61019c83600001518385602001518660400151610241565b6101b3836060015184608001518560a00151610418565b505050565b61023b846323b872dd60e01b8585856040516024016101d993929190610eb7565b604051602081830303815290604052907bffffffffffffffffffffffffffffffffffffffffffffffffffffffff19166020820180517bffffffffffffffffffffffffffffffffffffffffffffffffffffffff8381831617835250505050610531565b50505050565b6000600190506000855167ffffffffffffffff81111561026457610263610afb565b5b6040519080825280602002602001820160405280156102925781602001602082028036833780820191505090505b509050848185815181106102a9576102a8610e79565b5b60200260200101818152505060006001905060008383836040516020016102d293929190610fc8565b60405160208183030381529060405290506102eb610a1f565b888160000181905250838160200181905250818160400181905250600081606001901515908115158152505061037c7f0000000000000000000000000000000000000000000000000000000000000000898b8a8151811061034f5761034e610e79565b5b602002602001015173ffffffffffffffffffffffffffffffffffffffff166105f89092919063ffffffff16565b7f000000000000000000000000000000000000000000000000000000000000000073ffffffffffffffffffffffffffffffffffffffff1663b95cac28873030856040518563ffffffff1660e01b81526004016103db94939291906112a6565b600060405180830381600087803b1580156103f557600080fd5b505af1158015610409573d6000803e3d6000fd5b50505050505050505050505050565b610422828461070a565b8173ffffffffffffffffffffffffffffffffffffffff1663de5f62686040518163ffffffff1660e01b8152600401600060405180830381600087803b15801561046a57600080fd5b505af115801561047e573d6000803e3d6000fd5b50505050600082905061052b828273ffffffffffffffffffffffffffffffffffffffff166370a08231306040518263ffffffff1660e01b81526004016104c49190610a8a565b602060405180830381865afa1580156104e1573d6000803e3d6000fd5b505050506040513d601f19601f820116820180604052508101906105059190611307565b8373ffffffffffffffffffffffffffffffffffffffff166107e39092919063ffffffff16565b50505050565b6000610593826040518060400160405280602081526020017f5361666545524332303a206c6f772d6c6576656c2063616c6c206661696c65648152508573ffffffffffffffffffffffffffffffffffffffff166108699092919063ffffffff16565b90506000815111156105f357808060200190518101906105b39190611360565b6105f2576040517f08c379a00000000000000000000000000000000000000000000000000000000081526004016105e990611410565b60405180910390fd5b5b505050565b6000818473ffffffffffffffffffffffffffffffffffffffff1663dd62ed3e30866040518363ffffffff1660e01b8152600401610636929190611430565b602060405180830381865afa158015610653573d6000803e3d6000fd5b505050506040513d601f19601f820116820180604052508101906106779190611307565b6106819190611488565b90506107048463095ea7b360e01b85846040516024016106a29291906114de565b604051602081830303815290604052907bffffffffffffffffffffffffffffffffffffffffffffffffffffffff19166020820180517bffffffffffffffffffffffffffffffffffffffffffffffffffffffff8381831617835250505050610531565b50505050565b600081905060008173ffffffffffffffffffffffffffffffffffffffff1663dd62ed3e30866040518363ffffffff1660e01b815260040161074c929190611430565b602060405180830381865afa158015610769573d6000803e3d6000fd5b505050506040513d601f19601f8201168201806040525081019061078d9190611307565b036107de576107dd837fffffffffffffffffffffffffffffffffffffffffffffffffffffffffffffffff8373ffffffffffffffffffffffffffffffffffffffff166105f89092919063ffffffff16565b5b505050565b6108648363a9059cbb60e01b84846040516024016108029291906114de565b604051602081830303815290604052907bffffffffffffffffffffffffffffffffffffffffffffffffffffffff19166020820180517bffffffffffffffffffffffffffffffffffffffffffffffffffffffff8381831617835250505050610531565b505050565b60606108788484600085610881565b90509392505050565b6060824710156108c6576040517f08c379a00000000000000000000000000000000000000000000000000000000081526004016108bd90611579565b60405180910390fd5b6108cf85610995565b61090e576040517f08c379a0000000000000000000000000000000000000000000000000000000008152600401610905906115e5565b60405180910390fd5b6000808673ffffffffffffffffffffffffffffffffffffffff1685876040516109379190611641565b60006040518083038185875af1925050503d8060008114610974576040519150601f19603f3d011682016040523d82523d6000602084013e610979565b606091505b50915091506109898282866109b8565b92505050949350505050565b6000808273ffffffffffffffffffffffffffffffffffffffff163b119050919050565b606083156109c857829050610a18565b6000835111156109db5782518084602001fd5b816040517f08c379a0000000000000000000000000000000000000000000000000000000008152600401610a0f919061169c565b60405180910390fd5b9392505050565b60405180608001604052806060815260200160608152602001606081526020016000151581525090565b600073ffffffffffffffffffffffffffffffffffffffff82169050919050565b6000610a7482610a49565b9050919050565b610a8481610a69565b82525050565b6000602082019050610a9f6000830184610a7b565b92915050565b6000604051905090565b600080fd5b600080fd5b610ac281610a69565b8114610acd57600080fd5b50565b600081359050610adf81610ab9565b92915050565b600080fd5b6000601f19601f8301169050919050565b7f4e487b7100000000000000000000000000000000000000000000000000000000600052604160045260246000fd5b610b3382610aea565b810181811067ffffffffffffffff82111715610b5257610b51610afb565b5b80604052505050565b6000610b65610aa5565b9050610b718282610b2a565b919050565b600080fd5b600080fd5b600067ffffffffffffffff821115610b9b57610b9a610afb565b5b602082029050602081019050919050565b600080fd5b6000610bbc82610a69565b9050919050565b610bcc81610bb1565b8114610bd757600080fd5b50565b600081359050610be981610bc3565b92915050565b6000610c02610bfd84610b80565b610b5b565b90508083825260208201905060208402830185811115610c2557610c24610bac565b5b835b81811015610c4e5780610c3a8882610bda565b845260208401935050602081019050610c27565b5050509392505050565b600082601f830112610c6d57610c6c610b7b565b5b8135610c7d848260208601610bef565b91505092915050565b6000819050919050565b610c9981610c86565b8114610ca457600080fd5b50565b600081359050610cb681610c90565b92915050565b6000819050919050565b610ccf81610cbc565b8114610cda57600080fd5b50565b600081359050610cec81610cc6565b92915050565b600060c08284031215610d0857610d07610ae5565b5b610d1260c0610b5b565b9050600082013567ffffffffffffffff811115610d3257610d31610b76565b5b610d3e84828501610c58565b6000830152506020610d5284828501610ca7565b6020830152506040610d6684828501610cdd565b6040830152506060610d7a84828501610ad0565b6060830152506080610d8e84828501610ad0565b60808301525060a0610da284828501610ad0565b60a08301525092915050565b600080600060608486031215610dc757610dc6610aaf565b5b6000610dd586828701610ad0565b935050602084013567ffffffffffffffff811115610df657610df5610ab4565b5b610e0286828701610cf2565b9250506040610e1386828701610ca7565b9150509250925092565b60008060408385031215610e3457610e33610aaf565b5b600083013567ffffffffffffffff811115610e5257610e51610ab4565b5b610e5e85828601610cf2565b9250506020610e6f85828601610ca7565b9150509250929050565b7f4e487b7100000000000000000000000000000000000000000000000000000000600052603260045260246000fd5b610eb181610c86565b82525050565b6000606082019050610ecc6000830186610a7b565b610ed96020830185610a7b565b610ee66040830184610ea8565b949350505050565b600060ff82169050919050565b610f0481610eee565b82525050565b600081519050919050565b600082825260208201905092915050565b6000819050602082019050919050565b610f3f81610c86565b82525050565b6000610f518383610f36565b60208301905092915050565b6000602082019050919050565b6000610f7582610f0a565b610f7f8185610f15565b9350610f8a83610f26565b8060005b83811015610fbb578151610fa28882610f45565b9750610fad83610f5d565b925050600181019050610f8e565b5085935050505092915050565b6000606082019050610fdd6000830186610efb565b8181036020830152610fef8185610f6a565b9050610ffe6040830184610ea8565b949350505050565b61100f81610cbc565b82525050565b600081519050919050565b600082825260208201905092915050565b6000819050602082019050919050565b6000819050919050565b600061106661106161105c84610a49565b611041565b610a49565b9050919050565b60006110788261104b565b9050919050565b600061108a8261106d565b9050919050565b61109a8161107f565b82525050565b60006110ac8383611091565b60208301905092915050565b6000602082019050919050565b60006110d082611015565b6110da8185611020565b93506110e583611031565b8060005b838110156111165781516110fd88826110a0565b9750611108836110b8565b9250506001810190506110e9565b5085935050505092915050565b600082825260208201905092915050565b600061113f82610f0a565b6111498185611123565b935061115483610f26565b8060005b8381101561118557815161116c8882610f45565b975061117783610f5d565b925050600181019050611158565b5085935050505092915050565b600081519050919050565b600082825260208201905092915050565b60005b838110156111cc5780820151818401526020810190506111b1565b838111156111db576000848401525b50505050565b60006111ec82611192565b6111f6818561119d565b93506112068185602086016111ae565b61120f81610aea565b840191505092915050565b60008115159050919050565b61122f8161121a565b82525050565b6000608083016000830151848203600086015261125282826110c5565b9150506020830151848203602086015261126c8282611134565b9150506040830151848203604086015261128682826111e1565b915050606083015161129b6060860182611226565b508091505092915050565b60006080820190506112bb6000830187611006565b6112c86020830186610a7b565b6112d56040830185610a7b565b81810360608301526112e78184611235565b905095945050505050565b60008151905061130181610c90565b92915050565b60006020828403121561131d5761131c610aaf565b5b600061132b848285016112f2565b91505092915050565b61133d8161121a565b811461134857600080fd5b50565b60008151905061135a81611334565b92915050565b60006020828403121561137657611375610aaf565b5b60006113848482850161134b565b91505092915050565b600082825260208201905092915050565b7f5361666545524332303a204552433230206f7065726174696f6e20646964206e60008201527f6f74207375636365656400000000000000000000000000000000000000000000602082015250565b60006113fa602a8361138d565b91506114058261139e565b604082019050919050565b60006020820190508181036000830152611429816113ed565b9050919050565b60006040820190506114456000830185610a7b565b6114526020830184610a7b565b9392505050565b7f4e487b7100000000000000000000000000000000000000000000000000000000600052601160045260246000fd5b600061149382610c86565b915061149e83610c86565b9250827fffffffffffffffffffffffffffffffffffffffffffffffffffffffffffffffff038211156114d3576114d2611459565b5b828201905092915050565b60006040820190506114f36000830185610a7b565b6115006020830184610ea8565b9392505050565b7f416464726573733a20696e73756666696369656e742062616c616e636520666f60008201527f722063616c6c0000000000000000000000000000000000000000000000000000602082015250565b600061156360268361138d565b915061156e82611507565b604082019050919050565b6000602082019050818103600083015261159281611556565b9050919050565b7f416464726573733a2063616c6c20746f206e6f6e2d636f6e7472616374000000600082015250565b60006115cf601d8361138d565b91506115da82611599565b602082019050919050565b600060208201905081810360008301526115fe816115c2565b9050919050565b600081905092915050565b600061161b82611192565b6116258185611605565b93506116358185602086016111ae565b80840191505092915050565b600061164d8284611610565b915081905092915050565b600081519050919050565b600061166e82611658565b611678818561138d565b93506116888185602086016111ae565b61169181610aea565b840191505092915050565b600060208201905081810360008301526116b68184611663565b90509291505056fea26469706673582212206f478613433fd40ff584591b332c413c1451bc1c5775ebf02371fd98a5fb043664736f6c634300080d0033",
			"opcodes": "PUSH1 0xA0 PUSH1 0x40 MSTORE CALLVALUE DUP1 ISZERO PUSH3 0x11 JUMPI PUSH1 0x0 DUP1 REVERT JUMPDEST POP PUSH1 0x40 MLOAD PUSH3 0x182B CODESIZE SUB DUP1 PUSH3 0x182B DUP4 CODECOPY DUP2 DUP2 ADD PUSH1 0x40 MSTORE DUP2 ADD SWAP1 PUSH3 0x37 SWAP2 SWAP1 PUSH3 0xDC JUMP JUMPDEST DUP1 PUSH20 0xFFFFFFFFFFFFFFFFFFFFFFFFFFFFFFFFFFFFFFFF AND PUSH1 0x80 DUP2 PUSH20 0xFFFFFFFFFFFFFFFFFFFFFFFFFFFFFFFFFFFFFFFF AND DUP2 MSTORE POP POP POP PUSH3 0x10E JUMP JUMPDEST PUSH1 0x0 DUP1 REVERT JUMPDEST PUSH1 0x0 PUSH20 0xFFFFFFFFFFFFFFFFFFFFFFFFFFFFFFFFFFFFFFFF DUP3 AND SWAP1 POP SWAP2 SWAP1 POP JUMP JUMPDEST PUSH1 0x0 PUSH3 0xA4 DUP3 PUSH3 0x77 JUMP JUMPDEST SWAP1 POP SWAP2 SWAP1 POP JUMP JUMPDEST PUSH3 0xB6 DUP2 PUSH3 0x97 JUMP JUMPDEST DUP2 EQ PUSH3 0xC2 JUMPI PUSH1 0x0 DUP1 REVERT JUMPDEST POP JUMP JUMPDEST PUSH1 0x0 DUP2 MLOAD SWAP1 POP PUSH3 0xD6 DUP2 PUSH3 0xAB JUMP JUMPDEST SWAP3 SWAP2 POP POP JUMP JUMPDEST PUSH1 0x0 PUSH1 0x20 DUP3 DUP5 SUB SLT ISZERO PUSH3 0xF5 JUMPI PUSH3 0xF4 PUSH3 0x72 JUMP JUMPDEST JUMPDEST PUSH1 0x0 PUSH3 0x105 DUP5 DUP3 DUP6 ADD PUSH3 0xC5 JUMP JUMPDEST SWAP2 POP POP SWAP3 SWAP2 POP POP JUMP JUMPDEST PUSH1 0x80 MLOAD PUSH2 0x16F4 PUSH3 0x137 PUSH1 0x0 CODECOPY PUSH1 0x0 DUP2 DUP2 PUSH1 0x9E ADD MSTORE DUP2 DUP2 PUSH2 0x31C ADD MSTORE PUSH2 0x37E ADD MSTORE PUSH2 0x16F4 PUSH1 0x0 RETURN INVALID PUSH1 0x80 PUSH1 0x40 MSTORE CALLVALUE DUP1 ISZERO PUSH2 0x10 JUMPI PUSH1 0x0 DUP1 REVERT JUMPDEST POP PUSH1 0x4 CALLDATASIZE LT PUSH2 0x41 JUMPI PUSH1 0x0 CALLDATALOAD PUSH1 0xE0 SHR DUP1 PUSH4 0x77ABA213 EQ PUSH2 0x46 JUMPI DUP1 PUSH4 0x9CBCF4C7 EQ PUSH2 0x64 JUMPI DUP1 PUSH4 0xBFBD3808 EQ PUSH2 0x80 JUMPI JUMPDEST PUSH1 0x0 DUP1 REVERT JUMPDEST PUSH2 0x4E PUSH2 0x9C JUMP JUMPDEST PUSH1 0x40 MLOAD PUSH2 0x5B SWAP2 SWAP1 PUSH2 0xA8A JUMP JUMPDEST PUSH1 0x40 MLOAD DUP1 SWAP2 SUB SWAP1 RETURN JUMPDEST PUSH2 0x7E PUSH1 0x4 DUP1 CALLDATASIZE SUB DUP2 ADD SWAP1 PUSH2 0x79 SWAP2 SWAP1 PUSH2 0xDAE JUMP JUMPDEST PUSH2 0xC0 JUMP JUMPDEST STOP JUMPDEST PUSH2 0x9A PUSH1 0x4 DUP1 CALLDATASIZE SUB DUP2 ADD SWAP1 PUSH2 0x95 SWAP2 SWAP1 PUSH2 0xE1D JUMP JUMPDEST PUSH2 0x130 JUMP JUMPDEST STOP JUMPDEST PUSH32 0x0 DUP2 JUMP JUMPDEST PUSH1 0x0 DUP3 PUSH1 0x0 ADD MLOAD DUP4 PUSH1 0x20 ADD MLOAD DUP2 MLOAD DUP2 LT PUSH2 0xDD JUMPI PUSH2 0xDC PUSH2 0xE79 JUMP JUMPDEST JUMPDEST PUSH1 0x20 MUL PUSH1 0x20 ADD ADD MLOAD SWAP1 POP DUP1 PUSH20 0xFFFFFFFFFFFFFFFFFFFFFFFFFFFFFFFFFFFFFFFF AND DUP5 PUSH20 0xFFFFFFFFFFFFFFFFFFFFFFFFFFFFFFFFFFFFFFFF AND SUB PUSH2 0x129 JUMPI PUSH2 0x124 DUP4 DUP4 PUSH2 0x130 JUMP JUMPDEST PUSH2 0x12A JUMP JUMPDEST JUMPDEST POP POP POP POP JUMP JUMPDEST PUSH1 0x0 DUP3 PUSH1 0x0 ADD MLOAD DUP4 PUSH1 0x20 ADD MLOAD DUP2 MLOAD DUP2 LT PUSH2 0x14D JUMPI PUSH2 0x14C PUSH2 0xE79 JUMP JUMPDEST JUMPDEST PUSH1 0x20 MUL PUSH1 0x20 ADD ADD MLOAD SWAP1 POP PUSH2 0x184 CALLER ADDRESS DUP5 DUP5 PUSH20 0xFFFFFFFFFFFFFFFFFFFFFFFFFFFFFFFFFFFFFFFF AND PUSH2 0x1B8 SWAP1 SWAP4 SWAP3 SWAP2 SWAP1 PUSH4 0xFFFFFFFF AND JUMP JUMPDEST PUSH2 0x19C DUP4 PUSH1 0x0 ADD MLOAD DUP4 DUP6 PUSH1 0x20 ADD MLOAD DUP7 PUSH1 0x40 ADD MLOAD PUSH2 0x241 JUMP JUMPDEST PUSH2 0x1B3 DUP4 PUSH1 0x60 ADD MLOAD DUP5 PUSH1 0x80 ADD MLOAD DUP6 PUSH1 0xA0 ADD MLOAD PUSH2 0x418 JUMP JUMPDEST POP POP POP JUMP JUMPDEST PUSH2 0x23B DUP5 PUSH4 0x23B872DD PUSH1 0xE0 SHL DUP6 DUP6 DUP6 PUSH1 0x40 MLOAD PUSH1 0x24 ADD PUSH2 0x1D9 SWAP4 SWAP3 SWAP2 SWAP1 PUSH2 0xEB7 JUMP JUMPDEST PUSH1 0x40 MLOAD PUSH1 0x20 DUP2 DUP4 SUB SUB DUP2 MSTORE SWAP1 PUSH1 0x40 MSTORE SWAP1 PUSH28 0xFFFFFFFFFFFFFFFFFFFFFFFFFFFFFFFFFFFFFFFFFFFFFFFFFFFFFFFF NOT AND PUSH1 0x20 DUP3 ADD DUP1 MLOAD PUSH28 0xFFFFFFFFFFFFFFFFFFFFFFFFFFFFFFFFFFFFFFFFFFFFFFFFFFFFFFFF DUP4 DUP2 DUP4 AND OR DUP4 MSTORE POP POP POP POP PUSH2 0x531 JUMP JUMPDEST POP POP POP POP JUMP JUMPDEST PUSH1 0x0 PUSH1 0x1 SWAP1 POP PUSH1 0x0 DUP6 MLOAD PUSH8 0xFFFFFFFFFFFFFFFF DUP2 GT ISZERO PUSH2 0x264 JUMPI PUSH2 0x263 PUSH2 0xAFB JUMP JUMPDEST JUMPDEST PUSH1 0x40 MLOAD SWAP1 DUP1 DUP3 MSTORE DUP1 PUSH1 0x20 MUL PUSH1 0x20 ADD DUP3 ADD PUSH1 0x40 MSTORE DUP1 ISZERO PUSH2 0x292 JUMPI DUP2 PUSH1 0x20 ADD PUSH1 0x20 DUP3 MUL DUP1 CALLDATASIZE DUP4 CALLDATACOPY DUP1 DUP3 ADD SWAP2 POP POP SWAP1 POP JUMPDEST POP SWAP1 POP DUP5 DUP2 DUP6 DUP2 MLOAD DUP2 LT PUSH2 0x2A9 JUMPI PUSH2 0x2A8 PUSH2 0xE79 JUMP JUMPDEST JUMPDEST PUSH1 0x20 MUL PUSH1 0x20 ADD ADD DUP2 DUP2 MSTORE POP POP PUSH1 0x0 PUSH1 0x1 SWAP1 POP PUSH1 0x0 DUP4 DUP4 DUP4 PUSH1 0x40 MLOAD PUSH1 0x20 ADD PUSH2 0x2D2 SWAP4 SWAP3 SWAP2 SWAP1 PUSH2 0xFC8 JUMP JUMPDEST PUSH1 0x40 MLOAD PUSH1 0x20 DUP2 DUP4 SUB SUB DUP2 MSTORE SWAP1 PUSH1 0x40 MSTORE SWAP1 POP PUSH2 0x2EB PUSH2 0xA1F JUMP JUMPDEST DUP9 DUP2 PUSH1 0x0 ADD DUP2 SWAP1 MSTORE POP DUP4 DUP2 PUSH1 0x20 ADD DUP2 SWAP1 MSTORE POP DUP2 DUP2 PUSH1 0x40 ADD DUP2 SWAP1 MSTORE POP PUSH1 0x0 DUP2 PUSH1 0x60 ADD SWAP1 ISZERO ISZERO SWAP1 DUP2 ISZERO ISZERO DUP2 MSTORE POP POP PUSH2 0x37C PUSH32 0x0 DUP10 DUP12 DUP11 DUP2 MLOAD DUP2 LT PUSH2 0x34F JUMPI PUSH2 0x34E PUSH2 0xE79 JUMP JUMPDEST JUMPDEST PUSH1 0x20 MUL PUSH1 0x20 ADD ADD MLOAD PUSH20 0xFFFFFFFFFFFFFFFFFFFFFFFFFFFFFFFFFFFFFFFF AND PUSH2 0x5F8 SWAP1 SWAP3 SWAP2 SWAP1 PUSH4 0xFFFFFFFF AND JUMP JUMPDEST PUSH32 0x0 PUSH20 0xFFFFFFFFFFFFFFFFFFFFFFFFFFFFFFFFFFFFFFFF AND PUSH4 0xB95CAC28 DUP8 ADDRESS ADDRESS DUP6 PUSH1 0x40 MLOAD DUP6 PUSH4 0xFFFFFFFF AND PUSH1 0xE0 SHL DUP2 MSTORE PUSH1 0x4 ADD PUSH2 0x3DB SWAP5 SWAP4 SWAP3 SWAP2 SWAP1 PUSH2 0x12A6 JUMP JUMPDEST PUSH1 0x0 PUSH1 0x40 MLOAD DUP1 DUP4 SUB DUP2 PUSH1 0x0 DUP8 DUP1 EXTCODESIZE ISZERO DUP1 ISZERO PUSH2 0x3F5 JUMPI PUSH1 0x0 DUP1 REVERT JUMPDEST POP GAS CALL ISZERO DUP1 ISZERO PUSH2 0x409 JUMPI RETURNDATASIZE PUSH1 0x0 DUP1 RETURNDATACOPY RETURNDATASIZE PUSH1 0x0 REVERT JUMPDEST POP POP POP POP POP POP POP POP POP POP POP POP POP JUMP JUMPDEST PUSH2 0x422 DUP3 DUP5 PUSH2 0x70A JUMP JUMPDEST DUP2 PUSH20 0xFFFFFFFFFFFFFFFFFFFFFFFFFFFFFFFFFFFFFFFF AND PUSH4 0xDE5F6268 PUSH1 0x40 MLOAD DUP2 PUSH4 0xFFFFFFFF AND PUSH1 0xE0 SHL DUP2 MSTORE PUSH1 0x4 ADD PUSH1 0x0 PUSH1 0x40 MLOAD DUP1 DUP4 SUB DUP2 PUSH1 0x0 DUP8 DUP1 EXTCODESIZE ISZERO DUP1 ISZERO PUSH2 0x46A JUMPI PUSH1 0x0 DUP1 REVERT JUMPDEST POP GAS CALL ISZERO DUP1 ISZERO PUSH2 0x47E JUMPI RETURNDATASIZE PUSH1 0x0 DUP1 RETURNDATACOPY RETURNDATASIZE PUSH1 0x0 REVERT JUMPDEST POP POP POP POP PUSH1 0x0 DUP3 SWAP1 POP PUSH2 0x52B DUP3 DUP3 PUSH20 0xFFFFFFFFFFFFFFFFFFFFFFFFFFFFFFFFFFFFFFFF AND PUSH4 0x70A08231 ADDRESS PUSH1 0x40 MLOAD DUP3 PUSH4 0xFFFFFFFF AND PUSH1 0xE0 SHL DUP2 MSTORE PUSH1 0x4 ADD PUSH2 0x4C4 SWAP2 SWAP1 PUSH2 0xA8A JUMP JUMPDEST PUSH1 0x20 PUSH1 0x40 MLOAD DUP1 DUP4 SUB DUP2 DUP7 GAS STATICCALL ISZERO DUP1 ISZERO PUSH2 0x4E1 JUMPI RETURNDATASIZE PUSH1 0x0 DUP1 RETURNDATACOPY RETURNDATASIZE PUSH1 0x0 REVERT JUMPDEST POP POP POP POP PUSH1 0x40 MLOAD RETURNDATASIZE PUSH1 0x1F NOT PUSH1 0x1F DUP3 ADD AND DUP3 ADD DUP1 PUSH1 0x40 MSTORE POP DUP2 ADD SWAP1 PUSH2 0x505 SWAP2 SWAP1 PUSH2 0x1307 JUMP JUMPDEST DUP4 PUSH20 0xFFFFFFFFFFFFFFFFFFFFFFFFFFFFFFFFFFFFFFFF AND PUSH2 0x7E3 SWAP1 SWAP3 SWAP2 SWAP1 PUSH4 0xFFFFFFFF AND JUMP JUMPDEST POP POP POP POP JUMP JUMPDEST PUSH1 0x0 PUSH2 0x593 DUP3 PUSH1 0x40 MLOAD DUP1 PUSH1 0x40 ADD PUSH1 0x40 MSTORE DUP1 PUSH1 0x20 DUP2 MSTORE PUSH1 0x20 ADD PUSH32 0x5361666545524332303A206C6F772D6C6576656C2063616C6C206661696C6564 DUP2 MSTORE POP DUP6 PUSH20 0xFFFFFFFFFFFFFFFFFFFFFFFFFFFFFFFFFFFFFFFF AND PUSH2 0x869 SWAP1 SWAP3 SWAP2 SWAP1 PUSH4 0xFFFFFFFF AND JUMP JUMPDEST SWAP1 POP PUSH1 0x0 DUP2 MLOAD GT ISZERO PUSH2 0x5F3 JUMPI DUP1 DUP1 PUSH1 0x20 ADD SWAP1 MLOAD DUP2 ADD SWAP1 PUSH2 0x5B3 SWAP2 SWAP1 PUSH2 0x1360 JUMP JUMPDEST PUSH2 0x5F2 JUMPI PUSH1 0x40 MLOAD PUSH32 0x8C379A000000000000000000000000000000000000000000000000000000000 DUP2 MSTORE PUSH1 0x4 ADD PUSH2 0x5E9 SWAP1 PUSH2 0x1410 JUMP JUMPDEST PUSH1 0x40 MLOAD DUP1 SWAP2 SUB SWAP1 REVERT JUMPDEST JUMPDEST POP POP POP JUMP JUMPDEST PUSH1 0x0 DUP2 DUP5 PUSH20 0xFFFFFFFFFFFFFFFFFFFFFFFFFFFFFFFFFFFFFFFF AND PUSH4 0xDD62ED3E ADDRESS DUP7 PUSH1 0x40 MLOAD DUP4 PUSH4 0xFFFFFFFF AND PUSH1 0xE0 SHL DUP2 MSTORE PUSH1 0x4 ADD PUSH2 0x636 SWAP3 SWAP2 SWAP1 PUSH2 0x1430 JUMP JUMPDEST PUSH1 0x20 PUSH1 0x40 MLOAD DUP1 DUP4 SUB DUP2 DUP7 GAS STATICCALL ISZERO DUP1 ISZERO PUSH2 0x653 JUMPI RETURNDATASIZE PUSH1 0x0 DUP1 RETURNDATACOPY RETURNDATASIZE PUSH1 0x0 REVERT JUMPDEST POP POP POP POP PUSH1 0x40 MLOAD RETURNDATASIZE PUSH1 0x1F NOT PUSH1 0x1F DUP3 ADD AND DUP3 ADD DUP1 PUSH1 0x40 MSTORE POP DUP2 ADD SWAP1 PUSH2 0x677 SWAP2 SWAP1 PUSH2 0x1307 JUMP JUMPDEST PUSH2 0x681 SWAP2 SWAP1 PUSH2 0x1488 JUMP JUMPDEST SWAP1 POP PUSH2 0x704 DUP5 PUSH4 0x95EA7B3 PUSH1 0xE0 SHL DUP6 DUP5 PUSH1 0x40 MLOAD PUSH1 0x24 ADD PUSH2 0x6A2 SWAP3 SWAP2 SWAP1 PUSH2 0x14DE JUMP JUMPDEST PUSH1 0x40 MLOAD PUSH1 0x20 DUP2 DUP4 SUB SUB DUP2 MSTORE SWAP1 PUSH1 0x40 MSTORE SWAP1 PUSH28 0xFFFFFFFFFFFFFFFFFFFFFFFFFFFFFFFFFFFFFFFFFFFFFFFFFFFFFFFF NOT AND PUSH1 0x20 DUP3 ADD DUP1 MLOAD PUSH28 0xFFFFFFFFFFFFFFFFFFFFFFFFFFFFFFFFFFFFFFFFFFFFFFFFFFFFFFFF DUP4 DUP2 DUP4 AND OR DUP4 MSTORE POP POP POP POP PUSH2 0x531 JUMP JUMPDEST POP POP POP POP JUMP JUMPDEST PUSH1 0x0 DUP2 SWAP1 POP PUSH1 0x0 DUP2 PUSH20 0xFFFFFFFFFFFFFFFFFFFFFFFFFFFFFFFFFFFFFFFF AND PUSH4 0xDD62ED3E ADDRESS DUP7 PUSH1 0x40 MLOAD DUP4 PUSH4 0xFFFFFFFF AND PUSH1 0xE0 SHL DUP2 MSTORE PUSH1 0x4 ADD PUSH2 0x74C SWAP3 SWAP2 SWAP1 PUSH2 0x1430 JUMP JUMPDEST PUSH1 0x20 PUSH1 0x40 MLOAD DUP1 DUP4 SUB DUP2 DUP7 GAS STATICCALL ISZERO DUP1 ISZERO PUSH2 0x769 JUMPI RETURNDATASIZE PUSH1 0x0 DUP1 RETURNDATACOPY RETURNDATASIZE PUSH1 0x0 REVERT JUMPDEST POP POP POP POP PUSH1 0x40 MLOAD RETURNDATASIZE PUSH1 0x1F NOT PUSH1 0x1F DUP3 ADD AND DUP3 ADD DUP1 PUSH1 0x40 MSTORE POP DUP2 ADD SWAP1 PUSH2 0x78D SWAP2 SWAP1 PUSH2 0x1307 JUMP JUMPDEST SUB PUSH2 0x7DE JUMPI PUSH2 0x7DD DUP4 PUSH32 0xFFFFFFFFFFFFFFFFFFFFFFFFFFFFFFFFFFFFFFFFFFFFFFFFFFFFFFFFFFFFFFFF DUP4 PUSH20 0xFFFFFFFFFFFFFFFFFFFFFFFFFFFFFFFFFFFFFFFF AND PUSH2 0x5F8 SWAP1 SWAP3 SWAP2 SWAP1 PUSH4 0xFFFFFFFF AND JUMP JUMPDEST JUMPDEST POP POP POP JUMP JUMPDEST PUSH2 0x864 DUP4 PUSH4 0xA9059CBB PUSH1 0xE0 SHL DUP5 DUP5 PUSH1 0x40 MLOAD PUSH1 0x24 ADD PUSH2 0x802 SWAP3 SWAP2 SWAP1 PUSH2 0x14DE JUMP JUMPDEST PUSH1 0x40 MLOAD PUSH1 0x20 DUP2 DUP4 SUB SUB DUP2 MSTORE SWAP1 PUSH1 0x40 MSTORE SWAP1 PUSH28 0xFFFFFFFFFFFFFFFFFFFFFFFFFFFFFFFFFFFFFFFFFFFFFFFFFFFFFFFF NOT AND PUSH1 0x20 DUP3 ADD DUP1 MLOAD PUSH28 0xFFFFFFFFFFFFFFFFFFFFFFFFFFFFFFFFFFFFFFFFFFFFFFFFFFFFFFFF DUP4 DUP2 DUP4 AND OR DUP4 MSTORE POP POP POP POP PUSH2 0x531 JUMP JUMPDEST POP POP POP JUMP JUMPDEST PUSH1 0x60 PUSH2 0x878 DUP5 DUP5 PUSH1 0x0 DUP6 PUSH2 0x881 JUMP JUMPDEST SWAP1 POP SWAP4 SWAP3 POP POP POP JUMP JUMPDEST PUSH1 0x60 DUP3 SELFBALANCE LT ISZERO PUSH2 0x8C6 JUMPI PUSH1 0x40 MLOAD PUSH32 0x8C379A000000000000000000000000000000000000000000000000000000000 DUP2 MSTORE PUSH1 0x4 ADD PUSH2 0x8BD SWAP1 PUSH2 0x1579 JUMP JUMPDEST PUSH1 0x40 MLOAD DUP1 SWAP2 SUB SWAP1 REVERT JUMPDEST PUSH2 0x8CF DUP6 PUSH2 0x995 JUMP JUMPDEST PUSH2 0x90E JUMPI PUSH1 0x40 MLOAD PUSH32 0x8C379A000000000000000000000000000000000000000000000000000000000 DUP2 MSTORE PUSH1 0x4 ADD PUSH2 0x905 SWAP1 PUSH2 0x15E5 JUMP JUMPDEST PUSH1 0x40 MLOAD DUP1 SWAP2 SUB SWAP1 REVERT JUMPDEST PUSH1 0x0 DUP1 DUP7 PUSH20 0xFFFFFFFFFFFFFFFFFFFFFFFFFFFFFFFFFFFFFFFF AND DUP6 DUP8 PUSH1 0x40 MLOAD PUSH2 0x937 SWAP2 SWAP1 PUSH2 0x1641 JUMP JUMPDEST PUSH1 0x0 PUSH1 0x40 MLOAD DUP1 DUP4 SUB DUP2 DUP6 DUP8 GAS CALL SWAP3 POP POP POP RETURNDATASIZE DUP1 PUSH1 0x0 DUP2 EQ PUSH2 0x974 JUMPI PUSH1 0x40 MLOAD SWAP2 POP PUSH1 0x1F NOT PUSH1 0x3F RETURNDATASIZE ADD AND DUP3 ADD PUSH1 0x40 MSTORE RETURNDATASIZE DUP3 MSTORE RETURNDATASIZE PUSH1 0x0 PUSH1 0x20 DUP5 ADD RETURNDATACOPY PUSH2 0x979 JUMP JUMPDEST PUSH1 0x60 SWAP2 POP JUMPDEST POP SWAP2 POP SWAP2 POP PUSH2 0x989 DUP3 DUP3 DUP7 PUSH2 0x9B8 JUMP JUMPDEST SWAP3 POP POP POP SWAP5 SWAP4 POP POP POP POP JUMP JUMPDEST PUSH1 0x0 DUP1 DUP3 PUSH20 0xFFFFFFFFFFFFFFFFFFFFFFFFFFFFFFFFFFFFFFFF AND EXTCODESIZE GT SWAP1 POP SWAP2 SWAP1 POP JUMP JUMPDEST PUSH1 0x60 DUP4 ISZERO PUSH2 0x9C8 JUMPI DUP3 SWAP1 POP PUSH2 0xA18 JUMP JUMPDEST PUSH1 0x0 DUP4 MLOAD GT ISZERO PUSH2 0x9DB JUMPI DUP3 MLOAD DUP1 DUP5 PUSH1 0x20 ADD REVERT JUMPDEST DUP2 PUSH1 0x40 MLOAD PUSH32 0x8C379A000000000000000000000000000000000000000000000000000000000 DUP2 MSTORE PUSH1 0x4 ADD PUSH2 0xA0F SWAP2 SWAP1 PUSH2 0x169C JUMP JUMPDEST PUSH1 0x40 MLOAD DUP1 SWAP2 SUB SWAP1 REVERT JUMPDEST SWAP4 SWAP3 POP POP POP JUMP JUMPDEST PUSH1 0x40 MLOAD DUP1 PUSH1 0x80 ADD PUSH1 0x40 MSTORE DUP1 PUSH1 0x60 DUP2 MSTORE PUSH1 0x20 ADD PUSH1 0x60 DUP2 MSTORE PUSH1 0x20 ADD PUSH1 0x60 DUP2 MSTORE PUSH1 0x20 ADD PUSH1 0x0 ISZERO ISZERO DUP2 MSTORE POP SWAP1 JUMP JUMPDEST PUSH1 0x0 PUSH20 0xFFFFFFFFFFFFFFFFFFFFFFFFFFFFFFFFFFFFFFFF DUP3 AND SWAP1 POP SWAP2 SWAP1 POP JUMP JUMPDEST PUSH1 0x0 PUSH2 0xA74 DUP3 PUSH2 0xA49 JUMP JUMPDEST SWAP1 POP SWAP2 SWAP1 POP JUMP JUMPDEST PUSH2 0xA84 DUP2 PUSH2 0xA69 JUMP JUMPDEST DUP3 MSTORE POP POP JUMP JUMPDEST PUSH1 0x0 PUSH1 0x20 DUP3 ADD SWAP1 POP PUSH2 0xA9F PUSH1 0x0 DUP4 ADD DUP5 PUSH2 0xA7B JUMP JUMPDEST SWAP3 SWAP2 POP POP JUMP JUMPDEST PUSH1 0x0 PUSH1 0x40 MLOAD SWAP1 POP SWAP1 JUMP JUMPDEST PUSH1 0x0 DUP1 REVERT JUMPDEST PUSH1 0x0 DUP1 REVERT JUMPDEST PUSH2 0xAC2 DUP2 PUSH2 0xA69 JUMP JUMPDEST DUP2 EQ PUSH2 0xACD JUMPI PUSH1 0x0 DUP1 REVERT JUMPDEST POP JUMP JUMPDEST PUSH1 0x0 DUP2 CALLDATALOAD SWAP1 POP PUSH2 0xADF DUP2 PUSH2 0xAB9 JUMP JUMPDEST SWAP3 SWAP2 POP POP JUMP JUMPDEST PUSH1 0x0 DUP1 REVERT JUMPDEST PUSH1 0x0 PUSH1 0x1F NOT PUSH1 0x1F DUP4 ADD AND SWAP1 POP SWAP2 SWAP1 POP JUMP JUMPDEST PUSH32 0x4E487B7100000000000000000000000000000000000000000000000000000000 PUSH1 0x0 MSTORE PUSH1 0x41 PUSH1 0x4 MSTORE PUSH1 0x24 PUSH1 0x0 REVERT JUMPDEST PUSH2 0xB33 DUP3 PUSH2 0xAEA JUMP JUMPDEST DUP2 ADD DUP2 DUP2 LT PUSH8 0xFFFFFFFFFFFFFFFF DUP3 GT OR ISZERO PUSH2 0xB52 JUMPI PUSH2 0xB51 PUSH2 0xAFB JUMP JUMPDEST JUMPDEST DUP1 PUSH1 0x40 MSTORE POP POP POP JUMP JUMPDEST PUSH1 0x0 PUSH2 0xB65 PUSH2 0xAA5 JUMP JUMPDEST SWAP1 POP PUSH2 0xB71 DUP3 DUP3 PUSH2 0xB2A JUMP JUMPDEST SWAP2 SWAP1 POP JUMP JUMPDEST PUSH1 0x0 DUP1 REVERT JUMPDEST PUSH1 0x0 DUP1 REVERT JUMPDEST PUSH1 0x0 PUSH8 0xFFFFFFFFFFFFFFFF DUP3 GT ISZERO PUSH2 0xB9B JUMPI PUSH2 0xB9A PUSH2 0xAFB JUMP JUMPDEST JUMPDEST PUSH1 0x20 DUP3 MUL SWAP1 POP PUSH1 0x20 DUP2 ADD SWAP1 POP SWAP2 SWAP1 POP JUMP JUMPDEST PUSH1 0x0 DUP1 REVERT JUMPDEST PUSH1 0x0 PUSH2 0xBBC DUP3 PUSH2 0xA69 JUMP JUMPDEST SWAP1 POP SWAP2 SWAP1 POP JUMP JUMPDEST PUSH2 0xBCC DUP2 PUSH2 0xBB1 JUMP JUMPDEST DUP2 EQ PUSH2 0xBD7 JUMPI PUSH1 0x0 DUP1 REVERT JUMPDEST POP JUMP JUMPDEST PUSH1 0x0 DUP2 CALLDATALOAD SWAP1 POP PUSH2 0xBE9 DUP2 PUSH2 0xBC3 JUMP JUMPDEST SWAP3 SWAP2 POP POP JUMP JUMPDEST PUSH1 0x0 PUSH2 0xC02 PUSH2 0xBFD DUP5 PUSH2 0xB80 JUMP JUMPDEST PUSH2 0xB5B JUMP JUMPDEST SWAP1 POP DUP1 DUP4 DUP3 MSTORE PUSH1 0x20 DUP3 ADD SWAP1 POP PUSH1 0x20 DUP5 MUL DUP4 ADD DUP6 DUP2 GT ISZERO PUSH2 0xC25 JUMPI PUSH2 0xC24 PUSH2 0xBAC JUMP JUMPDEST JUMPDEST DUP4 JUMPDEST DUP2 DUP2 LT ISZERO PUSH2 0xC4E JUMPI DUP1 PUSH2 0xC3A DUP9 DUP3 PUSH2 0xBDA JUMP JUMPDEST DUP5 MSTORE PUSH1 0x20 DUP5 ADD SWAP4 POP POP PUSH1 0x20 DUP2 ADD SWAP1 POP PUSH2 0xC27 JUMP JUMPDEST POP POP POP SWAP4 SWAP3 POP POP POP JUMP JUMPDEST PUSH1 0x0 DUP3 PUSH1 0x1F DUP4 ADD SLT PUSH2 0xC6D JUMPI PUSH2 0xC6C PUSH2 0xB7B JUMP JUMPDEST JUMPDEST DUP2 CALLDATALOAD PUSH2 0xC7D DUP5 DUP3 PUSH1 0x20 DUP7 ADD PUSH2 0xBEF JUMP JUMPDEST SWAP2 POP POP SWAP3 SWAP2 POP POP JUMP JUMPDEST PUSH1 0x0 DUP2 SWAP1 POP SWAP2 SWAP1 POP JUMP JUMPDEST PUSH2 0xC99 DUP2 PUSH2 0xC86 JUMP JUMPDEST DUP2 EQ PUSH2 0xCA4 JUMPI PUSH1 0x0 DUP1 REVERT JUMPDEST POP JUMP JUMPDEST PUSH1 0x0 DUP2 CALLDATALOAD SWAP1 POP PUSH2 0xCB6 DUP2 PUSH2 0xC90 JUMP JUMPDEST SWAP3 SWAP2 POP POP JUMP JUMPDEST PUSH1 0x0 DUP2 SWAP1 POP SWAP2 SWAP1 POP JUMP JUMPDEST PUSH2 0xCCF DUP2 PUSH2 0xCBC JUMP JUMPDEST DUP2 EQ PUSH2 0xCDA JUMPI PUSH1 0x0 DUP1 REVERT JUMPDEST POP JUMP JUMPDEST PUSH1 0x0 DUP2 CALLDATALOAD SWAP1 POP PUSH2 0xCEC DUP2 PUSH2 0xCC6 JUMP JUMPDEST SWAP3 SWAP2 POP POP JUMP JUMPDEST PUSH1 0x0 PUSH1 0xC0 DUP3 DUP5 SUB SLT ISZERO PUSH2 0xD08 JUMPI PUSH2 0xD07 PUSH2 0xAE5 JUMP JUMPDEST JUMPDEST PUSH2 0xD12 PUSH1 0xC0 PUSH2 0xB5B JUMP JUMPDEST SWAP1 POP PUSH1 0x0 DUP3 ADD CALLDATALOAD PUSH8 0xFFFFFFFFFFFFFFFF DUP2 GT ISZERO PUSH2 0xD32 JUMPI PUSH2 0xD31 PUSH2 0xB76 JUMP JUMPDEST JUMPDEST PUSH2 0xD3E DUP5 DUP3 DUP6 ADD PUSH2 0xC58 JUMP JUMPDEST PUSH1 0x0 DUP4 ADD MSTORE POP PUSH1 0x20 PUSH2 0xD52 DUP5 DUP3 DUP6 ADD PUSH2 0xCA7 JUMP JUMPDEST PUSH1 0x20 DUP4 ADD MSTORE POP PUSH1 0x40 PUSH2 0xD66 DUP5 DUP3 DUP6 ADD PUSH2 0xCDD JUMP JUMPDEST PUSH1 0x40 DUP4 ADD MSTORE POP PUSH1 0x60 PUSH2 0xD7A DUP5 DUP3 DUP6 ADD PUSH2 0xAD0 JUMP JUMPDEST PUSH1 0x60 DUP4 ADD MSTORE POP PUSH1 0x80 PUSH2 0xD8E DUP5 DUP3 DUP6 ADD PUSH2 0xAD0 JUMP JUMPDEST PUSH1 0x80 DUP4 ADD MSTORE POP PUSH1 0xA0 PUSH2 0xDA2 DUP5 DUP3 DUP6 ADD PUSH2 0xAD0 JUMP JUMPDEST PUSH1 0xA0 DUP4 ADD MSTORE POP SWAP3 SWAP2 POP POP JUMP JUMPDEST PUSH1 0x0 DUP1 PUSH1 0x0 PUSH1 0x60 DUP5 DUP7 SUB SLT ISZERO PUSH2 0xDC7 JUMPI PUSH2 0xDC6 PUSH2 0xAAF JUMP JUMPDEST JUMPDEST PUSH1 0x0 PUSH2 0xDD5 DUP7 DUP3 DUP8 ADD PUSH2 0xAD0 JUMP JUMPDEST SWAP4 POP POP PUSH1 0x20 DUP5 ADD CALLDATALOAD PUSH8 0xFFFFFFFFFFFFFFFF DUP2 GT ISZERO PUSH2 0xDF6 JUMPI PUSH2 0xDF5 PUSH2 0xAB4 JUMP JUMPDEST JUMPDEST PUSH2 0xE02 DUP7 DUP3 DUP8 ADD PUSH2 0xCF2 JUMP JUMPDEST SWAP3 POP POP PUSH1 0x40 PUSH2 0xE13 DUP7 DUP3 DUP8 ADD PUSH2 0xCA7 JUMP JUMPDEST SWAP2 POP POP SWAP3 POP SWAP3 POP SWAP3 JUMP JUMPDEST PUSH1 0x0 DUP1 PUSH1 0x40 DUP4 DUP6 SUB SLT ISZERO PUSH2 0xE34 JUMPI PUSH2 0xE33 PUSH2 0xAAF JUMP JUMPDEST JUMPDEST PUSH1 0x0 DUP4 ADD CALLDATALOAD PUSH8 0xFFFFFFFFFFFFFFFF DUP2 GT ISZERO PUSH2 0xE52 JUMPI PUSH2 0xE51 PUSH2 0xAB4 JUMP JUMPDEST JUMPDEST PUSH2 0xE5E DUP6 DUP3 DUP7 ADD PUSH2 0xCF2 JUMP JUMPDEST SWAP3 POP POP PUSH1 0x20 PUSH2 0xE6F DUP6 DUP3 DUP7 ADD PUSH2 0xCA7 JUMP JUMPDEST SWAP2 POP POP SWAP3 POP SWAP3 SWAP1 POP JUMP JUMPDEST PUSH32 0x4E487B7100000000000000000000000000000000000000000000000000000000 PUSH1 0x0 MSTORE PUSH1 0x32 PUSH1 0x4 MSTORE PUSH1 0x24 PUSH1 0x0 REVERT JUMPDEST PUSH2 0xEB1 DUP2 PUSH2 0xC86 JUMP JUMPDEST DUP3 MSTORE POP POP JUMP JUMPDEST PUSH1 0x0 PUSH1 0x60 DUP3 ADD SWAP1 POP PUSH2 0xECC PUSH1 0x0 DUP4 ADD DUP7 PUSH2 0xA7B JUMP JUMPDEST PUSH2 0xED9 PUSH1 0x20 DUP4 ADD DUP6 PUSH2 0xA7B JUMP JUMPDEST PUSH2 0xEE6 PUSH1 0x40 DUP4 ADD DUP5 PUSH2 0xEA8 JUMP JUMPDEST SWAP5 SWAP4 POP POP POP POP JUMP JUMPDEST PUSH1 0x0 PUSH1 0xFF DUP3 AND SWAP1 POP SWAP2 SWAP1 POP JUMP JUMPDEST PUSH2 0xF04 DUP2 PUSH2 0xEEE JUMP JUMPDEST DUP3 MSTORE POP POP JUMP JUMPDEST PUSH1 0x0 DUP2 MLOAD SWAP1 POP SWAP2 SWAP1 POP JUMP JUMPDEST PUSH1 0x0 DUP3 DUP3 MSTORE PUSH1 0x20 DUP3 ADD SWAP1 POP SWAP3 SWAP2 POP POP JUMP JUMPDEST PUSH1 0x0 DUP2 SWAP1 POP PUSH1 0x20 DUP3 ADD SWAP1 POP SWAP2 SWAP1 POP JUMP JUMPDEST PUSH2 0xF3F DUP2 PUSH2 0xC86 JUMP JUMPDEST DUP3 MSTORE POP POP JUMP JUMPDEST PUSH1 0x0 PUSH2 0xF51 DUP4 DUP4 PUSH2 0xF36 JUMP JUMPDEST PUSH1 0x20 DUP4 ADD SWAP1 POP SWAP3 SWAP2 POP POP JUMP JUMPDEST PUSH1 0x0 PUSH1 0x20 DUP3 ADD SWAP1 POP SWAP2 SWAP1 POP JUMP JUMPDEST PUSH1 0x0 PUSH2 0xF75 DUP3 PUSH2 0xF0A JUMP JUMPDEST PUSH2 0xF7F DUP2 DUP6 PUSH2 0xF15 JUMP JUMPDEST SWAP4 POP PUSH2 0xF8A DUP4 PUSH2 0xF26 JUMP JUMPDEST DUP1 PUSH1 0x0 JUMPDEST DUP4 DUP2 LT ISZERO PUSH2 0xFBB JUMPI DUP2 MLOAD PUSH2 0xFA2 DUP9 DUP3 PUSH2 0xF45 JUMP JUMPDEST SWAP8 POP PUSH2 0xFAD DUP4 PUSH2 0xF5D JUMP JUMPDEST SWAP3 POP POP PUSH1 0x1 DUP2 ADD SWAP1 POP PUSH2 0xF8E JUMP JUMPDEST POP DUP6 SWAP4 POP POP POP POP SWAP3 SWAP2 POP POP JUMP JUMPDEST PUSH1 0x0 PUSH1 0x60 DUP3 ADD SWAP1 POP PUSH2 0xFDD PUSH1 0x0 DUP4 ADD DUP7 PUSH2 0xEFB JUMP JUMPDEST DUP2 DUP2 SUB PUSH1 0x20 DUP4 ADD MSTORE PUSH2 0xFEF DUP2 DUP6 PUSH2 0xF6A JUMP JUMPDEST SWAP1 POP PUSH2 0xFFE PUSH1 0x40 DUP4 ADD DUP5 PUSH2 0xEA8 JUMP JUMPDEST SWAP5 SWAP4 POP POP POP POP JUMP JUMPDEST PUSH2 0x100F DUP2 PUSH2 0xCBC JUMP JUMPDEST DUP3 MSTORE POP POP JUMP JUMPDEST PUSH1 0x0 DUP2 MLOAD SWAP1 POP SWAP2 SWAP1 POP JUMP JUMPDEST PUSH1 0x0 DUP3 DUP3 MSTORE PUSH1 0x20 DUP3 ADD SWAP1 POP SWAP3 SWAP2 POP POP JUMP JUMPDEST PUSH1 0x0 DUP2 SWAP1 POP PUSH1 0x20 DUP3 ADD SWAP1 POP SWAP2 SWAP1 POP JUMP JUMPDEST PUSH1 0x0 DUP2 SWAP1 POP SWAP2 SWAP1 POP JUMP JUMPDEST PUSH1 0x0 PUSH2 0x1066 PUSH2 0x1061 PUSH2 0x105C DUP5 PUSH2 0xA49 JUMP JUMPDEST PUSH2 0x1041 JUMP JUMPDEST PUSH2 0xA49 JUMP JUMPDEST SWAP1 POP SWAP2 SWAP1 POP JUMP JUMPDEST PUSH1 0x0 PUSH2 0x1078 DUP3 PUSH2 0x104B JUMP JUMPDEST SWAP1 POP SWAP2 SWAP1 POP JUMP JUMPDEST PUSH1 0x0 PUSH2 0x108A DUP3 PUSH2 0x106D JUMP JUMPDEST SWAP1 POP SWAP2 SWAP1 POP JUMP JUMPDEST PUSH2 0x109A DUP2 PUSH2 0x107F JUMP JUMPDEST DUP3 MSTORE POP POP JUMP JUMPDEST PUSH1 0x0 PUSH2 0x10AC DUP4 DUP4 PUSH2 0x1091 JUMP JUMPDEST PUSH1 0x20 DUP4 ADD SWAP1 POP SWAP3 SWAP2 POP POP JUMP JUMPDEST PUSH1 0x0 PUSH1 0x20 DUP3 ADD SWAP1 POP SWAP2 SWAP1 POP JUMP JUMPDEST PUSH1 0x0 PUSH2 0x10D0 DUP3 PUSH2 0x1015 JUMP JUMPDEST PUSH2 0x10DA DUP2 DUP6 PUSH2 0x1020 JUMP JUMPDEST SWAP4 POP PUSH2 0x10E5 DUP4 PUSH2 0x1031 JUMP JUMPDEST DUP1 PUSH1 0x0 JUMPDEST DUP4 DUP2 LT ISZERO PUSH2 0x1116 JUMPI DUP2 MLOAD PUSH2 0x10FD DUP9 DUP3 PUSH2 0x10A0 JUMP JUMPDEST SWAP8 POP PUSH2 0x1108 DUP4 PUSH2 0x10B8 JUMP JUMPDEST SWAP3 POP POP PUSH1 0x1 DUP2 ADD SWAP1 POP PUSH2 0x10E9 JUMP JUMPDEST POP DUP6 SWAP4 POP POP POP POP SWAP3 SWAP2 POP POP JUMP JUMPDEST PUSH1 0x0 DUP3 DUP3 MSTORE PUSH1 0x20 DUP3 ADD SWAP1 POP SWAP3 SWAP2 POP POP JUMP JUMPDEST PUSH1 0x0 PUSH2 0x113F DUP3 PUSH2 0xF0A JUMP JUMPDEST PUSH2 0x1149 DUP2 DUP6 PUSH2 0x1123 JUMP JUMPDEST SWAP4 POP PUSH2 0x1154 DUP4 PUSH2 0xF26 JUMP JUMPDEST DUP1 PUSH1 0x0 JUMPDEST DUP4 DUP2 LT ISZERO PUSH2 0x1185 JUMPI DUP2 MLOAD PUSH2 0x116C DUP9 DUP3 PUSH2 0xF45 JUMP JUMPDEST SWAP8 POP PUSH2 0x1177 DUP4 PUSH2 0xF5D JUMP JUMPDEST SWAP3 POP POP PUSH1 0x1 DUP2 ADD SWAP1 POP PUSH2 0x1158 JUMP JUMPDEST POP DUP6 SWAP4 POP POP POP POP SWAP3 SWAP2 POP POP JUMP JUMPDEST PUSH1 0x0 DUP2 MLOAD SWAP1 POP SWAP2 SWAP1 POP JUMP JUMPDEST PUSH1 0x0 DUP3 DUP3 MSTORE PUSH1 0x20 DUP3 ADD SWAP1 POP SWAP3 SWAP2 POP POP JUMP JUMPDEST PUSH1 0x0 JUMPDEST DUP4 DUP2 LT ISZERO PUSH2 0x11CC JUMPI DUP1 DUP3 ADD MLOAD DUP2 DUP5 ADD MSTORE PUSH1 0x20 DUP2 ADD SWAP1 POP PUSH2 0x11B1 JUMP JUMPDEST DUP4 DUP2 GT ISZERO PUSH2 0x11DB JUMPI PUSH1 0x0 DUP5 DUP5 ADD MSTORE JUMPDEST POP POP POP POP JUMP JUMPDEST PUSH1 0x0 PUSH2 0x11EC DUP3 PUSH2 0x1192 JUMP JUMPDEST PUSH2 0x11F6 DUP2 DUP6 PUSH2 0x119D JUMP JUMPDEST SWAP4 POP PUSH2 0x1206 DUP2 DUP6 PUSH1 0x20 DUP7 ADD PUSH2 0x11AE JUMP JUMPDEST PUSH2 0x120F DUP2 PUSH2 0xAEA JUMP JUMPDEST DUP5 ADD SWAP2 POP POP SWAP3 SWAP2 POP POP JUMP JUMPDEST PUSH1 0x0 DUP2 ISZERO ISZERO SWAP1 POP SWAP2 SWAP1 POP JUMP JUMPDEST PUSH2 0x122F DUP2 PUSH2 0x121A JUMP JUMPDEST DUP3 MSTORE POP POP JUMP JUMPDEST PUSH1 0x0 PUSH1 0x80 DUP4 ADD PUSH1 0x0 DUP4 ADD MLOAD DUP5 DUP3 SUB PUSH1 0x0 DUP7 ADD MSTORE PUSH2 0x1252 DUP3 DUP3 PUSH2 0x10C5 JUMP JUMPDEST SWAP2 POP POP PUSH1 0x20 DUP4 ADD MLOAD DUP5 DUP3 SUB PUSH1 0x20 DUP7 ADD MSTORE PUSH2 0x126C DUP3 DUP3 PUSH2 0x1134 JUMP JUMPDEST SWAP2 POP POP PUSH1 0x40 DUP4 ADD MLOAD DUP5 DUP3 SUB PUSH1 0x40 DUP7 ADD MSTORE PUSH2 0x1286 DUP3 DUP3 PUSH2 0x11E1 JUMP JUMPDEST SWAP2 POP POP PUSH1 0x60 DUP4 ADD MLOAD PUSH2 0x129B PUSH1 0x60 DUP7 ADD DUP3 PUSH2 0x1226 JUMP JUMPDEST POP DUP1 SWAP2 POP POP SWAP3 SWAP2 POP POP JUMP JUMPDEST PUSH1 0x0 PUSH1 0x80 DUP3 ADD SWAP1 POP PUSH2 0x12BB PUSH1 0x0 DUP4 ADD DUP8 PUSH2 0x1006 JUMP JUMPDEST PUSH2 0x12C8 PUSH1 0x20 DUP4 ADD DUP7 PUSH2 0xA7B JUMP JUMPDEST PUSH2 0x12D5 PUSH1 0x40 DUP4 ADD DUP6 PUSH2 0xA7B JUMP JUMPDEST DUP2 DUP2 SUB PUSH1 0x60 DUP4 ADD MSTORE PUSH2 0x12E7 DUP2 DUP5 PUSH2 0x1235 JUMP JUMPDEST SWAP1 POP SWAP6 SWAP5 POP POP POP POP POP JUMP JUMPDEST PUSH1 0x0 DUP2 MLOAD SWAP1 POP PUSH2 0x1301 DUP2 PUSH2 0xC90 JUMP JUMPDEST SWAP3 SWAP2 POP POP JUMP JUMPDEST PUSH1 0x0 PUSH1 0x20 DUP3 DUP5 SUB SLT ISZERO PUSH2 0x131D JUMPI PUSH2 0x131C PUSH2 0xAAF JUMP JUMPDEST JUMPDEST PUSH1 0x0 PUSH2 0x132B DUP5 DUP3 DUP6 ADD PUSH2 0x12F2 JUMP JUMPDEST SWAP2 POP POP SWAP3 SWAP2 POP POP JUMP JUMPDEST PUSH2 0x133D DUP2 PUSH2 0x121A JUMP JUMPDEST DUP2 EQ PUSH2 0x1348 JUMPI PUSH1 0x0 DUP1 REVERT JUMPDEST POP JUMP JUMPDEST PUSH1 0x0 DUP2 MLOAD SWAP1 POP PUSH2 0x135A DUP2 PUSH2 0x1334 JUMP JUMPDEST SWAP3 SWAP2 POP POP JUMP JUMPDEST PUSH1 0x0 PUSH1 0x20 DUP3 DUP5 SUB SLT ISZERO PUSH2 0x1376 JUMPI PUSH2 0x1375 PUSH2 0xAAF JUMP JUMPDEST JUMPDEST PUSH1 0x0 PUSH2 0x1384 DUP5 DUP3 DUP6 ADD PUSH2 0x134B JUMP JUMPDEST SWAP2 POP POP SWAP3 SWAP2 POP POP JUMP JUMPDEST PUSH1 0x0 DUP3 DUP3 MSTORE PUSH1 0x20 DUP3 ADD SWAP1 POP SWAP3 SWAP2 POP POP JUMP JUMPDEST PUSH32 0x5361666545524332303A204552433230206F7065726174696F6E20646964206E PUSH1 0x0 DUP3 ADD MSTORE PUSH32 0x6F74207375636365656400000000000000000000000000000000000000000000 PUSH1 0x20 DUP3 ADD MSTORE POP JUMP JUMPDEST PUSH1 0x0 PUSH2 0x13FA PUSH1 0x2A DUP4 PUSH2 0x138D JUMP JUMPDEST SWAP2 POP PUSH2 0x1405 DUP3 PUSH2 0x139E JUMP JUMPDEST PUSH1 0x40 DUP3 ADD SWAP1 POP SWAP2 SWAP1 POP JUMP JUMPDEST PUSH1 0x0 PUSH1 0x20 DUP3 ADD SWAP1 POP DUP2 DUP2 SUB PUSH1 0x0 DUP4 ADD MSTORE PUSH2 0x1429 DUP2 PUSH2 0x13ED JUMP JUMPDEST SWAP1 POP SWAP2 SWAP1 POP JUMP JUMPDEST PUSH1 0x0 PUSH1 0x40 DUP3 ADD SWAP1 POP PUSH2 0x1445 PUSH1 0x0 DUP4 ADD DUP6 PUSH2 0xA7B JUMP JUMPDEST PUSH2 0x1452 PUSH1 0x20 DUP4 ADD DUP5 PUSH2 0xA7B JUMP JUMPDEST SWAP4 SWAP3 POP POP POP JUMP JUMPDEST PUSH32 0x4E487B7100000000000000000000000000000000000000000000000000000000 PUSH1 0x0 MSTORE PUSH1 0x11 PUSH1 0x4 MSTORE PUSH1 0x24 PUSH1 0x0 REVERT JUMPDEST PUSH1 0x0 PUSH2 0x1493 DUP3 PUSH2 0xC86 JUMP JUMPDEST SWAP2 POP PUSH2 0x149E DUP4 PUSH2 0xC86 JUMP JUMPDEST SWAP3 POP DUP3 PUSH32 0xFFFFFFFFFFFFFFFFFFFFFFFFFFFFFFFFFFFFFFFFFFFFFFFFFFFFFFFFFFFFFFFF SUB DUP3 GT ISZERO PUSH2 0x14D3 JUMPI PUSH2 0x14D2 PUSH2 0x1459 JUMP JUMPDEST JUMPDEST DUP3 DUP3 ADD SWAP1 POP SWAP3 SWAP2 POP POP JUMP JUMPDEST PUSH1 0x0 PUSH1 0x40 DUP3 ADD SWAP1 POP PUSH2 0x14F3 PUSH1 0x0 DUP4 ADD DUP6 PUSH2 0xA7B JUMP JUMPDEST PUSH2 0x1500 PUSH1 0x20 DUP4 ADD DUP5 PUSH2 0xEA8 JUMP JUMPDEST SWAP4 SWAP3 POP POP POP JUMP JUMPDEST PUSH32 0x416464726573733A20696E73756666696369656E742062616C616E636520666F PUSH1 0x0 DUP3 ADD MSTORE PUSH32 0x722063616C6C0000000000000000000000000000000000000000000000000000 PUSH1 0x20 DUP3 ADD MSTORE POP JUMP JUMPDEST PUSH1 0x0 PUSH2 0x1563 PUSH1 0x26 DUP4 PUSH2 0x138D JUMP JUMPDEST SWAP2 POP PUSH2 0x156E DUP3 PUSH2 0x1507 JUMP JUMPDEST PUSH1 0x40 DUP3 ADD SWAP1 POP SWAP2 SWAP1 POP JUMP JUMPDEST PUSH1 0x0 PUSH1 0x20 DUP3 ADD SWAP1 POP DUP2 DUP2 SUB PUSH1 0x0 DUP4 ADD MSTORE PUSH2 0x1592 DUP2 PUSH2 0x1556 JUMP JUMPDEST SWAP1 POP SWAP2 SWAP1 POP JUMP JUMPDEST PUSH32 0x416464726573733A2063616C6C20746F206E6F6E2D636F6E7472616374000000 PUSH1 0x0 DUP3 ADD MSTORE POP JUMP JUMPDEST PUSH1 0x0 PUSH2 0x15CF PUSH1 0x1D DUP4 PUSH2 0x138D JUMP JUMPDEST SWAP2 POP PUSH2 0x15DA DUP3 PUSH2 0x1599 JUMP JUMPDEST PUSH1 0x20 DUP3 ADD SWAP1 POP SWAP2 SWAP1 POP JUMP JUMPDEST PUSH1 0x0 PUSH1 0x20 DUP3 ADD SWAP1 POP DUP2 DUP2 SUB PUSH1 0x0 DUP4 ADD MSTORE PUSH2 0x15FE DUP2 PUSH2 0x15C2 JUMP JUMPDEST SWAP1 POP SWAP2 SWAP1 POP JUMP JUMPDEST PUSH1 0x0 DUP2 SWAP1 POP SWAP3 SWAP2 POP POP JUMP JUMPDEST PUSH1 0x0 PUSH2 0x161B DUP3 PUSH2 0x1192 JUMP JUMPDEST PUSH2 0x1625 DUP2 DUP6 PUSH2 0x1605 JUMP JUMPDEST SWAP4 POP PUSH2 0x1635 DUP2 DUP6 PUSH1 0x20 DUP7 ADD PUSH2 0x11AE JUMP JUMPDEST DUP1 DUP5 ADD SWAP2 POP POP SWAP3 SWAP2 POP POP JUMP JUMPDEST PUSH1 0x0 PUSH2 0x164D DUP3 DUP5 PUSH2 0x1610 JUMP JUMPDEST SWAP2 POP DUP2 SWAP1 POP SWAP3 SWAP2 POP POP JUMP JUMPDEST PUSH1 0x0 DUP2 MLOAD SWAP1 POP SWAP2 SWAP1 POP JUMP JUMPDEST PUSH1 0x0 PUSH2 0x166E DUP3 PUSH2 0x1658 JUMP JUMPDEST PUSH2 0x1678 DUP2 DUP6 PUSH2 0x138D JUMP JUMPDEST SWAP4 POP PUSH2 0x1688 DUP2 DUP6 PUSH1 0x20 DUP7 ADD PUSH2 0x11AE JUMP JUMPDEST PUSH2 0x1691 DUP2 PUSH2 0xAEA JUMP JUMPDEST DUP5 ADD SWAP2 POP POP SWAP3 SWAP2 POP POP JUMP JUMPDEST PUSH1 0x0 PUSH1 0x20 DUP3 ADD SWAP1 POP DUP2 DUP2 SUB PUSH1 0x0 DUP4 ADD MSTORE PUSH2 0x16B6 DUP2 DUP5 PUSH2 0x1663 JUMP JUMPDEST SWAP1 POP SWAP3 SWAP2 POP POP JUMP INVALID LOG2 PUSH5 0x6970667358 0x22 SLT KECCAK256 PUSH16 0x478613433FD40FF584591B332C413C14 MLOAD 0xBC SHR JUMPI PUSH22 0xEBF02371FD98A5FB043664736F6C634300080D003300 "
		},
		"gasEstimates": {
			"creation": {
				"codeDepositCost": "1175200",
				"executionCost": "infinite",
				"totalCost": "infinite"
			},
			"external": {
				"_singleSideDeposit((address[],uint256,bytes32,address,address,address),uint256)": "infinite",
				"balVault()": "infinite",
				"routeDeposit(address,(address[],uint256,bytes32,address,address,address),uint256)": "infinite"
			},
			"internal": {
				"_approveIfNeeded(address,address)": "infinite",
				"_depositLPToVault(address,address,address)": "infinite",
				"_exitPool(contract IAsset[] memory,uint256,uint256,bytes32)": "infinite",
				"_joinPool(contract IAsset[] memory,uint256,uint256,bytes32)": "infinite",
				"_singleSideWithdraw(struct BeetsHelper.VaultParams memory,uint256)": "infinite"
			}
		},
		"methodIdentifiers": {
			"_singleSideDeposit((address[],uint256,bytes32,address,address,address),uint256)": "bfbd3808",
			"balVault()": "77aba213",
			"routeDeposit(address,(address[],uint256,bytes32,address,address,address),uint256)": "9cbcf4c7"
		}
	},
	"abi": [
		{
			"inputs": [
				{
					"internalType": "address",
					"name": "_balVault",
					"type": "address"
				}
			],
			"stateMutability": "nonpayable",
			"type": "constructor"
		},
		{
			"inputs": [
				{
					"components": [
						{
							"internalType": "contract IAsset[]",
							"name": "underlyings",
							"type": "address[]"
						},
						{
							"internalType": "uint256",
							"name": "tokenIndex",
							"type": "uint256"
						},
						{
							"internalType": "bytes32",
							"name": "beetsPoolId",
							"type": "bytes32"
						},
						{
							"internalType": "address",
							"name": "lpToken",
							"type": "address"
						},
						{
							"internalType": "address",
							"name": "vault",
							"type": "address"
						},
						{
							"internalType": "address",
							"name": "recipient",
							"type": "address"
						}
					],
					"internalType": "struct BeetsHelper.VaultParams",
					"name": "details",
					"type": "tuple"
				},
				{
					"internalType": "uint256",
					"name": "amount",
					"type": "uint256"
				}
			],
			"name": "_singleSideDeposit",
			"outputs": [],
			"stateMutability": "nonpayable",
			"type": "function"
		},
		{
			"inputs": [],
			"name": "balVault",
			"outputs": [
				{
					"internalType": "address",
					"name": "",
					"type": "address"
				}
			],
			"stateMutability": "view",
			"type": "function"
		},
		{
			"inputs": [
				{
					"internalType": "address",
					"name": "tokenIn",
					"type": "address"
				},
				{
					"components": [
						{
							"internalType": "contract IAsset[]",
							"name": "underlyings",
							"type": "address[]"
						},
						{
							"internalType": "uint256",
							"name": "tokenIndex",
							"type": "uint256"
						},
						{
							"internalType": "bytes32",
							"name": "beetsPoolId",
							"type": "bytes32"
						},
						{
							"internalType": "address",
							"name": "lpToken",
							"type": "address"
						},
						{
							"internalType": "address",
							"name": "vault",
							"type": "address"
						},
						{
							"internalType": "address",
							"name": "recipient",
							"type": "address"
						}
					],
					"internalType": "struct BeetsHelper.VaultParams",
					"name": "details",
					"type": "tuple"
				},
				{
					"internalType": "uint256",
					"name": "amount",
					"type": "uint256"
				}
			],
			"name": "routeDeposit",
			"outputs": [],
			"stateMutability": "nonpayable",
			"type": "function"
		}
	]
}